{
  "contractName": "NFT",
  "abi": [
    {
      "inputs": [],
      "stateMutability": "nonpayable",
      "type": "constructor"
    },
    {
      "anonymous": false,
      "inputs": [
        {
          "indexed": true,
          "internalType": "address",
          "name": "owner",
          "type": "address"
        },
        {
          "indexed": true,
          "internalType": "address",
          "name": "approved",
          "type": "address"
        },
        {
          "indexed": true,
          "internalType": "uint256",
          "name": "tokenId",
          "type": "uint256"
        }
      ],
      "name": "Approval",
      "type": "event"
    },
    {
      "anonymous": false,
      "inputs": [
        {
          "indexed": true,
          "internalType": "address",
          "name": "owner",
          "type": "address"
        },
        {
          "indexed": true,
          "internalType": "address",
          "name": "operator",
          "type": "address"
        },
        {
          "indexed": false,
          "internalType": "bool",
          "name": "approved",
          "type": "bool"
        }
      ],
      "name": "ApprovalForAll",
      "type": "event"
    },
    {
      "anonymous": false,
      "inputs": [
        {
          "indexed": false,
          "internalType": "address",
          "name": "account",
          "type": "address"
        }
      ],
      "name": "Paused",
      "type": "event"
    },
    {
      "anonymous": false,
      "inputs": [
        {
          "indexed": true,
          "internalType": "bytes32",
          "name": "role",
          "type": "bytes32"
        },
        {
          "indexed": true,
          "internalType": "bytes32",
          "name": "previousAdminRole",
          "type": "bytes32"
        },
        {
          "indexed": true,
          "internalType": "bytes32",
          "name": "newAdminRole",
          "type": "bytes32"
        }
      ],
      "name": "RoleAdminChanged",
      "type": "event"
    },
    {
      "anonymous": false,
      "inputs": [
        {
          "indexed": true,
          "internalType": "bytes32",
          "name": "role",
          "type": "bytes32"
        },
        {
          "indexed": true,
          "internalType": "address",
          "name": "account",
          "type": "address"
        },
        {
          "indexed": true,
          "internalType": "address",
          "name": "sender",
          "type": "address"
        }
      ],
      "name": "RoleGranted",
      "type": "event"
    },
    {
      "anonymous": false,
      "inputs": [
        {
          "indexed": true,
          "internalType": "bytes32",
          "name": "role",
          "type": "bytes32"
        },
        {
          "indexed": true,
          "internalType": "address",
          "name": "account",
          "type": "address"
        },
        {
          "indexed": true,
          "internalType": "address",
          "name": "sender",
          "type": "address"
        }
      ],
      "name": "RoleRevoked",
      "type": "event"
    },
    {
      "anonymous": false,
      "inputs": [
        {
          "indexed": true,
          "internalType": "address",
          "name": "from",
          "type": "address"
        },
        {
          "indexed": true,
          "internalType": "address",
          "name": "to",
          "type": "address"
        },
        {
          "indexed": true,
          "internalType": "uint256",
          "name": "tokenId",
          "type": "uint256"
        }
      ],
      "name": "Transfer",
      "type": "event"
    },
    {
      "anonymous": false,
      "inputs": [
        {
          "indexed": false,
          "internalType": "address",
          "name": "account",
          "type": "address"
        }
      ],
      "name": "Unpaused",
      "type": "event"
    },
    {
      "inputs": [],
      "name": "DEFAULT_ADMIN_ROLE",
      "outputs": [
        {
          "internalType": "bytes32",
          "name": "",
          "type": "bytes32"
        }
      ],
      "stateMutability": "view",
      "type": "function",
      "constant": true
    },
    {
      "inputs": [],
      "name": "MINTER_ROLE",
      "outputs": [
        {
          "internalType": "bytes32",
          "name": "",
          "type": "bytes32"
        }
      ],
      "stateMutability": "view",
      "type": "function",
      "constant": true
    },
    {
      "inputs": [],
      "name": "PAUSER_ROLE",
      "outputs": [
        {
          "internalType": "bytes32",
          "name": "",
          "type": "bytes32"
        }
      ],
      "stateMutability": "view",
      "type": "function",
      "constant": true
    },
    {
      "inputs": [
        {
          "internalType": "uint256",
          "name": "tokenId",
          "type": "uint256"
        },
        {
          "internalType": "string",
          "name": "CID",
          "type": "string"
        }
      ],
      "name": "addArticle",
      "outputs": [],
      "stateMutability": "nonpayable",
      "type": "function"
    },
    {
      "inputs": [
        {
          "internalType": "address",
          "name": "to",
          "type": "address"
        },
        {
          "internalType": "uint256",
          "name": "tokenId",
          "type": "uint256"
        }
      ],
      "name": "approve",
      "outputs": [],
      "stateMutability": "nonpayable",
      "type": "function"
    },
    {
      "inputs": [
        {
          "internalType": "uint256",
          "name": "tokenId",
          "type": "uint256"
        },
        {
          "internalType": "uint256",
          "name": "articleID",
          "type": "uint256"
        }
      ],
      "name": "articleOfPassportByID",
      "outputs": [
        {
          "internalType": "string",
          "name": "",
          "type": "string"
        }
      ],
      "stateMutability": "view",
      "type": "function",
      "constant": true
    },
    {
      "inputs": [
        {
          "internalType": "uint256",
          "name": "tokenId",
          "type": "uint256"
        }
      ],
      "name": "articlesOf",
      "outputs": [
        {
          "internalType": "string[]",
          "name": "",
          "type": "string[]"
        }
      ],
      "stateMutability": "view",
      "type": "function",
      "constant": true
    },
    {
      "inputs": [
        {
          "internalType": "address",
          "name": "owner",
          "type": "address"
        }
      ],
      "name": "balanceOf",
      "outputs": [
        {
          "internalType": "uint256",
          "name": "",
          "type": "uint256"
        }
      ],
      "stateMutability": "view",
      "type": "function",
      "constant": true
    },
    {
      "inputs": [
        {
          "internalType": "uint256",
          "name": "tokenId",
          "type": "uint256"
        }
      ],
      "name": "burn",
      "outputs": [],
      "stateMutability": "nonpayable",
      "type": "function"
    },
    {
      "inputs": [
        {
          "internalType": "uint256",
          "name": "tokenId",
          "type": "uint256"
        },
        {
          "internalType": "uint256",
          "name": "articleID",
          "type": "uint256"
        },
        {
          "internalType": "string",
          "name": "CID",
          "type": "string"
        }
      ],
      "name": "editArticle",
      "outputs": [],
      "stateMutability": "nonpayable",
      "type": "function"
    },
    {
      "inputs": [
        {
          "internalType": "uint256",
          "name": "tokenId",
          "type": "uint256"
        }
      ],
      "name": "emailOf",
      "outputs": [
        {
          "internalType": "string",
          "name": "",
          "type": "string"
        }
      ],
      "stateMutability": "view",
      "type": "function",
      "constant": true
    },
    {
      "inputs": [
        {
          "internalType": "uint256",
          "name": "tokenId",
          "type": "uint256"
        }
      ],
      "name": "getApproved",
      "outputs": [
        {
          "internalType": "address",
          "name": "",
          "type": "address"
        }
      ],
      "stateMutability": "view",
      "type": "function",
      "constant": true
    },
    {
      "inputs": [
        {
          "internalType": "bytes32",
          "name": "role",
          "type": "bytes32"
        }
      ],
      "name": "getRoleAdmin",
      "outputs": [
        {
          "internalType": "bytes32",
          "name": "",
          "type": "bytes32"
        }
      ],
      "stateMutability": "view",
      "type": "function",
      "constant": true
    },
    {
      "inputs": [
        {
          "internalType": "bytes32",
          "name": "role",
          "type": "bytes32"
        },
        {
          "internalType": "uint256",
          "name": "index",
          "type": "uint256"
        }
      ],
      "name": "getRoleMember",
      "outputs": [
        {
          "internalType": "address",
          "name": "",
          "type": "address"
        }
      ],
      "stateMutability": "view",
      "type": "function",
      "constant": true
    },
    {
      "inputs": [
        {
          "internalType": "bytes32",
          "name": "role",
          "type": "bytes32"
        }
      ],
      "name": "getRoleMemberCount",
      "outputs": [
        {
          "internalType": "uint256",
          "name": "",
          "type": "uint256"
        }
      ],
      "stateMutability": "view",
      "type": "function",
      "constant": true
    },
    {
      "inputs": [
        {
          "internalType": "bytes32",
          "name": "role",
          "type": "bytes32"
        },
        {
          "internalType": "address",
          "name": "account",
          "type": "address"
        }
      ],
      "name": "grantRole",
      "outputs": [],
      "stateMutability": "nonpayable",
      "type": "function"
    },
    {
      "inputs": [
        {
          "internalType": "bytes32",
          "name": "role",
          "type": "bytes32"
        },
        {
          "internalType": "address",
          "name": "account",
          "type": "address"
        }
      ],
      "name": "hasRole",
      "outputs": [
        {
          "internalType": "bool",
          "name": "",
          "type": "bool"
        }
      ],
      "stateMutability": "view",
      "type": "function",
      "constant": true
    },
    {
      "inputs": [
        {
          "internalType": "address",
          "name": "owner",
          "type": "address"
        },
        {
          "internalType": "address",
          "name": "operator",
          "type": "address"
        }
      ],
      "name": "isApprovedForAll",
      "outputs": [
        {
          "internalType": "bool",
          "name": "",
          "type": "bool"
        }
      ],
      "stateMutability": "view",
      "type": "function",
      "constant": true
    },
    {
      "inputs": [
        {
          "internalType": "address",
          "name": "to",
          "type": "address"
        },
        {
          "internalType": "string",
          "name": "username_",
          "type": "string"
        },
        {
          "internalType": "string",
          "name": "email_",
          "type": "string"
        }
      ],
      "name": "mint",
      "outputs": [],
      "stateMutability": "nonpayable",
      "type": "function"
    },
    {
      "inputs": [],
      "name": "name",
      "outputs": [
        {
          "internalType": "string",
          "name": "",
          "type": "string"
        }
      ],
      "stateMutability": "view",
      "type": "function",
      "constant": true
    },
    {
      "inputs": [
        {
          "internalType": "uint256",
          "name": "tokenId",
          "type": "uint256"
        }
      ],
      "name": "ownerOf",
      "outputs": [
        {
          "internalType": "address",
          "name": "",
          "type": "address"
        }
      ],
      "stateMutability": "view",
      "type": "function",
      "constant": true
    },
    {
      "inputs": [],
      "name": "pause",
      "outputs": [],
      "stateMutability": "nonpayable",
      "type": "function"
    },
    {
      "inputs": [],
      "name": "paused",
      "outputs": [
        {
          "internalType": "bool",
          "name": "",
          "type": "bool"
        }
      ],
      "stateMutability": "view",
      "type": "function",
      "constant": true
    },
    {
      "inputs": [
        {
          "internalType": "bytes32",
          "name": "role",
          "type": "bytes32"
        },
        {
          "internalType": "address",
          "name": "account",
          "type": "address"
        }
      ],
      "name": "renounceRole",
      "outputs": [],
      "stateMutability": "nonpayable",
      "type": "function"
    },
    {
      "inputs": [
        {
          "internalType": "bytes32",
          "name": "role",
          "type": "bytes32"
        },
        {
          "internalType": "address",
          "name": "account",
          "type": "address"
        }
      ],
      "name": "revokeRole",
      "outputs": [],
      "stateMutability": "nonpayable",
      "type": "function"
    },
    {
      "inputs": [
        {
          "internalType": "address",
          "name": "from",
          "type": "address"
        },
        {
          "internalType": "address",
          "name": "to",
          "type": "address"
        },
        {
          "internalType": "uint256",
          "name": "tokenId",
          "type": "uint256"
        }
      ],
      "name": "safeTransferFrom",
      "outputs": [],
      "stateMutability": "nonpayable",
      "type": "function"
    },
    {
      "inputs": [
        {
          "internalType": "address",
          "name": "from",
          "type": "address"
        },
        {
          "internalType": "address",
          "name": "to",
          "type": "address"
        },
        {
          "internalType": "uint256",
          "name": "tokenId",
          "type": "uint256"
        },
        {
          "internalType": "bytes",
          "name": "_data",
          "type": "bytes"
        }
      ],
      "name": "safeTransferFrom",
      "outputs": [],
      "stateMutability": "nonpayable",
      "type": "function"
    },
    {
      "inputs": [
        {
          "internalType": "address",
          "name": "operator",
          "type": "address"
        },
        {
          "internalType": "bool",
          "name": "approved",
          "type": "bool"
        }
      ],
      "name": "setApprovalForAll",
      "outputs": [],
      "stateMutability": "nonpayable",
      "type": "function"
    },
    {
      "inputs": [
        {
          "internalType": "bytes4",
          "name": "interfaceId",
          "type": "bytes4"
        }
      ],
      "name": "supportsInterface",
      "outputs": [
        {
          "internalType": "bool",
          "name": "",
          "type": "bool"
        }
      ],
      "stateMutability": "view",
      "type": "function",
      "constant": true
    },
    {
      "inputs": [],
      "name": "symbol",
      "outputs": [
        {
          "internalType": "string",
          "name": "",
          "type": "string"
        }
      ],
      "stateMutability": "view",
      "type": "function",
      "constant": true
    },
    {
      "inputs": [
        {
          "internalType": "uint256",
          "name": "index",
          "type": "uint256"
        }
      ],
      "name": "tokenByIndex",
      "outputs": [
        {
          "internalType": "uint256",
          "name": "",
          "type": "uint256"
        }
      ],
      "stateMutability": "view",
      "type": "function",
      "constant": true
    },
    {
      "inputs": [
        {
          "internalType": "address",
          "name": "owner",
          "type": "address"
        },
        {
          "internalType": "uint256",
          "name": "index",
          "type": "uint256"
        }
      ],
      "name": "tokenOfOwnerByIndex",
      "outputs": [
        {
          "internalType": "uint256",
          "name": "",
          "type": "uint256"
        }
      ],
      "stateMutability": "view",
      "type": "function",
      "constant": true
    },
    {
      "inputs": [
        {
          "internalType": "uint256",
          "name": "tokenId",
          "type": "uint256"
        }
      ],
      "name": "tokenURI",
      "outputs": [
        {
          "internalType": "string",
          "name": "",
          "type": "string"
        }
      ],
      "stateMutability": "view",
      "type": "function",
      "constant": true
    },
    {
      "inputs": [],
      "name": "totalSupply",
      "outputs": [
        {
          "internalType": "uint256",
          "name": "",
          "type": "uint256"
        }
      ],
      "stateMutability": "view",
      "type": "function",
      "constant": true
    },
    {
      "inputs": [
        {
          "internalType": "address",
          "name": "from",
          "type": "address"
        },
        {
          "internalType": "address",
          "name": "to",
          "type": "address"
        },
        {
          "internalType": "uint256",
          "name": "tokenId",
          "type": "uint256"
        }
      ],
      "name": "transferFrom",
      "outputs": [],
      "stateMutability": "nonpayable",
      "type": "function"
    },
    {
      "inputs": [],
      "name": "unpause",
      "outputs": [],
      "stateMutability": "nonpayable",
      "type": "function"
    },
    {
      "inputs": [
        {
          "internalType": "uint256",
          "name": "tokenId",
          "type": "uint256"
        }
      ],
      "name": "usernameOf",
      "outputs": [
        {
          "internalType": "string",
          "name": "",
          "type": "string"
        }
      ],
      "stateMutability": "view",
      "type": "function",
      "constant": true
    }
  ],
  "bytecode": "0x60806040523480156200001157600080fd5b506040518060400160405280600881526020017f50617373706f72740000000000000000000000000000000000000000000000008152506040518060400160405280600381526020017f54325000000000000000000000000000000000000000000000000000000000008152506040518060400160405280601481526020017f3132372e302e302e313a383038302f697066732f00000000000000000000000081525082828160029080519060200190620000ce9291906200036a565b508051620000e49060039060208401906200036a565b50506011805460ff19169055508051620001069060139060208401906200036a565b506200012f600062000120640100000000620001a8810204565b640100000000620001ac810204565b620001677f9f2df0fed2c77648de5860a4cc508cd0818c85b8b8a1ab4ceeef8d981c8956a662000120640100000000620001a8810204565b6200019f7f65d7a28e3265b37a6474929f336521b332c1681b933f6cb9f3376673440d862a62000120640100000000620001a8810204565b50505062000466565b3390565b620001c6828264010000000062000fa4620001f382021704565b6000828152600160205260409020620001ee908264010000000062000fae6200020c82021704565b505050565b62000208828264010000000062000235810204565b5050565b60006200022c83600160a060020a038416640100000000620002d1810204565b90505b92915050565b6200024a828264010000000062000329810204565b6200020857600082815260208181526040808320600160a060020a03851684529091529020805460ff191660011790556200028d640100000000620001a8810204565b600160a060020a031681600160a060020a0316837f2f8788117e7eff1d82e926ec794901d17c78024a50270940304540a733656f0d60405160405180910390a45050565b6000620002e8838364010000000062000352810204565b62000320575081546001818101845560008481526020808220909301849055845484825282860190935260409020919091556200022f565b5060006200022f565b600091825260208281526040808420600160a060020a0393909316845291905290205460ff1690565b60009081526001919091016020526040902054151590565b828054620003789062000410565b90600052602060002090601f0160209004810192826200039c5760008555620003e7565b82601f10620003b757805160ff1916838001178555620003e7565b82800160010185558215620003e7579182015b82811115620003e7578251825591602001919060010190620003ca565b50620003f5929150620003f9565b5090565b5b80821115620003f55760008155600101620003fa565b6002810460018216806200042557607f821691505b6020821081141562000460577f4e487b7100000000000000000000000000000000000000000000000000000000600052602260045260246000fd5b50919050565b61337b80620004766000396000f3fe608060405234801561001057600080fd5b5060043610610244576000357c0100000000000000000000000000000000000000000000000000000000900480636352211e1161014d578063a22cb465116100d5578063ca15c87311610099578063ca15c873146104a8578063d5391393146104bb578063d547741f146104c3578063e63ab1e9146104d6578063e985e9c5146104de57610244565b8063a22cb4651461043c578063a56ed4441461044f578063b88d4fde1461046f578063c6c1b3be14610482578063c87b56dd1461049557610244565b806391d148541161011c57806391d14854146103f357806395d89b4114610406578063990711901461040e5780639e4c129514610421578063a217fddf1461043457610244565b80636352211e146103b257806370a08231146103c55780638456cb59146103d85780639010d07c146103e057610244565b80632f745c59116101d057806342966c681161019f57806342966c681461035e57806347ab0287146103715780634f6ccce7146103845780635c975abb1461039757806360ae60761461039f57610244565b80632f745c591461031d57806336568abe146103305780633f4ba83a1461034357806342842e0e1461034b57610244565b806318160ddd1161021757806318160ddd146102bc5780631e6c0b36146102d157806323b872dd146102e4578063248a9ca3146102f75780632f2ff15d1461030a57610244565b806301ffc9a71461024957806306fdde0314610272578063081812fc14610287578063095ea7b3146102a7575b600080fd5b61025c61025736600461269c565b6104f1565b60405161026991906128e9565b60405180910390f35b61027a610504565b60405161026991906128fd565b61029a610295366004612641565b610596565b6040516102699190612839565b6102ba6102b5366004612618565b6105e5565b005b6102c4610683565b60405161026991906128f4565b61027a6102df366004612641565b610689565b6102ba6102f23660046124b9565b610761565b6102c4610305366004612641565b61079c565b6102ba610318366004612659565b6107b1565b6102c461032b366004612618565b6107d3565b6102ba61033e366004612659565b61082b565b6102ba61084d565b6102ba6103593660046124b9565b6108a2565b6102ba61036c366004612641565b6108bd565b6102ba61037f366004612719565b6108f3565b6102c4610392366004612641565b610988565b61025c6109e9565b61027a6103ad36600461267b565b6109f2565b61029a6103c0366004612641565b610aa0565b6102c46103d336600461246d565b610ad8565b6102ba610b1f565b61029a6103ee36600461267b565b610b72565b61025c610401366004612659565b610b91565b61027a610bba565b6102ba61041c3660046125a7565b610bc9565b6102ba61042f3660046126d4565b610c33565b6102c4610cf2565b6102ba61044a36600461256d565b610cf7565b61046261045d366004612641565b610d0d565b6040516102699190612889565b6102ba61047d3660046124f4565b610df9565b61027a610490366004612641565b610e35565b61027a6104a3366004612641565b610e88565b6102c46104b6366004612641565b610f0d565b6102c4610f24565b6102ba6104d1366004612659565b610f48565b6102c4610f52565b61025c6104ec366004612487565b610f76565b60006104fc82610fc3565b90505b919050565b60606002805461051390613277565b80601f016020809104026020016040519081016040528092919081815260200182805461053f90613277565b801561058c5780601f106105615761010080835404028352916020019161058c565b820191906000526020600020905b81548152906001019060200180831161056f57829003601f168201915b5050505050905090565b60006105a182611001565b6105c95760405160e560020a62461bcd0281526004016105c090612e55565b60405180910390fd5b506000908152600b6020526040902054600160a060020a031690565b60006105f082610aa0565b905080600160a060020a031683600160a060020a031614156106275760405160e560020a62461bcd0281526004016105c090612f46565b80600160a060020a031661063961101e565b600160a060020a031614806106555750610655816104ec61101e565b6106745760405160e560020a62461bcd0281526004016105c090612d09565b61067e8383611022565b505050565b600f5490565b600081815260046020526040902054606090600160a060020a03166106c35760405160e560020a62461bcd0281526004016105c090612f0f565b600082815260056020526040902080546106dc90613277565b80601f016020809104026020016040519081016040528092919081815260200182805461070890613277565b80156107555780601f1061072a57610100808354040283529160200191610755565b820191906000526020600020905b81548152906001019060200180831161073857829003601f168201915b50505050509050919050565b61077261076c61101e565b8261109d565b6107915760405160e560020a62461bcd0281526004016105c090612fa3565b61067e838383611125565b60009081526020819052604090206001015490565b6107bb828261126b565b600082815260016020526040902061067e9082610fae565b60006107de83610ad8565b82106107ff5760405160e560020a62461bcd0281526004016105c0906129d9565b50600160a060020a0382166000908152600d602090815260408083208484529091529020545b92915050565b610835828261128f565b600082815260016020526040902061067e90826112d4565b6108797f65d7a28e3265b37a6474929f336521b332c1681b933f6cb9f3376673440d862a61040161101e565b6108985760405160e560020a62461bcd0281526004016105c090613117565b6108a06112e9565b565b61067e83838360405180602001604052806000815250610df9565b6108c861076c61101e565b6108e75760405160e560020a62461bcd0281526004016105c0906130ba565b6108f08161135a565b50565b600083815260046020526040902054600160a060020a031661092a5760405160e560020a62461bcd0281526004016105c090612f0f565b60008381526008602052604090205482111561095b5760405160e560020a62461bcd0281526004016105c090612c18565b6000838152600960209081526040808320858452825290912082516109829284019061232e565b50505050565b6000610992610683565b82106109b35760405160e560020a62461bcd0281526004016105c090613000565b600f82815481106109d75760e060020a634e487b7102600052603260045260246000fd5b90600052602060002001549050919050565b60115460ff1690565b60008281526009602090815260408083208484529091529020805460609190610a1a90613277565b80601f0160208091040260200160405190810160405280929190818152602001828054610a4690613277565b8015610a935780601f10610a6857610100808354040283529160200191610a93565b820191906000526020600020905b815481529060010190602001808311610a7657829003601f168201915b5050505050905092915050565b600081815260046020526040812054600160a060020a0316806104fc5760405160e560020a62461bcd0281526004016105c090612dc3565b6000600160a060020a038216610b035760405160e560020a62461bcd0281526004016105c090612d66565b50600160a060020a03166000908152600a602052604090205490565b610b4b7f65d7a28e3265b37a6474929f336521b332c1681b933f6cb9f3376673440d862a61040161101e565b610b6a5760405160e560020a62461bcd0281526004016105c090612b27565b6108a0611416565b6000828152600160205260408120610b8a9083611474565b9392505050565b600091825260208281526040808420600160a060020a0393909316845291905290205460ff1690565b60606003805461051390613277565b610bf57f9f2df0fed2c77648de5860a4cc508cd0818c85b8b8a1ab4ceeef8d981c8956a661040161101e565b610c145760405160e560020a62461bcd0281526004016105c09061305d565b610c2983610c226012611480565b8484611484565b61067e60126114e4565b600082815260046020526040902054600160a060020a0316610c6a5760405160e560020a62461bcd0281526004016105c090612f0f565b600082815260086020526040902054610c849060016131d2565b600083815260086020908152604080832093909355600781529181208054600181018255908252908290208351610cc39391909201919084019061232e565b506000828152600960209081526040808320600883528184205484528252909120825161067e9284019061232e565b600081565b610d09610d0261101e565b83836114ed565b5050565b606060076000838152602001908152602001600020805480602002602001604051908101604052809291908181526020016000905b82821015610dee578382906000526020600020018054610d6190613277565b80601f0160208091040260200160405190810160405280929190818152602001828054610d8d90613277565b8015610dda5780601f10610daf57610100808354040283529160200191610dda565b820191906000526020600020905b815481529060010190602001808311610dbd57829003601f168201915b505050505081526020019060010190610d42565b505050509050919050565b610e0a610e0461101e565b8361109d565b610e295760405160e560020a62461bcd0281526004016105c090612fa3565b61098284848484611593565b600081815260046020526040902054606090600160a060020a0316610e6f5760405160e560020a62461bcd0281526004016105c090612f0f565b600082815260066020526040902080546106dc90613277565b6060610e9382611001565b610eb25760405160e560020a62461bcd0281526004016105c090612eb2565b6000610ebc6115c9565b90506000815111610edc5760405180602001604052806000815250610b8a565b80610ee6846115d8565b604051602001610ef7929190612789565b6040516020818303038152906040529392505050565b60008181526001602052604081206104fc90611734565b7f9f2df0fed2c77648de5860a4cc508cd0818c85b8b8a1ab4ceeef8d981c8956a681565b610835828261173f565b7f65d7a28e3265b37a6474929f336521b332c1681b933f6cb9f3376673440d862a81565b600160a060020a039182166000908152600c6020908152604080832093909416825291909152205460ff1690565b610d09828261175e565b6000610b8a83600160a060020a0384166117e3565b6000600160e060020a031982167f780e9d630000000000000000000000000000000000000000000000000000000014806104fc57506104fc8261182d565b600090815260046020526040902054600160a060020a0316151590565b3390565b6000818152600b60205260409020805473ffffffffffffffffffffffffffffffffffffffff1916600160a060020a038416908117909155819061106482610aa0565b600160a060020a03167f8c5be1e5ebec7d5bd14f71427d1e84f3dd0314c0f7b2291e5b200ac8c7c3b92560405160405180910390a45050565b60006110a882611001565b6110c75760405160e560020a62461bcd0281526004016105c090612c75565b60006110d283610aa0565b905080600160a060020a031684600160a060020a031614806110f957506110f98185610f76565b8061111d575083600160a060020a031661111284610596565b600160a060020a0316145b949350505050565b82600160a060020a031661113882610aa0565b600160a060020a0316146111615760405160e560020a62461bcd0281526004016105c090612a93565b600160a060020a03821661118a5760405160e560020a62461bcd0281526004016105c090612b84565b61119583838361189f565b6111a0600082611022565b600160a060020a0383166000908152600a602052604081208054600192906111c990849061321d565b9091555050600160a060020a0382166000908152600a602052604081208054600192906111f79084906131d2565b9091555050600081815260046020526040808220805473ffffffffffffffffffffffffffffffffffffffff1916600160a060020a0386811691821790925591518493918716917fddf252ad1be2c89b69c2b068fc378daa952ba7f163c4a11628f55a4df523b3ef91a461067e83838361067e565b6112748261079c565b6112858161128061101e565b6118aa565b61067e838361175e565b61129761101e565b600160a060020a031681600160a060020a0316146112ca5760405160e560020a62461bcd0281526004016105c090613175565b610d098282611911565b6000610b8a83600160a060020a038416611994565b6112f16109e9565b6113105760405160e560020a62461bcd0281526004016105c0906129a2565b6011805460ff191690557f5db9ee0a495bf2e6ff9c91a7834c1ba4fdd244a5e8aa4e537bd38aeae4b073aa61134361101e565b6040516113509190612839565b60405180910390a1565b600061136582610aa0565b90506113738160008461189f565b61137e600083611022565b600160a060020a0381166000908152600a602052604081208054600192906113a790849061321d565b9091555050600082815260046020526040808220805473ffffffffffffffffffffffffffffffffffffffff1916905551839190600160a060020a038416907fddf252ad1be2c89b69c2b068fc378daa952ba7f163c4a11628f55a4df523b3ef908390a4610d098160008461067e565b61141e6109e9565b1561143e5760405160e560020a62461bcd0281526004016105c090612cd2565b6011805460ff191660011790557f62e78cea01bee320cd4e420270b5ea74000d11b0c9f74754ebdbfc544b05a25861134361101e565b6000610b8a8383611aba565b5490565b61149e848460405180602001604052806000815250611af5565b600083815260066020908152604090912082516114bd9284019061232e565b50600083815260056020908152604090912083516114dd9285019061232e565b5050505050565b80546001019055565b81600160a060020a031683600160a060020a031614156115225760405160e560020a62461bcd0281526004016105c090612be1565b600160a060020a038381166000818152600c602090815260408083209487168084529490915290819020805460ff1916851515179055517f17307eab39ab6107e8899845ad3d59bd9653f200f220920489ca2b5937696c31906115869085906128e9565b60405180910390a3505050565b61159e848484611125565b6115aa84848484611b2b565b6109825760405160e560020a62461bcd0281526004016105c090612a36565b60606013805461051390613277565b606081611619575060408051808201909152600181527f300000000000000000000000000000000000000000000000000000000000000060208201526104ff565b8160005b8115611643578061162d816132b5565b915061163c9050600a836131ea565b915061161d565b60008167ffffffffffffffff81111561166f5760e060020a634e487b7102600052604160045260246000fd5b6040519080825280601f01601f191660200182016040528015611699576020820181803683370190505b5090505b841561111d576116ae60018361321d565b91506116bb600a866132d0565b6116c69060306131d2565b7f01000000000000000000000000000000000000000000000000000000000000000281838151811061170b5760e060020a634e487b7102600052603260045260246000fd5b6020010190600160f860020a031916908160001a90535061172d600a866131ea565b945061169d565b60006104fc82611480565b6117488261079c565b6117548161128061101e565b61067e8383611911565b6117688282610b91565b610d0957600082815260208181526040808320600160a060020a03851684529091529020805460ff1916600117905561179f61101e565b600160a060020a031681600160a060020a0316837f2f8788117e7eff1d82e926ec794901d17c78024a50270940304540a733656f0d60405160405180910390a45050565b60006117ef8383611c7e565b61182557508154600181810184556000848152602080822090930184905584548482528286019093526040902091909155610825565b506000610825565b6000600160e060020a031982167f80ac58cd0000000000000000000000000000000000000000000000000000000014806118905750600160e060020a031982167f5b5e139f00000000000000000000000000000000000000000000000000000000145b806104fc57506104fc82611c96565b61067e838383611cd4565b6118b48282610b91565b610d09576118cc81600160a060020a03166014611d07565b6118d7836020611d07565b6040516020016118e89291906127b8565b60408051601f198184030181529082905260e560020a62461bcd0282526105c0916004016128fd565b61191b8282610b91565b15610d0957600082815260208181526040808320600160a060020a03851684529091529020805460ff1916905561195061101e565b600160a060020a031681600160a060020a0316837ff6391f5c32d9c69d2a47ea670b442974b53935d1edc7fd64eb21e047a839171b60405160405180910390a45050565b60008181526001830160205260408120548015611ab05760006119b860018361321d565b85549091506000906119cc9060019061321d565b9050818114611a535760008660000182815481106119fd5760e060020a634e487b7102600052603260045260246000fd5b9060005260206000200154905080876000018481548110611a315760e060020a634e487b7102600052603260045260246000fd5b6000918252602080832090910192909255918252600188019052604090208390555b8554869080611a755760e060020a634e487b7102600052603160045260246000fd5b600190038181906000526020600020016000905590558560010160008681526020019081526020016000206000905560019350505050610825565b6000915050610825565b6000826000018281548110611ae25760e060020a634e487b7102600052603260045260246000fd5b9060005260206000200154905092915050565b611aff8383611f2e565b611b0c6000848484611b2b565b61067e5760405160e560020a62461bcd0281526004016105c090612a36565b6000611b3f84600160a060020a0316612028565b15611c735783600160a060020a031663150b7a02611b5b61101e565b8786866040518563ffffffff167c0100000000000000000000000000000000000000000000000000000000028152600401611b99949392919061284d565b602060405180830381600087803b158015611bb357600080fd5b505af1925050508015611be3575060408051601f3d908101601f19168201909252611be0918101906126b8565b60015b611c40573d808015611c11576040519150601f19603f3d011682016040523d82523d6000602084013e611c16565b606091505b508051611c385760405160e560020a62461bcd0281526004016105c090612a36565b805181602001fd5b600160e060020a0319167f150b7a020000000000000000000000000000000000000000000000000000000014905061111d565b506001949350505050565b60009081526001919091016020526040902054151590565b6000600160e060020a031982167f5a05180f0000000000000000000000000000000000000000000000000000000014806104fc57506104fc8261202e565b611cdf83838361206c565b611ce76109e9565b1561067e5760405160e560020a62461bcd0281526004016105c090612945565b60606000611d168360026131fe565b611d219060026131d2565b67ffffffffffffffff811115611d4a5760e060020a634e487b7102600052604160045260246000fd5b6040519080825280601f01601f191660200182016040528015611d74576020820181803683370190505b5090507f300000000000000000000000000000000000000000000000000000000000000081600081518110611dbc5760e060020a634e487b7102600052603260045260246000fd5b6020010190600160f860020a031916908160001a9053507f780000000000000000000000000000000000000000000000000000000000000081600181518110611e185760e060020a634e487b7102600052603260045260246000fd5b6020010190600160f860020a031916908160001a9053506000611e3c8460026131fe565b611e479060016131d2565b90505b6001811115611f0c577f303132333435363738396162636465660000000000000000000000000000000085600f1660108110611e995760e060020a634e487b7102600052603260045260246000fd5b1a7f010000000000000000000000000000000000000000000000000000000000000002828281518110611edf5760e060020a634e487b7102600052603260045260246000fd5b6020010190600160f860020a031916908160001a905350601090940493611f0581613260565b9050611e4a565b508315610b8a5760405160e560020a62461bcd0281526004016105c090612910565b600160a060020a038216611f575760405160e560020a62461bcd0281526004016105c090612e20565b611f6081611001565b15611f805760405160e560020a62461bcd0281526004016105c090612af0565b611f8c6000838361189f565b600160a060020a0382166000908152600a60205260408120805460019290611fb59084906131d2565b9091555050600081815260046020526040808220805473ffffffffffffffffffffffffffffffffffffffff1916600160a060020a03861690811790915590518392907fddf252ad1be2c89b69c2b068fc378daa952ba7f163c4a11628f55a4df523b3ef908290a4610d096000838361067e565b3b151590565b6000600160e060020a031982167f7965db0b0000000000000000000000000000000000000000000000000000000014806104fc57506104fc826120f5565b61207783838361067e565b600160a060020a0383166120935761208e81612127565b6120b6565b81600160a060020a031683600160a060020a0316146120b6576120b6838261216b565b600160a060020a0382166120d2576120cd81612208565b61067e565b82600160a060020a031682600160a060020a03161461067e5761067e82826122ea565b600160e060020a031981167f01ffc9a70000000000000000000000000000000000000000000000000000000014919050565b600f80546000838152601060205260408120829055600182018355919091527f8d1108e10bcb7c27dddfc02ed9d693a074039d026cf4ea4240b40f7d581ac8020155565b6000600161217884610ad8565b612182919061321d565b6000838152600e60205260409020549091508082146121d557600160a060020a0384166000908152600d602090815260408083208584528252808320548484528184208190558352600e90915290208190555b506000918252600e60209081526040808420849055600160a060020a039094168352600d81528383209183525290812055565b600f5460009061221a9060019061321d565b600083815260106020526040812054600f80549394509092849081106122535760e060020a634e487b7102600052603260045260246000fd5b9060005260206000200154905080600f83815481106122855760e060020a634e487b7102600052603260045260246000fd5b600091825260208083209091019290925582815260109091526040808220849055858252812055600f8054806122ce5760e060020a634e487b7102600052603160045260246000fd5b6001900381819060005260206000200160009055905550505050565b60006122f583610ad8565b600160a060020a039093166000908152600d602090815260408083208684528252808320859055938252600e9052919091209190915550565b82805461233a90613277565b90600052602060002090601f01602090048101928261235c57600085556123a2565b82601f1061237557805160ff19168380011785556123a2565b828001600101855582156123a2579182015b828111156123a2578251825591602001919060010190612387565b506123ae9291506123b2565b5090565b5b808211156123ae57600081556001016123b3565b600067ffffffffffffffff808411156123e2576123e2613316565b604051601f8501601f19168101602001828111828210171561240657612406613316565b60405284815291508183850186101561241e57600080fd5b8484602083013760006020868301015250509392505050565b8035600160a060020a03811681146104ff57600080fd5b600082601f83011261245e578081fd5b610b8a838335602085016123c7565b60006020828403121561247e578081fd5b610b8a82612437565b60008060408385031215612499578081fd5b6124a283612437565b91506124b060208401612437565b90509250929050565b6000806000606084860312156124cd578081fd5b6124d684612437565b92506124e460208501612437565b9150604084013590509250925092565b60008060008060808587031215612509578081fd5b61251285612437565b935061252060208601612437565b925060408501359150606085013567ffffffffffffffff811115612542578182fd5b8501601f81018713612552578182fd5b612561878235602084016123c7565b91505092959194509250565b6000806040838503121561257f578182fd5b61258883612437565b91506020830135801515811461259c578182fd5b809150509250929050565b6000806000606084860312156125bb578283fd5b6125c484612437565b9250602084013567ffffffffffffffff808211156125e0578384fd5b6125ec8783880161244e565b93506040860135915080821115612601578283fd5b5061260e8682870161244e565b9150509250925092565b6000806040838503121561262a578182fd5b61263383612437565b946020939093013593505050565b600060208284031215612652578081fd5b5035919050565b6000806040838503121561266b578182fd5b823591506124b060208401612437565b6000806040838503121561268d578182fd5b50508035926020909101359150565b6000602082840312156126ad578081fd5b8135610b8a8161332f565b6000602082840312156126c9578081fd5b8151610b8a8161332f565b600080604083850312156126e6578182fd5b82359150602083013567ffffffffffffffff811115612703578182fd5b61270f8582860161244e565b9150509250929050565b60008060006060848603121561272d578081fd5b8335925060208401359150604084013567ffffffffffffffff811115612751578182fd5b61260e8682870161244e565b60008151808452612775816020860160208601613234565b601f01601f19169290920160200192915050565b6000835161279b818460208801613234565b8351908301906127af818360208801613234565b01949350505050565b60007f416363657373436f6e74726f6c3a206163636f756e7420000000000000000000825283516127f0816017850160208801613234565b7f206973206d697373696e6720726f6c6520000000000000000000000000000000601791840191820152835161282d816028840160208801613234565b01602801949350505050565b600160a060020a0391909116815260200190565b6000600160a060020a0380871683528086166020840152508360408301526080606083015261287f608083018461275d565b9695505050505050565b6000602080830181845280855180835260408601915060408482028701019250838701855b828110156128dc57603f198886030184526128ca85835161275d565b945092850192908501906001016128ae565b5092979650505050505050565b901515815260200190565b90815260200190565b600060208252610b8a602083018461275d565b6020808252818101527f537472696e67733a20686578206c656e67746820696e73756666696369656e74604082015260600190565b6020808252602b908201527f4552433732315061757361626c653a20746f6b656e207472616e73666572207760408201527f68696c6520706175736564000000000000000000000000000000000000000000606082015260800190565b60208082526014908201527f5061757361626c653a206e6f7420706175736564000000000000000000000000604082015260600190565b6020808252602b908201527f455243373231456e756d657261626c653a206f776e657220696e646578206f7560408201527f74206f6620626f756e6473000000000000000000000000000000000000000000606082015260800190565b60208082526032908201527f4552433732313a207472616e7366657220746f206e6f6e20455243373231526560408201527f63656976657220696d706c656d656e7465720000000000000000000000000000606082015260800190565b60208082526025908201527f4552433732313a207472616e736665722066726f6d20696e636f72726563742060408201527f6f776e6572000000000000000000000000000000000000000000000000000000606082015260800190565b6020808252601c908201527f4552433732313a20746f6b656e20616c7265616479206d696e74656400000000604082015260600190565b6020808252603e908201527f4552433732315072657365744d696e7465725061757365724175746f49643a2060408201527f6d75737420686176652070617573657220726f6c6520746f2070617573650000606082015260800190565b60208082526024908201527f4552433732313a207472616e7366657220746f20746865207a65726f2061646460408201527f7265737300000000000000000000000000000000000000000000000000000000606082015260800190565b60208082526019908201527f4552433732313a20617070726f766520746f2063616c6c657200000000000000604082015260600190565b60208082526025908201527f41727469636c65206d757374206265206164646564206265666f72652065646960408201527f74696f6e21000000000000000000000000000000000000000000000000000000606082015260800190565b6020808252602c908201527f4552433732313a206f70657261746f7220717565727920666f72206e6f6e657860408201527f697374656e7420746f6b656e0000000000000000000000000000000000000000606082015260800190565b60208082526010908201527f5061757361626c653a2070617573656400000000000000000000000000000000604082015260600190565b60208082526038908201527f4552433732313a20617070726f76652063616c6c6572206973206e6f74206f7760408201527f6e6572206e6f7220617070726f76656420666f7220616c6c0000000000000000606082015260800190565b6020808252602a908201527f4552433732313a2062616c616e636520717565727920666f7220746865207a6560408201527f726f206164647265737300000000000000000000000000000000000000000000606082015260800190565b60208082526029908201527f4552433732313a206f776e657220717565727920666f72206e6f6e657869737460408201527f656e7420746f6b656e0000000000000000000000000000000000000000000000606082015260800190565b6020808252818101527f4552433732313a206d696e7420746f20746865207a65726f2061646472657373604082015260600190565b6020808252602c908201527f4552433732313a20617070726f76656420717565727920666f72206e6f6e657860408201527f697374656e7420746f6b656e0000000000000000000000000000000000000000606082015260800190565b6020808252602f908201527f4552433732314d657461646174613a2055524920717565727920666f72206e6f60408201527f6e6578697374656e7420746f6b656e0000000000000000000000000000000000606082015260800190565b60208082526019908201527f4552433732313a206e6f6e6578697374656e7420746f6b656e00000000000000604082015260600190565b60208082526021908201527f4552433732313a20617070726f76616c20746f2063757272656e74206f776e6560408201527f7200000000000000000000000000000000000000000000000000000000000000606082015260800190565b60208082526031908201527f4552433732313a207472616e736665722063616c6c6572206973206e6f74206f60408201527f776e6572206e6f7220617070726f766564000000000000000000000000000000606082015260800190565b6020808252602c908201527f455243373231456e756d657261626c653a20676c6f62616c20696e646578206f60408201527f7574206f6620626f756e64730000000000000000000000000000000000000000606082015260800190565b6020808252603d908201527f4552433732315072657365744d696e7465725061757365724175746f49643a2060408201527f6d7573742068617665206d696e74657220726f6c6520746f206d696e74000000606082015260800190565b60208082526030908201527f4552433732314275726e61626c653a2063616c6c6572206973206e6f74206f7760408201527f6e6572206e6f7220617070726f76656400000000000000000000000000000000606082015260800190565b602080825260409082018190527f4552433732315072657365744d696e7465725061757365724175746f49643a20908201527f6d75737420686176652070617573657220726f6c6520746f20756e7061757365606082015260800190565b6020808252602f908201527f416363657373436f6e74726f6c3a2063616e206f6e6c792072656e6f756e636560408201527f20726f6c657320666f722073656c660000000000000000000000000000000000606082015260800190565b600082198211156131e5576131e56132e4565b500190565b6000826131f9576131f96132fd565b500490565b6000816000190483118215151615613218576132186132e4565b500290565b60008282101561322f5761322f6132e4565b500390565b60005b8381101561324f578181015183820152602001613237565b838111156109825750506000910152565b60008161326f5761326f6132e4565b506000190190565b60028104600182168061328b57607f821691505b602082108114156132af5760e060020a634e487b7102600052602260045260246000fd5b50919050565b60006000198214156132c9576132c96132e4565b5060010190565b6000826132df576132df6132fd565b500690565b60e060020a634e487b7102600052601160045260246000fd5b60e060020a634e487b7102600052601260045260246000fd5b60e060020a634e487b7102600052604160045260246000fd5b600160e060020a0319811681146108f057600080fdfea26469706673582212205d029b933d7e610406bc35320278134ea1d6de1bfc7eb89974c46835dc5febbb64736f6c63430008000033",
  "immutableReferences": {},
  "source": "// SPDX-License-Identifier: MIT\npragma solidity ^0.8.0;\nimport \"./presets/ERC721PresetMinterPauserAutoId.sol\";\n\n//import \"./presets/ERC721PresetMinterPauserAutoId.sol\";\n\ncontract NFT is ERC721PresetMinterPauserAutoId {\n    constructor()ERC721PresetMinterPauserAutoId(\n        \"Passport\",\"T2P\",\"127.0.0.1:8080/ipfs/\"\n    ){\n\n    }\n}\n",
  "sourcePath": "/Users/rakoon/Documents/Projects/DappsLab/Lottery-Smart-Contract/contracts/token/ERC721/NFT.sol",
  "compiler": {
    "name": "solc",
    "version": "0.8.0+commit.c7dfd78e.Emscripten.clang"
  },
  "schemaVersion": "3.4.6",
  "updatedAt": "2022-06-21T14:09:01.518Z",
  "networkType": "ethereum",
  "devdoc": {
    "kind": "dev",
    "methods": {
      "approve(address,uint256)": {
        "details": "See {IERC721-approve}."
      },
      "balanceOf(address)": {
        "details": "See {IERC721-balanceOf}."
      },
      "burn(uint256)": {
        "details": "Burns `tokenId`. See {ERC721-_burn}. Requirements: - The caller must own `tokenId` or be an approved operator."
      },
      "getApproved(uint256)": {
        "details": "See {IERC721-getApproved}."
      },
      "getRoleAdmin(bytes32)": {
        "details": "Returns the admin role that controls `role`. See {grantRole} and {revokeRole}. To change a role's admin, use {_setRoleAdmin}."
      },
      "getRoleMember(bytes32,uint256)": {
        "details": "Returns one of the accounts that have `role`. `index` must be a value between 0 and {getRoleMemberCount}, non-inclusive. Role bearers are not sorted in any particular way, and their ordering may change at any point. WARNING: When using {getRoleMember} and {getRoleMemberCount}, make sure you perform all queries on the same block. See the following https://forum.openzeppelin.com/t/iterating-over-elements-on-enumerableset-in-openzeppelin-contracts/2296[forum post] for more information."
      },
      "getRoleMemberCount(bytes32)": {
        "details": "Returns the number of accounts that have `role`. Can be used together with {getRoleMember} to enumerate all bearers of a role."
      },
      "grantRole(bytes32,address)": {
        "details": "Overload {grantRole} to track enumerable memberships"
      },
      "hasRole(bytes32,address)": {
        "details": "Returns `true` if `account` has been granted `role`."
      },
      "isApprovedForAll(address,address)": {
        "details": "See {IERC721-isApprovedForAll}."
      },
      "mint(address,string,string)": {
        "details": "Creates a new token for `to`. Its token ID will be automatically assigned (and available on the emitted {IERC721-Transfer} event), and the token URI autogenerated based on the base URI passed at construction. See {ERC721-_mint}. Requirements: - the caller must have the `MINTER_ROLE`."
      },
      "name()": {
        "details": "See {IERC721Metadata-name}."
      },
      "ownerOf(uint256)": {
        "details": "See {IERC721-ownerOf}."
      },
      "pause()": {
        "details": "Pauses all token transfers. See {ERC721Pausable} and {Pausable-_pause}. Requirements: - the caller must have the `PAUSER_ROLE`."
      },
      "paused()": {
        "details": "Returns true if the contract is paused, and false otherwise."
      },
      "renounceRole(bytes32,address)": {
        "details": "Overload {renounceRole} to track enumerable memberships"
      },
      "revokeRole(bytes32,address)": {
        "details": "Overload {revokeRole} to track enumerable memberships"
      },
      "safeTransferFrom(address,address,uint256)": {
        "details": "See {IERC721-safeTransferFrom}."
      },
      "safeTransferFrom(address,address,uint256,bytes)": {
        "details": "See {IERC721-safeTransferFrom}."
      },
      "setApprovalForAll(address,bool)": {
        "details": "See {IERC721-setApprovalForAll}."
      },
      "supportsInterface(bytes4)": {
        "details": "See {IERC165-supportsInterface}."
      },
      "symbol()": {
        "details": "See {IERC721Metadata-symbol}."
      },
      "tokenByIndex(uint256)": {
        "details": "See {IERC721Enumerable-tokenByIndex}."
      },
      "tokenOfOwnerByIndex(address,uint256)": {
        "details": "See {IERC721Enumerable-tokenOfOwnerByIndex}."
      },
      "tokenURI(uint256)": {
        "details": "See {IERC721Metadata-tokenURI}."
      },
      "totalSupply()": {
        "details": "See {IERC721Enumerable-totalSupply}."
      },
      "transferFrom(address,address,uint256)": {
        "details": "See {IERC721-transferFrom}."
      },
      "unpause()": {
        "details": "Unpauses all token transfers. See {ERC721Pausable} and {Pausable-_unpause}. Requirements: - the caller must have the `PAUSER_ROLE`."
      }
    },
    "version": 1
  },
  "userdoc": {
    "kind": "user",
    "methods": {},
    "version": 1
  }
}