{
  "contractName": "AirdropTokens",
  "abi": [
    {
      "inputs": [],
      "stateMutability": "nonpayable",
      "type": "constructor"
    },
    {
      "anonymous": false,
      "inputs": [
        {
          "indexed": true,
          "internalType": "address",
          "name": "_address",
          "type": "address"
        },
        {
          "indexed": false,
          "internalType": "uint256",
          "name": "_value",
          "type": "uint256"
        }
      ],
      "name": "GainsClaimed",
      "type": "event"
    },
    {
      "anonymous": false,
      "inputs": [
        {
          "indexed": true,
          "internalType": "address",
          "name": "previousOwner",
          "type": "address"
        },
        {
          "indexed": true,
          "internalType": "address",
          "name": "newOwner",
          "type": "address"
        }
      ],
      "name": "OwnershipTransferred",
      "type": "event"
    },
    {
      "inputs": [
        {
          "internalType": "address",
          "name": "",
          "type": "address"
        }
      ],
      "name": "claimed",
      "outputs": [
        {
          "internalType": "uint256",
          "name": "",
          "type": "uint256"
        }
      ],
      "stateMutability": "view",
      "type": "function"
    },
    {
      "inputs": [],
      "name": "isAirdropped",
      "outputs": [
        {
          "internalType": "bool",
          "name": "",
          "type": "bool"
        }
      ],
      "stateMutability": "view",
      "type": "function"
    },
    {
      "inputs": [],
      "name": "owner",
      "outputs": [
        {
          "internalType": "address",
          "name": "",
          "type": "address"
        }
      ],
      "stateMutability": "view",
      "type": "function"
    },
    {
      "inputs": [],
      "name": "renounceOwnership",
      "outputs": [],
      "stateMutability": "nonpayable",
      "type": "function"
    },
    {
      "inputs": [],
      "name": "totalTokens",
      "outputs": [
        {
          "internalType": "uint256",
          "name": "",
          "type": "uint256"
        }
      ],
      "stateMutability": "view",
      "type": "function"
    },
    {
      "inputs": [
        {
          "internalType": "address",
          "name": "newOwner",
          "type": "address"
        }
      ],
      "name": "transferOwnership",
      "outputs": [],
      "stateMutability": "nonpayable",
      "type": "function"
    },
    {
      "inputs": [
        {
          "internalType": "uint256",
          "name": "",
          "type": "uint256"
        }
      ],
      "name": "users",
      "outputs": [
        {
          "internalType": "address",
          "name": "",
          "type": "address"
        }
      ],
      "stateMutability": "view",
      "type": "function"
    },
    {
      "inputs": [
        {
          "internalType": "bytes32",
          "name": "root",
          "type": "bytes32"
        }
      ],
      "name": "setMerkleRootAndAirDrop",
      "outputs": [],
      "stateMutability": "nonpayable",
      "type": "function"
    },
    {
      "inputs": [],
      "name": "getTotalTokens",
      "outputs": [
        {
          "internalType": "uint256",
          "name": "",
          "type": "uint256"
        }
      ],
      "stateMutability": "view",
      "type": "function"
    },
    {
      "inputs": [],
      "name": "getUsers",
      "outputs": [
        {
          "internalType": "address[]",
          "name": "",
          "type": "address[]"
        }
      ],
      "stateMutability": "view",
      "type": "function"
    },
    {
      "inputs": [],
      "name": "getToken",
      "outputs": [
        {
          "internalType": "contract ERC20",
          "name": "",
          "type": "address"
        }
      ],
      "stateMutability": "view",
      "type": "function"
    },
    {
      "inputs": [
        {
          "internalType": "address",
          "name": "tokenAddress",
          "type": "address"
        }
      ],
      "name": "setToken",
      "outputs": [],
      "stateMutability": "nonpayable",
      "type": "function"
    },
    {
      "inputs": [
        {
          "internalType": "bytes32[]",
          "name": "proof",
          "type": "bytes32[]"
        }
      ],
      "name": "getProof",
      "outputs": [
        {
          "internalType": "bool",
          "name": "",
          "type": "bool"
        }
      ],
      "stateMutability": "view",
      "type": "function"
    },
    {
      "inputs": [
        {
          "internalType": "address[]",
          "name": "userAddresses",
          "type": "address[]"
        }
      ],
      "name": "addUsers",
      "outputs": [],
      "stateMutability": "nonpayable",
      "type": "function"
    },
    {
      "inputs": [
        {
          "internalType": "bytes32[]",
          "name": "proof",
          "type": "bytes32[]"
        }
      ],
      "name": "claim",
      "outputs": [],
      "stateMutability": "nonpayable",
      "type": "function"
    }
  ],
  "bytecode": "0x608060405234801561001057600080fd5b50610033610025640100000000610038810204565b64010000000061003c810204565b61008c565b3390565b60008054600160a060020a03838116600160a060020a0319831681178455604051919092169283917f8be0079c531659141344cd1fd0a4f28419497f9722a3daafe3b4186f6b6457e09190a35050565b610e2a8061009b6000396000f3fe608060405234801561001057600080fd5b5060043610610111576000357c0100000000000000000000000000000000000000000000000000000000900480637e1c0c09116100b4578063c884ef8311610083578063c884ef83146101ef578063d8d7adcb14610202578063f08b82e61461020a578063f2fde38b1461021257610111565b80637e1c0c09146101ac5780638da5cb5b146101c1578063acd82c9e146101c9578063b391c508146101dc57610111565b8063365b98b2116100f0578063365b98b21461015e578063442dfe8c14610171578063700c947414610191578063715018a6146101a457610111565b8062ce8e3e14610116578063144fa6d71461013457806321df0da714610149575b600080fd5b61011e610225565b60405161012b9190610baa565b60405180910390f35b6101476101423660046109bb565b610287565b005b610151610301565b60405161012b9190610b7d565b61015161016c366004610b1c565b610310565b61018461017f366004610a78565b61033a565b60405161012b9190610bf7565b61014761019f3660046109dc565b61038f565b610147610481565b6101b46104cf565b60405161012b9190610d37565b6101516104d5565b6101476101d7366004610b1c565b6104e4565b6101476101ea366004610a78565b6105d7565b6101b46101fd3660046109bb565b610769565b61018461077b565b6101b4610784565b6101476102203660046109bb565b61078a565b6060600380548060200260200160405190810160405280929190818152602001828054801561027d57602002820191906000526020600020905b8154600160a060020a0316815260019091019060200180831161025f575b5050505050905090565b61028f6107fe565b600160a060020a03166102a06104d5565b600160a060020a0316146102d25760405160e560020a62461bcd0281526004016102c990610ccb565b60405180910390fd5b6001805473ffffffffffffffffffffffffffffffffffffffff1916600160a060020a0392909216919091179055565b600154600160a060020a031690565b6003818154811061032057600080fd5b600091825260209091200154600160a060020a0316905081565b6000610379600554336040516020016103539190610b4c565b60405160208183030381529060405280519060200120846108029092919063ffffffff16565b156103865750600161038a565b5060005b919050565b6103976107fe565b600160a060020a03166103a86104d5565b600160a060020a0316146103d15760405160e560020a62461bcd0281526004016102c990610ccb565b6003546103f15780516103eb90600390602084019061091d565b5061047e565b60005b815181101561047c5760038282815181106104225760e060020a634e487b7102600052603260045260246000fd5b602090810291909101810151825460018101845560009384529190922001805473ffffffffffffffffffffffffffffffffffffffff1916600160a060020a039092169190911790558061047481610db1565b9150506103f4565b505b50565b6104896107fe565b600160a060020a031661049a6104d5565b600160a060020a0316146104c35760405160e560020a62461bcd0281526004016102c990610ccb565b6104cd60006108c0565b565b60025481565b600054600160a060020a031690565b6104ec6107fe565b600160a060020a03166104fd6104d5565b600160a060020a0316146105265760405160e560020a62461bcd0281526004016102c990610ccb565b60058190556001546040517f70a08231000000000000000000000000000000000000000000000000000000008152600160a060020a03909116906370a0823190610574903090600401610b7d565b60206040518083038186803b15801561058c57600080fd5b505afa1580156105a0573d6000803e3d6000fd5b505050506040513d601f19601f820116820180604052508101906105c49190610b34565b600255506006805460ff19166001179055565b6005546105f95760405160e560020a62461bcd0281526004016102c990610c5f565b610636600554336040516020016106109190610b4c565b60405160208183030381529060405280519060200120836108029092919063ffffffff16565b6106555760405160e560020a62461bcd0281526004016102c990610c94565b60035460025460009161066791610d8e565b6001546040517fa9059cbb000000000000000000000000000000000000000000000000000000008152919250600160a060020a03169063a9059cbb906106b39033908590600401610b91565b602060405180830381600087803b1580156106cd57600080fd5b505af11580156106e1573d6000803e3d6000fd5b505050506040513d601f19601f820116820180604052508101906107059190610afc565b6107245760405160e560020a62461bcd0281526004016102c990610d00565b33600160a060020a03167f3b4a30774d0d09ad00ae2e481c1bcb9cd42d97f58ea6e44b4c65e2443a5d336d8260405161075d9190610d37565b60405180910390a25050565b60046020526000908152604090205481565b60065460ff1681565b60025490565b6107926107fe565b600160a060020a03166107a36104d5565b600160a060020a0316146107cc5760405160e560020a62461bcd0281526004016102c990610ccb565b600160a060020a0381166107f55760405160e560020a62461bcd0281526004016102c990610c02565b61047e816108c0565b3390565b600081815b85518110156108b55760008682815181106108355760e060020a634e487b7102600052603260045260246000fd5b60200260200101519050808311610876578281604051602001610859929190610b6f565b6040516020818303038152906040528051906020012092506108a2565b8083604051602001610889929190610b6f565b6040516020818303038152906040528051906020012092505b50806108ad81610db1565b915050610807565b509092149392505050565b60008054600160a060020a0383811673ffffffffffffffffffffffffffffffffffffffff19831681178455604051919092169283917f8be0079c531659141344cd1fd0a4f28419497f9722a3daafe3b4186f6b6457e09190a35050565b82805482825590600052602060002090810192821561097f579160200282015b8281111561097f578251825473ffffffffffffffffffffffffffffffffffffffff1916600160a060020a0390911617825560209092019160019091019061093d565b5061098b92915061098f565b5090565b5b8082111561098b5760008155600101610990565b8035600160a060020a038116811461038a57600080fd5b6000602082840312156109cc578081fd5b6109d5826109a4565b9392505050565b600060208083850312156109ee578182fd5b823567ffffffffffffffff811115610a04578283fd5b8301601f81018513610a14578283fd5b8035610a27610a2282610d6a565b610d40565b8181528381019083850185840285018601891015610a43578687fd5b8694505b83851015610a6c57610a58816109a4565b835260019490940193918501918501610a47565b50979650505050505050565b60006020808385031215610a8a578182fd5b823567ffffffffffffffff811115610aa0578283fd5b8301601f81018513610ab0578283fd5b8035610abe610a2282610d6a565b8181528381019083850185840285018601891015610ada578687fd5b8694505b83851015610a6c578035835260019490940193918501918501610ade565b600060208284031215610b0d578081fd5b815180151581146109d5578182fd5b600060208284031215610b2d578081fd5b5035919050565b600060208284031215610b45578081fd5b5051919050565b600160a060020a03919091166c0100000000000000000000000002815260140190565b918252602082015260400190565b600160a060020a0391909116815260200190565b600160a060020a03929092168252602082015260400190565b6020808252825182820181905260009190848201906040850190845b81811015610beb578351600160a060020a031683529284019291840191600101610bc6565b50909695505050505050565b901515815260200190565b60208082526026908201527f4f776e61626c653a206e6577206f776e657220697320746865207a65726f206160408201527f6464726573730000000000000000000000000000000000000000000000000000606082015260800190565b6020808252818101527f41697264726f70546f6b656e73206e6f7420617661696c61626c652079657421604082015260600190565b60208082526017908201527f596f7520617265206e6f7420696e20746865206c697374000000000000000000604082015260600190565b6020808252818101527f4f776e61626c653a2063616c6c6572206973206e6f7420746865206f776e6572604082015260600190565b60208082526010908201527f5472616e73666572206661696c65642e00000000000000000000000000000000604082015260600190565b90815260200190565b60405181810167ffffffffffffffff81118282101715610d6257610d62610ddb565b604052919050565b600067ffffffffffffffff821115610d8457610d84610ddb565b5060209081020190565b600082610dac5760e060020a634e487b710281526012600452602481fd5b500490565b6000600019821415610dd45760e060020a634e487b710281526011600452602481fd5b5060010190565b60e060020a634e487b7102600052604160045260246000fdfea26469706673582212201a2865cdd9f437d269b5ec83130821f5ac0c2d9ba2309083f389ed09ac079c8464736f6c63430008000033",
  "immutableReferences": {},
  "source": "// SPDX-License-Identifier: MIT\npragma solidity ^0.8.0;\n\nimport \"../openzeppelin/contracts/access/Ownable.sol\";\nimport \"../openzeppelin/contracts/token/ERC20/ERC20.sol\";\nimport {MerkleProof} from \"../openzeppelin/contracts/utils/cryptography/MerkleProof.sol\";\n\ncontract AirdropTokens is Ownable{\n\n    event GainsClaimed(address indexed _address, uint256 _value);\n\n    ERC20 private _token; // getters and setters\n    using MerkleProof for bytes32[];\n    uint256 public totalTokens;\n    address[] public users;\n    mapping(address => uint256) public claimed;\n    bytes32 merkleRoot;\n    bool public isAirdropped;\n    constructor() Ownable(){\n\n    }\n\n    function setMerkleRootAndAirDrop(bytes32 root) onlyOwner public\n    {\n        merkleRoot = root;\n        totalTokens = _token.balanceOf(address(this));\n        isAirdropped = true;\n    }\n\n    function getTotalTokens() public view returns(uint256){\n        return totalTokens;\n    }\n\n    function getUsers() public view returns(address[] memory) {\n        return users;\n    }\n\n\n    function getToken() public view returns (ERC20){\n        return _token;\n    }\n\n    //  ERC20 private _token; // getters and setters\n    function setToken(address tokenAddress) onlyOwner public {\n        _token = ERC20(tokenAddress);\n    }\n\n    function getProof(bytes32[] memory proof) public view returns(bool){\n        if(proof.verify(merkleRoot, keccak256(abi.encodePacked(msg.sender)))){\n            return true;\n        }else{\n            return false;\n        }\n    }\n\n    function addUsers(address[] memory userAddresses) onlyOwner public {\n        if (users.length == 0) {\n            users = userAddresses;\n        } else {\n            for (uint i=0; i < userAddresses.length; i++) {\n                users.push(userAddresses[i]);\n            }\n        }\n    }\n\n    function claim(bytes32[] memory proof) public {\n        require(merkleRoot != 0, \"AirdropTokens not available yet!\");\n\n        require(proof.verify(merkleRoot, keccak256(abi.encodePacked(msg.sender))), \"You are not in the list\");\n\n        uint256 total = totalTokens/users.length;\n\n        require(_token.transfer(msg.sender, total), \"Transfer failed.\");\n        emit GainsClaimed(msg.sender, total);\n    }\n\n}\n",
  "sourcePath": "/Volumes/Transcend/Projects/DappsLab/Lottery-Smart-Contract/contracts/AirdropTokens.sol",
  "compiler": {
    "name": "solc",
    "version": "0.8.0+commit.c7dfd78e.Emscripten.clang"
  },
  "schemaVersion": "3.4.3",
  "updatedAt": "2021-10-28T09:05:59.245Z",
  "devdoc": {
    "kind": "dev",
    "methods": {
      "owner()": {
        "details": "Returns the address of the current owner."
      },
      "renounceOwnership()": {
        "details": "Leaves the contract without owner. It will not be possible to call `onlyOwner` functions anymore. Can only be called by the current owner. NOTE: Renouncing ownership will leave the contract without an owner, thereby removing any functionality that is only available to the owner."
      },
      "transferOwnership(address)": {
        "details": "Transfers ownership of the contract to a new account (`newOwner`). Can only be called by the current owner."
      }
    },
    "version": 1
  },
  "userdoc": {
    "kind": "user",
    "methods": {},
    "version": 1
  }
}