{
  "contractName": "Auction",
  "abi": [
    {
      "inputs": [
        {
          "internalType": "uint256",
          "name": "tokenId",
          "type": "uint256"
        },
        {
          "internalType": "uint256",
          "name": "_biddingTime",
          "type": "uint256"
        },
        {
          "internalType": "address",
          "name": "_beneficiary",
          "type": "address"
        },
        {
          "internalType": "contract ERC20",
          "name": "tokenAddress",
          "type": "address"
        },
        {
          "internalType": "address",
          "name": "NFT",
          "type": "address"
        }
      ],
      "stateMutability": "nonpayable",
      "type": "constructor"
    },
    {
      "anonymous": false,
      "inputs": [
        {
          "indexed": false,
          "internalType": "uint256",
          "name": "tokenId",
          "type": "uint256"
        },
        {
          "indexed": false,
          "internalType": "address",
          "name": "winner",
          "type": "address"
        },
        {
          "indexed": false,
          "internalType": "uint256",
          "name": "amount",
          "type": "uint256"
        }
      ],
      "name": "AuctionEnded",
      "type": "event"
    },
    {
      "anonymous": false,
      "inputs": [
        {
          "indexed": false,
          "internalType": "uint256",
          "name": "tokenId",
          "type": "uint256"
        },
        {
          "indexed": false,
          "internalType": "address",
          "name": "bidder",
          "type": "address"
        },
        {
          "indexed": false,
          "internalType": "uint256",
          "name": "amount",
          "type": "uint256"
        }
      ],
      "name": "HighestBidIncreased",
      "type": "event"
    },
    {
      "inputs": [],
      "name": "auctionEndTime",
      "outputs": [
        {
          "internalType": "uint256",
          "name": "",
          "type": "uint256"
        }
      ],
      "stateMutability": "view",
      "type": "function"
    },
    {
      "inputs": [],
      "name": "beneficiary",
      "outputs": [
        {
          "internalType": "address payable",
          "name": "",
          "type": "address"
        }
      ],
      "stateMutability": "view",
      "type": "function"
    },
    {
      "inputs": [],
      "name": "ended",
      "outputs": [
        {
          "internalType": "bool",
          "name": "",
          "type": "bool"
        }
      ],
      "stateMutability": "view",
      "type": "function"
    },
    {
      "inputs": [],
      "name": "highestBid",
      "outputs": [
        {
          "internalType": "uint256",
          "name": "",
          "type": "uint256"
        }
      ],
      "stateMutability": "view",
      "type": "function"
    },
    {
      "inputs": [],
      "name": "highestBidder",
      "outputs": [
        {
          "internalType": "address",
          "name": "",
          "type": "address"
        }
      ],
      "stateMutability": "view",
      "type": "function"
    },
    {
      "inputs": [],
      "name": "sendTokenToOwner",
      "outputs": [],
      "stateMutability": "nonpayable",
      "type": "function"
    },
    {
      "inputs": [
        {
          "internalType": "address",
          "name": "_address",
          "type": "address"
        }
      ],
      "name": "getPendingReturns",
      "outputs": [
        {
          "internalType": "uint256",
          "name": "",
          "type": "uint256"
        }
      ],
      "stateMutability": "view",
      "type": "function"
    },
    {
      "inputs": [],
      "name": "sendTokenToOwnerBack",
      "outputs": [],
      "stateMutability": "nonpayable",
      "type": "function"
    },
    {
      "inputs": [],
      "name": "getToken",
      "outputs": [
        {
          "internalType": "contract ERC20",
          "name": "",
          "type": "address"
        }
      ],
      "stateMutability": "view",
      "type": "function"
    },
    {
      "inputs": [
        {
          "internalType": "address",
          "name": "tokenAddress",
          "type": "address"
        }
      ],
      "name": "setToken",
      "outputs": [],
      "stateMutability": "nonpayable",
      "type": "function"
    },
    {
      "inputs": [],
      "name": "getNFT",
      "outputs": [
        {
          "internalType": "contract ERC721",
          "name": "",
          "type": "address"
        }
      ],
      "stateMutability": "view",
      "type": "function"
    },
    {
      "inputs": [
        {
          "internalType": "address",
          "name": "NFTAddress",
          "type": "address"
        }
      ],
      "name": "setNFT",
      "outputs": [],
      "stateMutability": "nonpayable",
      "type": "function"
    },
    {
      "inputs": [
        {
          "internalType": "address",
          "name": "",
          "type": "address"
        },
        {
          "internalType": "address",
          "name": "",
          "type": "address"
        },
        {
          "internalType": "uint256",
          "name": "",
          "type": "uint256"
        },
        {
          "internalType": "bytes",
          "name": "",
          "type": "bytes"
        }
      ],
      "name": "onERC721Received",
      "outputs": [
        {
          "internalType": "bytes4",
          "name": "",
          "type": "bytes4"
        }
      ],
      "stateMutability": "nonpayable",
      "type": "function"
    },
    {
      "inputs": [
        {
          "internalType": "uint256",
          "name": "amount",
          "type": "uint256"
        }
      ],
      "name": "bid",
      "outputs": [],
      "stateMutability": "payable",
      "type": "function"
    },
    {
      "inputs": [],
      "name": "withdraw",
      "outputs": [
        {
          "internalType": "bool",
          "name": "",
          "type": "bool"
        }
      ],
      "stateMutability": "nonpayable",
      "type": "function"
    },
    {
      "inputs": [],
      "name": "auctionEnd",
      "outputs": [],
      "stateMutability": "payable",
      "type": "function"
    }
  ],
  "bytecode": "0x608060405234801561001057600080fd5b506040516200117038038062001170833981016040819052610031916100d0565b600485905560008054600160a060020a031916600160a060020a03851617905561005b8442610130565b600190815560028054600160a060020a0319908116600160a060020a039586161790915560038054821693909416929092179092556009805492830181556000527f6e1540171b6c0c960b71a7020d9f60077f6af931a8bbf590da0223dacf75c7af9091018054909116905550610185915050565b600080600080600060a086880312156100e7578081fd5b855194506020860151935060408601516101008161016d565b60608701519093506101118161016d565b60808701519092506101228161016d565b809150509295509295909350565b60008219821115610168577f4e487b710000000000000000000000000000000000000000000000000000000081526011600452602481fd5b500190565b600160a060020a038116811461018257600080fd5b50565b610fdb80620001956000396000f3fe608060405260043610610110576000357c010000000000000000000000000000000000000000000000000000000090048063454a2ab3116100a757806388a6360e1161007657806388a6360e1461024d57806391f9015714610262578063d57bde7914610277578063f56e9c661461028c57610110565b8063454a2ab3146101f85780634b449cba1461020b57806370bda8941461018f57806383ffda3b1461022d57610110565b806321df0da7116100e357806321df0da7146101a45780632a24f46c146101c657806338af3eed146101ce5780633ccfd60b146101e357610110565b806312fa6feb14610115578063144fa6d714610140578063150b7a02146101625780631e36d7551461018f575b600080fd5b34801561012157600080fd5b5061012a6102ac565b6040516101379190610d27565b60405180910390f35b34801561014c57600080fd5b5061016061015b366004610bd5565b6102b5565b005b34801561016e57600080fd5b5061018261017d366004610bf6565b6102e4565b6040516101379190610d32565b34801561019b57600080fd5b5061016061030d565b3480156101b057600080fd5b506101b96103b3565b6040516101379190610cfa565b6101606103c2565b3480156101da57600080fd5b506101b9610812565b3480156101ef57600080fd5b5061012a610821565b610160610206366004610ce2565b610831565b34801561021757600080fd5b50610220610a46565b6040516101379190610ebe565b34801561023957600080fd5b50610220610248366004610bd5565b610a4c565b34801561025957600080fd5b506101b9610a6b565b34801561026e57600080fd5b506101b9610a7a565b34801561028357600080fd5b50610220610a89565b34801561029857600080fd5b506101606102a7366004610bd5565b610a8f565b600a5460ff1681565b6002805473ffffffffffffffffffffffffffffffffffffffff1916600160a060020a0392909216919091179055565b7f150b7a0200000000000000000000000000000000000000000000000000000000949350505050565b600354600480546000546040517f9564470e000000000000000000000000000000000000000000000000000000008152600160a060020a0394851694639564470e9461035e94939091169101610ec7565b602060405180830381600087803b15801561037857600080fd5b505af115801561038c573d6000803e3d6000fd5b505050506040513d601f19601f820116820180604052508101906103b09190610cc2565b50565b600254600160a060020a031690565b600054600160a060020a031633146103f85760405160e560020a62461bcd0281526004016103ef90610e61565b60405180910390fd5b60015442101561041d5760405160e560020a62461bcd0281526004016103ef90610dcd565b600a5460ff16156104435760405160e560020a62461bcd0281526004016103ef90610e04565b600a805460ff191660011790556004546005546006546040517fd2aa34a4fdbbc6dff6a3e56f46e0f3ae2a31d7785ff3487aa5c95c642acea50193610495939092600160a060020a0390911691610ede565b60405180910390a1600554600160a060020a03161561067257600354600480546005546040517f9564470e000000000000000000000000000000000000000000000000000000008152600160a060020a0394851694639564470e946104ff94939091169101610ec7565b602060405180830381600087803b15801561051957600080fd5b505af115801561052d573d6000803e3d6000fd5b505050506040513d601f19601f820116820180604052508101906105519190610cc2565b506002546000546006546040517fa9059cbb000000000000000000000000000000000000000000000000000000008152600160a060020a039384169363a9059cbb936105a293911691600401610d0e565b602060405180830381600087803b1580156105bc57600080fd5b505af11580156105d0573d6000803e3d6000fd5b505050506040513d601f19601f820116820180604052508101906105f49190610cc2565b5060015b60095481101561066c576106596009828154811061063f577f4e487b7100000000000000000000000000000000000000000000000000000000600052603260045260246000fd5b600091825260209091200154600160a060020a0316610abe565b508061066481610f2c565b9150506105f8565b50610717565b600354600480546000546040517f9564470e000000000000000000000000000000000000000000000000000000008152600160a060020a0394851694639564470e946106c394939091169101610ec7565b602060405180830381600087803b1580156106dd57600080fd5b505af11580156106f1573d6000803e3d6000fd5b505050506040513d601f19601f820116820180604052508101906107159190610cc2565b505b600354600480546040517f96e392d3000000000000000000000000000000000000000000000000000000008152600160a060020a03909316926396e392d392610761929101610ebe565b600060405180830381600087803b15801561077b57600080fd5b505af115801561078f573d6000803e3d6000fd5b5050600254600480546040517f77df84a4000000000000000000000000000000000000000000000000000000008152600160a060020a0390931694506377df84a493506107de92909101610ebe565b600060405180830381600087803b1580156107f857600080fd5b505af115801561080c573d6000803e3d6000fd5b50505050565b600054600160a060020a031681565b600061082c33610abe565b905090565b6001544211156108565760405160e560020a62461bcd0281526004016103ef90610d5f565b600654811161087a5760405160e560020a62461bcd0281526004016103ef90610d96565b600254600480546040517f01f07a3b000000000000000000000000000000000000000000000000000000008152600160a060020a03909316926301f07a3b926108c892913391879101610ede565b602060405180830381600087803b1580156108e257600080fd5b505af11580156108f6573d6000803e3d6000fd5b505050506040513d601f19601f8201168201806040525081019061091a9190610cc2565b61092357600080fd5b6006541561095e57600654600554600160a060020a031660009081526007602052604081208054909190610958908490610efd565b90915550505b6005805473ffffffffffffffffffffffffffffffffffffffff1916339081179091556006829055600090815260086020526040902054610a0657600980546001818101835560008390527f6e1540171b6c0c960b71a7020d9f60077f6af931a8bbf590da0223dacf75c7af909101805473ffffffffffffffffffffffffffffffffffffffff19163317905590546109f59190610f15565b336000908152600860205260409020555b7fda0a18da71d8ebd145966339a728fc0d8ccc07c22870d561890d823c515dda6b6004543383604051610a3b93929190610ede565b60405180910390a150565b60015481565b600160a060020a0381166000908152600760205260409020545b919050565b600354600160a060020a031690565b600554600160a060020a031681565b60065481565b6003805473ffffffffffffffffffffffffffffffffffffffff1916600160a060020a0392909216919091179055565b600160a060020a0381166000908152600760205260408120548015610bb557600160a060020a038084166000908152600760205260408082209190915560025490517fa9059cbb00000000000000000000000000000000000000000000000000000000815291169063a9059cbb90610b3c9086908590600401610d0e565b602060405180830381600087803b158015610b5657600080fd5b505af1158015610b6a573d6000803e3d6000fd5b505050506040513d601f19601f82011682018060405250810190610b8e9190610cc2565b610bb557600160a060020a0383166000908152600760205260408120919091559050610a66565b50600192915050565b8035600160a060020a0381168114610a6657600080fd5b600060208284031215610be6578081fd5b610bef82610bbe565b9392505050565b60008060008060808587031215610c0b578283fd5b610c1485610bbe565b93506020610c23818701610bbe565b935060408601359250606086013567ffffffffffffffff80821115610c46578384fd5b818801915088601f830112610c59578384fd5b813581811115610c6b57610c6b610f76565b604051601f8201601f1916810185018381118282101715610c8e57610c8e610f76565b60405281815283820185018b1015610ca4578586fd5b81858501868301379081019093019390935250939692955090935050565b600060208284031215610cd3578081fd5b81518015158114610bef578182fd5b600060208284031215610cf3578081fd5b5035919050565b600160a060020a0391909116815260200190565b600160a060020a03929092168252602082015260400190565b901515815260200190565b7fffffffff0000000000000000000000000000000000000000000000000000000091909116815260200190565b60208082526016908201527f41756374696f6e20616c726561647920656e6465642e00000000000000000000604082015260600190565b6020808252601e908201527f546865726520616c7265616479206973206120686967686572206269642e0000604082015260600190565b60208082526016908201527f41756374696f6e206e6f742079657420656e6465642e00000000000000000000604082015260600190565b60208082526023908201527f61756374696f6e456e642068617320616c7265616479206265656e2063616c6c60408201527f65642e0000000000000000000000000000000000000000000000000000000000606082015260800190565b6020808252602a908201527f6f6e6c79206f776e6572206f6620746f6b656e2063616e2063616c6c2074686960408201527f732066756e6374696f6e00000000000000000000000000000000000000000000606082015260800190565b90815260200190565b918252600160a060020a0316602082015260400190565b928352600160a060020a03919091166020830152604082015260600190565b60008219821115610f1057610f10610f47565b500190565b600082821015610f2757610f27610f47565b500390565b6000600019821415610f4057610f40610f47565b5060010190565b7f4e487b7100000000000000000000000000000000000000000000000000000000600052601160045260246000fd5b7f4e487b7100000000000000000000000000000000000000000000000000000000600052604160045260246000fdfea26469706673582212202af89f3ddb55643f01f7dc0f46a5a3a1311e016ce3dbdbb6d7c9c99103cc1a3c64736f6c63430008000033",
  "immutableReferences": {},
  "source": "// SPDX-License-Identifier: GPL-3.0\npragma solidity >=0.7.0 <0.9.0;\n\nimport \"./ERC20/ERC20.sol\";\nimport \"./ERC721/ERC721.sol\";\nimport \"./ERC721/IERC721Receiver.sol\";\n\ncontract Auction is IERC721Receiver{\n    // Parameters of the auction. Times are either\n    // absolute unix timestamps (seconds since 1970-01-01)\n    // or time periods in seconds.\n    address payable public beneficiary;\n    uint public auctionEndTime;\n    ERC20 private _token;\n    ERC721 private _NFT;\n    uint256 _tokenId;\n\n    // Current state of the auction.\n    address public highestBidder;\n    uint public highestBid;\n\n    // Allowed withdrawals of previous bids\n    mapping(address => uint) pendingReturns;\n    mapping(address => uint) bidderIndexes;\n    address[] private allBidders;\n\n    // Set to true at the end, disallows any change.\n    // By default initialized to `false`.\n    bool public ended;\n\n    // Events that will be emitted on changes.\n    event HighestBidIncreased(uint256 tokenId, address bidder, uint amount);\n    event AuctionEnded(uint256 tokenId, address winner, uint amount);\n\n    // The following is a so-called natspec comment,\n    // recognizable by the three slashes.\n    // It will be shown when the user is asked to\n    // confirm a transaction.\n\n    /// Create a simple auction with `_biddingTime`\n    /// seconds bidding time on behalf of the\n    /// beneficiary address `_beneficiary`.\n    constructor(\n        uint256 tokenId,\n        uint _biddingTime,\n        address _beneficiary,\n        ERC20 tokenAddress,\n        address NFT\n    ) {\n        _tokenId = tokenId;\n        beneficiary = payable(_beneficiary);\n        auctionEndTime = block.timestamp + _biddingTime;\n        _token = tokenAddress;\n        _NFT = ERC721(NFT);\n        allBidders.push(address(0));\n    }\n\n    function sendTokenToOwner() public {\n        _NFT._spend(_tokenId, beneficiary);\n    }\n\n    function getPendingReturns(address _address) public view returns(uint) {\n        return pendingReturns[_address];\n    }\n\n    function sendTokenToOwnerBack() public {\n        _NFT._spend(_tokenId, beneficiary);\n    }\n\n\n    function getToken() public view returns(ERC20){\n        return _token;\n    }\n\n    //  ERC20 private _token; // getters and setters\n    function setToken(address tokenAddress) public {\n        _token = ERC20(tokenAddress);\n    }\n\n    function getNFT() public view returns(ERC721){\n        return _NFT;\n    }\n\n    //  ERC20 private _token; // getters and setters\n    function setNFT(address NFTAddress) public {\n        _NFT = ERC721(NFTAddress);\n    }\n\n    function onERC721Received(address, address, uint256, bytes memory) public virtual override returns (bytes4) {\n        return this.onERC721Received.selector;\n    }\n\n    /// Bid on the auction with the value sent\n    /// together with this transaction.\n    /// The value will only be refunded if the\n    /// auction is not won.\n    function bid(uint256 amount) public payable {\n        // No arguments are necessary, all\n        // information is already part of\n        // the transaction. The keyword payable\n        // is required for the function to\n        // be able to receive Ether.\n\n        // Revert the call if the bidding\n        // period is over.\n        require(\n            block.timestamp <= auctionEndTime,\n            \"Auction already ended.\"\n        );\n\n        // If the bid is not higher, send the\n        // money back (the failing require\n        // will revert all changes in this\n        // function execution including\n        // it having received the money).\n        require(\n            amount > highestBid,\n            \"There already is a higher bid.\"\n        );\n        require(_token.spendFrom(_tokenId, msg.sender, amount));\n        if (highestBid != 0) {\n            // Sending back the money by simply using\n            // highestBidder.send(highestBid) is a security risk\n            // because it could execute an untrusted contract.\n            // It is always safer to let the recipients\n            // withdraw their money themselves.\n            pendingReturns[highestBidder] += highestBid;\n        }\n        highestBidder = msg.sender;\n        highestBid = amount;\n        if(bidderIndexes[msg.sender] == 0){\n            allBidders.push(msg.sender);\n            bidderIndexes[msg.sender] = allBidders.length-1;\n        }\n        emit HighestBidIncreased(_tokenId, msg.sender, amount);\n    }\n\n    /// Withdraw a bid that was overbid.\n    function withdraw()public returns(bool){\n        return _withdraw(msg.sender);\n    }\n\n    function _withdraw(address bidder) private returns (bool) {\n        uint amount = pendingReturns[bidder];\n        if (amount > 0) {\n            // It is important to set this to zero because the recipient\n            // can call this function again as part of the receiving call\n            // before `send` returns.\n            pendingReturns[bidder] = 0;\n\n            if (!_token.transfer(bidder, amount)) {\n                // No need to call throw here, just reset the amount owing\n                pendingReturns[bidder] = amount;\n                return false;\n            }\n        }\n        return true;\n    }\n\n    /// End the auction and send the highest bid\n    /// to the beneficiary.\n    function auctionEnd() public payable {\n        // It is a good guideline to structure functions that interact\n        // with other contracts (i.e. they call functions or send Ether)\n        // into three phases:\n        // 1. checking conditions\n        // 2. performing actions (potentially changing conditions)\n        // 3. interacting with other contracts\n        // If these phases are mixed up, the other contract could call\n        // back into the current contract and modify the state or cause\n        // effects (ether payout) to be performed multiple times.\n        // If functions called internally include interaction with external\n        // contracts, they also have to be considered interaction with\n        // external contracts.\n\n        // 1. Conditions\n        require(msg.sender == beneficiary, \"only owner of token can call this function\");\n        require(block.timestamp >= auctionEndTime, \"Auction not yet ended.\");\n        require(!ended, \"auctionEnd has already been called.\");\n\n        // 2. Effects\n        ended = true;\n        emit AuctionEnded(_tokenId, highestBidder, highestBid);\n\n        // 3. Interaction\n        if(highestBidder != address(0)){\n            _NFT._spend(_tokenId, highestBidder);\n            _token.transfer(beneficiary, highestBid);\n            for (uint256 i = 1; i < allBidders.length; i++){\n                _withdraw(allBidders[i]);\n            }\n        }else{\n            _NFT._spend(_tokenId, beneficiary);\n        }\n        _NFT.deleteAuctionContract(_tokenId);\n        _token.deleteAuctionAddress(_tokenId);\n    }\n}",
  "sourcePath": "/Volumes/Transcend/Projects/DappsLab/Lottery-Smart-Contract/contracts/customERC20ERC721/Auction.sol",
  "compiler": {
    "name": "solc",
    "version": "0.8.0+commit.c7dfd78e.Emscripten.clang"
  },
  "schemaVersion": "3.4.2",
  "updatedAt": "2021-07-27T17:00:56.474Z",
  "devdoc": {
    "kind": "dev",
    "methods": {},
    "version": 1
  },
  "userdoc": {
    "kind": "user",
    "methods": {
      "auctionEnd()": {
        "notice": "End the auction and send the highest bid to the beneficiary."
      },
      "bid(uint256)": {
        "notice": "Bid on the auction with the value sent together with this transaction. The value will only be refunded if the auction is not won."
      },
      "constructor": {
        "notice": "Create a simple auction with `_biddingTime` seconds bidding time on behalf of the beneficiary address `_beneficiary`."
      },
      "withdraw()": {
        "notice": "Withdraw a bid that was overbid."
      }
    },
    "version": 1
  }
}