{
  "contractName": "Auction",
  "abi": [
    {
      "inputs": [
        {
          "internalType": "uint256",
          "name": "tokenId",
          "type": "uint256"
        },
        {
          "internalType": "uint256",
          "name": "_biddingTime",
          "type": "uint256"
        },
        {
          "internalType": "address",
          "name": "_beneficiary",
          "type": "address"
        },
        {
          "internalType": "contract ERC20",
          "name": "tokenAddress",
          "type": "address"
        },
        {
          "internalType": "address",
          "name": "NFT",
          "type": "address"
        }
      ],
      "stateMutability": "nonpayable",
      "type": "constructor"
    },
    {
      "anonymous": false,
      "inputs": [
        {
          "indexed": false,
          "internalType": "uint256",
          "name": "tokenId",
          "type": "uint256"
        },
        {
          "indexed": false,
          "internalType": "address",
          "name": "winner",
          "type": "address"
        },
        {
          "indexed": false,
          "internalType": "uint256",
          "name": "amount",
          "type": "uint256"
        }
      ],
      "name": "AuctionEnded",
      "type": "event"
    },
    {
      "anonymous": false,
      "inputs": [
        {
          "indexed": false,
          "internalType": "uint256",
          "name": "tokenId",
          "type": "uint256"
        },
        {
          "indexed": false,
          "internalType": "address",
          "name": "bidder",
          "type": "address"
        },
        {
          "indexed": false,
          "internalType": "uint256",
          "name": "amount",
          "type": "uint256"
        }
      ],
      "name": "HighestBidIncreased",
      "type": "event"
    },
    {
      "inputs": [],
      "name": "auctionEndTime",
      "outputs": [
        {
          "internalType": "uint256",
          "name": "",
          "type": "uint256"
        }
      ],
      "stateMutability": "view",
      "type": "function"
    },
    {
      "inputs": [],
      "name": "beneficiary",
      "outputs": [
        {
          "internalType": "address payable",
          "name": "",
          "type": "address"
        }
      ],
      "stateMutability": "view",
      "type": "function"
    },
    {
      "inputs": [],
      "name": "ended",
      "outputs": [
        {
          "internalType": "bool",
          "name": "",
          "type": "bool"
        }
      ],
      "stateMutability": "view",
      "type": "function"
    },
    {
      "inputs": [],
      "name": "highestBid",
      "outputs": [
        {
          "internalType": "uint256",
          "name": "",
          "type": "uint256"
        }
      ],
      "stateMutability": "view",
      "type": "function"
    },
    {
      "inputs": [],
      "name": "highestBidder",
      "outputs": [
        {
          "internalType": "address",
          "name": "",
          "type": "address"
        }
      ],
      "stateMutability": "view",
      "type": "function"
    },
    {
      "inputs": [],
      "name": "sendTokenToOwner",
      "outputs": [],
      "stateMutability": "nonpayable",
      "type": "function"
    },
    {
      "inputs": [
        {
          "internalType": "address",
          "name": "_address",
          "type": "address"
        }
      ],
      "name": "getPendingReturns",
      "outputs": [
        {
          "internalType": "uint256",
          "name": "",
          "type": "uint256"
        }
      ],
      "stateMutability": "view",
      "type": "function"
    },
    {
      "inputs": [],
      "name": "sendTokenToOwnerBack",
      "outputs": [],
      "stateMutability": "nonpayable",
      "type": "function"
    },
    {
      "inputs": [],
      "name": "getToken",
      "outputs": [
        {
          "internalType": "contract ERC20",
          "name": "",
          "type": "address"
        }
      ],
      "stateMutability": "view",
      "type": "function"
    },
    {
      "inputs": [
        {
          "internalType": "address",
          "name": "tokenAddress",
          "type": "address"
        }
      ],
      "name": "setToken",
      "outputs": [],
      "stateMutability": "nonpayable",
      "type": "function"
    },
    {
      "inputs": [],
      "name": "getNFT",
      "outputs": [
        {
          "internalType": "contract ERC721",
          "name": "",
          "type": "address"
        }
      ],
      "stateMutability": "view",
      "type": "function"
    },
    {
      "inputs": [
        {
          "internalType": "address",
          "name": "NFTAddress",
          "type": "address"
        }
      ],
      "name": "setNFT",
      "outputs": [],
      "stateMutability": "nonpayable",
      "type": "function"
    },
    {
      "inputs": [
        {
          "internalType": "address",
          "name": "",
          "type": "address"
        },
        {
          "internalType": "address",
          "name": "",
          "type": "address"
        },
        {
          "internalType": "uint256",
          "name": "",
          "type": "uint256"
        },
        {
          "internalType": "bytes",
          "name": "",
          "type": "bytes"
        }
      ],
      "name": "onERC721Received",
      "outputs": [
        {
          "internalType": "bytes4",
          "name": "",
          "type": "bytes4"
        }
      ],
      "stateMutability": "nonpayable",
      "type": "function"
    },
    {
      "inputs": [
        {
          "internalType": "uint256",
          "name": "amount",
          "type": "uint256"
        }
      ],
      "name": "bid",
      "outputs": [],
      "stateMutability": "payable",
      "type": "function"
    },
    {
      "inputs": [],
      "name": "withdraw",
      "outputs": [
        {
          "internalType": "bool",
          "name": "",
          "type": "bool"
        }
      ],
      "stateMutability": "nonpayable",
      "type": "function"
    },
    {
      "inputs": [],
      "name": "auctionEnd",
      "outputs": [],
      "stateMutability": "payable",
      "type": "function"
    }
  ],
  "bytecode": "0x60806040523480156200001157600080fd5b506040516200136e3803806200136e8339810160408190526200003491620000d6565b600485905560008054600160a060020a031916600160a060020a0385161790556200006084426200013d565b600190815560028054600160a060020a0319908116600160a060020a039586161790915560038054821693909416929092179092556009805492830181556000527f6e1540171b6c0c960b71a7020d9f60077f6af931a8bbf590da0223dacf75c7af909101805490911690555062000194915050565b600080600080600060a08688031215620000ee578081fd5b8551945060208601519350604086015162000109816200017b565b60608701519093506200011c816200017b565b60808701519092506200012f816200017b565b809150509295509295909350565b6000821982111562000176577f4e487b710000000000000000000000000000000000000000000000000000000081526011600452602481fd5b500190565b600160a060020a03811681146200019157600080fd5b50565b6111ca80620001a46000396000f3fe6080604052600436106100f75760003560e060020a90048063454a2ab31161008e57806388a6360e1161005d57806388a6360e1461023457806391f9015714610249578063d57bde791461025e578063f56e9c6614610273576100f7565b8063454a2ab3146101df5780634b449cba146101f257806370bda8941461017657806383ffda3b14610214576100f7565b806321df0da7116100ca57806321df0da71461018b5780632a24f46c146101ad57806338af3eed146101b55780633ccfd60b146101ca576100f7565b806312fa6feb146100fc578063144fa6d714610127578063150b7a02146101495780631e36d75514610176575b600080fd5b34801561010857600080fd5b50610111610293565b60405161011e9190610eeb565b60405180910390f35b34801561013357600080fd5b50610147610142366004610d5f565b61029c565b005b34801561015557600080fd5b50610169610164366004610d9e565b6102cb565b60405161011e9190610ef6565b34801561018257600080fd5b506101476102f4565b34801561019757600080fd5b506101a061039a565b60405161011e9190610ebe565b6101476103a9565b3480156101c157600080fd5b506101a06109b3565b3480156101d657600080fd5b506101116109c2565b6101476101ed366004610e8e565b6109d2565b3480156101fe57600080fd5b50610207610be7565b60405161011e9190611082565b34801561022057600080fd5b5061020761022f366004610d5f565b610bed565b34801561024057600080fd5b506101a0610c0c565b34801561025557600080fd5b506101a0610c1b565b34801561026a57600080fd5b50610207610c2a565b34801561027f57600080fd5b5061014761028e366004610d5f565b610c30565b600a5460ff1681565b6002805473ffffffffffffffffffffffffffffffffffffffff1916600160a060020a0392909216919091179055565b7f150b7a0200000000000000000000000000000000000000000000000000000000949350505050565b600354600480546000546040517f9564470e000000000000000000000000000000000000000000000000000000008152600160a060020a0394851694639564470e946103459493909116910161108b565b602060405180830381600087803b15801561035f57600080fd5b505af1158015610373573d6000803e3d6000fd5b505050506040513d601f19601f820116820180604052508101906103979190610e6e565b50565b600254600160a060020a031690565b600054600160a060020a03163314806103cc5750600554600160a060020a031633145b6103f45760405160e560020a62461bcd0281526004016103eb90611025565b60405180910390fd5b6001544210156104195760405160e560020a62461bcd0281526004016103eb90610f91565b600a5460ff161561043f5760405160e560020a62461bcd0281526004016103eb90610fc8565b600a805460ff191660011790556004546005546006546040517fd2aa34a4fdbbc6dff6a3e56f46e0f3ae2a31d7785ff3487aa5c95c642acea50193610491939092600160a060020a03909116916110a2565b60405180910390a1600554600160a060020a03161561081357600354600480546005546040517f9564470e000000000000000000000000000000000000000000000000000000008152600160a060020a0394851694639564470e946104fb9493909116910161108b565b602060405180830381600087803b15801561051557600080fd5b505af1158015610529573d6000803e3d6000fd5b505050506040513d601f19601f8201168201806040525081019061054d9190610e6e565b5060006064600360009054906101000a9004600160a060020a0316600160a060020a031663aac5643d6040518163ffffffff1660e060020a02815260040160206040518083038186803b1580156105a357600080fd5b505afa1580156105b7573d6000803e3d6000fd5b505050506040513d601f19601f820116820180604052508101906105db9190610ea6565b6006546105e891906110fc565b6105f291906110d9565b600254600354600480546040517fd48e638a000000000000000000000000000000000000000000000000000000008152949550600160a060020a039384169463a9059cbb949093169263d48e638a9261064c929101611082565b60206040518083038186803b15801561066457600080fd5b505afa158015610678573d6000803e3d6000fd5b505050506040513d601f19601f8201168201806040525081019061069c9190610d82565b836040518363ffffffff1660e060020a0281526004016106bd929190610ed2565b602060405180830381600087803b1580156106d757600080fd5b505af11580156106eb573d6000803e3d6000fd5b505050506040513d601f19601f8201168201806040525081019061070f9190610e6e565b50600254600054600654600160a060020a039283169263a9059cbb92169061073890859061111b565b6040518363ffffffff1660e060020a028152600401610758929190610ed2565b602060405180830381600087803b15801561077257600080fd5b505af1158015610786573d6000803e3d6000fd5b505050506040513d601f19601f820116820180604052508101906107aa9190610e6e565b5060015b60095481101561080c576107f9600982815481106107df5760e060020a634e487b7102600052603260045260246000fd5b600091825260209091200154600160a060020a0316610c5f565b508061080481611132565b9150506107ae565b50506108b8565b600354600480546000546040517f9564470e000000000000000000000000000000000000000000000000000000008152600160a060020a0394851694639564470e946108649493909116910161108b565b602060405180830381600087803b15801561087e57600080fd5b505af1158015610892573d6000803e3d6000fd5b505050506040513d601f19601f820116820180604052508101906108b69190610e6e565b505b600354600480546040517f96e392d3000000000000000000000000000000000000000000000000000000008152600160a060020a03909316926396e392d392610902929101611082565b600060405180830381600087803b15801561091c57600080fd5b505af1158015610930573d6000803e3d6000fd5b5050600254600480546040517f77df84a4000000000000000000000000000000000000000000000000000000008152600160a060020a0390931694506377df84a4935061097f92909101611082565b600060405180830381600087803b15801561099957600080fd5b505af11580156109ad573d6000803e3d6000fd5b50505050565b600054600160a060020a031681565b60006109cd33610c5f565b905090565b6001544211156109f75760405160e560020a62461bcd0281526004016103eb90610f23565b6006548111610a1b5760405160e560020a62461bcd0281526004016103eb90610f5a565b600254600480546040517f01f07a3b000000000000000000000000000000000000000000000000000000008152600160a060020a03909316926301f07a3b92610a69929133918791016110a2565b602060405180830381600087803b158015610a8357600080fd5b505af1158015610a97573d6000803e3d6000fd5b505050506040513d601f19601f82011682018060405250810190610abb9190610e6e565b610ac457600080fd5b60065415610aff57600654600554600160a060020a031660009081526007602052604081208054909190610af99084906110c1565b90915550505b6005805473ffffffffffffffffffffffffffffffffffffffff1916339081179091556006829055600090815260086020526040902054610ba757600980546001818101835560008390527f6e1540171b6c0c960b71a7020d9f60077f6af931a8bbf590da0223dacf75c7af909101805473ffffffffffffffffffffffffffffffffffffffff1916331790559054610b96919061111b565b336000908152600860205260409020555b7fda0a18da71d8ebd145966339a728fc0d8ccc07c22870d561890d823c515dda6b6004543383604051610bdc939291906110a2565b60405180910390a150565b60015481565b600160a060020a0381166000908152600760205260409020545b919050565b600354600160a060020a031690565b600554600160a060020a031681565b60065481565b6003805473ffffffffffffffffffffffffffffffffffffffff1916600160a060020a0392909216919091179055565b600160a060020a0381166000908152600760205260408120548015610d5657600160a060020a038084166000908152600760205260408082209190915560025490517fa9059cbb00000000000000000000000000000000000000000000000000000000815291169063a9059cbb90610cdd9086908590600401610ed2565b602060405180830381600087803b158015610cf757600080fd5b505af1158015610d0b573d6000803e3d6000fd5b505050506040513d601f19601f82011682018060405250810190610d2f9190610e6e565b610d5657600160a060020a0383166000908152600760205260408120919091559050610c07565b50600192915050565b600060208284031215610d70578081fd5b8135610d7b8161117f565b9392505050565b600060208284031215610d93578081fd5b8151610d7b8161117f565b60008060008060808587031215610db3578283fd5b8435610dbe8161117f565b9350602085810135610dcf8161117f565b935060408601359250606086013567ffffffffffffffff80821115610df2578384fd5b818801915088601f830112610e05578384fd5b813581811115610e1757610e17611166565b604051601f8201601f1916810185018381118282101715610e3a57610e3a611166565b60405281815283820185018b1015610e50578586fd5b81858501868301379081019093019390935250939692955090935050565b600060208284031215610e7f578081fd5b81518015158114610d7b578182fd5b600060208284031215610e9f578081fd5b5035919050565b600060208284031215610eb7578081fd5b5051919050565b600160a060020a0391909116815260200190565b600160a060020a03929092168252602082015260400190565b901515815260200190565b7fffffffff0000000000000000000000000000000000000000000000000000000091909116815260200190565b60208082526016908201527f41756374696f6e20616c726561647920656e6465642e00000000000000000000604082015260600190565b6020808252601e908201527f546865726520616c7265616479206973206120686967686572206269642e0000604082015260600190565b60208082526016908201527f41756374696f6e206e6f742079657420656e6465642e00000000000000000000604082015260600190565b60208082526023908201527f61756374696f6e456e642068617320616c7265616479206265656e2063616c6c60408201527f65642e0000000000000000000000000000000000000000000000000000000000606082015260800190565b6020808252602a908201527f6f6e6c79206f776e6572206f6620746f6b656e2063616e2063616c6c2074686960408201527f732066756e6374696f6e00000000000000000000000000000000000000000000606082015260800190565b90815260200190565b918252600160a060020a0316602082015260400190565b928352600160a060020a03919091166020830152604082015260600190565b600082198211156110d4576110d461114d565b500190565b6000826110f75760e060020a634e487b710281526012600452602481fd5b500490565b60008160001904831182151516156111165761111661114d565b500290565b60008282101561112d5761112d61114d565b500390565b60006000198214156111465761114661114d565b5060010190565b60e060020a634e487b7102600052601160045260246000fd5b60e060020a634e487b7102600052604160045260246000fd5b600160a060020a038116811461039757600080fdfea26469706673582212207471e1d9a80a915cf2382c670c380d9d9d2a171fd185718f1192d39f6d95939064736f6c63430008000033",
  "immutableReferences": {},
  "source": "// SPDX-License-Identifier: GPL-3.0\npragma solidity >=0.7.0 <0.9.0;\n\nimport \"./ERC20/ERC20.sol\";\nimport \"./ERC721/ERC721.sol\";\nimport \"./ERC721/IERC721Receiver.sol\";\n\ncontract Auction is IERC721Receiver{\n    // Parameters of the auction. Times are either\n    // absolute unix timestamps (seconds since 1970-01-01)\n    // or time periods in seconds.\n    address payable public beneficiary;\n    uint public auctionEndTime;\n    ERC20 private _token;\n    ERC721 private _NFT;\n    uint256 _tokenId;\n\n    // Current state of the auction.\n    address public highestBidder;\n    uint public highestBid;\n\n    // Allowed withdrawals of previous bids\n    mapping(address => uint) pendingReturns;\n    mapping(address => uint) bidderIndexes;\n    address[] private allBidders;\n\n    // Set to true at the end, disallows any change.\n    // By default initialized to `false`.\n    bool public ended;\n\n    // Events that will be emitted on changes.\n    event HighestBidIncreased(uint256 tokenId, address bidder, uint amount);\n    event AuctionEnded(uint256 tokenId, address winner, uint amount);\n\n    // The following is a so-called natspec comment,\n    // recognizable by the three slashes.\n    // It will be shown when the user is asked to\n    // confirm a transaction.\n\n    /// Create a simple auction with `_biddingTime`\n    /// seconds bidding time on behalf of the\n    /// beneficiary address `_beneficiary`.\n    constructor(\n        uint256 tokenId,\n        uint _biddingTime,\n        address _beneficiary,\n        ERC20 tokenAddress,\n        address NFT\n    ) {\n        _tokenId = tokenId;\n        beneficiary = payable(_beneficiary);\n        auctionEndTime = block.timestamp + _biddingTime;\n        _token = tokenAddress;\n        _NFT = ERC721(NFT);\n        allBidders.push(address(0));\n    }\n\n    function sendTokenToOwner() public {\n        _NFT._spend(_tokenId, beneficiary);\n    }\n\n    function getPendingReturns(address _address) public view returns(uint) {\n        return pendingReturns[_address];\n    }\n\n    function sendTokenToOwnerBack() public {\n        _NFT._spend(_tokenId, beneficiary);\n    }\n\n\n    function getToken() public view returns(ERC20){\n        return _token;\n    }\n\n    //  ERC20 private _token; // getters and setters\n    function setToken(address tokenAddress) public {\n        _token = ERC20(tokenAddress);\n    }\n\n    function getNFT() public view returns(ERC721){\n        return _NFT;\n    }\n\n    //  ERC20 private _token; // getters and setters\n    function setNFT(address NFTAddress) public {\n        _NFT = ERC721(NFTAddress);\n    }\n\n    function onERC721Received(address, address, uint256, bytes memory) public virtual override returns (bytes4) {\n        return this.onERC721Received.selector;\n    }\n\n    /// Bid on the auction with the value sent\n    /// together with this transaction.\n    /// The value will only be refunded if the\n    /// auction is not won.\n    function bid(uint256 amount) public payable {\n        // No arguments are necessary, all\n        // information is already part of\n        // the transaction. The keyword payable\n        // is required for the function to\n        // be able to receive Ether.\n\n        // Revert the call if the bidding\n        // period is over.\n        require(\n            block.timestamp <= auctionEndTime,\n            \"Auction already ended.\"\n        );\n\n        // If the bid is not higher, send the\n        // money back (the failing require\n        // will revert all changes in this\n        // function execution including\n        // it having received the money).\n        require(\n            amount > highestBid,\n            \"There already is a higher bid.\"\n        );\n        require(_token.spendFrom(_tokenId, msg.sender, amount));\n        if (highestBid != 0) {\n            // Sending back the money by simply using\n            // highestBidder.send(highestBid) is a security risk\n            // because it could execute an untrusted contract.\n            // It is always safer to let the recipients\n            // withdraw their money themselves.\n            pendingReturns[highestBidder] += highestBid;\n        }\n        highestBidder = msg.sender;\n        highestBid = amount;\n        if(bidderIndexes[msg.sender] == 0){\n            allBidders.push(msg.sender);\n            bidderIndexes[msg.sender] = allBidders.length-1;\n        }\n        emit HighestBidIncreased(_tokenId, msg.sender, amount);\n    }\n\n    /// Withdraw a bid that was overbid.\n    function withdraw()public returns(bool){\n        return _withdraw(msg.sender);\n    }\n\n    function _withdraw(address bidder) private returns (bool) {\n        uint amount = pendingReturns[bidder];\n        if (amount > 0) {\n            // It is important to set this to zero because the recipient\n            // can call this function again as part of the receiving call\n            // before `send` returns.\n            pendingReturns[bidder] = 0;\n\n            if (!_token.transfer(bidder, amount)) {\n                // No need to call throw here, just reset the amount owing\n                pendingReturns[bidder] = amount;\n                return false;\n            }\n        }\n        return true;\n    }\n\n    /// End the auction and send the highest bid\n    /// to the beneficiary.\n    function auctionEnd() public payable {\n        // It is a good guideline to structure functions that interact\n        // with other contracts (i.e. they call functions or send Ether)\n        // into three phases:\n        // 1. checking conditions\n        // 2. performing actions (potentially changing conditions)\n        // 3. interacting with other contracts\n        // If these phases are mixed up, the other contract could call\n        // back into the current contract and modify the state or cause\n        // effects (ether payout) to be performed multiple times.\n        // If functions called internally include interaction with external\n        // contracts, they also have to be considered interaction with\n        // external contracts.\n\n        // 1. Conditions\n        require(msg.sender == beneficiary || msg.sender == highestBidder, \"only owner of token can call this function\");\n        require(block.timestamp >= auctionEndTime, \"Auction not yet ended.\");\n        require(!ended, \"auctionEnd has already been called.\");\n\n        // 2. Effects\n        ended = true;\n        emit AuctionEnded(_tokenId, highestBidder, highestBid);\n\n        // 3. Interaction\n        if(highestBidder != address(0)){\n            _NFT._spend(_tokenId, highestBidder);\n            uint256 comission = (highestBid * _NFT.getCreatorComission()) / 100 ;\n            _token.transfer(_NFT.getCreator(_tokenId), comission);\n            _token.transfer(beneficiary, (highestBid - comission));\n            for (uint256 i = 1; i < allBidders.length; i++){\n                _withdraw(allBidders[i]);\n            }\n        }else{\n            _NFT._spend(_tokenId, beneficiary);\n        }\n        _NFT.deleteAuctionContract(_tokenId);\n        _token.deleteAuctionAddress(_tokenId);\n    }\n}",
  "sourcePath": "/Volumes/Transcend/Projects/DappsLab/Lottery-Smart-Contract/contracts/customERC20ERC721/Auction.sol",
  "compiler": {
    "name": "solc",
    "version": "0.8.0+commit.c7dfd78e.Emscripten.clang"
  },
  "schemaVersion": "3.4.2",
  "updatedAt": "2021-08-01T13:50:10.883Z",
  "devdoc": {
    "kind": "dev",
    "methods": {},
    "version": 1
  },
  "userdoc": {
    "kind": "user",
    "methods": {
      "auctionEnd()": {
        "notice": "End the auction and send the highest bid to the beneficiary."
      },
      "bid(uint256)": {
        "notice": "Bid on the auction with the value sent together with this transaction. The value will only be refunded if the auction is not won."
      },
      "constructor": {
        "notice": "Create a simple auction with `_biddingTime` seconds bidding time on behalf of the beneficiary address `_beneficiary`."
      },
      "withdraw()": {
        "notice": "Withdraw a bid that was overbid."
      }
    },
    "version": 1
  }
}