{
  "contractName": "Betting",
  "abi": [
    {
      "inputs": [],
      "stateMutability": "nonpayable",
      "type": "constructor"
    },
    {
      "anonymous": false,
      "inputs": [
        {
          "indexed": true,
          "internalType": "address",
          "name": "_address",
          "type": "address"
        },
        {
          "indexed": false,
          "internalType": "uint256",
          "name": "_value",
          "type": "uint256"
        }
      ],
      "name": "GainsClaimed",
      "type": "event"
    },
    {
      "anonymous": false,
      "inputs": [
        {
          "indexed": true,
          "internalType": "address",
          "name": "previousOwner",
          "type": "address"
        },
        {
          "indexed": true,
          "internalType": "address",
          "name": "newOwner",
          "type": "address"
        }
      ],
      "name": "OwnershipTransferred",
      "type": "event"
    },
    {
      "inputs": [
        {
          "internalType": "address",
          "name": "",
          "type": "address"
        }
      ],
      "name": "claimed",
      "outputs": [
        {
          "internalType": "uint256",
          "name": "",
          "type": "uint256"
        }
      ],
      "stateMutability": "view",
      "type": "function"
    },
    {
      "inputs": [],
      "name": "minimumBet",
      "outputs": [
        {
          "internalType": "uint256",
          "name": "",
          "type": "uint256"
        }
      ],
      "stateMutability": "view",
      "type": "function"
    },
    {
      "inputs": [],
      "name": "owner",
      "outputs": [
        {
          "internalType": "address",
          "name": "",
          "type": "address"
        }
      ],
      "stateMutability": "view",
      "type": "function"
    },
    {
      "inputs": [
        {
          "internalType": "address",
          "name": "",
          "type": "address"
        }
      ],
      "name": "players",
      "outputs": [
        {
          "internalType": "uint256",
          "name": "",
          "type": "uint256"
        }
      ],
      "stateMutability": "view",
      "type": "function"
    },
    {
      "inputs": [
        {
          "internalType": "uint256",
          "name": "",
          "type": "uint256"
        }
      ],
      "name": "playersBetOne",
      "outputs": [
        {
          "internalType": "address",
          "name": "",
          "type": "address"
        }
      ],
      "stateMutability": "view",
      "type": "function"
    },
    {
      "inputs": [
        {
          "internalType": "uint256",
          "name": "",
          "type": "uint256"
        }
      ],
      "name": "playersBetTwo",
      "outputs": [
        {
          "internalType": "address",
          "name": "",
          "type": "address"
        }
      ],
      "stateMutability": "view",
      "type": "function"
    },
    {
      "inputs": [],
      "name": "renounceOwnership",
      "outputs": [],
      "stateMutability": "nonpayable",
      "type": "function"
    },
    {
      "inputs": [],
      "name": "totalBetOne",
      "outputs": [
        {
          "internalType": "uint256",
          "name": "",
          "type": "uint256"
        }
      ],
      "stateMutability": "view",
      "type": "function"
    },
    {
      "inputs": [],
      "name": "totalBetTwo",
      "outputs": [
        {
          "internalType": "uint256",
          "name": "",
          "type": "uint256"
        }
      ],
      "stateMutability": "view",
      "type": "function"
    },
    {
      "inputs": [
        {
          "internalType": "address",
          "name": "newOwner",
          "type": "address"
        }
      ],
      "name": "transferOwnership",
      "outputs": [],
      "stateMutability": "nonpayable",
      "type": "function"
    },
    {
      "inputs": [],
      "name": "winner",
      "outputs": [
        {
          "internalType": "uint8",
          "name": "",
          "type": "uint8"
        }
      ],
      "stateMutability": "view",
      "type": "function"
    },
    {
      "inputs": [
        {
          "internalType": "bytes32",
          "name": "root",
          "type": "bytes32"
        },
        {
          "internalType": "uint8",
          "name": "team",
          "type": "uint8"
        }
      ],
      "name": "setMerkleRoot",
      "outputs": [],
      "stateMutability": "nonpayable",
      "type": "function"
    },
    {
      "inputs": [
        {
          "internalType": "address",
          "name": "player",
          "type": "address"
        }
      ],
      "name": "checkPlayer",
      "outputs": [
        {
          "internalType": "bool",
          "name": "",
          "type": "bool"
        }
      ],
      "stateMutability": "view",
      "type": "function"
    },
    {
      "inputs": [],
      "name": "getTotalBetOne",
      "outputs": [
        {
          "internalType": "uint256",
          "name": "",
          "type": "uint256"
        }
      ],
      "stateMutability": "view",
      "type": "function"
    },
    {
      "inputs": [],
      "name": "getTotalBetTwo",
      "outputs": [
        {
          "internalType": "uint256",
          "name": "",
          "type": "uint256"
        }
      ],
      "stateMutability": "view",
      "type": "function"
    },
    {
      "inputs": [],
      "name": "getPlayersBetOne",
      "outputs": [
        {
          "internalType": "address[]",
          "name": "",
          "type": "address[]"
        }
      ],
      "stateMutability": "view",
      "type": "function"
    },
    {
      "inputs": [],
      "name": "getPlayersBetTwo",
      "outputs": [
        {
          "internalType": "address[]",
          "name": "",
          "type": "address[]"
        }
      ],
      "stateMutability": "view",
      "type": "function"
    },
    {
      "inputs": [
        {
          "internalType": "uint8",
          "name": "team",
          "type": "uint8"
        }
      ],
      "name": "bet",
      "outputs": [],
      "stateMutability": "payable",
      "type": "function"
    },
    {
      "inputs": [
        {
          "internalType": "bytes32[]",
          "name": "proof",
          "type": "bytes32[]"
        }
      ],
      "name": "getProof",
      "outputs": [
        {
          "internalType": "bool",
          "name": "",
          "type": "bool"
        }
      ],
      "stateMutability": "view",
      "type": "function"
    },
    {
      "inputs": [
        {
          "internalType": "bytes32[]",
          "name": "proof",
          "type": "bytes32[]"
        }
      ],
      "name": "claim",
      "outputs": [],
      "stateMutability": "nonpayable",
      "type": "function"
    }
  ],
  "bytecode": "0x608060405234801561001057600080fd5b50610033610025640100000000610040810204565b640100000000610044810204565b633b9aca00600355610094565b3390565b60008054600160a060020a03838116600160a060020a0319831681178455604051919092169283917f8be0079c531659141344cd1fd0a4f28419497f9722a3daafe3b4186f6b6457e09190a35050565b610fd2806100a36000396000f3fe60806040526004361061013c576000357c010000000000000000000000000000000000000000000000000000000090048063b391c508116100bd578063d0821b0e11610081578063d0821b0e14610308578063dc77ba3e1461031b578063dfbf53ae14610330578063e2eb41ff14610352578063f2fde38b146103725761013c565b8063b391c5081461027e578063bf58eeca1461029e578063c2b5a504146102be578063c38a8afd146102d3578063c884ef83146102e85761013c565b80637863117e116101045780637863117e146101f05780637b28438f1461021257806389fde55b1461023f5780638da5cb5b1461025457806395f867fb146102695761013c565b806339063c3614610141578063442dfe8c1461016c5780634471408a146101995780636797fdda146101b9578063715018a6146101db575b600080fd5b34801561014d57600080fd5b50610156610392565b6040516101639190610c73565b60405180910390f35b34801561017857600080fd5b5061018c610187366004610b14565b6103f4565b6040516101639190610cc0565b3480156101a557600080fd5b5061018c6101b4366004610ae6565b610449565b3480156101c557600080fd5b506101d96101d4366004610bce565b610466565b005b3480156101e757600080fd5b506101d96104cc565b3480156101fc57600080fd5b5061020561051a565b6040516101639190610ede565b34801561021e57600080fd5b5061023261022d366004610bf9565b610520565b6040516101639190610c5f565b34801561024b57600080fd5b5061015661054a565b34801561026057600080fd5b506102326105aa565b34801561027557600080fd5b506102056105b9565b34801561028a57600080fd5b506101d9610299366004610b14565b6105bf565b3480156102aa57600080fd5b506102326102b9366004610bf9565b610758565b3480156102ca57600080fd5b50610205610768565b3480156102df57600080fd5b5061020561076e565b3480156102f457600080fd5b50610205610303366004610ae6565b610774565b6101d9610316366004610c11565b610786565b34801561032757600080fd5b5061020561091e565b34801561033c57600080fd5b50610345610924565b6040516101639190610ee7565b34801561035e57600080fd5b5061020561036d366004610ae6565b61092d565b34801561037e57600080fd5b506101d961038d366004610ae6565b61093f565b606060048054806020026020016040519081016040528092919081815260200182805480156103ea57602002820191906000526020600020905b8154600160a060020a031681526001909101906020018083116103cc575b5050505050905090565b60006104336008543360405160200161040d9190610c2b565b60405160208183030381529060405280519060200120846109b69092919063ffffffff16565b1561044057506001610444565b5060005b919050565b600160a060020a0316600090815260066020526040902054151590565b61046e610a74565b600160a060020a031661047f6105aa565b600160a060020a0316146104b15760405160e560020a62461bcd0281526004016104a890610e04565b60405180910390fd5b6008919091556009805460ff191660ff909216919091179055565b6104d4610a74565b600160a060020a03166104e56105aa565b600160a060020a03161461050e5760405160e560020a62461bcd0281526004016104a890610e04565b6105186000610a78565b565b60015481565b6005818154811061053057600080fd5b600091825260209091200154600160a060020a0316905081565b606060058054806020026020016040519081016040528092919081815260200182805480156103ea57602002820191906000526020600020908154600160a060020a031681526001909101906020018083116103cc575050505050905090565b600054600160a060020a031690565b60025490565b6008546105e15760405160e560020a62461bcd0281526004016104a890610d96565b61061e600854336040516020016105f89190610c2b565b60405160208183030381529060405280519060200120836109b69092919063ffffffff16565b61063d5760405160e560020a62461bcd0281526004016104a890610dcd565b3360009081526006602052604090205460015460028054600954909160ff909116141561066d5750506002546001545b60008161067a8486610f0d565b6106849190610f30565b61068e9085610ef5565b9050600033600160a060020a0316826040516106a990610c5c565b60006040518083038185875af1925050503d80600081146106e6576040519150601f19603f3d011682016040523d82523d6000602084013e6106eb565b606091505b505090508061070f5760405160e560020a62461bcd0281526004016104a890610e70565b33600160a060020a03167f3b4a30774d0d09ad00ae2e481c1bcb9cd42d97f58ea6e44b4c65e2443a5d336d836040516107489190610ede565b60405180910390a2505050505050565b6004818154811061053057600080fd5b60025481565b60035481565b60076020526000908152604090205481565b8060ff166001148061079b57508060ff166002145b6107ba5760405160e560020a62461bcd0281526004016104a890610d5f565b6107c333610449565b156107e35760405160e560020a62461bcd0281526004016104a890610e39565b6003543410156108085760405160e560020a62461bcd0281526004016104a890610ccb565b6008541561082b5760405160e560020a62461bcd0281526004016104a890610ea7565b8060ff16600114156108a357600480546001818101835560009283527f8a35acfbc15ff81a39ae7d344fd709f28e8600b4aa8c65c6b64bfe7fe36bd19b909101805473ffffffffffffffffffffffffffffffffffffffff1916331790558054349290610898908490610ef5565b909155506109099050565b6005805460018101825560009182527f036b6384b5eca791c62761152d0c79bb0604c104a5fb6f4eb0703f3154bb3db001805473ffffffffffffffffffffffffffffffffffffffff19163317905560028054349290610903908490610ef5565b90915550505b50336000908152600660205260409020349055565b60015490565b60095460ff1681565b60066020526000908152604090205481565b610947610a74565b600160a060020a03166109586105aa565b600160a060020a0316146109815760405160e560020a62461bcd0281526004016104a890610e04565b600160a060020a0381166109aa5760405160e560020a62461bcd0281526004016104a890610d02565b6109b381610a78565b50565b600081815b8551811015610a695760008682815181106109e95760e060020a634e487b7102600052603260045260246000fd5b60200260200101519050808311610a2a578281604051602001610a0d929190610c4e565b604051602081830303815290604052805190602001209250610a56565b8083604051602001610a3d929190610c4e565b6040516020818303038152906040528051906020012092505b5080610a6181610f4f565b9150506109bb565b509092149392505050565b3390565b60008054600160a060020a0383811673ffffffffffffffffffffffffffffffffffffffff19831681178455604051919092169283917f8be0079c531659141344cd1fd0a4f28419497f9722a3daafe3b4186f6b6457e09190a35050565b803560ff8116811461044457600080fd5b600060208284031215610af7578081fd5b8135600160a060020a0381168114610b0d578182fd5b9392505050565b60006020808385031215610b26578182fd5b823567ffffffffffffffff80821115610b3d578384fd5b818501915085601f830112610b50578384fd5b813581811115610b6257610b62610f83565b83810260405185828201018181108582111715610b8157610b81610f83565b604052828152858101935084860182860187018a1015610b9f578788fd5b8795505b83861015610bc1578035855260019590950194938601938601610ba3565b5098975050505050505050565b60008060408385031215610be0578081fd5b82359150610bf060208401610ad5565b90509250929050565b600060208284031215610c0a578081fd5b5035919050565b600060208284031215610c22578081fd5b610b0d82610ad5565b600160a060020a03919091166c0100000000000000000000000002815260140190565b918252602082015260400190565b90565b600160a060020a0391909116815260200190565b6020808252825182820181905260009190848201906040850190845b81811015610cb4578351600160a060020a031683529284019291840191600101610c8f565b50909695505050505050565b901515815260200190565b60208082526015908201527f4d696e696d756d20626574206973203120677765690000000000000000000000604082015260600190565b60208082526026908201527f4f776e61626c653a206e6577206f776e657220697320746865207a65726f206160408201527f6464726573730000000000000000000000000000000000000000000000000000606082015260800190565b6020808252600c908201527f496e76616c6964207465616d0000000000000000000000000000000000000000604082015260600190565b6020808252601a908201527f4e6f2077696e6e65722079657420666f72207468697320626574000000000000604082015260600190565b60208082526017908201527f596f7520617265206e6f7420696e20746865206c697374000000000000000000604082015260600190565b6020808252818101527f4f776e61626c653a2063616c6c6572206973206e6f7420746865206f776e6572604082015260600190565b60208082526019908201527f596f7520626574206f6e20612067616d6520616c726561647900000000000000604082015260600190565b60208082526010908201527f5472616e73666572206661696c65642e00000000000000000000000000000000604082015260600190565b6020808252600f908201527f426574732061726520636c6f7365640000000000000000000000000000000000604082015260600190565b90815260200190565b60ff91909116815260200190565b60008219821115610f0857610f08610f6a565b500190565b600082610f2b5760e060020a634e487b710281526012600452602481fd5b500490565b6000816000190483118215151615610f4a57610f4a610f6a565b500290565b6000600019821415610f6357610f63610f6a565b5060010190565b60e060020a634e487b7102600052601160045260246000fd5b60e060020a634e487b7102600052604160045260246000fdfea2646970667358221220200a76a49e2adc6e8489c34e74606eaf2bc266e16135b9744ea115487b38e3fd64736f6c63430008000033",
  "immutableReferences": {},
  "source": "// SPDX-License-Identifier: MIT\npragma solidity ^0.8.0;\n\n// import \"hardhat/console.sol\";\nimport \"../openzeppelin/contracts/access/Ownable.sol\";\nimport {MerkleProof} from \"../openzeppelin/contracts/utils/cryptography/MerkleProof.sol\";\n\ncontract Betting is Ownable {\n    event GainsClaimed(address indexed _address, uint256 _value);\n\n    using MerkleProof for bytes32[];\n\n    uint256 public totalBetOne;\n    uint256 public totalBetTwo;\n\n    uint256 public minimumBet;\n\n    address[] public playersBetOne;\n    address[] public playersBetTwo;\n\n    mapping(address => uint256) public players;\n    mapping(address => uint256) public claimed;\n\n    bytes32 merkleRoot;\n    uint8 public winner;\n\n    constructor() Ownable() {\n        // minimum bet is 1 gwei\n        minimumBet = 1000000000;\n    }\n\n    function setMerkleRoot(bytes32 root, uint8 team) onlyOwner public\n    {\n        merkleRoot = root;\n        winner = team;\n    }\n\n    function checkPlayer(address player) public view returns(bool){\n        return !(players[player] == 0);\n    }\n\n    function getTotalBetOne() public view returns(uint256){\n        return totalBetOne;\n    }\n\n    function getTotalBetTwo() public view returns(uint256){\n        return totalBetTwo;\n    }\n\n    function getPlayersBetOne() public view returns(address[] memory) {\n        return playersBetOne;\n    }\n\n    function getPlayersBetTwo() public view returns(address[] memory) {\n        return playersBetTwo;\n    }\n\n    function bet(uint8 team) public payable {\n        require(team == 1 || team == 2, \"Invalid team\");\n\n        require(!checkPlayer(msg.sender), \"You bet on a game already\");\n\n        require(msg.value >= minimumBet, \"Minimum bet is 1 gwei\");\n\n        require(merkleRoot == 0, \"Bets are closed\");\n\n        if(team == 1) {\n            playersBetOne.push(msg.sender);\n            totalBetOne += msg.value;\n        } else {\n            playersBetTwo.push(msg.sender);\n            totalBetTwo += msg.value;\n        }\n\n        players[msg.sender] = msg.value;\n    }\n\n    function getProof(bytes32[] memory proof) public view returns(bool){\n        if(proof.verify(merkleRoot, keccak256(abi.encodePacked(msg.sender)))){\n            return true;\n        }else{\n            return false;\n        }\n    }\n\n    function claim(bytes32[] memory proof) public {\n        require(merkleRoot != 0, \"No winner yet for this bet\");\n\n        require(proof.verify(merkleRoot, keccak256(abi.encodePacked(msg.sender))), \"You are not in the list\");\n\n        uint256 senderBet = players[msg.sender];\n\n        uint256 totalWinners = totalBetOne;\n        uint256 totalLosers = totalBetTwo;\n\n        if(winner == 2) {\n            totalWinners = totalBetTwo;\n            totalLosers = totalBetOne;\n        }\n\n        uint256 total = senderBet + ((senderBet / totalWinners) * totalLosers);\n\n        (bool success, ) = msg.sender.call{value:total}(\"\");\n\n        require(success, \"Transfer failed.\");\n\n        emit GainsClaimed(msg.sender, total);\n    }\n}",
  "sourcePath": "/Volumes/Transcend/Projects/DappsLab/Lottery-Smart-Contract/contracts/MerkleTreesBulkTransfers.sol",
  "compiler": {
    "name": "solc",
    "version": "0.8.0+commit.c7dfd78e.Emscripten.clang"
  },
  "schemaVersion": "3.4.3",
  "updatedAt": "2021-10-28T09:05:59.254Z",
  "devdoc": {
    "kind": "dev",
    "methods": {
      "owner()": {
        "details": "Returns the address of the current owner."
      },
      "renounceOwnership()": {
        "details": "Leaves the contract without owner. It will not be possible to call `onlyOwner` functions anymore. Can only be called by the current owner. NOTE: Renouncing ownership will leave the contract without an owner, thereby removing any functionality that is only available to the owner."
      },
      "transferOwnership(address)": {
        "details": "Transfers ownership of the contract to a new account (`newOwner`). Can only be called by the current owner."
      }
    },
    "version": 1
  },
  "userdoc": {
    "kind": "user",
    "methods": {},
    "version": 1
  }
}