{
  "contractName": "DVC",
  "abi": [
    {
      "inputs": [],
      "stateMutability": "nonpayable",
      "type": "constructor"
    },
    {
      "anonymous": false,
      "inputs": [
        {
          "indexed": true,
          "internalType": "address",
          "name": "owner",
          "type": "address"
        },
        {
          "indexed": true,
          "internalType": "address",
          "name": "spender",
          "type": "address"
        },
        {
          "indexed": false,
          "internalType": "uint256",
          "name": "value",
          "type": "uint256"
        }
      ],
      "name": "Approval",
      "type": "event"
    },
    {
      "anonymous": false,
      "inputs": [
        {
          "indexed": true,
          "internalType": "address",
          "name": "from",
          "type": "address"
        },
        {
          "indexed": true,
          "internalType": "address",
          "name": "to",
          "type": "address"
        },
        {
          "indexed": false,
          "internalType": "uint256",
          "name": "value",
          "type": "uint256"
        }
      ],
      "name": "Transfer",
      "type": "event"
    },
    {
      "inputs": [
        {
          "internalType": "uint256",
          "name": "tokenId",
          "type": "uint256"
        },
        {
          "internalType": "address",
          "name": "from",
          "type": "address"
        },
        {
          "internalType": "uint256",
          "name": "amount",
          "type": "uint256"
        },
        {
          "internalType": "bool",
          "name": "isNFT",
          "type": "bool"
        }
      ],
      "name": "_spend",
      "outputs": [
        {
          "internalType": "bool",
          "name": "",
          "type": "bool"
        }
      ],
      "stateMutability": "nonpayable",
      "type": "function"
    },
    {
      "inputs": [
        {
          "internalType": "address",
          "name": "owner",
          "type": "address"
        },
        {
          "internalType": "address",
          "name": "spender",
          "type": "address"
        }
      ],
      "name": "allowance",
      "outputs": [
        {
          "internalType": "uint256",
          "name": "",
          "type": "uint256"
        }
      ],
      "stateMutability": "view",
      "type": "function",
      "constant": true
    },
    {
      "inputs": [
        {
          "internalType": "address",
          "name": "spender",
          "type": "address"
        },
        {
          "internalType": "uint256",
          "name": "amount",
          "type": "uint256"
        }
      ],
      "name": "approve",
      "outputs": [
        {
          "internalType": "bool",
          "name": "",
          "type": "bool"
        }
      ],
      "stateMutability": "nonpayable",
      "type": "function"
    },
    {
      "inputs": [
        {
          "internalType": "address",
          "name": "account",
          "type": "address"
        }
      ],
      "name": "balanceOf",
      "outputs": [
        {
          "internalType": "uint256",
          "name": "",
          "type": "uint256"
        }
      ],
      "stateMutability": "view",
      "type": "function",
      "constant": true
    },
    {
      "inputs": [
        {
          "internalType": "uint256",
          "name": "amount",
          "type": "uint256"
        }
      ],
      "name": "burn",
      "outputs": [],
      "stateMutability": "nonpayable",
      "type": "function"
    },
    {
      "inputs": [
        {
          "internalType": "address",
          "name": "account",
          "type": "address"
        },
        {
          "internalType": "uint256",
          "name": "amount",
          "type": "uint256"
        }
      ],
      "name": "burnFrom",
      "outputs": [],
      "stateMutability": "nonpayable",
      "type": "function"
    },
    {
      "inputs": [],
      "name": "decimals",
      "outputs": [
        {
          "internalType": "uint8",
          "name": "",
          "type": "uint8"
        }
      ],
      "stateMutability": "view",
      "type": "function",
      "constant": true
    },
    {
      "inputs": [
        {
          "internalType": "address",
          "name": "spender",
          "type": "address"
        },
        {
          "internalType": "uint256",
          "name": "subtractedValue",
          "type": "uint256"
        }
      ],
      "name": "decreaseAllowance",
      "outputs": [
        {
          "internalType": "bool",
          "name": "",
          "type": "bool"
        }
      ],
      "stateMutability": "nonpayable",
      "type": "function"
    },
    {
      "inputs": [
        {
          "internalType": "uint256",
          "name": "tokenId",
          "type": "uint256"
        }
      ],
      "name": "deleteAuctionAddress",
      "outputs": [],
      "stateMutability": "nonpayable",
      "type": "function"
    },
    {
      "inputs": [
        {
          "internalType": "uint256",
          "name": "tokenId",
          "type": "uint256"
        }
      ],
      "name": "getAuctionsAddress",
      "outputs": [
        {
          "internalType": "address",
          "name": "",
          "type": "address"
        }
      ],
      "stateMutability": "view",
      "type": "function",
      "constant": true
    },
    {
      "inputs": [],
      "name": "getNFTRegistery",
      "outputs": [
        {
          "internalType": "address",
          "name": "",
          "type": "address"
        }
      ],
      "stateMutability": "view",
      "type": "function",
      "constant": true
    },
    {
      "inputs": [
        {
          "internalType": "address",
          "name": "spender",
          "type": "address"
        },
        {
          "internalType": "uint256",
          "name": "addedValue",
          "type": "uint256"
        }
      ],
      "name": "increaseAllowance",
      "outputs": [
        {
          "internalType": "bool",
          "name": "",
          "type": "bool"
        }
      ],
      "stateMutability": "nonpayable",
      "type": "function"
    },
    {
      "inputs": [],
      "name": "name",
      "outputs": [
        {
          "internalType": "string",
          "name": "",
          "type": "string"
        }
      ],
      "stateMutability": "view",
      "type": "function",
      "constant": true
    },
    {
      "inputs": [
        {
          "internalType": "uint256",
          "name": "tokenId",
          "type": "uint256"
        },
        {
          "internalType": "address",
          "name": "auctionAddress",
          "type": "address"
        }
      ],
      "name": "setAuctionsAddress",
      "outputs": [],
      "stateMutability": "nonpayable",
      "type": "function"
    },
    {
      "inputs": [
        {
          "internalType": "address",
          "name": "NFTRegistery",
          "type": "address"
        }
      ],
      "name": "setNFTRegistery",
      "outputs": [],
      "stateMutability": "nonpayable",
      "type": "function"
    },
    {
      "inputs": [
        {
          "internalType": "uint256",
          "name": "tokenId",
          "type": "uint256"
        },
        {
          "internalType": "address",
          "name": "from",
          "type": "address"
        },
        {
          "internalType": "uint256",
          "name": "amount",
          "type": "uint256"
        }
      ],
      "name": "spendFrom",
      "outputs": [
        {
          "internalType": "bool",
          "name": "",
          "type": "bool"
        }
      ],
      "stateMutability": "nonpayable",
      "type": "function"
    },
    {
      "inputs": [
        {
          "internalType": "address",
          "name": "from",
          "type": "address"
        },
        {
          "internalType": "uint256",
          "name": "amount",
          "type": "uint256"
        }
      ],
      "name": "spendFrom",
      "outputs": [
        {
          "internalType": "bool",
          "name": "",
          "type": "bool"
        }
      ],
      "stateMutability": "nonpayable",
      "type": "function"
    },
    {
      "inputs": [],
      "name": "symbol",
      "outputs": [
        {
          "internalType": "string",
          "name": "",
          "type": "string"
        }
      ],
      "stateMutability": "view",
      "type": "function",
      "constant": true
    },
    {
      "inputs": [],
      "name": "totalSupply",
      "outputs": [
        {
          "internalType": "uint256",
          "name": "",
          "type": "uint256"
        }
      ],
      "stateMutability": "view",
      "type": "function",
      "constant": true
    },
    {
      "inputs": [
        {
          "internalType": "address",
          "name": "recipient",
          "type": "address"
        },
        {
          "internalType": "uint256",
          "name": "amount",
          "type": "uint256"
        }
      ],
      "name": "transfer",
      "outputs": [
        {
          "internalType": "bool",
          "name": "",
          "type": "bool"
        }
      ],
      "stateMutability": "nonpayable",
      "type": "function"
    },
    {
      "inputs": [
        {
          "internalType": "address",
          "name": "sender",
          "type": "address"
        },
        {
          "internalType": "address",
          "name": "recipient",
          "type": "address"
        },
        {
          "internalType": "uint256",
          "name": "amount",
          "type": "uint256"
        }
      ],
      "name": "transferFrom",
      "outputs": [
        {
          "internalType": "bool",
          "name": "",
          "type": "bool"
        }
      ],
      "stateMutability": "nonpayable",
      "type": "function"
    }
  ],
  "bytecode": "0x60806040523480156200001157600080fd5b506040518060400160405280600c81526020017f446176696e636920436f696e00000000000000000000000000000000000000008152506040518060400160405280600381526020017f44564300000000000000000000000000000000000000000000000000000000008152506a027b46536c66c8e30000003383838160069080519060200190620000a592919062000202565b508051620000bb90600790602084019062000202565b505060038054600160a060020a0319163317905550620000e58183640100000000620000ef810204565b505050506200037c565b600160a060020a0382166200013b576040517f08c379a00000000000000000000000000000000000000000000000000000000081526004016200013290620002a8565b60405180910390fd5b6200015260008383640100000000620001fd810204565b8060026000828254620001669190620002e8565b9091555050600160a060020a0382166000908152602081905260408120805483929062000195908490620002e8565b9091555050604051600160a060020a038316906000907fddf252ad1be2c89b69c2b068fc378daa952ba7f163c4a11628f55a4df523b3ef90620001da908590620002df565b60405180910390a3620001f960008383640100000000620001fd810204565b5050565b505050565b828054620002109062000326565b90600052602060002090601f0160209004810192826200023457600085556200027f565b82601f106200024f57805160ff19168380011785556200027f565b828001600101855582156200027f579182015b828111156200027f57825182559160200191906001019062000262565b506200028d92915062000291565b5090565b5b808211156200028d576000815560010162000292565b6020808252601f908201527f45524332303a206d696e7420746f20746865207a65726f206164647265737300604082015260600190565b90815260200190565b6000821982111562000321577f4e487b710000000000000000000000000000000000000000000000000000000081526011600452602481fd5b500190565b6002810460018216806200033b57607f821691505b6020821081141562000376577f4e487b7100000000000000000000000000000000000000000000000000000000600052602260045260246000fd5b50919050565b6112b5806200038c6000396000f3fe608060405234801561001057600080fd5b5060043610610154576000357c0100000000000000000000000000000000000000000000000000000000900480636aade288116100d557806395d89b411161009957806395d89b4114610296578063a457c2d71461029e578063a7fa5e11146102b1578063a9059cbb146102c4578063c42d355e146102d7578063dd62ed3e146102ea57610154565b80636aade2881461023757806370a082311461024a578063746e8e701461025d57806377df84a41461027057806379cc67901461028357610154565b8063313ce5671161011c578063313ce567146101d257806339509351146101e7578063407ae7bf146101fa57806342966c681461020f578063467512631461022457610154565b806301f07a3b1461015957806306fdde0314610182578063095ea7b31461019757806318160ddd146101aa57806323b872dd146101bf575b600080fd5b61016c610167366004610c8e565b6102fd565b6040516101799190610d11565b60405180910390f35b61018a610314565b6040516101799190610d1c565b61016c6101a5366004610c2b565b6103a6565b6101b26103c3565b60405161017991906111b6565b61016c6101cd366004610bf0565b6103c9565b6101da610465565b60405161017991906111bf565b61016c6101f5366004610c2b565b61046a565b6102026104be565b6040516101799190610cfd565b61022261021d366004610c54565b6104cd565b005b610202610232366004610c54565b6104e1565b61016c610245366004610c2b565b6104ff565b6101b2610258366004610ba4565b610516565b61022261026b366004610c6c565b610531565b61022261027e366004610c54565b610599565b610222610291366004610c2b565b6105fd565b61018a610653565b61016c6102ac366004610c2b565b610662565b6102226102bf366004610ba4565b6106de565b61016c6102d2366004610c2b565b61073a565b61016c6102e5366004610cb2565b61074e565b6101b26102f8366004610bbe565b61087a565b600061030c848484600061074e565b949350505050565b606060068054610323906111fc565b80601f016020809104026020016040519081016040528092919081815260200182805461034f906111fc565b801561039c5780601f106103715761010080835404028352916020019161039c565b820191906000526020600020905b81548152906001019060200180831161037f57829003601f168201915b5050505050905090565b60006103ba6103b36108a5565b84846108a9565b50600192915050565b60025490565b60006103d6848484610963565b600160a060020a0384166000908152600160205260408120816103f76108a5565b600160a060020a0316600160a060020a03168152602001908152602001600020549050828110156104465760405160e560020a62461bcd02815260040161043d90610f51565b60405180910390fd5b61045a856104526108a5565b8584036108a9565b506001949350505050565b601290565b60006103ba6104776108a5565b8484600160006104856108a5565b600160a060020a03908116825260208083019390935260409182016000908120918b16815292529020546104b991906111cd565b6108a9565b600454600160a060020a031690565b6104de6104d86108a5565b82610a96565b50565b600081815260056020526040902054600160a060020a03165b919050565b600061050f60008484600161074e565b9392505050565b600160a060020a031660009081526020819052604090205490565b600454600160a060020a0316331461055e5760405160e560020a62461bcd02815260040161043d90610f1a565b600091825260056020526040909120805473ffffffffffffffffffffffffffffffffffffffff1916600160a060020a03909216919091179055565b600081815260056020526040902054600160a060020a031633146105d25760405160e560020a62461bcd02815260040161043d90611122565b6000908152600560205260409020805473ffffffffffffffffffffffffffffffffffffffff19169055565b600061060b836102f86108a5565b9050818110156106305760405160e560020a62461bcd02815260040161043d90610fae565b6106448361063c6108a5565b8484036108a9565b61064e8383610a96565b505050565b606060078054610323906111fc565b600080600160006106716108a5565b600160a060020a03908116825260208083019390935260409182016000908120918816815292529020549050828110156106c05760405160e560020a62461bcd02815260040161043d90611159565b6106d46106cb6108a5565b858584036108a9565b5060019392505050565b600354600160a060020a0316331461070b5760405160e560020a62461bcd02815260040161043d90610ee3565b6004805473ffffffffffffffffffffffffffffffffffffffff1916600160a060020a0392909216919091179055565b60006103ba6107476108a5565b8484610963565b6000600254831061075e57600080fd5b600160a060020a038416600090815260208190526040902054831061078257600080fd5b81156107a457600454600160a060020a0316331461079f57600080fd5b6107c7565b600085815260056020526040902054600160a060020a031633146107c757600080fd5b600160a060020a0384166000908152602081905260409020546107eb9084906111e5565b600160a060020a0385166000908152602081905260408082209290925533815220546108189084906111cd565b3360008181526020819052604090819020929092559051600160a060020a038616907fddf252ad1be2c89b69c2b068fc378daa952ba7f163c4a11628f55a4df523b3ef906108679087906111b6565b60405180910390a3506001949350505050565b600160a060020a03918216600090815260016020908152604080832093909416825291909152205490565b3390565b600160a060020a0383166108d25760405160e560020a62461bcd02815260040161043d906110c5565b600160a060020a0382166108fb5760405160e560020a62461bcd02815260040161043d90610e29565b600160a060020a0380841660008181526001602090815260408083209487168084529490915290819020849055517f8c5be1e5ebec7d5bd14f71427d1e84f3dd0314c0f7b2291e5b200ac8c7c3b925906109569085906111b6565b60405180910390a3505050565b600160a060020a03831661098c5760405160e560020a62461bcd02815260040161043d90611068565b600160a060020a0382166109b55760405160e560020a62461bcd02815260040161043d90610d6f565b6109c083838361064e565b600160a060020a038316600090815260208190526040902054818110156109fc5760405160e560020a62461bcd02815260040161043d90610e86565b600160a060020a03808516600090815260208190526040808220858503905591851681529081208054849290610a339084906111cd565b9250508190555082600160a060020a031684600160a060020a03167fddf252ad1be2c89b69c2b068fc378daa952ba7f163c4a11628f55a4df523b3ef84604051610a7d91906111b6565b60405180910390a3610a9084848461064e565b50505050565b600160a060020a038216610abf5760405160e560020a62461bcd02815260040161043d9061100b565b610acb8260008361064e565b600160a060020a03821660009081526020819052604090205481811015610b075760405160e560020a62461bcd02815260040161043d90610dcc565b600160a060020a0383166000908152602081905260408120838303905560028054849290610b369084906111e5565b9091555050604051600090600160a060020a038516907fddf252ad1be2c89b69c2b068fc378daa952ba7f163c4a11628f55a4df523b3ef90610b799086906111b6565b60405180910390a361064e8360008461064e565b8035600160a060020a03811681146104fa57600080fd5b600060208284031215610bb5578081fd5b61050f82610b8d565b60008060408385031215610bd0578081fd5b610bd983610b8d565b9150610be760208401610b8d565b90509250929050565b600080600060608486031215610c04578081fd5b610c0d84610b8d565b9250610c1b60208501610b8d565b9150604084013590509250925092565b60008060408385031215610c3d578182fd5b610c4683610b8d565b946020939093013593505050565b600060208284031215610c65578081fd5b5035919050565b60008060408385031215610c7e578182fd5b82359150610be760208401610b8d565b600080600060608486031215610ca2578283fd5b83359250610c1b60208501610b8d565b60008060008060808587031215610cc7578081fd5b84359350610cd760208601610b8d565b92506040850135915060608501358015158114610cf2578182fd5b939692955090935050565b600160a060020a0391909116815260200190565b901515815260200190565b6000602080835283518082850152825b81811015610d4857858101830151858201604001528201610d2c565b81811115610d595783604083870101525b50601f01601f1916929092016040019392505050565b60208082526023908201527f45524332303a207472616e7366657220746f20746865207a65726f206164647260408201527f6573730000000000000000000000000000000000000000000000000000000000606082015260800190565b60208082526022908201527f45524332303a206275726e20616d6f756e7420657863656564732062616c616e60408201527f6365000000000000000000000000000000000000000000000000000000000000606082015260800190565b60208082526022908201527f45524332303a20617070726f766520746f20746865207a65726f20616464726560408201527f7373000000000000000000000000000000000000000000000000000000000000606082015260800190565b60208082526026908201527f45524332303a207472616e7366657220616d6f756e742065786365656473206260408201527f616c616e63650000000000000000000000000000000000000000000000000000606082015260800190565b60208082526015908201527f6f6e6c79206f776e65722063616e206368616e67650000000000000000000000604082015260600190565b60208082526018908201527f63616e206f6e6c792063616c6c65642066726f6d204e46540000000000000000604082015260600190565b60208082526028908201527f45524332303a207472616e7366657220616d6f756e742065786365656473206160408201527f6c6c6f77616e6365000000000000000000000000000000000000000000000000606082015260800190565b60208082526024908201527f45524332303a206275726e20616d6f756e74206578636565647320616c6c6f7760408201527f616e636500000000000000000000000000000000000000000000000000000000606082015260800190565b60208082526021908201527f45524332303a206275726e2066726f6d20746865207a65726f2061646472657360408201527f7300000000000000000000000000000000000000000000000000000000000000606082015260800190565b60208082526025908201527f45524332303a207472616e736665722066726f6d20746865207a65726f20616460408201527f6472657373000000000000000000000000000000000000000000000000000000606082015260800190565b60208082526024908201527f45524332303a20617070726f76652066726f6d20746865207a65726f2061646460408201527f7265737300000000000000000000000000000000000000000000000000000000606082015260800190565b6020808252601c908201527f63616e206f6e6c792063616c6c65642066726f6d2041756374696f6e00000000604082015260600190565b60208082526025908201527f45524332303a2064656372656173656420616c6c6f77616e63652062656c6f7760408201527f207a65726f000000000000000000000000000000000000000000000000000000606082015260800190565b90815260200190565b60ff91909116815260200190565b600082198211156111e0576111e0611250565b500190565b6000828210156111f7576111f7611250565b500390565b60028104600182168061121057607f821691505b6020821081141561124a577f4e487b7100000000000000000000000000000000000000000000000000000000600052602260045260246000fd5b50919050565b7f4e487b7100000000000000000000000000000000000000000000000000000000600052601160045260246000fdfea26469706673582212200f6cf254423403421ce385b29b2782d1005ade59959284f273f255e51d06970a64736f6c63430008000033",
  "immutableReferences": {},
  "source": "// SPDX-License-Identifier: MIT\npragma solidity ^0.8.0;\n\nimport \"./presets/ERC20PresetFixedSupply.sol\";\n\ncontract DVC is ERC20PresetFixedSupply {\n    constructor()\n    ERC20PresetFixedSupply(\n        \"Davinci Coin\",\n        \"DVC\",\n        3000000000000000000000000,\n        msg.sender\n    )\n    {}\n\n    // function _beforeTokenTransfer(\n    //     address from,\n    //     address to,\n    //     uint256 tokenId\n    // ) internal virtual override(ERC721) {\n    //     super._beforeTokenTransfer(from, to, tokenId);\n    //     uint256 secondaryShare = msg.value / 100 * 10;\n    //     payable(_creatorOf(tokenId)).transfer(secondaryShare);\n    // }\n}",
  "sourcePath": "/Volumes/Transcend/Projects/DappsLab/Lottery-Smart-Contract/contracts/customERC20ERC721/ERC20/DVC.sol",
  "compiler": {
    "name": "solc",
    "version": "0.8.0+commit.c7dfd78e.Emscripten.clang"
  },
  "schemaVersion": "3.4.3",
  "updatedAt": "2021-11-18T08:12:02.491Z",
  "networkType": "ethereum",
  "devdoc": {
    "kind": "dev",
    "methods": {
      "allowance(address,address)": {
        "details": "See {IERC20-allowance}."
      },
      "approve(address,uint256)": {
        "details": "See {IERC20-approve}. Requirements: - `spender` cannot be the zero address."
      },
      "balanceOf(address)": {
        "details": "See {IERC20-balanceOf}."
      },
      "burn(uint256)": {
        "details": "Destroys `amount` tokens from the caller. See {ERC20-_burn}."
      },
      "burnFrom(address,uint256)": {
        "details": "Destroys `amount` tokens from `account`, deducting from the caller's allowance. See {ERC20-_burn} and {ERC20-allowance}. Requirements: - the caller must have allowance for ``accounts``'s tokens of at least `amount`."
      },
      "decimals()": {
        "details": "Returns the number of decimals used to get its user representation. For example, if `decimals` equals `2`, a balance of `505` tokens should be displayed to a user as `5,05` (`505 / 10 ** 2`). Tokens usually opt for a value of 18, imitating the relationship between Ether and Wei. This is the value {ERC20} uses, unless this function is overridden; NOTE: This information is only used for _display_ purposes: it in no way affects any of the arithmetic of the contract, including {IERC20-balanceOf} and {IERC20-transfer}."
      },
      "decreaseAllowance(address,uint256)": {
        "details": "Atomically decreases the allowance granted to `spender` by the caller. This is an alternative to {approve} that can be used as a mitigation for problems described in {IERC20-approve}. Emits an {Approval} event indicating the updated allowance. Requirements: - `spender` cannot be the zero address. - `spender` must have allowance for the caller of at least `subtractedValue`."
      },
      "getNFTRegistery()": {
        "details": "Returns the NFTRegistery of the token."
      },
      "increaseAllowance(address,uint256)": {
        "details": "Atomically increases the allowance granted to `spender` by the caller. This is an alternative to {approve} that can be used as a mitigation for problems described in {IERC20-approve}. Emits an {Approval} event indicating the updated allowance. Requirements: - `spender` cannot be the zero address."
      },
      "name()": {
        "details": "Returns the name of the token."
      },
      "symbol()": {
        "details": "Returns the symbol of the token, usually a shorter version of the name."
      },
      "totalSupply()": {
        "details": "See {IERC20-totalSupply}."
      },
      "transfer(address,uint256)": {
        "details": "See {IERC20-transfer}. Requirements: - `recipient` cannot be the zero address. - the caller must have a balance of at least `amount`."
      },
      "transferFrom(address,address,uint256)": {
        "details": "See {IERC20-transferFrom}. Emits an {Approval} event indicating the updated allowance. This is not required by the EIP. See the note at the beginning of {ERC20}. Requirements: - `sender` and `recipient` cannot be the zero address. - `sender` must have a balance of at least `amount`. - the caller must have allowance for ``sender``'s tokens of at least `amount`."
      }
    },
    "version": 1
  },
  "userdoc": {
    "kind": "user",
    "methods": {},
    "version": 1
  }
}