{
  "contractName": "DVC",
  "abi": [
    {
      "inputs": [],
      "stateMutability": "nonpayable",
      "type": "constructor"
    },
    {
      "anonymous": false,
      "inputs": [
        {
          "indexed": true,
          "internalType": "address",
          "name": "owner",
          "type": "address"
        },
        {
          "indexed": true,
          "internalType": "address",
          "name": "spender",
          "type": "address"
        },
        {
          "indexed": false,
          "internalType": "uint256",
          "name": "value",
          "type": "uint256"
        }
      ],
      "name": "Approval",
      "type": "event"
    },
    {
      "anonymous": false,
      "inputs": [
        {
          "indexed": true,
          "internalType": "address",
          "name": "from",
          "type": "address"
        },
        {
          "indexed": true,
          "internalType": "address",
          "name": "to",
          "type": "address"
        },
        {
          "indexed": false,
          "internalType": "uint256",
          "name": "value",
          "type": "uint256"
        }
      ],
      "name": "Transfer",
      "type": "event"
    },
    {
      "inputs": [
        {
          "internalType": "uint256",
          "name": "tokenId",
          "type": "uint256"
        },
        {
          "internalType": "address",
          "name": "from",
          "type": "address"
        },
        {
          "internalType": "uint256",
          "name": "amount",
          "type": "uint256"
        },
        {
          "internalType": "bool",
          "name": "isNFT",
          "type": "bool"
        }
      ],
      "name": "_spend",
      "outputs": [
        {
          "internalType": "bool",
          "name": "",
          "type": "bool"
        }
      ],
      "stateMutability": "nonpayable",
      "type": "function"
    },
    {
      "inputs": [
        {
          "internalType": "address",
          "name": "owner",
          "type": "address"
        },
        {
          "internalType": "address",
          "name": "spender",
          "type": "address"
        }
      ],
      "name": "allowance",
      "outputs": [
        {
          "internalType": "uint256",
          "name": "",
          "type": "uint256"
        }
      ],
      "stateMutability": "view",
      "type": "function",
      "constant": true
    },
    {
      "inputs": [
        {
          "internalType": "address",
          "name": "spender",
          "type": "address"
        },
        {
          "internalType": "uint256",
          "name": "amount",
          "type": "uint256"
        }
      ],
      "name": "approve",
      "outputs": [
        {
          "internalType": "bool",
          "name": "",
          "type": "bool"
        }
      ],
      "stateMutability": "nonpayable",
      "type": "function"
    },
    {
      "inputs": [
        {
          "internalType": "address",
          "name": "account",
          "type": "address"
        }
      ],
      "name": "balanceOf",
      "outputs": [
        {
          "internalType": "uint256",
          "name": "",
          "type": "uint256"
        }
      ],
      "stateMutability": "view",
      "type": "function",
      "constant": true
    },
    {
      "inputs": [
        {
          "internalType": "uint256",
          "name": "amount",
          "type": "uint256"
        }
      ],
      "name": "burn",
      "outputs": [],
      "stateMutability": "nonpayable",
      "type": "function"
    },
    {
      "inputs": [
        {
          "internalType": "address",
          "name": "account",
          "type": "address"
        },
        {
          "internalType": "uint256",
          "name": "amount",
          "type": "uint256"
        }
      ],
      "name": "burnFrom",
      "outputs": [],
      "stateMutability": "nonpayable",
      "type": "function"
    },
    {
      "inputs": [],
      "name": "decimals",
      "outputs": [
        {
          "internalType": "uint8",
          "name": "",
          "type": "uint8"
        }
      ],
      "stateMutability": "view",
      "type": "function",
      "constant": true
    },
    {
      "inputs": [
        {
          "internalType": "address",
          "name": "spender",
          "type": "address"
        },
        {
          "internalType": "uint256",
          "name": "subtractedValue",
          "type": "uint256"
        }
      ],
      "name": "decreaseAllowance",
      "outputs": [
        {
          "internalType": "bool",
          "name": "",
          "type": "bool"
        }
      ],
      "stateMutability": "nonpayable",
      "type": "function"
    },
    {
      "inputs": [],
      "name": "getNFTRegistery",
      "outputs": [
        {
          "internalType": "address",
          "name": "",
          "type": "address"
        }
      ],
      "stateMutability": "view",
      "type": "function",
      "constant": true
    },
    {
      "inputs": [
        {
          "internalType": "address",
          "name": "spender",
          "type": "address"
        },
        {
          "internalType": "uint256",
          "name": "addedValue",
          "type": "uint256"
        }
      ],
      "name": "increaseAllowance",
      "outputs": [
        {
          "internalType": "bool",
          "name": "",
          "type": "bool"
        }
      ],
      "stateMutability": "nonpayable",
      "type": "function"
    },
    {
      "inputs": [],
      "name": "name",
      "outputs": [
        {
          "internalType": "string",
          "name": "",
          "type": "string"
        }
      ],
      "stateMutability": "view",
      "type": "function",
      "constant": true
    },
    {
      "inputs": [
        {
          "internalType": "address",
          "name": "NFTRegistery",
          "type": "address"
        }
      ],
      "name": "setNFTRegistery",
      "outputs": [],
      "stateMutability": "nonpayable",
      "type": "function"
    },
    {
      "inputs": [
        {
          "internalType": "uint256",
          "name": "tokenId",
          "type": "uint256"
        },
        {
          "internalType": "address",
          "name": "from",
          "type": "address"
        },
        {
          "internalType": "uint256",
          "name": "amount",
          "type": "uint256"
        }
      ],
      "name": "spendFrom",
      "outputs": [
        {
          "internalType": "bool",
          "name": "",
          "type": "bool"
        }
      ],
      "stateMutability": "nonpayable",
      "type": "function"
    },
    {
      "inputs": [
        {
          "internalType": "address",
          "name": "from",
          "type": "address"
        },
        {
          "internalType": "uint256",
          "name": "amount",
          "type": "uint256"
        }
      ],
      "name": "spendFrom",
      "outputs": [
        {
          "internalType": "bool",
          "name": "",
          "type": "bool"
        }
      ],
      "stateMutability": "nonpayable",
      "type": "function"
    },
    {
      "inputs": [],
      "name": "symbol",
      "outputs": [
        {
          "internalType": "string",
          "name": "",
          "type": "string"
        }
      ],
      "stateMutability": "view",
      "type": "function",
      "constant": true
    },
    {
      "inputs": [],
      "name": "totalSupply",
      "outputs": [
        {
          "internalType": "uint256",
          "name": "",
          "type": "uint256"
        }
      ],
      "stateMutability": "view",
      "type": "function",
      "constant": true
    },
    {
      "inputs": [
        {
          "internalType": "address",
          "name": "recipient",
          "type": "address"
        },
        {
          "internalType": "uint256",
          "name": "amount",
          "type": "uint256"
        }
      ],
      "name": "transfer",
      "outputs": [
        {
          "internalType": "bool",
          "name": "",
          "type": "bool"
        }
      ],
      "stateMutability": "nonpayable",
      "type": "function"
    },
    {
      "inputs": [
        {
          "internalType": "address",
          "name": "sender",
          "type": "address"
        },
        {
          "internalType": "address",
          "name": "recipient",
          "type": "address"
        },
        {
          "internalType": "uint256",
          "name": "amount",
          "type": "uint256"
        }
      ],
      "name": "transferFrom",
      "outputs": [
        {
          "internalType": "bool",
          "name": "",
          "type": "bool"
        }
      ],
      "stateMutability": "nonpayable",
      "type": "function"
    }
  ],
  "bytecode": "0x60806040523480156200001157600080fd5b506040518060400160405280600c81526020017f446176696e636920436f696e00000000000000000000000000000000000000008152506040518060400160405280600381526020017f44564300000000000000000000000000000000000000000000000000000000008152506a027b46536c66c8e30000003383838160059080519060200190620000a592919062000202565b508051620000bb90600690602084019062000202565b505060038054600160a060020a0319163317905550620000e58183640100000000620000ef810204565b505050506200037c565b600160a060020a0382166200013b576040517f08c379a00000000000000000000000000000000000000000000000000000000081526004016200013290620002a8565b60405180910390fd5b6200015260008383640100000000620001fd810204565b8060026000828254620001669190620002e8565b9091555050600160a060020a0382166000908152602081905260408120805483929062000195908490620002e8565b9091555050604051600160a060020a038316906000907fddf252ad1be2c89b69c2b068fc378daa952ba7f163c4a11628f55a4df523b3ef90620001da908590620002df565b60405180910390a3620001f960008383640100000000620001fd810204565b5050565b505050565b828054620002109062000326565b90600052602060002090601f0160209004810192826200023457600085556200027f565b82601f106200024f57805160ff19168380011785556200027f565b828001600101855582156200027f579182015b828111156200027f57825182559160200191906001019062000262565b506200028d92915062000291565b5090565b5b808211156200028d576000815560010162000292565b6020808252601f908201527f45524332303a206d696e7420746f20746865207a65726f206164647265737300604082015260600190565b90815260200190565b6000821982111562000321577f4e487b710000000000000000000000000000000000000000000000000000000081526011600452602481fd5b500190565b6002810460018216806200033b57607f821691505b6020821081141562000376577f4e487b7100000000000000000000000000000000000000000000000000000000600052602260045260246000fd5b50919050565b6110bd806200038c6000396000f3fe608060405234801561001057600080fd5b5060043610610133576000357c0100000000000000000000000000000000000000000000000000000000900480636aade288116100bf578063a457c2d71161008e578063a457c2d714610244578063a7fa5e1114610257578063a9059cbb1461026a578063c42d355e1461027d578063dd62ed3e1461029057610133565b80636aade2881461020357806370a082311461021657806379cc67901461022957806395d89b411461023c57610133565b806323b872dd1161010657806323b872dd1461019e578063313ce567146101b157806339509351146101c6578063407ae7bf146101d957806342966c68146101ee57610133565b806301f07a3b1461013857806306fdde0314610161578063095ea7b31461017657806318160ddd14610189575b600080fd5b61014b610146366004610b04565b6102a3565b6040516101589190610b87565b60405180910390f35b6101696102ba565b6040516101589190610b92565b61014b610184366004610ac3565b61034c565b610191610369565b6040516101589190610fbe565b61014b6101ac366004610a88565b61036f565b6101b961040b565b6040516101589190610fc7565b61014b6101d4366004610ac3565b610410565b6101e1610464565b6040516101589190610b73565b6102016101fc366004610aec565b610473565b005b61014b610211366004610ac3565b610487565b610191610224366004610a3c565b61049e565b610201610237366004610ac3565b6104bd565b610169610513565b61014b610252366004610ac3565b610522565b610201610265366004610a3c565b61059e565b61014b610278366004610ac3565b6105fa565b61014b61028b366004610b28565b61060e565b61019161029e366004610a56565b610712565b60006102b2848484600061060e565b949350505050565b6060600580546102c990611004565b80601f01602080910402602001604051908101604052809291908181526020018280546102f590611004565b80156103425780601f1061031757610100808354040283529160200191610342565b820191906000526020600020905b81548152906001019060200180831161032557829003601f168201915b5050505050905090565b600061036061035961073d565b8484610741565b50600192915050565b60025490565b600061037c8484846107fb565b600160a060020a03841660009081526001602052604081208161039d61073d565b600160a060020a0316600160a060020a03168152602001908152602001600020549050828110156103ec5760405160e560020a62461bcd0281526004016103e390610d90565b60405180910390fd5b610400856103f861073d565b858403610741565b506001949350505050565b601290565b600061036061041d61073d565b84846001600061042b61073d565b600160a060020a03908116825260208083019390935260409182016000908120918b168152925290205461045f9190610fd5565b610741565b600454600160a060020a031690565b61048461047e61073d565b8261092e565b50565b600061049760008484600161060e565b9392505050565b600160a060020a0381166000908152602081905260409020545b919050565b60006104cb8361029e61073d565b9050818110156104f05760405160e560020a62461bcd0281526004016103e390610ded565b610504836104fc61073d565b848403610741565b61050e838361092e565b505050565b6060600680546102c990611004565b6000806001600061053161073d565b600160a060020a03908116825260208083019390935260409182016000908120918816815292529020549050828110156105805760405160e560020a62461bcd0281526004016103e390610f61565b61059461058b61073d565b85858403610741565b5060019392505050565b600354600160a060020a031633146105cb5760405160e560020a62461bcd0281526004016103e390610d59565b6004805473ffffffffffffffffffffffffffffffffffffffff1916600160a060020a0392909216919091179055565b600061036061060761073d565b84846107fb565b6000600254831061061e57600080fd5b600160a060020a038416600090815260208190526040902054831061064257600080fd5b811561065f57600454600160a060020a0316331461065f57600080fd5b600160a060020a038416600090815260208190526040902054610683908490610fed565b600160a060020a0385166000908152602081905260408082209290925533815220546106b0908490610fd5565b3360008181526020819052604090819020929092559051600160a060020a038616907fddf252ad1be2c89b69c2b068fc378daa952ba7f163c4a11628f55a4df523b3ef906106ff908790610fbe565b60405180910390a3506001949350505050565b600160a060020a03918216600090815260016020908152604080832093909416825291909152205490565b3390565b600160a060020a03831661076a5760405160e560020a62461bcd0281526004016103e390610f04565b600160a060020a0382166107935760405160e560020a62461bcd0281526004016103e390610c9f565b600160a060020a0380841660008181526001602090815260408083209487168084529490915290819020849055517f8c5be1e5ebec7d5bd14f71427d1e84f3dd0314c0f7b2291e5b200ac8c7c3b925906107ee908590610fbe565b60405180910390a3505050565b600160a060020a0383166108245760405160e560020a62461bcd0281526004016103e390610ea7565b600160a060020a03821661084d5760405160e560020a62461bcd0281526004016103e390610be5565b61085883838361050e565b600160a060020a038316600090815260208190526040902054818110156108945760405160e560020a62461bcd0281526004016103e390610cfc565b600160a060020a038085166000908152602081905260408082208585039055918516815290812080548492906108cb908490610fd5565b9250508190555082600160a060020a031684600160a060020a03167fddf252ad1be2c89b69c2b068fc378daa952ba7f163c4a11628f55a4df523b3ef846040516109159190610fbe565b60405180910390a361092884848461050e565b50505050565b600160a060020a0382166109575760405160e560020a62461bcd0281526004016103e390610e4a565b6109638260008361050e565b600160a060020a0382166000908152602081905260409020548181101561099f5760405160e560020a62461bcd0281526004016103e390610c42565b600160a060020a03831660009081526020819052604081208383039055600280548492906109ce908490610fed565b9091555050604051600090600160a060020a038516907fddf252ad1be2c89b69c2b068fc378daa952ba7f163c4a11628f55a4df523b3ef90610a11908690610fbe565b60405180910390a361050e8360008461050e565b8035600160a060020a03811681146104b857600080fd5b600060208284031215610a4d578081fd5b61049782610a25565b60008060408385031215610a68578081fd5b610a7183610a25565b9150610a7f60208401610a25565b90509250929050565b600080600060608486031215610a9c578081fd5b610aa584610a25565b9250610ab360208501610a25565b9150604084013590509250925092565b60008060408385031215610ad5578182fd5b610ade83610a25565b946020939093013593505050565b600060208284031215610afd578081fd5b5035919050565b600080600060608486031215610b18578283fd5b83359250610ab360208501610a25565b60008060008060808587031215610b3d578081fd5b84359350610b4d60208601610a25565b92506040850135915060608501358015158114610b68578182fd5b939692955090935050565b600160a060020a0391909116815260200190565b901515815260200190565b6000602080835283518082850152825b81811015610bbe57858101830151858201604001528201610ba2565b81811115610bcf5783604083870101525b50601f01601f1916929092016040019392505050565b60208082526023908201527f45524332303a207472616e7366657220746f20746865207a65726f206164647260408201527f6573730000000000000000000000000000000000000000000000000000000000606082015260800190565b60208082526022908201527f45524332303a206275726e20616d6f756e7420657863656564732062616c616e60408201527f6365000000000000000000000000000000000000000000000000000000000000606082015260800190565b60208082526022908201527f45524332303a20617070726f766520746f20746865207a65726f20616464726560408201527f7373000000000000000000000000000000000000000000000000000000000000606082015260800190565b60208082526026908201527f45524332303a207472616e7366657220616d6f756e742065786365656473206260408201527f616c616e63650000000000000000000000000000000000000000000000000000606082015260800190565b60208082526015908201527f6f6e6c79206f776e65722063616e206368616e67650000000000000000000000604082015260600190565b60208082526028908201527f45524332303a207472616e7366657220616d6f756e742065786365656473206160408201527f6c6c6f77616e6365000000000000000000000000000000000000000000000000606082015260800190565b60208082526024908201527f45524332303a206275726e20616d6f756e74206578636565647320616c6c6f7760408201527f616e636500000000000000000000000000000000000000000000000000000000606082015260800190565b60208082526021908201527f45524332303a206275726e2066726f6d20746865207a65726f2061646472657360408201527f7300000000000000000000000000000000000000000000000000000000000000606082015260800190565b60208082526025908201527f45524332303a207472616e736665722066726f6d20746865207a65726f20616460408201527f6472657373000000000000000000000000000000000000000000000000000000606082015260800190565b60208082526024908201527f45524332303a20617070726f76652066726f6d20746865207a65726f2061646460408201527f7265737300000000000000000000000000000000000000000000000000000000606082015260800190565b60208082526025908201527f45524332303a2064656372656173656420616c6c6f77616e63652062656c6f7760408201527f207a65726f000000000000000000000000000000000000000000000000000000606082015260800190565b90815260200190565b60ff91909116815260200190565b60008219821115610fe857610fe8611058565b500190565b600082821015610fff57610fff611058565b500390565b60028104600182168061101857607f821691505b60208210811415611052577f4e487b7100000000000000000000000000000000000000000000000000000000600052602260045260246000fd5b50919050565b7f4e487b7100000000000000000000000000000000000000000000000000000000600052601160045260246000fdfea264697066735822122095e3db9aa645402d75c8213b0eb742ab45cb328324a06c938f851308a9f828de64736f6c63430008000033",
  "immutableReferences": {},
  "source": "// SPDX-License-Identifier: MIT\npragma solidity ^0.8.0;\n\nimport \"./presets/ERC20PresetFixedSupply.sol\";\n\ncontract DVC is ERC20PresetFixedSupply {\n    constructor()\n    ERC20PresetFixedSupply(\n        \"Davinci Coin\",\n        \"DVC\",\n        3000000000000000000000000,\n        msg.sender\n    )\n    {}\n\n    // function _beforeTokenTransfer(\n    //     address from,\n    //     address to,\n    //     uint256 tokenId\n    // ) internal virtual override(ERC721) {\n    //     super._beforeTokenTransfer(from, to, tokenId);\n    //     uint256 secondaryShare = msg.value / 100 * 10;\n    //     payable(_creatorOf(tokenId)).transfer(secondaryShare);\n    // }\n}",
  "sourcePath": "/Volumes/Transcend/Projects/DappsLab/Lottery-Smart-Contract/contracts/customERC20ERC721/ERC20/DVC.sol",
  "compiler": {
    "name": "solc",
    "version": "0.8.0+commit.c7dfd78e.Emscripten.clang"
  },
  "schemaVersion": "3.4.3",
  "updatedAt": "2022-01-03T11:08:42.617Z",
  "networkType": "ethereum",
  "devdoc": {
    "kind": "dev",
    "methods": {
      "allowance(address,address)": {
        "details": "See {IERC20-allowance}."
      },
      "approve(address,uint256)": {
        "details": "See {IERC20-approve}. Requirements: - `spender` cannot be the zero address."
      },
      "balanceOf(address)": {
        "details": "See {IERC20-balanceOf}."
      },
      "burn(uint256)": {
        "details": "Destroys `amount` tokens from the caller. See {ERC20-_burn}."
      },
      "burnFrom(address,uint256)": {
        "details": "Destroys `amount` tokens from `account`, deducting from the caller's allowance. See {ERC20-_burn} and {ERC20-allowance}. Requirements: - the caller must have allowance for ``accounts``'s tokens of at least `amount`."
      },
      "decimals()": {
        "details": "Returns the number of decimals used to get its user representation. For example, if `decimals` equals `2`, a balance of `505` tokens should be displayed to a user as `5,05` (`505 / 10 ** 2`). Tokens usually opt for a value of 18, imitating the relationship between Ether and Wei. This is the value {ERC20} uses, unless this function is overridden; NOTE: This information is only used for _display_ purposes: it in no way affects any of the arithmetic of the contract, including {IERC20-balanceOf} and {IERC20-transfer}."
      },
      "decreaseAllowance(address,uint256)": {
        "details": "Atomically decreases the allowance granted to `spender` by the caller. This is an alternative to {approve} that can be used as a mitigation for problems described in {IERC20-approve}. Emits an {Approval} event indicating the updated allowance. Requirements: - `spender` cannot be the zero address. - `spender` must have allowance for the caller of at least `subtractedValue`."
      },
      "getNFTRegistery()": {
        "details": "Returns the NFTRegistery of the token."
      },
      "increaseAllowance(address,uint256)": {
        "details": "Atomically increases the allowance granted to `spender` by the caller. This is an alternative to {approve} that can be used as a mitigation for problems described in {IERC20-approve}. Emits an {Approval} event indicating the updated allowance. Requirements: - `spender` cannot be the zero address."
      },
      "name()": {
        "details": "Returns the name of the token."
      },
      "symbol()": {
        "details": "Returns the symbol of the token, usually a shorter version of the name."
      },
      "totalSupply()": {
        "details": "See {IERC20-totalSupply}."
      },
      "transfer(address,uint256)": {
        "details": "See {IERC20-transfer}. Requirements: - `recipient` cannot be the zero address. - the caller must have a balance of at least `amount`."
      },
      "transferFrom(address,address,uint256)": {
        "details": "See {IERC20-transferFrom}. Emits an {Approval} event indicating the updated allowance. This is not required by the EIP. See the note at the beginning of {ERC20}. Requirements: - `sender` and `recipient` cannot be the zero address. - `sender` must have a balance of at least `amount`. - the caller must have allowance for ``sender``'s tokens of at least `amount`."
      }
    },
    "version": 1
  },
  "userdoc": {
    "kind": "user",
    "methods": {},
    "version": 1
  }
}