{
  "contractName": "DVT",
  "abi": [
    {
      "inputs": [],
      "stateMutability": "nonpayable",
      "type": "constructor"
    },
    {
      "anonymous": false,
      "inputs": [
        {
          "indexed": true,
          "internalType": "address",
          "name": "owner",
          "type": "address"
        },
        {
          "indexed": true,
          "internalType": "address",
          "name": "approved",
          "type": "address"
        },
        {
          "indexed": true,
          "internalType": "uint256",
          "name": "tokenId",
          "type": "uint256"
        }
      ],
      "name": "Approval",
      "type": "event"
    },
    {
      "anonymous": false,
      "inputs": [
        {
          "indexed": true,
          "internalType": "address",
          "name": "owner",
          "type": "address"
        },
        {
          "indexed": true,
          "internalType": "address",
          "name": "operator",
          "type": "address"
        },
        {
          "indexed": false,
          "internalType": "bool",
          "name": "approved",
          "type": "bool"
        }
      ],
      "name": "ApprovalForAll",
      "type": "event"
    },
    {
      "anonymous": false,
      "inputs": [
        {
          "indexed": false,
          "internalType": "address",
          "name": "account",
          "type": "address"
        }
      ],
      "name": "Paused",
      "type": "event"
    },
    {
      "anonymous": false,
      "inputs": [
        {
          "indexed": true,
          "internalType": "bytes32",
          "name": "role",
          "type": "bytes32"
        },
        {
          "indexed": true,
          "internalType": "bytes32",
          "name": "previousAdminRole",
          "type": "bytes32"
        },
        {
          "indexed": true,
          "internalType": "bytes32",
          "name": "newAdminRole",
          "type": "bytes32"
        }
      ],
      "name": "RoleAdminChanged",
      "type": "event"
    },
    {
      "anonymous": false,
      "inputs": [
        {
          "indexed": true,
          "internalType": "bytes32",
          "name": "role",
          "type": "bytes32"
        },
        {
          "indexed": true,
          "internalType": "address",
          "name": "account",
          "type": "address"
        },
        {
          "indexed": true,
          "internalType": "address",
          "name": "sender",
          "type": "address"
        }
      ],
      "name": "RoleGranted",
      "type": "event"
    },
    {
      "anonymous": false,
      "inputs": [
        {
          "indexed": true,
          "internalType": "bytes32",
          "name": "role",
          "type": "bytes32"
        },
        {
          "indexed": true,
          "internalType": "address",
          "name": "account",
          "type": "address"
        },
        {
          "indexed": true,
          "internalType": "address",
          "name": "sender",
          "type": "address"
        }
      ],
      "name": "RoleRevoked",
      "type": "event"
    },
    {
      "anonymous": false,
      "inputs": [
        {
          "indexed": true,
          "internalType": "address",
          "name": "from",
          "type": "address"
        },
        {
          "indexed": true,
          "internalType": "address",
          "name": "to",
          "type": "address"
        },
        {
          "indexed": true,
          "internalType": "uint256",
          "name": "tokenId",
          "type": "uint256"
        }
      ],
      "name": "Transfer",
      "type": "event"
    },
    {
      "anonymous": false,
      "inputs": [
        {
          "indexed": false,
          "internalType": "address",
          "name": "account",
          "type": "address"
        }
      ],
      "name": "Unpaused",
      "type": "event"
    },
    {
      "inputs": [],
      "name": "DEFAULT_ADMIN_ROLE",
      "outputs": [
        {
          "internalType": "bytes32",
          "name": "",
          "type": "bytes32"
        }
      ],
      "stateMutability": "view",
      "type": "function"
    },
    {
      "inputs": [],
      "name": "MINTER_ROLE",
      "outputs": [
        {
          "internalType": "bytes32",
          "name": "",
          "type": "bytes32"
        }
      ],
      "stateMutability": "view",
      "type": "function"
    },
    {
      "inputs": [],
      "name": "PAUSER_ROLE",
      "outputs": [
        {
          "internalType": "bytes32",
          "name": "",
          "type": "bytes32"
        }
      ],
      "stateMutability": "view",
      "type": "function"
    },
    {
      "inputs": [
        {
          "internalType": "uint256",
          "name": "",
          "type": "uint256"
        }
      ],
      "name": "_creator",
      "outputs": [
        {
          "internalType": "address",
          "name": "",
          "type": "address"
        }
      ],
      "stateMutability": "view",
      "type": "function"
    },
    {
      "inputs": [],
      "name": "_creatorCommission",
      "outputs": [
        {
          "internalType": "uint256",
          "name": "",
          "type": "uint256"
        }
      ],
      "stateMutability": "view",
      "type": "function"
    },
    {
      "inputs": [
        {
          "internalType": "uint256",
          "name": "",
          "type": "uint256"
        }
      ],
      "name": "_owners",
      "outputs": [
        {
          "internalType": "address",
          "name": "",
          "type": "address"
        }
      ],
      "stateMutability": "view",
      "type": "function"
    },
    {
      "inputs": [],
      "name": "_platformCommission",
      "outputs": [
        {
          "internalType": "uint256",
          "name": "",
          "type": "uint256"
        }
      ],
      "stateMutability": "view",
      "type": "function"
    },
    {
      "inputs": [
        {
          "internalType": "uint256",
          "name": "",
          "type": "uint256"
        }
      ],
      "name": "_sellPrice",
      "outputs": [
        {
          "internalType": "uint256",
          "name": "",
          "type": "uint256"
        }
      ],
      "stateMutability": "view",
      "type": "function"
    },
    {
      "inputs": [
        {
          "internalType": "uint256",
          "name": "",
          "type": "uint256"
        }
      ],
      "name": "_sellingNFTs",
      "outputs": [
        {
          "internalType": "uint256",
          "name": "",
          "type": "uint256"
        }
      ],
      "stateMutability": "view",
      "type": "function"
    },
    {
      "inputs": [
        {
          "internalType": "uint256",
          "name": "",
          "type": "uint256"
        }
      ],
      "name": "_sellingNFTsIndexes",
      "outputs": [
        {
          "internalType": "uint256",
          "name": "",
          "type": "uint256"
        }
      ],
      "stateMutability": "view",
      "type": "function"
    },
    {
      "inputs": [
        {
          "internalType": "uint256",
          "name": "tokenId",
          "type": "uint256"
        },
        {
          "internalType": "address",
          "name": "to",
          "type": "address"
        }
      ],
      "name": "_spend",
      "outputs": [
        {
          "internalType": "bool",
          "name": "",
          "type": "bool"
        }
      ],
      "stateMutability": "nonpayable",
      "type": "function"
    },
    {
      "inputs": [
        {
          "internalType": "address",
          "name": "to",
          "type": "address"
        },
        {
          "internalType": "uint256",
          "name": "tokenId",
          "type": "uint256"
        }
      ],
      "name": "approve",
      "outputs": [],
      "stateMutability": "nonpayable",
      "type": "function"
    },
    {
      "inputs": [
        {
          "internalType": "address",
          "name": "owner",
          "type": "address"
        }
      ],
      "name": "balanceOf",
      "outputs": [
        {
          "internalType": "uint256",
          "name": "",
          "type": "uint256"
        }
      ],
      "stateMutability": "view",
      "type": "function"
    },
    {
      "inputs": [
        {
          "internalType": "uint256",
          "name": "tokenId",
          "type": "uint256"
        }
      ],
      "name": "burn",
      "outputs": [],
      "stateMutability": "nonpayable",
      "type": "function"
    },
    {
      "inputs": [
        {
          "internalType": "uint256",
          "name": "tokenId",
          "type": "uint256"
        }
      ],
      "name": "buyNFT",
      "outputs": [
        {
          "internalType": "bool",
          "name": "",
          "type": "bool"
        }
      ],
      "stateMutability": "payable",
      "type": "function"
    },
    {
      "inputs": [
        {
          "internalType": "uint256",
          "name": "tokenId",
          "type": "uint256"
        }
      ],
      "name": "cancelSellingNFT",
      "outputs": [
        {
          "internalType": "bool",
          "name": "",
          "type": "bool"
        }
      ],
      "stateMutability": "nonpayable",
      "type": "function"
    },
    {
      "inputs": [
        {
          "internalType": "uint256",
          "name": "tokenId",
          "type": "uint256"
        }
      ],
      "name": "deleteAuctionContract",
      "outputs": [],
      "stateMutability": "nonpayable",
      "type": "function"
    },
    {
      "inputs": [
        {
          "internalType": "uint256",
          "name": "tokenId",
          "type": "uint256"
        }
      ],
      "name": "getApproved",
      "outputs": [
        {
          "internalType": "address",
          "name": "",
          "type": "address"
        }
      ],
      "stateMutability": "view",
      "type": "function"
    },
    {
      "inputs": [
        {
          "internalType": "uint256",
          "name": "tokenId",
          "type": "uint256"
        }
      ],
      "name": "getAuctionContract",
      "outputs": [
        {
          "internalType": "contract Auction",
          "name": "",
          "type": "address"
        }
      ],
      "stateMutability": "view",
      "type": "function"
    },
    {
      "inputs": [
        {
          "internalType": "uint256",
          "name": "tokenId",
          "type": "uint256"
        }
      ],
      "name": "getCreator",
      "outputs": [
        {
          "internalType": "address",
          "name": "",
          "type": "address"
        }
      ],
      "stateMutability": "view",
      "type": "function"
    },
    {
      "inputs": [],
      "name": "getCreatorCommission",
      "outputs": [
        {
          "internalType": "uint256",
          "name": "",
          "type": "uint256"
        }
      ],
      "stateMutability": "view",
      "type": "function"
    },
    {
      "inputs": [],
      "name": "getPlatformCommission",
      "outputs": [
        {
          "internalType": "uint256",
          "name": "",
          "type": "uint256"
        }
      ],
      "stateMutability": "view",
      "type": "function"
    },
    {
      "inputs": [
        {
          "internalType": "bytes32",
          "name": "role",
          "type": "bytes32"
        }
      ],
      "name": "getRoleAdmin",
      "outputs": [
        {
          "internalType": "bytes32",
          "name": "",
          "type": "bytes32"
        }
      ],
      "stateMutability": "view",
      "type": "function"
    },
    {
      "inputs": [
        {
          "internalType": "bytes32",
          "name": "role",
          "type": "bytes32"
        },
        {
          "internalType": "uint256",
          "name": "index",
          "type": "uint256"
        }
      ],
      "name": "getRoleMember",
      "outputs": [
        {
          "internalType": "address",
          "name": "",
          "type": "address"
        }
      ],
      "stateMutability": "view",
      "type": "function"
    },
    {
      "inputs": [
        {
          "internalType": "bytes32",
          "name": "role",
          "type": "bytes32"
        }
      ],
      "name": "getRoleMemberCount",
      "outputs": [
        {
          "internalType": "uint256",
          "name": "",
          "type": "uint256"
        }
      ],
      "stateMutability": "view",
      "type": "function"
    },
    {
      "inputs": [
        {
          "internalType": "uint256",
          "name": "tokenId",
          "type": "uint256"
        }
      ],
      "name": "getSellPrice",
      "outputs": [
        {
          "internalType": "uint256",
          "name": "",
          "type": "uint256"
        }
      ],
      "stateMutability": "view",
      "type": "function"
    },
    {
      "inputs": [],
      "name": "getSellingNFTs",
      "outputs": [
        {
          "internalType": "uint256[]",
          "name": "",
          "type": "uint256[]"
        }
      ],
      "stateMutability": "view",
      "type": "function"
    },
    {
      "inputs": [],
      "name": "getToken",
      "outputs": [
        {
          "internalType": "contract ERC20",
          "name": "",
          "type": "address"
        }
      ],
      "stateMutability": "view",
      "type": "function"
    },
    {
      "inputs": [
        {
          "internalType": "bytes32",
          "name": "role",
          "type": "bytes32"
        },
        {
          "internalType": "address",
          "name": "account",
          "type": "address"
        }
      ],
      "name": "grantRole",
      "outputs": [],
      "stateMutability": "nonpayable",
      "type": "function"
    },
    {
      "inputs": [
        {
          "internalType": "bytes32",
          "name": "role",
          "type": "bytes32"
        },
        {
          "internalType": "address",
          "name": "account",
          "type": "address"
        }
      ],
      "name": "hasRole",
      "outputs": [
        {
          "internalType": "bool",
          "name": "",
          "type": "bool"
        }
      ],
      "stateMutability": "view",
      "type": "function"
    },
    {
      "inputs": [
        {
          "internalType": "address",
          "name": "owner",
          "type": "address"
        },
        {
          "internalType": "address",
          "name": "operator",
          "type": "address"
        }
      ],
      "name": "isApprovedForAll",
      "outputs": [
        {
          "internalType": "bool",
          "name": "",
          "type": "bool"
        }
      ],
      "stateMutability": "view",
      "type": "function"
    },
    {
      "inputs": [
        {
          "internalType": "address",
          "name": "to",
          "type": "address"
        }
      ],
      "name": "mint",
      "outputs": [],
      "stateMutability": "nonpayable",
      "type": "function"
    },
    {
      "inputs": [
        {
          "internalType": "address",
          "name": "to",
          "type": "address"
        },
        {
          "internalType": "uint256",
          "name": "amount",
          "type": "uint256"
        }
      ],
      "name": "multiMint",
      "outputs": [],
      "stateMutability": "nonpayable",
      "type": "function"
    },
    {
      "inputs": [],
      "name": "name",
      "outputs": [
        {
          "internalType": "string",
          "name": "",
          "type": "string"
        }
      ],
      "stateMutability": "view",
      "type": "function"
    },
    {
      "inputs": [
        {
          "internalType": "uint256",
          "name": "tokenId",
          "type": "uint256"
        }
      ],
      "name": "ownerOf",
      "outputs": [
        {
          "internalType": "address",
          "name": "",
          "type": "address"
        }
      ],
      "stateMutability": "view",
      "type": "function"
    },
    {
      "inputs": [],
      "name": "pause",
      "outputs": [],
      "stateMutability": "nonpayable",
      "type": "function"
    },
    {
      "inputs": [],
      "name": "paused",
      "outputs": [
        {
          "internalType": "bool",
          "name": "",
          "type": "bool"
        }
      ],
      "stateMutability": "view",
      "type": "function"
    },
    {
      "inputs": [],
      "name": "platformAddress",
      "outputs": [
        {
          "internalType": "address",
          "name": "",
          "type": "address"
        }
      ],
      "stateMutability": "view",
      "type": "function"
    },
    {
      "inputs": [
        {
          "internalType": "bytes32",
          "name": "role",
          "type": "bytes32"
        },
        {
          "internalType": "address",
          "name": "account",
          "type": "address"
        }
      ],
      "name": "renounceRole",
      "outputs": [],
      "stateMutability": "nonpayable",
      "type": "function"
    },
    {
      "inputs": [
        {
          "internalType": "bytes32",
          "name": "role",
          "type": "bytes32"
        },
        {
          "internalType": "address",
          "name": "account",
          "type": "address"
        }
      ],
      "name": "revokeRole",
      "outputs": [],
      "stateMutability": "nonpayable",
      "type": "function"
    },
    {
      "inputs": [
        {
          "internalType": "address",
          "name": "to",
          "type": "address"
        }
      ],
      "name": "safeMint",
      "outputs": [],
      "stateMutability": "nonpayable",
      "type": "function"
    },
    {
      "inputs": [
        {
          "internalType": "address",
          "name": "from",
          "type": "address"
        },
        {
          "internalType": "address",
          "name": "to",
          "type": "address"
        },
        {
          "internalType": "uint256",
          "name": "tokenId",
          "type": "uint256"
        }
      ],
      "name": "safeTransferFrom",
      "outputs": [],
      "stateMutability": "nonpayable",
      "type": "function"
    },
    {
      "inputs": [
        {
          "internalType": "address",
          "name": "from",
          "type": "address"
        },
        {
          "internalType": "address",
          "name": "to",
          "type": "address"
        },
        {
          "internalType": "uint256",
          "name": "tokenId",
          "type": "uint256"
        },
        {
          "internalType": "bytes",
          "name": "_data",
          "type": "bytes"
        }
      ],
      "name": "safeTransferFrom",
      "outputs": [],
      "stateMutability": "nonpayable",
      "type": "function"
    },
    {
      "inputs": [
        {
          "internalType": "address",
          "name": "operator",
          "type": "address"
        },
        {
          "internalType": "bool",
          "name": "approved",
          "type": "bool"
        }
      ],
      "name": "setApprovalForAll",
      "outputs": [],
      "stateMutability": "nonpayable",
      "type": "function"
    },
    {
      "inputs": [
        {
          "internalType": "address",
          "name": "addr",
          "type": "address"
        }
      ],
      "name": "setPlatformAdddress",
      "outputs": [],
      "stateMutability": "nonpayable",
      "type": "function"
    },
    {
      "inputs": [
        {
          "internalType": "address",
          "name": "tokenAddress",
          "type": "address"
        }
      ],
      "name": "setToken",
      "outputs": [],
      "stateMutability": "nonpayable",
      "type": "function"
    },
    {
      "inputs": [
        {
          "internalType": "uint256",
          "name": "tokenId",
          "type": "uint256"
        },
        {
          "internalType": "uint256",
          "name": "time",
          "type": "uint256"
        },
        {
          "internalType": "uint256",
          "name": "minPrice",
          "type": "uint256"
        }
      ],
      "name": "startAuction",
      "outputs": [],
      "stateMutability": "nonpayable",
      "type": "function"
    },
    {
      "inputs": [
        {
          "internalType": "uint256",
          "name": "tokenId",
          "type": "uint256"
        },
        {
          "internalType": "uint256",
          "name": "price",
          "type": "uint256"
        }
      ],
      "name": "startSellingNFT",
      "outputs": [
        {
          "internalType": "bool",
          "name": "",
          "type": "bool"
        }
      ],
      "stateMutability": "nonpayable",
      "type": "function"
    },
    {
      "inputs": [
        {
          "internalType": "bytes4",
          "name": "interfaceId",
          "type": "bytes4"
        }
      ],
      "name": "supportsInterface",
      "outputs": [
        {
          "internalType": "bool",
          "name": "",
          "type": "bool"
        }
      ],
      "stateMutability": "view",
      "type": "function"
    },
    {
      "inputs": [],
      "name": "symbol",
      "outputs": [
        {
          "internalType": "string",
          "name": "",
          "type": "string"
        }
      ],
      "stateMutability": "view",
      "type": "function"
    },
    {
      "inputs": [
        {
          "internalType": "uint256",
          "name": "index",
          "type": "uint256"
        }
      ],
      "name": "tokenByIndex",
      "outputs": [
        {
          "internalType": "uint256",
          "name": "",
          "type": "uint256"
        }
      ],
      "stateMutability": "view",
      "type": "function"
    },
    {
      "inputs": [
        {
          "internalType": "address",
          "name": "owner",
          "type": "address"
        },
        {
          "internalType": "uint256",
          "name": "index",
          "type": "uint256"
        }
      ],
      "name": "tokenOfOwnerByIndex",
      "outputs": [
        {
          "internalType": "uint256",
          "name": "",
          "type": "uint256"
        }
      ],
      "stateMutability": "view",
      "type": "function"
    },
    {
      "inputs": [
        {
          "internalType": "uint256",
          "name": "tokenId",
          "type": "uint256"
        }
      ],
      "name": "tokenURI",
      "outputs": [
        {
          "internalType": "string",
          "name": "",
          "type": "string"
        }
      ],
      "stateMutability": "view",
      "type": "function"
    },
    {
      "inputs": [],
      "name": "totalSupply",
      "outputs": [
        {
          "internalType": "uint256",
          "name": "",
          "type": "uint256"
        }
      ],
      "stateMutability": "view",
      "type": "function"
    },
    {
      "inputs": [
        {
          "internalType": "address",
          "name": "from",
          "type": "address"
        },
        {
          "internalType": "address",
          "name": "to",
          "type": "address"
        },
        {
          "internalType": "uint256",
          "name": "tokenId",
          "type": "uint256"
        }
      ],
      "name": "transferFrom",
      "outputs": [],
      "stateMutability": "nonpayable",
      "type": "function"
    },
    {
      "inputs": [],
      "name": "unpause",
      "outputs": [],
      "stateMutability": "nonpayable",
      "type": "function"
    }
  ],
  "bytecode": "0x6080604052600560065560026007553480156200001b57600080fd5b506040518060400160405280600d81526020017f446176696e636920546f6b656e000000000000000000000000000000000000008152506040518060400160405280600381526020017f44565400000000000000000000000000000000000000000000000000000000008152506040518060400160405280601e81526020017f68747470733a2f2f646176696e63692e636f6d2f6170692f746f6b656e2f000081525082828160039080519060200190620000d892919062000386565b508051620000ee90600490602084019062000386565b505060058054600160a060020a03191633179055506016805460ff1916905580516200012290601890602084019062000386565b506200014b60006200013c640100000000620001c4810204565b640100000000620001c8810204565b620001837f9f2df0fed2c77648de5860a4cc508cd0818c85b8b8a1ab4ceeef8d981c8956a66200013c640100000000620001c4810204565b620001bb7f65d7a28e3265b37a6474929f336521b332c1681b933f6cb9f3376673440d862a6200013c640100000000620001c4810204565b50505062000482565b3390565b620001e2828264010000000062001ea66200020f82021704565b60008281526001602052604090206200020a908264010000000062001eb66200022882021704565b505050565b62000224828264010000000062000251810204565b5050565b60006200024883600160a060020a038416640100000000620002ed810204565b90505b92915050565b62000266828264010000000062000345810204565b6200022457600082815260208181526040808320600160a060020a03851684529091529020805460ff19166001179055620002a9640100000000620001c4810204565b600160a060020a031681600160a060020a0316837f2f8788117e7eff1d82e926ec794901d17c78024a50270940304540a733656f0d60405160405180910390a45050565b60006200030483836401000000006200036e810204565b6200033c575081546001818101845560008481526020808220909301849055845484825282860190935260409020919091556200024b565b5060006200024b565b600091825260208281526040808420600160a060020a0393909316845291905290205460ff1690565b60009081526001919091016020526040902054151590565b82805462000394906200042c565b90600052602060002090601f016020900481019282620003b8576000855562000403565b82601f10620003d357805160ff191683800117855562000403565b8280016001018555821562000403579182015b8281111562000403578251825591602001919060010190620003e6565b506200041192915062000415565b5090565b5b8082111562000411576000815560010162000416565b6002810460018216806200044157607f821691505b602082108114156200047c577f4e487b7100000000000000000000000000000000000000000000000000000000600052602260045260246000fd5b50919050565b615a5a80620004926000396000f3fe608060405260043610620003c65760003560e060020a9004806370a0823111620001f7578063ba730e531162000113578063d55a9fe411620000a7578063e63ab1e9116200007d578063e63ab1e91462000aee578063e985e9c51462000b06578063ef767a691462000b2b578063f44353661462000b4357620003c6565b8063d55a9fe41462000a99578063dbe55e561462000ab1578063e506dfbe1462000ac957620003c6565b8063ca15c87311620000e9578063ca15c8731462000a12578063d48e638a1462000a37578063d53913931462000a5c578063d547741f1462000a7457620003c6565b8063ba730e5314620009a3578063c494b08214620009c8578063c87b56dd14620009ed57620003c6565b80639564470e116200018b578063992924a61162000161578063992924a6146200091c578063a217fddf1462000941578063a22cb4651462000959578063b88d4fde146200097e57620003c6565b80639564470e14620008ba57806395d89b4114620008df57806396e392d314620008f757620003c6565b80638456cb5911620001cd5780638456cb5914620008335780639010d07c146200084b57806391d14854146200087057806391e078bb146200089557620003c6565b806370a0823114620007c25780637211a20a14620007e757806380cf4dad146200080e57620003c6565b80632f745c5911620002e757806342966c68116200027b5780635c975abb11620002515780635c975abb146200073b5780636352211e14620007535780636a62784214620007785780636d3d6028146200079d57620003c6565b806342966c6814620006da5780634f6ccce714620006ff57806351ed8288146200072457620003c6565b80633f4ba83a11620002bd5780633f4ba83a146200065357806340d097c3146200066b57806341787197146200069057806342842e0e14620006b557620003c6565b80632f745c5914620005e4578063339d29a2146200060957806336568abe146200062e57620003c6565b806323b872dd116200035f5780632649d62e11620003355780632649d62e14620005505780632838324b146200057557806329e02e70146200059a5780632f2ff15d14620005bf57620003c6565b806323b872dd14620004ee578063248a9ca3146200051357806325a902fb146200053857620003c6565b8063095ea7b311620003a1578063095ea7b31462000463578063144fa6d7146200048a57806318160ddd14620004af57806321df0da714620004d657620003c6565b806301ffc9a714620003cb57806306fdde031462000408578063081812fc146200042f575b600080fd5b348015620003d857600080fd5b50620003f0620003ea36600462003567565b62000b5b565b604051620003ff919062003794565b60405180910390f35b3480156200041557600080fd5b506200042062000b70565b604051620003ff9190620037a8565b3480156200043c57600080fd5b50620004546200044e36600462003507565b62000c0a565b604051620003ff9190620036e3565b3480156200047057600080fd5b506200048862000482366004620034bc565b62000c5e565b005b3480156200049757600080fd5b5062000488620004a936600462003313565b62000d0c565b348015620004bc57600080fd5b50620004c762000d5e565b604051620003ff91906200379f565b348015620004e357600080fd5b506200045462000d64565b348015620004fb57600080fd5b50620004886200050d36600462003367565b62000d73565b3480156200052057600080fd5b50620004c76200053236600462003507565b62000db7565b3480156200054557600080fd5b50620004c762000dcc565b3480156200055d57600080fd5b50620004886200056f366004620034bc565b62000dd2565b3480156200058257600080fd5b50620004c76200059436600462003507565b62000e16565b348015620005a757600080fd5b5062000454620005b936600462003507565b62000e28565b348015620005cc57600080fd5b5062000488620005de36600462003520565b62000e43565b348015620005f157600080fd5b50620004c762000603366004620034bc565b62000e69565b3480156200061657600080fd5b50620004886200062836600462003313565b62000ec6565b3480156200063b57600080fd5b50620004886200064d36600462003520565b62000f18565b3480156200066057600080fd5b506200048862000f3e565b3480156200067857600080fd5b50620004886200068a36600462003313565b62000f9b565b3480156200069d57600080fd5b50620004c7620006af36600462003507565b6200100c565b348015620006c257600080fd5b5062000488620006d436600462003367565b6200101e565b348015620006e757600080fd5b5062000488620006f936600462003507565b6200103b565b3480156200070c57600080fd5b50620004c76200071e36600462003507565b62001076565b620003f06200073536600462003507565b620010dd565b3480156200074857600080fd5b50620003f062001646565b3480156200076057600080fd5b50620004546200077236600462003507565b6200164f565b3480156200078557600080fd5b50620004886200079736600462003313565b62000fec565b348015620007aa57600080fd5b50620003f0620007bc36600462003545565b6200168a565b348015620007cf57600080fd5b50620004c7620007e136600462003313565b62001788565b348015620007f457600080fd5b50620007ff620017d2565b604051620003ff91906200374e565b3480156200081b57600080fd5b50620004c76200082d36600462003507565b6200182b565b3480156200084057600080fd5b50620004886200184d565b3480156200085857600080fd5b50620004546200086a36600462003545565b620018a8565b3480156200087d57600080fd5b50620003f06200088f36600462003520565b620018c9565b348015620008a257600080fd5b5062000488620008b4366004620035d1565b620018f2565b348015620008c757600080fd5b50620003f0620008d9366004620035be565b62001a9c565b348015620008ec57600080fd5b506200042062001ab4565b3480156200090457600080fd5b50620004886200091636600462003507565b62001ac5565b3480156200092957600080fd5b50620004546200093b36600462003507565b62001b1f565b3480156200094e57600080fd5b50620004c762001b3a565b3480156200096657600080fd5b50620004886200097836600462003481565b62001b3f565b3480156200098b57600080fd5b50620004886200099d366004620033a7565b62001c1b565b348015620009b057600080fd5b50620004c7620009c236600462003507565b62001c66565b348015620009d557600080fd5b50620003f0620009e736600462003507565b62001c78565b348015620009fa57600080fd5b506200042062000a0c36600462003507565b62001d22565b34801562000a1f57600080fd5b50620004c762000a3136600462003507565b62001db4565b34801562000a4457600080fd5b506200045462000a5636600462003507565b62001dcd565b34801562000a6957600080fd5b50620004c762001de8565b34801562000a8157600080fd5b506200048862000a9336600462003520565b62001e0c565b34801562000aa657600080fd5b50620004c762001e18565b34801562000abe57600080fd5b506200045462001e1e565b34801562000ad657600080fd5b506200045462000ae836600462003507565b62001e2d565b34801562000afb57600080fd5b50620004c762001e48565b34801562000b1357600080fd5b50620003f062000b2536600462003330565b62001e6c565b34801562000b3857600080fd5b50620004c762001e9a565b34801562000b5057600080fd5b50620004c762001ea0565b600062000b688262001ecd565b90505b919050565b60606003805462000b81906200436e565b80601f016020809104026020016040519081016040528092919081815260200182805462000baf906200436e565b801562000c005780601f1062000bd45761010080835404028352916020019162000c00565b820191906000526020600020905b81548152906001019060200180831162000be257829003601f168201915b5050505050905090565b600062000c178262001f0e565b62000c425760405160e560020a62461bcd02815260040162000c399062003dfe565b60405180910390fd5b506000908152600c6020526040902054600160a060020a031690565b600062000c6b826200164f565b905080600160a060020a031683600160a060020a0316141562000ca55760405160e560020a62461bcd02815260040162000c399062003f83565b80600160a060020a031662000cb962001f2b565b600160a060020a0316148062000cd9575062000cd98162000b2562001f2b565b62000cfb5760405160e560020a62461bcd02815260040162000c399062003b6a565b62000d07838362001f2f565b505050565b600554600160a060020a0316331462000d3c5760405160e560020a62461bcd02815260040162000c399062003cef565b60028054600160a060020a031916600160a060020a0392909216919091179055565b60145490565b600254600160a060020a031690565b62000d8862000d8162001f2b565b8262001f9f565b62000daa5760405160e560020a62461bcd02815260040162000c399062003fe0565b62000d0783838362002034565b60009081526020819052604090206001015490565b60065481565b60005b8181101562000d075762000df58362000def601762002177565b6200217b565b62000e01601762002280565b8062000e0d81620043ae565b91505062000dd5565b60106020526000908152604090205481565b600a60205260009081526040902054600160a060020a031681565b62000e4f828262002289565b600082815260016020526040902062000d07908262001eb6565b600062000e768362001788565b821062000e9a5760405160e560020a62461bcd02815260040162000c3990620038bd565b50600160a060020a03821660009081526012602090815260408083208484529091529020545b92915050565b600554600160a060020a0316331462000ef65760405160e560020a62461bcd02815260040162000c399062003cef565b60088054600160a060020a031916600160a060020a0392909216919091179055565b62000f248282620022b5565b600082815260016020526040902062000d07908262002301565b62000f6d7f65d7a28e3265b37a6474929f336521b332c1681b933f6cb9f3376673440d862a6200088f62001f2b565b62000f8f5760405160e560020a62461bcd02815260040162000c3990620041b1565b62000f9962002318565b565b62000fca7f9f2df0fed2c77648de5860a4cc508cd0818c85b8b8a1ab4ceeef8d981c8956a66200088f62001f2b565b62000fec5760405160e560020a62461bcd02815260040162000c3990620040f7565b62000ffd8162000def601762002177565b62001009601762002280565b50565b600f6020526000908152604090205481565b62000d078383836040518060200160405280600081525062001c1b565b6200104962000d8162001f2b565b6200106b5760405160e560020a62461bcd02815260040162000c399062004154565b620010098162002392565b60006200108262000d5e565b8210620010a65760405160e560020a62461bcd02815260040162000c39906200409a565b60148281548110620010cb5760e060020a634e487b7102600052603260045260246000fd5b90600052602060002001549050919050565b6000818152600f60205260408120546200110e5760405160e560020a62461bcd02815260040162000c399062003bc7565b600082815260096020526040902054600160a060020a03163314156200114b5760405160e560020a62461bcd02815260040162000c399062003dc7565b6000828152600f6020526040908190205460025491517f70a082310000000000000000000000000000000000000000000000000000000081529091600160a060020a0316906370a0823190620011a6903390600401620036e3565b60206040518083038186803b158015620011bf57600080fd5b505afa158015620011d4573d6000803e3d6000fd5b505050506040513d601f19601f82011682018060405250810190620011fa9190620035a5565b10156200121e5760405160e560020a62461bcd02815260040162000c3990620039ae565b6002546000838152600f6020526040908190205490517f6aade288000000000000000000000000000000000000000000000000000000008152600160a060020a0390921691636aade288916200127a9133919060040162003735565b602060405180830381600087803b1580156200129557600080fd5b505af1158015620012aa573d6000803e3d6000fd5b505050506040513d601f19601f82011682018060405250810190620012d09190620034e8565b620012f25760405160e560020a62461bcd02815260040162000c399062003f4c565b6006546000838152600f60205260408120549091606491620013159190620042e9565b620013219190620042d2565b6002546000858152600a6020526040908190205490517fa9059cbb000000000000000000000000000000000000000000000000000000008152929350600160a060020a039182169263a9059cbb9262001381921690859060040162003735565b602060405180830381600087803b1580156200139c57600080fd5b505af1158015620013b1573d6000803e3d6000fd5b505050506040513d601f19601f82011682018060405250810190620013d79190620034e8565b506007546000848152600f60205260408120549091606491620013fb9190620042e9565b620014079190620042d2565b6002546000868152600a6020526040908190205490517fa9059cbb000000000000000000000000000000000000000000000000000000008152929350600160a060020a039182169263a9059cbb9262001467921690859060040162003735565b602060405180830381600087803b1580156200148257600080fd5b505af115801562001497573d6000803e3d6000fd5b505050506040513d601f19601f82011682018060405250810190620014bd9190620034e8565b506000620014cc8284620042b7565b600254600087815260096020908152604080832054600f90925290912054929350600160a060020a039182169263a9059cbb9290911690620015109085906200430b565b6040518363ffffffff1660e060020a0281526004016200153292919062003735565b602060405180830381600087803b1580156200154d57600080fd5b505af115801562001562573d6000803e3d6000fd5b505050506040513d601f19601f82011682018060405250810190620015889190620034e8565b50600085815260096020908152604080832054600160a060020a03168352600b9091528120805460019290620015c09084906200430b565b9091555050336000908152600b60205260408120805460019290620015e7908490620042b7565b909155505060008581526009602090815260408083208054600160a060020a03191633179055601090915290205462001621908662002441565b505050600091825250601060209081526040808320839055600f909152812055600190565b60165460ff1690565b600081815260096020526040812054600160a060020a03168062000b685760405160e560020a62461bcd02815260040162000c399062003c5b565b600082815260096020526040812054600160a060020a03163314620016c65760405160e560020a62461bcd02815260040162000c399062003f15565b60008211620016ec5760405160e560020a62461bcd02815260040162000c399062003886565b6000838152600f6020526040902054156200171e5760405160e560020a62461bcd02815260040162000c399062003d26565b6000838152600f602052604081208390556011805460018181018355928290527f31ecc21a745e3968a04e9570e4425bc18fa8019c68028196b546d1669c200c6801859055546200177091906200430b565b60008481526010602052604090205550600192915050565b6000600160a060020a038216620017b65760405160e560020a62461bcd02815260040162000c399062003bfe565b50600160a060020a03166000908152600b602052604090205490565b6060601180548060200260200160405190810160405280929190818152602001828054801562000c0057602002820191906000526020600020905b8154815260200190600101908083116200180d575050505050905090565b601181815481106200183c57600080fd5b600091825260209091200154905081565b6200187c7f65d7a28e3265b37a6474929f336521b332c1681b933f6cb9f3376673440d862a6200088f62001f2b565b6200189e5760405160e560020a62461bcd02815260040162000c3990620039e5565b62000f9962002585565b6000828152600160205260408120620018c29083620025ea565b9392505050565b600091825260208281526040808420600160a060020a0393909316845291905290205460ff1690565b600083815260096020526040902054600160a060020a031633146200192e5760405160e560020a62461bcd02815260040162000c399062003cb8565b6000838152600f602052604090205415620019605760405160e560020a62461bcd02815260040162000c39906200403d565b60008381526009602052604090819020546002549151309286928692600160a060020a039182169290911690859087906200199b90620032ed565b620019ac9695949392919062004283565b604051809103906000f080158015620019c9573d6000803e3d6000fd5b506000858152600e602052604090208054600160a060020a031916600160a060020a03928316179081905562001a0391339116866200101e565b6002546000858152600e6020526040908190205490517f746e8e70000000000000000000000000000000000000000000000000000000008152600160a060020a039283169263746e8e709262001a62928992909116906004016200426c565b600060405180830381600087803b15801562001a7d57600080fd5b505af115801562001a92573d6000803e3d6000fd5b5050505050505050565b600062001aab3383856200101e565b50600192915050565b60606004805462000b81906200436e565b6000818152600e6020526040902054600160a060020a0316331462001b015760405160e560020a62461bcd02815260040162000c399062003d5d565b6000908152600e602052604090208054600160a060020a0319169055565b600960205260009081526040902054600160a060020a031681565b600081565b62001b4962001f2b565b600160a060020a031682600160a060020a0316141562001b805760405160e560020a62461bcd02815260040162000c399062003a9f565b80600d600062001b8f62001f2b565b600160a060020a03908116825260208083019390935260409182016000908120918716808252919093529120805460ff19169215159290921790915562001bd562001f2b565b600160a060020a03167f17307eab39ab6107e8899845ad3d59bd9653f200f220920489ca2b5937696c318360405162001c0f919062003794565b60405180910390a35050565b62001c3062001c2962001f2b565b8362001f9f565b62001c525760405160e560020a62461bcd02815260040162000c399062003fe0565b62001c6084848484620025f8565b50505050565b6000908152600f602052604090205490565b600081815260096020526040812054600160a060020a0316331462001cb45760405160e560020a62461bcd02815260040162000c399062003f15565b6000828152600f602052604090205462001ce55760405160e560020a62461bcd02815260040162000c399062003bc7565b60008281526010602052604090205462001d00908362002441565b506000908152601060209081526040808320839055600f909152812055600190565b606062001d2f8262001f0e565b62001d515760405160e560020a62461bcd02815260040162000c399062003eb8565b600062001d5d62002635565b9050600081511162001d7f5760405180602001604052806000815250620018c2565b8062001d8b8462002646565b60405160200162001d9e9291906200362b565b6040516020818303038152906040529392505050565b600081815260016020526040812062000b6890620027b7565b6000908152600a6020526040902054600160a060020a031690565b7f9f2df0fed2c77648de5860a4cc508cd0818c85b8b8a1ab4ceeef8d981c8956a681565b62000f248282620027c4565b60065490565b600854600160a060020a031681565b6000908152600e6020526040902054600160a060020a031690565b7f65d7a28e3265b37a6474929f336521b332c1681b933f6cb9f3376673440d862a81565b600160a060020a039182166000908152600d6020908152604080832093909416825291909152205460ff1690565b60075490565b60075481565b62001eb28282620027ea565b5050565b6000620018c283600160a060020a03841662002874565b6000600160e060020a031982167f780e9d6300000000000000000000000000000000000000000000000000000000148062000b68575062000b6882620028c3565b600090815260096020526040902054600160a060020a0316151590565b3390565b6000818152600c602052604090208054600160a060020a031916600160a060020a038416908117909155819062001f66826200164f565b600160a060020a03167f8c5be1e5ebec7d5bd14f71427d1e84f3dd0314c0f7b2291e5b200ac8c7c3b92560405160405180910390a45050565b600062001fac8262001f0e565b62001fce5760405160e560020a62461bcd02815260040162000c399062003ad6565b600062001fdb836200164f565b905080600160a060020a031684600160a060020a0316148062002019575083600160a060020a03166200200e8462000c0a565b600160a060020a0316145b806200202c57506200202c818562001e6c565b949350505050565b82600160a060020a031662002049826200164f565b600160a060020a031614620020755760405160e560020a62461bcd02815260040162000c399062003e5b565b600160a060020a038216620020a15760405160e560020a62461bcd02815260040162000c399062003a42565b620020ae83838362002939565b620020bb60008262001f2f565b600160a060020a0383166000908152600b60205260408120805460019290620020e69084906200430b565b9091555050600160a060020a0382166000908152600b6020526040812080546001929062002116908490620042b7565b90915550506000818152600960205260408082208054600160a060020a031916600160a060020a0386811691821790925591518493918716917fddf252ad1be2c89b69c2b068fc378daa952ba7f163c4a11628f55a4df523b3ef91a4505050565b5490565b600160a060020a038216620021a75760405160e560020a62461bcd02815260040162000c399062003d92565b620021b28162001f0e565b15620021d55760405160e560020a62461bcd02815260040162000c399062003977565b620021e36000838362002939565b600160a060020a0382166000908152600b602052604081208054600192906200220e908490620042b7565b909155505060008181526009602090815260408083208054600160a060020a038716600160a060020a03199182168117909255600a90935281842080549093168117909255518392907fddf252ad1be2c89b69c2b068fc378daa952ba7f163c4a11628f55a4df523b3ef908290a45050565b80546001019055565b620022948262000db7565b620022a981620022a362001f2b565b62002946565b62000d078383620027ea565b620022bf62001f2b565b600160a060020a031681600160a060020a031614620022f55760405160e560020a62461bcd02815260040162000c39906200420f565b62001eb28282620029b8565b6000620018c283600160a060020a03841662002a40565b6200232262001646565b620023445760405160e560020a62461bcd02815260040162000c39906200384f565b6016805460ff191690557f5db9ee0a495bf2e6ff9c91a7834c1ba4fdd244a5e8aa4e537bd38aeae4b073aa6200237962001f2b565b604051620023889190620036e3565b60405180910390a1565b60006200239f826200164f565b9050620023af8160008462002939565b620023bc60008362001f2f565b600160a060020a0381166000908152600b60205260408120805460019290620023e79084906200430b565b90915550506000828152600960205260408082208054600160a060020a031916905551839190600160a060020a038416907fddf252ad1be2c89b69c2b068fc378daa952ba7f163c4a11628f55a4df523b3ef908390a45050565b6011548210620024515762001eb2565b600081815260106020526040812055815b60115462002473906001906200430b565b811015620025475760116200248a826001620042b7565b81548110620024ac5760e060020a634e487b7102600052603260045260246000fd5b906000526020600020015460118281548110620024dc5760e060020a634e487b7102600052603260045260246000fd5b9060005260206000200181905550806010600060118481548110620025145760e060020a634e487b7102600052603260045260246000fd5b906000526020600020015481526020019081526020016000208190555080806200253e90620043ae565b91505062002462565b5060118054806200256b5760e060020a634e487b7102600052603160045260246000fd5b600190038181906000526020600020016000905590555050565b6200258f62001646565b15620025b25760405160e560020a62461bcd02815260040162000c399062003b33565b6016805460ff191660011790557f62e78cea01bee320cd4e420270b5ea74000d11b0c9f74754ebdbfc544b05a2586200237962001f2b565b6000620018c2838362002b71565b6200260584848462002034565b620026138484848462002bad565b62001c605760405160e560020a62461bcd02815260040162000c39906200391a565b60606018805462000b81906200436e565b60608162002689575060408051808201909152600181527f3000000000000000000000000000000000000000000000000000000000000000602082015262000b6b565b8160005b8115620026b95780620026a081620043ae565b9150620026b19050600a83620042d2565b91506200268d565b60008167ffffffffffffffff811115620026e65760e060020a634e487b7102600052604160045260246000fd5b6040519080825280601f01601f19166020018201604052801562002711576020820181803683370190505b5090505b84156200202c57620027296001836200430b565b915062002738600a86620043cc565b62002745906030620042b7565b7f0100000000000000000000000000000000000000000000000000000000000000028183815181106200278b5760e060020a634e487b7102600052603260045260246000fd5b6020010190600160f860020a031916908160001a905350620027af600a86620042d2565b945062002715565b600062000b688262002177565b620027cf8262000db7565b620027de81620022a362001f2b565b62000d078383620029b8565b620027f68282620018c9565b62001eb257600082815260208181526040808320600160a060020a03851684529091529020805460ff191660011790556200283062001f2b565b600160a060020a031681600160a060020a0316837f2f8788117e7eff1d82e926ec794901d17c78024a50270940304540a733656f0d60405160405180910390a45050565b600062002882838362002cf9565b620028ba5750815460018181018455600084815260208082209093018490558454848252828601909352604090209190915562000ec0565b50600062000ec0565b6000600160e060020a031982167f80ac58cd000000000000000000000000000000000000000000000000000000001480620029275750600160e060020a031982167f5b5e139f00000000000000000000000000000000000000000000000000000000145b8062000b68575062000b688262002d11565b62000d0783838362002d52565b620029528282620018c9565b62001eb2576200296d81600160a060020a0316601462002d8c565b6200297a83602062002d8c565b6040516020016200298d9291906200365e565b60408051601f198184030181529082905260e560020a62461bcd02825262000c3991600401620037a8565b620029c48282620018c9565b1562001eb257600082815260208181526040808320600160a060020a03851684529091529020805460ff19169055620029fc62001f2b565b600160a060020a031681600160a060020a0316837ff6391f5c32d9c69d2a47ea670b442974b53935d1edc7fd64eb21e047a839171b60405160405180910390a45050565b6000818152600183016020526040812054801562002b6657600062002a676001836200430b565b855490915060009062002a7d906001906200430b565b905081811462002b0757600086600001828154811062002ab05760e060020a634e487b7102600052603260045260246000fd5b906000526020600020015490508087600001848154811062002ae55760e060020a634e487b7102600052603260045260246000fd5b6000918252602080832090910192909255918252600188019052604090208390555b855486908062002b2a5760e060020a634e487b7102600052603160045260246000fd5b60019003818190600052602060002001600090559055856001016000868152602001908152602001600020600090556001935050505062000ec0565b600091505062000ec0565b600082600001828154811062002b9a5760e060020a634e487b7102600052603260045260246000fd5b9060005260206000200154905092915050565b600062002bc384600160a060020a031662002fc8565b1562002cee5783600160a060020a031663150b7a0262002be262001f2b565b8786866040518563ffffffff1660e060020a02815260040162002c099493929190620036f7565b602060405180830381600087803b15801562002c2457600080fd5b505af192505050801562002c57575060408051601f3d908101601f1916820190925262002c549181019062003586565b60015b62002cba573d80801562002c88576040519150601f19603f3d011682016040523d82523d6000602084013e62002c8d565b606091505b50805162002cb25760405160e560020a62461bcd02815260040162000c39906200391a565b805181602001fd5b600160e060020a0319167f150b7a02000000000000000000000000000000000000000000000000000000001490506200202c565b506001949350505050565b60009081526001919091016020526040902054151590565b6000600160e060020a031982167f5a05180f00000000000000000000000000000000000000000000000000000000148062000b68575062000b688262002fce565b62002d5f8383836200300f565b62002d6962001646565b1562000d075760405160e560020a62461bcd02815260040162000c3990620037f2565b6060600062002d9d836002620042e9565b62002daa906002620042b7565b67ffffffffffffffff81111562002dd45760e060020a634e487b7102600052604160045260246000fd5b6040519080825280601f01601f19166020018201604052801562002dff576020820181803683370190505b5090507f30000000000000000000000000000000000000000000000000000000000000008160008151811062002e485760e060020a634e487b7102600052603260045260246000fd5b6020010190600160f860020a031916908160001a9053507f78000000000000000000000000000000000000000000000000000000000000008160018151811062002ea55760e060020a634e487b7102600052603260045260246000fd5b6020010190600160f860020a031916908160001a905350600062002ecb846002620042e9565b62002ed8906001620042b7565b90505b600181111562002fa3577f303132333435363738396162636465660000000000000000000000000000000085600f166010811062002f2c5760e060020a634e487b7102600052603260045260246000fd5b1a7f01000000000000000000000000000000000000000000000000000000000000000282828151811062002f735760e060020a634e487b7102600052603260045260246000fd5b6020010190600160f860020a031916908160001a90535060109094049362002f9b8162004354565b905062002edb565b508315620018c25760405160e560020a62461bcd02815260040162000c3990620037bd565b3b151590565b6000600160e060020a031982167f7965db0b00000000000000000000000000000000000000000000000000000000148062000b68575062000b6882620030a8565b6200301c83838362000d07565b600160a060020a0383166200303c576200303681620030da565b62003062565b81600160a060020a031683600160a060020a03161462003062576200306283826200311e565b600160a060020a03821662003082576200307c81620031c0565b62000d07565b82600160a060020a031682600160a060020a03161462000d075762000d078282620032a7565b600160e060020a031981167f01ffc9a70000000000000000000000000000000000000000000000000000000014919050565b601480546000838152601560205260408120829055600182018355919091527fce6d7b5282bd9a3661ae061feed1dbda4e52ab073b1f9285be6e155d9c38d4ec0155565b600060016200312d8462001788565b6200313991906200430b565b6000838152601360205260409020549091508082146200318d57600160a060020a03841660009081526012602090815260408083208584528252808320548484528184208190558352601390915290208190555b506000918252601360209081526040808420849055600160a060020a039094168352601281528383209183525290812055565b601454600090620031d4906001906200430b565b600083815260156020526040812054601480549394509092849081106200320e5760e060020a634e487b7102600052603260045260246000fd5b906000526020600020015490508060148381548110620032415760e060020a634e487b7102600052603260045260246000fd5b60009182526020808320909101929092558281526015909152604080822084905585825281205560148054806200328b5760e060020a634e487b7102600052603160045260246000fd5b6001900381819060005260206000200160009055905550505050565b6000620032b48362001788565b600160a060020a039093166000908152601260209081526040808320868452825280832085905593825260139052919091209190915550565b6115d0806200445583390190565b8035600160a060020a038116811462000b6b57600080fd5b60006020828403121562003325578081fd5b620018c282620032fb565b6000806040838503121562003343578081fd5b6200334e83620032fb565b91506200335e60208401620032fb565b90509250929050565b6000806000606084860312156200337c578081fd5b6200338784620032fb565b92506200339760208501620032fb565b9150604084013590509250925092565b60008060008060808587031215620033bd578081fd5b620033c885620032fb565b93506020620033d9818701620032fb565b935060408601359250606086013567ffffffffffffffff80821115620033fd578384fd5b818801915088601f83011262003411578384fd5b81358181111562003426576200342662004415565b604051601f8201601f19168101850183811182821017156200344c576200344c62004415565b60405281815283820185018b101562003463578586fd5b81858501868301379081019093019390935250939692955090935050565b6000806040838503121562003494578182fd5b6200349f83620032fb565b91506020830135620034b1816200442e565b809150509250929050565b60008060408385031215620034cf578182fd5b620034da83620032fb565b946020939093013593505050565b600060208284031215620034fa578081fd5b8151620018c2816200442e565b60006020828403121562003519578081fd5b5035919050565b6000806040838503121562003533578182fd5b823591506200335e60208401620032fb565b6000806040838503121562003558578182fd5b50508035926020909101359150565b60006020828403121562003579578081fd5b8135620018c2816200443d565b60006020828403121562003598578081fd5b8151620018c2816200443d565b600060208284031215620035b7578081fd5b5051919050565b6000806040838503121562003533578081fd5b600080600060608486031215620035e6578081fd5b505081359360208301359350604090920135919050565b600081518084526200361781602086016020860162004325565b601f01601f19169290920160200192915050565b600083516200363f81846020880162004325565b8351908301906200365581836020880162004325565b01949350505050565b60007f416363657373436f6e74726f6c3a206163636f756e7420000000000000000000825283516200369881601785016020880162004325565b7f206973206d697373696e6720726f6c65200000000000000000000000000000006017918401918201528351620036d781602884016020880162004325565b01602801949350505050565b600160a060020a0391909116815260200190565b6000600160a060020a038087168352808616602084015250836040830152608060608301526200372b6080830184620035fd565b9695505050505050565b600160a060020a03929092168252602082015260400190565b6020808252825182820181905260009190848201906040850190845b8181101562003788578351835292840192918401916001016200376a565b50909695505050505050565b901515815260200190565b90815260200190565b600060208252620018c26020830184620035fd565b6020808252818101527f537472696e67733a20686578206c656e67746820696e73756666696369656e74604082015260600190565b6020808252602b908201527f4552433732315061757361626c653a20746f6b656e207472616e73666572207760408201527f68696c6520706175736564000000000000000000000000000000000000000000606082015260800190565b60208082526014908201527f5061757361626c653a206e6f7420706175736564000000000000000000000000604082015260600190565b6020808252601e908201527f70726963652073686f756c642062652067726561746572207468616e20300000604082015260600190565b6020808252602b908201527f455243373231456e756d657261626c653a206f776e657220696e646578206f7560408201527f74206f6620626f756e6473000000000000000000000000000000000000000000606082015260800190565b60208082526032908201527f4552433732313a207472616e7366657220746f206e6f6e20455243373231526560408201527f63656976657220696d706c656d656e7465720000000000000000000000000000606082015260800190565b6020808252601c908201527f4552433732313a20746f6b656e20616c7265616479206d696e74656400000000604082015260600190565b6020808252600b908201527f4c6f772062616c616e6365000000000000000000000000000000000000000000604082015260600190565b6020808252603e908201527f4552433732315072657365744d696e7465725061757365724175746f49643a2060408201527f6d75737420686176652070617573657220726f6c6520746f2070617573650000606082015260800190565b60208082526024908201527f4552433732313a207472616e7366657220746f20746865207a65726f2061646460408201527f7265737300000000000000000000000000000000000000000000000000000000606082015260800190565b60208082526019908201527f4552433732313a20617070726f766520746f2063616c6c657200000000000000604082015260600190565b6020808252602c908201527f4552433732313a206f70657261746f7220717565727920666f72206e6f6e657860408201527f697374656e7420746f6b656e0000000000000000000000000000000000000000606082015260800190565b60208082526010908201527f5061757361626c653a2070617573656400000000000000000000000000000000604082015260600190565b60208082526038908201527f4552433732313a20617070726f76652063616c6c6572206973206e6f74206f7760408201527f6e6572206e6f7220617070726f76656420666f7220616c6c0000000000000000606082015260800190565b60208082526016908201527f6e6f742053656c6c696e67207468697320746f6b656e00000000000000000000604082015260600190565b6020808252602a908201527f4552433732313a2062616c616e636520717565727920666f7220746865207a6560408201527f726f206164647265737300000000000000000000000000000000000000000000606082015260800190565b60208082526029908201527f4552433732313a206f776e657220717565727920666f72206e6f6e657869737460408201527f656e7420746f6b656e0000000000000000000000000000000000000000000000606082015260800190565b6020808252601b908201527f63616e206f6e6c792062652063616c6c6564206279204f776e65720000000000604082015260600190565b6020808252601f908201527f63616e2062652063616c6c656420627920436f6e7472616374204f776e657200604082015260600190565b6020808252600f908201527f416c72656164792053656c6c696e670000000000000000000000000000000000604082015260600190565b6020808252818101527f63616e206f6e6c792063616c6c65642062792041756374696f6e2f4f776e6572604082015260600190565b6020808252818101527f4552433732313a206d696e7420746f20746865207a65726f2061646472657373604082015260600190565b6020808252601d908201527f4f776e65722063616e6e6f74206275792069742773206f776e204e4654000000604082015260600190565b6020808252602c908201527f4552433732313a20617070726f76656420717565727920666f72206e6f6e657860408201527f697374656e7420746f6b656e0000000000000000000000000000000000000000606082015260800190565b60208082526029908201527f4552433732313a207472616e73666572206f6620746f6b656e2074686174206960408201527f73206e6f74206f776e0000000000000000000000000000000000000000000000606082015260800190565b6020808252602f908201527f4552433732314d657461646174613a2055524920717565727920666f72206e6f60408201527f6e6578697374656e7420746f6b656e0000000000000000000000000000000000606082015260800190565b60208082526018908201527f63616e20626520736574206279206f776e6572206f6e6c790000000000000000604082015260600190565b60208082526018908201527f546f6b656e205472616e73656374696f6e204661696c65640000000000000000604082015260600190565b60208082526021908201527f4552433732313a20617070726f76616c20746f2063757272656e74206f776e6560408201527f7200000000000000000000000000000000000000000000000000000000000000606082015260800190565b60208082526031908201527f4552433732313a207472616e736665722063616c6c6572206973206e6f74206f60408201527f776e6572206e6f7220617070726f766564000000000000000000000000000000606082015260800190565b60208082526029908201527f416c72656164792053656c6c696e672c2063616e63656c2053656c6c696e672060408201527f4e46542046697273740000000000000000000000000000000000000000000000606082015260800190565b6020808252602c908201527f455243373231456e756d657261626c653a20676c6f62616c20696e646578206f60408201527f7574206f6620626f756e64730000000000000000000000000000000000000000606082015260800190565b6020808252603d908201527f4552433732315072657365744d696e7465725061757365724175746f49643a2060408201527f6d7573742068617665206d696e74657220726f6c6520746f206d696e74000000606082015260800190565b60208082526030908201527f4552433732314275726e61626c653a2063616c6c6572206973206e6f74206f7760408201527f6e6572206e6f7220617070726f76656400000000000000000000000000000000606082015260800190565b602080825260409082018190527f4552433732315072657365744d696e7465725061757365724175746f49643a20908201527f6d75737420686176652070617573657220726f6c6520746f20756e7061757365606082015260800190565b6020808252602f908201527f416363657373436f6e74726f6c3a2063616e206f6e6c792072656e6f756e636560408201527f20726f6c657320666f722073656c660000000000000000000000000000000000606082015260800190565b918252600160a060020a0316602082015260400190565b9586526020860194909452600160a060020a039283166040860152908216606085015216608083015260a082015260c00190565b60008219821115620042cd57620042cd620043e3565b500190565b600082620042e457620042e4620043fc565b500490565b6000816000190483118215151615620043065762004306620043e3565b500290565b600082821015620043205762004320620043e3565b500390565b60005b838110156200434257818101518382015260200162004328565b8381111562001c605750506000910152565b600081620043665762004366620043e3565b506000190190565b6002810460018216806200438357607f821691505b60208210811415620043a85760e060020a634e487b7102600052602260045260246000fd5b50919050565b6000600019821415620043c557620043c5620043e3565b5060010190565b600082620043de57620043de620043fc565b500690565b60e060020a634e487b7102600052601160045260246000fd5b60e060020a634e487b7102600052601260045260246000fd5b60e060020a634e487b7102600052604160045260246000fd5b80151581146200100957600080fd5b600160e060020a0319811681146200100957600080fdfe60806040523480156200001157600080fd5b50604051620015d0380380620015d08339810160408190526200003491620000d9565b600486905560008054600160a060020a031916600160a060020a03861617905562000060854262000148565b600190815560028054600160a060020a0319908116600160a060020a03968716179091556003805482169490951693909317909355600955600a805492830181556000527fc65a7bb8d6351c1cf70c95a316cc6a92839c986682d98bc35f958f4883f9d2a890910180549091169055506200019f915050565b60008060008060008060c08789031215620000f2578182fd5b865195506020870151945060408701516200010d8162000186565b6060880151909450620001208162000186565b6080880151909350620001338162000186565b8092505060a087015190509295509295509295565b6000821982111562000181577f4e487b710000000000000000000000000000000000000000000000000000000081526011600452602481fd5b500190565b600160a060020a03811681146200019c57600080fd5b50565b61142180620001af6000396000f3fe6080604052600436106100f75760003560e060020a90048063454a2ab31161008e57806388a6360e1161005d57806388a6360e1461023457806391f9015714610249578063d57bde791461025e578063f56e9c6614610273576100f7565b8063454a2ab3146101df5780634b449cba146101f257806370bda8941461017657806383ffda3b14610214576100f7565b806321df0da7116100ca57806321df0da71461018b5780632a24f46c146101ad57806338af3eed146101b55780633ccfd60b146101ca576100f7565b806312fa6feb146100fc578063144fa6d714610127578063150b7a02146101495780631e36d75514610176575b600080fd5b34801561010857600080fd5b50610111610293565b60405161011e91906110e5565b60405180910390f35b34801561013357600080fd5b50610147610142366004610f59565b61029c565b005b34801561015557600080fd5b50610169610164366004610f98565b6102cb565b60405161011e91906110f0565b34801561018257600080fd5b506101476102f4565b34801561019757600080fd5b506101a061039a565b60405161011e91906110b8565b6101476103a9565b3480156101c157600080fd5b506101a0610b88565b3480156101d657600080fd5b50610111610b97565b6101476101ed366004611088565b610ba7565b3480156101fe57600080fd5b50610207610de1565b60405161011e91906112d9565b34801561022057600080fd5b5061020761022f366004610f59565b610de7565b34801561024057600080fd5b506101a0610e06565b34801561025557600080fd5b506101a0610e15565b34801561026a57600080fd5b50610207610e24565b34801561027f57600080fd5b5061014761028e366004610f59565b610e2a565b600b5460ff1681565b6002805473ffffffffffffffffffffffffffffffffffffffff1916600160a060020a0392909216919091179055565b7f150b7a0200000000000000000000000000000000000000000000000000000000949350505050565b600354600480546000546040517f9564470e000000000000000000000000000000000000000000000000000000008152600160a060020a0394851694639564470e94610345949390911691016112e2565b602060405180830381600087803b15801561035f57600080fd5b505af1158015610373573d6000803e3d6000fd5b505050506040513d601f19601f820116820180604052508101906103979190611068565b50565b600254600160a060020a031690565b600054600160a060020a03163314806103cc5750600554600160a060020a031633145b6103f45760405160e560020a62461bcd0281526004016103eb9061127c565b60405180910390fd5b6001544210156104195760405160e560020a62461bcd0281526004016103eb906111e8565b600b5460ff161561043f5760405160e560020a62461bcd0281526004016103eb9061121f565b600b805460ff191660011790556004546005546006546040517fd2aa34a4fdbbc6dff6a3e56f46e0f3ae2a31d7785ff3487aa5c95c642acea50193610491939092600160a060020a03909116916112f9565b60405180910390a1600554600160a060020a0316156109e857600354600480546005546040517f9564470e000000000000000000000000000000000000000000000000000000008152600160a060020a0394851694639564470e946104fb949390911691016112e2565b602060405180830381600087803b15801561051557600080fd5b505af1158015610529573d6000803e3d6000fd5b505050506040513d601f19601f8201168201806040525081019061054d9190611068565b5060006064600360009054906101000a9004600160a060020a0316600160a060020a031663d55a9fe46040518163ffffffff1660e060020a02815260040160206040518083038186803b1580156105a357600080fd5b505afa1580156105b7573d6000803e3d6000fd5b505050506040513d601f19601f820116820180604052508101906105db91906110a0565b6006546105e89190611353565b6105f29190611330565b600254600354600480546040517fd48e638a000000000000000000000000000000000000000000000000000000008152949550600160a060020a039384169463a9059cbb949093169263d48e638a9261064c9291016112d9565b60206040518083038186803b15801561066457600080fd5b505afa158015610678573d6000803e3d6000fd5b505050506040513d601f19601f8201168201806040525081019061069c9190610f7c565b836040518363ffffffff1660e060020a0281526004016106bd9291906110cc565b602060405180830381600087803b1580156106d757600080fd5b505af11580156106eb573d6000803e3d6000fd5b505050506040513d601f19601f8201168201806040525081019061070f9190611068565b5060006064600360009054906101000a9004600160a060020a0316600160a060020a031663ef767a696040518163ffffffff1660e060020a02815260040160206040518083038186803b15801561076557600080fd5b505afa158015610779573d6000803e3d6000fd5b505050506040513d601f19601f8201168201806040525081019061079d91906110a0565b6006546107aa9190611353565b6107b49190611330565b600254600354600480546040517fd48e638a000000000000000000000000000000000000000000000000000000008152949550600160a060020a039384169463a9059cbb949093169263d48e638a9261080e9291016112d9565b60206040518083038186803b15801561082657600080fd5b505afa15801561083a573d6000803e3d6000fd5b505050506040513d601f19601f8201168201806040525081019061085e9190610f7c565b836040518363ffffffff1660e060020a02815260040161087f9291906110cc565b602060405180830381600087803b15801561089957600080fd5b505af11580156108ad573d6000803e3d6000fd5b505050506040513d601f19601f820116820180604052508101906108d19190611068565b5060006108de8284611318565b600254600054600654929350600160a060020a039182169263a9059cbb929091169061090b908590611372565b6040518363ffffffff1660e060020a02815260040161092b9291906110cc565b602060405180830381600087803b15801561094557600080fd5b505af1158015610959573d6000803e3d6000fd5b505050506040513d601f19601f8201168201806040525081019061097d9190611068565b5060015b600a548110156109df576109cc600a82815481106109b25760e060020a634e487b7102600052603260045260246000fd5b600091825260209091200154600160a060020a0316610e59565b50806109d781611389565b915050610981565b50505050610a8d565b600354600480546000546040517f9564470e000000000000000000000000000000000000000000000000000000008152600160a060020a0394851694639564470e94610a39949390911691016112e2565b602060405180830381600087803b158015610a5357600080fd5b505af1158015610a67573d6000803e3d6000fd5b505050506040513d601f19601f82011682018060405250810190610a8b9190611068565b505b600354600480546040517f96e392d3000000000000000000000000000000000000000000000000000000008152600160a060020a03909316926396e392d392610ad79291016112d9565b600060405180830381600087803b158015610af157600080fd5b505af1158015610b05573d6000803e3d6000fd5b5050600254600480546040517f77df84a4000000000000000000000000000000000000000000000000000000008152600160a060020a0390931694506377df84a49350610b54929091016112d9565b600060405180830381600087803b158015610b6e57600080fd5b505af1158015610b82573d6000803e3d6000fd5b50505050565b600054600160a060020a031681565b6000610ba233610e59565b905090565b600154421115610bcc5760405160e560020a62461bcd0281526004016103eb9061111d565b600954811015610bf15760405160e560020a62461bcd0281526004016103eb9061118b565b6006548111610c155760405160e560020a62461bcd0281526004016103eb90611154565b600254600480546040517f01f07a3b000000000000000000000000000000000000000000000000000000008152600160a060020a03909316926301f07a3b92610c63929133918791016112f9565b602060405180830381600087803b158015610c7d57600080fd5b505af1158015610c91573d6000803e3d6000fd5b505050506040513d601f19601f82011682018060405250810190610cb59190611068565b610cbe57600080fd5b60065415610cf957600654600554600160a060020a031660009081526007602052604081208054909190610cf3908490611318565b90915550505b6005805473ffffffffffffffffffffffffffffffffffffffff1916339081179091556006829055600090815260086020526040902054610da157600a80546001818101835560008390527fc65a7bb8d6351c1cf70c95a316cc6a92839c986682d98bc35f958f4883f9d2a8909101805473ffffffffffffffffffffffffffffffffffffffff1916331790559054610d909190611372565b336000908152600860205260409020555b7fda0a18da71d8ebd145966339a728fc0d8ccc07c22870d561890d823c515dda6b6004543383604051610dd6939291906112f9565b60405180910390a150565b60015481565b600160a060020a0381166000908152600760205260409020545b919050565b600354600160a060020a031690565b600554600160a060020a031681565b60065481565b6003805473ffffffffffffffffffffffffffffffffffffffff1916600160a060020a0392909216919091179055565b600160a060020a0381166000908152600760205260408120548015610f5057600160a060020a038084166000908152600760205260408082209190915560025490517fa9059cbb00000000000000000000000000000000000000000000000000000000815291169063a9059cbb90610ed790869085906004016110cc565b602060405180830381600087803b158015610ef157600080fd5b505af1158015610f05573d6000803e3d6000fd5b505050506040513d601f19601f82011682018060405250810190610f299190611068565b610f5057600160a060020a0383166000908152600760205260408120919091559050610e01565b50600192915050565b600060208284031215610f6a578081fd5b8135610f75816113d6565b9392505050565b600060208284031215610f8d578081fd5b8151610f75816113d6565b60008060008060808587031215610fad578283fd5b8435610fb8816113d6565b9350602085810135610fc9816113d6565b935060408601359250606086013567ffffffffffffffff80821115610fec578384fd5b818801915088601f830112610fff578384fd5b813581811115611011576110116113bd565b604051601f8201601f1916810185018381118282101715611034576110346113bd565b60405281815283820185018b101561104a578586fd5b81858501868301379081019093019390935250939692955090935050565b600060208284031215611079578081fd5b81518015158114610f75578182fd5b600060208284031215611099578081fd5b5035919050565b6000602082840312156110b1578081fd5b5051919050565b600160a060020a0391909116815260200190565b600160a060020a03929092168252602082015260400190565b901515815260200190565b7fffffffff0000000000000000000000000000000000000000000000000000000091909116815260200190565b60208082526016908201527f41756374696f6e20616c726561647920656e6465642e00000000000000000000604082015260600190565b6020808252601e908201527f546865726520616c7265616479206973206120686967686572206269642e0000604082015260600190565b60208082526022908201527f416d6f756e74206973206c657373207468616e206d696e696d756d205072696360408201527f6521000000000000000000000000000000000000000000000000000000000000606082015260800190565b60208082526016908201527f41756374696f6e206e6f742079657420656e6465642e00000000000000000000604082015260600190565b60208082526023908201527f61756374696f6e456e642068617320616c7265616479206265656e2063616c6c60408201527f65642e0000000000000000000000000000000000000000000000000000000000606082015260800190565b6020808252602a908201527f6f6e6c79206f776e6572206f6620746f6b656e2063616e2063616c6c2074686960408201527f732066756e6374696f6e00000000000000000000000000000000000000000000606082015260800190565b90815260200190565b918252600160a060020a0316602082015260400190565b928352600160a060020a03919091166020830152604082015260600190565b6000821982111561132b5761132b6113a4565b500190565b60008261134e5760e060020a634e487b710281526012600452602481fd5b500490565b600081600019048311821515161561136d5761136d6113a4565b500290565b600082821015611384576113846113a4565b500390565b600060001982141561139d5761139d6113a4565b5060010190565b60e060020a634e487b7102600052601160045260246000fd5b60e060020a634e487b7102600052604160045260246000fd5b600160a060020a038116811461039757600080fdfea2646970667358221220baeabe3477d6d0ef559000af031e7388af423233e6f65199550818ecf2af14d264736f6c63430008000033a26469706673582212203e24f33bb5130fd507e1e04e70e6c9b2e906ebf280a551768f2e6470fc58c24964736f6c63430008000033",
  "immutableReferences": {},
  "source": "// SPDX-License-Identifier: MIT\npragma solidity ^0.8.0;\n\nimport \"./presets/ERC721PresetMinterPauserAutoId.sol\";\n\ncontract DVT is ERC721PresetMinterPauserAutoId {\n    constructor()\n    ERC721PresetMinterPauserAutoId(\n        \"Davinci Token\",\n        \"DVT\",\n        \"https://davinci.com/api/token/\"\n    )\n    {}\n}",
  "sourcePath": "/Volumes/Transcend/Projects/DappsLab/Lottery-Smart-Contract/contracts/customERC20ERC721/ERC721/DVT.sol",
  "compiler": {
    "name": "solc",
    "version": "0.8.0+commit.c7dfd78e.Emscripten.clang"
  },
  "schemaVersion": "3.4.3",
  "updatedAt": "2021-12-02T09:46:23.040Z",
  "devdoc": {
    "kind": "dev",
    "methods": {
      "_spend(uint256,address)": {
        "details": "See {IERC721-safeTransferFrom}."
      },
      "approve(address,uint256)": {
        "details": "See {IERC721-approve}."
      },
      "balanceOf(address)": {
        "details": "See {IERC721-balanceOf}."
      },
      "burn(uint256)": {
        "details": "Burns `tokenId`. See {ERC721-_burn}. Requirements: - The caller must own `tokenId` or be an approved operator."
      },
      "getApproved(uint256)": {
        "details": "See {IERC721-getApproved}."
      },
      "getRoleAdmin(bytes32)": {
        "details": "Returns the admin role that controls `role`. See {grantRole} and {revokeRole}. To change a role's admin, use {_setRoleAdmin}."
      },
      "getRoleMember(bytes32,uint256)": {
        "details": "Returns one of the accounts that have `role`. `index` must be a value between 0 and {getRoleMemberCount}, non-inclusive. Role bearers are not sorted in any particular way, and their ordering may change at any point. WARNING: When using {getRoleMember} and {getRoleMemberCount}, make sure you perform all queries on the same block. See the following https://forum.openzeppelin.com/t/iterating-over-elements-on-enumerableset-in-openzeppelin-contracts/2296[forum post] for more information."
      },
      "getRoleMemberCount(bytes32)": {
        "details": "Returns the number of accounts that have `role`. Can be used together with {getRoleMember} to enumerate all bearers of a role."
      },
      "grantRole(bytes32,address)": {
        "details": "Overload {grantRole} to track enumerable memberships"
      },
      "hasRole(bytes32,address)": {
        "details": "Returns `true` if `account` has been granted `role`."
      },
      "isApprovedForAll(address,address)": {
        "details": "See {IERC721-isApprovedForAll}."
      },
      "mint(address)": {
        "details": "Creates a new token for `to`. Its token ID will be automatically assigned (and available on the emitted {IERC721-Transfer} event), and the token URI autogenerated based on the base URI passed at construction. See {ERC721-_mint}. Requirements: - the caller must have the `MINTER_ROLE`."
      },
      "name()": {
        "details": "See {IERC721Metadata-name}."
      },
      "ownerOf(uint256)": {
        "details": "See {IERC721-ownerOf}."
      },
      "pause()": {
        "details": "Pauses all token transfers. See {ERC721Pausable} and {Pausable-_pause}. Requirements: - the caller must have the `PAUSER_ROLE`."
      },
      "paused()": {
        "details": "Returns true if the contract is paused, and false otherwise."
      },
      "renounceRole(bytes32,address)": {
        "details": "Overload {renounceRole} to track enumerable memberships"
      },
      "revokeRole(bytes32,address)": {
        "details": "Overload {revokeRole} to track enumerable memberships"
      },
      "safeTransferFrom(address,address,uint256)": {
        "details": "Safely transfers `tokenId` token from `from` to `to`, checking first that contract recipients are aware of the ERC721 protocol to prevent tokens from being forever locked. Requirements: - `from` cannot be the zero address. - `to` cannot be the zero address. - `tokenId` token must exist and be owned by `from`. - If the caller is not `from`, it must be have been allowed to move this token by either {approve} or {setApprovalForAll}. - If `to` refers to a smart contract, it must implement {IERC721Receiver-onERC721Received}, which is called upon a safe transfer. Emits a {Transfer} event."
      },
      "safeTransferFrom(address,address,uint256,bytes)": {
        "details": "See {IERC721-safeTransferFrom}."
      },
      "setApprovalForAll(address,bool)": {
        "details": "See {IERC721-setApprovalForAll}."
      },
      "supportsInterface(bytes4)": {
        "details": "See {IERC165-supportsInterface}."
      },
      "symbol()": {
        "details": "See {IERC721Metadata-symbol}."
      },
      "tokenByIndex(uint256)": {
        "details": "See {IERC721Enumerable-tokenByIndex}."
      },
      "tokenOfOwnerByIndex(address,uint256)": {
        "details": "See {IERC721Enumerable-tokenOfOwnerByIndex}."
      },
      "tokenURI(uint256)": {
        "details": "See {IERC721Metadata-tokenURI}."
      },
      "totalSupply()": {
        "details": "See {IERC721Enumerable-totalSupply}."
      },
      "transferFrom(address,address,uint256)": {
        "details": "See {IERC721-transferFrom}."
      },
      "unpause()": {
        "details": "Unpauses all token transfers. See {ERC721Pausable} and {Pausable-_unpause}. Requirements: - the caller must have the `PAUSER_ROLE`."
      }
    },
    "version": 1
  },
  "userdoc": {
    "kind": "user",
    "methods": {
      "getToken()": {
        "notice": "Getter and Setter of _token (ERC20)*"
      }
    },
    "version": 1
  }
}