{
  "contractName": "DVT",
  "abi": [
    {
      "inputs": [],
      "stateMutability": "nonpayable",
      "type": "constructor"
    },
    {
      "anonymous": false,
      "inputs": [
        {
          "indexed": true,
          "internalType": "address",
          "name": "owner",
          "type": "address"
        },
        {
          "indexed": true,
          "internalType": "address",
          "name": "approved",
          "type": "address"
        },
        {
          "indexed": true,
          "internalType": "uint256",
          "name": "tokenId",
          "type": "uint256"
        }
      ],
      "name": "Approval",
      "type": "event"
    },
    {
      "anonymous": false,
      "inputs": [
        {
          "indexed": true,
          "internalType": "address",
          "name": "owner",
          "type": "address"
        },
        {
          "indexed": true,
          "internalType": "address",
          "name": "operator",
          "type": "address"
        },
        {
          "indexed": false,
          "internalType": "bool",
          "name": "approved",
          "type": "bool"
        }
      ],
      "name": "ApprovalForAll",
      "type": "event"
    },
    {
      "anonymous": false,
      "inputs": [
        {
          "indexed": false,
          "internalType": "address",
          "name": "account",
          "type": "address"
        }
      ],
      "name": "Paused",
      "type": "event"
    },
    {
      "anonymous": false,
      "inputs": [
        {
          "indexed": true,
          "internalType": "bytes32",
          "name": "role",
          "type": "bytes32"
        },
        {
          "indexed": true,
          "internalType": "bytes32",
          "name": "previousAdminRole",
          "type": "bytes32"
        },
        {
          "indexed": true,
          "internalType": "bytes32",
          "name": "newAdminRole",
          "type": "bytes32"
        }
      ],
      "name": "RoleAdminChanged",
      "type": "event"
    },
    {
      "anonymous": false,
      "inputs": [
        {
          "indexed": true,
          "internalType": "bytes32",
          "name": "role",
          "type": "bytes32"
        },
        {
          "indexed": true,
          "internalType": "address",
          "name": "account",
          "type": "address"
        },
        {
          "indexed": true,
          "internalType": "address",
          "name": "sender",
          "type": "address"
        }
      ],
      "name": "RoleGranted",
      "type": "event"
    },
    {
      "anonymous": false,
      "inputs": [
        {
          "indexed": true,
          "internalType": "bytes32",
          "name": "role",
          "type": "bytes32"
        },
        {
          "indexed": true,
          "internalType": "address",
          "name": "account",
          "type": "address"
        },
        {
          "indexed": true,
          "internalType": "address",
          "name": "sender",
          "type": "address"
        }
      ],
      "name": "RoleRevoked",
      "type": "event"
    },
    {
      "anonymous": false,
      "inputs": [
        {
          "indexed": true,
          "internalType": "address",
          "name": "from",
          "type": "address"
        },
        {
          "indexed": true,
          "internalType": "address",
          "name": "to",
          "type": "address"
        },
        {
          "indexed": true,
          "internalType": "uint256",
          "name": "tokenId",
          "type": "uint256"
        }
      ],
      "name": "Transfer",
      "type": "event"
    },
    {
      "anonymous": false,
      "inputs": [
        {
          "indexed": false,
          "internalType": "address",
          "name": "account",
          "type": "address"
        }
      ],
      "name": "Unpaused",
      "type": "event"
    },
    {
      "inputs": [],
      "name": "DEFAULT_ADMIN_ROLE",
      "outputs": [
        {
          "internalType": "bytes32",
          "name": "",
          "type": "bytes32"
        }
      ],
      "stateMutability": "view",
      "type": "function",
      "constant": true
    },
    {
      "inputs": [],
      "name": "MINTER_ROLE",
      "outputs": [
        {
          "internalType": "bytes32",
          "name": "",
          "type": "bytes32"
        }
      ],
      "stateMutability": "view",
      "type": "function",
      "constant": true
    },
    {
      "inputs": [],
      "name": "PAUSER_ROLE",
      "outputs": [
        {
          "internalType": "bytes32",
          "name": "",
          "type": "bytes32"
        }
      ],
      "stateMutability": "view",
      "type": "function",
      "constant": true
    },
    {
      "inputs": [],
      "name": "_creatorComission",
      "outputs": [
        {
          "internalType": "uint8",
          "name": "",
          "type": "uint8"
        }
      ],
      "stateMutability": "view",
      "type": "function",
      "constant": true
    },
    {
      "inputs": [
        {
          "internalType": "address",
          "name": "to",
          "type": "address"
        },
        {
          "internalType": "uint256",
          "name": "tokenId",
          "type": "uint256"
        },
        {
          "internalType": "uint256",
          "name": "tokenAmount",
          "type": "uint256"
        }
      ],
      "name": "_mint",
      "outputs": [],
      "stateMutability": "nonpayable",
      "type": "function"
    },
    {
      "inputs": [
        {
          "internalType": "uint256",
          "name": "tokenId",
          "type": "uint256"
        },
        {
          "internalType": "address",
          "name": "to",
          "type": "address"
        }
      ],
      "name": "_spend",
      "outputs": [
        {
          "internalType": "bool",
          "name": "",
          "type": "bool"
        }
      ],
      "stateMutability": "nonpayable",
      "type": "function"
    },
    {
      "inputs": [
        {
          "internalType": "address",
          "name": "to",
          "type": "address"
        },
        {
          "internalType": "uint256",
          "name": "tokenId",
          "type": "uint256"
        }
      ],
      "name": "approve",
      "outputs": [],
      "stateMutability": "nonpayable",
      "type": "function"
    },
    {
      "inputs": [
        {
          "internalType": "address",
          "name": "owner",
          "type": "address"
        }
      ],
      "name": "balanceOf",
      "outputs": [
        {
          "internalType": "uint256",
          "name": "",
          "type": "uint256"
        }
      ],
      "stateMutability": "view",
      "type": "function",
      "constant": true
    },
    {
      "inputs": [
        {
          "internalType": "uint256",
          "name": "tokenId",
          "type": "uint256"
        }
      ],
      "name": "burn",
      "outputs": [],
      "stateMutability": "nonpayable",
      "type": "function"
    },
    {
      "inputs": [
        {
          "internalType": "uint256",
          "name": "tokenId",
          "type": "uint256"
        }
      ],
      "name": "deleteAuctionContract",
      "outputs": [],
      "stateMutability": "nonpayable",
      "type": "function"
    },
    {
      "inputs": [
        {
          "internalType": "uint256",
          "name": "tokenId",
          "type": "uint256"
        }
      ],
      "name": "getApproved",
      "outputs": [
        {
          "internalType": "address",
          "name": "",
          "type": "address"
        }
      ],
      "stateMutability": "view",
      "type": "function",
      "constant": true
    },
    {
      "inputs": [
        {
          "internalType": "uint256",
          "name": "tokenId",
          "type": "uint256"
        }
      ],
      "name": "getAuctionContract",
      "outputs": [
        {
          "internalType": "contract Auction",
          "name": "",
          "type": "address"
        }
      ],
      "stateMutability": "view",
      "type": "function",
      "constant": true
    },
    {
      "inputs": [
        {
          "internalType": "uint256",
          "name": "tokenId",
          "type": "uint256"
        }
      ],
      "name": "getCreator",
      "outputs": [
        {
          "internalType": "address",
          "name": "",
          "type": "address"
        }
      ],
      "stateMutability": "view",
      "type": "function",
      "constant": true
    },
    {
      "inputs": [
        {
          "internalType": "bytes32",
          "name": "role",
          "type": "bytes32"
        }
      ],
      "name": "getRoleAdmin",
      "outputs": [
        {
          "internalType": "bytes32",
          "name": "",
          "type": "bytes32"
        }
      ],
      "stateMutability": "view",
      "type": "function",
      "constant": true
    },
    {
      "inputs": [
        {
          "internalType": "bytes32",
          "name": "role",
          "type": "bytes32"
        },
        {
          "internalType": "uint256",
          "name": "index",
          "type": "uint256"
        }
      ],
      "name": "getRoleMember",
      "outputs": [
        {
          "internalType": "address",
          "name": "",
          "type": "address"
        }
      ],
      "stateMutability": "view",
      "type": "function",
      "constant": true
    },
    {
      "inputs": [
        {
          "internalType": "bytes32",
          "name": "role",
          "type": "bytes32"
        }
      ],
      "name": "getRoleMemberCount",
      "outputs": [
        {
          "internalType": "uint256",
          "name": "",
          "type": "uint256"
        }
      ],
      "stateMutability": "view",
      "type": "function",
      "constant": true
    },
    {
      "inputs": [],
      "name": "getToken",
      "outputs": [
        {
          "internalType": "contract ERC20",
          "name": "",
          "type": "address"
        }
      ],
      "stateMutability": "view",
      "type": "function",
      "constant": true
    },
    {
      "inputs": [
        {
          "internalType": "bytes32",
          "name": "role",
          "type": "bytes32"
        },
        {
          "internalType": "address",
          "name": "account",
          "type": "address"
        }
      ],
      "name": "grantRole",
      "outputs": [],
      "stateMutability": "nonpayable",
      "type": "function"
    },
    {
      "inputs": [
        {
          "internalType": "bytes32",
          "name": "role",
          "type": "bytes32"
        },
        {
          "internalType": "address",
          "name": "account",
          "type": "address"
        }
      ],
      "name": "hasRole",
      "outputs": [
        {
          "internalType": "bool",
          "name": "",
          "type": "bool"
        }
      ],
      "stateMutability": "view",
      "type": "function",
      "constant": true
    },
    {
      "inputs": [
        {
          "internalType": "address",
          "name": "owner",
          "type": "address"
        },
        {
          "internalType": "address",
          "name": "operator",
          "type": "address"
        }
      ],
      "name": "isApprovedForAll",
      "outputs": [
        {
          "internalType": "bool",
          "name": "",
          "type": "bool"
        }
      ],
      "stateMutability": "view",
      "type": "function",
      "constant": true
    },
    {
      "inputs": [
        {
          "internalType": "address",
          "name": "to",
          "type": "address"
        },
        {
          "internalType": "uint256",
          "name": "tokenAmount",
          "type": "uint256"
        }
      ],
      "name": "mint",
      "outputs": [],
      "stateMutability": "nonpayable",
      "type": "function"
    },
    {
      "inputs": [],
      "name": "name",
      "outputs": [
        {
          "internalType": "string",
          "name": "",
          "type": "string"
        }
      ],
      "stateMutability": "view",
      "type": "function",
      "constant": true
    },
    {
      "inputs": [
        {
          "internalType": "uint256",
          "name": "tokenId",
          "type": "uint256"
        }
      ],
      "name": "ownerOf",
      "outputs": [
        {
          "internalType": "address",
          "name": "",
          "type": "address"
        }
      ],
      "stateMutability": "view",
      "type": "function",
      "constant": true
    },
    {
      "inputs": [],
      "name": "pause",
      "outputs": [],
      "stateMutability": "nonpayable",
      "type": "function"
    },
    {
      "inputs": [],
      "name": "paused",
      "outputs": [
        {
          "internalType": "bool",
          "name": "",
          "type": "bool"
        }
      ],
      "stateMutability": "view",
      "type": "function",
      "constant": true
    },
    {
      "inputs": [
        {
          "internalType": "bytes32",
          "name": "role",
          "type": "bytes32"
        },
        {
          "internalType": "address",
          "name": "account",
          "type": "address"
        }
      ],
      "name": "renounceRole",
      "outputs": [],
      "stateMutability": "nonpayable",
      "type": "function"
    },
    {
      "inputs": [
        {
          "internalType": "bytes32",
          "name": "role",
          "type": "bytes32"
        },
        {
          "internalType": "address",
          "name": "account",
          "type": "address"
        }
      ],
      "name": "revokeRole",
      "outputs": [],
      "stateMutability": "nonpayable",
      "type": "function"
    },
    {
      "inputs": [
        {
          "internalType": "address",
          "name": "from",
          "type": "address"
        },
        {
          "internalType": "address",
          "name": "to",
          "type": "address"
        },
        {
          "internalType": "uint256",
          "name": "tokenId",
          "type": "uint256"
        }
      ],
      "name": "safeTransferFrom",
      "outputs": [],
      "stateMutability": "nonpayable",
      "type": "function"
    },
    {
      "inputs": [
        {
          "internalType": "address",
          "name": "from",
          "type": "address"
        },
        {
          "internalType": "address",
          "name": "to",
          "type": "address"
        },
        {
          "internalType": "uint256",
          "name": "tokenId",
          "type": "uint256"
        },
        {
          "internalType": "bytes",
          "name": "_data",
          "type": "bytes"
        }
      ],
      "name": "safeTransferFrom",
      "outputs": [],
      "stateMutability": "nonpayable",
      "type": "function"
    },
    {
      "inputs": [
        {
          "internalType": "address",
          "name": "operator",
          "type": "address"
        },
        {
          "internalType": "bool",
          "name": "approved",
          "type": "bool"
        }
      ],
      "name": "setApprovalForAll",
      "outputs": [],
      "stateMutability": "nonpayable",
      "type": "function"
    },
    {
      "inputs": [
        {
          "internalType": "uint256",
          "name": "tokenId",
          "type": "uint256"
        },
        {
          "internalType": "contract Auction",
          "name": "auctionAddress",
          "type": "address"
        }
      ],
      "name": "setAuctionContract",
      "outputs": [],
      "stateMutability": "nonpayable",
      "type": "function"
    },
    {
      "inputs": [
        {
          "internalType": "address",
          "name": "tokenAddress",
          "type": "address"
        }
      ],
      "name": "setToken",
      "outputs": [],
      "stateMutability": "nonpayable",
      "type": "function"
    },
    {
      "inputs": [
        {
          "internalType": "uint256",
          "name": "tokenId",
          "type": "uint256"
        },
        {
          "internalType": "uint256",
          "name": "time",
          "type": "uint256"
        }
      ],
      "name": "startAuction",
      "outputs": [],
      "stateMutability": "nonpayable",
      "type": "function"
    },
    {
      "inputs": [
        {
          "internalType": "bytes4",
          "name": "interfaceId",
          "type": "bytes4"
        }
      ],
      "name": "supportsInterface",
      "outputs": [
        {
          "internalType": "bool",
          "name": "",
          "type": "bool"
        }
      ],
      "stateMutability": "view",
      "type": "function",
      "constant": true
    },
    {
      "inputs": [],
      "name": "symbol",
      "outputs": [
        {
          "internalType": "string",
          "name": "",
          "type": "string"
        }
      ],
      "stateMutability": "view",
      "type": "function",
      "constant": true
    },
    {
      "inputs": [
        {
          "internalType": "uint256",
          "name": "index",
          "type": "uint256"
        }
      ],
      "name": "tokenByIndex",
      "outputs": [
        {
          "internalType": "uint256",
          "name": "",
          "type": "uint256"
        }
      ],
      "stateMutability": "view",
      "type": "function",
      "constant": true
    },
    {
      "inputs": [
        {
          "internalType": "address",
          "name": "owner",
          "type": "address"
        },
        {
          "internalType": "uint256",
          "name": "index",
          "type": "uint256"
        }
      ],
      "name": "tokenOfOwnerByIndex",
      "outputs": [
        {
          "internalType": "uint256",
          "name": "",
          "type": "uint256"
        }
      ],
      "stateMutability": "view",
      "type": "function",
      "constant": true
    },
    {
      "inputs": [
        {
          "internalType": "uint256",
          "name": "tokenId",
          "type": "uint256"
        }
      ],
      "name": "tokenURI",
      "outputs": [
        {
          "internalType": "string",
          "name": "",
          "type": "string"
        }
      ],
      "stateMutability": "view",
      "type": "function",
      "constant": true
    },
    {
      "inputs": [],
      "name": "totalSupply",
      "outputs": [
        {
          "internalType": "uint256",
          "name": "",
          "type": "uint256"
        }
      ],
      "stateMutability": "view",
      "type": "function",
      "constant": true
    },
    {
      "inputs": [
        {
          "internalType": "address",
          "name": "from",
          "type": "address"
        },
        {
          "internalType": "address",
          "name": "to",
          "type": "address"
        },
        {
          "internalType": "uint256",
          "name": "tokenId",
          "type": "uint256"
        }
      ],
      "name": "transferFrom",
      "outputs": [],
      "stateMutability": "nonpayable",
      "type": "function"
    },
    {
      "inputs": [],
      "name": "unpause",
      "outputs": [],
      "stateMutability": "nonpayable",
      "type": "function"
    }
  ],
  "bytecode": "0x60806040526005805460a060020a60ff021916740a00000000000000000000000000000000000000001790553480156200003857600080fd5b506040518060400160405280600d81526020017f446176696e636920546f6b656e000000000000000000000000000000000000008152506040518060400160405280600381526020017f44565400000000000000000000000000000000000000000000000000000000008152506040518060400160405280601e81526020017f68747470733a2f2f646176696e63692e636f6d2f6170692f746f6b656e2f000081525082828160039080519060200190620000f5929190620003a3565b5080516200010b906004906020840190620003a3565b505060058054600160a060020a03191633179055506010805460ff1916905580516200013f906012906020840190620003a3565b5062000168600062000159640100000000620001e1810204565b640100000000620001e5810204565b620001a07f9f2df0fed2c77648de5860a4cc508cd0818c85b8b8a1ab4ceeef8d981c8956a662000159640100000000620001e1810204565b620001d87f65d7a28e3265b37a6474929f336521b332c1681b933f6cb9f3376673440d862a62000159640100000000620001e1810204565b5050506200049f565b3390565b620001ff8282640100000000620012cd6200022c82021704565b6000828152600160205260409020620002279082640100000000620012d96200024582021704565b505050565b6200024182826401000000006200026e810204565b5050565b60006200026583600160a060020a0384166401000000006200030a810204565b90505b92915050565b62000283828264010000000062000362810204565b6200024157600082815260208181526040808320600160a060020a03851684529091529020805460ff19166001179055620002c6640100000000620001e1810204565b600160a060020a031681600160a060020a0316837f2f8788117e7eff1d82e926ec794901d17c78024a50270940304540a733656f0d60405160405180910390a45050565b60006200032183836401000000006200038b810204565b620003595750815460018181018455600084815260208082209093018490558454848252828601909352604090209190915562000268565b50600062000268565b600091825260208281526040808420600160a060020a0393909316845291905290205460ff1690565b60009081526001919091016020526040902054151590565b828054620003b19062000449565b90600052602060002090601f016020900481019282620003d5576000855562000420565b82601f10620003f057805160ff191683800117855562000420565b8280016001018555821562000420579182015b828111156200042057825182559160200191906001019062000403565b506200042e92915062000432565b5090565b5b808211156200042e576000815560010162000433565b6002810460018216806200045e57607f821691505b6020821081141562000499577f4e487b7100000000000000000000000000000000000000000000000000000000600052602260045260246000fd5b50919050565b6145ac80620004af6000396000f3fe60806040523480156200001157600080fd5b5060043610620002a9576000357c0100000000000000000000000000000000000000000000000000000000900480636e8e78db1162000182578063a22cb46511620000f2578063d539139311620000b0578063d539139314620005b4578063d547741f14620005be578063e506dfbe14620005d5578063e63ab1e914620005ec578063e985e9c514620005f6578063fc9b5fc8146200060d57620002a9565b8063a22cb4651462000541578063b88d4fde1462000558578063c87b56dd146200056f578063ca15c8731462000586578063d48e638a146200059d57620002a9565b806391d14854116200014057806391d1485414620004e85780639564470e14620004ff57806395d89b41146200051657806396e392d31462000520578063a217fddf146200053757620002a9565b80636e8e78db146200048057806370a0823114620004995780637776afa014620004b05780638456cb5914620004c75780639010d07c14620004d157620002a9565b80632f745c59116200021e57806342966c6811620001dc57806342966c68146200041a5780634f6ccce714620004315780634fee13fc14620004485780635c975abb146200045f5780636352211e146200046957620002a9565b80632f745c5914620003b457806336568abe14620003cb5780633f4ba83a14620003e257806340c10f1914620003ec57806342842e0e146200040357620002a9565b806318160ddd116200026c57806318160ddd146200034c57806321df0da7146200036557806323b872dd146200036f578063248a9ca314620003865780632f2ff15d146200039d57620002a9565b806301ffc9a714620002ae57806306fdde0314620002dd578063081812fc14620002f6578063095ea7b3146200031c578063144fa6d71462000335575b600080fd5b620002c5620002bf36600462002777565b62000624565b604051620002d4919062002906565b60405180910390f35b620002e762000639565b604051620002d491906200291a565b6200030d6200030736600462002715565b620006d3565b604051620002d491906200289b565b620003336200032d36600462002691565b62000727565b005b6200033362000346366004620024e0565b620007d5565b6200035662000827565b604051620002d4919062002911565b6200030d6200082d565b62000333620003803660046200253c565b6200083c565b620003566200039736600462002715565b62000880565b62000333620003ae3660046200272e565b62000895565b62000356620003c536600462002691565b620008bb565b62000333620003dc3660046200272e565b62000918565b620003336200093e565b62000333620003fd36600462002691565b6200099b565b62000333620004143660046200253c565b62000a14565b620003336200042b36600462002715565b62000a31565b620003566200044236600462002715565b62000a6f565b620003336200045936600462002755565b62000ad6565b620002c562000c4a565b6200030d6200047a36600462002715565b62000c53565b6200048a62000c8e565b604051620002d4919062003245565b62000356620004aa366004620024e0565b62000caf565b62000333620004c1366004620026bf565b62000cf9565b6200033362000eac565b6200030d620004e236600462002755565b62000f07565b620002c5620004f93660046200272e565b62000f28565b620002c5620005103660046200272e565b62000f51565b620002e762000f69565b620003336200053136600462002715565b62000f7a565b6200035662000fd4565b62000333620005523660046200265f565b62000fd9565b620003336200056936600462002581565b620010b5565b620002e76200058036600462002715565b62001100565b620003566200059736600462002715565b62001192565b6200030d620005ae36600462002715565b620011ab565b62000356620011c6565b62000333620005cf3660046200272e565b620011ea565b6200030d620005e636600462002715565b620011f6565b6200035662001211565b620002c562000607366004620024ff565b62001235565b620003336200061e3660046200272e565b62001263565b60006200063182620012f0565b90505b919050565b6060600380546200064a906200330a565b80601f016020809104026020016040519081016040528092919081815260200182805462000678906200330a565b8015620006c95780601f106200069d57610100808354040283529160200191620006c9565b820191906000526020600020905b815481529060010190602001808311620006ab57829003601f168201915b5050505050905090565b6000620006e08262001331565b6200070b5760405160e560020a62461bcd028152600401620007029062002e5d565b60405180910390fd5b50600090815260096020526040902054600160a060020a031690565b6000620007348262000c53565b905080600160a060020a031683600160a060020a031614156200076e5760405160e560020a62461bcd028152600401620007029062002f74565b80600160a060020a0316620007826200134e565b600160a060020a03161480620007a25750620007a281620006076200134e565b620007c45760405160e560020a62461bcd028152600401620007029062002c6e565b620007d0838362001352565b505050565b600554600160a060020a03163314620008055760405160e560020a62461bcd028152600401620007029062002dbc565b60028054600160a060020a031916600160a060020a0392909216919091179055565b600e5490565b600254600160a060020a031690565b620008516200084a6200134e565b82620013c2565b620008735760405160e560020a62461bcd028152600401620007029062002fd1565b620007d083838362001457565b60009081526020819052604090206001015490565b620008a182826200159a565b6000828152600160205260409020620007d09082620012d9565b6000620008c88362000caf565b8210620008ec5760405160e560020a62461bcd0281526004016200070290620029f8565b50600160a060020a0382166000908152600c602090815260408083208484529091529020545b92915050565b620009248282620015c6565b6000828152600160205260409020620007d0908262001612565b6200096d7f65d7a28e3265b37a6474929f336521b332c1681b933f6cb9f3376673440d862a620004f96200134e565b6200098f5760405160e560020a62461bcd028152600401620007029062003145565b6200099962001629565b565b620009ca7f9f2df0fed2c77648de5860a4cc508cd0818c85b8b8a1ab4ceeef8d981c8956a6620004f96200134e565b620009ec5760405160e560020a62461bcd02815260040162000702906200308b565b62000a0482620009fd6011620016a3565b8362000cf9565b62000a106011620016a7565b5050565b620007d083838360405180602001604052806000815250620010b5565b62000a3f6200084a6200134e565b62000a615760405160e560020a62461bcd0281526004016200070290620030e8565b62000a6c81620016b0565b50565b600062000a7b62000827565b821062000a9f5760405160e560020a62461bcd02815260040162000702906200302e565b600e828154811062000ac45760e060020a634e487b7102600052603260045260246000fd5b90600052602060002001549050919050565b600082815260066020526040902054600160a060020a0316331462000b125760405160e560020a62461bcd028152600401620007029062002d85565b60008281526006602052604090819020546002549151309285928592600160a060020a039182169290911690859062000b4b90620024d2565b62000b5b95949392919062003217565b604051809103906000f08015801562000b78573d6000803e3d6000fd5b506000848152600b602052604090208054600160a060020a031916600160a060020a03928316179081905562000bb2913391168562000a14565b6002546000848152600b6020526040908190205490517f746e8e70000000000000000000000000000000000000000000000000000000008152600160a060020a039283169263746e8e709262000c119288929091169060040162003200565b600060405180830381600087803b15801562000c2c57600080fd5b505af115801562000c41573d6000803e3d6000fd5b50505050505050565b60105460ff1690565b600081815260066020526040812054600160a060020a031680620006315760405160e560020a62461bcd028152600401620007029062002d28565b60055474010000000000000000000000000000000000000000900460ff1681565b6000600160a060020a03821662000cdd5760405160e560020a62461bcd028152600401620007029062002ccb565b50600160a060020a031660009081526008602052604090205490565b600160a060020a03831662000d255760405160e560020a62461bcd028152600401620007029062002e28565b62000d308262001331565b1562000d535760405160e560020a62461bcd028152600401620007029062002ab2565b6000811162000d6157600080fd5b6002546040517f6aade288000000000000000000000000000000000000000000000000000000008152600160a060020a0390911690636aade2889062000dae9086908590600401620028ed565b602060405180830381600087803b15801562000dc957600080fd5b505af115801562000dde573d6000803e3d6000fd5b505050506040513d601f19601f8201168201806040525081019062000e049190620026f6565b62000e0e57600080fd5b600160a060020a038316600090815260086020526040812080546001929062000e3990849062003253565b909155505060008281526006602090815260408083208054600160a060020a038816600160a060020a03199182168117909255600790935281842080549093168117909255518492907fddf252ad1be2c89b69c2b068fc378daa952ba7f163c4a11628f55a4df523b3ef908290a4505050565b62000edb7f65d7a28e3265b37a6474929f336521b332c1681b933f6cb9f3376673440d862a620004f96200134e565b62000efd5760405160e560020a62461bcd028152600401620007029062002ae9565b6200099962001751565b600082815260016020526040812062000f219083620017b6565b9392505050565b600091825260208281526040808420600160a060020a0393909316845291905290205460ff1690565b600062000f6033838562000a14565b50600192915050565b6060600480546200064a906200330a565b600081815260066020526040902054600160a060020a0316331462000fb65760405160e560020a62461bcd028152600401620007029062002df3565b6000908152600b602052604090208054600160a060020a0319169055565b600081565b62000fe36200134e565b600160a060020a031682600160a060020a031614156200101a5760405160e560020a62461bcd028152600401620007029062002ba3565b80600a6000620010296200134e565b600160a060020a03908116825260208083019390935260409182016000908120918716808252919093529120805460ff1916921515929092179091556200106f6200134e565b600160a060020a03167f17307eab39ab6107e8899845ad3d59bd9653f200f220920489ca2b5937696c3183604051620010a9919062002906565b60405180910390a35050565b620010ca620010c36200134e565b83620013c2565b620010ec5760405160e560020a62461bcd028152600401620007029062002fd1565b620010fa84848484620017c4565b50505050565b60606200110d8262001331565b6200112f5760405160e560020a62461bcd028152600401620007029062002f17565b60006200113b62001801565b905060008151116200115d576040518060200160405280600081525062000f21565b80620011698462001812565b6040516020016200117c929190620027e3565b6040516020818303038152906040529392505050565b6000818152600160205260408120620006319062001983565b600090815260076020526040902054600160a060020a031690565b7f9f2df0fed2c77648de5860a4cc508cd0818c85b8b8a1ab4ceeef8d981c8956a681565b62000924828262001990565b6000908152600b6020526040902054600160a060020a031690565b7f65d7a28e3265b37a6474929f336521b332c1681b933f6cb9f3376673440d862a81565b600160a060020a039182166000908152600a6020908152604080832093909416825291909152205460ff1690565b600082815260066020526040902054600160a060020a031633146200129f5760405160e560020a62461bcd028152600401620007029062002d85565b6000918252600b60205260409091208054600160a060020a031916600160a060020a03909216919091179055565b62000a108282620019b6565b600062000f2183600160a060020a03841662001a40565b6000600160e060020a031982167f780e9d63000000000000000000000000000000000000000000000000000000001480620006315750620006318262001a8f565b600090815260066020526040902054600160a060020a0316151590565b3390565b60008181526009602052604090208054600160a060020a031916600160a060020a0384169081179091558190620013898262000c53565b600160a060020a03167f8c5be1e5ebec7d5bd14f71427d1e84f3dd0314c0f7b2291e5b200ac8c7c3b92560405160405180910390a45050565b6000620013cf8262001331565b620013f15760405160e560020a62461bcd028152600401620007029062002bda565b6000620013fe8362000c53565b905080600160a060020a031684600160a060020a031614806200143c575083600160a060020a03166200143184620006d3565b600160a060020a0316145b806200144f57506200144f818562001235565b949350505050565b82600160a060020a03166200146c8262000c53565b600160a060020a031614620014985760405160e560020a62461bcd028152600401620007029062002eba565b600160a060020a038216620014c45760405160e560020a62461bcd028152600401620007029062002b46565b620014d183838362001b05565b620014de60008262001352565b600160a060020a038316600090815260086020526040812080546001929062001509908490620032a7565b9091555050600160a060020a03821660009081526008602052604081208054600192906200153990849062003253565b90915550506000818152600660205260408082208054600160a060020a031916600160a060020a0386811691821790925591518493918716917fddf252ad1be2c89b69c2b068fc378daa952ba7f163c4a11628f55a4df523b3ef91a4505050565b620015a58262000880565b620015ba81620015b46200134e565b62001b12565b620007d08383620019b6565b620015d06200134e565b600160a060020a031681600160a060020a031614620016065760405160e560020a62461bcd0281526004016200070290620031a3565b62000a10828262001b84565b600062000f2183600160a060020a03841662001c0c565b6200163362000c4a565b620016555760405160e560020a62461bcd0281526004016200070290620029c1565b6010805460ff191690557f5db9ee0a495bf2e6ff9c91a7834c1ba4fdd244a5e8aa4e537bd38aeae4b073aa6200168a6200134e565b6040516200169991906200289b565b60405180910390a1565b5490565b80546001019055565b6000620016bd8262000c53565b9050620016cc60008362001352565b600160a060020a0381166000908152600860205260408120805460019290620016f7908490620032a7565b90915550506000828152600660205260408082208054600160a060020a031916905551839190600160a060020a038416907fddf252ad1be2c89b69c2b068fc378daa952ba7f163c4a11628f55a4df523b3ef908390a45050565b6200175b62000c4a565b156200177e5760405160e560020a62461bcd028152600401620007029062002c37565b6010805460ff191660011790557f62e78cea01bee320cd4e420270b5ea74000d11b0c9f74754ebdbfc544b05a2586200168a6200134e565b600062000f21838362001d3d565b620017d184848462001457565b620017df8484848462001d79565b620010fa5760405160e560020a62461bcd028152600401620007029062002a55565b6060601280546200064a906200330a565b60608162001855575060408051808201909152600181527f3000000000000000000000000000000000000000000000000000000000000000602082015262000634565b8160005b81156200188557806200186c816200334a565b91506200187d9050600a836200326e565b915062001859565b60008167ffffffffffffffff811115620018b25760e060020a634e487b7102600052604160045260246000fd5b6040519080825280601f01601f191660200182016040528015620018dd576020820181803683370190505b5090505b84156200144f57620018f5600183620032a7565b915062001904600a8662003368565b6200191190603062003253565b7f010000000000000000000000000000000000000000000000000000000000000002818381518110620019575760e060020a634e487b7102600052603260045260246000fd5b6020010190600160f860020a031916908160001a9053506200197b600a866200326e565b9450620018e1565b60006200063182620016a3565b6200199b8262000880565b620019aa81620015b46200134e565b620007d0838362001b84565b620019c2828262000f28565b62000a1057600082815260208181526040808320600160a060020a03851684529091529020805460ff19166001179055620019fc6200134e565b600160a060020a031681600160a060020a0316837f2f8788117e7eff1d82e926ec794901d17c78024a50270940304540a733656f0d60405160405180910390a45050565b600062001a4e838362001ede565b62001a865750815460018181018455600084815260208082209093018490558454848252828601909352604090209190915562000912565b50600062000912565b6000600160e060020a031982167f80ac58cd00000000000000000000000000000000000000000000000000000000148062001af35750600160e060020a031982167f5b5e139f00000000000000000000000000000000000000000000000000000000145b80620006315750620006318262001ef6565b620007d083838362001f37565b62001b1e828262000f28565b62000a105762001b3981600160a060020a0316601462001f71565b62001b4683602062001f71565b60405160200162001b5992919062002816565b60408051601f198184030181529082905260e560020a62461bcd02825262000702916004016200291a565b62001b90828262000f28565b1562000a1057600082815260208181526040808320600160a060020a03851684529091529020805460ff1916905562001bc86200134e565b600160a060020a031681600160a060020a0316837ff6391f5c32d9c69d2a47ea670b442974b53935d1edc7fd64eb21e047a839171b60405160405180910390a45050565b6000818152600183016020526040812054801562001d3257600062001c33600183620032a7565b855490915060009062001c4990600190620032a7565b905081811462001cd357600086600001828154811062001c7c5760e060020a634e487b7102600052603260045260246000fd5b906000526020600020015490508087600001848154811062001cb15760e060020a634e487b7102600052603260045260246000fd5b6000918252602080832090910192909255918252600188019052604090208390555b855486908062001cf65760e060020a634e487b7102600052603160045260246000fd5b60019003818190600052602060002001600090559055856001016000868152602001908152602001600020600090556001935050505062000912565b600091505062000912565b600082600001828154811062001d665760e060020a634e487b7102600052603260045260246000fd5b9060005260206000200154905092915050565b600062001d8f84600160a060020a0316620021ad565b1562001ed35783600160a060020a031663150b7a0262001dae6200134e565b8786866040518563ffffffff167c010000000000000000000000000000000000000000000000000000000002815260040162001dee9493929190620028af565b602060405180830381600087803b15801562001e0957600080fd5b505af192505050801562001e3c575060408051601f3d908101601f1916820190925262001e399181019062002796565b60015b62001e9f573d80801562001e6d576040519150601f19603f3d011682016040523d82523d6000602084013e62001e72565b606091505b50805162001e975760405160e560020a62461bcd028152600401620007029062002a55565b805181602001fd5b600160e060020a0319167f150b7a02000000000000000000000000000000000000000000000000000000001490506200144f565b506001949350505050565b60009081526001919091016020526040902054151590565b6000600160e060020a031982167f5a05180f0000000000000000000000000000000000000000000000000000000014806200063157506200063182620021b3565b62001f44838383620021f4565b62001f4e62000c4a565b15620007d05760405160e560020a62461bcd028152600401620007029062002964565b6060600062001f8283600262003285565b62001f8f90600262003253565b67ffffffffffffffff81111562001fb95760e060020a634e487b7102600052604160045260246000fd5b6040519080825280601f01601f19166020018201604052801562001fe4576020820181803683370190505b5090507f3000000000000000000000000000000000000000000000000000000000000000816000815181106200202d5760e060020a634e487b7102600052603260045260246000fd5b6020010190600160f860020a031916908160001a9053507f7800000000000000000000000000000000000000000000000000000000000000816001815181106200208a5760e060020a634e487b7102600052603260045260246000fd5b6020010190600160f860020a031916908160001a9053506000620020b084600262003285565b620020bd90600162003253565b90505b600181111562002188577f303132333435363738396162636465660000000000000000000000000000000085600f1660108110620021115760e060020a634e487b7102600052603260045260246000fd5b1a7f010000000000000000000000000000000000000000000000000000000000000002828281518110620021585760e060020a634e487b7102600052603260045260246000fd5b6020010190600160f860020a031916908160001a9053506010909404936200218081620032f0565b9050620020c0565b50831562000f215760405160e560020a62461bcd02815260040162000702906200292f565b3b151590565b6000600160e060020a031982167f7965db0b00000000000000000000000000000000000000000000000000000000148062000631575062000631826200228d565b62002201838383620007d0565b600160a060020a03831662002221576200221b81620022bf565b62002247565b81600160a060020a031683600160a060020a031614620022475762002247838262002303565b600160a060020a03821662002267576200226181620023a5565b620007d0565b82600160a060020a031682600160a060020a031614620007d057620007d082826200248c565b600160e060020a031981167f01ffc9a70000000000000000000000000000000000000000000000000000000014919050565b600e80546000838152600f60205260408120829055600182018355919091527fbb7b4a454dc3493923482f07822329ed19e8244eff582cc204f8554c3620c3fd0155565b60006001620023128462000caf565b6200231e9190620032a7565b6000838152600d60205260409020549091508082146200237257600160a060020a0384166000908152600c602090815260408083208584528252808320548484528184208190558352600d90915290208190555b506000918252600d60209081526040808420849055600160a060020a039094168352600c81528383209183525290812055565b600e54600090620023b990600190620032a7565b6000838152600f6020526040812054600e8054939450909284908110620023f35760e060020a634e487b7102600052603260045260246000fd5b9060005260206000200154905080600e8381548110620024265760e060020a634e487b7102600052603260045260246000fd5b6000918252602080832090910192909255828152600f9091526040808220849055858252812055600e805480620024705760e060020a634e487b7102600052603160045260246000fd5b6001900381819060005260206000200160009055905550505050565b6000620024998362000caf565b600160a060020a039093166000908152600c602090815260408083208684528252808320859055938252600d9052919091209190915550565b611170806200340783390190565b600060208284031215620024f2578081fd5b813562000f2181620033ca565b6000806040838503121562002512578081fd5b82356200251f81620033ca565b915060208301356200253181620033ca565b809150509250929050565b60008060006060848603121562002551578081fd5b83356200255e81620033ca565b925060208401356200257081620033ca565b929592945050506040919091013590565b6000806000806080858703121562002597578081fd5b8435620025a481620033ca565b9350602085810135620025b781620033ca565b935060408601359250606086013567ffffffffffffffff80821115620025db578384fd5b818801915088601f830112620025ef578384fd5b813581811115620026045762002604620033b1565b604051601f8201601f19168101850183811182821017156200262a576200262a620033b1565b60405281815283820185018b101562002641578586fd5b81858501868301379081019093019390935250939692955090935050565b6000806040838503121562002672578182fd5b82356200267f81620033ca565b915060208301356200253181620033e0565b60008060408385031215620026a4578182fd5b8235620026b181620033ca565b946020939093013593505050565b600080600060608486031215620026d4578283fd5b8335620026e181620033ca565b95602085013595506040909401359392505050565b60006020828403121562002708578081fd5b815162000f2181620033e0565b60006020828403121562002727578081fd5b5035919050565b6000806040838503121562002741578182fd5b8235915060208301356200253181620033ca565b6000806040838503121562002768578182fd5b50508035926020909101359150565b60006020828403121562002789578081fd5b813562000f2181620033ef565b600060208284031215620027a8578081fd5b815162000f2181620033ef565b60008151808452620027cf816020860160208601620032c1565b601f01601f19169290920160200192915050565b60008351620027f7818460208801620032c1565b8351908301906200280d818360208801620032c1565b01949350505050565b60007f416363657373436f6e74726f6c3a206163636f756e74200000000000000000008252835162002850816017850160208801620032c1565b7f206973206d697373696e6720726f6c652000000000000000000000000000000060179184019182015283516200288f816028840160208801620032c1565b01602801949350505050565b600160a060020a0391909116815260200190565b6000600160a060020a03808716835280861660208401525083604083015260806060830152620028e36080830184620027b5565b9695505050505050565b600160a060020a03929092168252602082015260400190565b901515815260200190565b90815260200190565b60006020825262000f216020830184620027b5565b6020808252818101527f537472696e67733a20686578206c656e67746820696e73756666696369656e74604082015260600190565b6020808252602b908201527f4552433732315061757361626c653a20746f6b656e207472616e73666572207760408201527f68696c6520706175736564000000000000000000000000000000000000000000606082015260800190565b60208082526014908201527f5061757361626c653a206e6f7420706175736564000000000000000000000000604082015260600190565b6020808252602b908201527f455243373231456e756d657261626c653a206f776e657220696e646578206f7560408201527f74206f6620626f756e6473000000000000000000000000000000000000000000606082015260800190565b60208082526032908201527f4552433732313a207472616e7366657220746f206e6f6e20455243373231526560408201527f63656976657220696d706c656d656e7465720000000000000000000000000000606082015260800190565b6020808252601c908201527f4552433732313a20746f6b656e20616c7265616479206d696e74656400000000604082015260600190565b6020808252603e908201527f4552433732315072657365744d696e7465725061757365724175746f49643a2060408201527f6d75737420686176652070617573657220726f6c6520746f2070617573650000606082015260800190565b60208082526024908201527f4552433732313a207472616e7366657220746f20746865207a65726f2061646460408201527f7265737300000000000000000000000000000000000000000000000000000000606082015260800190565b60208082526019908201527f4552433732313a20617070726f766520746f2063616c6c657200000000000000604082015260600190565b6020808252602c908201527f4552433732313a206f70657261746f7220717565727920666f72206e6f6e657860408201527f697374656e7420746f6b656e0000000000000000000000000000000000000000606082015260800190565b60208082526010908201527f5061757361626c653a2070617573656400000000000000000000000000000000604082015260600190565b60208082526038908201527f4552433732313a20617070726f76652063616c6c6572206973206e6f74206f7760408201527f6e6572206e6f7220617070726f76656420666f7220616c6c0000000000000000606082015260800190565b6020808252602a908201527f4552433732313a2062616c616e636520717565727920666f7220746865207a6560408201527f726f206164647265737300000000000000000000000000000000000000000000606082015260800190565b60208082526029908201527f4552433732313a206f776e657220717565727920666f72206e6f6e657869737460408201527f656e7420746f6b656e0000000000000000000000000000000000000000000000606082015260800190565b6020808252601b908201527f63616e206f6e6c792062652063616c6c6564206279204f776e65720000000000604082015260600190565b6020808252601f908201527f63616e2062652063616c6c656420627920436f6e7472616374204f776e657200604082015260600190565b6020808252818101527f63616e206f6e6c792063616c6c65642062792041756374696f6e2f4f776e6572604082015260600190565b6020808252818101527f4552433732313a206d696e7420746f20746865207a65726f2061646472657373604082015260600190565b6020808252602c908201527f4552433732313a20617070726f76656420717565727920666f72206e6f6e657860408201527f697374656e7420746f6b656e0000000000000000000000000000000000000000606082015260800190565b60208082526029908201527f4552433732313a207472616e73666572206f6620746f6b656e2074686174206960408201527f73206e6f74206f776e0000000000000000000000000000000000000000000000606082015260800190565b6020808252602f908201527f4552433732314d657461646174613a2055524920717565727920666f72206e6f60408201527f6e6578697374656e7420746f6b656e0000000000000000000000000000000000606082015260800190565b60208082526021908201527f4552433732313a20617070726f76616c20746f2063757272656e74206f776e6560408201527f7200000000000000000000000000000000000000000000000000000000000000606082015260800190565b60208082526031908201527f4552433732313a207472616e736665722063616c6c6572206973206e6f74206f60408201527f776e6572206e6f7220617070726f766564000000000000000000000000000000606082015260800190565b6020808252602c908201527f455243373231456e756d657261626c653a20676c6f62616c20696e646578206f60408201527f7574206f6620626f756e64730000000000000000000000000000000000000000606082015260800190565b6020808252603d908201527f4552433732315072657365744d696e7465725061757365724175746f49643a2060408201527f6d7573742068617665206d696e74657220726f6c6520746f206d696e74000000606082015260800190565b60208082526030908201527f4552433732314275726e61626c653a2063616c6c6572206973206e6f74206f7760408201527f6e6572206e6f7220617070726f76656400000000000000000000000000000000606082015260800190565b602080825260409082018190527f4552433732315072657365744d696e7465725061757365724175746f49643a20908201527f6d75737420686176652070617573657220726f6c6520746f20756e7061757365606082015260800190565b6020808252602f908201527f416363657373436f6e74726f6c3a2063616e206f6e6c792072656e6f756e636560408201527f20726f6c657320666f722073656c660000000000000000000000000000000000606082015260800190565b918252600160a060020a0316602082015260400190565b9485526020850193909352600160a060020a0391821660408501528116606084015216608082015260a00190565b60ff91909116815260200190565b600082198211156200326957620032696200337f565b500190565b60008262003280576200328062003398565b500490565b6000816000190483118215151615620032a257620032a26200337f565b500290565b600082821015620032bc57620032bc6200337f565b500390565b60005b83811015620032de578181015183820152602001620032c4565b83811115620010fa5750506000910152565b6000816200330257620033026200337f565b506000190190565b6002810460018216806200331f57607f821691505b60208210811415620033445760e060020a634e487b7102600052602260045260246000fd5b50919050565b60006000198214156200336157620033616200337f565b5060010190565b6000826200337a576200337a62003398565b500690565b60e060020a634e487b7102600052601160045260246000fd5b60e060020a634e487b7102600052601260045260246000fd5b60e060020a634e487b7102600052604160045260246000fd5b600160a060020a038116811462000a6c57600080fd5b801515811462000a6c57600080fd5b600160e060020a03198116811462000a6c57600080fdfe608060405234801561001057600080fd5b506040516200117038038062001170833981016040819052610031916100d0565b600485905560008054600160a060020a031916600160a060020a03851617905561005b8442610130565b600190815560028054600160a060020a0319908116600160a060020a039586161790915560038054821693909416929092179092556009805492830181556000527f6e1540171b6c0c960b71a7020d9f60077f6af931a8bbf590da0223dacf75c7af9091018054909116905550610185915050565b600080600080600060a086880312156100e7578081fd5b855194506020860151935060408601516101008161016d565b60608701519093506101118161016d565b60808701519092506101228161016d565b809150509295509295909350565b60008219821115610168577f4e487b710000000000000000000000000000000000000000000000000000000081526011600452602481fd5b500190565b600160a060020a038116811461018257600080fd5b50565b610fdb80620001956000396000f3fe608060405260043610610110576000357c010000000000000000000000000000000000000000000000000000000090048063454a2ab3116100a757806388a6360e1161007657806388a6360e1461024d57806391f9015714610262578063d57bde7914610277578063f56e9c661461028c57610110565b8063454a2ab3146101f85780634b449cba1461020b57806370bda8941461018f57806383ffda3b1461022d57610110565b806321df0da7116100e357806321df0da7146101a45780632a24f46c146101c657806338af3eed146101ce5780633ccfd60b146101e357610110565b806312fa6feb14610115578063144fa6d714610140578063150b7a02146101625780631e36d7551461018f575b600080fd5b34801561012157600080fd5b5061012a6102ac565b6040516101379190610d27565b60405180910390f35b34801561014c57600080fd5b5061016061015b366004610bd5565b6102b5565b005b34801561016e57600080fd5b5061018261017d366004610bf6565b6102e4565b6040516101379190610d32565b34801561019b57600080fd5b5061016061030d565b3480156101b057600080fd5b506101b96103b3565b6040516101379190610cfa565b6101606103c2565b3480156101da57600080fd5b506101b9610812565b3480156101ef57600080fd5b5061012a610821565b610160610206366004610ce2565b610831565b34801561021757600080fd5b50610220610a46565b6040516101379190610ebe565b34801561023957600080fd5b50610220610248366004610bd5565b610a4c565b34801561025957600080fd5b506101b9610a6b565b34801561026e57600080fd5b506101b9610a7a565b34801561028357600080fd5b50610220610a89565b34801561029857600080fd5b506101606102a7366004610bd5565b610a8f565b600a5460ff1681565b6002805473ffffffffffffffffffffffffffffffffffffffff1916600160a060020a0392909216919091179055565b7f150b7a0200000000000000000000000000000000000000000000000000000000949350505050565b600354600480546000546040517f9564470e000000000000000000000000000000000000000000000000000000008152600160a060020a0394851694639564470e9461035e94939091169101610ec7565b602060405180830381600087803b15801561037857600080fd5b505af115801561038c573d6000803e3d6000fd5b505050506040513d601f19601f820116820180604052508101906103b09190610cc2565b50565b600254600160a060020a031690565b600054600160a060020a031633146103f85760405160e560020a62461bcd0281526004016103ef90610e61565b60405180910390fd5b60015442101561041d5760405160e560020a62461bcd0281526004016103ef90610dcd565b600a5460ff16156104435760405160e560020a62461bcd0281526004016103ef90610e04565b600a805460ff191660011790556004546005546006546040517fd2aa34a4fdbbc6dff6a3e56f46e0f3ae2a31d7785ff3487aa5c95c642acea50193610495939092600160a060020a0390911691610ede565b60405180910390a1600554600160a060020a03161561067257600354600480546005546040517f9564470e000000000000000000000000000000000000000000000000000000008152600160a060020a0394851694639564470e946104ff94939091169101610ec7565b602060405180830381600087803b15801561051957600080fd5b505af115801561052d573d6000803e3d6000fd5b505050506040513d601f19601f820116820180604052508101906105519190610cc2565b506002546000546006546040517fa9059cbb000000000000000000000000000000000000000000000000000000008152600160a060020a039384169363a9059cbb936105a293911691600401610d0e565b602060405180830381600087803b1580156105bc57600080fd5b505af11580156105d0573d6000803e3d6000fd5b505050506040513d601f19601f820116820180604052508101906105f49190610cc2565b5060015b60095481101561066c576106596009828154811061063f577f4e487b7100000000000000000000000000000000000000000000000000000000600052603260045260246000fd5b600091825260209091200154600160a060020a0316610abe565b508061066481610f2c565b9150506105f8565b50610717565b600354600480546000546040517f9564470e000000000000000000000000000000000000000000000000000000008152600160a060020a0394851694639564470e946106c394939091169101610ec7565b602060405180830381600087803b1580156106dd57600080fd5b505af11580156106f1573d6000803e3d6000fd5b505050506040513d601f19601f820116820180604052508101906107159190610cc2565b505b600354600480546040517f96e392d3000000000000000000000000000000000000000000000000000000008152600160a060020a03909316926396e392d392610761929101610ebe565b600060405180830381600087803b15801561077b57600080fd5b505af115801561078f573d6000803e3d6000fd5b5050600254600480546040517f77df84a4000000000000000000000000000000000000000000000000000000008152600160a060020a0390931694506377df84a493506107de92909101610ebe565b600060405180830381600087803b1580156107f857600080fd5b505af115801561080c573d6000803e3d6000fd5b50505050565b600054600160a060020a031681565b600061082c33610abe565b905090565b6001544211156108565760405160e560020a62461bcd0281526004016103ef90610d5f565b600654811161087a5760405160e560020a62461bcd0281526004016103ef90610d96565b600254600480546040517f01f07a3b000000000000000000000000000000000000000000000000000000008152600160a060020a03909316926301f07a3b926108c892913391879101610ede565b602060405180830381600087803b1580156108e257600080fd5b505af11580156108f6573d6000803e3d6000fd5b505050506040513d601f19601f8201168201806040525081019061091a9190610cc2565b61092357600080fd5b6006541561095e57600654600554600160a060020a031660009081526007602052604081208054909190610958908490610efd565b90915550505b6005805473ffffffffffffffffffffffffffffffffffffffff1916339081179091556006829055600090815260086020526040902054610a0657600980546001818101835560008390527f6e1540171b6c0c960b71a7020d9f60077f6af931a8bbf590da0223dacf75c7af909101805473ffffffffffffffffffffffffffffffffffffffff19163317905590546109f59190610f15565b336000908152600860205260409020555b7fda0a18da71d8ebd145966339a728fc0d8ccc07c22870d561890d823c515dda6b6004543383604051610a3b93929190610ede565b60405180910390a150565b60015481565b600160a060020a0381166000908152600760205260409020545b919050565b600354600160a060020a031690565b600554600160a060020a031681565b60065481565b6003805473ffffffffffffffffffffffffffffffffffffffff1916600160a060020a0392909216919091179055565b600160a060020a0381166000908152600760205260408120548015610bb557600160a060020a038084166000908152600760205260408082209190915560025490517fa9059cbb00000000000000000000000000000000000000000000000000000000815291169063a9059cbb90610b3c9086908590600401610d0e565b602060405180830381600087803b158015610b5657600080fd5b505af1158015610b6a573d6000803e3d6000fd5b505050506040513d601f19601f82011682018060405250810190610b8e9190610cc2565b610bb557600160a060020a0383166000908152600760205260408120919091559050610a66565b50600192915050565b8035600160a060020a0381168114610a6657600080fd5b600060208284031215610be6578081fd5b610bef82610bbe565b9392505050565b60008060008060808587031215610c0b578283fd5b610c1485610bbe565b93506020610c23818701610bbe565b935060408601359250606086013567ffffffffffffffff80821115610c46578384fd5b818801915088601f830112610c59578384fd5b813581811115610c6b57610c6b610f76565b604051601f8201601f1916810185018381118282101715610c8e57610c8e610f76565b60405281815283820185018b1015610ca4578586fd5b81858501868301379081019093019390935250939692955090935050565b600060208284031215610cd3578081fd5b81518015158114610bef578182fd5b600060208284031215610cf3578081fd5b5035919050565b600160a060020a0391909116815260200190565b600160a060020a03929092168252602082015260400190565b901515815260200190565b7fffffffff0000000000000000000000000000000000000000000000000000000091909116815260200190565b60208082526016908201527f41756374696f6e20616c726561647920656e6465642e00000000000000000000604082015260600190565b6020808252601e908201527f546865726520616c7265616479206973206120686967686572206269642e0000604082015260600190565b60208082526016908201527f41756374696f6e206e6f742079657420656e6465642e00000000000000000000604082015260600190565b60208082526023908201527f61756374696f6e456e642068617320616c7265616479206265656e2063616c6c60408201527f65642e0000000000000000000000000000000000000000000000000000000000606082015260800190565b6020808252602a908201527f6f6e6c79206f776e6572206f6620746f6b656e2063616e2063616c6c2074686960408201527f732066756e6374696f6e00000000000000000000000000000000000000000000606082015260800190565b90815260200190565b918252600160a060020a0316602082015260400190565b928352600160a060020a03919091166020830152604082015260600190565b60008219821115610f1057610f10610f47565b500190565b600082821015610f2757610f27610f47565b500390565b6000600019821415610f4057610f40610f47565b5060010190565b7f4e487b7100000000000000000000000000000000000000000000000000000000600052601160045260246000fd5b7f4e487b7100000000000000000000000000000000000000000000000000000000600052604160045260246000fdfea26469706673582212202af89f3ddb55643f01f7dc0f46a5a3a1311e016ce3dbdbb6d7c9c99103cc1a3c64736f6c63430008000033a2646970667358221220d8bfb2fd87657656568e49a8c05e9248b7eeaf57722046d433568a66adaafc1d64736f6c63430008000033",
  "immutableReferences": {},
  "source": "// SPDX-License-Identifier: MIT\npragma solidity ^0.8.0;\n\nimport \"./presets/ERC721PresetMinterPauserAutoId.sol\";\nimport \"./extensions/ERC721Pausable.sol\";\n\ncontract DVT is ERC721PresetMinterPauserAutoId {\n    constructor()\n    ERC721PresetMinterPauserAutoId(\n        \"Davinci Token\",\n        \"DVT\",\n        \"https://davinci.com/api/token/\"\n    )\n    {}\n\n    // function _beforeTokenTransfer(\n    //     address from,\n    //     address to,\n    //     uint256 tokenId\n    // ) internal virtual override(ERC721) {\n    //     super._beforeTokenTransfer(from, to, tokenId);\n    //     uint256 secondaryShare = msg.value / 100 * 10;\n    //     payable(_creatorOf(tokenId)).transfer(secondaryShare);\n    // }\n}",
  "sourcePath": "/Volumes/Transcend/Projects/DappsLab/Lottery-Smart-Contract/contracts/customERC20ERC721/ERC721/DVT.sol",
  "compiler": {
    "name": "solc",
    "version": "0.8.0+commit.c7dfd78e.Emscripten.clang"
  },
  "schemaVersion": "3.4.2",
  "updatedAt": "2021-07-27T17:01:47.704Z",
  "networkType": "ethereum",
  "devdoc": {
    "kind": "dev",
    "methods": {
      "_mint(address,uint256,uint256)": {
        "details": "Mints `tokenId` and transfers it to `to`. WARNING: Usage of this method is discouraged, use {_safeMint} whenever possible Requirements: - `tokenId` must not exist. - `to` cannot be the zero address. Emits a {Transfer} event."
      },
      "_spend(uint256,address)": {
        "details": "See {IERC721-safeTransferFrom}."
      },
      "approve(address,uint256)": {
        "details": "See {IERC721-approve}."
      },
      "balanceOf(address)": {
        "details": "See {IERC721-balanceOf}."
      },
      "burn(uint256)": {
        "details": "Burns `tokenId`. See {ERC721-_burn}. Requirements: - The caller must own `tokenId` or be an approved operator."
      },
      "getApproved(uint256)": {
        "details": "See {IERC721-getApproved}."
      },
      "getRoleAdmin(bytes32)": {
        "details": "Returns the admin role that controls `role`. See {grantRole} and {revokeRole}. To change a role's admin, use {_setRoleAdmin}."
      },
      "getRoleMember(bytes32,uint256)": {
        "details": "Returns one of the accounts that have `role`. `index` must be a value between 0 and {getRoleMemberCount}, non-inclusive. Role bearers are not sorted in any particular way, and their ordering may change at any point. WARNING: When using {getRoleMember} and {getRoleMemberCount}, make sure you perform all queries on the same block. See the following https://forum.openzeppelin.com/t/iterating-over-elements-on-enumerableset-in-openzeppelin-contracts/2296[forum post] for more information."
      },
      "getRoleMemberCount(bytes32)": {
        "details": "Returns the number of accounts that have `role`. Can be used together with {getRoleMember} to enumerate all bearers of a role."
      },
      "grantRole(bytes32,address)": {
        "details": "Overload {grantRole} to track enumerable memberships"
      },
      "hasRole(bytes32,address)": {
        "details": "Returns `true` if `account` has been granted `role`."
      },
      "isApprovedForAll(address,address)": {
        "details": "See {IERC721-isApprovedForAll}."
      },
      "mint(address,uint256)": {
        "details": "Creates a new token for `to`. Its token ID will be automatically assigned (and available on the emitted {IERC721-Transfer} event), and the token URI autogenerated based on the base URI passed at construction. See {ERC721-_mint}. Requirements: - the caller must have the `MINTER_ROLE`."
      },
      "name()": {
        "details": "See {IERC721Metadata-name}."
      },
      "ownerOf(uint256)": {
        "details": "See {IERC721-ownerOf}."
      },
      "pause()": {
        "details": "Pauses all token transfers. See {ERC721Pausable} and {Pausable-_pause}. Requirements: - the caller must have the `PAUSER_ROLE`."
      },
      "paused()": {
        "details": "Returns true if the contract is paused, and false otherwise."
      },
      "renounceRole(bytes32,address)": {
        "details": "Overload {renounceRole} to track enumerable memberships"
      },
      "revokeRole(bytes32,address)": {
        "details": "Overload {revokeRole} to track enumerable memberships"
      },
      "safeTransferFrom(address,address,uint256)": {
        "details": "Safely transfers `tokenId` token from `from` to `to`, checking first that contract recipients are aware of the ERC721 protocol to prevent tokens from being forever locked. Requirements: - `from` cannot be the zero address. - `to` cannot be the zero address. - `tokenId` token must exist and be owned by `from`. - If the caller is not `from`, it must be have been allowed to move this token by either {approve} or {setApprovalForAll}. - If `to` refers to a smart contract, it must implement {IERC721Receiver-onERC721Received}, which is called upon a safe transfer. Emits a {Transfer} event."
      },
      "safeTransferFrom(address,address,uint256,bytes)": {
        "details": "See {IERC721-safeTransferFrom}."
      },
      "setApprovalForAll(address,bool)": {
        "details": "See {IERC721-setApprovalForAll}."
      },
      "supportsInterface(bytes4)": {
        "details": "See {IERC165-supportsInterface}."
      },
      "symbol()": {
        "details": "See {IERC721Metadata-symbol}."
      },
      "tokenByIndex(uint256)": {
        "details": "See {IERC721Enumerable-tokenByIndex}."
      },
      "tokenOfOwnerByIndex(address,uint256)": {
        "details": "See {IERC721Enumerable-tokenOfOwnerByIndex}."
      },
      "tokenURI(uint256)": {
        "details": "See {IERC721Metadata-tokenURI}."
      },
      "totalSupply()": {
        "details": "See {IERC721Enumerable-totalSupply}."
      },
      "transferFrom(address,address,uint256)": {
        "details": "See {IERC721-transferFrom}."
      },
      "unpause()": {
        "details": "Unpauses all token transfers. See {ERC721Pausable} and {Pausable-_unpause}. Requirements: - the caller must have the `PAUSER_ROLE`."
      }
    },
    "version": 1
  },
  "userdoc": {
    "kind": "user",
    "methods": {
      "getToken()": {
        "notice": "Getter and Setter of _token (ERC20)*"
      }
    },
    "version": 1
  }
}