{
  "contractName": "DVT",
  "abi": [
    {
      "inputs": [],
      "stateMutability": "nonpayable",
      "type": "constructor"
    },
    {
      "anonymous": false,
      "inputs": [
        {
          "indexed": true,
          "internalType": "address",
          "name": "owner",
          "type": "address"
        },
        {
          "indexed": true,
          "internalType": "address",
          "name": "approved",
          "type": "address"
        },
        {
          "indexed": true,
          "internalType": "uint256",
          "name": "tokenId",
          "type": "uint256"
        }
      ],
      "name": "Approval",
      "type": "event"
    },
    {
      "anonymous": false,
      "inputs": [
        {
          "indexed": true,
          "internalType": "address",
          "name": "owner",
          "type": "address"
        },
        {
          "indexed": true,
          "internalType": "address",
          "name": "operator",
          "type": "address"
        },
        {
          "indexed": false,
          "internalType": "bool",
          "name": "approved",
          "type": "bool"
        }
      ],
      "name": "ApprovalForAll",
      "type": "event"
    },
    {
      "anonymous": false,
      "inputs": [
        {
          "indexed": false,
          "internalType": "address",
          "name": "account",
          "type": "address"
        }
      ],
      "name": "Paused",
      "type": "event"
    },
    {
      "anonymous": false,
      "inputs": [
        {
          "indexed": true,
          "internalType": "bytes32",
          "name": "role",
          "type": "bytes32"
        },
        {
          "indexed": true,
          "internalType": "bytes32",
          "name": "previousAdminRole",
          "type": "bytes32"
        },
        {
          "indexed": true,
          "internalType": "bytes32",
          "name": "newAdminRole",
          "type": "bytes32"
        }
      ],
      "name": "RoleAdminChanged",
      "type": "event"
    },
    {
      "anonymous": false,
      "inputs": [
        {
          "indexed": true,
          "internalType": "bytes32",
          "name": "role",
          "type": "bytes32"
        },
        {
          "indexed": true,
          "internalType": "address",
          "name": "account",
          "type": "address"
        },
        {
          "indexed": true,
          "internalType": "address",
          "name": "sender",
          "type": "address"
        }
      ],
      "name": "RoleGranted",
      "type": "event"
    },
    {
      "anonymous": false,
      "inputs": [
        {
          "indexed": true,
          "internalType": "bytes32",
          "name": "role",
          "type": "bytes32"
        },
        {
          "indexed": true,
          "internalType": "address",
          "name": "account",
          "type": "address"
        },
        {
          "indexed": true,
          "internalType": "address",
          "name": "sender",
          "type": "address"
        }
      ],
      "name": "RoleRevoked",
      "type": "event"
    },
    {
      "anonymous": false,
      "inputs": [
        {
          "indexed": true,
          "internalType": "address",
          "name": "from",
          "type": "address"
        },
        {
          "indexed": true,
          "internalType": "address",
          "name": "to",
          "type": "address"
        },
        {
          "indexed": true,
          "internalType": "uint256",
          "name": "tokenId",
          "type": "uint256"
        }
      ],
      "name": "Transfer",
      "type": "event"
    },
    {
      "anonymous": false,
      "inputs": [
        {
          "indexed": false,
          "internalType": "address",
          "name": "account",
          "type": "address"
        }
      ],
      "name": "Unpaused",
      "type": "event"
    },
    {
      "inputs": [],
      "name": "DEFAULT_ADMIN_ROLE",
      "outputs": [
        {
          "internalType": "bytes32",
          "name": "",
          "type": "bytes32"
        }
      ],
      "stateMutability": "view",
      "type": "function"
    },
    {
      "inputs": [],
      "name": "MINTER_ROLE",
      "outputs": [
        {
          "internalType": "bytes32",
          "name": "",
          "type": "bytes32"
        }
      ],
      "stateMutability": "view",
      "type": "function"
    },
    {
      "inputs": [],
      "name": "PAUSER_ROLE",
      "outputs": [
        {
          "internalType": "bytes32",
          "name": "",
          "type": "bytes32"
        }
      ],
      "stateMutability": "view",
      "type": "function"
    },
    {
      "inputs": [],
      "name": "_creatorComission",
      "outputs": [
        {
          "internalType": "uint8",
          "name": "",
          "type": "uint8"
        }
      ],
      "stateMutability": "view",
      "type": "function"
    },
    {
      "inputs": [
        {
          "internalType": "address",
          "name": "to",
          "type": "address"
        },
        {
          "internalType": "uint256",
          "name": "tokenId",
          "type": "uint256"
        },
        {
          "internalType": "uint256",
          "name": "tokenAmount",
          "type": "uint256"
        }
      ],
      "name": "_mint",
      "outputs": [],
      "stateMutability": "nonpayable",
      "type": "function"
    },
    {
      "inputs": [
        {
          "internalType": "uint256",
          "name": "tokenId",
          "type": "uint256"
        },
        {
          "internalType": "address",
          "name": "to",
          "type": "address"
        }
      ],
      "name": "_spend",
      "outputs": [
        {
          "internalType": "bool",
          "name": "",
          "type": "bool"
        }
      ],
      "stateMutability": "nonpayable",
      "type": "function"
    },
    {
      "inputs": [
        {
          "internalType": "address",
          "name": "to",
          "type": "address"
        },
        {
          "internalType": "uint256",
          "name": "tokenId",
          "type": "uint256"
        }
      ],
      "name": "approve",
      "outputs": [],
      "stateMutability": "nonpayable",
      "type": "function"
    },
    {
      "inputs": [
        {
          "internalType": "address",
          "name": "owner",
          "type": "address"
        }
      ],
      "name": "balanceOf",
      "outputs": [
        {
          "internalType": "uint256",
          "name": "",
          "type": "uint256"
        }
      ],
      "stateMutability": "view",
      "type": "function"
    },
    {
      "inputs": [
        {
          "internalType": "uint256",
          "name": "tokenId",
          "type": "uint256"
        }
      ],
      "name": "burn",
      "outputs": [],
      "stateMutability": "nonpayable",
      "type": "function"
    },
    {
      "inputs": [
        {
          "internalType": "uint256",
          "name": "tokenId",
          "type": "uint256"
        }
      ],
      "name": "getApproved",
      "outputs": [
        {
          "internalType": "address",
          "name": "",
          "type": "address"
        }
      ],
      "stateMutability": "view",
      "type": "function"
    },
    {
      "inputs": [
        {
          "internalType": "uint256",
          "name": "tokenId",
          "type": "uint256"
        }
      ],
      "name": "getAuctionContract",
      "outputs": [
        {
          "internalType": "contract Auction",
          "name": "",
          "type": "address"
        }
      ],
      "stateMutability": "view",
      "type": "function"
    },
    {
      "inputs": [
        {
          "internalType": "uint256",
          "name": "tokenId",
          "type": "uint256"
        }
      ],
      "name": "getCreator",
      "outputs": [
        {
          "internalType": "address",
          "name": "",
          "type": "address"
        }
      ],
      "stateMutability": "view",
      "type": "function"
    },
    {
      "inputs": [
        {
          "internalType": "bytes32",
          "name": "role",
          "type": "bytes32"
        }
      ],
      "name": "getRoleAdmin",
      "outputs": [
        {
          "internalType": "bytes32",
          "name": "",
          "type": "bytes32"
        }
      ],
      "stateMutability": "view",
      "type": "function"
    },
    {
      "inputs": [
        {
          "internalType": "bytes32",
          "name": "role",
          "type": "bytes32"
        },
        {
          "internalType": "uint256",
          "name": "index",
          "type": "uint256"
        }
      ],
      "name": "getRoleMember",
      "outputs": [
        {
          "internalType": "address",
          "name": "",
          "type": "address"
        }
      ],
      "stateMutability": "view",
      "type": "function"
    },
    {
      "inputs": [
        {
          "internalType": "bytes32",
          "name": "role",
          "type": "bytes32"
        }
      ],
      "name": "getRoleMemberCount",
      "outputs": [
        {
          "internalType": "uint256",
          "name": "",
          "type": "uint256"
        }
      ],
      "stateMutability": "view",
      "type": "function"
    },
    {
      "inputs": [],
      "name": "getToken",
      "outputs": [
        {
          "internalType": "contract ERC20",
          "name": "",
          "type": "address"
        }
      ],
      "stateMutability": "view",
      "type": "function"
    },
    {
      "inputs": [
        {
          "internalType": "bytes32",
          "name": "role",
          "type": "bytes32"
        },
        {
          "internalType": "address",
          "name": "account",
          "type": "address"
        }
      ],
      "name": "grantRole",
      "outputs": [],
      "stateMutability": "nonpayable",
      "type": "function"
    },
    {
      "inputs": [
        {
          "internalType": "bytes32",
          "name": "role",
          "type": "bytes32"
        },
        {
          "internalType": "address",
          "name": "account",
          "type": "address"
        }
      ],
      "name": "hasRole",
      "outputs": [
        {
          "internalType": "bool",
          "name": "",
          "type": "bool"
        }
      ],
      "stateMutability": "view",
      "type": "function"
    },
    {
      "inputs": [
        {
          "internalType": "address",
          "name": "owner",
          "type": "address"
        },
        {
          "internalType": "address",
          "name": "operator",
          "type": "address"
        }
      ],
      "name": "isApprovedForAll",
      "outputs": [
        {
          "internalType": "bool",
          "name": "",
          "type": "bool"
        }
      ],
      "stateMutability": "view",
      "type": "function"
    },
    {
      "inputs": [
        {
          "internalType": "address",
          "name": "to",
          "type": "address"
        },
        {
          "internalType": "uint256",
          "name": "tokenAmount",
          "type": "uint256"
        }
      ],
      "name": "mint",
      "outputs": [],
      "stateMutability": "nonpayable",
      "type": "function"
    },
    {
      "inputs": [],
      "name": "name",
      "outputs": [
        {
          "internalType": "string",
          "name": "",
          "type": "string"
        }
      ],
      "stateMutability": "view",
      "type": "function"
    },
    {
      "inputs": [
        {
          "internalType": "uint256",
          "name": "tokenId",
          "type": "uint256"
        }
      ],
      "name": "ownerOf",
      "outputs": [
        {
          "internalType": "address",
          "name": "",
          "type": "address"
        }
      ],
      "stateMutability": "view",
      "type": "function"
    },
    {
      "inputs": [],
      "name": "pause",
      "outputs": [],
      "stateMutability": "nonpayable",
      "type": "function"
    },
    {
      "inputs": [],
      "name": "paused",
      "outputs": [
        {
          "internalType": "bool",
          "name": "",
          "type": "bool"
        }
      ],
      "stateMutability": "view",
      "type": "function"
    },
    {
      "inputs": [
        {
          "internalType": "bytes32",
          "name": "role",
          "type": "bytes32"
        },
        {
          "internalType": "address",
          "name": "account",
          "type": "address"
        }
      ],
      "name": "renounceRole",
      "outputs": [],
      "stateMutability": "nonpayable",
      "type": "function"
    },
    {
      "inputs": [
        {
          "internalType": "bytes32",
          "name": "role",
          "type": "bytes32"
        },
        {
          "internalType": "address",
          "name": "account",
          "type": "address"
        }
      ],
      "name": "revokeRole",
      "outputs": [],
      "stateMutability": "nonpayable",
      "type": "function"
    },
    {
      "inputs": [
        {
          "internalType": "address",
          "name": "from",
          "type": "address"
        },
        {
          "internalType": "address",
          "name": "to",
          "type": "address"
        },
        {
          "internalType": "uint256",
          "name": "tokenId",
          "type": "uint256"
        }
      ],
      "name": "safeTransferFrom",
      "outputs": [],
      "stateMutability": "nonpayable",
      "type": "function"
    },
    {
      "inputs": [
        {
          "internalType": "address",
          "name": "from",
          "type": "address"
        },
        {
          "internalType": "address",
          "name": "to",
          "type": "address"
        },
        {
          "internalType": "uint256",
          "name": "tokenId",
          "type": "uint256"
        },
        {
          "internalType": "bytes",
          "name": "_data",
          "type": "bytes"
        }
      ],
      "name": "safeTransferFrom",
      "outputs": [],
      "stateMutability": "nonpayable",
      "type": "function"
    },
    {
      "inputs": [
        {
          "internalType": "address",
          "name": "operator",
          "type": "address"
        },
        {
          "internalType": "bool",
          "name": "approved",
          "type": "bool"
        }
      ],
      "name": "setApprovalForAll",
      "outputs": [],
      "stateMutability": "nonpayable",
      "type": "function"
    },
    {
      "inputs": [
        {
          "internalType": "uint256",
          "name": "tokenId",
          "type": "uint256"
        },
        {
          "internalType": "contract Auction",
          "name": "auctionAddress",
          "type": "address"
        }
      ],
      "name": "setAuctionContract",
      "outputs": [],
      "stateMutability": "nonpayable",
      "type": "function"
    },
    {
      "inputs": [
        {
          "internalType": "address",
          "name": "tokenAddress",
          "type": "address"
        }
      ],
      "name": "setToken",
      "outputs": [],
      "stateMutability": "nonpayable",
      "type": "function"
    },
    {
      "inputs": [
        {
          "internalType": "uint256",
          "name": "tokenId",
          "type": "uint256"
        },
        {
          "internalType": "uint256",
          "name": "time",
          "type": "uint256"
        }
      ],
      "name": "startAuction",
      "outputs": [],
      "stateMutability": "nonpayable",
      "type": "function"
    },
    {
      "inputs": [
        {
          "internalType": "bytes4",
          "name": "interfaceId",
          "type": "bytes4"
        }
      ],
      "name": "supportsInterface",
      "outputs": [
        {
          "internalType": "bool",
          "name": "",
          "type": "bool"
        }
      ],
      "stateMutability": "view",
      "type": "function"
    },
    {
      "inputs": [],
      "name": "symbol",
      "outputs": [
        {
          "internalType": "string",
          "name": "",
          "type": "string"
        }
      ],
      "stateMutability": "view",
      "type": "function"
    },
    {
      "inputs": [
        {
          "internalType": "uint256",
          "name": "index",
          "type": "uint256"
        }
      ],
      "name": "tokenByIndex",
      "outputs": [
        {
          "internalType": "uint256",
          "name": "",
          "type": "uint256"
        }
      ],
      "stateMutability": "view",
      "type": "function"
    },
    {
      "inputs": [
        {
          "internalType": "address",
          "name": "owner",
          "type": "address"
        },
        {
          "internalType": "uint256",
          "name": "index",
          "type": "uint256"
        }
      ],
      "name": "tokenOfOwnerByIndex",
      "outputs": [
        {
          "internalType": "uint256",
          "name": "",
          "type": "uint256"
        }
      ],
      "stateMutability": "view",
      "type": "function"
    },
    {
      "inputs": [
        {
          "internalType": "uint256",
          "name": "tokenId",
          "type": "uint256"
        }
      ],
      "name": "tokenURI",
      "outputs": [
        {
          "internalType": "string",
          "name": "",
          "type": "string"
        }
      ],
      "stateMutability": "view",
      "type": "function"
    },
    {
      "inputs": [],
      "name": "totalSupply",
      "outputs": [
        {
          "internalType": "uint256",
          "name": "",
          "type": "uint256"
        }
      ],
      "stateMutability": "view",
      "type": "function"
    },
    {
      "inputs": [
        {
          "internalType": "address",
          "name": "from",
          "type": "address"
        },
        {
          "internalType": "address",
          "name": "to",
          "type": "address"
        },
        {
          "internalType": "uint256",
          "name": "tokenId",
          "type": "uint256"
        }
      ],
      "name": "transferFrom",
      "outputs": [],
      "stateMutability": "nonpayable",
      "type": "function"
    },
    {
      "inputs": [],
      "name": "unpause",
      "outputs": [],
      "stateMutability": "nonpayable",
      "type": "function"
    }
  ],
  "bytecode": "0x6080604052600a600560006101000a81548160ff021916908360ff1602179055503480156200002d57600080fd5b506040518060400160405280600d81526020017f446176696e636920546f6b656e000000000000000000000000000000000000008152506040518060400160405280600381526020017f44565400000000000000000000000000000000000000000000000000000000008152506040518060400160405280601e81526020017f68747470733a2f2f646176696e63692e636f6d2f6170692f746f6b656e2f000081525082828160039080519060200190620000ea929190620004f5565b50806004908051906020019062000103929190620004f5565b5050506000601060006101000a81548160ff021916908315150217905550806012908051906020019062000139929190620004f5565b506200017160006001026200015c62000220640100000000026401000000009004565b62000228640100000000026401000000009004565b620001c47f9f2df0fed2c77648de5860a4cc508cd0818c85b8b8a1ab4ceeef8d981c8956a6620001af62000220640100000000026401000000009004565b62000228640100000000026401000000009004565b620002177f65d7a28e3265b37a6474929f336521b332c1681b933f6cb9f3376673440d862a6200020262000220640100000000026401000000009004565b62000228640100000000026401000000009004565b5050506200060a565b600033905090565b620002488282620002826401000000000262001e25176401000000009004565b6200027d8160016000858152602001908152602001600020620002a16401000000000262001e35179091906401000000009004565b505050565b6200029d8282620002e2640100000000026401000000009004565b5050565b6000620002da836000018373ffffffffffffffffffffffffffffffffffffffff16600102620003e5640100000000026401000000009004565b905092915050565b620002fd828262000468640100000000026401000000009004565b620003e157600160008084815260200190815260200160002060000160008373ffffffffffffffffffffffffffffffffffffffff1673ffffffffffffffffffffffffffffffffffffffff16815260200190815260200160002060006101000a81548160ff0219169083151502179055506200038662000220640100000000026401000000009004565b73ffffffffffffffffffffffffffffffffffffffff168173ffffffffffffffffffffffffffffffffffffffff16837f2f8788117e7eff1d82e926ec794901d17c78024a50270940304540a733656f0d60405160405180910390a45b5050565b6000620004028383620004d2640100000000026401000000009004565b6200045d57826000018290806001815401808255809150506001900390600052602060002001600090919091909150558260000180549050836001016000848152602001908152602001600020819055506001905062000462565b600090505b92915050565b600080600084815260200190815260200160002060000160008373ffffffffffffffffffffffffffffffffffffffff1673ffffffffffffffffffffffffffffffffffffffff16815260200190815260200160002060009054906101000a900460ff16905092915050565b600080836001016000848152602001908152602001600020541415905092915050565b8280546200050390620005a5565b90600052602060002090601f01602090048101928262000527576000855562000573565b82601f106200054257805160ff191683800117855562000573565b8280016001018555821562000573579182015b828111156200057257825182559160200191906001019062000555565b5b50905062000582919062000586565b5090565b5b80821115620005a157600081600090555060010162000587565b5090565b60006002820490506001821680620005be57607f821691505b60208210811415620005d557620005d4620005db565b5b50919050565b7f4e487b7100000000000000000000000000000000000000000000000000000000600052602260045260246000fd5b6172b3806200061a6000396000f3fe60806040523480156200001157600080fd5b50600436106200029d576000357c0100000000000000000000000000000000000000000000000000000000900480636e8e78db1162000176578063b88d4fde11620000e6578063d547741f11620000a4578063d547741f1462000808578063e506dfbe1462000828578063e63ab1e9146200085e578063e985e9c51462000880578063fc9b5fc814620008b6576200029d565b8063b88d4fde1462000724578063c87b56dd1462000744578063ca15c873146200077a578063d48e638a14620007b0578063d539139314620007e6576200029d565b806391d14854116200013457806391d1485414620006545780639564470e146200068a57806395d89b4114620006c0578063a217fddf14620006e2578063a22cb4651462000704576200029d565b80636e8e78db146200059a57806370a0823114620005bc5780637776afa014620005f25780638456cb5914620006125780639010d07c146200061e576200029d565b80632f745c59116200021257806342966c6811620001d057806342966c6814620004cc5780634f6ccce714620004ec5780634fee13fc14620005225780635c975abb14620005425780636352211e1462000564576200029d565b80632f745c59146200042a57806336568abe14620004605780633f4ba83a146200048057806340c10f19146200048c57806342842e0e14620004ac576200029d565b806318160ddd116200026057806318160ddd146200037057806321df0da7146200039257806323b872dd14620003b4578063248a9ca314620003d45780632f2ff15d146200040a576200029d565b806301ffc9a714620002a257806306fdde0314620002d8578063081812fc14620002fa578063095ea7b31462000330578063144fa6d71462000350575b600080fd5b620002c06004803603810190620002ba919062003fe2565b620008d6565b604051620002cf919062004d91565b60405180910390f35b620002e2620008ea565b604051620002f1919062004e05565b60405180910390f35b6200031860048036038101906200031291906200403a565b62000984565b60405162000327919062004cf3565b60405180910390f35b6200034e600480360381019062000348919062003e71565b62000a0e565b005b6200036e600480360381019062000368919062003ce8565b62000b37565b005b6200037a62000b7b565b6040516200038991906200519d565b60405180910390f35b6200039c62000b88565b604051620003ab919062004de8565b60405180910390f35b620003d26004803603810190620003cc919062003d55565b62000bb2565b005b620003f26004803603810190620003ec919062003f34565b62000c1b565b60405162000401919062004dae565b60405180910390f35b62000428600480360381019062000422919062003f60565b62000c3a565b005b62000448600480360381019062000442919062003e71565b62000c72565b6040516200045791906200519d565b60405180910390f35b6200047e600480360381019062000478919062003f60565b62000d1c565b005b6200048a62000d54565b005b620004aa6004803603810190620004a4919062003e71565b62000dd7565b005b620004ca6004803603810190620004c4919062003d55565b62000e76565b005b620004ea6004803603810190620004e491906200403a565b62000e98565b005b6200050a60048036038101906200050491906200403a565b62000efd565b6040516200051991906200519d565b60405180910390f35b6200054060048036038101906200053a9190620040e8565b62000f9a565b005b6200054c62001251565b6040516200055b919062004d91565b60405180910390f35b6200058260048036038101906200057c91906200403a565b62001268565b60405162000591919062004cf3565b60405180910390f35b620005a46200131d565b604051620005b3919062005244565b60405180910390f35b620005da6004803603810190620005d4919062003ce8565b62001330565b604051620005e991906200519d565b60405180910390f35b6200061060048036038101906200060a919062003eb2565b620013eb565b005b6200061c620016f3565b005b6200063c600480360381019062000636919062003fa1565b62001776565b6040516200064b919062004cf3565b60405180910390f35b6200067260048036038101906200066c919062003f60565b620017a7565b60405162000681919062004d91565b60405180910390f35b620006a86004803603810190620006a2919062004066565b62001811565b604051620006b7919062004d91565b60405180910390f35b620006ca6200182a565b604051620006d9919062004e05565b60405180910390f35b620006ec620018c4565b604051620006fb919062004dae565b60405180910390f35b6200072260048036038101906200071c919062003e30565b620018cc565b005b6200074260048036038101906200073c919062003dab565b62001a58565b005b6200076260048036038101906200075c91906200403a565b62001ac3565b60405162000771919062004e05565b60405180910390f35b62000798600480360381019062000792919062003f34565b62001b77565b604051620007a791906200519d565b60405180910390f35b620007ce6004803603810190620007c891906200403a565b62001b9d565b604051620007dd919062004cf3565b60405180910390f35b620007f062001bda565b604051620007ff919062004dae565b60405180910390f35b62000826600480360381019062000820919062003f60565b62001bfe565b005b6200084660048036038101906200084091906200403a565b62001c36565b60405162000855919062004dcb565b60405180910390f35b6200086862001c73565b60405162000877919062004dae565b60405180910390f35b6200089e600480360381019062000898919062003d14565b62001c97565b604051620008ad919062004d91565b60405180910390f35b620008d46004803603810190620008ce9190620040a7565b62001d2b565b005b6000620008e38262001e67565b9050919050565b606060038054620008fb90620055a1565b80601f01602080910402602001604051908101604052809291908181526020018280546200092990620055a1565b80156200097a5780601f106200094e576101008083540402835291602001916200097a565b820191906000526020600020905b8154815290600101906020018083116200095c57829003601f168201915b5050505050905090565b6000620009918262001ee4565b620009d3576040517f08c379a0000000000000000000000000000000000000000000000000000000008152600401620009ca9062005027565b60405180910390fd5b6009600083815260200190815260200160002060009054906101000a900473ffffffffffffffffffffffffffffffffffffffff169050919050565b600062000a1b8262001268565b90508073ffffffffffffffffffffffffffffffffffffffff168373ffffffffffffffffffffffffffffffffffffffff16141562000a8f576040517f08c379a000000000000000000000000000000000000000000000000000000000815260040162000a8690620050af565b60405180910390fd5b8073ffffffffffffffffffffffffffffffffffffffff1662000ab062001f50565b73ffffffffffffffffffffffffffffffffffffffff16148062000ae4575062000ae38162000add62001f50565b62001c97565b5b62000b26576040517f08c379a000000000000000000000000000000000000000000000000000000000815260040162000b1d9062004f9f565b60405180910390fd5b62000b32838362001f58565b505050565b80600260006101000a81548173ffffffffffffffffffffffffffffffffffffffff021916908373ffffffffffffffffffffffffffffffffffffffff16021790555050565b6000600e80549050905090565b6000600260009054906101000a900473ffffffffffffffffffffffffffffffffffffffff16905090565b62000bc762000bc062001f50565b8262002013565b62000c09576040517f08c379a000000000000000000000000000000000000000000000000000000000815260040162000c0090620050d1565b60405180910390fd5b62000c16838383620020fe565b505050565b6000806000838152602001908152602001600020600101549050919050565b62000c4682826200236a565b62000c6d816001600085815260200190815260200160002062001e3590919063ffffffff16565b505050565b600062000c7f8362001330565b821062000cc3576040517f08c379a000000000000000000000000000000000000000000000000000000000815260040162000cba9062004e8f565b60405180910390fd5b600c60008473ffffffffffffffffffffffffffffffffffffffff1673ffffffffffffffffffffffffffffffffffffffff168152602001908152602001600020600083815260200190815260200160002054905092915050565b62000d2882826200239b565b62000d4f81600160008581526020019081526020016000206200242590919063ffffffff16565b505050565b62000d897f65d7a28e3265b37a6474929f336521b332c1681b933f6cb9f3376673440d862a62000d8362001f50565b620017a7565b62000dcb576040517f08c379a000000000000000000000000000000000000000000000000000000000815260040162000dc29062005159565b60405180910390fd5b62000dd562002457565b565b62000e0c7f9f2df0fed2c77648de5860a4cc508cd0818c85b8b8a1ab4ceeef8d981c8956a662000e0662001f50565b620017a7565b62000e4e576040517f08c379a000000000000000000000000000000000000000000000000000000000815260040162000e459062005115565b60405180910390fd5b62000e668262000e5f601162002502565b83620013eb565b62000e72601162002510565b5050565b62000e938383836040518060200160405280600081525062001a58565b505050565b62000ead62000ea662001f50565b8262002013565b62000eef576040517f08c379a000000000000000000000000000000000000000000000000000000000815260040162000ee69062005137565b60405180910390fd5b62000efa8162002526565b50565b600062000f0962000b7b565b821062000f4d576040517f08c379a000000000000000000000000000000000000000000000000000000000815260040162000f4490620050f3565b60405180910390fd5b600e828154811062000f88577f4e487b7100000000000000000000000000000000000000000000000000000000600052603260045260246000fd5b90600052602060002001549050919050565b6006600083815260200190815260200160002060009054906101000a900473ffffffffffffffffffffffffffffffffffffffff1673ffffffffffffffffffffffffffffffffffffffff163373ffffffffffffffffffffffffffffffffffffffff16146200103e576040517f08c379a0000000000000000000000000000000000000000000000000000000008152600401620010359062005049565b60405180910390fd5b600030905082826006600086815260200190815260200160002060009054906101000a900473ffffffffffffffffffffffffffffffffffffffff16600260009054906101000a900473ffffffffffffffffffffffffffffffffffffffff1684604051620010ab9062003bb0565b620010bb959493929190620051e7565b604051809103906000f080158015620010d8573d6000803e3d6000fd5b50600b600085815260200190815260200160002060006101000a81548173ffffffffffffffffffffffffffffffffffffffff021916908373ffffffffffffffffffffffffffffffffffffffff1602179055506200116a33600b600086815260200190815260200160002060009054906101000a900473ffffffffffffffffffffffffffffffffffffffff168562000e76565b600260009054906101000a900473ffffffffffffffffffffffffffffffffffffffff1673ffffffffffffffffffffffffffffffffffffffff1663746e8e7084600b600087815260200190815260200160002060009054906101000a900473ffffffffffffffffffffffffffffffffffffffff166040518363ffffffff167c010000000000000000000000000000000000000000000000000000000002815260040162001218929190620051ba565b600060405180830381600087803b1580156200123357600080fd5b505af115801562001248573d6000803e3d6000fd5b50505050505050565b6000601060009054906101000a900460ff16905090565b6000806006600084815260200190815260200160002060009054906101000a900473ffffffffffffffffffffffffffffffffffffffff169050600073ffffffffffffffffffffffffffffffffffffffff168173ffffffffffffffffffffffffffffffffffffffff16141562001314576040517f08c379a00000000000000000000000000000000000000000000000000000000081526004016200130b9062004fe3565b60405180910390fd5b80915050919050565b600560009054906101000a900460ff1681565b60008073ffffffffffffffffffffffffffffffffffffffff168273ffffffffffffffffffffffffffffffffffffffff161415620013a4576040517f08c379a00000000000000000000000000000000000000000000000000000000081526004016200139b9062004fc1565b60405180910390fd5b600860008373ffffffffffffffffffffffffffffffffffffffff1673ffffffffffffffffffffffffffffffffffffffff168152602001908152602001600020549050919050565b600073ffffffffffffffffffffffffffffffffffffffff168373ffffffffffffffffffffffffffffffffffffffff1614156200145e576040517f08c379a0000000000000000000000000000000000000000000000000000000008152600401620014559062005005565b60405180910390fd5b620014698262001ee4565b15620014ac576040517f08c379a0000000000000000000000000000000000000000000000000000000008152600401620014a39062004ed3565b60405180910390fd5b60008111620014ba57600080fd5b600260009054906101000a900473ffffffffffffffffffffffffffffffffffffffff1673ffffffffffffffffffffffffffffffffffffffff16636aade28884836040518363ffffffff167c01000000000000000000000000000000000000000000000000000000000281526004016200153592919062004d64565b602060405180830381600087803b1580156200155057600080fd5b505af115801562001565573d6000803e3d6000fd5b505050506040513d601f19601f820116820180604052508101906200158b919062003f08565b6200159557600080fd5b6001600860008573ffffffffffffffffffffffffffffffffffffffff1673ffffffffffffffffffffffffffffffffffffffff1681526020019081526020016000206000828254620015e791906200530b565b92505081905550826006600084815260200190815260200160002060006101000a81548173ffffffffffffffffffffffffffffffffffffffff021916908373ffffffffffffffffffffffffffffffffffffffff160217905550826007600084815260200190815260200160002060006101000a81548173ffffffffffffffffffffffffffffffffffffffff021916908373ffffffffffffffffffffffffffffffffffffffff160217905550818373ffffffffffffffffffffffffffffffffffffffff16600073ffffffffffffffffffffffffffffffffffffffff167fddf252ad1be2c89b69c2b068fc378daa952ba7f163c4a11628f55a4df523b3ef60405160405180910390a4505050565b620017287f65d7a28e3265b37a6474929f336521b332c1681b933f6cb9f3376673440d862a6200172262001f50565b620017a7565b6200176a576040517f08c379a0000000000000000000000000000000000000000000000000000000008152600401620017619062004ef5565b60405180910390fd5b6200177462002631565b565b60006200179f8260016000868152602001908152602001600020620026dd90919063ffffffff16565b905092915050565b600080600084815260200190815260200160002060000160008373ffffffffffffffffffffffffffffffffffffffff1673ffffffffffffffffffffffffffffffffffffffff16815260200190815260200160002060009054906101000a900460ff16905092915050565b60006200182033838562000e76565b6001905092915050565b6060600480546200183b90620055a1565b80601f01602080910402602001604051908101604052809291908181526020018280546200186990620055a1565b8015620018ba5780601f106200188e57610100808354040283529160200191620018ba565b820191906000526020600020905b8154815290600101906020018083116200189c57829003601f168201915b5050505050905090565b600060010281565b620018d662001f50565b73ffffffffffffffffffffffffffffffffffffffff168273ffffffffffffffffffffffffffffffffffffffff16141562001947576040517f08c379a00000000000000000000000000000000000000000000000000000000081526004016200193e9062004f39565b60405180910390fd5b80600a60006200195662001f50565b73ffffffffffffffffffffffffffffffffffffffff1673ffffffffffffffffffffffffffffffffffffffff16815260200190815260200160002060008473ffffffffffffffffffffffffffffffffffffffff1673ffffffffffffffffffffffffffffffffffffffff16815260200190815260200160002060006101000a81548160ff0219169083151502179055508173ffffffffffffffffffffffffffffffffffffffff1662001a0562001f50565b73ffffffffffffffffffffffffffffffffffffffff167f17307eab39ab6107e8899845ad3d59bd9653f200f220920489ca2b5937696c318360405162001a4c919062004d91565b60405180910390a35050565b62001a6d62001a6662001f50565b8362002013565b62001aaf576040517f08c379a000000000000000000000000000000000000000000000000000000000815260040162001aa690620050d1565b60405180910390fd5b62001abd84848484620026fa565b50505050565b606062001ad08262001ee4565b62001b12576040517f08c379a000000000000000000000000000000000000000000000000000000000815260040162001b09906200508d565b60405180910390fd5b600062001b1e6200275d565b9050600081511162001b40576040518060200160405280600081525062001b6f565b8062001b4c84620027f7565b60405160200162001b5f92919062004c89565b6040516020818303038152906040525b915050919050565b600062001b9660016000848152602001908152602001600020620029d8565b9050919050565b60006007600083815260200190815260200160002060009054906101000a900473ffffffffffffffffffffffffffffffffffffffff169050919050565b7f9f2df0fed2c77648de5860a4cc508cd0818c85b8b8a1ab4ceeef8d981c8956a681565b62001c0a8282620029ef565b62001c3181600160008581526020019081526020016000206200242590919063ffffffff16565b505050565b6000600b600083815260200190815260200160002060009054906101000a900473ffffffffffffffffffffffffffffffffffffffff169050919050565b7f65d7a28e3265b37a6474929f336521b332c1681b933f6cb9f3376673440d862a81565b6000600a60008473ffffffffffffffffffffffffffffffffffffffff1673ffffffffffffffffffffffffffffffffffffffff16815260200190815260200160002060008373ffffffffffffffffffffffffffffffffffffffff1673ffffffffffffffffffffffffffffffffffffffff16815260200190815260200160002060009054906101000a900460ff16905092915050565b6006600083815260200190815260200160002060009054906101000a900473ffffffffffffffffffffffffffffffffffffffff1673ffffffffffffffffffffffffffffffffffffffff163373ffffffffffffffffffffffffffffffffffffffff161462001dcf576040517f08c379a000000000000000000000000000000000000000000000000000000000815260040162001dc69062005049565b60405180910390fd5b80600b600084815260200190815260200160002060006101000a81548173ffffffffffffffffffffffffffffffffffffffff021916908373ffffffffffffffffffffffffffffffffffffffff1602179055505050565b62001e31828262002a20565b5050565b600062001e5f836000018373ffffffffffffffffffffffffffffffffffffffff1660010262002b05565b905092915050565b60007f780e9d63000000000000000000000000000000000000000000000000000000007bffffffffffffffffffffffffffffffffffffffffffffffffffffffff1916827bffffffffffffffffffffffffffffffffffffffffffffffffffffffff1916148062001edd575062001edc8262002b79565b5b9050919050565b60008073ffffffffffffffffffffffffffffffffffffffff166006600084815260200190815260200160002060009054906101000a900473ffffffffffffffffffffffffffffffffffffffff1673ffffffffffffffffffffffffffffffffffffffff1614159050919050565b600033905090565b816009600083815260200190815260200160002060006101000a81548173ffffffffffffffffffffffffffffffffffffffff021916908373ffffffffffffffffffffffffffffffffffffffff160217905550808273ffffffffffffffffffffffffffffffffffffffff1662001fcd8362001268565b73ffffffffffffffffffffffffffffffffffffffff167f8c5be1e5ebec7d5bd14f71427d1e84f3dd0314c0f7b2291e5b200ac8c7c3b92560405160405180910390a45050565b6000620020208262001ee4565b62002062576040517f08c379a0000000000000000000000000000000000000000000000000000000008152600401620020599062004f5b565b60405180910390fd5b60006200206f8362001268565b90508073ffffffffffffffffffffffffffffffffffffffff168473ffffffffffffffffffffffffffffffffffffffff161480620020e157508373ffffffffffffffffffffffffffffffffffffffff16620020c98462000984565b73ffffffffffffffffffffffffffffffffffffffff16145b80620020f55750620020f4818562001c97565b5b91505092915050565b8273ffffffffffffffffffffffffffffffffffffffff16620021208262001268565b73ffffffffffffffffffffffffffffffffffffffff161462002179576040517f08c379a000000000000000000000000000000000000000000000000000000000815260040162002170906200506b565b60405180910390fd5b600073ffffffffffffffffffffffffffffffffffffffff168273ffffffffffffffffffffffffffffffffffffffff161415620021ec576040517f08c379a0000000000000000000000000000000000000000000000000000000008152600401620021e39062004f17565b60405180910390fd5b620021f983838362002c5f565b6200220660008262001f58565b6001600860008573ffffffffffffffffffffffffffffffffffffffff1673ffffffffffffffffffffffffffffffffffffffff168152602001908152602001600020600082825462002258919062005401565b925050819055506001600860008473ffffffffffffffffffffffffffffffffffffffff1673ffffffffffffffffffffffffffffffffffffffff1681526020019081526020016000206000828254620022b191906200530b565b92505081905550816006600083815260200190815260200160002060006101000a81548173ffffffffffffffffffffffffffffffffffffffff021916908373ffffffffffffffffffffffffffffffffffffffff160217905550808273ffffffffffffffffffffffffffffffffffffffff168473ffffffffffffffffffffffffffffffffffffffff167fddf252ad1be2c89b69c2b068fc378daa952ba7f163c4a11628f55a4df523b3ef60405160405180910390a4505050565b620023758262000c1b565b6200238a816200238462001f50565b62002c71565b62002396838362002a20565b505050565b620023a562001f50565b73ffffffffffffffffffffffffffffffffffffffff168173ffffffffffffffffffffffffffffffffffffffff161462002415576040517f08c379a00000000000000000000000000000000000000000000000000000000081526004016200240c906200517b565b60405180910390fd5b62002421828262002d1a565b5050565b60006200244f836000018373ffffffffffffffffffffffffffffffffffffffff1660010262002e00565b905092915050565b6200246162001251565b620024a3576040517f08c379a00000000000000000000000000000000000000000000000000000000081526004016200249a9062004e6d565b60405180910390fd5b6000601060006101000a81548160ff0219169083151502179055507f5db9ee0a495bf2e6ff9c91a7834c1ba4fdd244a5e8aa4e537bd38aeae4b073aa620024e962001f50565b604051620024f8919062004cf3565b60405180910390a1565b600081600001549050919050565b6001816000016000828254019250508190555050565b6000620025338262001268565b90506200254260008362001f58565b6001600860008373ffffffffffffffffffffffffffffffffffffffff1673ffffffffffffffffffffffffffffffffffffffff168152602001908152602001600020600082825462002594919062005401565b925050819055506006600083815260200190815260200160002060006101000a81549073ffffffffffffffffffffffffffffffffffffffff021916905581600073ffffffffffffffffffffffffffffffffffffffff168273ffffffffffffffffffffffffffffffffffffffff167fddf252ad1be2c89b69c2b068fc378daa952ba7f163c4a11628f55a4df523b3ef60405160405180910390a45050565b6200263b62001251565b156200267e576040517f08c379a0000000000000000000000000000000000000000000000000000000008152600401620026759062004f7d565b60405180910390fd5b6001601060006101000a81548160ff0219169083151502179055507f62e78cea01bee320cd4e420270b5ea74000d11b0c9f74754ebdbfc544b05a258620026c462001f50565b604051620026d3919062004cf3565b60405180910390a1565b6000620026ee836000018362002f90565b60019004905092915050565b62002707848484620020fe565b620027158484848462002fe2565b62002757576040517f08c379a00000000000000000000000000000000000000000000000000000000081526004016200274e9062004eb1565b60405180910390fd5b50505050565b6060601280546200276e90620055a1565b80601f01602080910402602001604051908101604052809291908181526020018280546200279c90620055a1565b8015620027ed5780601f10620027c157610100808354040283529160200191620027ed565b820191906000526020600020905b815481529060010190602001808311620027cf57829003601f168201915b5050505050905090565b6060600082141562002841576040518060400160405280600181526020017f30000000000000000000000000000000000000000000000000000000000000008152509050620029d3565b600082905060005b60008214620028795780806200285f90620055d7565b915050600a8262002871919062005368565b915062002849565b60008167ffffffffffffffff811115620028bc577f4e487b7100000000000000000000000000000000000000000000000000000000600052604160045260246000fd5b6040519080825280601f01601f191660200182016040528015620028ef5781602001600182028036833780820191505090505b5090505b60008514620029cc576001826200290b919062005401565b9150600a856200291c919062005625565b60306200292a91906200530b565b7f01000000000000000000000000000000000000000000000000000000000000000281838151811062002986577f4e487b7100000000000000000000000000000000000000000000000000000000600052603260045260246000fd5b60200101907effffffffffffffffffffffffffffffffffffffffffffffffffffffffffffff1916908160001a905350600a85620029c4919062005368565b9450620028f3565b8093505050505b919050565b6000620029e882600001620031c3565b9050919050565b620029fa8262000c1b565b62002a0f8162002a0962001f50565b62002c71565b62002a1b838362002d1a565b505050565b62002a2c8282620017a7565b62002b0157600160008084815260200190815260200160002060000160008373ffffffffffffffffffffffffffffffffffffffff1673ffffffffffffffffffffffffffffffffffffffff16815260200190815260200160002060006101000a81548160ff02191690831515021790555062002aa662001f50565b73ffffffffffffffffffffffffffffffffffffffff168173ffffffffffffffffffffffffffffffffffffffff16837f2f8788117e7eff1d82e926ec794901d17c78024a50270940304540a733656f0d60405160405180910390a45b5050565b600062002b138383620031d4565b62002b6e57826000018290806001815401808255809150506001900390600052602060002001600090919091909150558260000180549050836001016000848152602001908152602001600020819055506001905062002b73565b600090505b92915050565b60007f80ac58cd000000000000000000000000000000000000000000000000000000007bffffffffffffffffffffffffffffffffffffffffffffffffffffffff1916827bffffffffffffffffffffffffffffffffffffffffffffffffffffffff1916148062002c4557507f5b5e139f000000000000000000000000000000000000000000000000000000007bffffffffffffffffffffffffffffffffffffffffffffffffffffffff1916827bffffffffffffffffffffffffffffffffffffffffffffffffffffffff1916145b8062002c58575062002c5782620031f7565b5b9050919050565b62002c6c83838362003274565b505050565b62002c7d8282620017a7565b62002d165762002ca58173ffffffffffffffffffffffffffffffffffffffff166014620032d3565b62002cb683600190046020620032d3565b60405160200162002cc992919062004cb1565b6040516020818303038152906040526040517f08c379a000000000000000000000000000000000000000000000000000000000815260040162002d0d919062004e05565b60405180910390fd5b5050565b62002d268282620017a7565b1562002dfc57600080600084815260200190815260200160002060000160008373ffffffffffffffffffffffffffffffffffffffff1673ffffffffffffffffffffffffffffffffffffffff16815260200190815260200160002060006101000a81548160ff02191690831515021790555062002da162001f50565b73ffffffffffffffffffffffffffffffffffffffff168173ffffffffffffffffffffffffffffffffffffffff16837ff6391f5c32d9c69d2a47ea670b442974b53935d1edc7fd64eb21e047a839171b60405160405180910390a45b5050565b6000808360010160008481526020019081526020016000205490506000811462002f8457600060018262002e35919062005401565b905060006001866000018054905062002e4f919062005401565b905081811462002f0d57600086600001828154811062002e98577f4e487b7100000000000000000000000000000000000000000000000000000000600052603260045260246000fd5b906000526020600020015490508087600001848154811062002ee3577f4e487b7100000000000000000000000000000000000000000000000000000000600052603260045260246000fd5b90600052602060002001819055508387600101600083815260200190815260200160002081905550505b8560000180548062002f48577f4e487b7100000000000000000000000000000000000000000000000000000000600052603160045260246000fd5b60019003818190600052602060002001600090559055856001016000868152602001908152602001600020600090556001935050505062002f8a565b60009150505b92915050565b600082600001828154811062002fcf577f4e487b7100000000000000000000000000000000000000000000000000000000600052603260045260246000fd5b9060005260206000200154905092915050565b6000620030058473ffffffffffffffffffffffffffffffffffffffff1662003609565b15620031b6578373ffffffffffffffffffffffffffffffffffffffff1663150b7a026200303162001f50565b8786866040518563ffffffff167c010000000000000000000000000000000000000000000000000000000002815260040162003071949392919062004d10565b602060405180830381600087803b1580156200308c57600080fd5b505af1925050508015620030c057506040513d601f19601f82011682018060405250810190620030bd91906200400e565b60015b62003149573d8060008114620030f3576040519150601f19603f3d011682016040523d82523d6000602084013e620030f8565b606091505b5060008151141562003141576040517f08c379a0000000000000000000000000000000000000000000000000000000008152600401620031389062004eb1565b60405180910390fd5b805181602001fd5b63150b7a027c0100000000000000000000000000000000000000000000000000000000027bffffffffffffffffffffffffffffffffffffffffffffffffffffffff1916817bffffffffffffffffffffffffffffffffffffffffffffffffffffffff191614915050620031bb565b600190505b949350505050565b600081600001805490509050919050565b600080836001016000848152602001908152602001600020541415905092915050565b60007f5a05180f000000000000000000000000000000000000000000000000000000007bffffffffffffffffffffffffffffffffffffffffffffffffffffffff1916827bffffffffffffffffffffffffffffffffffffffffffffffffffffffff191614806200326d57506200326c826200361c565b5b9050919050565b6200328183838362003699565b6200328b62001251565b15620032ce576040517f08c379a0000000000000000000000000000000000000000000000000000000008152600401620032c59062004e4b565b60405180910390fd5b505050565b606060006002836002620032e89190620053a0565b620032f491906200530b565b67ffffffffffffffff81111562003334577f4e487b7100000000000000000000000000000000000000000000000000000000600052604160045260246000fd5b6040519080825280601f01601f191660200182016040528015620033675781602001600182028036833780820191505090505b5090507f300000000000000000000000000000000000000000000000000000000000000081600081518110620033c6577f4e487b7100000000000000000000000000000000000000000000000000000000600052603260045260246000fd5b60200101907effffffffffffffffffffffffffffffffffffffffffffffffffffffffffffff1916908160001a9053507f78000000000000000000000000000000000000000000000000000000000000008160018151811062003451577f4e487b7100000000000000000000000000000000000000000000000000000000600052603260045260246000fd5b60200101907effffffffffffffffffffffffffffffffffffffffffffffffffffffffffffff1916908160001a90535060006001846002620034939190620053a0565b6200349f91906200530b565b90505b6001811115620035b8577f3031323334353637383961626364656600000000000000000000000000000000600f86166010811062003509577f4e487b7100000000000000000000000000000000000000000000000000000000600052603260045260246000fd5b1a7f01000000000000000000000000000000000000000000000000000000000000000282828151811062003566577f4e487b7100000000000000000000000000000000000000000000000000000000600052603260045260246000fd5b60200101907effffffffffffffffffffffffffffffffffffffffffffffffffffffffffffff1916908160001a905350600485908060020a8204915050945080620035b09062005572565b9050620034a2565b5060008414620035ff576040517f08c379a0000000000000000000000000000000000000000000000000000000008152600401620035f69062004e29565b60405180910390fd5b8091505092915050565b600080823b905060008111915050919050565b60007f7965db0b000000000000000000000000000000000000000000000000000000007bffffffffffffffffffffffffffffffffffffffffffffffffffffffff1916827bffffffffffffffffffffffffffffffffffffffffffffffffffffffff191614806200369257506200369182620037bd565b5b9050919050565b620036a683838362003827565b600073ffffffffffffffffffffffffffffffffffffffff168373ffffffffffffffffffffffffffffffffffffffff161415620036ed57620036e7816200382c565b6200372f565b8173ffffffffffffffffffffffffffffffffffffffff168373ffffffffffffffffffffffffffffffffffffffff16146200372e576200372d838262003875565b5b5b600073ffffffffffffffffffffffffffffffffffffffff168273ffffffffffffffffffffffffffffffffffffffff16141562003776576200377081620039e7565b620037b8565b8273ffffffffffffffffffffffffffffffffffffffff168273ffffffffffffffffffffffffffffffffffffffff1614620037b757620037b6828262003b2f565b5b5b505050565b60007f01ffc9a7000000000000000000000000000000000000000000000000000000007bffffffffffffffffffffffffffffffffffffffffffffffffffffffff1916827bffffffffffffffffffffffffffffffffffffffffffffffffffffffff1916149050919050565b505050565b600e80549050600f600083815260200190815260200160002081905550600e81908060018154018082558091505060019003906000526020600020016000909190919091505550565b60006001620038848462001330565b62003890919062005401565b90506000600d600084815260200190815260200160002054905081811462003976576000600c60008673ffffffffffffffffffffffffffffffffffffffff1673ffffffffffffffffffffffffffffffffffffffff168152602001908152602001600020600084815260200190815260200160002054905080600c60008773ffffffffffffffffffffffffffffffffffffffff1673ffffffffffffffffffffffffffffffffffffffff16815260200190815260200160002060008481526020019081526020016000208190555081600d600083815260200190815260200160002081905550505b600d600084815260200190815260200160002060009055600c60008573ffffffffffffffffffffffffffffffffffffffff1673ffffffffffffffffffffffffffffffffffffffff16815260200190815260200160002060008381526020019081526020016000206000905550505050565b60006001600e80549050620039fd919062005401565b90506000600f60008481526020019081526020016000205490506000600e838154811062003a54577f4e487b7100000000000000000000000000000000000000000000000000000000600052603260045260246000fd5b9060005260206000200154905080600e838154811062003a9d577f4e487b7100000000000000000000000000000000000000000000000000000000600052603260045260246000fd5b906000526020600020018190555081600f600083815260200190815260200160002081905550600f600085815260200190815260200160002060009055600e80548062003b13577f4e487b7100000000000000000000000000000000000000000000000000000000600052603160045260246000fd5b6001900381819060005260206000200160009055905550505050565b600062003b3c8362001330565b905081600c60008573ffffffffffffffffffffffffffffffffffffffff1673ffffffffffffffffffffffffffffffffffffffff16815260200190815260200160002060008381526020019081526020016000208190555080600d600084815260200190815260200160002081905550505050565b611ab780620057c783390190565b600062003bd562003bcf8462005295565b62005261565b90508281526020810184848401111562003bee57600080fd5b62003bfb8482856200552d565b509392505050565b60008135905062003c14816200572a565b92915050565b60008135905062003c2b8162005744565b92915050565b60008151905062003c428162005744565b92915050565b60008135905062003c59816200575e565b92915050565b60008135905062003c708162005778565b92915050565b60008151905062003c878162005778565b92915050565b600082601f83011262003c9f57600080fd5b813562003cb184826020860162003bbe565b91505092915050565b60008135905062003ccb8162005792565b92915050565b60008135905062003ce281620057ac565b92915050565b60006020828403121562003cfb57600080fd5b600062003d0b8482850162003c03565b91505092915050565b6000806040838503121562003d2857600080fd5b600062003d388582860162003c03565b925050602062003d4b8582860162003c03565b9150509250929050565b60008060006060848603121562003d6b57600080fd5b600062003d7b8682870162003c03565b935050602062003d8e8682870162003c03565b925050604062003da18682870162003cd1565b9150509250925092565b6000806000806080858703121562003dc257600080fd5b600062003dd28782880162003c03565b945050602062003de58782880162003c03565b935050604062003df88782880162003cd1565b925050606085013567ffffffffffffffff81111562003e1657600080fd5b62003e248782880162003c8d565b91505092959194509250565b6000806040838503121562003e4457600080fd5b600062003e548582860162003c03565b925050602062003e678582860162003c1a565b9150509250929050565b6000806040838503121562003e8557600080fd5b600062003e958582860162003c03565b925050602062003ea88582860162003cd1565b9150509250929050565b60008060006060848603121562003ec857600080fd5b600062003ed88682870162003c03565b935050602062003eeb8682870162003cd1565b925050604062003efe8682870162003cd1565b9150509250925092565b60006020828403121562003f1b57600080fd5b600062003f2b8482850162003c31565b91505092915050565b60006020828403121562003f4757600080fd5b600062003f578482850162003c48565b91505092915050565b6000806040838503121562003f7457600080fd5b600062003f848582860162003c48565b925050602062003f978582860162003c03565b9150509250929050565b6000806040838503121562003fb557600080fd5b600062003fc58582860162003c48565b925050602062003fd88582860162003cd1565b9150509250929050565b60006020828403121562003ff557600080fd5b6000620040058482850162003c5f565b91505092915050565b6000602082840312156200402157600080fd5b6000620040318482850162003c76565b91505092915050565b6000602082840312156200404d57600080fd5b60006200405d8482850162003cd1565b91505092915050565b600080604083850312156200407a57600080fd5b60006200408a8582860162003cd1565b92505060206200409d8582860162003c03565b9150509250929050565b60008060408385031215620040bb57600080fd5b6000620040cb8582860162003cd1565b9250506020620040de8582860162003cba565b9150509250929050565b60008060408385031215620040fc57600080fd5b60006200410c8582860162003cd1565b92505060206200411f8582860162003cd1565b9150509250929050565b62004134816200543c565b82525050565b620041458162005450565b82525050565b62004156816200545c565b82525050565b60006200416982620052c8565b620041758185620052de565b9350620041878185602086016200553c565b620041928162005719565b840191505092915050565b620041a881620054dd565b82525050565b620041b98162005505565b82525050565b6000620041cc82620052d3565b620041d88185620052ef565b9350620041ea8185602086016200553c565b620041f58162005719565b840191505092915050565b60006200420d82620052d3565b62004219818562005300565b93506200422b8185602086016200553c565b80840191505092915050565b600062004246602083620052ef565b91507f537472696e67733a20686578206c656e67746820696e73756666696369656e746000830152602082019050919050565b600062004288602b83620052ef565b91507f4552433732315061757361626c653a20746f6b656e207472616e73666572207760008301527f68696c65207061757365640000000000000000000000000000000000000000006020830152604082019050919050565b6000620042f0601483620052ef565b91507f5061757361626c653a206e6f74207061757365640000000000000000000000006000830152602082019050919050565b600062004332602b83620052ef565b91507f455243373231456e756d657261626c653a206f776e657220696e646578206f7560008301527f74206f6620626f756e64730000000000000000000000000000000000000000006020830152604082019050919050565b60006200439a603283620052ef565b91507f4552433732313a207472616e7366657220746f206e6f6e20455243373231526560008301527f63656976657220696d706c656d656e74657200000000000000000000000000006020830152604082019050919050565b600062004402601c83620052ef565b91507f4552433732313a20746f6b656e20616c7265616479206d696e746564000000006000830152602082019050919050565b600062004444603e83620052ef565b91507f4552433732315072657365744d696e7465725061757365724175746f49643a2060008301527f6d75737420686176652070617573657220726f6c6520746f20706175736500006020830152604082019050919050565b6000620044ac602483620052ef565b91507f4552433732313a207472616e7366657220746f20746865207a65726f2061646460008301527f72657373000000000000000000000000000000000000000000000000000000006020830152604082019050919050565b600062004514601983620052ef565b91507f4552433732313a20617070726f766520746f2063616c6c6572000000000000006000830152602082019050919050565b600062004556602c83620052ef565b91507f4552433732313a206f70657261746f7220717565727920666f72206e6f6e657860008301527f697374656e7420746f6b656e00000000000000000000000000000000000000006020830152604082019050919050565b6000620045be601083620052ef565b91507f5061757361626c653a20706175736564000000000000000000000000000000006000830152602082019050919050565b600062004600603883620052ef565b91507f4552433732313a20617070726f76652063616c6c6572206973206e6f74206f7760008301527f6e6572206e6f7220617070726f76656420666f7220616c6c00000000000000006020830152604082019050919050565b600062004668602a83620052ef565b91507f4552433732313a2062616c616e636520717565727920666f7220746865207a6560008301527f726f2061646472657373000000000000000000000000000000000000000000006020830152604082019050919050565b6000620046d0602983620052ef565b91507f4552433732313a206f776e657220717565727920666f72206e6f6e657869737460008301527f656e7420746f6b656e00000000000000000000000000000000000000000000006020830152604082019050919050565b600062004738602083620052ef565b91507f4552433732313a206d696e7420746f20746865207a65726f20616464726573736000830152602082019050919050565b60006200477a602c83620052ef565b91507f4552433732313a20617070726f76656420717565727920666f72206e6f6e657860008301527f697374656e7420746f6b656e00000000000000000000000000000000000000006020830152604082019050919050565b6000620047e2602483620052ef565b91507f73686f756c642062652063616c6c6564206279206f6e6c7920746f6b656e206f60008301527f776e6572000000000000000000000000000000000000000000000000000000006020830152604082019050919050565b60006200484a602983620052ef565b91507f4552433732313a207472616e73666572206f6620746f6b656e2074686174206960008301527f73206e6f74206f776e00000000000000000000000000000000000000000000006020830152604082019050919050565b6000620048b2602f83620052ef565b91507f4552433732314d657461646174613a2055524920717565727920666f72206e6f60008301527f6e6578697374656e7420746f6b656e00000000000000000000000000000000006020830152604082019050919050565b60006200491a602183620052ef565b91507f4552433732313a20617070726f76616c20746f2063757272656e74206f776e6560008301527f72000000000000000000000000000000000000000000000000000000000000006020830152604082019050919050565b600062004982603183620052ef565b91507f4552433732313a207472616e736665722063616c6c6572206973206e6f74206f60008301527f776e6572206e6f7220617070726f7665640000000000000000000000000000006020830152604082019050919050565b6000620049ea602c83620052ef565b91507f455243373231456e756d657261626c653a20676c6f62616c20696e646578206f60008301527f7574206f6620626f756e647300000000000000000000000000000000000000006020830152604082019050919050565b600062004a5260178362005300565b91507f416363657373436f6e74726f6c3a206163636f756e74200000000000000000006000830152601782019050919050565b600062004a94603d83620052ef565b91507f4552433732315072657365744d696e7465725061757365724175746f49643a2060008301527f6d7573742068617665206d696e74657220726f6c6520746f206d696e740000006020830152604082019050919050565b600062004afc603083620052ef565b91507f4552433732314275726e61626c653a2063616c6c6572206973206e6f74206f7760008301527f6e6572206e6f7220617070726f766564000000000000000000000000000000006020830152604082019050919050565b600062004b64604083620052ef565b91507f4552433732315072657365744d696e7465725061757365724175746f49643a2060008301527f6d75737420686176652070617573657220726f6c6520746f20756e70617573656020830152604082019050919050565b600062004bcc60118362005300565b91507f206973206d697373696e6720726f6c65200000000000000000000000000000006000830152601182019050919050565b600062004c0e602f83620052ef565b91507f416363657373436f6e74726f6c3a2063616e206f6e6c792072656e6f756e636560008301527f20726f6c657320666f722073656c6600000000000000000000000000000000006020830152604082019050919050565b62004c7281620054c6565b82525050565b62004c8381620054d0565b82525050565b600062004c97828562004200565b915062004ca5828462004200565b91508190509392505050565b600062004cbe8262004a43565b915062004ccc828562004200565b915062004cd98262004bbd565b915062004ce7828462004200565b91508190509392505050565b600060208201905062004d0a600083018462004129565b92915050565b600060808201905062004d27600083018762004129565b62004d36602083018662004129565b62004d45604083018562004c67565b818103606083015262004d5981846200415c565b905095945050505050565b600060408201905062004d7b600083018562004129565b62004d8a602083018462004c67565b9392505050565b600060208201905062004da860008301846200413a565b92915050565b600060208201905062004dc560008301846200414b565b92915050565b600060208201905062004de260008301846200419d565b92915050565b600060208201905062004dff6000830184620041ae565b92915050565b6000602082019050818103600083015262004e218184620041bf565b905092915050565b6000602082019050818103600083015262004e448162004237565b9050919050565b6000602082019050818103600083015262004e668162004279565b9050919050565b6000602082019050818103600083015262004e8881620042e1565b9050919050565b6000602082019050818103600083015262004eaa8162004323565b9050919050565b6000602082019050818103600083015262004ecc816200438b565b9050919050565b6000602082019050818103600083015262004eee81620043f3565b9050919050565b6000602082019050818103600083015262004f108162004435565b9050919050565b6000602082019050818103600083015262004f32816200449d565b9050919050565b6000602082019050818103600083015262004f548162004505565b9050919050565b6000602082019050818103600083015262004f768162004547565b9050919050565b6000602082019050818103600083015262004f9881620045af565b9050919050565b6000602082019050818103600083015262004fba81620045f1565b9050919050565b6000602082019050818103600083015262004fdc8162004659565b9050919050565b6000602082019050818103600083015262004ffe81620046c1565b9050919050565b60006020820190508181036000830152620050208162004729565b9050919050565b6000602082019050818103600083015262005042816200476b565b9050919050565b600060208201905081810360008301526200506481620047d3565b9050919050565b6000602082019050818103600083015262005086816200483b565b9050919050565b60006020820190508181036000830152620050a881620048a3565b9050919050565b60006020820190508181036000830152620050ca816200490b565b9050919050565b60006020820190508181036000830152620050ec8162004973565b9050919050565b600060208201905081810360008301526200510e81620049db565b9050919050565b60006020820190508181036000830152620051308162004a85565b9050919050565b60006020820190508181036000830152620051528162004aed565b9050919050565b60006020820190508181036000830152620051748162004b55565b9050919050565b60006020820190508181036000830152620051968162004bff565b9050919050565b6000602082019050620051b4600083018462004c67565b92915050565b6000604082019050620051d1600083018562004c67565b620051e0602083018462004129565b9392505050565b600060a082019050620051fe600083018862004c67565b6200520d602083018762004c67565b6200521c604083018662004129565b6200522b6060830185620041ae565b6200523a608083018462004129565b9695505050505050565b60006020820190506200525b600083018462004c78565b92915050565b6000604051905081810181811067ffffffffffffffff821117156200528b576200528a620056ea565b5b8060405250919050565b600067ffffffffffffffff821115620052b357620052b2620056ea565b5b601f19601f8301169050602081019050919050565b600081519050919050565b600081519050919050565b600082825260208201905092915050565b600082825260208201905092915050565b600081905092915050565b60006200531882620054c6565b91506200532583620054c6565b9250827fffffffffffffffffffffffffffffffffffffffffffffffffffffffffffffffff038211156200535d576200535c6200565d565b5b828201905092915050565b60006200537582620054c6565b91506200538283620054c6565b9250826200539557620053946200568c565b5b828204905092915050565b6000620053ad82620054c6565b9150620053ba83620054c6565b9250817fffffffffffffffffffffffffffffffffffffffffffffffffffffffffffffffff0483118215151615620053f657620053f56200565d565b5b828202905092915050565b60006200540e82620054c6565b91506200541b83620054c6565b9250828210156200543157620054306200565d565b5b828203905092915050565b60006200544982620054a6565b9050919050565b60008115159050919050565b6000819050919050565b60007fffffffff0000000000000000000000000000000000000000000000000000000082169050919050565b60006200549f826200543c565b9050919050565b600073ffffffffffffffffffffffffffffffffffffffff82169050919050565b6000819050919050565b600060ff82169050919050565b6000620054ea82620054f1565b9050919050565b6000620054fe82620054a6565b9050919050565b6000620055128262005519565b9050919050565b60006200552682620054a6565b9050919050565b82818337600083830152505050565b60005b838110156200555c5780820151818401526020810190506200553f565b838111156200556c576000848401525b50505050565b60006200557f82620054c6565b915060008214156200559657620055956200565d565b5b600182039050919050565b60006002820490506001821680620055ba57607f821691505b60208210811415620055d157620055d0620056bb565b5b50919050565b6000620055e482620054c6565b91507fffffffffffffffffffffffffffffffffffffffffffffffffffffffffffffffff8214156200561a57620056196200565d565b5b600182019050919050565b60006200563282620054c6565b91506200563f83620054c6565b9250826200565257620056516200568c565b5b828206905092915050565b7f4e487b7100000000000000000000000000000000000000000000000000000000600052601160045260246000fd5b7f4e487b7100000000000000000000000000000000000000000000000000000000600052601260045260246000fd5b7f4e487b7100000000000000000000000000000000000000000000000000000000600052602260045260246000fd5b7f4e487b7100000000000000000000000000000000000000000000000000000000600052604160045260246000fd5b6000601f19601f8301169050919050565b62005735816200543c565b81146200574157600080fd5b50565b6200574f8162005450565b81146200575b57600080fd5b50565b62005769816200545c565b81146200577557600080fd5b50565b620057838162005466565b81146200578f57600080fd5b50565b6200579d8162005492565b8114620057a957600080fd5b50565b620057b781620054c6565b8114620057c357600080fd5b5056fe60806040523480156200001157600080fd5b5060405162001ab738038062001ab7833981810160405281019062000037919062000164565b84600481905550826000806101000a81548173ffffffffffffffffffffffffffffffffffffffff021916908373ffffffffffffffffffffffffffffffffffffffff16021790555083426200008c9190620001e6565b60018190555081600260006101000a81548173ffffffffffffffffffffffffffffffffffffffff021916908373ffffffffffffffffffffffffffffffffffffffff16021790555080600360006101000a81548173ffffffffffffffffffffffffffffffffffffffff021916908373ffffffffffffffffffffffffffffffffffffffff160217905550505050505062000312565b6000815190506200013081620002c4565b92915050565b6000815190506200014781620002de565b92915050565b6000815190506200015e81620002f8565b92915050565b600080600080600060a086880312156200017d57600080fd5b60006200018d888289016200014d565b9550506020620001a0888289016200014d565b9450506040620001b3888289016200011f565b9350506060620001c68882890162000136565b9250506080620001d9888289016200011f565b9150509295509295909350565b6000620001f3826200028b565b915062000200836200028b565b9250827fffffffffffffffffffffffffffffffffffffffffffffffffffffffffffffffff0382111562000238576200023762000295565b5b828201905092915050565b600062000250826200026b565b9050919050565b6000620002648262000243565b9050919050565b600073ffffffffffffffffffffffffffffffffffffffff82169050919050565b6000819050919050565b7f4e487b7100000000000000000000000000000000000000000000000000000000600052601160045260246000fd5b620002cf8162000243565b8114620002db57600080fd5b50565b620002e98162000257565b8114620002f557600080fd5b50565b62000303816200028b565b81146200030f57600080fd5b50565b61179580620003226000396000f3fe608060405260043610610110576000357c010000000000000000000000000000000000000000000000000000000090048063454a2ab3116100a757806388a6360e1161007657806388a6360e146102e357806391f901571461030e578063d57bde7914610339578063f56e9c661461036457610110565b8063454a2ab3146102485780634b449cba1461026457806370bda8941461028f57806383ffda3b146102a657610110565b806321df0da7116100e357806321df0da7146101bd5780632a24f46c146101e857806338af3eed146101f25780633ccfd60b1461021d57610110565b806312fa6feb14610115578063144fa6d714610140578063150b7a02146101695780631e36d755146101a6575b600080fd5b34801561012157600080fd5b5061012a61038d565b6040516101379190611351565b60405180910390f35b34801561014c57600080fd5b5061016760048036038101906101629190611035565b6103a0565b005b34801561017557600080fd5b50610190600480360381019061018b919061105e565b6103e4565b60405161019d919061136c565b60405180910390f35b3480156101b257600080fd5b506101bb610414565b005b3480156101c957600080fd5b506101d2610504565b6040516101df9190611387565b60405180910390f35b6101f061052e565b005b3480156101fe57600080fd5b50610207610969565b60405161021491906112e4565b60405180910390f35b34801561022957600080fd5b5061023261098d565b60405161023f9190611351565b60405180910390f35b610262600480360381019061025d9190611102565b610b47565b005b34801561027057600080fd5b50610279610db5565b604051610286919061143d565b60405180910390f35b34801561029b57600080fd5b506102a4610dbb565b005b3480156102b257600080fd5b506102cd60048036038101906102c89190611035565b610eab565b6040516102da919061143d565b60405180910390f35b3480156102ef57600080fd5b506102f8610ef4565b60405161030591906113a2565b60405180910390f35b34801561031a57600080fd5b50610323610f1e565b60405161033091906112c9565b60405180910390f35b34801561034557600080fd5b5061034e610f44565b60405161035b919061143d565b60405180910390f35b34801561037057600080fd5b5061038b60048036038101906103869190611035565b610f4a565b005b600860009054906101000a900460ff1681565b80600260006101000a81548173ffffffffffffffffffffffffffffffffffffffff021916908373ffffffffffffffffffffffffffffffffffffffff16021790555050565b600063150b7a027c0100000000000000000000000000000000000000000000000000000000029050949350505050565b600360009054906101000a900473ffffffffffffffffffffffffffffffffffffffff1673ffffffffffffffffffffffffffffffffffffffff16639564470e60045460008054906101000a900473ffffffffffffffffffffffffffffffffffffffff166040518363ffffffff167c01000000000000000000000000000000000000000000000000000000000281526004016104af929190611481565b602060405180830381600087803b1580156104c957600080fd5b505af11580156104dd573d6000803e3d6000fd5b505050506040513d601f19601f8201168201806040525081019061050191906110d9565b50565b6000600260009054906101000a900473ffffffffffffffffffffffffffffffffffffffff16905090565b600154421015610573576040517f08c379a000000000000000000000000000000000000000000000000000000000815260040161056a906113fd565b60405180910390fd5b600860009054906101000a900460ff16156105c3576040517f08c379a00000000000000000000000000000000000000000000000000000000081526004016105ba9061141d565b60405180910390fd5b6001600860006101000a81548160ff0219169083151502179055507fd2aa34a4fdbbc6dff6a3e56f46e0f3ae2a31d7785ff3487aa5c95c642acea501600454600560009054906101000a900473ffffffffffffffffffffffffffffffffffffffff16600654604051610637939291906114aa565b60405180910390a1600073ffffffffffffffffffffffffffffffffffffffff16600560009054906101000a900473ffffffffffffffffffffffffffffffffffffffff1673ffffffffffffffffffffffffffffffffffffffff161461087857600360009054906101000a900473ffffffffffffffffffffffffffffffffffffffff1673ffffffffffffffffffffffffffffffffffffffff16639564470e600454600560009054906101000a900473ffffffffffffffffffffffffffffffffffffffff166040518363ffffffff167c0100000000000000000000000000000000000000000000000000000000028152600401610732929190611458565b602060405180830381600087803b15801561074c57600080fd5b505af1158015610760573d6000803e3d6000fd5b505050506040513d601f19601f8201168201806040525081019061078491906110d9565b50600260009054906101000a900473ffffffffffffffffffffffffffffffffffffffff1673ffffffffffffffffffffffffffffffffffffffff1663a9059cbb60008054906101000a900473ffffffffffffffffffffffffffffffffffffffff166006546040518363ffffffff167c01000000000000000000000000000000000000000000000000000000000281526004016108209291906112ff565b602060405180830381600087803b15801561083a57600080fd5b505af115801561084e573d6000803e3d6000fd5b505050506040513d601f19601f8201168201806040525081019061087291906110d9565b50610967565b600360009054906101000a900473ffffffffffffffffffffffffffffffffffffffff1673ffffffffffffffffffffffffffffffffffffffff16639564470e60045460008054906101000a900473ffffffffffffffffffffffffffffffffffffffff166040518363ffffffff167c0100000000000000000000000000000000000000000000000000000000028152600401610913929190611481565b602060405180830381600087803b15801561092d57600080fd5b505af1158015610941573d6000803e3d6000fd5b505050506040513d601f19601f8201168201806040525081019061096591906110d9565b505b565b60008054906101000a900473ffffffffffffffffffffffffffffffffffffffff1681565b600080600760003373ffffffffffffffffffffffffffffffffffffffff1673ffffffffffffffffffffffffffffffffffffffff1681526020019081526020016000205490506000811115610b3e576000600760003373ffffffffffffffffffffffffffffffffffffffff1673ffffffffffffffffffffffffffffffffffffffff16815260200190815260200160002081905550600260009054906101000a900473ffffffffffffffffffffffffffffffffffffffff1673ffffffffffffffffffffffffffffffffffffffff1663a9059cbb33836040518363ffffffff167c0100000000000000000000000000000000000000000000000000000000028152600401610a99929190611328565b602060405180830381600087803b158015610ab357600080fd5b505af1158015610ac7573d6000803e3d6000fd5b505050506040513d601f19601f82011682018060405250810190610aeb91906110d9565b610b3d5780600760003373ffffffffffffffffffffffffffffffffffffffff1673ffffffffffffffffffffffffffffffffffffffff168152602001908152602001600020819055506000915050610b44565b5b60019150505b90565b600154421115610b8c576040517f08c379a0000000000000000000000000000000000000000000000000000000008152600401610b83906113bd565b60405180910390fd5b6006548111610bd0576040517f08c379a0000000000000000000000000000000000000000000000000000000008152600401610bc7906113dd565b60405180910390fd5b600260009054906101000a900473ffffffffffffffffffffffffffffffffffffffff1673ffffffffffffffffffffffffffffffffffffffff166301f07a3b60045433846040518463ffffffff167c0100000000000000000000000000000000000000000000000000000000028152600401610c4d939291906114aa565b602060405180830381600087803b158015610c6757600080fd5b505af1158015610c7b573d6000803e3d6000fd5b505050506040513d601f19601f82011682018060405250810190610c9f91906110d9565b610ca857600080fd5b600060065414610d2d5760065460076000600560009054906101000a900473ffffffffffffffffffffffffffffffffffffffff1673ffffffffffffffffffffffffffffffffffffffff1673ffffffffffffffffffffffffffffffffffffffff1681526020019081526020016000206000828254610d259190611553565b925050819055505b33600560006101000a81548173ffffffffffffffffffffffffffffffffffffffff021916908373ffffffffffffffffffffffffffffffffffffffff160217905550806006819055507fda0a18da71d8ebd145966339a728fc0d8ccc07c22870d561890d823c515dda6b6004543383604051610daa939291906114aa565b60405180910390a150565b60015481565b600360009054906101000a900473ffffffffffffffffffffffffffffffffffffffff1673ffffffffffffffffffffffffffffffffffffffff16639564470e60045460008054906101000a900473ffffffffffffffffffffffffffffffffffffffff166040518363ffffffff167c0100000000000000000000000000000000000000000000000000000000028152600401610e56929190611481565b602060405180830381600087803b158015610e7057600080fd5b505af1158015610e84573d6000803e3d6000fd5b505050506040513d601f19601f82011682018060405250810190610ea891906110d9565b50565b6000600760008373ffffffffffffffffffffffffffffffffffffffff1673ffffffffffffffffffffffffffffffffffffffff168152602001908152602001600020549050919050565b6000600360009054906101000a900473ffffffffffffffffffffffffffffffffffffffff16905090565b600560009054906101000a900473ffffffffffffffffffffffffffffffffffffffff1681565b60065481565b80600360006101000a81548173ffffffffffffffffffffffffffffffffffffffff021916908373ffffffffffffffffffffffffffffffffffffffff16021790555050565b6000610fa1610f9c84611512565b6114e1565b905082815260208101848484011115610fb957600080fd5b610fc48482856116ad565b509392505050565b600081359050610fdb8161171a565b92915050565b600081519050610ff081611731565b92915050565b600082601f83011261100757600080fd5b8135611017848260208601610f8e565b91505092915050565b60008135905061102f81611748565b92915050565b60006020828403121561104757600080fd5b600061105584828501610fcc565b91505092915050565b6000806000806080858703121561107457600080fd5b600061108287828801610fcc565b945050602061109387828801610fcc565b93505060406110a487828801611020565b925050606085013567ffffffffffffffff8111156110c157600080fd5b6110cd87828801610ff6565b91505092959194509250565b6000602082840312156110eb57600080fd5b60006110f984828501610fe1565b91505092915050565b60006020828403121561111457600080fd5b600061112284828501611020565b91505092915050565b6111348161162f565b82525050565b611143816115bb565b82525050565b611152816115a9565b82525050565b611161816115cd565b82525050565b611170816115d9565b82525050565b61117f81611641565b82525050565b61118e81611665565b82525050565b60006111a1601683611542565b91507f41756374696f6e20616c726561647920656e6465642e000000000000000000006000830152602082019050919050565b60006111e1601e83611542565b91507f546865726520616c7265616479206973206120686967686572206269642e00006000830152602082019050919050565b6000611221601683611542565b91507f41756374696f6e206e6f742079657420656e6465642e000000000000000000006000830152602082019050919050565b6000611261602383611542565b91507f61756374696f6e456e642068617320616c7265616479206265656e2063616c6c60008301527f65642e00000000000000000000000000000000000000000000000000000000006020830152604082019050919050565b6112c381611625565b82525050565b60006020820190506112de6000830184611149565b92915050565b60006020820190506112f9600083018461113a565b92915050565b6000604082019050611314600083018561112b565b61132160208301846112ba565b9392505050565b600060408201905061133d6000830185611149565b61134a60208301846112ba565b9392505050565b60006020820190506113666000830184611158565b92915050565b60006020820190506113816000830184611167565b92915050565b600060208201905061139c6000830184611176565b92915050565b60006020820190506113b76000830184611185565b92915050565b600060208201905081810360008301526113d681611194565b9050919050565b600060208201905081810360008301526113f6816111d4565b9050919050565b6000602082019050818103600083015261141681611214565b9050919050565b6000602082019050818103600083015261143681611254565b9050919050565b600060208201905061145260008301846112ba565b92915050565b600060408201905061146d60008301856112ba565b61147a6020830184611149565b9392505050565b600060408201905061149660008301856112ba565b6114a3602083018461112b565b9392505050565b60006060820190506114bf60008301866112ba565b6114cc6020830185611149565b6114d960408301846112ba565b949350505050565b6000604051905081810181811067ffffffffffffffff82111715611508576115076116eb565b5b8060405250919050565b600067ffffffffffffffff82111561152d5761152c6116eb565b5b601f19601f8301169050602081019050919050565b600082825260208201905092915050565b600061155e82611625565b915061156983611625565b9250827fffffffffffffffffffffffffffffffffffffffffffffffffffffffffffffffff0382111561159e5761159d6116bc565b5b828201905092915050565b60006115b482611605565b9050919050565b60006115c682611605565b9050919050565b60008115159050919050565b60007fffffffff0000000000000000000000000000000000000000000000000000000082169050919050565b600073ffffffffffffffffffffffffffffffffffffffff82169050919050565b6000819050919050565b600061163a82611689565b9050919050565b600061164c82611653565b9050919050565b600061165e82611605565b9050919050565b600061167082611677565b9050919050565b600061168282611605565b9050919050565b60006116948261169b565b9050919050565b60006116a682611605565b9050919050565b82818337600083830152505050565b7f4e487b7100000000000000000000000000000000000000000000000000000000600052601160045260246000fd5b7f4e487b7100000000000000000000000000000000000000000000000000000000600052604160045260246000fd5b611723816115a9565b811461172e57600080fd5b50565b61173a816115cd565b811461174557600080fd5b50565b61175181611625565b811461175c57600080fd5b5056fea2646970667358221220e8486ce6beb12b4c7582ee5b1cef442e5292904d6262c6907b1ec9b0df6c24c564736f6c63430008000033a264697066735822122045a8a6dea8e4521f7f89eb87705639c8645c1a3118bf22b51c231510fb89188064736f6c63430008000033",
  "immutableReferences": {},
  "source": "// SPDX-License-Identifier: MIT\npragma solidity ^0.8.0;\n\nimport \"./presets/ERC721PresetMinterPauserAutoId.sol\";\nimport \"./extensions/ERC721Pausable.sol\";\n\ncontract DVT is ERC721PresetMinterPauserAutoId {\n    constructor()\n    ERC721PresetMinterPauserAutoId(\n        \"Davinci Token\",\n        \"DVT\",\n        \"https://davinci.com/api/token/\"\n    )\n    {}\n\n    // function _beforeTokenTransfer(\n    //     address from,\n    //     address to,\n    //     uint256 tokenId\n    // ) internal virtual override(ERC721) {\n    //     super._beforeTokenTransfer(from, to, tokenId);\n    //     uint256 secondaryShare = msg.value / 100 * 10;\n    //     payable(_creatorOf(tokenId)).transfer(secondaryShare);\n    // }\n}",
  "sourcePath": "/Volumes/Transcend/Projects/DappsLab/Lottery-Smart-Contract/contracts/customERC20ERC721/ERC721/DVT.sol",
  "compiler": {
    "name": "solc",
    "version": "0.8.0+commit.c7dfd78e.Emscripten.clang"
  },
  "schemaVersion": "3.4.2",
  "updatedAt": "2021-07-27T08:32:52.118Z",
  "devdoc": {
    "kind": "dev",
    "methods": {
      "_mint(address,uint256,uint256)": {
        "details": "Mints `tokenId` and transfers it to `to`. WARNING: Usage of this method is discouraged, use {_safeMint} whenever possible Requirements: - `tokenId` must not exist. - `to` cannot be the zero address. Emits a {Transfer} event."
      },
      "_spend(uint256,address)": {
        "details": "See {IERC721-safeTransferFrom}."
      },
      "approve(address,uint256)": {
        "details": "See {IERC721-approve}."
      },
      "balanceOf(address)": {
        "details": "See {IERC721-balanceOf}."
      },
      "burn(uint256)": {
        "details": "Burns `tokenId`. See {ERC721-_burn}. Requirements: - The caller must own `tokenId` or be an approved operator."
      },
      "getApproved(uint256)": {
        "details": "See {IERC721-getApproved}."
      },
      "getRoleAdmin(bytes32)": {
        "details": "Returns the admin role that controls `role`. See {grantRole} and {revokeRole}. To change a role's admin, use {_setRoleAdmin}."
      },
      "getRoleMember(bytes32,uint256)": {
        "details": "Returns one of the accounts that have `role`. `index` must be a value between 0 and {getRoleMemberCount}, non-inclusive. Role bearers are not sorted in any particular way, and their ordering may change at any point. WARNING: When using {getRoleMember} and {getRoleMemberCount}, make sure you perform all queries on the same block. See the following https://forum.openzeppelin.com/t/iterating-over-elements-on-enumerableset-in-openzeppelin-contracts/2296[forum post] for more information."
      },
      "getRoleMemberCount(bytes32)": {
        "details": "Returns the number of accounts that have `role`. Can be used together with {getRoleMember} to enumerate all bearers of a role."
      },
      "grantRole(bytes32,address)": {
        "details": "Overload {grantRole} to track enumerable memberships"
      },
      "hasRole(bytes32,address)": {
        "details": "Returns `true` if `account` has been granted `role`."
      },
      "isApprovedForAll(address,address)": {
        "details": "See {IERC721-isApprovedForAll}."
      },
      "mint(address,uint256)": {
        "details": "Creates a new token for `to`. Its token ID will be automatically assigned (and available on the emitted {IERC721-Transfer} event), and the token URI autogenerated based on the base URI passed at construction. See {ERC721-_mint}. Requirements: - the caller must have the `MINTER_ROLE`."
      },
      "name()": {
        "details": "See {IERC721Metadata-name}."
      },
      "ownerOf(uint256)": {
        "details": "See {IERC721-ownerOf}."
      },
      "pause()": {
        "details": "Pauses all token transfers. See {ERC721Pausable} and {Pausable-_pause}. Requirements: - the caller must have the `PAUSER_ROLE`."
      },
      "paused()": {
        "details": "Returns true if the contract is paused, and false otherwise."
      },
      "renounceRole(bytes32,address)": {
        "details": "Overload {renounceRole} to track enumerable memberships"
      },
      "revokeRole(bytes32,address)": {
        "details": "Overload {revokeRole} to track enumerable memberships"
      },
      "safeTransferFrom(address,address,uint256)": {
        "details": "Safely transfers `tokenId` token from `from` to `to`, checking first that contract recipients are aware of the ERC721 protocol to prevent tokens from being forever locked. Requirements: - `from` cannot be the zero address. - `to` cannot be the zero address. - `tokenId` token must exist and be owned by `from`. - If the caller is not `from`, it must be have been allowed to move this token by either {approve} or {setApprovalForAll}. - If `to` refers to a smart contract, it must implement {IERC721Receiver-onERC721Received}, which is called upon a safe transfer. Emits a {Transfer} event."
      },
      "safeTransferFrom(address,address,uint256,bytes)": {
        "details": "See {IERC721-safeTransferFrom}."
      },
      "setApprovalForAll(address,bool)": {
        "details": "See {IERC721-setApprovalForAll}."
      },
      "supportsInterface(bytes4)": {
        "details": "See {IERC165-supportsInterface}."
      },
      "symbol()": {
        "details": "See {IERC721Metadata-symbol}."
      },
      "tokenByIndex(uint256)": {
        "details": "See {IERC721Enumerable-tokenByIndex}."
      },
      "tokenOfOwnerByIndex(address,uint256)": {
        "details": "See {IERC721Enumerable-tokenOfOwnerByIndex}."
      },
      "tokenURI(uint256)": {
        "details": "See {IERC721Metadata-tokenURI}."
      },
      "totalSupply()": {
        "details": "See {IERC721Enumerable-totalSupply}."
      },
      "transferFrom(address,address,uint256)": {
        "details": "See {IERC721-transferFrom}."
      },
      "unpause()": {
        "details": "Unpauses all token transfers. See {ERC721Pausable} and {Pausable-_unpause}. Requirements: - the caller must have the `PAUSER_ROLE`."
      }
    },
    "version": 1
  },
  "userdoc": {
    "kind": "user",
    "methods": {
      "getToken()": {
        "notice": "Getter and Setter of _token (ERC20)*"
      }
    },
    "version": 1
  }
}