{
  "contractName": "DVT",
  "abi": [
    {
      "inputs": [],
      "stateMutability": "nonpayable",
      "type": "constructor"
    },
    {
      "anonymous": false,
      "inputs": [
        {
          "indexed": true,
          "internalType": "address",
          "name": "owner",
          "type": "address"
        },
        {
          "indexed": true,
          "internalType": "address",
          "name": "approved",
          "type": "address"
        },
        {
          "indexed": true,
          "internalType": "uint256",
          "name": "tokenId",
          "type": "uint256"
        }
      ],
      "name": "Approval",
      "type": "event"
    },
    {
      "anonymous": false,
      "inputs": [
        {
          "indexed": true,
          "internalType": "address",
          "name": "owner",
          "type": "address"
        },
        {
          "indexed": true,
          "internalType": "address",
          "name": "operator",
          "type": "address"
        },
        {
          "indexed": false,
          "internalType": "bool",
          "name": "approved",
          "type": "bool"
        }
      ],
      "name": "ApprovalForAll",
      "type": "event"
    },
    {
      "anonymous": false,
      "inputs": [
        {
          "indexed": false,
          "internalType": "address",
          "name": "account",
          "type": "address"
        }
      ],
      "name": "Paused",
      "type": "event"
    },
    {
      "anonymous": false,
      "inputs": [
        {
          "indexed": true,
          "internalType": "bytes32",
          "name": "role",
          "type": "bytes32"
        },
        {
          "indexed": true,
          "internalType": "bytes32",
          "name": "previousAdminRole",
          "type": "bytes32"
        },
        {
          "indexed": true,
          "internalType": "bytes32",
          "name": "newAdminRole",
          "type": "bytes32"
        }
      ],
      "name": "RoleAdminChanged",
      "type": "event"
    },
    {
      "anonymous": false,
      "inputs": [
        {
          "indexed": true,
          "internalType": "bytes32",
          "name": "role",
          "type": "bytes32"
        },
        {
          "indexed": true,
          "internalType": "address",
          "name": "account",
          "type": "address"
        },
        {
          "indexed": true,
          "internalType": "address",
          "name": "sender",
          "type": "address"
        }
      ],
      "name": "RoleGranted",
      "type": "event"
    },
    {
      "anonymous": false,
      "inputs": [
        {
          "indexed": true,
          "internalType": "bytes32",
          "name": "role",
          "type": "bytes32"
        },
        {
          "indexed": true,
          "internalType": "address",
          "name": "account",
          "type": "address"
        },
        {
          "indexed": true,
          "internalType": "address",
          "name": "sender",
          "type": "address"
        }
      ],
      "name": "RoleRevoked",
      "type": "event"
    },
    {
      "anonymous": false,
      "inputs": [
        {
          "indexed": true,
          "internalType": "address",
          "name": "from",
          "type": "address"
        },
        {
          "indexed": true,
          "internalType": "address",
          "name": "to",
          "type": "address"
        },
        {
          "indexed": true,
          "internalType": "uint256",
          "name": "tokenId",
          "type": "uint256"
        }
      ],
      "name": "Transfer",
      "type": "event"
    },
    {
      "anonymous": false,
      "inputs": [
        {
          "indexed": false,
          "internalType": "address",
          "name": "account",
          "type": "address"
        }
      ],
      "name": "Unpaused",
      "type": "event"
    },
    {
      "inputs": [],
      "name": "DEFAULT_ADMIN_ROLE",
      "outputs": [
        {
          "internalType": "bytes32",
          "name": "",
          "type": "bytes32"
        }
      ],
      "stateMutability": "view",
      "type": "function"
    },
    {
      "inputs": [],
      "name": "MINTER_ROLE",
      "outputs": [
        {
          "internalType": "bytes32",
          "name": "",
          "type": "bytes32"
        }
      ],
      "stateMutability": "view",
      "type": "function"
    },
    {
      "inputs": [],
      "name": "PAUSER_ROLE",
      "outputs": [
        {
          "internalType": "bytes32",
          "name": "",
          "type": "bytes32"
        }
      ],
      "stateMutability": "view",
      "type": "function"
    },
    {
      "inputs": [
        {
          "internalType": "uint256",
          "name": "",
          "type": "uint256"
        }
      ],
      "name": "_creator",
      "outputs": [
        {
          "internalType": "address",
          "name": "",
          "type": "address"
        }
      ],
      "stateMutability": "view",
      "type": "function"
    },
    {
      "inputs": [],
      "name": "_creatorComission",
      "outputs": [
        {
          "internalType": "uint256",
          "name": "",
          "type": "uint256"
        }
      ],
      "stateMutability": "view",
      "type": "function"
    },
    {
      "inputs": [
        {
          "internalType": "uint256",
          "name": "",
          "type": "uint256"
        }
      ],
      "name": "_owners",
      "outputs": [
        {
          "internalType": "address",
          "name": "",
          "type": "address"
        }
      ],
      "stateMutability": "view",
      "type": "function"
    },
    {
      "inputs": [
        {
          "internalType": "uint256",
          "name": "",
          "type": "uint256"
        }
      ],
      "name": "_sellPrice",
      "outputs": [
        {
          "internalType": "uint256",
          "name": "",
          "type": "uint256"
        }
      ],
      "stateMutability": "view",
      "type": "function"
    },
    {
      "inputs": [
        {
          "internalType": "uint256",
          "name": "",
          "type": "uint256"
        }
      ],
      "name": "_sellingNFTs",
      "outputs": [
        {
          "internalType": "uint256",
          "name": "",
          "type": "uint256"
        }
      ],
      "stateMutability": "view",
      "type": "function"
    },
    {
      "inputs": [
        {
          "internalType": "uint256",
          "name": "",
          "type": "uint256"
        }
      ],
      "name": "_sellingNFTsIndexes",
      "outputs": [
        {
          "internalType": "uint256",
          "name": "",
          "type": "uint256"
        }
      ],
      "stateMutability": "view",
      "type": "function"
    },
    {
      "inputs": [
        {
          "internalType": "uint256",
          "name": "tokenId",
          "type": "uint256"
        },
        {
          "internalType": "address",
          "name": "to",
          "type": "address"
        }
      ],
      "name": "_spend",
      "outputs": [
        {
          "internalType": "bool",
          "name": "",
          "type": "bool"
        }
      ],
      "stateMutability": "nonpayable",
      "type": "function"
    },
    {
      "inputs": [
        {
          "internalType": "address",
          "name": "to",
          "type": "address"
        },
        {
          "internalType": "uint256",
          "name": "tokenId",
          "type": "uint256"
        }
      ],
      "name": "approve",
      "outputs": [],
      "stateMutability": "nonpayable",
      "type": "function"
    },
    {
      "inputs": [
        {
          "internalType": "address",
          "name": "owner",
          "type": "address"
        }
      ],
      "name": "balanceOf",
      "outputs": [
        {
          "internalType": "uint256",
          "name": "",
          "type": "uint256"
        }
      ],
      "stateMutability": "view",
      "type": "function"
    },
    {
      "inputs": [
        {
          "internalType": "uint256",
          "name": "tokenId",
          "type": "uint256"
        }
      ],
      "name": "burn",
      "outputs": [],
      "stateMutability": "nonpayable",
      "type": "function"
    },
    {
      "inputs": [
        {
          "internalType": "uint256",
          "name": "tokenId",
          "type": "uint256"
        }
      ],
      "name": "buyNFT",
      "outputs": [
        {
          "internalType": "bool",
          "name": "",
          "type": "bool"
        }
      ],
      "stateMutability": "payable",
      "type": "function"
    },
    {
      "inputs": [
        {
          "internalType": "uint256",
          "name": "tokenId",
          "type": "uint256"
        }
      ],
      "name": "cancelSellingNFT",
      "outputs": [
        {
          "internalType": "bool",
          "name": "",
          "type": "bool"
        }
      ],
      "stateMutability": "nonpayable",
      "type": "function"
    },
    {
      "inputs": [
        {
          "internalType": "uint256",
          "name": "tokenId",
          "type": "uint256"
        }
      ],
      "name": "deleteAuctionContract",
      "outputs": [],
      "stateMutability": "nonpayable",
      "type": "function"
    },
    {
      "inputs": [
        {
          "internalType": "uint256",
          "name": "tokenId",
          "type": "uint256"
        }
      ],
      "name": "getApproved",
      "outputs": [
        {
          "internalType": "address",
          "name": "",
          "type": "address"
        }
      ],
      "stateMutability": "view",
      "type": "function"
    },
    {
      "inputs": [
        {
          "internalType": "uint256",
          "name": "tokenId",
          "type": "uint256"
        }
      ],
      "name": "getAuctionContract",
      "outputs": [
        {
          "internalType": "contract Auction",
          "name": "",
          "type": "address"
        }
      ],
      "stateMutability": "view",
      "type": "function"
    },
    {
      "inputs": [
        {
          "internalType": "uint256",
          "name": "tokenId",
          "type": "uint256"
        }
      ],
      "name": "getCreator",
      "outputs": [
        {
          "internalType": "address",
          "name": "",
          "type": "address"
        }
      ],
      "stateMutability": "view",
      "type": "function"
    },
    {
      "inputs": [],
      "name": "getCreatorComission",
      "outputs": [
        {
          "internalType": "uint256",
          "name": "",
          "type": "uint256"
        }
      ],
      "stateMutability": "view",
      "type": "function"
    },
    {
      "inputs": [
        {
          "internalType": "bytes32",
          "name": "role",
          "type": "bytes32"
        }
      ],
      "name": "getRoleAdmin",
      "outputs": [
        {
          "internalType": "bytes32",
          "name": "",
          "type": "bytes32"
        }
      ],
      "stateMutability": "view",
      "type": "function"
    },
    {
      "inputs": [
        {
          "internalType": "bytes32",
          "name": "role",
          "type": "bytes32"
        },
        {
          "internalType": "uint256",
          "name": "index",
          "type": "uint256"
        }
      ],
      "name": "getRoleMember",
      "outputs": [
        {
          "internalType": "address",
          "name": "",
          "type": "address"
        }
      ],
      "stateMutability": "view",
      "type": "function"
    },
    {
      "inputs": [
        {
          "internalType": "bytes32",
          "name": "role",
          "type": "bytes32"
        }
      ],
      "name": "getRoleMemberCount",
      "outputs": [
        {
          "internalType": "uint256",
          "name": "",
          "type": "uint256"
        }
      ],
      "stateMutability": "view",
      "type": "function"
    },
    {
      "inputs": [
        {
          "internalType": "uint256",
          "name": "tokenId",
          "type": "uint256"
        }
      ],
      "name": "getSellPrice",
      "outputs": [
        {
          "internalType": "uint256",
          "name": "",
          "type": "uint256"
        }
      ],
      "stateMutability": "view",
      "type": "function"
    },
    {
      "inputs": [],
      "name": "getSellingNFTs",
      "outputs": [
        {
          "internalType": "uint256[]",
          "name": "",
          "type": "uint256[]"
        }
      ],
      "stateMutability": "view",
      "type": "function"
    },
    {
      "inputs": [],
      "name": "getToken",
      "outputs": [
        {
          "internalType": "contract ERC20",
          "name": "",
          "type": "address"
        }
      ],
      "stateMutability": "view",
      "type": "function"
    },
    {
      "inputs": [
        {
          "internalType": "bytes32",
          "name": "role",
          "type": "bytes32"
        },
        {
          "internalType": "address",
          "name": "account",
          "type": "address"
        }
      ],
      "name": "grantRole",
      "outputs": [],
      "stateMutability": "nonpayable",
      "type": "function"
    },
    {
      "inputs": [
        {
          "internalType": "bytes32",
          "name": "role",
          "type": "bytes32"
        },
        {
          "internalType": "address",
          "name": "account",
          "type": "address"
        }
      ],
      "name": "hasRole",
      "outputs": [
        {
          "internalType": "bool",
          "name": "",
          "type": "bool"
        }
      ],
      "stateMutability": "view",
      "type": "function"
    },
    {
      "inputs": [
        {
          "internalType": "address",
          "name": "owner",
          "type": "address"
        },
        {
          "internalType": "address",
          "name": "operator",
          "type": "address"
        }
      ],
      "name": "isApprovedForAll",
      "outputs": [
        {
          "internalType": "bool",
          "name": "",
          "type": "bool"
        }
      ],
      "stateMutability": "view",
      "type": "function"
    },
    {
      "inputs": [
        {
          "internalType": "address",
          "name": "to",
          "type": "address"
        }
      ],
      "name": "mint",
      "outputs": [],
      "stateMutability": "nonpayable",
      "type": "function"
    },
    {
      "inputs": [],
      "name": "name",
      "outputs": [
        {
          "internalType": "string",
          "name": "",
          "type": "string"
        }
      ],
      "stateMutability": "view",
      "type": "function"
    },
    {
      "inputs": [
        {
          "internalType": "uint256",
          "name": "tokenId",
          "type": "uint256"
        }
      ],
      "name": "ownerOf",
      "outputs": [
        {
          "internalType": "address",
          "name": "",
          "type": "address"
        }
      ],
      "stateMutability": "view",
      "type": "function"
    },
    {
      "inputs": [],
      "name": "pause",
      "outputs": [],
      "stateMutability": "nonpayable",
      "type": "function"
    },
    {
      "inputs": [],
      "name": "paused",
      "outputs": [
        {
          "internalType": "bool",
          "name": "",
          "type": "bool"
        }
      ],
      "stateMutability": "view",
      "type": "function"
    },
    {
      "inputs": [
        {
          "internalType": "bytes32",
          "name": "role",
          "type": "bytes32"
        },
        {
          "internalType": "address",
          "name": "account",
          "type": "address"
        }
      ],
      "name": "renounceRole",
      "outputs": [],
      "stateMutability": "nonpayable",
      "type": "function"
    },
    {
      "inputs": [
        {
          "internalType": "bytes32",
          "name": "role",
          "type": "bytes32"
        },
        {
          "internalType": "address",
          "name": "account",
          "type": "address"
        }
      ],
      "name": "revokeRole",
      "outputs": [],
      "stateMutability": "nonpayable",
      "type": "function"
    },
    {
      "inputs": [
        {
          "internalType": "address",
          "name": "to",
          "type": "address"
        }
      ],
      "name": "safeMint",
      "outputs": [],
      "stateMutability": "nonpayable",
      "type": "function"
    },
    {
      "inputs": [
        {
          "internalType": "address",
          "name": "from",
          "type": "address"
        },
        {
          "internalType": "address",
          "name": "to",
          "type": "address"
        },
        {
          "internalType": "uint256",
          "name": "tokenId",
          "type": "uint256"
        }
      ],
      "name": "safeTransferFrom",
      "outputs": [],
      "stateMutability": "nonpayable",
      "type": "function"
    },
    {
      "inputs": [
        {
          "internalType": "address",
          "name": "from",
          "type": "address"
        },
        {
          "internalType": "address",
          "name": "to",
          "type": "address"
        },
        {
          "internalType": "uint256",
          "name": "tokenId",
          "type": "uint256"
        },
        {
          "internalType": "bytes",
          "name": "_data",
          "type": "bytes"
        }
      ],
      "name": "safeTransferFrom",
      "outputs": [],
      "stateMutability": "nonpayable",
      "type": "function"
    },
    {
      "inputs": [
        {
          "internalType": "address",
          "name": "operator",
          "type": "address"
        },
        {
          "internalType": "bool",
          "name": "approved",
          "type": "bool"
        }
      ],
      "name": "setApprovalForAll",
      "outputs": [],
      "stateMutability": "nonpayable",
      "type": "function"
    },
    {
      "inputs": [
        {
          "internalType": "address",
          "name": "tokenAddress",
          "type": "address"
        }
      ],
      "name": "setToken",
      "outputs": [],
      "stateMutability": "nonpayable",
      "type": "function"
    },
    {
      "inputs": [
        {
          "internalType": "uint256",
          "name": "tokenId",
          "type": "uint256"
        },
        {
          "internalType": "uint256",
          "name": "time",
          "type": "uint256"
        }
      ],
      "name": "startAuction",
      "outputs": [],
      "stateMutability": "nonpayable",
      "type": "function"
    },
    {
      "inputs": [
        {
          "internalType": "uint256",
          "name": "tokenId",
          "type": "uint256"
        },
        {
          "internalType": "uint256",
          "name": "price",
          "type": "uint256"
        }
      ],
      "name": "startSellingNFT",
      "outputs": [
        {
          "internalType": "bool",
          "name": "",
          "type": "bool"
        }
      ],
      "stateMutability": "nonpayable",
      "type": "function"
    },
    {
      "inputs": [
        {
          "internalType": "bytes4",
          "name": "interfaceId",
          "type": "bytes4"
        }
      ],
      "name": "supportsInterface",
      "outputs": [
        {
          "internalType": "bool",
          "name": "",
          "type": "bool"
        }
      ],
      "stateMutability": "view",
      "type": "function"
    },
    {
      "inputs": [],
      "name": "symbol",
      "outputs": [
        {
          "internalType": "string",
          "name": "",
          "type": "string"
        }
      ],
      "stateMutability": "view",
      "type": "function"
    },
    {
      "inputs": [
        {
          "internalType": "uint256",
          "name": "index",
          "type": "uint256"
        }
      ],
      "name": "tokenByIndex",
      "outputs": [
        {
          "internalType": "uint256",
          "name": "",
          "type": "uint256"
        }
      ],
      "stateMutability": "view",
      "type": "function"
    },
    {
      "inputs": [
        {
          "internalType": "address",
          "name": "owner",
          "type": "address"
        },
        {
          "internalType": "uint256",
          "name": "index",
          "type": "uint256"
        }
      ],
      "name": "tokenOfOwnerByIndex",
      "outputs": [
        {
          "internalType": "uint256",
          "name": "",
          "type": "uint256"
        }
      ],
      "stateMutability": "view",
      "type": "function"
    },
    {
      "inputs": [
        {
          "internalType": "uint256",
          "name": "tokenId",
          "type": "uint256"
        }
      ],
      "name": "tokenURI",
      "outputs": [
        {
          "internalType": "string",
          "name": "",
          "type": "string"
        }
      ],
      "stateMutability": "view",
      "type": "function"
    },
    {
      "inputs": [],
      "name": "totalSupply",
      "outputs": [
        {
          "internalType": "uint256",
          "name": "",
          "type": "uint256"
        }
      ],
      "stateMutability": "view",
      "type": "function"
    },
    {
      "inputs": [
        {
          "internalType": "address",
          "name": "from",
          "type": "address"
        },
        {
          "internalType": "address",
          "name": "to",
          "type": "address"
        },
        {
          "internalType": "uint256",
          "name": "tokenId",
          "type": "uint256"
        }
      ],
      "name": "transferFrom",
      "outputs": [],
      "stateMutability": "nonpayable",
      "type": "function"
    },
    {
      "inputs": [],
      "name": "unpause",
      "outputs": [],
      "stateMutability": "nonpayable",
      "type": "function"
    }
  ],
  "bytecode": "0x6080604052600a6006553480156200001657600080fd5b506040518060400160405280600d81526020017f446176696e636920546f6b656e000000000000000000000000000000000000008152506040518060400160405280600381526020017f44565400000000000000000000000000000000000000000000000000000000008152506040518060400160405280601e81526020017f68747470733a2f2f646176696e63692e636f6d2f6170692f746f6b656e2f000081525082828160039080519060200190620000d392919062000381565b508051620000e990600490602084019062000381565b505060058054600160a060020a03191633179055506014805460ff1916905580516200011d90601690602084019062000381565b5062000146600062000137640100000000620001bf810204565b640100000000620001c3810204565b6200017e7f9f2df0fed2c77648de5860a4cc508cd0818c85b8b8a1ab4ceeef8d981c8956a662000137640100000000620001bf810204565b620001b67f65d7a28e3265b37a6474929f336521b332c1681b933f6cb9f3376673440d862a62000137640100000000620001bf810204565b5050506200047d565b3390565b620001dd828264010000000062001bd46200020a82021704565b600082815260016020526040902062000205908264010000000062001be46200022382021704565b505050565b6200021f82826401000000006200024c810204565b5050565b60006200024383600160a060020a038416640100000000620002e8810204565b90505b92915050565b62000261828264010000000062000340810204565b6200021f57600082815260208181526040808320600160a060020a03851684529091529020805460ff19166001179055620002a4640100000000620001bf810204565b600160a060020a031681600160a060020a0316837f2f8788117e7eff1d82e926ec794901d17c78024a50270940304540a733656f0d60405160405180910390a45050565b6000620002ff838364010000000062000369810204565b620003375750815460018181018455600084815260208082209093018490558454848252828601909352604090209190915562000246565b50600062000246565b600091825260208281526040808420600160a060020a0393909316845291905290205460ff1690565b60009081526001919091016020526040902054151590565b8280546200038f9062000427565b90600052602060002090601f016020900481019282620003b35760008555620003fe565b82601f10620003ce57805160ff1916838001178555620003fe565b82800160010185558215620003fe579182015b82811115620003fe578251825591602001919060010190620003e1565b506200040c92915062000410565b5090565b5b808211156200040c576000815560010162000411565b6002810460018216806200043c57607f821691505b6020821081141562000477577f4e487b7100000000000000000000000000000000000000000000000000000000600052602260045260246000fd5b50919050565b6154f4806200048d6000396000f3fe608060405260043610620003305760003560e060020a900480636d3d602811620001bb578063a22cb46511620000f5578063ca15c87311620000a7578063d547741f116200007d578063d547741f14620009ac578063e506dfbe14620009d1578063e63ab1e914620009f6578063e985e9c51462000a0e5762000330565b8063ca15c873146200094a578063d48e638a146200096f578063d539139314620009945762000330565b8063a22cb4651462000879578063aac5643d146200089e578063b88d4fde14620008b6578063ba730e5314620008db578063c494b0821462000900578063c87b56dd14620009255762000330565b80639010d07c116200016d57806395d89b41116200014357806395d89b4114620007ff57806396e392d31462000817578063992924a6146200083c578063a217fddf14620008615762000330565b80639010d07c146200079057806391d1485414620007b55780639564470e14620007da5762000330565b80636d3d602814620006ca5780636e8e78db14620006ef57806370a0823114620007075780637211a20a146200072c57806380cf4dad14620007535780638456cb5914620007785762000330565b80632f745c59116200028d57806342966c68116200023f57806351ed8288116200021557806351ed828814620006515780635c975abb14620006685780636352211e14620006805780636a62784214620006a55762000330565b806342966c6814620005e25780634f6ccce714620006075780634fee13fc146200062c5762000330565b80632f745c59146200051157806336568abe14620005365780633f4ba83a146200055b57806340d097c3146200057357806341787197146200059857806342842e0e14620005bd5762000330565b806321df0da711620002e757806321df0da7146200044057806323b872dd1462000458578063248a9ca3146200047d5780632838324b14620004a257806329e02e7014620004c75780632f2ff15d14620004ec5762000330565b806301ffc9a7146200033557806306fdde031462000372578063081812fc1462000399578063095ea7b314620003cd578063144fa6d714620003f457806318160ddd1462000419575b600080fd5b3480156200034257600080fd5b506200035a6200035436600462003295565b62000a33565b60405162000369919062003496565b60405180910390f35b3480156200037f57600080fd5b506200038a62000a48565b604051620003699190620034aa565b348015620003a657600080fd5b50620003be620003b836600462003235565b62000ae2565b604051620003699190620033e5565b348015620003da57600080fd5b50620003f2620003ec366004620031ea565b62000b36565b005b3480156200040157600080fd5b50620003f26200041336600462003041565b62000be4565b3480156200042657600080fd5b506200043162000c36565b604051620003699190620034a1565b3480156200044d57600080fd5b50620003be62000c3c565b3480156200046557600080fd5b50620003f26200047736600462003095565b62000c4b565b3480156200048a57600080fd5b50620004316200049c36600462003235565b62000c8f565b348015620004af57600080fd5b5062000431620004c136600462003235565b62000ca4565b348015620004d457600080fd5b50620003be620004e636600462003235565b62000cb6565b348015620004f957600080fd5b50620003f26200050b3660046200324e565b62000cd1565b3480156200051e57600080fd5b506200043162000530366004620031ea565b62000cf7565b3480156200054357600080fd5b50620003f2620005553660046200324e565b62000d54565b3480156200056857600080fd5b50620003f262000d7a565b3480156200058057600080fd5b50620003f26200059236600462003041565b62000dd7565b348015620005a557600080fd5b5062000431620005b736600462003235565b62000e4e565b348015620005ca57600080fd5b50620003f2620005dc36600462003095565b62000e60565b348015620005ef57600080fd5b50620003f26200060136600462003235565b62000e7d565b3480156200061457600080fd5b50620004316200062636600462003235565b62000eb8565b3480156200063957600080fd5b50620003f26200064b36600462003273565b62000f1f565b6200035a6200066236600462003235565b620010c5565b3480156200067557600080fd5b506200035a62001533565b3480156200068d57600080fd5b50620003be6200069f36600462003235565b6200153c565b348015620006b257600080fd5b50620003f2620006c436600462003041565b62000e28565b348015620006d757600080fd5b506200035a620006e936600462003273565b62001577565b348015620006fc57600080fd5b506200043162001675565b3480156200071457600080fd5b50620004316200072636600462003041565b6200167b565b3480156200073957600080fd5b5062000744620016c5565b60405162000369919062003450565b3480156200076057600080fd5b50620004316200077236600462003235565b6200171e565b3480156200078557600080fd5b50620003f262001740565b3480156200079d57600080fd5b50620003be620007af36600462003273565b6200179b565b348015620007c257600080fd5b506200035a620007d43660046200324e565b620017bc565b348015620007e757600080fd5b506200035a620007f9366004620032ec565b620017e5565b3480156200080c57600080fd5b506200038a620017fd565b3480156200082457600080fd5b50620003f26200083636600462003235565b6200180e565b3480156200084957600080fd5b50620003be6200085b36600462003235565b62001868565b3480156200086e57600080fd5b506200043162001883565b3480156200088657600080fd5b50620003f262000898366004620031af565b62001888565b348015620008ab57600080fd5b506200043162001964565b348015620008c357600080fd5b50620003f2620008d5366004620030d5565b6200196a565b348015620008e857600080fd5b5062000431620008fa36600462003235565b620019b5565b3480156200090d57600080fd5b506200035a6200091f36600462003235565b620019c7565b3480156200093257600080fd5b506200038a6200094436600462003235565b62001a71565b3480156200095757600080fd5b50620004316200096936600462003235565b62001b03565b3480156200097c57600080fd5b50620003be6200098e36600462003235565b62001b1c565b348015620009a157600080fd5b506200043162001b37565b348015620009b957600080fd5b50620003f2620009cb3660046200324e565b62001b5b565b348015620009de57600080fd5b50620003be620009f036600462003235565b62001b67565b34801562000a0357600080fd5b506200043162001b82565b34801562000a1b57600080fd5b506200035a62000a2d3660046200305e565b62001ba6565b600062000a408262001bfb565b90505b919050565b60606003805462000a59906200406a565b80601f016020809104026020016040519081016040528092919081815260200182805462000a87906200406a565b801562000ad85780601f1062000aac5761010080835404028352916020019162000ad8565b820191906000526020600020905b81548152906001019060200180831162000aba57829003601f168201915b5050505050905090565b600062000aef8262001c3c565b62000b1a5760405160e560020a62461bcd02815260040162000b119062003b00565b60405180910390fd5b506000908152600a6020526040902054600160a060020a031690565b600062000b43826200153c565b905080600160a060020a031683600160a060020a0316141562000b7d5760405160e560020a62461bcd02815260040162000b119062003c85565b80600160a060020a031662000b9162001c59565b600160a060020a0316148062000bb1575062000bb18162000a2d62001c59565b62000bd35760405160e560020a62461bcd02815260040162000b11906200386c565b62000bdf838362001c5d565b505050565b600554600160a060020a0316331462000c145760405160e560020a62461bcd02815260040162000b1190620039f1565b60028054600160a060020a031916600160a060020a0392909216919091179055565b60125490565b600254600160a060020a031690565b62000c6062000c5962001c59565b8262001ccd565b62000c825760405160e560020a62461bcd02815260040162000b119062003ce2565b62000bdf83838362001d62565b60009081526020819052604090206001015490565b600e6020526000908152604090205481565b600860205260009081526040902054600160a060020a031681565b62000cdd828262001ea5565b600082815260016020526040902062000bdf908262001be4565b600062000d04836200167b565b821062000d285760405160e560020a62461bcd02815260040162000b1190620035bf565b50600160a060020a03821660009081526010602090815260408083208484529091529020545b92915050565b62000d60828262001ed1565b600082815260016020526040902062000bdf908262001f1d565b62000da97f65d7a28e3265b37a6474929f336521b332c1681b933f6cb9f3376673440d862a620007d462001c59565b62000dcb5760405160e560020a62461bcd02815260040162000b119062003eb3565b62000dd562001f34565b565b62000e067f9f2df0fed2c77648de5860a4cc508cd0818c85b8b8a1ab4ceeef8d981c8956a6620007d462001c59565b62000e285760405160e560020a62461bcd02815260040162000b119062003df9565b62000e3f8162000e39601562001fae565b62001fb2565b62000e4b6015620020b7565b50565b600d6020526000908152604090205481565b62000bdf838383604051806020016040528060008152506200196a565b62000e8b62000c5962001c59565b62000ead5760405160e560020a62461bcd02815260040162000b119062003e56565b62000e4b81620020c0565b600062000ec462000c36565b821062000ee85760405160e560020a62461bcd02815260040162000b119062003d9c565b6012828154811062000f0d5760e060020a634e487b7102600052603260045260246000fd5b90600052602060002001549050919050565b600082815260076020526040902054600160a060020a0316331462000f5b5760405160e560020a62461bcd02815260040162000b1190620039ba565b6000828152600d60205260409020541562000f8d5760405160e560020a62461bcd02815260040162000b119062003d3f565b60008281526007602052604090819020546002549151309285928592600160a060020a039182169290911690859062000fc6906200301b565b62000fd695949392919062003f85565b604051809103906000f08015801562000ff3573d6000803e3d6000fd5b506000848152600c602052604090208054600160a060020a031916600160a060020a0392831617908190556200102d913391168562000e60565b6002546000848152600c6020526040908190205490517f746e8e70000000000000000000000000000000000000000000000000000000008152600160a060020a039283169263746e8e70926200108c9288929091169060040162003f6e565b600060405180830381600087803b158015620010a757600080fd5b505af1158015620010bc573d6000803e3d6000fd5b50505050505050565b6000818152600d6020526040812054620010f65760405160e560020a62461bcd02815260040162000b1190620038c9565b600082815260076020526040902054600160a060020a0316331415620011335760405160e560020a62461bcd02815260040162000b119062003ac9565b6000828152600d6020526040908190205460025491517f70a082310000000000000000000000000000000000000000000000000000000081529091600160a060020a0316906370a08231906200118e903390600401620033e5565b60206040518083038186803b158015620011a757600080fd5b505afa158015620011bc573d6000803e3d6000fd5b505050506040513d601f19601f82011682018060405250810190620011e29190620032d3565b1015620012065760405160e560020a62461bcd02815260040162000b1190620036b0565b6002546000838152600d6020526040908190205490517f6aade288000000000000000000000000000000000000000000000000000000008152600160a060020a0390921691636aade28891620012629133919060040162003437565b602060405180830381600087803b1580156200127d57600080fd5b505af115801562001292573d6000803e3d6000fd5b505050506040513d601f19601f82011682018060405250810190620012b8919062003216565b620012da5760405160e560020a62461bcd02815260040162000b119062003c4e565b6006546000838152600d60205260408120549091606491620012fd919062003fe5565b62001309919062003fce565b600254600085815260086020526040908190205490517fa9059cbb000000000000000000000000000000000000000000000000000000008152929350600160a060020a039182169263a9059cbb9262001369921690859060040162003437565b602060405180830381600087803b1580156200138457600080fd5b505af115801562001399573d6000803e3d6000fd5b505050506040513d601f19601f82011682018060405250810190620013bf919062003216565b50600254600084815260076020908152604080832054600d90925290912054600160a060020a039283169263a9059cbb921690620013ff90859062004007565b6040518363ffffffff1660e060020a0281526004016200142192919062003437565b602060405180830381600087803b1580156200143c57600080fd5b505af115801562001451573d6000803e3d6000fd5b505050506040513d601f19601f8201168201806040525081019062001477919062003216565b50600083815260076020908152604080832054600160a060020a0316835260099091528120805460019290620014af90849062004007565b9091555050336000908152600960205260408120805460019290620014d690849062003fb3565b909155505060008381526007602090815260408083208054600160a060020a03191633179055600e9091529020546200151090846200216f565b50506000908152600e60209081526040808320839055600d909152812055600190565b60145460ff1690565b600081815260076020526040812054600160a060020a03168062000a405760405160e560020a62461bcd02815260040162000b11906200395d565b600082815260076020526040812054600160a060020a03163314620015b35760405160e560020a62461bcd02815260040162000b119062003c17565b60008211620015d95760405160e560020a62461bcd02815260040162000b119062003588565b6000838152600d6020526040902054156200160b5760405160e560020a62461bcd02815260040162000b119062003a28565b6000838152600d60205260408120839055600f805460018181018355928290527f8d1108e10bcb7c27dddfc02ed9d693a074039d026cf4ea4240b40f7d581ac80201859055546200165d919062004007565b6000848152600e602052604090205550600192915050565b60065481565b6000600160a060020a038216620016a95760405160e560020a62461bcd02815260040162000b119062003900565b50600160a060020a031660009081526009602052604090205490565b6060600f80548060200260200160405190810160405280929190818152602001828054801562000ad857602002820191906000526020600020905b81548152602001906001019080831162001700575050505050905090565b600f81815481106200172f57600080fd5b600091825260209091200154905081565b6200176f7f65d7a28e3265b37a6474929f336521b332c1681b933f6cb9f3376673440d862a620007d462001c59565b620017915760405160e560020a62461bcd02815260040162000b1190620036e7565b62000dd5620022b3565b6000828152600160205260408120620017b5908362002318565b9392505050565b600091825260208281526040808420600160a060020a0393909316845291905290205460ff1690565b6000620017f433838562000e60565b50600192915050565b60606004805462000a59906200406a565b6000818152600c6020526040902054600160a060020a031633146200184a5760405160e560020a62461bcd02815260040162000b119062003a5f565b6000908152600c602052604090208054600160a060020a0319169055565b600760205260009081526040902054600160a060020a031681565b600081565b6200189262001c59565b600160a060020a031682600160a060020a03161415620018c95760405160e560020a62461bcd02815260040162000b1190620037a1565b80600b6000620018d862001c59565b600160a060020a03908116825260208083019390935260409182016000908120918716808252919093529120805460ff1916921515929092179091556200191e62001c59565b600160a060020a03167f17307eab39ab6107e8899845ad3d59bd9653f200f220920489ca2b5937696c318360405162001958919062003496565b60405180910390a35050565b60065490565b6200197f6200197862001c59565b8362001ccd565b620019a15760405160e560020a62461bcd02815260040162000b119062003ce2565b620019af8484848462002326565b50505050565b6000908152600d602052604090205490565b600081815260076020526040812054600160a060020a0316331462001a035760405160e560020a62461bcd02815260040162000b119062003c17565b6000828152600d602052604090205462001a345760405160e560020a62461bcd02815260040162000b1190620038c9565b6000828152600e602052604090205462001a4f90836200216f565b506000908152600e60209081526040808320839055600d909152812055600190565b606062001a7e8262001c3c565b62001aa05760405160e560020a62461bcd02815260040162000b119062003bba565b600062001aac62002363565b9050600081511162001ace5760405180602001604052806000815250620017b5565b8062001ada8462002374565b60405160200162001aed9291906200332d565b6040516020818303038152906040529392505050565b600081815260016020526040812062000a4090620024e5565b600090815260086020526040902054600160a060020a031690565b7f9f2df0fed2c77648de5860a4cc508cd0818c85b8b8a1ab4ceeef8d981c8956a681565b62000d608282620024f2565b6000908152600c6020526040902054600160a060020a031690565b7f65d7a28e3265b37a6474929f336521b332c1681b933f6cb9f3376673440d862a81565b600160a060020a039182166000908152600b6020908152604080832093909416825291909152205460ff1690565b62001be0828262002518565b5050565b6000620017b583600160a060020a038416620025a2565b6000600160e060020a031982167f780e9d6300000000000000000000000000000000000000000000000000000000148062000a40575062000a4082620025f1565b600090815260076020526040902054600160a060020a0316151590565b3390565b6000818152600a602052604090208054600160a060020a031916600160a060020a038416908117909155819062001c94826200153c565b600160a060020a03167f8c5be1e5ebec7d5bd14f71427d1e84f3dd0314c0f7b2291e5b200ac8c7c3b92560405160405180910390a45050565b600062001cda8262001c3c565b62001cfc5760405160e560020a62461bcd02815260040162000b1190620037d8565b600062001d09836200153c565b905080600160a060020a031684600160a060020a0316148062001d47575083600160a060020a031662001d3c8462000ae2565b600160a060020a0316145b8062001d5a575062001d5a818562001ba6565b949350505050565b82600160a060020a031662001d77826200153c565b600160a060020a03161462001da35760405160e560020a62461bcd02815260040162000b119062003b5d565b600160a060020a03821662001dcf5760405160e560020a62461bcd02815260040162000b119062003744565b62001ddc83838362002667565b62001de960008262001c5d565b600160a060020a038316600090815260096020526040812080546001929062001e1490849062004007565b9091555050600160a060020a038216600090815260096020526040812080546001929062001e4490849062003fb3565b90915550506000818152600760205260408082208054600160a060020a031916600160a060020a0386811691821790925591518493918716917fddf252ad1be2c89b69c2b068fc378daa952ba7f163c4a11628f55a4df523b3ef91a4505050565b62001eb08262000c8f565b62001ec58162001ebf62001c59565b62002674565b62000bdf838362002518565b62001edb62001c59565b600160a060020a031681600160a060020a03161462001f115760405160e560020a62461bcd02815260040162000b119062003f11565b62001be08282620026e6565b6000620017b583600160a060020a0384166200276e565b62001f3e62001533565b62001f605760405160e560020a62461bcd02815260040162000b119062003551565b6014805460ff191690557f5db9ee0a495bf2e6ff9c91a7834c1ba4fdd244a5e8aa4e537bd38aeae4b073aa62001f9562001c59565b60405162001fa49190620033e5565b60405180910390a1565b5490565b600160a060020a03821662001fde5760405160e560020a62461bcd02815260040162000b119062003a94565b62001fe98162001c3c565b156200200c5760405160e560020a62461bcd02815260040162000b119062003679565b6200201a6000838362002667565b600160a060020a03821660009081526009602052604081208054600192906200204590849062003fb3565b909155505060008181526007602090815260408083208054600160a060020a038716600160a060020a03199182168117909255600890935281842080549093168117909255518392907fddf252ad1be2c89b69c2b068fc378daa952ba7f163c4a11628f55a4df523b3ef908290a45050565b80546001019055565b6000620020cd826200153c565b9050620020dd8160008462002667565b620020ea60008362001c5d565b600160a060020a03811660009081526009602052604081208054600192906200211590849062004007565b90915550506000828152600760205260408082208054600160a060020a031916905551839190600160a060020a038416907fddf252ad1be2c89b69c2b068fc378daa952ba7f163c4a11628f55a4df523b3ef908390a45050565b600f5482106200217f5762001be0565b6000818152600e6020526040812055815b600f54620021a19060019062004007565b8110156200227557600f620021b882600162003fb3565b81548110620021da5760e060020a634e487b7102600052603260045260246000fd5b9060005260206000200154600f82815481106200220a5760e060020a634e487b7102600052603260045260246000fd5b906000526020600020018190555080600e6000600f8481548110620022425760e060020a634e487b7102600052603260045260246000fd5b906000526020600020015481526020019081526020016000208190555080806200226c90620040aa565b91505062002190565b50600f805480620022995760e060020a634e487b7102600052603160045260246000fd5b600190038181906000526020600020016000905590555050565b620022bd62001533565b15620022e05760405160e560020a62461bcd02815260040162000b119062003835565b6014805460ff191660011790557f62e78cea01bee320cd4e420270b5ea74000d11b0c9f74754ebdbfc544b05a25862001f9562001c59565b6000620017b583836200289f565b6200233384848462001d62565b6200234184848484620028db565b620019af5760405160e560020a62461bcd02815260040162000b11906200361c565b60606016805462000a59906200406a565b606081620023b7575060408051808201909152600181527f3000000000000000000000000000000000000000000000000000000000000000602082015262000a43565b8160005b8115620023e75780620023ce81620040aa565b9150620023df9050600a8362003fce565b9150620023bb565b60008167ffffffffffffffff811115620024145760e060020a634e487b7102600052604160045260246000fd5b6040519080825280601f01601f1916602001820160405280156200243f576020820181803683370190505b5090505b841562001d5a576200245760018362004007565b915062002466600a86620040c8565b6200247390603062003fb3565b7f010000000000000000000000000000000000000000000000000000000000000002818381518110620024b95760e060020a634e487b7102600052603260045260246000fd5b6020010190600160f860020a031916908160001a905350620024dd600a8662003fce565b945062002443565b600062000a408262001fae565b620024fd8262000c8f565b6200250c8162001ebf62001c59565b62000bdf8383620026e6565b620025248282620017bc565b62001be057600082815260208181526040808320600160a060020a03851684529091529020805460ff191660011790556200255e62001c59565b600160a060020a031681600160a060020a0316837f2f8788117e7eff1d82e926ec794901d17c78024a50270940304540a733656f0d60405160405180910390a45050565b6000620025b0838362002a27565b620025e85750815460018181018455600084815260208082209093018490558454848252828601909352604090209190915562000d4e565b50600062000d4e565b6000600160e060020a031982167f80ac58cd000000000000000000000000000000000000000000000000000000001480620026555750600160e060020a031982167f5b5e139f00000000000000000000000000000000000000000000000000000000145b8062000a40575062000a408262002a3f565b62000bdf83838362002a80565b620026808282620017bc565b62001be0576200269b81600160a060020a0316601462002aba565b620026a883602062002aba565b604051602001620026bb92919062003360565b60408051601f198184030181529082905260e560020a62461bcd02825262000b1191600401620034aa565b620026f28282620017bc565b1562001be057600082815260208181526040808320600160a060020a03851684529091529020805460ff191690556200272a62001c59565b600160a060020a031681600160a060020a0316837ff6391f5c32d9c69d2a47ea670b442974b53935d1edc7fd64eb21e047a839171b60405160405180910390a45050565b60008181526001830160205260408120548015620028945760006200279560018362004007565b8554909150600090620027ab9060019062004007565b905081811462002835576000866000018281548110620027de5760e060020a634e487b7102600052603260045260246000fd5b9060005260206000200154905080876000018481548110620028135760e060020a634e487b7102600052603260045260246000fd5b6000918252602080832090910192909255918252600188019052604090208390555b8554869080620028585760e060020a634e487b7102600052603160045260246000fd5b60019003818190600052602060002001600090559055856001016000868152602001908152602001600020600090556001935050505062000d4e565b600091505062000d4e565b6000826000018281548110620028c85760e060020a634e487b7102600052603260045260246000fd5b9060005260206000200154905092915050565b6000620028f184600160a060020a031662002cf6565b1562002a1c5783600160a060020a031663150b7a026200291062001c59565b8786866040518563ffffffff1660e060020a028152600401620029379493929190620033f9565b602060405180830381600087803b1580156200295257600080fd5b505af192505050801562002985575060408051601f3d908101601f191682019092526200298291810190620032b4565b60015b620029e8573d808015620029b6576040519150601f19603f3d011682016040523d82523d6000602084013e620029bb565b606091505b508051620029e05760405160e560020a62461bcd02815260040162000b11906200361c565b805181602001fd5b600160e060020a0319167f150b7a020000000000000000000000000000000000000000000000000000000014905062001d5a565b506001949350505050565b60009081526001919091016020526040902054151590565b6000600160e060020a031982167f5a05180f00000000000000000000000000000000000000000000000000000000148062000a40575062000a408262002cfc565b62002a8d83838362002d3d565b62002a9762001533565b1562000bdf5760405160e560020a62461bcd02815260040162000b1190620034f4565b6060600062002acb83600262003fe5565b62002ad890600262003fb3565b67ffffffffffffffff81111562002b025760e060020a634e487b7102600052604160045260246000fd5b6040519080825280601f01601f19166020018201604052801562002b2d576020820181803683370190505b5090507f30000000000000000000000000000000000000000000000000000000000000008160008151811062002b765760e060020a634e487b7102600052603260045260246000fd5b6020010190600160f860020a031916908160001a9053507f78000000000000000000000000000000000000000000000000000000000000008160018151811062002bd35760e060020a634e487b7102600052603260045260246000fd5b6020010190600160f860020a031916908160001a905350600062002bf984600262003fe5565b62002c0690600162003fb3565b90505b600181111562002cd1577f303132333435363738396162636465660000000000000000000000000000000085600f166010811062002c5a5760e060020a634e487b7102600052603260045260246000fd5b1a7f01000000000000000000000000000000000000000000000000000000000000000282828151811062002ca15760e060020a634e487b7102600052603260045260246000fd5b6020010190600160f860020a031916908160001a90535060109094049362002cc98162004050565b905062002c09565b508315620017b55760405160e560020a62461bcd02815260040162000b1190620034bf565b3b151590565b6000600160e060020a031982167f7965db0b00000000000000000000000000000000000000000000000000000000148062000a40575062000a408262002dd6565b62002d4a83838362000bdf565b600160a060020a03831662002d6a5762002d648162002e08565b62002d90565b81600160a060020a031683600160a060020a03161462002d905762002d90838262002e4c565b600160a060020a03821662002db05762002daa8162002eee565b62000bdf565b82600160a060020a031682600160a060020a03161462000bdf5762000bdf828262002fd5565b600160e060020a031981167f01ffc9a70000000000000000000000000000000000000000000000000000000014919050565b601280546000838152601360205260408120829055600182018355919091527fbb8a6a4669ba250d26cd7a459eca9d215f8307e33aebe50379bc5a3617ec34440155565b6000600162002e5b846200167b565b62002e67919062004007565b60008381526011602052604090205490915080821462002ebb57600160a060020a03841660009081526010602090815260408083208584528252808320548484528184208190558352601190915290208190555b506000918252601160209081526040808420849055600160a060020a039094168352601081528383209183525290812055565b60125460009062002f029060019062004007565b6000838152601360205260408120546012805493945090928490811062002f3c5760e060020a634e487b7102600052603260045260246000fd5b90600052602060002001549050806012838154811062002f6f5760e060020a634e487b7102600052603260045260246000fd5b600091825260208083209091019290925582815260139091526040808220849055858252812055601280548062002fb95760e060020a634e487b7102600052603160045260246000fd5b6001900381819060005260206000200160009055905550505050565b600062002fe2836200167b565b600160a060020a039093166000908152601060209081526040808320868452825280832085905593825260119052919091209190915550565b61136e806200415183390190565b8035600160a060020a038116811462000a4357600080fd5b60006020828403121562003053578081fd5b620017b58262003029565b6000806040838503121562003071578081fd5b6200307c8362003029565b91506200308c6020840162003029565b90509250929050565b600080600060608486031215620030aa578081fd5b620030b58462003029565b9250620030c56020850162003029565b9150604084013590509250925092565b60008060008060808587031215620030eb578081fd5b620030f68562003029565b935060206200310781870162003029565b935060408601359250606086013567ffffffffffffffff808211156200312b578384fd5b818801915088601f8301126200313f578384fd5b81358181111562003154576200315462004111565b604051601f8201601f19168101850183811182821017156200317a576200317a62004111565b60405281815283820185018b101562003191578586fd5b81858501868301379081019093019390935250939692955090935050565b60008060408385031215620031c2578182fd5b620031cd8362003029565b91506020830135620031df816200412a565b809150509250929050565b60008060408385031215620031fd578182fd5b620032088362003029565b946020939093013593505050565b60006020828403121562003228578081fd5b8151620017b5816200412a565b60006020828403121562003247578081fd5b5035919050565b6000806040838503121562003261578182fd5b823591506200308c6020840162003029565b6000806040838503121562003286578182fd5b50508035926020909101359150565b600060208284031215620032a7578081fd5b8135620017b58162004139565b600060208284031215620032c6578081fd5b8151620017b58162004139565b600060208284031215620032e5578081fd5b5051919050565b6000806040838503121562003261578081fd5b600081518084526200331981602086016020860162004021565b601f01601f19169290920160200192915050565b600083516200334181846020880162004021565b8351908301906200335781836020880162004021565b01949350505050565b60007f416363657373436f6e74726f6c3a206163636f756e7420000000000000000000825283516200339a81601785016020880162004021565b7f206973206d697373696e6720726f6c65200000000000000000000000000000006017918401918201528351620033d981602884016020880162004021565b01602801949350505050565b600160a060020a0391909116815260200190565b6000600160a060020a038087168352808616602084015250836040830152608060608301526200342d6080830184620032ff565b9695505050505050565b600160a060020a03929092168252602082015260400190565b6020808252825182820181905260009190848201906040850190845b818110156200348a578351835292840192918401916001016200346c565b50909695505050505050565b901515815260200190565b90815260200190565b600060208252620017b56020830184620032ff565b6020808252818101527f537472696e67733a20686578206c656e67746820696e73756666696369656e74604082015260600190565b6020808252602b908201527f4552433732315061757361626c653a20746f6b656e207472616e73666572207760408201527f68696c6520706175736564000000000000000000000000000000000000000000606082015260800190565b60208082526014908201527f5061757361626c653a206e6f7420706175736564000000000000000000000000604082015260600190565b6020808252601e908201527f70726963652073686f756c642062652067726561746572207468616e20300000604082015260600190565b6020808252602b908201527f455243373231456e756d657261626c653a206f776e657220696e646578206f7560408201527f74206f6620626f756e6473000000000000000000000000000000000000000000606082015260800190565b60208082526032908201527f4552433732313a207472616e7366657220746f206e6f6e20455243373231526560408201527f63656976657220696d706c656d656e7465720000000000000000000000000000606082015260800190565b6020808252601c908201527f4552433732313a20746f6b656e20616c7265616479206d696e74656400000000604082015260600190565b6020808252600b908201527f4c6f772062616c616e6365000000000000000000000000000000000000000000604082015260600190565b6020808252603e908201527f4552433732315072657365744d696e7465725061757365724175746f49643a2060408201527f6d75737420686176652070617573657220726f6c6520746f2070617573650000606082015260800190565b60208082526024908201527f4552433732313a207472616e7366657220746f20746865207a65726f2061646460408201527f7265737300000000000000000000000000000000000000000000000000000000606082015260800190565b60208082526019908201527f4552433732313a20617070726f766520746f2063616c6c657200000000000000604082015260600190565b6020808252602c908201527f4552433732313a206f70657261746f7220717565727920666f72206e6f6e657860408201527f697374656e7420746f6b656e0000000000000000000000000000000000000000606082015260800190565b60208082526010908201527f5061757361626c653a2070617573656400000000000000000000000000000000604082015260600190565b60208082526038908201527f4552433732313a20617070726f76652063616c6c6572206973206e6f74206f7760408201527f6e6572206e6f7220617070726f76656420666f7220616c6c0000000000000000606082015260800190565b60208082526016908201527f6e6f742053656c6c696e67207468697320746f6b656e00000000000000000000604082015260600190565b6020808252602a908201527f4552433732313a2062616c616e636520717565727920666f7220746865207a6560408201527f726f206164647265737300000000000000000000000000000000000000000000606082015260800190565b60208082526029908201527f4552433732313a206f776e657220717565727920666f72206e6f6e657869737460408201527f656e7420746f6b656e0000000000000000000000000000000000000000000000606082015260800190565b6020808252601b908201527f63616e206f6e6c792062652063616c6c6564206279204f776e65720000000000604082015260600190565b6020808252601f908201527f63616e2062652063616c6c656420627920436f6e7472616374204f776e657200604082015260600190565b6020808252600f908201527f416c72656164792053656c6c696e670000000000000000000000000000000000604082015260600190565b6020808252818101527f63616e206f6e6c792063616c6c65642062792041756374696f6e2f4f776e6572604082015260600190565b6020808252818101527f4552433732313a206d696e7420746f20746865207a65726f2061646472657373604082015260600190565b6020808252601d908201527f4f776e65722063616e6e6f74206275792069742773206f776e204e4654000000604082015260600190565b6020808252602c908201527f4552433732313a20617070726f76656420717565727920666f72206e6f6e657860408201527f697374656e7420746f6b656e0000000000000000000000000000000000000000606082015260800190565b60208082526029908201527f4552433732313a207472616e73666572206f6620746f6b656e2074686174206960408201527f73206e6f74206f776e0000000000000000000000000000000000000000000000606082015260800190565b6020808252602f908201527f4552433732314d657461646174613a2055524920717565727920666f72206e6f60408201527f6e6578697374656e7420746f6b656e0000000000000000000000000000000000606082015260800190565b60208082526018908201527f63616e20626520736574206279206f776e6572206f6e6c790000000000000000604082015260600190565b60208082526018908201527f546f6b656e205472616e73656374696f6e204661696c65640000000000000000604082015260600190565b60208082526021908201527f4552433732313a20617070726f76616c20746f2063757272656e74206f776e6560408201527f7200000000000000000000000000000000000000000000000000000000000000606082015260800190565b60208082526031908201527f4552433732313a207472616e736665722063616c6c6572206973206e6f74206f60408201527f776e6572206e6f7220617070726f766564000000000000000000000000000000606082015260800190565b60208082526029908201527f416c72656164792053656c6c696e672c2063616e63656c2053656c6c696e672060408201527f4e46542046697273740000000000000000000000000000000000000000000000606082015260800190565b6020808252602c908201527f455243373231456e756d657261626c653a20676c6f62616c20696e646578206f60408201527f7574206f6620626f756e64730000000000000000000000000000000000000000606082015260800190565b6020808252603d908201527f4552433732315072657365744d696e7465725061757365724175746f49643a2060408201527f6d7573742068617665206d696e74657220726f6c6520746f206d696e74000000606082015260800190565b60208082526030908201527f4552433732314275726e61626c653a2063616c6c6572206973206e6f74206f7760408201527f6e6572206e6f7220617070726f76656400000000000000000000000000000000606082015260800190565b602080825260409082018190527f4552433732315072657365744d696e7465725061757365724175746f49643a20908201527f6d75737420686176652070617573657220726f6c6520746f20756e7061757365606082015260800190565b6020808252602f908201527f416363657373436f6e74726f6c3a2063616e206f6e6c792072656e6f756e636560408201527f20726f6c657320666f722073656c660000000000000000000000000000000000606082015260800190565b918252600160a060020a0316602082015260400190565b9485526020850193909352600160a060020a0391821660408501528116606084015216608082015260a00190565b6000821982111562003fc95762003fc9620040df565b500190565b60008262003fe05762003fe0620040f8565b500490565b6000816000190483118215151615620040025762004002620040df565b500290565b6000828210156200401c576200401c620040df565b500390565b60005b838110156200403e57818101518382015260200162004024565b83811115620019af5750506000910152565b600081620040625762004062620040df565b506000190190565b6002810460018216806200407f57607f821691505b60208210811415620040a45760e060020a634e487b7102600052602260045260246000fd5b50919050565b6000600019821415620040c157620040c1620040df565b5060010190565b600082620040da57620040da620040f8565b500690565b60e060020a634e487b7102600052601160045260246000fd5b60e060020a634e487b7102600052601260045260246000fd5b60e060020a634e487b7102600052604160045260246000fd5b801515811462000e4b57600080fd5b600160e060020a03198116811462000e4b57600080fdfe60806040523480156200001157600080fd5b506040516200136e3803806200136e8339810160408190526200003491620000d6565b600485905560008054600160a060020a031916600160a060020a0385161790556200006084426200013d565b600190815560028054600160a060020a0319908116600160a060020a039586161790915560038054821693909416929092179092556009805492830181556000527f6e1540171b6c0c960b71a7020d9f60077f6af931a8bbf590da0223dacf75c7af909101805490911690555062000194915050565b600080600080600060a08688031215620000ee578081fd5b8551945060208601519350604086015162000109816200017b565b60608701519093506200011c816200017b565b60808701519092506200012f816200017b565b809150509295509295909350565b6000821982111562000176577f4e487b710000000000000000000000000000000000000000000000000000000081526011600452602481fd5b500190565b600160a060020a03811681146200019157600080fd5b50565b6111ca80620001a46000396000f3fe6080604052600436106100f75760003560e060020a90048063454a2ab31161008e57806388a6360e1161005d57806388a6360e1461023457806391f9015714610249578063d57bde791461025e578063f56e9c6614610273576100f7565b8063454a2ab3146101df5780634b449cba146101f257806370bda8941461017657806383ffda3b14610214576100f7565b806321df0da7116100ca57806321df0da71461018b5780632a24f46c146101ad57806338af3eed146101b55780633ccfd60b146101ca576100f7565b806312fa6feb146100fc578063144fa6d714610127578063150b7a02146101495780631e36d75514610176575b600080fd5b34801561010857600080fd5b50610111610293565b60405161011e9190610eeb565b60405180910390f35b34801561013357600080fd5b50610147610142366004610d5f565b61029c565b005b34801561015557600080fd5b50610169610164366004610d9e565b6102cb565b60405161011e9190610ef6565b34801561018257600080fd5b506101476102f4565b34801561019757600080fd5b506101a061039a565b60405161011e9190610ebe565b6101476103a9565b3480156101c157600080fd5b506101a06109b3565b3480156101d657600080fd5b506101116109c2565b6101476101ed366004610e8e565b6109d2565b3480156101fe57600080fd5b50610207610be7565b60405161011e9190611082565b34801561022057600080fd5b5061020761022f366004610d5f565b610bed565b34801561024057600080fd5b506101a0610c0c565b34801561025557600080fd5b506101a0610c1b565b34801561026a57600080fd5b50610207610c2a565b34801561027f57600080fd5b5061014761028e366004610d5f565b610c30565b600a5460ff1681565b6002805473ffffffffffffffffffffffffffffffffffffffff1916600160a060020a0392909216919091179055565b7f150b7a0200000000000000000000000000000000000000000000000000000000949350505050565b600354600480546000546040517f9564470e000000000000000000000000000000000000000000000000000000008152600160a060020a0394851694639564470e946103459493909116910161108b565b602060405180830381600087803b15801561035f57600080fd5b505af1158015610373573d6000803e3d6000fd5b505050506040513d601f19601f820116820180604052508101906103979190610e6e565b50565b600254600160a060020a031690565b600054600160a060020a03163314806103cc5750600554600160a060020a031633145b6103f45760405160e560020a62461bcd0281526004016103eb90611025565b60405180910390fd5b6001544210156104195760405160e560020a62461bcd0281526004016103eb90610f91565b600a5460ff161561043f5760405160e560020a62461bcd0281526004016103eb90610fc8565b600a805460ff191660011790556004546005546006546040517fd2aa34a4fdbbc6dff6a3e56f46e0f3ae2a31d7785ff3487aa5c95c642acea50193610491939092600160a060020a03909116916110a2565b60405180910390a1600554600160a060020a03161561081357600354600480546005546040517f9564470e000000000000000000000000000000000000000000000000000000008152600160a060020a0394851694639564470e946104fb9493909116910161108b565b602060405180830381600087803b15801561051557600080fd5b505af1158015610529573d6000803e3d6000fd5b505050506040513d601f19601f8201168201806040525081019061054d9190610e6e565b5060006064600360009054906101000a9004600160a060020a0316600160a060020a031663aac5643d6040518163ffffffff1660e060020a02815260040160206040518083038186803b1580156105a357600080fd5b505afa1580156105b7573d6000803e3d6000fd5b505050506040513d601f19601f820116820180604052508101906105db9190610ea6565b6006546105e891906110fc565b6105f291906110d9565b600254600354600480546040517fd48e638a000000000000000000000000000000000000000000000000000000008152949550600160a060020a039384169463a9059cbb949093169263d48e638a9261064c929101611082565b60206040518083038186803b15801561066457600080fd5b505afa158015610678573d6000803e3d6000fd5b505050506040513d601f19601f8201168201806040525081019061069c9190610d82565b836040518363ffffffff1660e060020a0281526004016106bd929190610ed2565b602060405180830381600087803b1580156106d757600080fd5b505af11580156106eb573d6000803e3d6000fd5b505050506040513d601f19601f8201168201806040525081019061070f9190610e6e565b50600254600054600654600160a060020a039283169263a9059cbb92169061073890859061111b565b6040518363ffffffff1660e060020a028152600401610758929190610ed2565b602060405180830381600087803b15801561077257600080fd5b505af1158015610786573d6000803e3d6000fd5b505050506040513d601f19601f820116820180604052508101906107aa9190610e6e565b5060015b60095481101561080c576107f9600982815481106107df5760e060020a634e487b7102600052603260045260246000fd5b600091825260209091200154600160a060020a0316610c5f565b508061080481611132565b9150506107ae565b50506108b8565b600354600480546000546040517f9564470e000000000000000000000000000000000000000000000000000000008152600160a060020a0394851694639564470e946108649493909116910161108b565b602060405180830381600087803b15801561087e57600080fd5b505af1158015610892573d6000803e3d6000fd5b505050506040513d601f19601f820116820180604052508101906108b69190610e6e565b505b600354600480546040517f96e392d3000000000000000000000000000000000000000000000000000000008152600160a060020a03909316926396e392d392610902929101611082565b600060405180830381600087803b15801561091c57600080fd5b505af1158015610930573d6000803e3d6000fd5b5050600254600480546040517f77df84a4000000000000000000000000000000000000000000000000000000008152600160a060020a0390931694506377df84a4935061097f92909101611082565b600060405180830381600087803b15801561099957600080fd5b505af11580156109ad573d6000803e3d6000fd5b50505050565b600054600160a060020a031681565b60006109cd33610c5f565b905090565b6001544211156109f75760405160e560020a62461bcd0281526004016103eb90610f23565b6006548111610a1b5760405160e560020a62461bcd0281526004016103eb90610f5a565b600254600480546040517f01f07a3b000000000000000000000000000000000000000000000000000000008152600160a060020a03909316926301f07a3b92610a69929133918791016110a2565b602060405180830381600087803b158015610a8357600080fd5b505af1158015610a97573d6000803e3d6000fd5b505050506040513d601f19601f82011682018060405250810190610abb9190610e6e565b610ac457600080fd5b60065415610aff57600654600554600160a060020a031660009081526007602052604081208054909190610af99084906110c1565b90915550505b6005805473ffffffffffffffffffffffffffffffffffffffff1916339081179091556006829055600090815260086020526040902054610ba757600980546001818101835560008390527f6e1540171b6c0c960b71a7020d9f60077f6af931a8bbf590da0223dacf75c7af909101805473ffffffffffffffffffffffffffffffffffffffff1916331790559054610b96919061111b565b336000908152600860205260409020555b7fda0a18da71d8ebd145966339a728fc0d8ccc07c22870d561890d823c515dda6b6004543383604051610bdc939291906110a2565b60405180910390a150565b60015481565b600160a060020a0381166000908152600760205260409020545b919050565b600354600160a060020a031690565b600554600160a060020a031681565b60065481565b6003805473ffffffffffffffffffffffffffffffffffffffff1916600160a060020a0392909216919091179055565b600160a060020a0381166000908152600760205260408120548015610d5657600160a060020a038084166000908152600760205260408082209190915560025490517fa9059cbb00000000000000000000000000000000000000000000000000000000815291169063a9059cbb90610cdd9086908590600401610ed2565b602060405180830381600087803b158015610cf757600080fd5b505af1158015610d0b573d6000803e3d6000fd5b505050506040513d601f19601f82011682018060405250810190610d2f9190610e6e565b610d5657600160a060020a0383166000908152600760205260408120919091559050610c07565b50600192915050565b600060208284031215610d70578081fd5b8135610d7b8161117f565b9392505050565b600060208284031215610d93578081fd5b8151610d7b8161117f565b60008060008060808587031215610db3578283fd5b8435610dbe8161117f565b9350602085810135610dcf8161117f565b935060408601359250606086013567ffffffffffffffff80821115610df2578384fd5b818801915088601f830112610e05578384fd5b813581811115610e1757610e17611166565b604051601f8201601f1916810185018381118282101715610e3a57610e3a611166565b60405281815283820185018b1015610e50578586fd5b81858501868301379081019093019390935250939692955090935050565b600060208284031215610e7f578081fd5b81518015158114610d7b578182fd5b600060208284031215610e9f578081fd5b5035919050565b600060208284031215610eb7578081fd5b5051919050565b600160a060020a0391909116815260200190565b600160a060020a03929092168252602082015260400190565b901515815260200190565b7fffffffff0000000000000000000000000000000000000000000000000000000091909116815260200190565b60208082526016908201527f41756374696f6e20616c726561647920656e6465642e00000000000000000000604082015260600190565b6020808252601e908201527f546865726520616c7265616479206973206120686967686572206269642e0000604082015260600190565b60208082526016908201527f41756374696f6e206e6f742079657420656e6465642e00000000000000000000604082015260600190565b60208082526023908201527f61756374696f6e456e642068617320616c7265616479206265656e2063616c6c60408201527f65642e0000000000000000000000000000000000000000000000000000000000606082015260800190565b6020808252602a908201527f6f6e6c79206f776e6572206f6620746f6b656e2063616e2063616c6c2074686960408201527f732066756e6374696f6e00000000000000000000000000000000000000000000606082015260800190565b90815260200190565b918252600160a060020a0316602082015260400190565b928352600160a060020a03919091166020830152604082015260600190565b600082198211156110d4576110d461114d565b500190565b6000826110f75760e060020a634e487b710281526012600452602481fd5b500490565b60008160001904831182151516156111165761111661114d565b500290565b60008282101561112d5761112d61114d565b500390565b60006000198214156111465761114661114d565b5060010190565b60e060020a634e487b7102600052601160045260246000fd5b60e060020a634e487b7102600052604160045260246000fd5b600160a060020a038116811461039757600080fdfea26469706673582212207471e1d9a80a915cf2382c670c380d9d9d2a171fd185718f1192d39f6d95939064736f6c63430008000033a2646970667358221220de66283a976ed007341355a391a0cd1ac07d93ed6c7471dc28e5c8cc67f78af964736f6c63430008000033",
  "immutableReferences": {},
  "source": "// SPDX-License-Identifier: MIT\npragma solidity ^0.8.0;\n\nimport \"./presets/ERC721PresetMinterPauserAutoId.sol\";\n\ncontract DVT is ERC721PresetMinterPauserAutoId {\n    constructor()\n    ERC721PresetMinterPauserAutoId(\n        \"Davinci Token\",\n        \"DVT\",\n        \"https://davinci.com/api/token/\"\n    )\n    {}\n}",
  "sourcePath": "/Volumes/Transcend/Projects/DappsLab/Lottery-Smart-Contract/contracts/customERC20ERC721/ERC721/DVT.sol",
  "compiler": {
    "name": "solc",
    "version": "0.8.0+commit.c7dfd78e.Emscripten.clang"
  },
  "schemaVersion": "3.4.3",
  "updatedAt": "2021-10-28T10:34:17.380Z",
  "devdoc": {
    "kind": "dev",
    "methods": {
      "_spend(uint256,address)": {
        "details": "See {IERC721-safeTransferFrom}."
      },
      "approve(address,uint256)": {
        "details": "See {IERC721-approve}."
      },
      "balanceOf(address)": {
        "details": "See {IERC721-balanceOf}."
      },
      "burn(uint256)": {
        "details": "Burns `tokenId`. See {ERC721-_burn}. Requirements: - The caller must own `tokenId` or be an approved operator."
      },
      "getApproved(uint256)": {
        "details": "See {IERC721-getApproved}."
      },
      "getRoleAdmin(bytes32)": {
        "details": "Returns the admin role that controls `role`. See {grantRole} and {revokeRole}. To change a role's admin, use {_setRoleAdmin}."
      },
      "getRoleMember(bytes32,uint256)": {
        "details": "Returns one of the accounts that have `role`. `index` must be a value between 0 and {getRoleMemberCount}, non-inclusive. Role bearers are not sorted in any particular way, and their ordering may change at any point. WARNING: When using {getRoleMember} and {getRoleMemberCount}, make sure you perform all queries on the same block. See the following https://forum.openzeppelin.com/t/iterating-over-elements-on-enumerableset-in-openzeppelin-contracts/2296[forum post] for more information."
      },
      "getRoleMemberCount(bytes32)": {
        "details": "Returns the number of accounts that have `role`. Can be used together with {getRoleMember} to enumerate all bearers of a role."
      },
      "grantRole(bytes32,address)": {
        "details": "Overload {grantRole} to track enumerable memberships"
      },
      "hasRole(bytes32,address)": {
        "details": "Returns `true` if `account` has been granted `role`."
      },
      "isApprovedForAll(address,address)": {
        "details": "See {IERC721-isApprovedForAll}."
      },
      "mint(address)": {
        "details": "Creates a new token for `to`. Its token ID will be automatically assigned (and available on the emitted {IERC721-Transfer} event), and the token URI autogenerated based on the base URI passed at construction. See {ERC721-_mint}. Requirements: - the caller must have the `MINTER_ROLE`."
      },
      "name()": {
        "details": "See {IERC721Metadata-name}."
      },
      "ownerOf(uint256)": {
        "details": "See {IERC721-ownerOf}."
      },
      "pause()": {
        "details": "Pauses all token transfers. See {ERC721Pausable} and {Pausable-_pause}. Requirements: - the caller must have the `PAUSER_ROLE`."
      },
      "paused()": {
        "details": "Returns true if the contract is paused, and false otherwise."
      },
      "renounceRole(bytes32,address)": {
        "details": "Overload {renounceRole} to track enumerable memberships"
      },
      "revokeRole(bytes32,address)": {
        "details": "Overload {revokeRole} to track enumerable memberships"
      },
      "safeTransferFrom(address,address,uint256)": {
        "details": "Safely transfers `tokenId` token from `from` to `to`, checking first that contract recipients are aware of the ERC721 protocol to prevent tokens from being forever locked. Requirements: - `from` cannot be the zero address. - `to` cannot be the zero address. - `tokenId` token must exist and be owned by `from`. - If the caller is not `from`, it must be have been allowed to move this token by either {approve} or {setApprovalForAll}. - If `to` refers to a smart contract, it must implement {IERC721Receiver-onERC721Received}, which is called upon a safe transfer. Emits a {Transfer} event."
      },
      "safeTransferFrom(address,address,uint256,bytes)": {
        "details": "See {IERC721-safeTransferFrom}."
      },
      "setApprovalForAll(address,bool)": {
        "details": "See {IERC721-setApprovalForAll}."
      },
      "supportsInterface(bytes4)": {
        "details": "See {IERC165-supportsInterface}."
      },
      "symbol()": {
        "details": "See {IERC721Metadata-symbol}."
      },
      "tokenByIndex(uint256)": {
        "details": "See {IERC721Enumerable-tokenByIndex}."
      },
      "tokenOfOwnerByIndex(address,uint256)": {
        "details": "See {IERC721Enumerable-tokenOfOwnerByIndex}."
      },
      "tokenURI(uint256)": {
        "details": "See {IERC721Metadata-tokenURI}."
      },
      "totalSupply()": {
        "details": "See {IERC721Enumerable-totalSupply}."
      },
      "transferFrom(address,address,uint256)": {
        "details": "See {IERC721-transferFrom}."
      },
      "unpause()": {
        "details": "Unpauses all token transfers. See {ERC721Pausable} and {Pausable-_unpause}. Requirements: - the caller must have the `PAUSER_ROLE`."
      }
    },
    "version": 1
  },
  "userdoc": {
    "kind": "user",
    "methods": {
      "getToken()": {
        "notice": "Getter and Setter of _token (ERC20)*"
      }
    },
    "version": 1
  }
}