{
  "contractName": "DVT",
  "abi": [
    {
      "inputs": [],
      "stateMutability": "nonpayable",
      "type": "constructor"
    },
    {
      "anonymous": false,
      "inputs": [
        {
          "indexed": true,
          "internalType": "address",
          "name": "owner",
          "type": "address"
        },
        {
          "indexed": true,
          "internalType": "address",
          "name": "approved",
          "type": "address"
        },
        {
          "indexed": true,
          "internalType": "uint256",
          "name": "tokenId",
          "type": "uint256"
        }
      ],
      "name": "Approval",
      "type": "event"
    },
    {
      "anonymous": false,
      "inputs": [
        {
          "indexed": true,
          "internalType": "address",
          "name": "owner",
          "type": "address"
        },
        {
          "indexed": true,
          "internalType": "address",
          "name": "operator",
          "type": "address"
        },
        {
          "indexed": false,
          "internalType": "bool",
          "name": "approved",
          "type": "bool"
        }
      ],
      "name": "ApprovalForAll",
      "type": "event"
    },
    {
      "anonymous": false,
      "inputs": [
        {
          "indexed": false,
          "internalType": "address",
          "name": "account",
          "type": "address"
        }
      ],
      "name": "Paused",
      "type": "event"
    },
    {
      "anonymous": false,
      "inputs": [
        {
          "indexed": true,
          "internalType": "bytes32",
          "name": "role",
          "type": "bytes32"
        },
        {
          "indexed": true,
          "internalType": "bytes32",
          "name": "previousAdminRole",
          "type": "bytes32"
        },
        {
          "indexed": true,
          "internalType": "bytes32",
          "name": "newAdminRole",
          "type": "bytes32"
        }
      ],
      "name": "RoleAdminChanged",
      "type": "event"
    },
    {
      "anonymous": false,
      "inputs": [
        {
          "indexed": true,
          "internalType": "bytes32",
          "name": "role",
          "type": "bytes32"
        },
        {
          "indexed": true,
          "internalType": "address",
          "name": "account",
          "type": "address"
        },
        {
          "indexed": true,
          "internalType": "address",
          "name": "sender",
          "type": "address"
        }
      ],
      "name": "RoleGranted",
      "type": "event"
    },
    {
      "anonymous": false,
      "inputs": [
        {
          "indexed": true,
          "internalType": "bytes32",
          "name": "role",
          "type": "bytes32"
        },
        {
          "indexed": true,
          "internalType": "address",
          "name": "account",
          "type": "address"
        },
        {
          "indexed": true,
          "internalType": "address",
          "name": "sender",
          "type": "address"
        }
      ],
      "name": "RoleRevoked",
      "type": "event"
    },
    {
      "anonymous": false,
      "inputs": [
        {
          "indexed": true,
          "internalType": "address",
          "name": "from",
          "type": "address"
        },
        {
          "indexed": true,
          "internalType": "address",
          "name": "to",
          "type": "address"
        },
        {
          "indexed": true,
          "internalType": "uint256",
          "name": "tokenId",
          "type": "uint256"
        }
      ],
      "name": "Transfer",
      "type": "event"
    },
    {
      "anonymous": false,
      "inputs": [
        {
          "indexed": false,
          "internalType": "address",
          "name": "account",
          "type": "address"
        }
      ],
      "name": "Unpaused",
      "type": "event"
    },
    {
      "inputs": [],
      "name": "DEFAULT_ADMIN_ROLE",
      "outputs": [
        {
          "internalType": "bytes32",
          "name": "",
          "type": "bytes32"
        }
      ],
      "stateMutability": "view",
      "type": "function"
    },
    {
      "inputs": [],
      "name": "MINTER_ROLE",
      "outputs": [
        {
          "internalType": "bytes32",
          "name": "",
          "type": "bytes32"
        }
      ],
      "stateMutability": "view",
      "type": "function"
    },
    {
      "inputs": [],
      "name": "PAUSER_ROLE",
      "outputs": [
        {
          "internalType": "bytes32",
          "name": "",
          "type": "bytes32"
        }
      ],
      "stateMutability": "view",
      "type": "function"
    },
    {
      "inputs": [
        {
          "internalType": "uint256",
          "name": "",
          "type": "uint256"
        }
      ],
      "name": "_creator",
      "outputs": [
        {
          "internalType": "address",
          "name": "",
          "type": "address"
        }
      ],
      "stateMutability": "view",
      "type": "function"
    },
    {
      "inputs": [],
      "name": "_creatorCommission",
      "outputs": [
        {
          "internalType": "uint256",
          "name": "",
          "type": "uint256"
        }
      ],
      "stateMutability": "view",
      "type": "function"
    },
    {
      "inputs": [
        {
          "internalType": "uint256",
          "name": "",
          "type": "uint256"
        }
      ],
      "name": "_owners",
      "outputs": [
        {
          "internalType": "address",
          "name": "",
          "type": "address"
        }
      ],
      "stateMutability": "view",
      "type": "function"
    },
    {
      "inputs": [],
      "name": "_platformCommission",
      "outputs": [
        {
          "internalType": "uint256",
          "name": "",
          "type": "uint256"
        }
      ],
      "stateMutability": "view",
      "type": "function"
    },
    {
      "inputs": [
        {
          "internalType": "uint256",
          "name": "",
          "type": "uint256"
        }
      ],
      "name": "_sellPrice",
      "outputs": [
        {
          "internalType": "uint256",
          "name": "",
          "type": "uint256"
        }
      ],
      "stateMutability": "view",
      "type": "function"
    },
    {
      "inputs": [
        {
          "internalType": "uint256",
          "name": "",
          "type": "uint256"
        }
      ],
      "name": "_sellingNFTs",
      "outputs": [
        {
          "internalType": "uint256",
          "name": "",
          "type": "uint256"
        }
      ],
      "stateMutability": "view",
      "type": "function"
    },
    {
      "inputs": [
        {
          "internalType": "uint256",
          "name": "",
          "type": "uint256"
        }
      ],
      "name": "_sellingNFTsIndexes",
      "outputs": [
        {
          "internalType": "uint256",
          "name": "",
          "type": "uint256"
        }
      ],
      "stateMutability": "view",
      "type": "function"
    },
    {
      "inputs": [
        {
          "internalType": "uint256",
          "name": "tokenId",
          "type": "uint256"
        },
        {
          "internalType": "address",
          "name": "to",
          "type": "address"
        }
      ],
      "name": "_spend",
      "outputs": [
        {
          "internalType": "bool",
          "name": "",
          "type": "bool"
        }
      ],
      "stateMutability": "nonpayable",
      "type": "function"
    },
    {
      "inputs": [
        {
          "internalType": "address",
          "name": "to",
          "type": "address"
        },
        {
          "internalType": "uint256",
          "name": "tokenId",
          "type": "uint256"
        }
      ],
      "name": "approve",
      "outputs": [],
      "stateMutability": "nonpayable",
      "type": "function"
    },
    {
      "inputs": [
        {
          "internalType": "address",
          "name": "owner",
          "type": "address"
        }
      ],
      "name": "balanceOf",
      "outputs": [
        {
          "internalType": "uint256",
          "name": "",
          "type": "uint256"
        }
      ],
      "stateMutability": "view",
      "type": "function"
    },
    {
      "inputs": [
        {
          "internalType": "uint256",
          "name": "tokenId",
          "type": "uint256"
        }
      ],
      "name": "burn",
      "outputs": [],
      "stateMutability": "nonpayable",
      "type": "function"
    },
    {
      "inputs": [
        {
          "internalType": "uint256",
          "name": "tokenId",
          "type": "uint256"
        }
      ],
      "name": "buyNFT",
      "outputs": [
        {
          "internalType": "bool",
          "name": "",
          "type": "bool"
        }
      ],
      "stateMutability": "payable",
      "type": "function"
    },
    {
      "inputs": [
        {
          "internalType": "uint256",
          "name": "tokenId",
          "type": "uint256"
        }
      ],
      "name": "cancelSellingNFT",
      "outputs": [
        {
          "internalType": "bool",
          "name": "",
          "type": "bool"
        }
      ],
      "stateMutability": "nonpayable",
      "type": "function"
    },
    {
      "inputs": [
        {
          "internalType": "uint256",
          "name": "tokenId",
          "type": "uint256"
        }
      ],
      "name": "deleteAuctionContract",
      "outputs": [],
      "stateMutability": "nonpayable",
      "type": "function"
    },
    {
      "inputs": [
        {
          "internalType": "uint256",
          "name": "tokenId",
          "type": "uint256"
        }
      ],
      "name": "getApproved",
      "outputs": [
        {
          "internalType": "address",
          "name": "",
          "type": "address"
        }
      ],
      "stateMutability": "view",
      "type": "function"
    },
    {
      "inputs": [
        {
          "internalType": "uint256",
          "name": "tokenId",
          "type": "uint256"
        }
      ],
      "name": "getAuctionContract",
      "outputs": [
        {
          "internalType": "contract Auction",
          "name": "",
          "type": "address"
        }
      ],
      "stateMutability": "view",
      "type": "function"
    },
    {
      "inputs": [
        {
          "internalType": "uint256",
          "name": "tokenId",
          "type": "uint256"
        }
      ],
      "name": "getCreator",
      "outputs": [
        {
          "internalType": "address",
          "name": "",
          "type": "address"
        }
      ],
      "stateMutability": "view",
      "type": "function"
    },
    {
      "inputs": [],
      "name": "getCreatorCommission",
      "outputs": [
        {
          "internalType": "uint256",
          "name": "",
          "type": "uint256"
        }
      ],
      "stateMutability": "view",
      "type": "function"
    },
    {
      "inputs": [],
      "name": "getPlatformCommission",
      "outputs": [
        {
          "internalType": "uint256",
          "name": "",
          "type": "uint256"
        }
      ],
      "stateMutability": "view",
      "type": "function"
    },
    {
      "inputs": [
        {
          "internalType": "bytes32",
          "name": "role",
          "type": "bytes32"
        }
      ],
      "name": "getRoleAdmin",
      "outputs": [
        {
          "internalType": "bytes32",
          "name": "",
          "type": "bytes32"
        }
      ],
      "stateMutability": "view",
      "type": "function"
    },
    {
      "inputs": [
        {
          "internalType": "bytes32",
          "name": "role",
          "type": "bytes32"
        },
        {
          "internalType": "uint256",
          "name": "index",
          "type": "uint256"
        }
      ],
      "name": "getRoleMember",
      "outputs": [
        {
          "internalType": "address",
          "name": "",
          "type": "address"
        }
      ],
      "stateMutability": "view",
      "type": "function"
    },
    {
      "inputs": [
        {
          "internalType": "bytes32",
          "name": "role",
          "type": "bytes32"
        }
      ],
      "name": "getRoleMemberCount",
      "outputs": [
        {
          "internalType": "uint256",
          "name": "",
          "type": "uint256"
        }
      ],
      "stateMutability": "view",
      "type": "function"
    },
    {
      "inputs": [
        {
          "internalType": "uint256",
          "name": "tokenId",
          "type": "uint256"
        }
      ],
      "name": "getSellPrice",
      "outputs": [
        {
          "internalType": "uint256",
          "name": "",
          "type": "uint256"
        }
      ],
      "stateMutability": "view",
      "type": "function"
    },
    {
      "inputs": [],
      "name": "getSellingNFTs",
      "outputs": [
        {
          "internalType": "uint256[]",
          "name": "",
          "type": "uint256[]"
        }
      ],
      "stateMutability": "view",
      "type": "function"
    },
    {
      "inputs": [],
      "name": "getToken",
      "outputs": [
        {
          "internalType": "contract ERC20",
          "name": "",
          "type": "address"
        }
      ],
      "stateMutability": "view",
      "type": "function"
    },
    {
      "inputs": [
        {
          "internalType": "bytes32",
          "name": "role",
          "type": "bytes32"
        },
        {
          "internalType": "address",
          "name": "account",
          "type": "address"
        }
      ],
      "name": "grantRole",
      "outputs": [],
      "stateMutability": "nonpayable",
      "type": "function"
    },
    {
      "inputs": [
        {
          "internalType": "bytes32",
          "name": "role",
          "type": "bytes32"
        },
        {
          "internalType": "address",
          "name": "account",
          "type": "address"
        }
      ],
      "name": "hasRole",
      "outputs": [
        {
          "internalType": "bool",
          "name": "",
          "type": "bool"
        }
      ],
      "stateMutability": "view",
      "type": "function"
    },
    {
      "inputs": [
        {
          "internalType": "address",
          "name": "owner",
          "type": "address"
        },
        {
          "internalType": "address",
          "name": "operator",
          "type": "address"
        }
      ],
      "name": "isApprovedForAll",
      "outputs": [
        {
          "internalType": "bool",
          "name": "",
          "type": "bool"
        }
      ],
      "stateMutability": "view",
      "type": "function"
    },
    {
      "inputs": [
        {
          "internalType": "address",
          "name": "to",
          "type": "address"
        }
      ],
      "name": "mint",
      "outputs": [],
      "stateMutability": "nonpayable",
      "type": "function"
    },
    {
      "inputs": [],
      "name": "name",
      "outputs": [
        {
          "internalType": "string",
          "name": "",
          "type": "string"
        }
      ],
      "stateMutability": "view",
      "type": "function"
    },
    {
      "inputs": [
        {
          "internalType": "uint256",
          "name": "tokenId",
          "type": "uint256"
        }
      ],
      "name": "ownerOf",
      "outputs": [
        {
          "internalType": "address",
          "name": "",
          "type": "address"
        }
      ],
      "stateMutability": "view",
      "type": "function"
    },
    {
      "inputs": [],
      "name": "pause",
      "outputs": [],
      "stateMutability": "nonpayable",
      "type": "function"
    },
    {
      "inputs": [],
      "name": "paused",
      "outputs": [
        {
          "internalType": "bool",
          "name": "",
          "type": "bool"
        }
      ],
      "stateMutability": "view",
      "type": "function"
    },
    {
      "inputs": [],
      "name": "platformAddress",
      "outputs": [
        {
          "internalType": "address",
          "name": "",
          "type": "address"
        }
      ],
      "stateMutability": "view",
      "type": "function"
    },
    {
      "inputs": [
        {
          "internalType": "bytes32",
          "name": "role",
          "type": "bytes32"
        },
        {
          "internalType": "address",
          "name": "account",
          "type": "address"
        }
      ],
      "name": "renounceRole",
      "outputs": [],
      "stateMutability": "nonpayable",
      "type": "function"
    },
    {
      "inputs": [
        {
          "internalType": "bytes32",
          "name": "role",
          "type": "bytes32"
        },
        {
          "internalType": "address",
          "name": "account",
          "type": "address"
        }
      ],
      "name": "revokeRole",
      "outputs": [],
      "stateMutability": "nonpayable",
      "type": "function"
    },
    {
      "inputs": [
        {
          "internalType": "address",
          "name": "to",
          "type": "address"
        }
      ],
      "name": "safeMint",
      "outputs": [],
      "stateMutability": "nonpayable",
      "type": "function"
    },
    {
      "inputs": [
        {
          "internalType": "address",
          "name": "from",
          "type": "address"
        },
        {
          "internalType": "address",
          "name": "to",
          "type": "address"
        },
        {
          "internalType": "uint256",
          "name": "tokenId",
          "type": "uint256"
        }
      ],
      "name": "safeTransferFrom",
      "outputs": [],
      "stateMutability": "nonpayable",
      "type": "function"
    },
    {
      "inputs": [
        {
          "internalType": "address",
          "name": "from",
          "type": "address"
        },
        {
          "internalType": "address",
          "name": "to",
          "type": "address"
        },
        {
          "internalType": "uint256",
          "name": "tokenId",
          "type": "uint256"
        },
        {
          "internalType": "bytes",
          "name": "_data",
          "type": "bytes"
        }
      ],
      "name": "safeTransferFrom",
      "outputs": [],
      "stateMutability": "nonpayable",
      "type": "function"
    },
    {
      "inputs": [
        {
          "internalType": "address",
          "name": "operator",
          "type": "address"
        },
        {
          "internalType": "bool",
          "name": "approved",
          "type": "bool"
        }
      ],
      "name": "setApprovalForAll",
      "outputs": [],
      "stateMutability": "nonpayable",
      "type": "function"
    },
    {
      "inputs": [
        {
          "internalType": "address",
          "name": "addr",
          "type": "address"
        }
      ],
      "name": "setPlatformAdddress",
      "outputs": [],
      "stateMutability": "nonpayable",
      "type": "function"
    },
    {
      "inputs": [
        {
          "internalType": "address",
          "name": "tokenAddress",
          "type": "address"
        }
      ],
      "name": "setToken",
      "outputs": [],
      "stateMutability": "nonpayable",
      "type": "function"
    },
    {
      "inputs": [
        {
          "internalType": "uint256",
          "name": "tokenId",
          "type": "uint256"
        },
        {
          "internalType": "uint256",
          "name": "time",
          "type": "uint256"
        },
        {
          "internalType": "uint256",
          "name": "minPrice",
          "type": "uint256"
        }
      ],
      "name": "startAuction",
      "outputs": [],
      "stateMutability": "nonpayable",
      "type": "function"
    },
    {
      "inputs": [
        {
          "internalType": "uint256",
          "name": "tokenId",
          "type": "uint256"
        },
        {
          "internalType": "uint256",
          "name": "price",
          "type": "uint256"
        }
      ],
      "name": "startSellingNFT",
      "outputs": [
        {
          "internalType": "bool",
          "name": "",
          "type": "bool"
        }
      ],
      "stateMutability": "nonpayable",
      "type": "function"
    },
    {
      "inputs": [
        {
          "internalType": "bytes4",
          "name": "interfaceId",
          "type": "bytes4"
        }
      ],
      "name": "supportsInterface",
      "outputs": [
        {
          "internalType": "bool",
          "name": "",
          "type": "bool"
        }
      ],
      "stateMutability": "view",
      "type": "function"
    },
    {
      "inputs": [],
      "name": "symbol",
      "outputs": [
        {
          "internalType": "string",
          "name": "",
          "type": "string"
        }
      ],
      "stateMutability": "view",
      "type": "function"
    },
    {
      "inputs": [
        {
          "internalType": "uint256",
          "name": "index",
          "type": "uint256"
        }
      ],
      "name": "tokenByIndex",
      "outputs": [
        {
          "internalType": "uint256",
          "name": "",
          "type": "uint256"
        }
      ],
      "stateMutability": "view",
      "type": "function"
    },
    {
      "inputs": [
        {
          "internalType": "address",
          "name": "owner",
          "type": "address"
        },
        {
          "internalType": "uint256",
          "name": "index",
          "type": "uint256"
        }
      ],
      "name": "tokenOfOwnerByIndex",
      "outputs": [
        {
          "internalType": "uint256",
          "name": "",
          "type": "uint256"
        }
      ],
      "stateMutability": "view",
      "type": "function"
    },
    {
      "inputs": [
        {
          "internalType": "uint256",
          "name": "tokenId",
          "type": "uint256"
        }
      ],
      "name": "tokenURI",
      "outputs": [
        {
          "internalType": "string",
          "name": "",
          "type": "string"
        }
      ],
      "stateMutability": "view",
      "type": "function"
    },
    {
      "inputs": [],
      "name": "totalSupply",
      "outputs": [
        {
          "internalType": "uint256",
          "name": "",
          "type": "uint256"
        }
      ],
      "stateMutability": "view",
      "type": "function"
    },
    {
      "inputs": [
        {
          "internalType": "address",
          "name": "from",
          "type": "address"
        },
        {
          "internalType": "address",
          "name": "to",
          "type": "address"
        },
        {
          "internalType": "uint256",
          "name": "tokenId",
          "type": "uint256"
        }
      ],
      "name": "transferFrom",
      "outputs": [],
      "stateMutability": "nonpayable",
      "type": "function"
    },
    {
      "inputs": [],
      "name": "unpause",
      "outputs": [],
      "stateMutability": "nonpayable",
      "type": "function"
    }
  ],
  "bytecode": "0x6080604052600560065560026007553480156200001b57600080fd5b506040518060400160405280600d81526020017f446176696e636920546f6b656e000000000000000000000000000000000000008152506040518060400160405280600381526020017f44565400000000000000000000000000000000000000000000000000000000008152506040518060400160405280601e81526020017f68747470733a2f2f646176696e63692e636f6d2f6170692f746f6b656e2f000081525082828160039080519060200190620000d892919062000386565b508051620000ee90600490602084019062000386565b505060058054600160a060020a03191633179055506016805460ff1916905580516200012290601890602084019062000386565b506200014b60006200013c640100000000620001c4810204565b640100000000620001c8810204565b620001837f9f2df0fed2c77648de5860a4cc508cd0818c85b8b8a1ab4ceeef8d981c8956a66200013c640100000000620001c4810204565b620001bb7f65d7a28e3265b37a6474929f336521b332c1681b933f6cb9f3376673440d862a6200013c640100000000620001c4810204565b50505062000482565b3390565b620001e2828264010000000062001e256200020f82021704565b60008281526001602052604090206200020a908264010000000062001e356200022882021704565b505050565b62000224828264010000000062000251810204565b5050565b60006200024883600160a060020a038416640100000000620002ed810204565b90505b92915050565b62000266828264010000000062000345810204565b6200022457600082815260208181526040808320600160a060020a03851684529091529020805460ff19166001179055620002a9640100000000620001c4810204565b600160a060020a031681600160a060020a0316837f2f8788117e7eff1d82e926ec794901d17c78024a50270940304540a733656f0d60405160405180910390a45050565b60006200030483836401000000006200036e810204565b6200033c575081546001818101845560008481526020808220909301849055845484825282860190935260409020919091556200024b565b5060006200024b565b600091825260208281526040808420600160a060020a0393909316845291905290205460ff1690565b60009081526001919091016020526040902054151590565b82805462000394906200042c565b90600052602060002090601f016020900481019282620003b8576000855562000403565b82601f10620003d357805160ff191683800117855562000403565b8280016001018555821562000403579182015b8281111562000403578251825591602001919060010190620003e6565b506200041192915062000415565b5090565b5b8082111562000411576000815560010162000416565b6002810460018216806200044157607f821691505b602082108114156200047c577f4e487b7100000000000000000000000000000000000000000000000000000000600052602260045260246000fd5b50919050565b6159d980620004926000396000f3fe608060405260043610620003a85760003560e060020a9004806370a0823111620001f7578063ba730e531162000113578063d55a9fe411620000a7578063e63ab1e9116200007d578063e63ab1e91462000aab578063e985e9c51462000ac3578063ef767a691462000ae8578063f44353661462000b0057620003a8565b8063d55a9fe41462000a56578063dbe55e561462000a6e578063e506dfbe1462000a8657620003a8565b8063ca15c87311620000e9578063ca15c87314620009cf578063d48e638a14620009f4578063d53913931462000a19578063d547741f1462000a3157620003a8565b8063ba730e531462000960578063c494b0821462000985578063c87b56dd14620009aa57620003a8565b80639564470e116200018b578063992924a61162000161578063992924a614620008d9578063a217fddf14620008fe578063a22cb4651462000916578063b88d4fde146200093b57620003a8565b80639564470e146200087757806395d89b41146200089c57806396e392d314620008b457620003a8565b80638456cb5911620001cd5780638456cb5914620007f05780639010d07c146200080857806391d14854146200082d57806391e078bb146200085257620003a8565b806370a08231146200077f5780637211a20a14620007a457806380cf4dad14620007cb57620003a8565b80632f745c5911620002e757806342966c68116200027b5780635c975abb11620002515780635c975abb14620006f85780636352211e14620007105780636a62784214620007355780636d3d6028146200075a57620003a8565b806342966c6814620006975780634f6ccce714620006bc57806351ed828814620006e157620003a8565b80633f4ba83a11620002bd5780633f4ba83a146200061057806340d097c3146200062857806341787197146200064d57806342842e0e146200067257620003a8565b80632f745c5914620005a1578063339d29a214620005c657806336568abe14620005eb57620003a8565b806321df0da7116200035f57806325a902fb116200033557806325a902fb146200051a5780632838324b146200053257806329e02e7014620005575780632f2ff15d146200057c57620003a8565b806321df0da714620004b857806323b872dd14620004d0578063248a9ca314620004f557620003a8565b806301ffc9a714620003ad57806306fdde0314620003ea578063081812fc1462000411578063095ea7b31462000445578063144fa6d7146200046c57806318160ddd1462000491575b600080fd5b348015620003ba57600080fd5b50620003d2620003cc366004620034e6565b62000b18565b604051620003e1919062003713565b60405180910390f35b348015620003f757600080fd5b506200040262000b2d565b604051620003e1919062003727565b3480156200041e57600080fd5b50620004366200043036600462003486565b62000bc7565b604051620003e1919062003662565b3480156200045257600080fd5b506200046a620004643660046200343b565b62000c1b565b005b3480156200047957600080fd5b506200046a6200048b36600462003292565b62000cc9565b3480156200049e57600080fd5b50620004a962000d1b565b604051620003e191906200371e565b348015620004c557600080fd5b506200043662000d21565b348015620004dd57600080fd5b506200046a620004ef366004620032e6565b62000d30565b3480156200050257600080fd5b50620004a96200051436600462003486565b62000d74565b3480156200052757600080fd5b50620004a962000d89565b3480156200053f57600080fd5b50620004a96200055136600462003486565b62000d8f565b3480156200056457600080fd5b50620004366200057636600462003486565b62000da1565b3480156200058957600080fd5b506200046a6200059b3660046200349f565b62000dbc565b348015620005ae57600080fd5b50620004a9620005c03660046200343b565b62000de2565b348015620005d357600080fd5b506200046a620005e536600462003292565b62000e3f565b348015620005f857600080fd5b506200046a6200060a3660046200349f565b62000e91565b3480156200061d57600080fd5b506200046a62000eb7565b3480156200063557600080fd5b506200046a6200064736600462003292565b62000f14565b3480156200065a57600080fd5b50620004a96200066c36600462003486565b62000f8b565b3480156200067f57600080fd5b506200046a62000691366004620032e6565b62000f9d565b348015620006a457600080fd5b506200046a620006b636600462003486565b62000fba565b348015620006c957600080fd5b50620004a9620006db36600462003486565b62000ff5565b620003d2620006f236600462003486565b6200105c565b3480156200070557600080fd5b50620003d2620015c5565b3480156200071d57600080fd5b50620004366200072f36600462003486565b620015ce565b3480156200074257600080fd5b506200046a6200075436600462003292565b62000f65565b3480156200076757600080fd5b50620003d262000779366004620034c4565b62001609565b3480156200078c57600080fd5b50620004a96200079e36600462003292565b62001707565b348015620007b157600080fd5b50620007bc62001751565b604051620003e19190620036cd565b348015620007d857600080fd5b50620004a9620007ea36600462003486565b620017aa565b348015620007fd57600080fd5b506200046a620017cc565b3480156200081557600080fd5b506200043662000827366004620034c4565b62001827565b3480156200083a57600080fd5b50620003d26200084c3660046200349f565b62001848565b3480156200085f57600080fd5b506200046a6200087136600462003550565b62001871565b3480156200088457600080fd5b50620003d2620008963660046200353d565b62001a1b565b348015620008a957600080fd5b506200040262001a33565b348015620008c157600080fd5b506200046a620008d336600462003486565b62001a44565b348015620008e657600080fd5b5062000436620008f836600462003486565b62001a9e565b3480156200090b57600080fd5b50620004a962001ab9565b3480156200092357600080fd5b506200046a6200093536600462003400565b62001abe565b3480156200094857600080fd5b506200046a6200095a36600462003326565b62001b9a565b3480156200096d57600080fd5b50620004a96200097f36600462003486565b62001be5565b3480156200099257600080fd5b50620003d2620009a436600462003486565b62001bf7565b348015620009b757600080fd5b5062000402620009c936600462003486565b62001ca1565b348015620009dc57600080fd5b50620004a9620009ee36600462003486565b62001d33565b34801562000a0157600080fd5b506200043662000a1336600462003486565b62001d4c565b34801562000a2657600080fd5b50620004a962001d67565b34801562000a3e57600080fd5b506200046a62000a503660046200349f565b62001d8b565b34801562000a6357600080fd5b50620004a962001d97565b34801562000a7b57600080fd5b506200043662001d9d565b34801562000a9357600080fd5b506200043662000aa536600462003486565b62001dac565b34801562000ab857600080fd5b50620004a962001dc7565b34801562000ad057600080fd5b50620003d262000ae2366004620032af565b62001deb565b34801562000af557600080fd5b50620004a962001e19565b34801562000b0d57600080fd5b50620004a962001e1f565b600062000b258262001e4c565b90505b919050565b60606003805462000b3e90620042ed565b80601f016020809104026020016040519081016040528092919081815260200182805462000b6c90620042ed565b801562000bbd5780601f1062000b915761010080835404028352916020019162000bbd565b820191906000526020600020905b81548152906001019060200180831162000b9f57829003601f168201915b5050505050905090565b600062000bd48262001e8d565b62000bff5760405160e560020a62461bcd02815260040162000bf69062003d7d565b60405180910390fd5b506000908152600c6020526040902054600160a060020a031690565b600062000c2882620015ce565b905080600160a060020a031683600160a060020a0316141562000c625760405160e560020a62461bcd02815260040162000bf69062003f02565b80600160a060020a031662000c7662001eaa565b600160a060020a0316148062000c96575062000c968162000ae262001eaa565b62000cb85760405160e560020a62461bcd02815260040162000bf69062003ae9565b62000cc4838362001eae565b505050565b600554600160a060020a0316331462000cf95760405160e560020a62461bcd02815260040162000bf69062003c6e565b60028054600160a060020a031916600160a060020a0392909216919091179055565b60145490565b600254600160a060020a031690565b62000d4562000d3e62001eaa565b8262001f1e565b62000d675760405160e560020a62461bcd02815260040162000bf69062003f5f565b62000cc483838362001fb3565b60009081526020819052604090206001015490565b60065481565b60106020526000908152604090205481565b600a60205260009081526040902054600160a060020a031681565b62000dc88282620020f6565b600082815260016020526040902062000cc4908262001e35565b600062000def8362001707565b821062000e135760405160e560020a62461bcd02815260040162000bf6906200383c565b50600160a060020a03821660009081526012602090815260408083208484529091529020545b92915050565b600554600160a060020a0316331462000e6f5760405160e560020a62461bcd02815260040162000bf69062003c6e565b60088054600160a060020a031916600160a060020a0392909216919091179055565b62000e9d828262002122565b600082815260016020526040902062000cc490826200216e565b62000ee67f65d7a28e3265b37a6474929f336521b332c1681b933f6cb9f3376673440d862a6200084c62001eaa565b62000f085760405160e560020a62461bcd02815260040162000bf69062004130565b62000f1262002185565b565b62000f437f9f2df0fed2c77648de5860a4cc508cd0818c85b8b8a1ab4ceeef8d981c8956a66200084c62001eaa565b62000f655760405160e560020a62461bcd02815260040162000bf69062004076565b62000f7c8162000f766017620021ff565b62002203565b62000f88601762002308565b50565b600f6020526000908152604090205481565b62000cc48383836040518060200160405280600081525062001b9a565b62000fc862000d3e62001eaa565b62000fea5760405160e560020a62461bcd02815260040162000bf690620040d3565b62000f888162002311565b60006200100162000d1b565b8210620010255760405160e560020a62461bcd02815260040162000bf69062004019565b601482815481106200104a5760e060020a634e487b7102600052603260045260246000fd5b90600052602060002001549050919050565b6000818152600f60205260408120546200108d5760405160e560020a62461bcd02815260040162000bf69062003b46565b600082815260096020526040902054600160a060020a0316331415620010ca5760405160e560020a62461bcd02815260040162000bf69062003d46565b6000828152600f6020526040908190205460025491517f70a082310000000000000000000000000000000000000000000000000000000081529091600160a060020a0316906370a08231906200112590339060040162003662565b60206040518083038186803b1580156200113e57600080fd5b505afa15801562001153573d6000803e3d6000fd5b505050506040513d601f19601f8201168201806040525081019062001179919062003524565b10156200119d5760405160e560020a62461bcd02815260040162000bf6906200392d565b6002546000838152600f6020526040908190205490517f6aade288000000000000000000000000000000000000000000000000000000008152600160a060020a0390921691636aade28891620011f991339190600401620036b4565b602060405180830381600087803b1580156200121457600080fd5b505af115801562001229573d6000803e3d6000fd5b505050506040513d601f19601f820116820180604052508101906200124f919062003467565b620012715760405160e560020a62461bcd02815260040162000bf69062003ecb565b6006546000838152600f6020526040812054909160649162001294919062004268565b620012a0919062004251565b6002546000858152600a6020526040908190205490517fa9059cbb000000000000000000000000000000000000000000000000000000008152929350600160a060020a039182169263a9059cbb92620013009216908590600401620036b4565b602060405180830381600087803b1580156200131b57600080fd5b505af115801562001330573d6000803e3d6000fd5b505050506040513d601f19601f8201168201806040525081019062001356919062003467565b506007546000848152600f602052604081205490916064916200137a919062004268565b62001386919062004251565b6002546000868152600a6020526040908190205490517fa9059cbb000000000000000000000000000000000000000000000000000000008152929350600160a060020a039182169263a9059cbb92620013e69216908590600401620036b4565b602060405180830381600087803b1580156200140157600080fd5b505af115801562001416573d6000803e3d6000fd5b505050506040513d601f19601f820116820180604052508101906200143c919062003467565b5060006200144b828462004236565b600254600087815260096020908152604080832054600f90925290912054929350600160a060020a039182169263a9059cbb92909116906200148f9085906200428a565b6040518363ffffffff1660e060020a028152600401620014b1929190620036b4565b602060405180830381600087803b158015620014cc57600080fd5b505af1158015620014e1573d6000803e3d6000fd5b505050506040513d601f19601f8201168201806040525081019062001507919062003467565b50600085815260096020908152604080832054600160a060020a03168352600b90915281208054600192906200153f9084906200428a565b9091555050336000908152600b602052604081208054600192906200156690849062004236565b909155505060008581526009602090815260408083208054600160a060020a031916331790556010909152902054620015a09086620023c0565b505050600091825250601060209081526040808320839055600f909152812055600190565b60165460ff1690565b600081815260096020526040812054600160a060020a03168062000b255760405160e560020a62461bcd02815260040162000bf69062003bda565b600082815260096020526040812054600160a060020a03163314620016455760405160e560020a62461bcd02815260040162000bf69062003e94565b600082116200166b5760405160e560020a62461bcd02815260040162000bf69062003805565b6000838152600f6020526040902054156200169d5760405160e560020a62461bcd02815260040162000bf69062003ca5565b6000838152600f602052604081208390556011805460018181018355928290527f31ecc21a745e3968a04e9570e4425bc18fa8019c68028196b546d1669c200c680185905554620016ef91906200428a565b60008481526010602052604090205550600192915050565b6000600160a060020a038216620017355760405160e560020a62461bcd02815260040162000bf69062003b7d565b50600160a060020a03166000908152600b602052604090205490565b6060601180548060200260200160405190810160405280929190818152602001828054801562000bbd57602002820191906000526020600020905b8154815260200190600101908083116200178c575050505050905090565b60118181548110620017bb57600080fd5b600091825260209091200154905081565b620017fb7f65d7a28e3265b37a6474929f336521b332c1681b933f6cb9f3376673440d862a6200084c62001eaa565b6200181d5760405160e560020a62461bcd02815260040162000bf69062003964565b62000f1262002504565b600082815260016020526040812062001841908362002569565b9392505050565b600091825260208281526040808420600160a060020a0393909316845291905290205460ff1690565b600083815260096020526040902054600160a060020a03163314620018ad5760405160e560020a62461bcd02815260040162000bf69062003c37565b6000838152600f602052604090205415620018df5760405160e560020a62461bcd02815260040162000bf69062003fbc565b60008381526009602052604090819020546002549151309286928692600160a060020a039182169290911690859087906200191a906200326c565b6200192b9695949392919062004202565b604051809103906000f08015801562001948573d6000803e3d6000fd5b506000858152600e602052604090208054600160a060020a031916600160a060020a03928316179081905562001982913391168662000f9d565b6002546000858152600e6020526040908190205490517f746e8e70000000000000000000000000000000000000000000000000000000008152600160a060020a039283169263746e8e7092620019e192899290911690600401620041eb565b600060405180830381600087803b158015620019fc57600080fd5b505af115801562001a11573d6000803e3d6000fd5b5050505050505050565b600062001a2a33838562000f9d565b50600192915050565b60606004805462000b3e90620042ed565b6000818152600e6020526040902054600160a060020a0316331462001a805760405160e560020a62461bcd02815260040162000bf69062003cdc565b6000908152600e602052604090208054600160a060020a0319169055565b600960205260009081526040902054600160a060020a031681565b600081565b62001ac862001eaa565b600160a060020a031682600160a060020a0316141562001aff5760405160e560020a62461bcd02815260040162000bf69062003a1e565b80600d600062001b0e62001eaa565b600160a060020a03908116825260208083019390935260409182016000908120918716808252919093529120805460ff19169215159290921790915562001b5462001eaa565b600160a060020a03167f17307eab39ab6107e8899845ad3d59bd9653f200f220920489ca2b5937696c318360405162001b8e919062003713565b60405180910390a35050565b62001baf62001ba862001eaa565b8362001f1e565b62001bd15760405160e560020a62461bcd02815260040162000bf69062003f5f565b62001bdf8484848462002577565b50505050565b6000908152600f602052604090205490565b600081815260096020526040812054600160a060020a0316331462001c335760405160e560020a62461bcd02815260040162000bf69062003e94565b6000828152600f602052604090205462001c645760405160e560020a62461bcd02815260040162000bf69062003b46565b60008281526010602052604090205462001c7f9083620023c0565b506000908152601060209081526040808320839055600f909152812055600190565b606062001cae8262001e8d565b62001cd05760405160e560020a62461bcd02815260040162000bf69062003e37565b600062001cdc620025b4565b9050600081511162001cfe576040518060200160405280600081525062001841565b8062001d0a84620025c5565b60405160200162001d1d929190620035aa565b6040516020818303038152906040529392505050565b600081815260016020526040812062000b259062002736565b6000908152600a6020526040902054600160a060020a031690565b7f9f2df0fed2c77648de5860a4cc508cd0818c85b8b8a1ab4ceeef8d981c8956a681565b62000e9d828262002743565b60065490565b600854600160a060020a031681565b6000908152600e6020526040902054600160a060020a031690565b7f65d7a28e3265b37a6474929f336521b332c1681b933f6cb9f3376673440d862a81565b600160a060020a039182166000908152600d6020908152604080832093909416825291909152205460ff1690565b60075490565b60075481565b62001e31828262002769565b5050565b60006200184183600160a060020a038416620027f3565b6000600160e060020a031982167f780e9d6300000000000000000000000000000000000000000000000000000000148062000b25575062000b258262002842565b600090815260096020526040902054600160a060020a0316151590565b3390565b6000818152600c602052604090208054600160a060020a031916600160a060020a038416908117909155819062001ee582620015ce565b600160a060020a03167f8c5be1e5ebec7d5bd14f71427d1e84f3dd0314c0f7b2291e5b200ac8c7c3b92560405160405180910390a45050565b600062001f2b8262001e8d565b62001f4d5760405160e560020a62461bcd02815260040162000bf69062003a55565b600062001f5a83620015ce565b905080600160a060020a031684600160a060020a0316148062001f98575083600160a060020a031662001f8d8462000bc7565b600160a060020a0316145b8062001fab575062001fab818562001deb565b949350505050565b82600160a060020a031662001fc882620015ce565b600160a060020a03161462001ff45760405160e560020a62461bcd02815260040162000bf69062003dda565b600160a060020a038216620020205760405160e560020a62461bcd02815260040162000bf690620039c1565b6200202d838383620028b8565b6200203a60008262001eae565b600160a060020a0383166000908152600b60205260408120805460019290620020659084906200428a565b9091555050600160a060020a0382166000908152600b602052604081208054600192906200209590849062004236565b90915550506000818152600960205260408082208054600160a060020a031916600160a060020a0386811691821790925591518493918716917fddf252ad1be2c89b69c2b068fc378daa952ba7f163c4a11628f55a4df523b3ef91a4505050565b620021018262000d74565b62002116816200211062001eaa565b620028c5565b62000cc4838362002769565b6200212c62001eaa565b600160a060020a031681600160a060020a031614620021625760405160e560020a62461bcd02815260040162000bf6906200418e565b62001e31828262002937565b60006200184183600160a060020a038416620029bf565b6200218f620015c5565b620021b15760405160e560020a62461bcd02815260040162000bf690620037ce565b6016805460ff191690557f5db9ee0a495bf2e6ff9c91a7834c1ba4fdd244a5e8aa4e537bd38aeae4b073aa620021e662001eaa565b604051620021f5919062003662565b60405180910390a1565b5490565b600160a060020a0382166200222f5760405160e560020a62461bcd02815260040162000bf69062003d11565b6200223a8162001e8d565b156200225d5760405160e560020a62461bcd02815260040162000bf690620038f6565b6200226b60008383620028b8565b600160a060020a0382166000908152600b602052604081208054600192906200229690849062004236565b909155505060008181526009602090815260408083208054600160a060020a038716600160a060020a03199182168117909255600a90935281842080549093168117909255518392907fddf252ad1be2c89b69c2b068fc378daa952ba7f163c4a11628f55a4df523b3ef908290a45050565b80546001019055565b60006200231e82620015ce565b90506200232e81600084620028b8565b6200233b60008362001eae565b600160a060020a0381166000908152600b60205260408120805460019290620023669084906200428a565b90915550506000828152600960205260408082208054600160a060020a031916905551839190600160a060020a038416907fddf252ad1be2c89b69c2b068fc378daa952ba7f163c4a11628f55a4df523b3ef908390a45050565b6011548210620023d05762001e31565b600081815260106020526040812055815b601154620023f2906001906200428a565b811015620024c65760116200240982600162004236565b815481106200242b5760e060020a634e487b7102600052603260045260246000fd5b9060005260206000200154601182815481106200245b5760e060020a634e487b7102600052603260045260246000fd5b9060005260206000200181905550806010600060118481548110620024935760e060020a634e487b7102600052603260045260246000fd5b90600052602060002001548152602001908152602001600020819055508080620024bd906200432d565b915050620023e1565b506011805480620024ea5760e060020a634e487b7102600052603160045260246000fd5b600190038181906000526020600020016000905590555050565b6200250e620015c5565b15620025315760405160e560020a62461bcd02815260040162000bf69062003ab2565b6016805460ff191660011790557f62e78cea01bee320cd4e420270b5ea74000d11b0c9f74754ebdbfc544b05a258620021e662001eaa565b600062001841838362002af0565b6200258484848462001fb3565b620025928484848462002b2c565b62001bdf5760405160e560020a62461bcd02815260040162000bf69062003899565b60606018805462000b3e90620042ed565b60608162002608575060408051808201909152600181527f3000000000000000000000000000000000000000000000000000000000000000602082015262000b28565b8160005b81156200263857806200261f816200432d565b9150620026309050600a8362004251565b91506200260c565b60008167ffffffffffffffff811115620026655760e060020a634e487b7102600052604160045260246000fd5b6040519080825280601f01601f19166020018201604052801562002690576020820181803683370190505b5090505b841562001fab57620026a86001836200428a565b9150620026b7600a866200434b565b620026c490603062004236565b7f0100000000000000000000000000000000000000000000000000000000000000028183815181106200270a5760e060020a634e487b7102600052603260045260246000fd5b6020010190600160f860020a031916908160001a9053506200272e600a8662004251565b945062002694565b600062000b2582620021ff565b6200274e8262000d74565b6200275d816200211062001eaa565b62000cc4838362002937565b62002775828262001848565b62001e3157600082815260208181526040808320600160a060020a03851684529091529020805460ff19166001179055620027af62001eaa565b600160a060020a031681600160a060020a0316837f2f8788117e7eff1d82e926ec794901d17c78024a50270940304540a733656f0d60405160405180910390a45050565b600062002801838362002c78565b620028395750815460018181018455600084815260208082209093018490558454848252828601909352604090209190915562000e39565b50600062000e39565b6000600160e060020a031982167f80ac58cd000000000000000000000000000000000000000000000000000000001480620028a65750600160e060020a031982167f5b5e139f00000000000000000000000000000000000000000000000000000000145b8062000b25575062000b258262002c90565b62000cc483838362002cd1565b620028d1828262001848565b62001e3157620028ec81600160a060020a0316601462002d0b565b620028f983602062002d0b565b6040516020016200290c929190620035dd565b60408051601f198184030181529082905260e560020a62461bcd02825262000bf69160040162003727565b62002943828262001848565b1562001e3157600082815260208181526040808320600160a060020a03851684529091529020805460ff191690556200297b62001eaa565b600160a060020a031681600160a060020a0316837ff6391f5c32d9c69d2a47ea670b442974b53935d1edc7fd64eb21e047a839171b60405160405180910390a45050565b6000818152600183016020526040812054801562002ae5576000620029e66001836200428a565b8554909150600090620029fc906001906200428a565b905081811462002a8657600086600001828154811062002a2f5760e060020a634e487b7102600052603260045260246000fd5b906000526020600020015490508087600001848154811062002a645760e060020a634e487b7102600052603260045260246000fd5b6000918252602080832090910192909255918252600188019052604090208390555b855486908062002aa95760e060020a634e487b7102600052603160045260246000fd5b60019003818190600052602060002001600090559055856001016000868152602001908152602001600020600090556001935050505062000e39565b600091505062000e39565b600082600001828154811062002b195760e060020a634e487b7102600052603260045260246000fd5b9060005260206000200154905092915050565b600062002b4284600160a060020a031662002f47565b1562002c6d5783600160a060020a031663150b7a0262002b6162001eaa565b8786866040518563ffffffff1660e060020a02815260040162002b88949392919062003676565b602060405180830381600087803b15801562002ba357600080fd5b505af192505050801562002bd6575060408051601f3d908101601f1916820190925262002bd39181019062003505565b60015b62002c39573d80801562002c07576040519150601f19603f3d011682016040523d82523d6000602084013e62002c0c565b606091505b50805162002c315760405160e560020a62461bcd02815260040162000bf69062003899565b805181602001fd5b600160e060020a0319167f150b7a020000000000000000000000000000000000000000000000000000000014905062001fab565b506001949350505050565b60009081526001919091016020526040902054151590565b6000600160e060020a031982167f5a05180f00000000000000000000000000000000000000000000000000000000148062000b25575062000b258262002f4d565b62002cde83838362002f8e565b62002ce8620015c5565b1562000cc45760405160e560020a62461bcd02815260040162000bf69062003771565b6060600062002d1c83600262004268565b62002d2990600262004236565b67ffffffffffffffff81111562002d535760e060020a634e487b7102600052604160045260246000fd5b6040519080825280601f01601f19166020018201604052801562002d7e576020820181803683370190505b5090507f30000000000000000000000000000000000000000000000000000000000000008160008151811062002dc75760e060020a634e487b7102600052603260045260246000fd5b6020010190600160f860020a031916908160001a9053507f78000000000000000000000000000000000000000000000000000000000000008160018151811062002e245760e060020a634e487b7102600052603260045260246000fd5b6020010190600160f860020a031916908160001a905350600062002e4a84600262004268565b62002e5790600162004236565b90505b600181111562002f22577f303132333435363738396162636465660000000000000000000000000000000085600f166010811062002eab5760e060020a634e487b7102600052603260045260246000fd5b1a7f01000000000000000000000000000000000000000000000000000000000000000282828151811062002ef25760e060020a634e487b7102600052603260045260246000fd5b6020010190600160f860020a031916908160001a90535060109094049362002f1a81620042d3565b905062002e5a565b508315620018415760405160e560020a62461bcd02815260040162000bf6906200373c565b3b151590565b6000600160e060020a031982167f7965db0b00000000000000000000000000000000000000000000000000000000148062000b25575062000b258262003027565b62002f9b83838362000cc4565b600160a060020a03831662002fbb5762002fb58162003059565b62002fe1565b81600160a060020a031683600160a060020a03161462002fe15762002fe183826200309d565b600160a060020a038216620030015762002ffb816200313f565b62000cc4565b82600160a060020a031682600160a060020a03161462000cc45762000cc4828262003226565b600160e060020a031981167f01ffc9a70000000000000000000000000000000000000000000000000000000014919050565b601480546000838152601560205260408120829055600182018355919091527fce6d7b5282bd9a3661ae061feed1dbda4e52ab073b1f9285be6e155d9c38d4ec0155565b60006001620030ac8462001707565b620030b891906200428a565b6000838152601360205260409020549091508082146200310c57600160a060020a03841660009081526012602090815260408083208584528252808320548484528184208190558352601390915290208190555b506000918252601360209081526040808420849055600160a060020a039094168352601281528383209183525290812055565b60145460009062003153906001906200428a565b600083815260156020526040812054601480549394509092849081106200318d5760e060020a634e487b7102600052603260045260246000fd5b906000526020600020015490508060148381548110620031c05760e060020a634e487b7102600052603260045260246000fd5b60009182526020808320909101929092558281526015909152604080822084905585825281205560148054806200320a5760e060020a634e487b7102600052603160045260246000fd5b6001900381819060005260206000200160009055905550505050565b6000620032338362001707565b600160a060020a039093166000908152601260209081526040808320868452825280832085905593825260139052919091209190915550565b6115d080620043d483390190565b8035600160a060020a038116811462000b2857600080fd5b600060208284031215620032a4578081fd5b62001841826200327a565b60008060408385031215620032c2578081fd5b620032cd836200327a565b9150620032dd602084016200327a565b90509250929050565b600080600060608486031215620032fb578081fd5b62003306846200327a565b925062003316602085016200327a565b9150604084013590509250925092565b600080600080608085870312156200333c578081fd5b62003347856200327a565b93506020620033588187016200327a565b935060408601359250606086013567ffffffffffffffff808211156200337c578384fd5b818801915088601f83011262003390578384fd5b813581811115620033a557620033a562004394565b604051601f8201601f1916810185018381118282101715620033cb57620033cb62004394565b60405281815283820185018b1015620033e2578586fd5b81858501868301379081019093019390935250939692955090935050565b6000806040838503121562003413578182fd5b6200341e836200327a565b915060208301356200343081620043ad565b809150509250929050565b600080604083850312156200344e578182fd5b62003459836200327a565b946020939093013593505050565b60006020828403121562003479578081fd5b81516200184181620043ad565b60006020828403121562003498578081fd5b5035919050565b60008060408385031215620034b2578182fd5b82359150620032dd602084016200327a565b60008060408385031215620034d7578182fd5b50508035926020909101359150565b600060208284031215620034f8578081fd5b81356200184181620043bc565b60006020828403121562003517578081fd5b81516200184181620043bc565b60006020828403121562003536578081fd5b5051919050565b60008060408385031215620034b2578081fd5b60008060006060848603121562003565578081fd5b505081359360208301359350604090920135919050565b6000815180845262003596816020860160208601620042a4565b601f01601f19169290920160200192915050565b60008351620035be818460208801620042a4565b835190830190620035d4818360208801620042a4565b01949350505050565b60007f416363657373436f6e74726f6c3a206163636f756e74200000000000000000008252835162003617816017850160208801620042a4565b7f206973206d697373696e6720726f6c6520000000000000000000000000000000601791840191820152835162003656816028840160208801620042a4565b01602801949350505050565b600160a060020a0391909116815260200190565b6000600160a060020a03808716835280861660208401525083604083015260806060830152620036aa60808301846200357c565b9695505050505050565b600160a060020a03929092168252602082015260400190565b6020808252825182820181905260009190848201906040850190845b818110156200370757835183529284019291840191600101620036e9565b50909695505050505050565b901515815260200190565b90815260200190565b6000602082526200184160208301846200357c565b6020808252818101527f537472696e67733a20686578206c656e67746820696e73756666696369656e74604082015260600190565b6020808252602b908201527f4552433732315061757361626c653a20746f6b656e207472616e73666572207760408201527f68696c6520706175736564000000000000000000000000000000000000000000606082015260800190565b60208082526014908201527f5061757361626c653a206e6f7420706175736564000000000000000000000000604082015260600190565b6020808252601e908201527f70726963652073686f756c642062652067726561746572207468616e20300000604082015260600190565b6020808252602b908201527f455243373231456e756d657261626c653a206f776e657220696e646578206f7560408201527f74206f6620626f756e6473000000000000000000000000000000000000000000606082015260800190565b60208082526032908201527f4552433732313a207472616e7366657220746f206e6f6e20455243373231526560408201527f63656976657220696d706c656d656e7465720000000000000000000000000000606082015260800190565b6020808252601c908201527f4552433732313a20746f6b656e20616c7265616479206d696e74656400000000604082015260600190565b6020808252600b908201527f4c6f772062616c616e6365000000000000000000000000000000000000000000604082015260600190565b6020808252603e908201527f4552433732315072657365744d696e7465725061757365724175746f49643a2060408201527f6d75737420686176652070617573657220726f6c6520746f2070617573650000606082015260800190565b60208082526024908201527f4552433732313a207472616e7366657220746f20746865207a65726f2061646460408201527f7265737300000000000000000000000000000000000000000000000000000000606082015260800190565b60208082526019908201527f4552433732313a20617070726f766520746f2063616c6c657200000000000000604082015260600190565b6020808252602c908201527f4552433732313a206f70657261746f7220717565727920666f72206e6f6e657860408201527f697374656e7420746f6b656e0000000000000000000000000000000000000000606082015260800190565b60208082526010908201527f5061757361626c653a2070617573656400000000000000000000000000000000604082015260600190565b60208082526038908201527f4552433732313a20617070726f76652063616c6c6572206973206e6f74206f7760408201527f6e6572206e6f7220617070726f76656420666f7220616c6c0000000000000000606082015260800190565b60208082526016908201527f6e6f742053656c6c696e67207468697320746f6b656e00000000000000000000604082015260600190565b6020808252602a908201527f4552433732313a2062616c616e636520717565727920666f7220746865207a6560408201527f726f206164647265737300000000000000000000000000000000000000000000606082015260800190565b60208082526029908201527f4552433732313a206f776e657220717565727920666f72206e6f6e657869737460408201527f656e7420746f6b656e0000000000000000000000000000000000000000000000606082015260800190565b6020808252601b908201527f63616e206f6e6c792062652063616c6c6564206279204f776e65720000000000604082015260600190565b6020808252601f908201527f63616e2062652063616c6c656420627920436f6e7472616374204f776e657200604082015260600190565b6020808252600f908201527f416c72656164792053656c6c696e670000000000000000000000000000000000604082015260600190565b6020808252818101527f63616e206f6e6c792063616c6c65642062792041756374696f6e2f4f776e6572604082015260600190565b6020808252818101527f4552433732313a206d696e7420746f20746865207a65726f2061646472657373604082015260600190565b6020808252601d908201527f4f776e65722063616e6e6f74206275792069742773206f776e204e4654000000604082015260600190565b6020808252602c908201527f4552433732313a20617070726f76656420717565727920666f72206e6f6e657860408201527f697374656e7420746f6b656e0000000000000000000000000000000000000000606082015260800190565b60208082526029908201527f4552433732313a207472616e73666572206f6620746f6b656e2074686174206960408201527f73206e6f74206f776e0000000000000000000000000000000000000000000000606082015260800190565b6020808252602f908201527f4552433732314d657461646174613a2055524920717565727920666f72206e6f60408201527f6e6578697374656e7420746f6b656e0000000000000000000000000000000000606082015260800190565b60208082526018908201527f63616e20626520736574206279206f776e6572206f6e6c790000000000000000604082015260600190565b60208082526018908201527f546f6b656e205472616e73656374696f6e204661696c65640000000000000000604082015260600190565b60208082526021908201527f4552433732313a20617070726f76616c20746f2063757272656e74206f776e6560408201527f7200000000000000000000000000000000000000000000000000000000000000606082015260800190565b60208082526031908201527f4552433732313a207472616e736665722063616c6c6572206973206e6f74206f60408201527f776e6572206e6f7220617070726f766564000000000000000000000000000000606082015260800190565b60208082526029908201527f416c72656164792053656c6c696e672c2063616e63656c2053656c6c696e672060408201527f4e46542046697273740000000000000000000000000000000000000000000000606082015260800190565b6020808252602c908201527f455243373231456e756d657261626c653a20676c6f62616c20696e646578206f60408201527f7574206f6620626f756e64730000000000000000000000000000000000000000606082015260800190565b6020808252603d908201527f4552433732315072657365744d696e7465725061757365724175746f49643a2060408201527f6d7573742068617665206d696e74657220726f6c6520746f206d696e74000000606082015260800190565b60208082526030908201527f4552433732314275726e61626c653a2063616c6c6572206973206e6f74206f7760408201527f6e6572206e6f7220617070726f76656400000000000000000000000000000000606082015260800190565b602080825260409082018190527f4552433732315072657365744d696e7465725061757365724175746f49643a20908201527f6d75737420686176652070617573657220726f6c6520746f20756e7061757365606082015260800190565b6020808252602f908201527f416363657373436f6e74726f6c3a2063616e206f6e6c792072656e6f756e636560408201527f20726f6c657320666f722073656c660000000000000000000000000000000000606082015260800190565b918252600160a060020a0316602082015260400190565b9586526020860194909452600160a060020a039283166040860152908216606085015216608083015260a082015260c00190565b600082198211156200424c576200424c62004362565b500190565b6000826200426357620042636200437b565b500490565b600081600019048311821515161562004285576200428562004362565b500290565b6000828210156200429f576200429f62004362565b500390565b60005b83811015620042c1578181015183820152602001620042a7565b8381111562001bdf5750506000910152565b600081620042e557620042e562004362565b506000190190565b6002810460018216806200430257607f821691505b60208210811415620043275760e060020a634e487b7102600052602260045260246000fd5b50919050565b600060001982141562004344576200434462004362565b5060010190565b6000826200435d576200435d6200437b565b500690565b60e060020a634e487b7102600052601160045260246000fd5b60e060020a634e487b7102600052601260045260246000fd5b60e060020a634e487b7102600052604160045260246000fd5b801515811462000f8857600080fd5b600160e060020a03198116811462000f8857600080fdfe60806040523480156200001157600080fd5b50604051620015d0380380620015d08339810160408190526200003491620000d9565b600486905560008054600160a060020a031916600160a060020a03861617905562000060854262000148565b600190815560028054600160a060020a0319908116600160a060020a03968716179091556003805482169490951693909317909355600955600a805492830181556000527fc65a7bb8d6351c1cf70c95a316cc6a92839c986682d98bc35f958f4883f9d2a890910180549091169055506200019f915050565b60008060008060008060c08789031215620000f2578182fd5b865195506020870151945060408701516200010d8162000186565b6060880151909450620001208162000186565b6080880151909350620001338162000186565b8092505060a087015190509295509295509295565b6000821982111562000181577f4e487b710000000000000000000000000000000000000000000000000000000081526011600452602481fd5b500190565b600160a060020a03811681146200019c57600080fd5b50565b61142180620001af6000396000f3fe6080604052600436106100f75760003560e060020a90048063454a2ab31161008e57806388a6360e1161005d57806388a6360e1461023457806391f9015714610249578063d57bde791461025e578063f56e9c6614610273576100f7565b8063454a2ab3146101df5780634b449cba146101f257806370bda8941461017657806383ffda3b14610214576100f7565b806321df0da7116100ca57806321df0da71461018b5780632a24f46c146101ad57806338af3eed146101b55780633ccfd60b146101ca576100f7565b806312fa6feb146100fc578063144fa6d714610127578063150b7a02146101495780631e36d75514610176575b600080fd5b34801561010857600080fd5b50610111610293565b60405161011e91906110e5565b60405180910390f35b34801561013357600080fd5b50610147610142366004610f59565b61029c565b005b34801561015557600080fd5b50610169610164366004610f98565b6102cb565b60405161011e91906110f0565b34801561018257600080fd5b506101476102f4565b34801561019757600080fd5b506101a061039a565b60405161011e91906110b8565b6101476103a9565b3480156101c157600080fd5b506101a0610b88565b3480156101d657600080fd5b50610111610b97565b6101476101ed366004611088565b610ba7565b3480156101fe57600080fd5b50610207610de1565b60405161011e91906112d9565b34801561022057600080fd5b5061020761022f366004610f59565b610de7565b34801561024057600080fd5b506101a0610e06565b34801561025557600080fd5b506101a0610e15565b34801561026a57600080fd5b50610207610e24565b34801561027f57600080fd5b5061014761028e366004610f59565b610e2a565b600b5460ff1681565b6002805473ffffffffffffffffffffffffffffffffffffffff1916600160a060020a0392909216919091179055565b7f150b7a0200000000000000000000000000000000000000000000000000000000949350505050565b600354600480546000546040517f9564470e000000000000000000000000000000000000000000000000000000008152600160a060020a0394851694639564470e94610345949390911691016112e2565b602060405180830381600087803b15801561035f57600080fd5b505af1158015610373573d6000803e3d6000fd5b505050506040513d601f19601f820116820180604052508101906103979190611068565b50565b600254600160a060020a031690565b600054600160a060020a03163314806103cc5750600554600160a060020a031633145b6103f45760405160e560020a62461bcd0281526004016103eb9061127c565b60405180910390fd5b6001544210156104195760405160e560020a62461bcd0281526004016103eb906111e8565b600b5460ff161561043f5760405160e560020a62461bcd0281526004016103eb9061121f565b600b805460ff191660011790556004546005546006546040517fd2aa34a4fdbbc6dff6a3e56f46e0f3ae2a31d7785ff3487aa5c95c642acea50193610491939092600160a060020a03909116916112f9565b60405180910390a1600554600160a060020a0316156109e857600354600480546005546040517f9564470e000000000000000000000000000000000000000000000000000000008152600160a060020a0394851694639564470e946104fb949390911691016112e2565b602060405180830381600087803b15801561051557600080fd5b505af1158015610529573d6000803e3d6000fd5b505050506040513d601f19601f8201168201806040525081019061054d9190611068565b5060006064600360009054906101000a9004600160a060020a0316600160a060020a031663d55a9fe46040518163ffffffff1660e060020a02815260040160206040518083038186803b1580156105a357600080fd5b505afa1580156105b7573d6000803e3d6000fd5b505050506040513d601f19601f820116820180604052508101906105db91906110a0565b6006546105e89190611353565b6105f29190611330565b600254600354600480546040517fd48e638a000000000000000000000000000000000000000000000000000000008152949550600160a060020a039384169463a9059cbb949093169263d48e638a9261064c9291016112d9565b60206040518083038186803b15801561066457600080fd5b505afa158015610678573d6000803e3d6000fd5b505050506040513d601f19601f8201168201806040525081019061069c9190610f7c565b836040518363ffffffff1660e060020a0281526004016106bd9291906110cc565b602060405180830381600087803b1580156106d757600080fd5b505af11580156106eb573d6000803e3d6000fd5b505050506040513d601f19601f8201168201806040525081019061070f9190611068565b5060006064600360009054906101000a9004600160a060020a0316600160a060020a031663ef767a696040518163ffffffff1660e060020a02815260040160206040518083038186803b15801561076557600080fd5b505afa158015610779573d6000803e3d6000fd5b505050506040513d601f19601f8201168201806040525081019061079d91906110a0565b6006546107aa9190611353565b6107b49190611330565b600254600354600480546040517fd48e638a000000000000000000000000000000000000000000000000000000008152949550600160a060020a039384169463a9059cbb949093169263d48e638a9261080e9291016112d9565b60206040518083038186803b15801561082657600080fd5b505afa15801561083a573d6000803e3d6000fd5b505050506040513d601f19601f8201168201806040525081019061085e9190610f7c565b836040518363ffffffff1660e060020a02815260040161087f9291906110cc565b602060405180830381600087803b15801561089957600080fd5b505af11580156108ad573d6000803e3d6000fd5b505050506040513d601f19601f820116820180604052508101906108d19190611068565b5060006108de8284611318565b600254600054600654929350600160a060020a039182169263a9059cbb929091169061090b908590611372565b6040518363ffffffff1660e060020a02815260040161092b9291906110cc565b602060405180830381600087803b15801561094557600080fd5b505af1158015610959573d6000803e3d6000fd5b505050506040513d601f19601f8201168201806040525081019061097d9190611068565b5060015b600a548110156109df576109cc600a82815481106109b25760e060020a634e487b7102600052603260045260246000fd5b600091825260209091200154600160a060020a0316610e59565b50806109d781611389565b915050610981565b50505050610a8d565b600354600480546000546040517f9564470e000000000000000000000000000000000000000000000000000000008152600160a060020a0394851694639564470e94610a39949390911691016112e2565b602060405180830381600087803b158015610a5357600080fd5b505af1158015610a67573d6000803e3d6000fd5b505050506040513d601f19601f82011682018060405250810190610a8b9190611068565b505b600354600480546040517f96e392d3000000000000000000000000000000000000000000000000000000008152600160a060020a03909316926396e392d392610ad79291016112d9565b600060405180830381600087803b158015610af157600080fd5b505af1158015610b05573d6000803e3d6000fd5b5050600254600480546040517f77df84a4000000000000000000000000000000000000000000000000000000008152600160a060020a0390931694506377df84a49350610b54929091016112d9565b600060405180830381600087803b158015610b6e57600080fd5b505af1158015610b82573d6000803e3d6000fd5b50505050565b600054600160a060020a031681565b6000610ba233610e59565b905090565b600154421115610bcc5760405160e560020a62461bcd0281526004016103eb9061111d565b600954811015610bf15760405160e560020a62461bcd0281526004016103eb9061118b565b6006548111610c155760405160e560020a62461bcd0281526004016103eb90611154565b600254600480546040517f01f07a3b000000000000000000000000000000000000000000000000000000008152600160a060020a03909316926301f07a3b92610c63929133918791016112f9565b602060405180830381600087803b158015610c7d57600080fd5b505af1158015610c91573d6000803e3d6000fd5b505050506040513d601f19601f82011682018060405250810190610cb59190611068565b610cbe57600080fd5b60065415610cf957600654600554600160a060020a031660009081526007602052604081208054909190610cf3908490611318565b90915550505b6005805473ffffffffffffffffffffffffffffffffffffffff1916339081179091556006829055600090815260086020526040902054610da157600a80546001818101835560008390527fc65a7bb8d6351c1cf70c95a316cc6a92839c986682d98bc35f958f4883f9d2a8909101805473ffffffffffffffffffffffffffffffffffffffff1916331790559054610d909190611372565b336000908152600860205260409020555b7fda0a18da71d8ebd145966339a728fc0d8ccc07c22870d561890d823c515dda6b6004543383604051610dd6939291906112f9565b60405180910390a150565b60015481565b600160a060020a0381166000908152600760205260409020545b919050565b600354600160a060020a031690565b600554600160a060020a031681565b60065481565b6003805473ffffffffffffffffffffffffffffffffffffffff1916600160a060020a0392909216919091179055565b600160a060020a0381166000908152600760205260408120548015610f5057600160a060020a038084166000908152600760205260408082209190915560025490517fa9059cbb00000000000000000000000000000000000000000000000000000000815291169063a9059cbb90610ed790869085906004016110cc565b602060405180830381600087803b158015610ef157600080fd5b505af1158015610f05573d6000803e3d6000fd5b505050506040513d601f19601f82011682018060405250810190610f299190611068565b610f5057600160a060020a0383166000908152600760205260408120919091559050610e01565b50600192915050565b600060208284031215610f6a578081fd5b8135610f75816113d6565b9392505050565b600060208284031215610f8d578081fd5b8151610f75816113d6565b60008060008060808587031215610fad578283fd5b8435610fb8816113d6565b9350602085810135610fc9816113d6565b935060408601359250606086013567ffffffffffffffff80821115610fec578384fd5b818801915088601f830112610fff578384fd5b813581811115611011576110116113bd565b604051601f8201601f1916810185018381118282101715611034576110346113bd565b60405281815283820185018b101561104a578586fd5b81858501868301379081019093019390935250939692955090935050565b600060208284031215611079578081fd5b81518015158114610f75578182fd5b600060208284031215611099578081fd5b5035919050565b6000602082840312156110b1578081fd5b5051919050565b600160a060020a0391909116815260200190565b600160a060020a03929092168252602082015260400190565b901515815260200190565b7fffffffff0000000000000000000000000000000000000000000000000000000091909116815260200190565b60208082526016908201527f41756374696f6e20616c726561647920656e6465642e00000000000000000000604082015260600190565b6020808252601e908201527f546865726520616c7265616479206973206120686967686572206269642e0000604082015260600190565b60208082526022908201527f416d6f756e74206973206c657373207468616e206d696e696d756d205072696360408201527f6521000000000000000000000000000000000000000000000000000000000000606082015260800190565b60208082526016908201527f41756374696f6e206e6f742079657420656e6465642e00000000000000000000604082015260600190565b60208082526023908201527f61756374696f6e456e642068617320616c7265616479206265656e2063616c6c60408201527f65642e0000000000000000000000000000000000000000000000000000000000606082015260800190565b6020808252602a908201527f6f6e6c79206f776e6572206f6620746f6b656e2063616e2063616c6c2074686960408201527f732066756e6374696f6e00000000000000000000000000000000000000000000606082015260800190565b90815260200190565b918252600160a060020a0316602082015260400190565b928352600160a060020a03919091166020830152604082015260600190565b6000821982111561132b5761132b6113a4565b500190565b60008261134e5760e060020a634e487b710281526012600452602481fd5b500490565b600081600019048311821515161561136d5761136d6113a4565b500290565b600082821015611384576113846113a4565b500390565b600060001982141561139d5761139d6113a4565b5060010190565b60e060020a634e487b7102600052601160045260246000fd5b60e060020a634e487b7102600052604160045260246000fd5b600160a060020a038116811461039757600080fdfea2646970667358221220baeabe3477d6d0ef559000af031e7388af423233e6f65199550818ecf2af14d264736f6c63430008000033a26469706673582212205a43fce433c0edfb1b26ba64d8bbddc6cda3302a714810a7fde773757dd99bde64736f6c63430008000033",
  "immutableReferences": {},
  "source": "// SPDX-License-Identifier: MIT\npragma solidity ^0.8.0;\n\nimport \"./presets/ERC721PresetMinterPauserAutoId.sol\";\n\ncontract DVT is ERC721PresetMinterPauserAutoId {\n    constructor()\n    ERC721PresetMinterPauserAutoId(\n        \"Davinci Token\",\n        \"DVT\",\n        \"https://davinci.com/api/token/\"\n    )\n    {}\n}",
  "sourcePath": "/Volumes/Transcend/Projects/DappsLab/Lottery-Smart-Contract/contracts/customERC20ERC721/ERC721/DVT.sol",
  "compiler": {
    "name": "solc",
    "version": "0.8.0+commit.c7dfd78e.Emscripten.clang"
  },
  "schemaVersion": "3.4.3",
  "updatedAt": "2021-11-18T07:59:15.510Z",
  "devdoc": {
    "kind": "dev",
    "methods": {
      "_spend(uint256,address)": {
        "details": "See {IERC721-safeTransferFrom}."
      },
      "approve(address,uint256)": {
        "details": "See {IERC721-approve}."
      },
      "balanceOf(address)": {
        "details": "See {IERC721-balanceOf}."
      },
      "burn(uint256)": {
        "details": "Burns `tokenId`. See {ERC721-_burn}. Requirements: - The caller must own `tokenId` or be an approved operator."
      },
      "getApproved(uint256)": {
        "details": "See {IERC721-getApproved}."
      },
      "getRoleAdmin(bytes32)": {
        "details": "Returns the admin role that controls `role`. See {grantRole} and {revokeRole}. To change a role's admin, use {_setRoleAdmin}."
      },
      "getRoleMember(bytes32,uint256)": {
        "details": "Returns one of the accounts that have `role`. `index` must be a value between 0 and {getRoleMemberCount}, non-inclusive. Role bearers are not sorted in any particular way, and their ordering may change at any point. WARNING: When using {getRoleMember} and {getRoleMemberCount}, make sure you perform all queries on the same block. See the following https://forum.openzeppelin.com/t/iterating-over-elements-on-enumerableset-in-openzeppelin-contracts/2296[forum post] for more information."
      },
      "getRoleMemberCount(bytes32)": {
        "details": "Returns the number of accounts that have `role`. Can be used together with {getRoleMember} to enumerate all bearers of a role."
      },
      "grantRole(bytes32,address)": {
        "details": "Overload {grantRole} to track enumerable memberships"
      },
      "hasRole(bytes32,address)": {
        "details": "Returns `true` if `account` has been granted `role`."
      },
      "isApprovedForAll(address,address)": {
        "details": "See {IERC721-isApprovedForAll}."
      },
      "mint(address)": {
        "details": "Creates a new token for `to`. Its token ID will be automatically assigned (and available on the emitted {IERC721-Transfer} event), and the token URI autogenerated based on the base URI passed at construction. See {ERC721-_mint}. Requirements: - the caller must have the `MINTER_ROLE`."
      },
      "name()": {
        "details": "See {IERC721Metadata-name}."
      },
      "ownerOf(uint256)": {
        "details": "See {IERC721-ownerOf}."
      },
      "pause()": {
        "details": "Pauses all token transfers. See {ERC721Pausable} and {Pausable-_pause}. Requirements: - the caller must have the `PAUSER_ROLE`."
      },
      "paused()": {
        "details": "Returns true if the contract is paused, and false otherwise."
      },
      "renounceRole(bytes32,address)": {
        "details": "Overload {renounceRole} to track enumerable memberships"
      },
      "revokeRole(bytes32,address)": {
        "details": "Overload {revokeRole} to track enumerable memberships"
      },
      "safeTransferFrom(address,address,uint256)": {
        "details": "Safely transfers `tokenId` token from `from` to `to`, checking first that contract recipients are aware of the ERC721 protocol to prevent tokens from being forever locked. Requirements: - `from` cannot be the zero address. - `to` cannot be the zero address. - `tokenId` token must exist and be owned by `from`. - If the caller is not `from`, it must be have been allowed to move this token by either {approve} or {setApprovalForAll}. - If `to` refers to a smart contract, it must implement {IERC721Receiver-onERC721Received}, which is called upon a safe transfer. Emits a {Transfer} event."
      },
      "safeTransferFrom(address,address,uint256,bytes)": {
        "details": "See {IERC721-safeTransferFrom}."
      },
      "setApprovalForAll(address,bool)": {
        "details": "See {IERC721-setApprovalForAll}."
      },
      "supportsInterface(bytes4)": {
        "details": "See {IERC165-supportsInterface}."
      },
      "symbol()": {
        "details": "See {IERC721Metadata-symbol}."
      },
      "tokenByIndex(uint256)": {
        "details": "See {IERC721Enumerable-tokenByIndex}."
      },
      "tokenOfOwnerByIndex(address,uint256)": {
        "details": "See {IERC721Enumerable-tokenOfOwnerByIndex}."
      },
      "tokenURI(uint256)": {
        "details": "See {IERC721Metadata-tokenURI}."
      },
      "totalSupply()": {
        "details": "See {IERC721Enumerable-totalSupply}."
      },
      "transferFrom(address,address,uint256)": {
        "details": "See {IERC721-transferFrom}."
      },
      "unpause()": {
        "details": "Unpauses all token transfers. See {ERC721Pausable} and {Pausable-_unpause}. Requirements: - the caller must have the `PAUSER_ROLE`."
      }
    },
    "version": 1
  },
  "userdoc": {
    "kind": "user",
    "methods": {
      "getToken()": {
        "notice": "Getter and Setter of _token (ERC20)*"
      }
    },
    "version": 1
  }
}