{
  "contractName": "ERC1820Implementer",
  "abi": [
    {
      "inputs": [
        {
          "internalType": "bytes32",
          "name": "interfaceHash",
          "type": "bytes32"
        },
        {
          "internalType": "address",
          "name": "account",
          "type": "address"
        }
      ],
      "name": "canImplementInterfaceForAddress",
      "outputs": [
        {
          "internalType": "bytes32",
          "name": "",
          "type": "bytes32"
        }
      ],
      "stateMutability": "view",
      "type": "function"
    }
  ],
  "bytecode": "0x608060405234801561001057600080fd5b50610160806100206000396000f3fe608060405234801561001057600080fd5b5060043610610047577c01000000000000000000000000000000000000000000000000000000006000350463249cb3fa811461004c575b600080fd5b61005f61005a3660046100da565b610075565b60405161006c9190610121565b60405180910390f35b60008281526020818152604080832073ffffffffffffffffffffffffffffffffffffffff8516845290915281205460ff166100b15760006100d3565b7fa2ef4600d742022d532d4747cb3547474667d6f13804902513b2ec01c848f4b45b9392505050565b600080604083850312156100ec578182fd5b82359150602083013573ffffffffffffffffffffffffffffffffffffffff81168114610116578182fd5b809150509250929050565b9081526020019056fea2646970667358221220d61cf63b7e72df346d8fb3ebc03e41df997f9ec1c8de6b1102c1fd583d12e22264736f6c63430008000033",
  "immutableReferences": {},
  "source": "// SPDX-License-Identifier: MIT\n\npragma solidity ^0.8.0;\n\nimport \"./IERC1820Implementer.sol\";\n\n/**\n * @dev Implementation of the {IERC1820Implementer} interface.\n *\n * Contracts may inherit from this and call {_registerInterfaceForAddress} to\n * declare their willingness to be implementers.\n * {IERC1820Registry-setInterfaceImplementer} should then be called for the\n * registration to be complete.\n */\ncontract ERC1820Implementer is IERC1820Implementer {\n    bytes32 private constant _ERC1820_ACCEPT_MAGIC = keccak256(\"ERC1820_ACCEPT_MAGIC\");\n\n    mapping(bytes32 => mapping(address => bool)) private _supportedInterfaces;\n\n    /**\n     * @dev See {IERC1820Implementer-canImplementInterfaceForAddress}.\n     */\n    function canImplementInterfaceForAddress(bytes32 interfaceHash, address account)\n        public\n        view\n        virtual\n        override\n        returns (bytes32)\n    {\n        return _supportedInterfaces[interfaceHash][account] ? _ERC1820_ACCEPT_MAGIC : bytes32(0x00);\n    }\n\n    /**\n     * @dev Declares the contract as willing to be an implementer of\n     * `interfaceHash` for `account`.\n     *\n     * See {IERC1820Registry-setInterfaceImplementer} and\n     * {IERC1820Registry-interfaceHash}.\n     */\n    function _registerInterfaceForAddress(bytes32 interfaceHash, address account) internal virtual {\n        _supportedInterfaces[interfaceHash][account] = true;\n    }\n}\n",
  "sourcePath": "/Volumes/Transcend/Projects/DappsLab/Lottery-Smart-Contract/contracts/custom50PersentCharityNFT/utils/introspection/ERC1820Implementer.sol",
  "compiler": {
    "name": "solc",
    "version": "0.8.0+commit.c7dfd78e.Emscripten.clang"
  },
  "schemaVersion": "3.4.3",
  "updatedAt": "2021-10-28T10:35:29.348Z",
  "devdoc": {
    "details": "Implementation of the {IERC1820Implementer} interface. Contracts may inherit from this and call {_registerInterfaceForAddress} to declare their willingness to be implementers. {IERC1820Registry-setInterfaceImplementer} should then be called for the registration to be complete.",
    "kind": "dev",
    "methods": {
      "canImplementInterfaceForAddress(bytes32,address)": {
        "details": "See {IERC1820Implementer-canImplementInterfaceForAddress}."
      }
    },
    "version": 1
  },
  "userdoc": {
    "kind": "user",
    "methods": {},
    "version": 1
  }
}