{
  "contractName": "ERC20PresetMinterPauser",
  "abi": [
    {
      "inputs": [
        {
          "internalType": "string",
          "name": "name",
          "type": "string"
        },
        {
          "internalType": "string",
          "name": "symbol",
          "type": "string"
        }
      ],
      "stateMutability": "nonpayable",
      "type": "constructor"
    },
    {
      "anonymous": false,
      "inputs": [
        {
          "indexed": true,
          "internalType": "address",
          "name": "owner",
          "type": "address"
        },
        {
          "indexed": true,
          "internalType": "address",
          "name": "spender",
          "type": "address"
        },
        {
          "indexed": false,
          "internalType": "uint256",
          "name": "value",
          "type": "uint256"
        }
      ],
      "name": "Approval",
      "type": "event"
    },
    {
      "anonymous": false,
      "inputs": [
        {
          "indexed": false,
          "internalType": "address",
          "name": "account",
          "type": "address"
        }
      ],
      "name": "Paused",
      "type": "event"
    },
    {
      "anonymous": false,
      "inputs": [
        {
          "indexed": true,
          "internalType": "bytes32",
          "name": "role",
          "type": "bytes32"
        },
        {
          "indexed": true,
          "internalType": "bytes32",
          "name": "previousAdminRole",
          "type": "bytes32"
        },
        {
          "indexed": true,
          "internalType": "bytes32",
          "name": "newAdminRole",
          "type": "bytes32"
        }
      ],
      "name": "RoleAdminChanged",
      "type": "event"
    },
    {
      "anonymous": false,
      "inputs": [
        {
          "indexed": true,
          "internalType": "bytes32",
          "name": "role",
          "type": "bytes32"
        },
        {
          "indexed": true,
          "internalType": "address",
          "name": "account",
          "type": "address"
        },
        {
          "indexed": true,
          "internalType": "address",
          "name": "sender",
          "type": "address"
        }
      ],
      "name": "RoleGranted",
      "type": "event"
    },
    {
      "anonymous": false,
      "inputs": [
        {
          "indexed": true,
          "internalType": "bytes32",
          "name": "role",
          "type": "bytes32"
        },
        {
          "indexed": true,
          "internalType": "address",
          "name": "account",
          "type": "address"
        },
        {
          "indexed": true,
          "internalType": "address",
          "name": "sender",
          "type": "address"
        }
      ],
      "name": "RoleRevoked",
      "type": "event"
    },
    {
      "anonymous": false,
      "inputs": [
        {
          "indexed": true,
          "internalType": "address",
          "name": "from",
          "type": "address"
        },
        {
          "indexed": true,
          "internalType": "address",
          "name": "to",
          "type": "address"
        },
        {
          "indexed": false,
          "internalType": "uint256",
          "name": "value",
          "type": "uint256"
        }
      ],
      "name": "Transfer",
      "type": "event"
    },
    {
      "anonymous": false,
      "inputs": [
        {
          "indexed": false,
          "internalType": "address",
          "name": "account",
          "type": "address"
        }
      ],
      "name": "Unpaused",
      "type": "event"
    },
    {
      "inputs": [],
      "name": "DEFAULT_ADMIN_ROLE",
      "outputs": [
        {
          "internalType": "bytes32",
          "name": "",
          "type": "bytes32"
        }
      ],
      "stateMutability": "view",
      "type": "function"
    },
    {
      "inputs": [],
      "name": "MINTER_ROLE",
      "outputs": [
        {
          "internalType": "bytes32",
          "name": "",
          "type": "bytes32"
        }
      ],
      "stateMutability": "view",
      "type": "function"
    },
    {
      "inputs": [],
      "name": "PAUSER_ROLE",
      "outputs": [
        {
          "internalType": "bytes32",
          "name": "",
          "type": "bytes32"
        }
      ],
      "stateMutability": "view",
      "type": "function"
    },
    {
      "inputs": [
        {
          "internalType": "uint256",
          "name": "tokenId",
          "type": "uint256"
        },
        {
          "internalType": "address",
          "name": "from",
          "type": "address"
        },
        {
          "internalType": "uint256",
          "name": "amount",
          "type": "uint256"
        },
        {
          "internalType": "bool",
          "name": "isNFT",
          "type": "bool"
        }
      ],
      "name": "_spend",
      "outputs": [
        {
          "internalType": "bool",
          "name": "",
          "type": "bool"
        }
      ],
      "stateMutability": "nonpayable",
      "type": "function"
    },
    {
      "inputs": [
        {
          "internalType": "address",
          "name": "owner",
          "type": "address"
        },
        {
          "internalType": "address",
          "name": "spender",
          "type": "address"
        }
      ],
      "name": "allowance",
      "outputs": [
        {
          "internalType": "uint256",
          "name": "",
          "type": "uint256"
        }
      ],
      "stateMutability": "view",
      "type": "function"
    },
    {
      "inputs": [
        {
          "internalType": "address",
          "name": "spender",
          "type": "address"
        },
        {
          "internalType": "uint256",
          "name": "amount",
          "type": "uint256"
        }
      ],
      "name": "approve",
      "outputs": [
        {
          "internalType": "bool",
          "name": "",
          "type": "bool"
        }
      ],
      "stateMutability": "nonpayable",
      "type": "function"
    },
    {
      "inputs": [
        {
          "internalType": "address",
          "name": "account",
          "type": "address"
        }
      ],
      "name": "balanceOf",
      "outputs": [
        {
          "internalType": "uint256",
          "name": "",
          "type": "uint256"
        }
      ],
      "stateMutability": "view",
      "type": "function"
    },
    {
      "inputs": [
        {
          "internalType": "uint256",
          "name": "amount",
          "type": "uint256"
        }
      ],
      "name": "burn",
      "outputs": [],
      "stateMutability": "nonpayable",
      "type": "function"
    },
    {
      "inputs": [
        {
          "internalType": "address",
          "name": "account",
          "type": "address"
        },
        {
          "internalType": "uint256",
          "name": "amount",
          "type": "uint256"
        }
      ],
      "name": "burnFrom",
      "outputs": [],
      "stateMutability": "nonpayable",
      "type": "function"
    },
    {
      "inputs": [],
      "name": "decimals",
      "outputs": [
        {
          "internalType": "uint8",
          "name": "",
          "type": "uint8"
        }
      ],
      "stateMutability": "view",
      "type": "function"
    },
    {
      "inputs": [
        {
          "internalType": "address",
          "name": "spender",
          "type": "address"
        },
        {
          "internalType": "uint256",
          "name": "subtractedValue",
          "type": "uint256"
        }
      ],
      "name": "decreaseAllowance",
      "outputs": [
        {
          "internalType": "bool",
          "name": "",
          "type": "bool"
        }
      ],
      "stateMutability": "nonpayable",
      "type": "function"
    },
    {
      "inputs": [
        {
          "internalType": "uint256",
          "name": "tokenId",
          "type": "uint256"
        }
      ],
      "name": "deleteAuctionAddress",
      "outputs": [],
      "stateMutability": "nonpayable",
      "type": "function"
    },
    {
      "inputs": [
        {
          "internalType": "uint256",
          "name": "tokenId",
          "type": "uint256"
        }
      ],
      "name": "getAuctionsAddress",
      "outputs": [
        {
          "internalType": "address",
          "name": "",
          "type": "address"
        }
      ],
      "stateMutability": "view",
      "type": "function"
    },
    {
      "inputs": [],
      "name": "getNFTRegistery",
      "outputs": [
        {
          "internalType": "address",
          "name": "",
          "type": "address"
        }
      ],
      "stateMutability": "view",
      "type": "function"
    },
    {
      "inputs": [
        {
          "internalType": "bytes32",
          "name": "role",
          "type": "bytes32"
        }
      ],
      "name": "getRoleAdmin",
      "outputs": [
        {
          "internalType": "bytes32",
          "name": "",
          "type": "bytes32"
        }
      ],
      "stateMutability": "view",
      "type": "function"
    },
    {
      "inputs": [
        {
          "internalType": "bytes32",
          "name": "role",
          "type": "bytes32"
        },
        {
          "internalType": "uint256",
          "name": "index",
          "type": "uint256"
        }
      ],
      "name": "getRoleMember",
      "outputs": [
        {
          "internalType": "address",
          "name": "",
          "type": "address"
        }
      ],
      "stateMutability": "view",
      "type": "function"
    },
    {
      "inputs": [
        {
          "internalType": "bytes32",
          "name": "role",
          "type": "bytes32"
        }
      ],
      "name": "getRoleMemberCount",
      "outputs": [
        {
          "internalType": "uint256",
          "name": "",
          "type": "uint256"
        }
      ],
      "stateMutability": "view",
      "type": "function"
    },
    {
      "inputs": [
        {
          "internalType": "bytes32",
          "name": "role",
          "type": "bytes32"
        },
        {
          "internalType": "address",
          "name": "account",
          "type": "address"
        }
      ],
      "name": "grantRole",
      "outputs": [],
      "stateMutability": "nonpayable",
      "type": "function"
    },
    {
      "inputs": [
        {
          "internalType": "bytes32",
          "name": "role",
          "type": "bytes32"
        },
        {
          "internalType": "address",
          "name": "account",
          "type": "address"
        }
      ],
      "name": "hasRole",
      "outputs": [
        {
          "internalType": "bool",
          "name": "",
          "type": "bool"
        }
      ],
      "stateMutability": "view",
      "type": "function"
    },
    {
      "inputs": [
        {
          "internalType": "address",
          "name": "spender",
          "type": "address"
        },
        {
          "internalType": "uint256",
          "name": "addedValue",
          "type": "uint256"
        }
      ],
      "name": "increaseAllowance",
      "outputs": [
        {
          "internalType": "bool",
          "name": "",
          "type": "bool"
        }
      ],
      "stateMutability": "nonpayable",
      "type": "function"
    },
    {
      "inputs": [],
      "name": "name",
      "outputs": [
        {
          "internalType": "string",
          "name": "",
          "type": "string"
        }
      ],
      "stateMutability": "view",
      "type": "function"
    },
    {
      "inputs": [],
      "name": "paused",
      "outputs": [
        {
          "internalType": "bool",
          "name": "",
          "type": "bool"
        }
      ],
      "stateMutability": "view",
      "type": "function"
    },
    {
      "inputs": [
        {
          "internalType": "bytes32",
          "name": "role",
          "type": "bytes32"
        },
        {
          "internalType": "address",
          "name": "account",
          "type": "address"
        }
      ],
      "name": "renounceRole",
      "outputs": [],
      "stateMutability": "nonpayable",
      "type": "function"
    },
    {
      "inputs": [
        {
          "internalType": "bytes32",
          "name": "role",
          "type": "bytes32"
        },
        {
          "internalType": "address",
          "name": "account",
          "type": "address"
        }
      ],
      "name": "revokeRole",
      "outputs": [],
      "stateMutability": "nonpayable",
      "type": "function"
    },
    {
      "inputs": [
        {
          "internalType": "uint256",
          "name": "tokenId",
          "type": "uint256"
        },
        {
          "internalType": "address",
          "name": "auctionAddress",
          "type": "address"
        }
      ],
      "name": "setAuctionsAddress",
      "outputs": [],
      "stateMutability": "nonpayable",
      "type": "function"
    },
    {
      "inputs": [
        {
          "internalType": "address",
          "name": "NFTRegistery",
          "type": "address"
        }
      ],
      "name": "setNFTRegistery",
      "outputs": [],
      "stateMutability": "nonpayable",
      "type": "function"
    },
    {
      "inputs": [
        {
          "internalType": "uint256",
          "name": "tokenId",
          "type": "uint256"
        },
        {
          "internalType": "address",
          "name": "from",
          "type": "address"
        },
        {
          "internalType": "uint256",
          "name": "amount",
          "type": "uint256"
        }
      ],
      "name": "spendFrom",
      "outputs": [
        {
          "internalType": "bool",
          "name": "",
          "type": "bool"
        }
      ],
      "stateMutability": "nonpayable",
      "type": "function"
    },
    {
      "inputs": [
        {
          "internalType": "address",
          "name": "from",
          "type": "address"
        },
        {
          "internalType": "uint256",
          "name": "amount",
          "type": "uint256"
        }
      ],
      "name": "spendFrom",
      "outputs": [
        {
          "internalType": "bool",
          "name": "",
          "type": "bool"
        }
      ],
      "stateMutability": "nonpayable",
      "type": "function"
    },
    {
      "inputs": [
        {
          "internalType": "bytes4",
          "name": "interfaceId",
          "type": "bytes4"
        }
      ],
      "name": "supportsInterface",
      "outputs": [
        {
          "internalType": "bool",
          "name": "",
          "type": "bool"
        }
      ],
      "stateMutability": "view",
      "type": "function"
    },
    {
      "inputs": [],
      "name": "symbol",
      "outputs": [
        {
          "internalType": "string",
          "name": "",
          "type": "string"
        }
      ],
      "stateMutability": "view",
      "type": "function"
    },
    {
      "inputs": [],
      "name": "totalSupply",
      "outputs": [
        {
          "internalType": "uint256",
          "name": "",
          "type": "uint256"
        }
      ],
      "stateMutability": "view",
      "type": "function"
    },
    {
      "inputs": [
        {
          "internalType": "address",
          "name": "recipient",
          "type": "address"
        },
        {
          "internalType": "uint256",
          "name": "amount",
          "type": "uint256"
        }
      ],
      "name": "transfer",
      "outputs": [
        {
          "internalType": "bool",
          "name": "",
          "type": "bool"
        }
      ],
      "stateMutability": "nonpayable",
      "type": "function"
    },
    {
      "inputs": [
        {
          "internalType": "address",
          "name": "sender",
          "type": "address"
        },
        {
          "internalType": "address",
          "name": "recipient",
          "type": "address"
        },
        {
          "internalType": "uint256",
          "name": "amount",
          "type": "uint256"
        }
      ],
      "name": "transferFrom",
      "outputs": [
        {
          "internalType": "bool",
          "name": "",
          "type": "bool"
        }
      ],
      "stateMutability": "nonpayable",
      "type": "function"
    },
    {
      "inputs": [
        {
          "internalType": "address",
          "name": "to",
          "type": "address"
        },
        {
          "internalType": "uint256",
          "name": "amount",
          "type": "uint256"
        }
      ],
      "name": "mint",
      "outputs": [],
      "stateMutability": "nonpayable",
      "type": "function"
    },
    {
      "inputs": [],
      "name": "pause",
      "outputs": [],
      "stateMutability": "nonpayable",
      "type": "function"
    },
    {
      "inputs": [],
      "name": "unpause",
      "outputs": [],
      "stateMutability": "nonpayable",
      "type": "function"
    }
  ],
  "bytecode": "0x60806040523480156200001157600080fd5b506040516200433738038062004337833981810160405281019062000037919062000564565b818181600790805190602001906200005192919062000442565b5080600890805190602001906200006a92919062000442565b5050506000600960006101000a81548160ff021916908315150217905550620000bf6000600102620000aa6200016d640100000000026401000000009004565b62000175640100000000026401000000009004565b620001127f9f2df0fed2c77648de5860a4cc508cd0818c85b8b8a1ab4ceeef8d981c8956a6620000fd6200016d640100000000026401000000009004565b62000175640100000000026401000000009004565b620001657f65d7a28e3265b37a6474929f336521b332c1681b933f6cb9f3376673440d862a620001506200016d640100000000026401000000009004565b62000175640100000000026401000000009004565b505062000708565b600033905090565b620001958282620001cf64010000000002620015dc176401000000009004565b620001ca8160016000858152602001908152602001600020620001ee64010000000002620015ea179091906401000000009004565b505050565b620001ea82826200022f640100000000026401000000009004565b5050565b600062000227836000018373ffffffffffffffffffffffffffffffffffffffff1660010262000332640100000000026401000000009004565b905092915050565b6200024a8282620003b5640100000000026401000000009004565b6200032e57600160008084815260200190815260200160002060000160008373ffffffffffffffffffffffffffffffffffffffff1673ffffffffffffffffffffffffffffffffffffffff16815260200190815260200160002060006101000a81548160ff021916908315150217905550620002d36200016d640100000000026401000000009004565b73ffffffffffffffffffffffffffffffffffffffff168173ffffffffffffffffffffffffffffffffffffffff16837f2f8788117e7eff1d82e926ec794901d17c78024a50270940304540a733656f0d60405160405180910390a45b5050565b60006200034f83836200041f640100000000026401000000009004565b620003aa578260000182908060018154018082558091505060019003906000526020600020016000909190919091505582600001805490508360010160008481526020019081526020016000208190555060019050620003af565b600090505b92915050565b600080600084815260200190815260200160002060000160008373ffffffffffffffffffffffffffffffffffffffff1673ffffffffffffffffffffffffffffffffffffffff16815260200190815260200160002060009054906101000a900460ff16905092915050565b600080836001016000848152602001908152602001600020541415905092915050565b828054620004509062000674565b90600052602060002090601f016020900481019282620004745760008555620004c0565b82601f106200048f57805160ff1916838001178555620004c0565b82800160010185558215620004c0579182015b82811115620004bf578251825591602001919060010190620004a2565b5b509050620004cf9190620004d3565b5090565b5b80821115620004ee576000816000905550600101620004d4565b5090565b60006200050962000503846200060b565b620005d7565b9050828152602081018484840111156200052257600080fd5b6200052f8482856200063e565b509392505050565b600082601f8301126200054957600080fd5b81516200055b848260208601620004f2565b91505092915050565b600080604083850312156200057857600080fd5b600083015167ffffffffffffffff8111156200059357600080fd5b620005a18582860162000537565b925050602083015167ffffffffffffffff811115620005bf57600080fd5b620005cd8582860162000537565b9150509250929050565b6000604051905081810181811067ffffffffffffffff82111715620006015762000600620006d9565b5b8060405250919050565b600067ffffffffffffffff821115620006295762000628620006d9565b5b601f19601f8301169050602081019050919050565b60005b838110156200065e57808201518184015260208101905062000641565b838111156200066e576000848401525b50505050565b600060028204905060018216806200068d57607f821691505b60208210811415620006a457620006a3620006aa565b5b50919050565b7f4e487b7100000000000000000000000000000000000000000000000000000000600052602260045260246000fd5b7f4e487b7100000000000000000000000000000000000000000000000000000000600052604160045260246000fd5b613c1f80620007186000396000f3fe608060405234801561001057600080fd5b5060043610610239576000357c01000000000000000000000000000000000000000000000000000000009004806370a0823111610142578063a457c2d7116100ca578063ca15c87311610099578063ca15c873146106a4578063d5391393146106d4578063d547741f146106f2578063dd62ed3e1461070e578063e63ab1e91461073e57610239565b8063a457c2d7146105f8578063a7fa5e1114610628578063a9059cbb14610644578063c42d355e1461067457610239565b80638456cb59116101115780638456cb59146105525780639010d07c1461055c57806391d148541461058c57806395d89b41146105bc578063a217fddf146105da57610239565b806370a08231146104ce578063746e8e70146104fe57806377df84a41461051a57806379cc67901461053657610239565b806336568abe116101c557806340c10f191161019457806340c10f191461041857806342966c681461043457806346751263146104505780635c975abb146104805780636aade2881461049e57610239565b806336568abe146103a457806339509351146103c05780633f4ba83a146103f0578063407ae7bf146103fa57610239565b806318160ddd1161020c57806318160ddd146102ec57806323b872dd1461030a578063248a9ca31461033a5780632f2ff15d1461036a578063313ce5671461038657610239565b806301f07a3b1461023e57806301ffc9a71461026e57806306fdde031461029e578063095ea7b3146102bc575b600080fd5b61025860048036038101906102539190612bfe565b61075c565b60405161026591906135b4565b60405180910390f35b61028860048036038101906102839190612b70565b610774565b60405161029591906135b4565b60405180910390f35b6102a66107ee565b6040516102b391906135ea565b60405180910390f35b6102d660048036038101906102d19190612a93565b610880565b6040516102e391906135b4565b60405180910390f35b6102f461089e565b60405161030191906138ac565b60405180910390f35b610324600480360381019061031f9190612a44565b6108a8565b60405161033191906135b4565b60405180910390f35b610354600480360381019061034f9190612acf565b6109a0565b60405161036191906135cf565b60405180910390f35b610384600480360381019061037f9190612af8565b6109bf565b005b61038e6109f3565b60405161039b91906138c7565b60405180910390f35b6103be60048036038101906103b99190612af8565b6109fc565b005b6103da60048036038101906103d59190612a93565b610a30565b6040516103e791906135b4565b60405180910390f35b6103f8610adc565b005b610402610b56565b60405161040f9190613599565b60405180910390f35b610432600480360381019061042d9190612a93565b610b80565b005b61044e60048036038101906104499190612b99565b610bfe565b005b61046a60048036038101906104659190612b99565b610c12565b6040516104779190613599565b60405180910390f35b610488610c4f565b60405161049591906135b4565b60405180910390f35b6104b860048036038101906104b39190612a93565b610c66565b6040516104c591906135b4565b60405180910390f35b6104e860048036038101906104e391906129df565b610c7e565b6040516104f591906138ac565b60405180910390f35b61051860048036038101906105139190612bc2565b610cc7565b005b610534600480360381019061052f9190612b99565b610dad565b005b610550600480360381019061054b9190612a93565b610e87565b005b61055a610f02565b005b61057660048036038101906105719190612b34565b610f7c565b6040516105839190613599565b60405180910390f35b6105a660048036038101906105a19190612af8565b610fab565b6040516105b391906135b4565b60405180910390f35b6105c4611015565b6040516105d191906135ea565b60405180910390f35b6105e26110a7565b6040516105ef91906135cf565b60405180910390f35b610612600480360381019061060d9190612a93565b6110af565b60405161061f91906135b4565b60405180910390f35b610642600480360381019061063d91906129df565b61119a565b005b61065e60048036038101906106599190612a93565b6111de565b60405161066b91906135b4565b60405180910390f35b61068e60048036038101906106899190612c4d565b6111fc565b60405161069b91906135b4565b60405180910390f35b6106be60048036038101906106b99190612acf565b6114b5565b6040516106cb91906138ac565b60405180910390f35b6106dc6114d9565b6040516106e991906135cf565b60405180910390f35b61070c60048036038101906107079190612af8565b6114fd565b005b61072860048036038101906107239190612a08565b611531565b60405161073591906138ac565b60405180910390f35b6107466115b8565b60405161075391906135cf565b60405180910390f35b600061076b84848460006111fc565b90509392505050565b60007f5a05180f000000000000000000000000000000000000000000000000000000007bffffffffffffffffffffffffffffffffffffffffffffffffffffffff1916827bffffffffffffffffffffffffffffffffffffffffffffffffffffffff191614806107e757506107e68261161a565b5b9050919050565b6060600780546107fd90613ad5565b80601f016020809104026020016040519081016040528092919081815260200182805461082990613ad5565b80156108765780601f1061084b57610100808354040283529160200191610876565b820191906000526020600020905b81548152906001019060200180831161085957829003601f168201915b5050505050905090565b600061089461088d611694565b848461169c565b6001905092915050565b6000600454905090565b60006108b5848484611867565b6000600360008673ffffffffffffffffffffffffffffffffffffffff1673ffffffffffffffffffffffffffffffffffffffff1681526020019081526020016000206000610900611694565b73ffffffffffffffffffffffffffffffffffffffff1673ffffffffffffffffffffffffffffffffffffffff16815260200190815260200160002054905082811015610980576040517f08c379a00000000000000000000000000000000000000000000000000000000081526004016109779061372c565b60405180910390fd5b6109948561098c611694565b85840361169c565b60019150509392505050565b6000806000838152602001908152602001600020600101549050919050565b6109c98282611aeb565b6109ee81600160008581526020019081526020016000206115ea90919063ffffffff16565b505050565b60006012905090565b610a068282611b14565b610a2b8160016000858152602001908152602001600020611b9790919063ffffffff16565b505050565b6000610ad2610a3d611694565b848460036000610a4b611694565b73ffffffffffffffffffffffffffffffffffffffff1673ffffffffffffffffffffffffffffffffffffffff16815260200190815260200160002060008873ffffffffffffffffffffffffffffffffffffffff1673ffffffffffffffffffffffffffffffffffffffff16815260200190815260200160002054610acd9190613909565b61169c565b6001905092915050565b610b0d7f65d7a28e3265b37a6474929f336521b332c1681b933f6cb9f3376673440d862a610b08611694565b610fab565b610b4c576040517f08c379a0000000000000000000000000000000000000000000000000000000008152600401610b439061368c565b60405180910390fd5b610b54611bc7565b565b6000600560009054906101000a900473ffffffffffffffffffffffffffffffffffffffff16905090565b610bb17f9f2df0fed2c77648de5860a4cc508cd0818c85b8b8a1ab4ceeef8d981c8956a6610bac611694565b610fab565b610bf0576040517f08c379a0000000000000000000000000000000000000000000000000000000008152600401610be79061374c565b60405180910390fd5b610bfa8282611c69565b5050565b610c0f610c09611694565b82611dca565b50565b60006006600083815260200190815260200160002060009054906101000a900473ffffffffffffffffffffffffffffffffffffffff169050919050565b6000600960009054906101000a900460ff16905090565b6000610c766000848460016111fc565b905092915050565b6000600260008373ffffffffffffffffffffffffffffffffffffffff1673ffffffffffffffffffffffffffffffffffffffff168152602001908152602001600020549050919050565b600560009054906101000a900473ffffffffffffffffffffffffffffffffffffffff1673ffffffffffffffffffffffffffffffffffffffff163373ffffffffffffffffffffffffffffffffffffffff1614610d57576040517f08c379a0000000000000000000000000000000000000000000000000000000008152600401610d4e9061370c565b60405180910390fd5b806006600084815260200190815260200160002060006101000a81548173ffffffffffffffffffffffffffffffffffffffff021916908373ffffffffffffffffffffffffffffffffffffffff1602179055505050565b6006600082815260200190815260200160002060009054906101000a900473ffffffffffffffffffffffffffffffffffffffff1673ffffffffffffffffffffffffffffffffffffffff163373ffffffffffffffffffffffffffffffffffffffff1614610e4e576040517f08c379a0000000000000000000000000000000000000000000000000000000008152600401610e459061380c565b60405180910390fd5b6006600082815260200190815260200160002060006101000a81549073ffffffffffffffffffffffffffffffffffffffff021916905550565b6000610e9a83610e95611694565b611531565b905081811015610edf576040517f08c379a0000000000000000000000000000000000000000000000000000000008152600401610ed69061376c565b60405180910390fd5b610ef383610eeb611694565b84840361169c565b610efd8383611dca565b505050565b610f337f65d7a28e3265b37a6474929f336521b332c1681b933f6cb9f3376673440d862a610f2e611694565b610fab565b610f72576040517f08c379a0000000000000000000000000000000000000000000000000000000008152600401610f69906137ec565b60405180910390fd5b610f7a611fa3565b565b6000610fa3826001600086815260200190815260200160002061204690919063ffffffff16565b905092915050565b600080600084815260200190815260200160002060000160008373ffffffffffffffffffffffffffffffffffffffff1673ffffffffffffffffffffffffffffffffffffffff16815260200190815260200160002060009054906101000a900460ff16905092915050565b60606008805461102490613ad5565b80601f016020809104026020016040519081016040528092919081815260200182805461105090613ad5565b801561109d5780601f106110725761010080835404028352916020019161109d565b820191906000526020600020905b81548152906001019060200180831161108057829003601f168201915b5050505050905090565b600060010281565b600080600360006110be611694565b73ffffffffffffffffffffffffffffffffffffffff1673ffffffffffffffffffffffffffffffffffffffff16815260200190815260200160002060008573ffffffffffffffffffffffffffffffffffffffff1673ffffffffffffffffffffffffffffffffffffffff1681526020019081526020016000205490508281101561117b576040517f08c379a00000000000000000000000000000000000000000000000000000000081526004016111729061382c565b60405180910390fd5b61118f611186611694565b8585840361169c565b600191505092915050565b80600560006101000a81548173ffffffffffffffffffffffffffffffffffffffff021916908373ffffffffffffffffffffffffffffffffffffffff16021790555050565b60006111f26111eb611694565b8484611867565b6001905092915050565b6000600454831061120c57600080fd5b82600260008673ffffffffffffffffffffffffffffffffffffffff1673ffffffffffffffffffffffffffffffffffffffff168152602001908152602001600020541161125757600080fd5b81156112bc57600560009054906101000a900473ffffffffffffffffffffffffffffffffffffffff1673ffffffffffffffffffffffffffffffffffffffff163373ffffffffffffffffffffffffffffffffffffffff16146112b757600080fd5b611328565b6006600086815260200190815260200160002060009054906101000a900473ffffffffffffffffffffffffffffffffffffffff1673ffffffffffffffffffffffffffffffffffffffff163373ffffffffffffffffffffffffffffffffffffffff161461132757600080fd5b5b82600260008673ffffffffffffffffffffffffffffffffffffffff1673ffffffffffffffffffffffffffffffffffffffff1681526020019081526020016000205461137391906139b9565b600260008673ffffffffffffffffffffffffffffffffffffffff1673ffffffffffffffffffffffffffffffffffffffff1681526020019081526020016000208190555082600260003373ffffffffffffffffffffffffffffffffffffffff1673ffffffffffffffffffffffffffffffffffffffff168152602001908152602001600020546114019190613909565b600260003373ffffffffffffffffffffffffffffffffffffffff1673ffffffffffffffffffffffffffffffffffffffff168152602001908152602001600020819055503373ffffffffffffffffffffffffffffffffffffffff168473ffffffffffffffffffffffffffffffffffffffff167fddf252ad1be2c89b69c2b068fc378daa952ba7f163c4a11628f55a4df523b3ef856040516114a191906138ac565b60405180910390a360019050949350505050565b60006114d260016000848152602001908152602001600020612061565b9050919050565b7f9f2df0fed2c77648de5860a4cc508cd0818c85b8b8a1ab4ceeef8d981c8956a681565b6115078282612076565b61152c8160016000858152602001908152602001600020611b9790919063ffffffff16565b505050565b6000600360008473ffffffffffffffffffffffffffffffffffffffff1673ffffffffffffffffffffffffffffffffffffffff16815260200190815260200160002060008373ffffffffffffffffffffffffffffffffffffffff1673ffffffffffffffffffffffffffffffffffffffff16815260200190815260200160002054905092915050565b7f65d7a28e3265b37a6474929f336521b332c1681b933f6cb9f3376673440d862a81565b6115e6828261209f565b5050565b6000611612836000018373ffffffffffffffffffffffffffffffffffffffff1660010261217f565b905092915050565b60007f7965db0b000000000000000000000000000000000000000000000000000000007bffffffffffffffffffffffffffffffffffffffffffffffffffffffff1916827bffffffffffffffffffffffffffffffffffffffffffffffffffffffff1916148061168d575061168c826121ef565b5b9050919050565b600033905090565b600073ffffffffffffffffffffffffffffffffffffffff168373ffffffffffffffffffffffffffffffffffffffff16141561170c576040517f08c379a0000000000000000000000000000000000000000000000000000000008152600401611703906137cc565b60405180910390fd5b600073ffffffffffffffffffffffffffffffffffffffff168273ffffffffffffffffffffffffffffffffffffffff16141561177c576040517f08c379a0000000000000000000000000000000000000000000000000000000008152600401611773906136ac565b60405180910390fd5b80600360008573ffffffffffffffffffffffffffffffffffffffff1673ffffffffffffffffffffffffffffffffffffffff16815260200190815260200160002060008473ffffffffffffffffffffffffffffffffffffffff1673ffffffffffffffffffffffffffffffffffffffff168152602001908152602001600020819055508173ffffffffffffffffffffffffffffffffffffffff168373ffffffffffffffffffffffffffffffffffffffff167f8c5be1e5ebec7d5bd14f71427d1e84f3dd0314c0f7b2291e5b200ac8c7c3b9258360405161185a91906138ac565b60405180910390a3505050565b600073ffffffffffffffffffffffffffffffffffffffff168373ffffffffffffffffffffffffffffffffffffffff1614156118d7576040517f08c379a00000000000000000000000000000000000000000000000000000000081526004016118ce906137ac565b60405180910390fd5b600073ffffffffffffffffffffffffffffffffffffffff168273ffffffffffffffffffffffffffffffffffffffff161415611947576040517f08c379a000000000000000000000000000000000000000000000000000000000815260040161193e9061362c565b60405180910390fd5b611952838383612259565b6000600260008573ffffffffffffffffffffffffffffffffffffffff1673ffffffffffffffffffffffffffffffffffffffff168152602001908152602001600020549050818110156119d9576040517f08c379a00000000000000000000000000000000000000000000000000000000081526004016119d0906136cc565b60405180910390fd5b818103600260008673ffffffffffffffffffffffffffffffffffffffff1673ffffffffffffffffffffffffffffffffffffffff1681526020019081526020016000208190555081600260008573ffffffffffffffffffffffffffffffffffffffff1673ffffffffffffffffffffffffffffffffffffffff1681526020019081526020016000206000828254611a6e9190613909565b925050819055508273ffffffffffffffffffffffffffffffffffffffff168473ffffffffffffffffffffffffffffffffffffffff167fddf252ad1be2c89b69c2b068fc378daa952ba7f163c4a11628f55a4df523b3ef84604051611ad291906138ac565b60405180910390a3611ae5848484612269565b50505050565b611af4826109a0565b611b0581611b00611694565b61226e565b611b0f838361209f565b505050565b611b1c611694565b73ffffffffffffffffffffffffffffffffffffffff168173ffffffffffffffffffffffffffffffffffffffff1614611b89576040517f08c379a0000000000000000000000000000000000000000000000000000000008152600401611b809061384c565b60405180910390fd5b611b93828261230c565b5050565b6000611bbf836000018373ffffffffffffffffffffffffffffffffffffffff166001026123ed565b905092915050565b611bcf610c4f565b611c0e576040517f08c379a0000000000000000000000000000000000000000000000000000000008152600401611c059061364c565b60405180910390fd5b6000600960006101000a81548160ff0219169083151502179055507f5db9ee0a495bf2e6ff9c91a7834c1ba4fdd244a5e8aa4e537bd38aeae4b073aa611c52611694565b604051611c5f9190613599565b60405180910390a1565b600073ffffffffffffffffffffffffffffffffffffffff168273ffffffffffffffffffffffffffffffffffffffff161415611cd9576040517f08c379a0000000000000000000000000000000000000000000000000000000008152600401611cd09061386c565b60405180910390fd5b611ce560008383612259565b8060046000828254611cf79190613909565b9250508190555080600260008473ffffffffffffffffffffffffffffffffffffffff1673ffffffffffffffffffffffffffffffffffffffff1681526020019081526020016000206000828254611d4d9190613909565b925050819055508173ffffffffffffffffffffffffffffffffffffffff16600073ffffffffffffffffffffffffffffffffffffffff167fddf252ad1be2c89b69c2b068fc378daa952ba7f163c4a11628f55a4df523b3ef83604051611db291906138ac565b60405180910390a3611dc660008383612269565b5050565b600073ffffffffffffffffffffffffffffffffffffffff168273ffffffffffffffffffffffffffffffffffffffff161415611e3a576040517f08c379a0000000000000000000000000000000000000000000000000000000008152600401611e319061378c565b60405180910390fd5b611e4682600083612259565b6000600260008473ffffffffffffffffffffffffffffffffffffffff1673ffffffffffffffffffffffffffffffffffffffff16815260200190815260200160002054905081811015611ecd576040517f08c379a0000000000000000000000000000000000000000000000000000000008152600401611ec49061366c565b60405180910390fd5b818103600260008573ffffffffffffffffffffffffffffffffffffffff1673ffffffffffffffffffffffffffffffffffffffff168152602001908152602001600020819055508160046000828254611f2591906139b9565b92505081905550600073ffffffffffffffffffffffffffffffffffffffff168373ffffffffffffffffffffffffffffffffffffffff167fddf252ad1be2c89b69c2b068fc378daa952ba7f163c4a11628f55a4df523b3ef84604051611f8a91906138ac565b60405180910390a3611f9e83600084612269565b505050565b611fab610c4f565b15611feb576040517f08c379a0000000000000000000000000000000000000000000000000000000008152600401611fe2906136ec565b60405180910390fd5b6001600960006101000a81548160ff0219169083151502179055507f62e78cea01bee320cd4e420270b5ea74000d11b0c9f74754ebdbfc544b05a25861202f611694565b60405161203c9190613599565b60405180910390a1565b60006120558360000183612573565b60019004905092915050565b600061206f826000016125c4565b9050919050565b61207f826109a0565b6120908161208b611694565b61226e565b61209a838361230c565b505050565b6120a98282610fab565b61217b57600160008084815260200190815260200160002060000160008373ffffffffffffffffffffffffffffffffffffffff1673ffffffffffffffffffffffffffffffffffffffff16815260200190815260200160002060006101000a81548160ff021916908315150217905550612120611694565b73ffffffffffffffffffffffffffffffffffffffff168173ffffffffffffffffffffffffffffffffffffffff16837f2f8788117e7eff1d82e926ec794901d17c78024a50270940304540a733656f0d60405160405180910390a45b5050565b600061218b83836125d5565b6121e45782600001829080600181540180825580915050600190039060005260206000200160009091909190915055826000018054905083600101600084815260200190815260200160002081905550600190506121e9565b600090505b92915050565b60007f01ffc9a7000000000000000000000000000000000000000000000000000000007bffffffffffffffffffffffffffffffffffffffffffffffffffffffff1916827bffffffffffffffffffffffffffffffffffffffffffffffffffffffff1916149050919050565b6122648383836125f8565b505050565b505050565b6122788282610fab565b6123085761229d8173ffffffffffffffffffffffffffffffffffffffff166014612650565b6122ac83600190046020612650565b6040516020016122bd92919061355f565b6040516020818303038152906040526040517f08c379a00000000000000000000000000000000000000000000000000000000081526004016122ff91906135ea565b60405180910390fd5b5050565b6123168282610fab565b156123e957600080600084815260200190815260200160002060000160008373ffffffffffffffffffffffffffffffffffffffff1673ffffffffffffffffffffffffffffffffffffffff16815260200190815260200160002060006101000a81548160ff02191690831515021790555061238e611694565b73ffffffffffffffffffffffffffffffffffffffff168173ffffffffffffffffffffffffffffffffffffffff16837ff6391f5c32d9c69d2a47ea670b442974b53935d1edc7fd64eb21e047a839171b60405160405180910390a45b5050565b6000808360010160008481526020019081526020016000205490506000811461256757600060018261241f91906139b9565b905060006001866000018054905061243791906139b9565b90508181146124f257600086600001828154811061247e577f4e487b7100000000000000000000000000000000000000000000000000000000600052603260045260246000fd5b90600052602060002001549050808760000184815481106124c8577f4e487b7100000000000000000000000000000000000000000000000000000000600052603260045260246000fd5b90600052602060002001819055508387600101600083815260200190815260200160002081905550505b8560000180548061252c577f4e487b7100000000000000000000000000000000000000000000000000000000600052603160045260246000fd5b60019003818190600052602060002001600090559055856001016000868152602001908152602001600020600090556001935050505061256d565b60009150505b92915050565b60008260000182815481106125b1577f4e487b7100000000000000000000000000000000000000000000000000000000600052603260045260246000fd5b9060005260206000200154905092915050565b600081600001805490509050919050565b600080836001016000848152602001908152602001600020541415905092915050565b612603838383612971565b61260b610c4f565b1561264b576040517f08c379a00000000000000000000000000000000000000000000000000000000081526004016126429061388c565b60405180910390fd5b505050565b606060006002836002612663919061395f565b61266d9190613909565b67ffffffffffffffff8111156126ac577f4e487b7100000000000000000000000000000000000000000000000000000000600052604160045260246000fd5b6040519080825280601f01601f1916602001820160405280156126de5781602001600182028036833780820191505090505b5090507f30000000000000000000000000000000000000000000000000000000000000008160008151811061273c577f4e487b7100000000000000000000000000000000000000000000000000000000600052603260045260246000fd5b60200101907effffffffffffffffffffffffffffffffffffffffffffffffffffffffffffff1916908160001a9053507f7800000000000000000000000000000000000000000000000000000000000000816001815181106127c6577f4e487b7100000000000000000000000000000000000000000000000000000000600052603260045260246000fd5b60200101907effffffffffffffffffffffffffffffffffffffffffffffffffffffffffffff1916908160001a90535060006001846002612806919061395f565b6128109190613909565b90505b6001811115612923577f3031323334353637383961626364656600000000000000000000000000000000600f861660108110612878577f4e487b7100000000000000000000000000000000000000000000000000000000600052603260045260246000fd5b1a7f0100000000000000000000000000000000000000000000000000000000000000028282815181106128d4577f4e487b7100000000000000000000000000000000000000000000000000000000600052603260045260246000fd5b60200101907effffffffffffffffffffffffffffffffffffffffffffffffffffffffffffff1916908160001a905350600485908060020a820491505094508061291c90613aab565b9050612813565b5060008414612967576040517f08c379a000000000000000000000000000000000000000000000000000000000815260040161295e9061360c565b60405180910390fd5b8091505092915050565b505050565b60008135905061298581613b76565b92915050565b60008135905061299a81613b8d565b92915050565b6000813590506129af81613ba4565b92915050565b6000813590506129c481613bbb565b92915050565b6000813590506129d981613bd2565b92915050565b6000602082840312156129f157600080fd5b60006129ff84828501612976565b91505092915050565b60008060408385031215612a1b57600080fd5b6000612a2985828601612976565b9250506020612a3a85828601612976565b9150509250929050565b600080600060608486031215612a5957600080fd5b6000612a6786828701612976565b9350506020612a7886828701612976565b9250506040612a89868287016129ca565b9150509250925092565b60008060408385031215612aa657600080fd5b6000612ab485828601612976565b9250506020612ac5858286016129ca565b9150509250929050565b600060208284031215612ae157600080fd5b6000612aef848285016129a0565b91505092915050565b60008060408385031215612b0b57600080fd5b6000612b19858286016129a0565b9250506020612b2a85828601612976565b9150509250929050565b60008060408385031215612b4757600080fd5b6000612b55858286016129a0565b9250506020612b66858286016129ca565b9150509250929050565b600060208284031215612b8257600080fd5b6000612b90848285016129b5565b91505092915050565b600060208284031215612bab57600080fd5b6000612bb9848285016129ca565b91505092915050565b60008060408385031215612bd557600080fd5b6000612be3858286016129ca565b9250506020612bf485828601612976565b9150509250929050565b600080600060608486031215612c1357600080fd5b6000612c21868287016129ca565b9350506020612c3286828701612976565b9250506040612c43868287016129ca565b9150509250925092565b60008060008060808587031215612c6357600080fd5b6000612c71878288016129ca565b9450506020612c8287828801612976565b9350506040612c93878288016129ca565b9250506060612ca48782880161298b565b91505092959194509250565b612cb9816139ed565b82525050565b612cc8816139ff565b82525050565b612cd781613a0b565b82525050565b6000612ce8826138e2565b612cf281856138ed565b9350612d02818560208601613a78565b612d0b81613b65565b840191505092915050565b6000612d21826138e2565b612d2b81856138fe565b9350612d3b818560208601613a78565b80840191505092915050565b6000612d546020836138ed565b91507f537472696e67733a20686578206c656e67746820696e73756666696369656e746000830152602082019050919050565b6000612d946023836138ed565b91507f45524332303a207472616e7366657220746f20746865207a65726f206164647260008301527f65737300000000000000000000000000000000000000000000000000000000006020830152604082019050919050565b6000612dfa6014836138ed565b91507f5061757361626c653a206e6f74207061757365640000000000000000000000006000830152602082019050919050565b6000612e3a6022836138ed565b91507f45524332303a206275726e20616d6f756e7420657863656564732062616c616e60008301527f63650000000000000000000000000000000000000000000000000000000000006020830152604082019050919050565b6000612ea06039836138ed565b91507f45524332305072657365744d696e7465725061757365723a206d75737420686160008301527f76652070617573657220726f6c6520746f20756e7061757365000000000000006020830152604082019050919050565b6000612f066022836138ed565b91507f45524332303a20617070726f766520746f20746865207a65726f20616464726560008301527f73730000000000000000000000000000000000000000000000000000000000006020830152604082019050919050565b6000612f6c6026836138ed565b91507f45524332303a207472616e7366657220616d6f756e742065786365656473206260008301527f616c616e636500000000000000000000000000000000000000000000000000006020830152604082019050919050565b6000612fd26010836138ed565b91507f5061757361626c653a20706175736564000000000000000000000000000000006000830152602082019050919050565b60006130126018836138ed565b91507f63616e206f6e6c792063616c6c65642066726f6d204e465400000000000000006000830152602082019050919050565b60006130526028836138ed565b91507f45524332303a207472616e7366657220616d6f756e742065786365656473206160008301527f6c6c6f77616e63650000000000000000000000000000000000000000000000006020830152604082019050919050565b60006130b86036836138ed565b91507f45524332305072657365744d696e7465725061757365723a206d75737420686160008301527f7665206d696e74657220726f6c6520746f206d696e74000000000000000000006020830152604082019050919050565b600061311e6024836138ed565b91507f45524332303a206275726e20616d6f756e74206578636565647320616c6c6f7760008301527f616e6365000000000000000000000000000000000000000000000000000000006020830152604082019050919050565b60006131846021836138ed565b91507f45524332303a206275726e2066726f6d20746865207a65726f2061646472657360008301527f73000000000000000000000000000000000000000000000000000000000000006020830152604082019050919050565b60006131ea6025836138ed565b91507f45524332303a207472616e736665722066726f6d20746865207a65726f20616460008301527f64726573730000000000000000000000000000000000000000000000000000006020830152604082019050919050565b60006132506024836138ed565b91507f45524332303a20617070726f76652066726f6d20746865207a65726f2061646460008301527f72657373000000000000000000000000000000000000000000000000000000006020830152604082019050919050565b60006132b66037836138ed565b91507f45524332305072657365744d696e7465725061757365723a206d75737420686160008301527f76652070617573657220726f6c6520746f2070617573650000000000000000006020830152604082019050919050565b600061331c6017836138fe565b91507f416363657373436f6e74726f6c3a206163636f756e74200000000000000000006000830152601782019050919050565b600061335c601c836138ed565b91507f63616e206f6e6c792063616c6c65642066726f6d2041756374696f6e000000006000830152602082019050919050565b600061339c6025836138ed565b91507f45524332303a2064656372656173656420616c6c6f77616e63652062656c6f7760008301527f207a65726f0000000000000000000000000000000000000000000000000000006020830152604082019050919050565b60006134026011836138fe565b91507f206973206d697373696e6720726f6c65200000000000000000000000000000006000830152601182019050919050565b6000613442602f836138ed565b91507f416363657373436f6e74726f6c3a2063616e206f6e6c792072656e6f756e636560008301527f20726f6c657320666f722073656c6600000000000000000000000000000000006020830152604082019050919050565b60006134a8601f836138ed565b91507f45524332303a206d696e7420746f20746865207a65726f2061646472657373006000830152602082019050919050565b60006134e8602a836138ed565b91507f45524332305061757361626c653a20746f6b656e207472616e7366657220776860008301527f696c6520706175736564000000000000000000000000000000000000000000006020830152604082019050919050565b61354a81613a61565b82525050565b61355981613a6b565b82525050565b600061356a8261330f565b91506135768285612d16565b9150613581826133f5565b915061358d8284612d16565b91508190509392505050565b60006020820190506135ae6000830184612cb0565b92915050565b60006020820190506135c96000830184612cbf565b92915050565b60006020820190506135e46000830184612cce565b92915050565b600060208201905081810360008301526136048184612cdd565b905092915050565b6000602082019050818103600083015261362581612d47565b9050919050565b6000602082019050818103600083015261364581612d87565b9050919050565b6000602082019050818103600083015261366581612ded565b9050919050565b6000602082019050818103600083015261368581612e2d565b9050919050565b600060208201905081810360008301526136a581612e93565b9050919050565b600060208201905081810360008301526136c581612ef9565b9050919050565b600060208201905081810360008301526136e581612f5f565b9050919050565b6000602082019050818103600083015261370581612fc5565b9050919050565b6000602082019050818103600083015261372581613005565b9050919050565b6000602082019050818103600083015261374581613045565b9050919050565b60006020820190508181036000830152613765816130ab565b9050919050565b6000602082019050818103600083015261378581613111565b9050919050565b600060208201905081810360008301526137a581613177565b9050919050565b600060208201905081810360008301526137c5816131dd565b9050919050565b600060208201905081810360008301526137e581613243565b9050919050565b60006020820190508181036000830152613805816132a9565b9050919050565b600060208201905081810360008301526138258161334f565b9050919050565b600060208201905081810360008301526138458161338f565b9050919050565b6000602082019050818103600083015261386581613435565b9050919050565b600060208201905081810360008301526138858161349b565b9050919050565b600060208201905081810360008301526138a5816134db565b9050919050565b60006020820190506138c16000830184613541565b92915050565b60006020820190506138dc6000830184613550565b92915050565b600081519050919050565b600082825260208201905092915050565b600081905092915050565b600061391482613a61565b915061391f83613a61565b9250827fffffffffffffffffffffffffffffffffffffffffffffffffffffffffffffffff0382111561395457613953613b07565b5b828201905092915050565b600061396a82613a61565b915061397583613a61565b9250817fffffffffffffffffffffffffffffffffffffffffffffffffffffffffffffffff04831182151516156139ae576139ad613b07565b5b828202905092915050565b60006139c482613a61565b91506139cf83613a61565b9250828210156139e2576139e1613b07565b5b828203905092915050565b60006139f882613a41565b9050919050565b60008115159050919050565b6000819050919050565b60007fffffffff0000000000000000000000000000000000000000000000000000000082169050919050565b600073ffffffffffffffffffffffffffffffffffffffff82169050919050565b6000819050919050565b600060ff82169050919050565b60005b83811015613a96578082015181840152602081019050613a7b565b83811115613aa5576000848401525b50505050565b6000613ab682613a61565b91506000821415613aca57613ac9613b07565b5b600182039050919050565b60006002820490506001821680613aed57607f821691505b60208210811415613b0157613b00613b36565b5b50919050565b7f4e487b7100000000000000000000000000000000000000000000000000000000600052601160045260246000fd5b7f4e487b7100000000000000000000000000000000000000000000000000000000600052602260045260246000fd5b6000601f19601f8301169050919050565b613b7f816139ed565b8114613b8a57600080fd5b50565b613b96816139ff565b8114613ba157600080fd5b50565b613bad81613a0b565b8114613bb857600080fd5b50565b613bc481613a15565b8114613bcf57600080fd5b50565b613bdb81613a61565b8114613be657600080fd5b5056fea26469706673582212207fcd70c78177266f03990191210944e44c04709f17bdabfa46d23121db5edebe64736f6c63430008000033",
  "immutableReferences": {},
  "source": "// SPDX-License-Identifier: MIT\n\npragma solidity ^0.8.0;\n\nimport \"../ERC20.sol\";\nimport \"../extensions/ERC20Burnable.sol\";\nimport \"../extensions/ERC20Pausable.sol\";\nimport \"../../access/AccessControlEnumerable.sol\";\nimport \"../../utils/Context.sol\";\n\n/**\n * @dev {ERC20} token, including:\n *\n *  - ability for holders to burn (destroy) their tokens\n *  - a minter role that allows for token minting (creation)\n *  - a pauser role that allows to stop all token transfers\n *\n * This contract uses {AccessControl} to lock permissioned functions using the\n * different roles - head to its documentation for details.\n *\n * The account that deploys the contract will be granted the minter and pauser\n * roles, as well as the default admin role, which will let it grant both minter\n * and pauser roles to other accounts.\n */\ncontract ERC20PresetMinterPauser is Context, AccessControlEnumerable, ERC20Burnable, ERC20Pausable {\n    bytes32 public constant MINTER_ROLE = keccak256(\"MINTER_ROLE\");\n    bytes32 public constant PAUSER_ROLE = keccak256(\"PAUSER_ROLE\");\n\n    /**\n     * @dev Grants `DEFAULT_ADMIN_ROLE`, `MINTER_ROLE` and `PAUSER_ROLE` to the\n     * account that deploys the contract.\n     *\n     * See {ERC20-constructor}.\n     */\n    constructor(string memory name, string memory symbol) ERC20(name, symbol) {\n        _setupRole(DEFAULT_ADMIN_ROLE, _msgSender());\n\n        _setupRole(MINTER_ROLE, _msgSender());\n        _setupRole(PAUSER_ROLE, _msgSender());\n    }\n\n    /**\n     * @dev Creates `amount` new tokens for `to`.\n     *\n     * See {ERC20-_mint}.\n     *\n     * Requirements:\n     *\n     * - the caller must have the `MINTER_ROLE`.\n     */\n    function mint(address to, uint256 amount) public virtual {\n        require(hasRole(MINTER_ROLE, _msgSender()), \"ERC20PresetMinterPauser: must have minter role to mint\");\n        _mint(to, amount);\n    }\n\n    /**\n     * @dev Pauses all token transfers.\n     *\n     * See {ERC20Pausable} and {Pausable-_pause}.\n     *\n     * Requirements:\n     *\n     * - the caller must have the `PAUSER_ROLE`.\n     */\n    function pause() public virtual {\n        require(hasRole(PAUSER_ROLE, _msgSender()), \"ERC20PresetMinterPauser: must have pauser role to pause\");\n        _pause();\n    }\n\n    /**\n     * @dev Unpauses all token transfers.\n     *\n     * See {ERC20Pausable} and {Pausable-_unpause}.\n     *\n     * Requirements:\n     *\n     * - the caller must have the `PAUSER_ROLE`.\n     */\n    function unpause() public virtual {\n        require(hasRole(PAUSER_ROLE, _msgSender()), \"ERC20PresetMinterPauser: must have pauser role to unpause\");\n        _unpause();\n    }\n\n    function _beforeTokenTransfer(\n        address from,\n        address to,\n        uint256 amount\n    ) internal virtual override(ERC20, ERC20Pausable) {\n        super._beforeTokenTransfer(from, to, amount);\n    }\n}",
  "sourcePath": "/Volumes/Transcend/Projects/DappsLab/Lottery-Smart-Contract/contracts/customERC20ERC721/ERC20/presets/ERC20PresetMinterPauser.sol",
  "compiler": {
    "name": "solc",
    "version": "0.8.0+commit.c7dfd78e.Emscripten.clang"
  },
  "schemaVersion": "3.4.2",
  "updatedAt": "2021-07-27T08:00:18.694Z",
  "devdoc": {
    "details": "{ERC20} token, including:  - ability for holders to burn (destroy) their tokens  - a minter role that allows for token minting (creation)  - a pauser role that allows to stop all token transfers This contract uses {AccessControl} to lock permissioned functions using the different roles - head to its documentation for details. The account that deploys the contract will be granted the minter and pauser roles, as well as the default admin role, which will let it grant both minter and pauser roles to other accounts.",
    "kind": "dev",
    "methods": {
      "allowance(address,address)": {
        "details": "See {IERC20-allowance}."
      },
      "approve(address,uint256)": {
        "details": "See {IERC20-approve}. Requirements: - `spender` cannot be the zero address."
      },
      "balanceOf(address)": {
        "details": "See {IERC20-balanceOf}."
      },
      "burn(uint256)": {
        "details": "Destroys `amount` tokens from the caller. See {ERC20-_burn}."
      },
      "burnFrom(address,uint256)": {
        "details": "Destroys `amount` tokens from `account`, deducting from the caller's allowance. See {ERC20-_burn} and {ERC20-allowance}. Requirements: - the caller must have allowance for ``accounts``'s tokens of at least `amount`."
      },
      "constructor": {
        "details": "Grants `DEFAULT_ADMIN_ROLE`, `MINTER_ROLE` and `PAUSER_ROLE` to the account that deploys the contract. See {ERC20-constructor}."
      },
      "decimals()": {
        "details": "Returns the number of decimals used to get its user representation. For example, if `decimals` equals `2`, a balance of `505` tokens should be displayed to a user as `5,05` (`505 / 10 ** 2`). Tokens usually opt for a value of 18, imitating the relationship between Ether and Wei. This is the value {ERC20} uses, unless this function is overridden; NOTE: This information is only used for _display_ purposes: it in no way affects any of the arithmetic of the contract, including {IERC20-balanceOf} and {IERC20-transfer}."
      },
      "decreaseAllowance(address,uint256)": {
        "details": "Atomically decreases the allowance granted to `spender` by the caller. This is an alternative to {approve} that can be used as a mitigation for problems described in {IERC20-approve}. Emits an {Approval} event indicating the updated allowance. Requirements: - `spender` cannot be the zero address. - `spender` must have allowance for the caller of at least `subtractedValue`."
      },
      "getNFTRegistery()": {
        "details": "Returns the NFTRegistery of the token."
      },
      "getRoleAdmin(bytes32)": {
        "details": "Returns the admin role that controls `role`. See {grantRole} and {revokeRole}. To change a role's admin, use {_setRoleAdmin}."
      },
      "getRoleMember(bytes32,uint256)": {
        "details": "Returns one of the accounts that have `role`. `index` must be a value between 0 and {getRoleMemberCount}, non-inclusive. Role bearers are not sorted in any particular way, and their ordering may change at any point. WARNING: When using {getRoleMember} and {getRoleMemberCount}, make sure you perform all queries on the same block. See the following https://forum.openzeppelin.com/t/iterating-over-elements-on-enumerableset-in-openzeppelin-contracts/2296[forum post] for more information."
      },
      "getRoleMemberCount(bytes32)": {
        "details": "Returns the number of accounts that have `role`. Can be used together with {getRoleMember} to enumerate all bearers of a role."
      },
      "grantRole(bytes32,address)": {
        "details": "Overload {grantRole} to track enumerable memberships"
      },
      "hasRole(bytes32,address)": {
        "details": "Returns `true` if `account` has been granted `role`."
      },
      "increaseAllowance(address,uint256)": {
        "details": "Atomically increases the allowance granted to `spender` by the caller. This is an alternative to {approve} that can be used as a mitigation for problems described in {IERC20-approve}. Emits an {Approval} event indicating the updated allowance. Requirements: - `spender` cannot be the zero address."
      },
      "mint(address,uint256)": {
        "details": "Creates `amount` new tokens for `to`. See {ERC20-_mint}. Requirements: - the caller must have the `MINTER_ROLE`."
      },
      "name()": {
        "details": "Returns the name of the token."
      },
      "pause()": {
        "details": "Pauses all token transfers. See {ERC20Pausable} and {Pausable-_pause}. Requirements: - the caller must have the `PAUSER_ROLE`."
      },
      "paused()": {
        "details": "Returns true if the contract is paused, and false otherwise."
      },
      "renounceRole(bytes32,address)": {
        "details": "Overload {renounceRole} to track enumerable memberships"
      },
      "revokeRole(bytes32,address)": {
        "details": "Overload {revokeRole} to track enumerable memberships"
      },
      "supportsInterface(bytes4)": {
        "details": "See {IERC165-supportsInterface}."
      },
      "symbol()": {
        "details": "Returns the symbol of the token, usually a shorter version of the name."
      },
      "totalSupply()": {
        "details": "See {IERC20-totalSupply}."
      },
      "transfer(address,uint256)": {
        "details": "See {IERC20-transfer}. Requirements: - `recipient` cannot be the zero address. - the caller must have a balance of at least `amount`."
      },
      "transferFrom(address,address,uint256)": {
        "details": "See {IERC20-transferFrom}. Emits an {Approval} event indicating the updated allowance. This is not required by the EIP. See the note at the beginning of {ERC20}. Requirements: - `sender` and `recipient` cannot be the zero address. - `sender` must have a balance of at least `amount`. - the caller must have allowance for ``sender``'s tokens of at least `amount`."
      },
      "unpause()": {
        "details": "Unpauses all token transfers. See {ERC20Pausable} and {Pausable-_unpause}. Requirements: - the caller must have the `PAUSER_ROLE`."
      }
    },
    "version": 1
  },
  "userdoc": {
    "kind": "user",
    "methods": {},
    "version": 1
  }
}