{
  "contractName": "ERC20PresetMinterPauser",
  "abi": [
    {
      "inputs": [
        {
          "internalType": "string",
          "name": "name",
          "type": "string"
        },
        {
          "internalType": "string",
          "name": "symbol",
          "type": "string"
        }
      ],
      "stateMutability": "nonpayable",
      "type": "constructor"
    },
    {
      "anonymous": false,
      "inputs": [
        {
          "indexed": true,
          "internalType": "address",
          "name": "owner",
          "type": "address"
        },
        {
          "indexed": true,
          "internalType": "address",
          "name": "spender",
          "type": "address"
        },
        {
          "indexed": false,
          "internalType": "uint256",
          "name": "value",
          "type": "uint256"
        }
      ],
      "name": "Approval",
      "type": "event"
    },
    {
      "anonymous": false,
      "inputs": [
        {
          "indexed": false,
          "internalType": "address",
          "name": "account",
          "type": "address"
        }
      ],
      "name": "Paused",
      "type": "event"
    },
    {
      "anonymous": false,
      "inputs": [
        {
          "indexed": true,
          "internalType": "bytes32",
          "name": "role",
          "type": "bytes32"
        },
        {
          "indexed": true,
          "internalType": "bytes32",
          "name": "previousAdminRole",
          "type": "bytes32"
        },
        {
          "indexed": true,
          "internalType": "bytes32",
          "name": "newAdminRole",
          "type": "bytes32"
        }
      ],
      "name": "RoleAdminChanged",
      "type": "event"
    },
    {
      "anonymous": false,
      "inputs": [
        {
          "indexed": true,
          "internalType": "bytes32",
          "name": "role",
          "type": "bytes32"
        },
        {
          "indexed": true,
          "internalType": "address",
          "name": "account",
          "type": "address"
        },
        {
          "indexed": true,
          "internalType": "address",
          "name": "sender",
          "type": "address"
        }
      ],
      "name": "RoleGranted",
      "type": "event"
    },
    {
      "anonymous": false,
      "inputs": [
        {
          "indexed": true,
          "internalType": "bytes32",
          "name": "role",
          "type": "bytes32"
        },
        {
          "indexed": true,
          "internalType": "address",
          "name": "account",
          "type": "address"
        },
        {
          "indexed": true,
          "internalType": "address",
          "name": "sender",
          "type": "address"
        }
      ],
      "name": "RoleRevoked",
      "type": "event"
    },
    {
      "anonymous": false,
      "inputs": [
        {
          "indexed": true,
          "internalType": "address",
          "name": "from",
          "type": "address"
        },
        {
          "indexed": true,
          "internalType": "address",
          "name": "to",
          "type": "address"
        },
        {
          "indexed": false,
          "internalType": "uint256",
          "name": "value",
          "type": "uint256"
        }
      ],
      "name": "Transfer",
      "type": "event"
    },
    {
      "anonymous": false,
      "inputs": [
        {
          "indexed": false,
          "internalType": "address",
          "name": "account",
          "type": "address"
        }
      ],
      "name": "Unpaused",
      "type": "event"
    },
    {
      "inputs": [],
      "name": "DEFAULT_ADMIN_ROLE",
      "outputs": [
        {
          "internalType": "bytes32",
          "name": "",
          "type": "bytes32"
        }
      ],
      "stateMutability": "view",
      "type": "function"
    },
    {
      "inputs": [],
      "name": "MINTER_ROLE",
      "outputs": [
        {
          "internalType": "bytes32",
          "name": "",
          "type": "bytes32"
        }
      ],
      "stateMutability": "view",
      "type": "function"
    },
    {
      "inputs": [],
      "name": "PAUSER_ROLE",
      "outputs": [
        {
          "internalType": "bytes32",
          "name": "",
          "type": "bytes32"
        }
      ],
      "stateMutability": "view",
      "type": "function"
    },
    {
      "inputs": [
        {
          "internalType": "address",
          "name": "owner",
          "type": "address"
        },
        {
          "internalType": "address",
          "name": "spender",
          "type": "address"
        }
      ],
      "name": "allowance",
      "outputs": [
        {
          "internalType": "uint256",
          "name": "",
          "type": "uint256"
        }
      ],
      "stateMutability": "view",
      "type": "function"
    },
    {
      "inputs": [
        {
          "internalType": "address",
          "name": "spender",
          "type": "address"
        },
        {
          "internalType": "uint256",
          "name": "amount",
          "type": "uint256"
        }
      ],
      "name": "approve",
      "outputs": [
        {
          "internalType": "bool",
          "name": "",
          "type": "bool"
        }
      ],
      "stateMutability": "nonpayable",
      "type": "function"
    },
    {
      "inputs": [
        {
          "internalType": "address",
          "name": "account",
          "type": "address"
        }
      ],
      "name": "balanceOf",
      "outputs": [
        {
          "internalType": "uint256",
          "name": "",
          "type": "uint256"
        }
      ],
      "stateMutability": "view",
      "type": "function"
    },
    {
      "inputs": [
        {
          "internalType": "uint256",
          "name": "amount",
          "type": "uint256"
        }
      ],
      "name": "burn",
      "outputs": [],
      "stateMutability": "nonpayable",
      "type": "function"
    },
    {
      "inputs": [
        {
          "internalType": "address",
          "name": "account",
          "type": "address"
        },
        {
          "internalType": "uint256",
          "name": "amount",
          "type": "uint256"
        }
      ],
      "name": "burnFrom",
      "outputs": [],
      "stateMutability": "nonpayable",
      "type": "function"
    },
    {
      "inputs": [],
      "name": "decimals",
      "outputs": [
        {
          "internalType": "uint8",
          "name": "",
          "type": "uint8"
        }
      ],
      "stateMutability": "view",
      "type": "function"
    },
    {
      "inputs": [
        {
          "internalType": "address",
          "name": "spender",
          "type": "address"
        },
        {
          "internalType": "uint256",
          "name": "subtractedValue",
          "type": "uint256"
        }
      ],
      "name": "decreaseAllowance",
      "outputs": [
        {
          "internalType": "bool",
          "name": "",
          "type": "bool"
        }
      ],
      "stateMutability": "nonpayable",
      "type": "function"
    },
    {
      "inputs": [],
      "name": "getNFTRegistery",
      "outputs": [
        {
          "internalType": "address",
          "name": "",
          "type": "address"
        }
      ],
      "stateMutability": "view",
      "type": "function"
    },
    {
      "inputs": [
        {
          "internalType": "bytes32",
          "name": "role",
          "type": "bytes32"
        }
      ],
      "name": "getRoleAdmin",
      "outputs": [
        {
          "internalType": "bytes32",
          "name": "",
          "type": "bytes32"
        }
      ],
      "stateMutability": "view",
      "type": "function"
    },
    {
      "inputs": [
        {
          "internalType": "bytes32",
          "name": "role",
          "type": "bytes32"
        },
        {
          "internalType": "uint256",
          "name": "index",
          "type": "uint256"
        }
      ],
      "name": "getRoleMember",
      "outputs": [
        {
          "internalType": "address",
          "name": "",
          "type": "address"
        }
      ],
      "stateMutability": "view",
      "type": "function"
    },
    {
      "inputs": [
        {
          "internalType": "bytes32",
          "name": "role",
          "type": "bytes32"
        }
      ],
      "name": "getRoleMemberCount",
      "outputs": [
        {
          "internalType": "uint256",
          "name": "",
          "type": "uint256"
        }
      ],
      "stateMutability": "view",
      "type": "function"
    },
    {
      "inputs": [
        {
          "internalType": "bytes32",
          "name": "role",
          "type": "bytes32"
        },
        {
          "internalType": "address",
          "name": "account",
          "type": "address"
        }
      ],
      "name": "grantRole",
      "outputs": [],
      "stateMutability": "nonpayable",
      "type": "function"
    },
    {
      "inputs": [
        {
          "internalType": "bytes32",
          "name": "role",
          "type": "bytes32"
        },
        {
          "internalType": "address",
          "name": "account",
          "type": "address"
        }
      ],
      "name": "hasRole",
      "outputs": [
        {
          "internalType": "bool",
          "name": "",
          "type": "bool"
        }
      ],
      "stateMutability": "view",
      "type": "function"
    },
    {
      "inputs": [
        {
          "internalType": "address",
          "name": "spender",
          "type": "address"
        },
        {
          "internalType": "uint256",
          "name": "addedValue",
          "type": "uint256"
        }
      ],
      "name": "increaseAllowance",
      "outputs": [
        {
          "internalType": "bool",
          "name": "",
          "type": "bool"
        }
      ],
      "stateMutability": "nonpayable",
      "type": "function"
    },
    {
      "inputs": [],
      "name": "name",
      "outputs": [
        {
          "internalType": "string",
          "name": "",
          "type": "string"
        }
      ],
      "stateMutability": "view",
      "type": "function"
    },
    {
      "inputs": [],
      "name": "paused",
      "outputs": [
        {
          "internalType": "bool",
          "name": "",
          "type": "bool"
        }
      ],
      "stateMutability": "view",
      "type": "function"
    },
    {
      "inputs": [
        {
          "internalType": "bytes32",
          "name": "role",
          "type": "bytes32"
        },
        {
          "internalType": "address",
          "name": "account",
          "type": "address"
        }
      ],
      "name": "renounceRole",
      "outputs": [],
      "stateMutability": "nonpayable",
      "type": "function"
    },
    {
      "inputs": [
        {
          "internalType": "bytes32",
          "name": "role",
          "type": "bytes32"
        },
        {
          "internalType": "address",
          "name": "account",
          "type": "address"
        }
      ],
      "name": "revokeRole",
      "outputs": [],
      "stateMutability": "nonpayable",
      "type": "function"
    },
    {
      "inputs": [
        {
          "internalType": "address",
          "name": "NFTRegistery",
          "type": "address"
        }
      ],
      "name": "setNFTRegistery",
      "outputs": [],
      "stateMutability": "nonpayable",
      "type": "function"
    },
    {
      "inputs": [
        {
          "internalType": "address",
          "name": "from",
          "type": "address"
        },
        {
          "internalType": "uint256",
          "name": "amount",
          "type": "uint256"
        }
      ],
      "name": "spend",
      "outputs": [
        {
          "internalType": "bool",
          "name": "",
          "type": "bool"
        }
      ],
      "stateMutability": "nonpayable",
      "type": "function"
    },
    {
      "inputs": [
        {
          "internalType": "bytes4",
          "name": "interfaceId",
          "type": "bytes4"
        }
      ],
      "name": "supportsInterface",
      "outputs": [
        {
          "internalType": "bool",
          "name": "",
          "type": "bool"
        }
      ],
      "stateMutability": "view",
      "type": "function"
    },
    {
      "inputs": [],
      "name": "symbol",
      "outputs": [
        {
          "internalType": "string",
          "name": "",
          "type": "string"
        }
      ],
      "stateMutability": "view",
      "type": "function"
    },
    {
      "inputs": [],
      "name": "totalSupply",
      "outputs": [
        {
          "internalType": "uint256",
          "name": "",
          "type": "uint256"
        }
      ],
      "stateMutability": "view",
      "type": "function"
    },
    {
      "inputs": [
        {
          "internalType": "address",
          "name": "recipient",
          "type": "address"
        },
        {
          "internalType": "uint256",
          "name": "amount",
          "type": "uint256"
        }
      ],
      "name": "transfer",
      "outputs": [
        {
          "internalType": "bool",
          "name": "",
          "type": "bool"
        }
      ],
      "stateMutability": "nonpayable",
      "type": "function"
    },
    {
      "inputs": [
        {
          "internalType": "address",
          "name": "sender",
          "type": "address"
        },
        {
          "internalType": "address",
          "name": "recipient",
          "type": "address"
        },
        {
          "internalType": "uint256",
          "name": "amount",
          "type": "uint256"
        }
      ],
      "name": "transferFrom",
      "outputs": [
        {
          "internalType": "bool",
          "name": "",
          "type": "bool"
        }
      ],
      "stateMutability": "nonpayable",
      "type": "function"
    },
    {
      "inputs": [
        {
          "internalType": "address",
          "name": "to",
          "type": "address"
        },
        {
          "internalType": "uint256",
          "name": "amount",
          "type": "uint256"
        }
      ],
      "name": "mint",
      "outputs": [],
      "stateMutability": "nonpayable",
      "type": "function"
    },
    {
      "inputs": [],
      "name": "pause",
      "outputs": [],
      "stateMutability": "nonpayable",
      "type": "function"
    },
    {
      "inputs": [],
      "name": "unpause",
      "outputs": [],
      "stateMutability": "nonpayable",
      "type": "function"
    }
  ],
  "bytecode": "0x60806040523480156200001157600080fd5b5060405162003db838038062003db8833981810160405281019062000037919062000564565b818181600690805190602001906200005192919062000442565b5080600790805190602001906200006a92919062000442565b5050506000600860006101000a81548160ff021916908315150217905550620000bf6000600102620000aa6200016d640100000000026401000000009004565b62000175640100000000026401000000009004565b620001127f9f2df0fed2c77648de5860a4cc508cd0818c85b8b8a1ab4ceeef8d981c8956a6620000fd6200016d640100000000026401000000009004565b62000175640100000000026401000000009004565b620001657f65d7a28e3265b37a6474929f336521b332c1681b933f6cb9f3376673440d862a620001506200016d640100000000026401000000009004565b62000175640100000000026401000000009004565b505062000708565b600033905090565b620001958282620001cf6401000000000262001237176401000000009004565b620001ca8160016000858152602001908152602001600020620001ee6401000000000262001245179091906401000000009004565b505050565b620001ea82826200022f640100000000026401000000009004565b5050565b600062000227836000018373ffffffffffffffffffffffffffffffffffffffff1660010262000332640100000000026401000000009004565b905092915050565b6200024a8282620003b5640100000000026401000000009004565b6200032e57600160008084815260200190815260200160002060000160008373ffffffffffffffffffffffffffffffffffffffff1673ffffffffffffffffffffffffffffffffffffffff16815260200190815260200160002060006101000a81548160ff021916908315150217905550620002d36200016d640100000000026401000000009004565b73ffffffffffffffffffffffffffffffffffffffff168173ffffffffffffffffffffffffffffffffffffffff16837f2f8788117e7eff1d82e926ec794901d17c78024a50270940304540a733656f0d60405160405180910390a45b5050565b60006200034f83836200041f640100000000026401000000009004565b620003aa578260000182908060018154018082558091505060019003906000526020600020016000909190919091505582600001805490508360010160008481526020019081526020016000208190555060019050620003af565b600090505b92915050565b600080600084815260200190815260200160002060000160008373ffffffffffffffffffffffffffffffffffffffff1673ffffffffffffffffffffffffffffffffffffffff16815260200190815260200160002060009054906101000a900460ff16905092915050565b600080836001016000848152602001908152602001600020541415905092915050565b828054620004509062000674565b90600052602060002090601f016020900481019282620004745760008555620004c0565b82601f106200048f57805160ff1916838001178555620004c0565b82800160010185558215620004c0579182015b82811115620004bf578251825591602001919060010190620004a2565b5b509050620004cf9190620004d3565b5090565b5b80821115620004ee576000816000905550600101620004d4565b5090565b60006200050962000503846200060b565b620005d7565b9050828152602081018484840111156200052257600080fd5b6200052f8482856200063e565b509392505050565b600082601f8301126200054957600080fd5b81516200055b848260208601620004f2565b91505092915050565b600080604083850312156200057857600080fd5b600083015167ffffffffffffffff8111156200059357600080fd5b620005a18582860162000537565b925050602083015167ffffffffffffffff811115620005bf57600080fd5b620005cd8582860162000537565b9150509250929050565b6000604051905081810181811067ffffffffffffffff82111715620006015762000600620006d9565b5b8060405250919050565b600067ffffffffffffffff821115620006295762000628620006d9565b5b601f19601f8301169050602081019050919050565b60005b838110156200065e57808201518184015260208101905062000641565b838111156200066e576000848401525b50505050565b600060028204905060018216806200068d57607f821691505b60208210811415620006a457620006a3620006aa565b5b50919050565b7f4e487b7100000000000000000000000000000000000000000000000000000000600052602260045260246000fd5b7f4e487b7100000000000000000000000000000000000000000000000000000000600052604160045260246000fd5b6136a080620007186000396000f3fe608060405234801561001057600080fd5b5060043610610202576000357c01000000000000000000000000000000000000000000000000000000009004806370a082311161012c578063a7fa5e11116100bf578063d53913931161008e578063d5391393146105d5578063d547741f146105f3578063dd62ed3e1461060f578063e63ab1e91461063f57610202565b8063a7fa5e1114610529578063a9059cbb14610545578063af7d6ca314610575578063ca15c873146105a557610202565b806391d14854116100fb57806391d148541461048d57806395d89b41146104bd578063a217fddf146104db578063a457c2d7146104f957610202565b806370a082311461040757806379cc6790146104375780638456cb59146104535780639010d07c1461045d57610202565b8063313ce567116101a4578063407ae7bf11610173578063407ae7bf1461039357806340c10f19146103b157806342966c68146103cd5780635c975abb146103e957610202565b8063313ce5671461031f57806336568abe1461033d57806339509351146103595780633f4ba83a1461038957610202565b806318160ddd116101e057806318160ddd1461028557806323b872dd146102a3578063248a9ca3146102d35780632f2ff15d1461030357610202565b806301ffc9a71461020757806306fdde0314610237578063095ea7b314610255575b600080fd5b610221600480360381019061021c91906127b6565b61065d565b60405161022e919061308c565b60405180910390f35b61023f6106d7565b60405161024c91906130c2565b60405180910390f35b61026f600480360381019061026a91906126d9565b610769565b60405161027c919061308c565b60405180910390f35b61028d610787565b60405161029a9190613344565b60405180910390f35b6102bd60048036038101906102b8919061268a565b610791565b6040516102ca919061308c565b60405180910390f35b6102ed60048036038101906102e89190612715565b610889565b6040516102fa91906130a7565b60405180910390f35b61031d6004803603810190610318919061273e565b6108a8565b005b6103276108dc565b604051610334919061335f565b60405180910390f35b6103576004803603810190610352919061273e565b6108e5565b005b610373600480360381019061036e91906126d9565b610919565b604051610380919061308c565b60405180910390f35b6103916109c5565b005b61039b610a3f565b6040516103a89190613071565b60405180910390f35b6103cb60048036038101906103c691906126d9565b610a69565b005b6103e760048036038101906103e291906127df565b610ae7565b005b6103f1610afb565b6040516103fe919061308c565b60405180910390f35b610421600480360381019061041c9190612625565b610b12565b60405161042e9190613344565b60405180910390f35b610451600480360381019061044c91906126d9565b610b5b565b005b61045b610bd6565b005b6104776004803603810190610472919061277a565b610c50565b6040516104849190613071565b60405180910390f35b6104a760048036038101906104a2919061273e565b610c7f565b6040516104b4919061308c565b60405180910390f35b6104c5610ce9565b6040516104d291906130c2565b60405180910390f35b6104e3610d7b565b6040516104f091906130a7565b60405180910390f35b610513600480360381019061050e91906126d9565b610d83565b604051610520919061308c565b60405180910390f35b610543600480360381019061053e9190612625565b610e6e565b005b61055f600480360381019061055a91906126d9565b610eb2565b60405161056c919061308c565b60405180910390f35b61058f600480360381019061058a91906126d9565b610ed0565b60405161059c919061308c565b60405180910390f35b6105bf60048036038101906105ba9190612715565b611110565b6040516105cc9190613344565b60405180910390f35b6105dd611134565b6040516105ea91906130a7565b60405180910390f35b61060d6004803603810190610608919061273e565b611158565b005b6106296004803603810190610624919061264e565b61118c565b6040516106369190613344565b60405180910390f35b610647611213565b60405161065491906130a7565b60405180910390f35b60007f5a05180f000000000000000000000000000000000000000000000000000000007bffffffffffffffffffffffffffffffffffffffffffffffffffffffff1916827bffffffffffffffffffffffffffffffffffffffffffffffffffffffff191614806106d057506106cf82611275565b5b9050919050565b6060600680546106e69061356d565b80601f01602080910402602001604051908101604052809291908181526020018280546107129061356d565b801561075f5780601f106107345761010080835404028352916020019161075f565b820191906000526020600020905b81548152906001019060200180831161074257829003601f168201915b5050505050905090565b600061077d6107766112ef565b84846112f7565b6001905092915050565b6000600454905090565b600061079e8484846114c2565b6000600360008673ffffffffffffffffffffffffffffffffffffffff1673ffffffffffffffffffffffffffffffffffffffff16815260200190815260200160002060006107e96112ef565b73ffffffffffffffffffffffffffffffffffffffff1673ffffffffffffffffffffffffffffffffffffffff16815260200190815260200160002054905082811015610869576040517f08c379a0000000000000000000000000000000000000000000000000000000008152600401610860906131e4565b60405180910390fd5b61087d856108756112ef565b8584036112f7565b60019150509392505050565b6000806000838152602001908152602001600020600101549050919050565b6108b28282611746565b6108d7816001600085815260200190815260200160002061124590919063ffffffff16565b505050565b60006012905090565b6108ef828261176f565b61091481600160008581526020019081526020016000206117f290919063ffffffff16565b505050565b60006109bb6109266112ef565b8484600360006109346112ef565b73ffffffffffffffffffffffffffffffffffffffff1673ffffffffffffffffffffffffffffffffffffffff16815260200190815260200160002060008873ffffffffffffffffffffffffffffffffffffffff1673ffffffffffffffffffffffffffffffffffffffff168152602001908152602001600020546109b691906133a1565b6112f7565b6001905092915050565b6109f67f65d7a28e3265b37a6474929f336521b332c1681b933f6cb9f3376673440d862a6109f16112ef565b610c7f565b610a35576040517f08c379a0000000000000000000000000000000000000000000000000000000008152600401610a2c90613164565b60405180910390fd5b610a3d611822565b565b6000600560009054906101000a900473ffffffffffffffffffffffffffffffffffffffff16905090565b610a9a7f9f2df0fed2c77648de5860a4cc508cd0818c85b8b8a1ab4ceeef8d981c8956a6610a956112ef565b610c7f565b610ad9576040517f08c379a0000000000000000000000000000000000000000000000000000000008152600401610ad090613204565b60405180910390fd5b610ae382826118c4565b5050565b610af8610af26112ef565b82611a25565b50565b6000600860009054906101000a900460ff16905090565b6000600260008373ffffffffffffffffffffffffffffffffffffffff1673ffffffffffffffffffffffffffffffffffffffff168152602001908152602001600020549050919050565b6000610b6e83610b696112ef565b61118c565b905081811015610bb3576040517f08c379a0000000000000000000000000000000000000000000000000000000008152600401610baa90613224565b60405180910390fd5b610bc783610bbf6112ef565b8484036112f7565b610bd18383611a25565b505050565b610c077f65d7a28e3265b37a6474929f336521b332c1681b933f6cb9f3376673440d862a610c026112ef565b610c7f565b610c46576040517f08c379a0000000000000000000000000000000000000000000000000000000008152600401610c3d906132a4565b60405180910390fd5b610c4e611bfe565b565b6000610c778260016000868152602001908152602001600020611ca190919063ffffffff16565b905092915050565b600080600084815260200190815260200160002060000160008373ffffffffffffffffffffffffffffffffffffffff1673ffffffffffffffffffffffffffffffffffffffff16815260200190815260200160002060009054906101000a900460ff16905092915050565b606060078054610cf89061356d565b80601f0160208091040260200160405190810160405280929190818152602001828054610d249061356d565b8015610d715780601f10610d4657610100808354040283529160200191610d71565b820191906000526020600020905b815481529060010190602001808311610d5457829003601f168201915b5050505050905090565b600060010281565b60008060036000610d926112ef565b73ffffffffffffffffffffffffffffffffffffffff1673ffffffffffffffffffffffffffffffffffffffff16815260200190815260200160002060008573ffffffffffffffffffffffffffffffffffffffff1673ffffffffffffffffffffffffffffffffffffffff16815260200190815260200160002054905082811015610e4f576040517f08c379a0000000000000000000000000000000000000000000000000000000008152600401610e46906132c4565b60405180910390fd5b610e63610e5a6112ef565b858584036112f7565b600191505092915050565b80600560006101000a81548173ffffffffffffffffffffffffffffffffffffffff021916908373ffffffffffffffffffffffffffffffffffffffff16021790555050565b6000610ec6610ebf6112ef565b84846114c2565b6001905092915050565b60006004548210610ee057600080fd5b81600260008573ffffffffffffffffffffffffffffffffffffffff1673ffffffffffffffffffffffffffffffffffffffff1681526020019081526020016000205411610f2b57600080fd5b600560009054906101000a900473ffffffffffffffffffffffffffffffffffffffff1673ffffffffffffffffffffffffffffffffffffffff163373ffffffffffffffffffffffffffffffffffffffff1614610f8557600080fd5b81600260008573ffffffffffffffffffffffffffffffffffffffff1673ffffffffffffffffffffffffffffffffffffffff16815260200190815260200160002054610fd09190613451565b600260008573ffffffffffffffffffffffffffffffffffffffff1673ffffffffffffffffffffffffffffffffffffffff1681526020019081526020016000208190555081600260003373ffffffffffffffffffffffffffffffffffffffff1673ffffffffffffffffffffffffffffffffffffffff1681526020019081526020016000205461105e91906133a1565b600260003373ffffffffffffffffffffffffffffffffffffffff1673ffffffffffffffffffffffffffffffffffffffff168152602001908152602001600020819055503373ffffffffffffffffffffffffffffffffffffffff168373ffffffffffffffffffffffffffffffffffffffff167fddf252ad1be2c89b69c2b068fc378daa952ba7f163c4a11628f55a4df523b3ef846040516110fe9190613344565b60405180910390a36001905092915050565b600061112d60016000848152602001908152602001600020611cbc565b9050919050565b7f9f2df0fed2c77648de5860a4cc508cd0818c85b8b8a1ab4ceeef8d981c8956a681565b6111628282611cd1565b61118781600160008581526020019081526020016000206117f290919063ffffffff16565b505050565b6000600360008473ffffffffffffffffffffffffffffffffffffffff1673ffffffffffffffffffffffffffffffffffffffff16815260200190815260200160002060008373ffffffffffffffffffffffffffffffffffffffff1673ffffffffffffffffffffffffffffffffffffffff16815260200190815260200160002054905092915050565b7f65d7a28e3265b37a6474929f336521b332c1681b933f6cb9f3376673440d862a81565b6112418282611cfa565b5050565b600061126d836000018373ffffffffffffffffffffffffffffffffffffffff16600102611dda565b905092915050565b60007f7965db0b000000000000000000000000000000000000000000000000000000007bffffffffffffffffffffffffffffffffffffffffffffffffffffffff1916827bffffffffffffffffffffffffffffffffffffffffffffffffffffffff191614806112e857506112e782611e4a565b5b9050919050565b600033905090565b600073ffffffffffffffffffffffffffffffffffffffff168373ffffffffffffffffffffffffffffffffffffffff161415611367576040517f08c379a000000000000000000000000000000000000000000000000000000000815260040161135e90613284565b60405180910390fd5b600073ffffffffffffffffffffffffffffffffffffffff168273ffffffffffffffffffffffffffffffffffffffff1614156113d7576040517f08c379a00000000000000000000000000000000000000000000000000000000081526004016113ce90613184565b60405180910390fd5b80600360008573ffffffffffffffffffffffffffffffffffffffff1673ffffffffffffffffffffffffffffffffffffffff16815260200190815260200160002060008473ffffffffffffffffffffffffffffffffffffffff1673ffffffffffffffffffffffffffffffffffffffff168152602001908152602001600020819055508173ffffffffffffffffffffffffffffffffffffffff168373ffffffffffffffffffffffffffffffffffffffff167f8c5be1e5ebec7d5bd14f71427d1e84f3dd0314c0f7b2291e5b200ac8c7c3b925836040516114b59190613344565b60405180910390a3505050565b600073ffffffffffffffffffffffffffffffffffffffff168373ffffffffffffffffffffffffffffffffffffffff161415611532576040517f08c379a000000000000000000000000000000000000000000000000000000000815260040161152990613264565b60405180910390fd5b600073ffffffffffffffffffffffffffffffffffffffff168273ffffffffffffffffffffffffffffffffffffffff1614156115a2576040517f08c379a000000000000000000000000000000000000000000000000000000000815260040161159990613104565b60405180910390fd5b6115ad838383611eb4565b6000600260008573ffffffffffffffffffffffffffffffffffffffff1673ffffffffffffffffffffffffffffffffffffffff16815260200190815260200160002054905081811015611634576040517f08c379a000000000000000000000000000000000000000000000000000000000815260040161162b906131a4565b60405180910390fd5b818103600260008673ffffffffffffffffffffffffffffffffffffffff1673ffffffffffffffffffffffffffffffffffffffff1681526020019081526020016000208190555081600260008573ffffffffffffffffffffffffffffffffffffffff1673ffffffffffffffffffffffffffffffffffffffff16815260200190815260200160002060008282546116c991906133a1565b925050819055508273ffffffffffffffffffffffffffffffffffffffff168473ffffffffffffffffffffffffffffffffffffffff167fddf252ad1be2c89b69c2b068fc378daa952ba7f163c4a11628f55a4df523b3ef8460405161172d9190613344565b60405180910390a3611740848484611ec4565b50505050565b61174f82610889565b6117608161175b6112ef565b611ec9565b61176a8383611cfa565b505050565b6117776112ef565b73ffffffffffffffffffffffffffffffffffffffff168173ffffffffffffffffffffffffffffffffffffffff16146117e4576040517f08c379a00000000000000000000000000000000000000000000000000000000081526004016117db906132e4565b60405180910390fd5b6117ee8282611f67565b5050565b600061181a836000018373ffffffffffffffffffffffffffffffffffffffff16600102612048565b905092915050565b61182a610afb565b611869576040517f08c379a000000000000000000000000000000000000000000000000000000000815260040161186090613124565b60405180910390fd5b6000600860006101000a81548160ff0219169083151502179055507f5db9ee0a495bf2e6ff9c91a7834c1ba4fdd244a5e8aa4e537bd38aeae4b073aa6118ad6112ef565b6040516118ba9190613071565b60405180910390a1565b600073ffffffffffffffffffffffffffffffffffffffff168273ffffffffffffffffffffffffffffffffffffffff161415611934576040517f08c379a000000000000000000000000000000000000000000000000000000000815260040161192b90613304565b60405180910390fd5b61194060008383611eb4565b806004600082825461195291906133a1565b9250508190555080600260008473ffffffffffffffffffffffffffffffffffffffff1673ffffffffffffffffffffffffffffffffffffffff16815260200190815260200160002060008282546119a891906133a1565b925050819055508173ffffffffffffffffffffffffffffffffffffffff16600073ffffffffffffffffffffffffffffffffffffffff167fddf252ad1be2c89b69c2b068fc378daa952ba7f163c4a11628f55a4df523b3ef83604051611a0d9190613344565b60405180910390a3611a2160008383611ec4565b5050565b600073ffffffffffffffffffffffffffffffffffffffff168273ffffffffffffffffffffffffffffffffffffffff161415611a95576040517f08c379a0000000000000000000000000000000000000000000000000000000008152600401611a8c90613244565b60405180910390fd5b611aa182600083611eb4565b6000600260008473ffffffffffffffffffffffffffffffffffffffff1673ffffffffffffffffffffffffffffffffffffffff16815260200190815260200160002054905081811015611b28576040517f08c379a0000000000000000000000000000000000000000000000000000000008152600401611b1f90613144565b60405180910390fd5b818103600260008573ffffffffffffffffffffffffffffffffffffffff1673ffffffffffffffffffffffffffffffffffffffff168152602001908152602001600020819055508160046000828254611b809190613451565b92505081905550600073ffffffffffffffffffffffffffffffffffffffff168373ffffffffffffffffffffffffffffffffffffffff167fddf252ad1be2c89b69c2b068fc378daa952ba7f163c4a11628f55a4df523b3ef84604051611be59190613344565b60405180910390a3611bf983600084611ec4565b505050565b611c06610afb565b15611c46576040517f08c379a0000000000000000000000000000000000000000000000000000000008152600401611c3d906131c4565b60405180910390fd5b6001600860006101000a81548160ff0219169083151502179055507f62e78cea01bee320cd4e420270b5ea74000d11b0c9f74754ebdbfc544b05a258611c8a6112ef565b604051611c979190613071565b60405180910390a1565b6000611cb083600001836121ce565b60019004905092915050565b6000611cca8260000161221f565b9050919050565b611cda82610889565b611ceb81611ce66112ef565b611ec9565b611cf58383611f67565b505050565b611d048282610c7f565b611dd657600160008084815260200190815260200160002060000160008373ffffffffffffffffffffffffffffffffffffffff1673ffffffffffffffffffffffffffffffffffffffff16815260200190815260200160002060006101000a81548160ff021916908315150217905550611d7b6112ef565b73ffffffffffffffffffffffffffffffffffffffff168173ffffffffffffffffffffffffffffffffffffffff16837f2f8788117e7eff1d82e926ec794901d17c78024a50270940304540a733656f0d60405160405180910390a45b5050565b6000611de68383612230565b611e3f578260000182908060018154018082558091505060019003906000526020600020016000909190919091505582600001805490508360010160008481526020019081526020016000208190555060019050611e44565b600090505b92915050565b60007f01ffc9a7000000000000000000000000000000000000000000000000000000007bffffffffffffffffffffffffffffffffffffffffffffffffffffffff1916827bffffffffffffffffffffffffffffffffffffffffffffffffffffffff1916149050919050565b611ebf838383612253565b505050565b505050565b611ed38282610c7f565b611f6357611ef88173ffffffffffffffffffffffffffffffffffffffff1660146122ab565b611f07836001900460206122ab565b604051602001611f18929190613037565b6040516020818303038152906040526040517f08c379a0000000000000000000000000000000000000000000000000000000008152600401611f5a91906130c2565b60405180910390fd5b5050565b611f718282610c7f565b1561204457600080600084815260200190815260200160002060000160008373ffffffffffffffffffffffffffffffffffffffff1673ffffffffffffffffffffffffffffffffffffffff16815260200190815260200160002060006101000a81548160ff021916908315150217905550611fe96112ef565b73ffffffffffffffffffffffffffffffffffffffff168173ffffffffffffffffffffffffffffffffffffffff16837ff6391f5c32d9c69d2a47ea670b442974b53935d1edc7fd64eb21e047a839171b60405160405180910390a45b5050565b600080836001016000848152602001908152602001600020549050600081146121c257600060018261207a9190613451565b90506000600186600001805490506120929190613451565b905081811461214d5760008660000182815481106120d9577f4e487b7100000000000000000000000000000000000000000000000000000000600052603260045260246000fd5b9060005260206000200154905080876000018481548110612123577f4e487b7100000000000000000000000000000000000000000000000000000000600052603260045260246000fd5b90600052602060002001819055508387600101600083815260200190815260200160002081905550505b85600001805480612187577f4e487b7100000000000000000000000000000000000000000000000000000000600052603160045260246000fd5b6001900381819060005260206000200160009055905585600101600086815260200190815260200160002060009055600193505050506121c8565b60009150505b92915050565b600082600001828154811061220c577f4e487b7100000000000000000000000000000000000000000000000000000000600052603260045260246000fd5b9060005260206000200154905092915050565b600081600001805490509050919050565b600080836001016000848152602001908152602001600020541415905092915050565b61225e8383836125cc565b612266610afb565b156122a6576040517f08c379a000000000000000000000000000000000000000000000000000000000815260040161229d90613324565b60405180910390fd5b505050565b6060600060028360026122be91906133f7565b6122c891906133a1565b67ffffffffffffffff811115612307577f4e487b7100000000000000000000000000000000000000000000000000000000600052604160045260246000fd5b6040519080825280601f01601f1916602001820160405280156123395781602001600182028036833780820191505090505b5090507f300000000000000000000000000000000000000000000000000000000000000081600081518110612397577f4e487b7100000000000000000000000000000000000000000000000000000000600052603260045260246000fd5b60200101907effffffffffffffffffffffffffffffffffffffffffffffffffffffffffffff1916908160001a9053507f780000000000000000000000000000000000000000000000000000000000000081600181518110612421577f4e487b7100000000000000000000000000000000000000000000000000000000600052603260045260246000fd5b60200101907effffffffffffffffffffffffffffffffffffffffffffffffffffffffffffff1916908160001a9053506000600184600261246191906133f7565b61246b91906133a1565b90505b600181111561257e577f3031323334353637383961626364656600000000000000000000000000000000600f8616601081106124d3577f4e487b7100000000000000000000000000000000000000000000000000000000600052603260045260246000fd5b1a7f01000000000000000000000000000000000000000000000000000000000000000282828151811061252f577f4e487b7100000000000000000000000000000000000000000000000000000000600052603260045260246000fd5b60200101907effffffffffffffffffffffffffffffffffffffffffffffffffffffffffffff1916908160001a905350600485908060020a820491505094508061257790613543565b905061246e565b50600084146125c2576040517f08c379a00000000000000000000000000000000000000000000000000000000081526004016125b9906130e4565b60405180910390fd5b8091505092915050565b505050565b6000813590506125e08161360e565b92915050565b6000813590506125f581613625565b92915050565b60008135905061260a8161363c565b92915050565b60008135905061261f81613653565b92915050565b60006020828403121561263757600080fd5b6000612645848285016125d1565b91505092915050565b6000806040838503121561266157600080fd5b600061266f858286016125d1565b9250506020612680858286016125d1565b9150509250929050565b60008060006060848603121561269f57600080fd5b60006126ad868287016125d1565b93505060206126be868287016125d1565b92505060406126cf86828701612610565b9150509250925092565b600080604083850312156126ec57600080fd5b60006126fa858286016125d1565b925050602061270b85828601612610565b9150509250929050565b60006020828403121561272757600080fd5b6000612735848285016125e6565b91505092915050565b6000806040838503121561275157600080fd5b600061275f858286016125e6565b9250506020612770858286016125d1565b9150509250929050565b6000806040838503121561278d57600080fd5b600061279b858286016125e6565b92505060206127ac85828601612610565b9150509250929050565b6000602082840312156127c857600080fd5b60006127d6848285016125fb565b91505092915050565b6000602082840312156127f157600080fd5b60006127ff84828501612610565b91505092915050565b61281181613485565b82525050565b61282081613497565b82525050565b61282f816134a3565b82525050565b60006128408261337a565b61284a8185613385565b935061285a818560208601613510565b612863816135fd565b840191505092915050565b60006128798261337a565b6128838185613396565b9350612893818560208601613510565b80840191505092915050565b60006128ac602083613385565b91507f537472696e67733a20686578206c656e67746820696e73756666696369656e746000830152602082019050919050565b60006128ec602383613385565b91507f45524332303a207472616e7366657220746f20746865207a65726f206164647260008301527f65737300000000000000000000000000000000000000000000000000000000006020830152604082019050919050565b6000612952601483613385565b91507f5061757361626c653a206e6f74207061757365640000000000000000000000006000830152602082019050919050565b6000612992602283613385565b91507f45524332303a206275726e20616d6f756e7420657863656564732062616c616e60008301527f63650000000000000000000000000000000000000000000000000000000000006020830152604082019050919050565b60006129f8603983613385565b91507f45524332305072657365744d696e7465725061757365723a206d75737420686160008301527f76652070617573657220726f6c6520746f20756e7061757365000000000000006020830152604082019050919050565b6000612a5e602283613385565b91507f45524332303a20617070726f766520746f20746865207a65726f20616464726560008301527f73730000000000000000000000000000000000000000000000000000000000006020830152604082019050919050565b6000612ac4602683613385565b91507f45524332303a207472616e7366657220616d6f756e742065786365656473206260008301527f616c616e636500000000000000000000000000000000000000000000000000006020830152604082019050919050565b6000612b2a601083613385565b91507f5061757361626c653a20706175736564000000000000000000000000000000006000830152602082019050919050565b6000612b6a602883613385565b91507f45524332303a207472616e7366657220616d6f756e742065786365656473206160008301527f6c6c6f77616e63650000000000000000000000000000000000000000000000006020830152604082019050919050565b6000612bd0603683613385565b91507f45524332305072657365744d696e7465725061757365723a206d75737420686160008301527f7665206d696e74657220726f6c6520746f206d696e74000000000000000000006020830152604082019050919050565b6000612c36602483613385565b91507f45524332303a206275726e20616d6f756e74206578636565647320616c6c6f7760008301527f616e6365000000000000000000000000000000000000000000000000000000006020830152604082019050919050565b6000612c9c602183613385565b91507f45524332303a206275726e2066726f6d20746865207a65726f2061646472657360008301527f73000000000000000000000000000000000000000000000000000000000000006020830152604082019050919050565b6000612d02602583613385565b91507f45524332303a207472616e736665722066726f6d20746865207a65726f20616460008301527f64726573730000000000000000000000000000000000000000000000000000006020830152604082019050919050565b6000612d68602483613385565b91507f45524332303a20617070726f76652066726f6d20746865207a65726f2061646460008301527f72657373000000000000000000000000000000000000000000000000000000006020830152604082019050919050565b6000612dce603783613385565b91507f45524332305072657365744d696e7465725061757365723a206d75737420686160008301527f76652070617573657220726f6c6520746f2070617573650000000000000000006020830152604082019050919050565b6000612e34601783613396565b91507f416363657373436f6e74726f6c3a206163636f756e74200000000000000000006000830152601782019050919050565b6000612e74602583613385565b91507f45524332303a2064656372656173656420616c6c6f77616e63652062656c6f7760008301527f207a65726f0000000000000000000000000000000000000000000000000000006020830152604082019050919050565b6000612eda601183613396565b91507f206973206d697373696e6720726f6c65200000000000000000000000000000006000830152601182019050919050565b6000612f1a602f83613385565b91507f416363657373436f6e74726f6c3a2063616e206f6e6c792072656e6f756e636560008301527f20726f6c657320666f722073656c6600000000000000000000000000000000006020830152604082019050919050565b6000612f80601f83613385565b91507f45524332303a206d696e7420746f20746865207a65726f2061646472657373006000830152602082019050919050565b6000612fc0602a83613385565b91507f45524332305061757361626c653a20746f6b656e207472616e7366657220776860008301527f696c6520706175736564000000000000000000000000000000000000000000006020830152604082019050919050565b613022816134f9565b82525050565b61303181613503565b82525050565b600061304282612e27565b915061304e828561286e565b915061305982612ecd565b9150613065828461286e565b91508190509392505050565b60006020820190506130866000830184612808565b92915050565b60006020820190506130a16000830184612817565b92915050565b60006020820190506130bc6000830184612826565b92915050565b600060208201905081810360008301526130dc8184612835565b905092915050565b600060208201905081810360008301526130fd8161289f565b9050919050565b6000602082019050818103600083015261311d816128df565b9050919050565b6000602082019050818103600083015261313d81612945565b9050919050565b6000602082019050818103600083015261315d81612985565b9050919050565b6000602082019050818103600083015261317d816129eb565b9050919050565b6000602082019050818103600083015261319d81612a51565b9050919050565b600060208201905081810360008301526131bd81612ab7565b9050919050565b600060208201905081810360008301526131dd81612b1d565b9050919050565b600060208201905081810360008301526131fd81612b5d565b9050919050565b6000602082019050818103600083015261321d81612bc3565b9050919050565b6000602082019050818103600083015261323d81612c29565b9050919050565b6000602082019050818103600083015261325d81612c8f565b9050919050565b6000602082019050818103600083015261327d81612cf5565b9050919050565b6000602082019050818103600083015261329d81612d5b565b9050919050565b600060208201905081810360008301526132bd81612dc1565b9050919050565b600060208201905081810360008301526132dd81612e67565b9050919050565b600060208201905081810360008301526132fd81612f0d565b9050919050565b6000602082019050818103600083015261331d81612f73565b9050919050565b6000602082019050818103600083015261333d81612fb3565b9050919050565b60006020820190506133596000830184613019565b92915050565b60006020820190506133746000830184613028565b92915050565b600081519050919050565b600082825260208201905092915050565b600081905092915050565b60006133ac826134f9565b91506133b7836134f9565b9250827fffffffffffffffffffffffffffffffffffffffffffffffffffffffffffffffff038211156133ec576133eb61359f565b5b828201905092915050565b6000613402826134f9565b915061340d836134f9565b9250817fffffffffffffffffffffffffffffffffffffffffffffffffffffffffffffffff04831182151516156134465761344561359f565b5b828202905092915050565b600061345c826134f9565b9150613467836134f9565b92508282101561347a5761347961359f565b5b828203905092915050565b6000613490826134d9565b9050919050565b60008115159050919050565b6000819050919050565b60007fffffffff0000000000000000000000000000000000000000000000000000000082169050919050565b600073ffffffffffffffffffffffffffffffffffffffff82169050919050565b6000819050919050565b600060ff82169050919050565b60005b8381101561352e578082015181840152602081019050613513565b8381111561353d576000848401525b50505050565b600061354e826134f9565b915060008214156135625761356161359f565b5b600182039050919050565b6000600282049050600182168061358557607f821691505b60208210811415613599576135986135ce565b5b50919050565b7f4e487b7100000000000000000000000000000000000000000000000000000000600052601160045260246000fd5b7f4e487b7100000000000000000000000000000000000000000000000000000000600052602260045260246000fd5b6000601f19601f8301169050919050565b61361781613485565b811461362257600080fd5b50565b61362e816134a3565b811461363957600080fd5b50565b613645816134ad565b811461365057600080fd5b50565b61365c816134f9565b811461366757600080fd5b5056fea2646970667358221220c42a7a623dfb45e2af3d40ef2278a11410d75774a513fbc4927b8cae6fd04ed264736f6c63430008000033",
  "immutableReferences": {},
  "source": "// SPDX-License-Identifier: MIT\n\npragma solidity ^0.8.0;\n\nimport \"../ERC20.sol\";\nimport \"../extensions/ERC20Burnable.sol\";\nimport \"../extensions/ERC20Pausable.sol\";\nimport \"../../access/AccessControlEnumerable.sol\";\nimport \"../../utils/Context.sol\";\n\n/**\n * @dev {ERC20} token, including:\n *\n *  - ability for holders to burn (destroy) their tokens\n *  - a minter role that allows for token minting (creation)\n *  - a pauser role that allows to stop all token transfers\n *\n * This contract uses {AccessControl} to lock permissioned functions using the\n * different roles - head to its documentation for details.\n *\n * The account that deploys the contract will be granted the minter and pauser\n * roles, as well as the default admin role, which will let it grant both minter\n * and pauser roles to other accounts.\n */\ncontract ERC20PresetMinterPauser is Context, AccessControlEnumerable, ERC20Burnable, ERC20Pausable {\n    bytes32 public constant MINTER_ROLE = keccak256(\"MINTER_ROLE\");\n    bytes32 public constant PAUSER_ROLE = keccak256(\"PAUSER_ROLE\");\n\n    /**\n     * @dev Grants `DEFAULT_ADMIN_ROLE`, `MINTER_ROLE` and `PAUSER_ROLE` to the\n     * account that deploys the contract.\n     *\n     * See {ERC20-constructor}.\n     */\n    constructor(string memory name, string memory symbol) ERC20(name, symbol) {\n        _setupRole(DEFAULT_ADMIN_ROLE, _msgSender());\n\n        _setupRole(MINTER_ROLE, _msgSender());\n        _setupRole(PAUSER_ROLE, _msgSender());\n    }\n\n    /**\n     * @dev Creates `amount` new tokens for `to`.\n     *\n     * See {ERC20-_mint}.\n     *\n     * Requirements:\n     *\n     * - the caller must have the `MINTER_ROLE`.\n     */\n    function mint(address to, uint256 amount) public virtual {\n        require(hasRole(MINTER_ROLE, _msgSender()), \"ERC20PresetMinterPauser: must have minter role to mint\");\n        _mint(to, amount);\n    }\n\n    /**\n     * @dev Pauses all token transfers.\n     *\n     * See {ERC20Pausable} and {Pausable-_pause}.\n     *\n     * Requirements:\n     *\n     * - the caller must have the `PAUSER_ROLE`.\n     */\n    function pause() public virtual {\n        require(hasRole(PAUSER_ROLE, _msgSender()), \"ERC20PresetMinterPauser: must have pauser role to pause\");\n        _pause();\n    }\n\n    /**\n     * @dev Unpauses all token transfers.\n     *\n     * See {ERC20Pausable} and {Pausable-_unpause}.\n     *\n     * Requirements:\n     *\n     * - the caller must have the `PAUSER_ROLE`.\n     */\n    function unpause() public virtual {\n        require(hasRole(PAUSER_ROLE, _msgSender()), \"ERC20PresetMinterPauser: must have pauser role to unpause\");\n        _unpause();\n    }\n\n    function _beforeTokenTransfer(\n        address from,\n        address to,\n        uint256 amount\n    ) internal virtual override(ERC20, ERC20Pausable) {\n        super._beforeTokenTransfer(from, to, amount);\n    }\n}",
  "sourcePath": "/Volumes/Transcend/Projects/DappsLab/Lottery-Smart-Contract/contracts/customERC20ERC721/ERC20/presets/ERC20PresetMinterPauser.sol",
  "compiler": {
    "name": "solc",
    "version": "0.8.0+commit.c7dfd78e.Emscripten.clang"
  },
  "schemaVersion": "3.4.1",
  "updatedAt": "2021-06-28T20:35:59.664Z",
  "devdoc": {
    "details": "{ERC20} token, including:  - ability for holders to burn (destroy) their tokens  - a minter role that allows for token minting (creation)  - a pauser role that allows to stop all token transfers This contract uses {AccessControl} to lock permissioned functions using the different roles - head to its documentation for details. The account that deploys the contract will be granted the minter and pauser roles, as well as the default admin role, which will let it grant both minter and pauser roles to other accounts.",
    "kind": "dev",
    "methods": {
      "allowance(address,address)": {
        "details": "See {IERC20-allowance}."
      },
      "approve(address,uint256)": {
        "details": "See {IERC20-approve}. Requirements: - `spender` cannot be the zero address."
      },
      "balanceOf(address)": {
        "details": "See {IERC20-balanceOf}."
      },
      "burn(uint256)": {
        "details": "Destroys `amount` tokens from the caller. See {ERC20-_burn}."
      },
      "burnFrom(address,uint256)": {
        "details": "Destroys `amount` tokens from `account`, deducting from the caller's allowance. See {ERC20-_burn} and {ERC20-allowance}. Requirements: - the caller must have allowance for ``accounts``'s tokens of at least `amount`."
      },
      "constructor": {
        "details": "Grants `DEFAULT_ADMIN_ROLE`, `MINTER_ROLE` and `PAUSER_ROLE` to the account that deploys the contract. See {ERC20-constructor}."
      },
      "decimals()": {
        "details": "Returns the number of decimals used to get its user representation. For example, if `decimals` equals `2`, a balance of `505` tokens should be displayed to a user as `5,05` (`505 / 10 ** 2`). Tokens usually opt for a value of 18, imitating the relationship between Ether and Wei. This is the value {ERC20} uses, unless this function is overridden; NOTE: This information is only used for _display_ purposes: it in no way affects any of the arithmetic of the contract, including {IERC20-balanceOf} and {IERC20-transfer}."
      },
      "decreaseAllowance(address,uint256)": {
        "details": "Atomically decreases the allowance granted to `spender` by the caller. This is an alternative to {approve} that can be used as a mitigation for problems described in {IERC20-approve}. Emits an {Approval} event indicating the updated allowance. Requirements: - `spender` cannot be the zero address. - `spender` must have allowance for the caller of at least `subtractedValue`."
      },
      "getNFTRegistery()": {
        "details": "Returns the NFTRegistery of the token."
      },
      "getRoleAdmin(bytes32)": {
        "details": "Returns the admin role that controls `role`. See {grantRole} and {revokeRole}. To change a role's admin, use {_setRoleAdmin}."
      },
      "getRoleMember(bytes32,uint256)": {
        "details": "Returns one of the accounts that have `role`. `index` must be a value between 0 and {getRoleMemberCount}, non-inclusive. Role bearers are not sorted in any particular way, and their ordering may change at any point. WARNING: When using {getRoleMember} and {getRoleMemberCount}, make sure you perform all queries on the same block. See the following https://forum.openzeppelin.com/t/iterating-over-elements-on-enumerableset-in-openzeppelin-contracts/2296[forum post] for more information."
      },
      "getRoleMemberCount(bytes32)": {
        "details": "Returns the number of accounts that have `role`. Can be used together with {getRoleMember} to enumerate all bearers of a role."
      },
      "grantRole(bytes32,address)": {
        "details": "Overload {grantRole} to track enumerable memberships"
      },
      "hasRole(bytes32,address)": {
        "details": "Returns `true` if `account` has been granted `role`."
      },
      "increaseAllowance(address,uint256)": {
        "details": "Atomically increases the allowance granted to `spender` by the caller. This is an alternative to {approve} that can be used as a mitigation for problems described in {IERC20-approve}. Emits an {Approval} event indicating the updated allowance. Requirements: - `spender` cannot be the zero address."
      },
      "mint(address,uint256)": {
        "details": "Creates `amount` new tokens for `to`. See {ERC20-_mint}. Requirements: - the caller must have the `MINTER_ROLE`."
      },
      "name()": {
        "details": "Returns the name of the token."
      },
      "pause()": {
        "details": "Pauses all token transfers. See {ERC20Pausable} and {Pausable-_pause}. Requirements: - the caller must have the `PAUSER_ROLE`."
      },
      "paused()": {
        "details": "Returns true if the contract is paused, and false otherwise."
      },
      "renounceRole(bytes32,address)": {
        "details": "Overload {renounceRole} to track enumerable memberships"
      },
      "revokeRole(bytes32,address)": {
        "details": "Overload {revokeRole} to track enumerable memberships"
      },
      "supportsInterface(bytes4)": {
        "details": "See {IERC165-supportsInterface}."
      },
      "symbol()": {
        "details": "Returns the symbol of the token, usually a shorter version of the name."
      },
      "totalSupply()": {
        "details": "See {IERC20-totalSupply}."
      },
      "transfer(address,uint256)": {
        "details": "See {IERC20-transfer}. Requirements: - `recipient` cannot be the zero address. - the caller must have a balance of at least `amount`."
      },
      "transferFrom(address,address,uint256)": {
        "details": "See {IERC20-transferFrom}. Emits an {Approval} event indicating the updated allowance. This is not required by the EIP. See the note at the beginning of {ERC20}. Requirements: - `sender` and `recipient` cannot be the zero address. - `sender` must have a balance of at least `amount`. - the caller must have allowance for ``sender``'s tokens of at least `amount`."
      },
      "unpause()": {
        "details": "Unpauses all token transfers. See {ERC20Pausable} and {Pausable-_unpause}. Requirements: - the caller must have the `PAUSER_ROLE`."
      }
    },
    "version": 1
  },
  "userdoc": {
    "kind": "user",
    "methods": {},
    "version": 1
  }
}