{
  "contractName": "ERC20PresetMinterPauser",
  "abi": [
    {
      "inputs": [
        {
          "internalType": "string",
          "name": "name",
          "type": "string"
        },
        {
          "internalType": "string",
          "name": "symbol",
          "type": "string"
        }
      ],
      "stateMutability": "nonpayable",
      "type": "constructor"
    },
    {
      "anonymous": false,
      "inputs": [
        {
          "indexed": true,
          "internalType": "address",
          "name": "owner",
          "type": "address"
        },
        {
          "indexed": true,
          "internalType": "address",
          "name": "spender",
          "type": "address"
        },
        {
          "indexed": false,
          "internalType": "uint256",
          "name": "value",
          "type": "uint256"
        }
      ],
      "name": "Approval",
      "type": "event"
    },
    {
      "anonymous": false,
      "inputs": [
        {
          "indexed": false,
          "internalType": "address",
          "name": "account",
          "type": "address"
        }
      ],
      "name": "Paused",
      "type": "event"
    },
    {
      "anonymous": false,
      "inputs": [
        {
          "indexed": true,
          "internalType": "bytes32",
          "name": "role",
          "type": "bytes32"
        },
        {
          "indexed": true,
          "internalType": "bytes32",
          "name": "previousAdminRole",
          "type": "bytes32"
        },
        {
          "indexed": true,
          "internalType": "bytes32",
          "name": "newAdminRole",
          "type": "bytes32"
        }
      ],
      "name": "RoleAdminChanged",
      "type": "event"
    },
    {
      "anonymous": false,
      "inputs": [
        {
          "indexed": true,
          "internalType": "bytes32",
          "name": "role",
          "type": "bytes32"
        },
        {
          "indexed": true,
          "internalType": "address",
          "name": "account",
          "type": "address"
        },
        {
          "indexed": true,
          "internalType": "address",
          "name": "sender",
          "type": "address"
        }
      ],
      "name": "RoleGranted",
      "type": "event"
    },
    {
      "anonymous": false,
      "inputs": [
        {
          "indexed": true,
          "internalType": "bytes32",
          "name": "role",
          "type": "bytes32"
        },
        {
          "indexed": true,
          "internalType": "address",
          "name": "account",
          "type": "address"
        },
        {
          "indexed": true,
          "internalType": "address",
          "name": "sender",
          "type": "address"
        }
      ],
      "name": "RoleRevoked",
      "type": "event"
    },
    {
      "anonymous": false,
      "inputs": [
        {
          "indexed": true,
          "internalType": "address",
          "name": "from",
          "type": "address"
        },
        {
          "indexed": true,
          "internalType": "address",
          "name": "to",
          "type": "address"
        },
        {
          "indexed": false,
          "internalType": "uint256",
          "name": "value",
          "type": "uint256"
        }
      ],
      "name": "Transfer",
      "type": "event"
    },
    {
      "anonymous": false,
      "inputs": [
        {
          "indexed": false,
          "internalType": "address",
          "name": "account",
          "type": "address"
        }
      ],
      "name": "Unpaused",
      "type": "event"
    },
    {
      "inputs": [],
      "name": "DEFAULT_ADMIN_ROLE",
      "outputs": [
        {
          "internalType": "bytes32",
          "name": "",
          "type": "bytes32"
        }
      ],
      "stateMutability": "view",
      "type": "function"
    },
    {
      "inputs": [],
      "name": "MINTER_ROLE",
      "outputs": [
        {
          "internalType": "bytes32",
          "name": "",
          "type": "bytes32"
        }
      ],
      "stateMutability": "view",
      "type": "function"
    },
    {
      "inputs": [],
      "name": "PAUSER_ROLE",
      "outputs": [
        {
          "internalType": "bytes32",
          "name": "",
          "type": "bytes32"
        }
      ],
      "stateMutability": "view",
      "type": "function"
    },
    {
      "inputs": [
        {
          "internalType": "uint256",
          "name": "tokenId",
          "type": "uint256"
        },
        {
          "internalType": "address",
          "name": "from",
          "type": "address"
        },
        {
          "internalType": "uint256",
          "name": "amount",
          "type": "uint256"
        },
        {
          "internalType": "bool",
          "name": "isNFT",
          "type": "bool"
        }
      ],
      "name": "_spend",
      "outputs": [
        {
          "internalType": "bool",
          "name": "",
          "type": "bool"
        }
      ],
      "stateMutability": "nonpayable",
      "type": "function"
    },
    {
      "inputs": [
        {
          "internalType": "address",
          "name": "owner",
          "type": "address"
        },
        {
          "internalType": "address",
          "name": "spender",
          "type": "address"
        }
      ],
      "name": "allowance",
      "outputs": [
        {
          "internalType": "uint256",
          "name": "",
          "type": "uint256"
        }
      ],
      "stateMutability": "view",
      "type": "function"
    },
    {
      "inputs": [
        {
          "internalType": "address",
          "name": "spender",
          "type": "address"
        },
        {
          "internalType": "uint256",
          "name": "amount",
          "type": "uint256"
        }
      ],
      "name": "approve",
      "outputs": [
        {
          "internalType": "bool",
          "name": "",
          "type": "bool"
        }
      ],
      "stateMutability": "nonpayable",
      "type": "function"
    },
    {
      "inputs": [
        {
          "internalType": "address",
          "name": "account",
          "type": "address"
        }
      ],
      "name": "balanceOf",
      "outputs": [
        {
          "internalType": "uint256",
          "name": "",
          "type": "uint256"
        }
      ],
      "stateMutability": "view",
      "type": "function"
    },
    {
      "inputs": [
        {
          "internalType": "uint256",
          "name": "amount",
          "type": "uint256"
        }
      ],
      "name": "burn",
      "outputs": [],
      "stateMutability": "nonpayable",
      "type": "function"
    },
    {
      "inputs": [
        {
          "internalType": "address",
          "name": "account",
          "type": "address"
        },
        {
          "internalType": "uint256",
          "name": "amount",
          "type": "uint256"
        }
      ],
      "name": "burnFrom",
      "outputs": [],
      "stateMutability": "nonpayable",
      "type": "function"
    },
    {
      "inputs": [],
      "name": "decimals",
      "outputs": [
        {
          "internalType": "uint8",
          "name": "",
          "type": "uint8"
        }
      ],
      "stateMutability": "view",
      "type": "function"
    },
    {
      "inputs": [
        {
          "internalType": "address",
          "name": "spender",
          "type": "address"
        },
        {
          "internalType": "uint256",
          "name": "subtractedValue",
          "type": "uint256"
        }
      ],
      "name": "decreaseAllowance",
      "outputs": [
        {
          "internalType": "bool",
          "name": "",
          "type": "bool"
        }
      ],
      "stateMutability": "nonpayable",
      "type": "function"
    },
    {
      "inputs": [],
      "name": "getNFTRegistery",
      "outputs": [
        {
          "internalType": "address",
          "name": "",
          "type": "address"
        }
      ],
      "stateMutability": "view",
      "type": "function"
    },
    {
      "inputs": [
        {
          "internalType": "bytes32",
          "name": "role",
          "type": "bytes32"
        }
      ],
      "name": "getRoleAdmin",
      "outputs": [
        {
          "internalType": "bytes32",
          "name": "",
          "type": "bytes32"
        }
      ],
      "stateMutability": "view",
      "type": "function"
    },
    {
      "inputs": [
        {
          "internalType": "bytes32",
          "name": "role",
          "type": "bytes32"
        },
        {
          "internalType": "uint256",
          "name": "index",
          "type": "uint256"
        }
      ],
      "name": "getRoleMember",
      "outputs": [
        {
          "internalType": "address",
          "name": "",
          "type": "address"
        }
      ],
      "stateMutability": "view",
      "type": "function"
    },
    {
      "inputs": [
        {
          "internalType": "bytes32",
          "name": "role",
          "type": "bytes32"
        }
      ],
      "name": "getRoleMemberCount",
      "outputs": [
        {
          "internalType": "uint256",
          "name": "",
          "type": "uint256"
        }
      ],
      "stateMutability": "view",
      "type": "function"
    },
    {
      "inputs": [
        {
          "internalType": "bytes32",
          "name": "role",
          "type": "bytes32"
        },
        {
          "internalType": "address",
          "name": "account",
          "type": "address"
        }
      ],
      "name": "grantRole",
      "outputs": [],
      "stateMutability": "nonpayable",
      "type": "function"
    },
    {
      "inputs": [
        {
          "internalType": "bytes32",
          "name": "role",
          "type": "bytes32"
        },
        {
          "internalType": "address",
          "name": "account",
          "type": "address"
        }
      ],
      "name": "hasRole",
      "outputs": [
        {
          "internalType": "bool",
          "name": "",
          "type": "bool"
        }
      ],
      "stateMutability": "view",
      "type": "function"
    },
    {
      "inputs": [
        {
          "internalType": "address",
          "name": "spender",
          "type": "address"
        },
        {
          "internalType": "uint256",
          "name": "addedValue",
          "type": "uint256"
        }
      ],
      "name": "increaseAllowance",
      "outputs": [
        {
          "internalType": "bool",
          "name": "",
          "type": "bool"
        }
      ],
      "stateMutability": "nonpayable",
      "type": "function"
    },
    {
      "inputs": [],
      "name": "name",
      "outputs": [
        {
          "internalType": "string",
          "name": "",
          "type": "string"
        }
      ],
      "stateMutability": "view",
      "type": "function"
    },
    {
      "inputs": [],
      "name": "paused",
      "outputs": [
        {
          "internalType": "bool",
          "name": "",
          "type": "bool"
        }
      ],
      "stateMutability": "view",
      "type": "function"
    },
    {
      "inputs": [
        {
          "internalType": "bytes32",
          "name": "role",
          "type": "bytes32"
        },
        {
          "internalType": "address",
          "name": "account",
          "type": "address"
        }
      ],
      "name": "renounceRole",
      "outputs": [],
      "stateMutability": "nonpayable",
      "type": "function"
    },
    {
      "inputs": [
        {
          "internalType": "bytes32",
          "name": "role",
          "type": "bytes32"
        },
        {
          "internalType": "address",
          "name": "account",
          "type": "address"
        }
      ],
      "name": "revokeRole",
      "outputs": [],
      "stateMutability": "nonpayable",
      "type": "function"
    },
    {
      "inputs": [
        {
          "internalType": "address",
          "name": "NFTRegistery",
          "type": "address"
        }
      ],
      "name": "setNFTRegistery",
      "outputs": [],
      "stateMutability": "nonpayable",
      "type": "function"
    },
    {
      "inputs": [
        {
          "internalType": "uint256",
          "name": "tokenId",
          "type": "uint256"
        },
        {
          "internalType": "address",
          "name": "from",
          "type": "address"
        },
        {
          "internalType": "uint256",
          "name": "amount",
          "type": "uint256"
        }
      ],
      "name": "spendFrom",
      "outputs": [
        {
          "internalType": "bool",
          "name": "",
          "type": "bool"
        }
      ],
      "stateMutability": "nonpayable",
      "type": "function"
    },
    {
      "inputs": [
        {
          "internalType": "address",
          "name": "from",
          "type": "address"
        },
        {
          "internalType": "uint256",
          "name": "amount",
          "type": "uint256"
        }
      ],
      "name": "spendFrom",
      "outputs": [
        {
          "internalType": "bool",
          "name": "",
          "type": "bool"
        }
      ],
      "stateMutability": "nonpayable",
      "type": "function"
    },
    {
      "inputs": [
        {
          "internalType": "bytes4",
          "name": "interfaceId",
          "type": "bytes4"
        }
      ],
      "name": "supportsInterface",
      "outputs": [
        {
          "internalType": "bool",
          "name": "",
          "type": "bool"
        }
      ],
      "stateMutability": "view",
      "type": "function"
    },
    {
      "inputs": [],
      "name": "symbol",
      "outputs": [
        {
          "internalType": "string",
          "name": "",
          "type": "string"
        }
      ],
      "stateMutability": "view",
      "type": "function"
    },
    {
      "inputs": [],
      "name": "totalSupply",
      "outputs": [
        {
          "internalType": "uint256",
          "name": "",
          "type": "uint256"
        }
      ],
      "stateMutability": "view",
      "type": "function"
    },
    {
      "inputs": [
        {
          "internalType": "address",
          "name": "recipient",
          "type": "address"
        },
        {
          "internalType": "uint256",
          "name": "amount",
          "type": "uint256"
        }
      ],
      "name": "transfer",
      "outputs": [
        {
          "internalType": "bool",
          "name": "",
          "type": "bool"
        }
      ],
      "stateMutability": "nonpayable",
      "type": "function"
    },
    {
      "inputs": [
        {
          "internalType": "address",
          "name": "sender",
          "type": "address"
        },
        {
          "internalType": "address",
          "name": "recipient",
          "type": "address"
        },
        {
          "internalType": "uint256",
          "name": "amount",
          "type": "uint256"
        }
      ],
      "name": "transferFrom",
      "outputs": [
        {
          "internalType": "bool",
          "name": "",
          "type": "bool"
        }
      ],
      "stateMutability": "nonpayable",
      "type": "function"
    },
    {
      "inputs": [
        {
          "internalType": "address",
          "name": "to",
          "type": "address"
        },
        {
          "internalType": "uint256",
          "name": "amount",
          "type": "uint256"
        }
      ],
      "name": "mint",
      "outputs": [],
      "stateMutability": "nonpayable",
      "type": "function"
    },
    {
      "inputs": [],
      "name": "pause",
      "outputs": [],
      "stateMutability": "nonpayable",
      "type": "function"
    },
    {
      "inputs": [],
      "name": "unpause",
      "outputs": [],
      "stateMutability": "nonpayable",
      "type": "function"
    }
  ],
  "bytecode": "0x60806040523480156200001157600080fd5b506040516200264838038062002648833981016040819052620000349162000435565b8151829082906200004d906007906020850190620002e4565b50805162000063906008906020840190620002e4565b505060058054600160a060020a03191633179055506009805460ff19169055620000aa60006200009b64010000000062000122810204565b64010000000062000126810204565b620000e27f9f2df0fed2c77648de5860a4cc508cd0818c85b8b8a1ab4ceeef8d981c8956a66200009b64010000000062000122810204565b6200011a7f65d7a28e3265b37a6474929f336521b332c1681b933f6cb9f3376673440d862a6200009b64010000000062000122810204565b505062000521565b3390565b62000140828264010000000062000b406200016d82021704565b600082815260016020526040902062000168908264010000000062000b4a6200018682021704565b505050565b620001828282640100000000620001af810204565b5050565b6000620001a683600160a060020a0384166401000000006200024b810204565b90505b92915050565b620001c48282640100000000620002a3810204565b6200018257600082815260208181526040808320600160a060020a03851684529091529020805460ff191660011790556200020764010000000062000122810204565b600160a060020a031681600160a060020a0316837f2f8788117e7eff1d82e926ec794901d17c78024a50270940304540a733656f0d60405160405180910390a45050565b6000620002628383640100000000620002cc810204565b6200029a57508154600181810184556000848152602080822090930184905584548482528286019093526040902091909155620001a9565b506000620001a9565b600091825260208281526040808420600160a060020a0393909316845291905290205460ff1690565b60009081526001919091016020526040902054151590565b828054620002f2906200049c565b90600052602060002090601f01602090048101928262000316576000855562000361565b82601f106200033157805160ff191683800117855562000361565b8280016001018555821562000361579182015b828111156200036157825182559160200191906001019062000344565b506200036f92915062000373565b5090565b5b808211156200036f576000815560010162000374565b600082601f8301126200039b578081fd5b81516001604060020a0380821115620003b857620003b8620004f2565b6040516020601f8401601f1916820181018381118382101715620003e057620003e0620004f2565b6040528382528584018101871015620003f7578485fd5b8492505b838310156200041a5785830181015182840182015291820191620003fb565b838311156200042b57848185840101525b5095945050505050565b6000806040838503121562000448578182fd5b82516001604060020a03808211156200045f578384fd5b6200046d868387016200038a565b9350602085015191508082111562000483578283fd5b5062000492858286016200038a565b9150509250929050565b600281046001821680620004b157607f821691505b60208210811415620004ec577f4e487b7100000000000000000000000000000000000000000000000000000000600052602260045260246000fd5b50919050565b7f4e487b7100000000000000000000000000000000000000000000000000000000600052604160045260246000fd5b61211780620005316000396000f3fe608060405234801561001057600080fd5b5060043610610218576000357c0100000000000000000000000000000000000000000000000000000000900480636aade28811610137578063a457c2d7116100ca578063ca15c87311610099578063ca15c8731461041a578063d53913931461042d578063d547741f14610435578063dd62ed3e14610448578063e63ab1e91461045b57610218565b8063a457c2d7146103ce578063a7fa5e11146103e1578063a9059cbb146103f4578063c42d355e1461040757610218565b80639010d07c116101065780639010d07c1461039857806391d14854146103ab57806395d89b41146103be578063a217fddf146103c657610218565b80636aade2881461035757806370a082311461036a57806379cc67901461037d5780638456cb591461039057610218565b8063313ce567116101af578063407ae7bf1161017e578063407ae7bf1461031457806340c10f191461032957806342966c681461033c5780635c975abb1461034f57610218565b8063313ce567146102d157806336568abe146102e657806339509351146102f95780633f4ba83a1461030c57610218565b806318160ddd116101eb57806318160ddd1461028157806323b872dd14610296578063248a9ca3146102a95780632f2ff15d146102bc57610218565b806301f07a3b1461021d57806301ffc9a71461024657806306fdde0314610259578063095ea7b31461026e575b600080fd5b61023061022b3660046117fc565b610463565b60405161023d9190611900565b60405180910390f35b6102306102543660046117d4565b61047a565b6102616104c0565b60405161023d9190611914565b61023061027c366004611750565b610552565b610289610570565b60405161023d919061190b565b6102306102a4366004611715565b610576565b6102896102b7366004611779565b610612565b6102cf6102ca366004611791565b610627565b005b6102d961064e565b60405161023d9190611fcb565b6102cf6102f4366004611791565b610653565b610230610307366004611750565b610675565b6102cf6106c9565b61031c61071e565b60405161023d91906118ec565b6102cf610337366004611750565b61072d565b6102cf61034a366004611779565b610786565b61023061079a565b610230610365366004611750565b6107a3565b6102896103783660046116c9565b6107ba565b6102cf61038b366004611750565b6107d5565b6102cf610826565b61031c6103a63660046117b3565b610879565b6102306103b9366004611791565b610891565b6102616108ba565b6102896108c9565b6102306103dc366004611750565b6108ce565b6102cf6103ef3660046116c9565b61094a565b610230610402366004611750565b6109a6565b610230610415366004611820565b6109ba565b610289610428366004611779565b610aac565b610289610ac3565b6102cf610443366004611791565b610ae7565b6102896104563660046116e3565b610af1565b610289610b1c565b600061047284848460006109ba565b949350505050565b6000600160e060020a031982167f5a05180f0000000000000000000000000000000000000000000000000000000014806104b857506104b882610b5f565b90505b919050565b6060600780546104cf9061206a565b80601f01602080910402602001604051908101604052809291908181526020018280546104fb9061206a565b80156105485780601f1061051d57610100808354040283529160200191610548565b820191906000526020600020905b81548152906001019060200180831161052b57829003601f168201915b5050505050905090565b600061056661055f610b9d565b8484610ba1565b5060015b92915050565b60045490565b6000610583848484610c5b565b600160a060020a0384166000908152600360205260408120816105a4610b9d565b600160a060020a0316600160a060020a03168152602001908152602001600020549050828110156105f35760405160e560020a62461bcd0281526004016105ea90611bf2565b60405180910390fd5b610607856105ff610b9d565b858403610ba1565b506001949350505050565b60009081526020819052604090206001015490565b6106318282610d7c565b60008281526001602052604090206106499082610b4a565b505050565b601290565b61065d8282610da0565b60008281526001602052604090206106499082610de5565b6000610566610682610b9d565b848460036000610690610b9d565b600160a060020a03908116825260208083019390935260409182016000908120918b16815292529020546106c49190611fd9565b610ba1565b6106f57f65d7a28e3265b37a6474929f336521b332c1681b933f6cb9f3376673440d862a6103b9610b9d565b6107145760405160e560020a62461bcd0281526004016105ea90611a6d565b61071c610dfa565b565b600654600160a060020a031690565b6107597f9f2df0fed2c77648de5860a4cc508cd0818c85b8b8a1ab4ceeef8d981c8956a66103b9610b9d565b6107785760405160e560020a62461bcd0281526004016105ea90611c4f565b6107828282610e6b565b5050565b610797610791610b9d565b82610f24565b50565b60095460ff1690565b60006107b36000848460016109ba565b9392505050565b600160a060020a031660009081526002602052604090205490565b60006107e383610456610b9d565b9050818110156108085760405160e560020a62461bcd0281526004016105ea90611cac565b61081c83610814610b9d565b848403610ba1565b6106498383610f24565b6108527f65d7a28e3265b37a6474929f336521b332c1681b933f6cb9f3376673440d862a6103b9610b9d565b6108715760405160e560020a62461bcd0281526004016105ea90611e20565b61071c611009565b60008281526001602052604081206107b39083611067565b600091825260208281526040808420600160a060020a0393909316845291905290205460ff1690565b6060600880546104cf9061206a565b600081565b600080600360006108dd610b9d565b600160a060020a039081168252602080830193909352604091820160009081209188168152925290205490508281101561092c5760405160e560020a62461bcd0281526004016105ea90611e7d565b610940610937610b9d565b85858403610ba1565b5060019392505050565b600554600160a060020a031633146109775760405160e560020a62461bcd0281526004016105ea90611bbb565b6006805473ffffffffffffffffffffffffffffffffffffffff1916600160a060020a0392909216919091179055565b60006105666109b3610b9d565b8484610c5b565b600060045483106109ca57600080fd5b600160a060020a03841660009081526002602052604090205483106109ee57600080fd5b8115610a0b57600654600160a060020a03163314610a0b57600080fd5b600160a060020a038416600090815260026020526040902054610a2f908490612010565b600160a060020a038516600090815260026020526040808220929092553381522054610a5c908490611fd9565b3360008181526002602052604090819020929092559051600160a060020a038616906000805160206120c283398151915290610a9990879061190b565b60405180910390a3506001949350505050565b60008181526001602052604081206104b890611073565b7f9f2df0fed2c77648de5860a4cc508cd0818c85b8b8a1ab4ceeef8d981c8956a681565b61065d828261107e565b600160a060020a03918216600090815260036020908152604080832093909416825291909152205490565b7f65d7a28e3265b37a6474929f336521b332c1681b933f6cb9f3376673440d862a81565b610782828261109d565b60006107b383600160a060020a038416611122565b6000600160e060020a031982167f7965db0b0000000000000000000000000000000000000000000000000000000014806104b857506104b88261116c565b3390565b600160a060020a038316610bca5760405160e560020a62461bcd0281526004016105ea90611dc3565b600160a060020a038216610bf35760405160e560020a62461bcd0281526004016105ea90611aca565b600160a060020a0380841660008181526003602090815260408083209487168084529490915290819020849055517f8c5be1e5ebec7d5bd14f71427d1e84f3dd0314c0f7b2291e5b200ac8c7c3b92590610c4e90859061190b565b60405180910390a3505050565b600160a060020a038316610c845760405160e560020a62461bcd0281526004016105ea90611d66565b600160a060020a038216610cad5760405160e560020a62461bcd0281526004016105ea9061197c565b610cb883838361119e565b600160a060020a03831660009081526002602052604090205481811015610cf45760405160e560020a62461bcd0281526004016105ea90611b27565b600160a060020a03808516600090815260026020526040808220858503905591851681529081208054849290610d2b908490611fd9565b9250508190555082600160a060020a031684600160a060020a03166000805160206120c283398151915284604051610d63919061190b565b60405180910390a3610d76848484610649565b50505050565b610d8582610612565b610d9681610d91610b9d565b6111a9565b610649838361109d565b610da8610b9d565b600160a060020a031681600160a060020a031614610ddb5760405160e560020a62461bcd0281526004016105ea90611eda565b6107828282611210565b60006107b383600160a060020a038416611293565b610e0261079a565b610e215760405160e560020a62461bcd0281526004016105ea906119d9565b6009805460ff191690557f5db9ee0a495bf2e6ff9c91a7834c1ba4fdd244a5e8aa4e537bd38aeae4b073aa610e54610b9d565b604051610e6191906118ec565b60405180910390a1565b600160a060020a038216610e945760405160e560020a62461bcd0281526004016105ea90611f37565b610ea06000838361119e565b8060046000828254610eb29190611fd9565b9091555050600160a060020a03821660009081526002602052604081208054839290610edf908490611fd9565b9091555050604051600160a060020a038316906000906000805160206120c283398151915290610f1090859061190b565b60405180910390a361078260008383610649565b600160a060020a038216610f4d5760405160e560020a62461bcd0281526004016105ea90611d09565b610f598260008361119e565b600160a060020a03821660009081526002602052604090205481811015610f955760405160e560020a62461bcd0281526004016105ea90611a10565b600160a060020a0383166000908152600260205260408120838303905560048054849290610fc4908490612010565b9091555050604051600090600160a060020a038516906000805160206120c283398151915290610ff590869061190b565b60405180910390a361064983600084610649565b61101161079a565b156110315760405160e560020a62461bcd0281526004016105ea90611b84565b6009805460ff191660011790557f62e78cea01bee320cd4e420270b5ea74000d11b0c9f74754ebdbfc544b05a258610e54610b9d565b60006107b383836113b9565b60006104b8826113f4565b61108782610612565b61109381610d91610b9d565b6106498383611210565b6110a78282610891565b61078257600082815260208181526040808320600160a060020a03851684529091529020805460ff191660011790556110de610b9d565b600160a060020a031681600160a060020a0316837f2f8788117e7eff1d82e926ec794901d17c78024a50270940304540a733656f0d60405160405180910390a45050565b600061112e83836113f8565b6111645750815460018181018455600084815260208082209093018490558454848252828601909352604090209190915561056a565b50600061056a565b600160e060020a031981167f01ffc9a70000000000000000000000000000000000000000000000000000000014919050565b610649838383611410565b6111b38282610891565b610782576111cb81600160a060020a03166014611443565b6111d6836020611443565b6040516020016111e792919061186b565b60408051601f198184030181529082905260e560020a62461bcd0282526105ea91600401611914565b61121a8282610891565b1561078257600082815260208181526040808320600160a060020a03851684529091529020805460ff1916905561124f610b9d565b600160a060020a031681600160a060020a0316837ff6391f5c32d9c69d2a47ea670b442974b53935d1edc7fd64eb21e047a839171b60405160405180910390a45050565b600081815260018301602052604081205480156113af5760006112b7600183612010565b85549091506000906112cb90600190612010565b90508181146113525760008660000182815481106112fc5760e060020a634e487b7102600052603260045260246000fd5b90600052602060002001549050808760000184815481106113305760e060020a634e487b7102600052603260045260246000fd5b6000918252602080832090910192909255918252600188019052604090208390555b85548690806113745760e060020a634e487b7102600052603160045260246000fd5b60019003818190600052602060002001600090559055856001016000868152602001908152602001600020600090556001935050505061056a565b600091505061056a565b60008260000182815481106113e15760e060020a634e487b7102600052603260045260246000fd5b9060005260206000200154905092915050565b5490565b60009081526001919091016020526040902054151590565b61141b838383610649565b61142361079a565b156106495760405160e560020a62461bcd0281526004016105ea90611f6e565b60606000611452836002611ff1565b61145d906002611fd9565b67ffffffffffffffff8111156114865760e060020a634e487b7102600052604160045260246000fd5b6040519080825280601f01601f1916602001820160405280156114b0576020820181803683370190505b5090507f3000000000000000000000000000000000000000000000000000000000000000816000815181106114f85760e060020a634e487b7102600052603260045260246000fd5b60200101907effffffffffffffffffffffffffffffffffffffffffffffffffffffffffffff1916908160001a9053507f78000000000000000000000000000000000000000000000000000000000000008160018151811061156c5760e060020a634e487b7102600052603260045260246000fd5b60200101907effffffffffffffffffffffffffffffffffffffffffffffffffffffffffffff1916908160001a90535060006115a8846002611ff1565b6115b3906001611fd9565b90505b6001811115611690577f303132333435363738396162636465660000000000000000000000000000000085600f16601081106116055760e060020a634e487b7102600052603260045260246000fd5b1a7f01000000000000000000000000000000000000000000000000000000000000000282828151811061164b5760e060020a634e487b7102600052603260045260246000fd5b60200101907effffffffffffffffffffffffffffffffffffffffffffffffffffffffffffff1916908160001a90535060109094049361168981612053565b90506115b6565b5083156107b35760405160e560020a62461bcd0281526004016105ea90611947565b8035600160a060020a03811681146104bb57600080fd5b6000602082840312156116da578081fd5b6107b3826116b2565b600080604083850312156116f5578081fd5b6116fe836116b2565b915061170c602084016116b2565b90509250929050565b600080600060608486031215611729578081fd5b611732846116b2565b9250611740602085016116b2565b9150604084013590509250925092565b60008060408385031215611762578182fd5b61176b836116b2565b946020939093013593505050565b60006020828403121561178a578081fd5b5035919050565b600080604083850312156117a3578182fd5b8235915061170c602084016116b2565b600080604083850312156117c5578182fd5b50508035926020909101359150565b6000602082840312156117e5578081fd5b8135600160e060020a0319811681146107b3578182fd5b600080600060608486031215611810578283fd5b83359250611740602085016116b2565b60008060008060808587031215611835578081fd5b84359350611845602086016116b2565b92506040850135915060608501358015158114611860578182fd5b939692955090935050565b60007f416363657373436f6e74726f6c3a206163636f756e7420000000000000000000825283516118a3816017850160208801612027565b7f206973206d697373696e6720726f6c652000000000000000000000000000000060179184019182015283516118e0816028840160208801612027565b01602801949350505050565b600160a060020a0391909116815260200190565b901515815260200190565b90815260200190565b6000602082528251806020840152611933816040850160208701612027565b601f01601f19169190910160400192915050565b6020808252818101527f537472696e67733a20686578206c656e67746820696e73756666696369656e74604082015260600190565b60208082526023908201527f45524332303a207472616e7366657220746f20746865207a65726f206164647260408201527f6573730000000000000000000000000000000000000000000000000000000000606082015260800190565b60208082526014908201527f5061757361626c653a206e6f7420706175736564000000000000000000000000604082015260600190565b60208082526022908201527f45524332303a206275726e20616d6f756e7420657863656564732062616c616e60408201527f6365000000000000000000000000000000000000000000000000000000000000606082015260800190565b60208082526039908201527f45524332305072657365744d696e7465725061757365723a206d75737420686160408201527f76652070617573657220726f6c6520746f20756e706175736500000000000000606082015260800190565b60208082526022908201527f45524332303a20617070726f766520746f20746865207a65726f20616464726560408201527f7373000000000000000000000000000000000000000000000000000000000000606082015260800190565b60208082526026908201527f45524332303a207472616e7366657220616d6f756e742065786365656473206260408201527f616c616e63650000000000000000000000000000000000000000000000000000606082015260800190565b60208082526010908201527f5061757361626c653a2070617573656400000000000000000000000000000000604082015260600190565b60208082526015908201527f6f6e6c79206f776e65722063616e206368616e67650000000000000000000000604082015260600190565b60208082526028908201527f45524332303a207472616e7366657220616d6f756e742065786365656473206160408201527f6c6c6f77616e6365000000000000000000000000000000000000000000000000606082015260800190565b60208082526036908201527f45524332305072657365744d696e7465725061757365723a206d75737420686160408201527f7665206d696e74657220726f6c6520746f206d696e7400000000000000000000606082015260800190565b60208082526024908201527f45524332303a206275726e20616d6f756e74206578636565647320616c6c6f7760408201527f616e636500000000000000000000000000000000000000000000000000000000606082015260800190565b60208082526021908201527f45524332303a206275726e2066726f6d20746865207a65726f2061646472657360408201527f7300000000000000000000000000000000000000000000000000000000000000606082015260800190565b60208082526025908201527f45524332303a207472616e736665722066726f6d20746865207a65726f20616460408201527f6472657373000000000000000000000000000000000000000000000000000000606082015260800190565b60208082526024908201527f45524332303a20617070726f76652066726f6d20746865207a65726f2061646460408201527f7265737300000000000000000000000000000000000000000000000000000000606082015260800190565b60208082526037908201527f45524332305072657365744d696e7465725061757365723a206d75737420686160408201527f76652070617573657220726f6c6520746f207061757365000000000000000000606082015260800190565b60208082526025908201527f45524332303a2064656372656173656420616c6c6f77616e63652062656c6f7760408201527f207a65726f000000000000000000000000000000000000000000000000000000606082015260800190565b6020808252602f908201527f416363657373436f6e74726f6c3a2063616e206f6e6c792072656e6f756e636560408201527f20726f6c657320666f722073656c660000000000000000000000000000000000606082015260800190565b6020808252601f908201527f45524332303a206d696e7420746f20746865207a65726f206164647265737300604082015260600190565b6020808252602a908201527f45524332305061757361626c653a20746f6b656e207472616e7366657220776860408201527f696c652070617573656400000000000000000000000000000000000000000000606082015260800190565b60ff91909116815260200190565b60008219821115611fec57611fec6120a8565b500190565b600081600019048311821515161561200b5761200b6120a8565b500290565b600082821015612022576120226120a8565b500390565b60005b8381101561204257818101518382015260200161202a565b83811115610d765750506000910152565b600081612062576120626120a8565b506000190190565b60028104600182168061207e57607f821691505b602082108114156120a25760e060020a634e487b7102600052602260045260246000fd5b50919050565b60e060020a634e487b7102600052601160045260246000fdfeddf252ad1be2c89b69c2b068fc378daa952ba7f163c4a11628f55a4df523b3efa26469706673582212203008d4653ac94104000f608ba63235253a7403df529908033e720f2f97483c1864736f6c63430008000033",
  "immutableReferences": {},
  "source": "// SPDX-License-Identifier: MIT\n\npragma solidity ^0.8.0;\n\nimport \"../ERC20.sol\";\nimport \"../extensions/ERC20Burnable.sol\";\nimport \"../extensions/ERC20Pausable.sol\";\nimport \"../../access/AccessControlEnumerable.sol\";\nimport \"../../utils/Context.sol\";\n\n/**\n * @dev {ERC20} token, including:\n *\n *  - ability for holders to burn (destroy) their tokens\n *  - a minter role that allows for token minting (creation)\n *  - a pauser role that allows to stop all token transfers\n *\n * This contract uses {AccessControl} to lock permissioned functions using the\n * different roles - head to its documentation for details.\n *\n * The account that deploys the contract will be granted the minter and pauser\n * roles, as well as the default admin role, which will let it grant both minter\n * and pauser roles to other accounts.\n */\ncontract ERC20PresetMinterPauser is Context, AccessControlEnumerable, ERC20Burnable, ERC20Pausable {\n    bytes32 public constant MINTER_ROLE = keccak256(\"MINTER_ROLE\");\n    bytes32 public constant PAUSER_ROLE = keccak256(\"PAUSER_ROLE\");\n\n    /**\n     * @dev Grants `DEFAULT_ADMIN_ROLE`, `MINTER_ROLE` and `PAUSER_ROLE` to the\n     * account that deploys the contract.\n     *\n     * See {ERC20-constructor}.\n     */\n    constructor(string memory name, string memory symbol) ERC20(name, symbol) {\n        _setupRole(DEFAULT_ADMIN_ROLE, _msgSender());\n\n        _setupRole(MINTER_ROLE, _msgSender());\n        _setupRole(PAUSER_ROLE, _msgSender());\n    }\n\n    /**\n     * @dev Creates `amount` new tokens for `to`.\n     *\n     * See {ERC20-_mint}.\n     *\n     * Requirements:\n     *\n     * - the caller must have the `MINTER_ROLE`.\n     */\n    function mint(address to, uint256 amount) public virtual {\n        require(hasRole(MINTER_ROLE, _msgSender()), \"ERC20PresetMinterPauser: must have minter role to mint\");\n        _mint(to, amount);\n    }\n\n    /**\n     * @dev Pauses all token transfers.\n     *\n     * See {ERC20Pausable} and {Pausable-_pause}.\n     *\n     * Requirements:\n     *\n     * - the caller must have the `PAUSER_ROLE`.\n     */\n    function pause() public virtual {\n        require(hasRole(PAUSER_ROLE, _msgSender()), \"ERC20PresetMinterPauser: must have pauser role to pause\");\n        _pause();\n    }\n\n    /**\n     * @dev Unpauses all token transfers.\n     *\n     * See {ERC20Pausable} and {Pausable-_unpause}.\n     *\n     * Requirements:\n     *\n     * - the caller must have the `PAUSER_ROLE`.\n     */\n    function unpause() public virtual {\n        require(hasRole(PAUSER_ROLE, _msgSender()), \"ERC20PresetMinterPauser: must have pauser role to unpause\");\n        _unpause();\n    }\n\n    function _beforeTokenTransfer(\n        address from,\n        address to,\n        uint256 amount\n    ) internal virtual override(ERC20, ERC20Pausable) {\n        super._beforeTokenTransfer(from, to, amount);\n    }\n}",
  "sourcePath": "/Volumes/Transcend/Projects/DappsLab/Lottery-Smart-Contract/contracts/customERC20ERC721/ERC20/presets/ERC20PresetMinterPauser.sol",
  "compiler": {
    "name": "solc",
    "version": "0.8.0+commit.c7dfd78e.Emscripten.clang"
  },
  "schemaVersion": "3.4.3",
  "updatedAt": "2022-01-03T11:03:02.477Z",
  "devdoc": {
    "details": "{ERC20} token, including:  - ability for holders to burn (destroy) their tokens  - a minter role that allows for token minting (creation)  - a pauser role that allows to stop all token transfers This contract uses {AccessControl} to lock permissioned functions using the different roles - head to its documentation for details. The account that deploys the contract will be granted the minter and pauser roles, as well as the default admin role, which will let it grant both minter and pauser roles to other accounts.",
    "kind": "dev",
    "methods": {
      "allowance(address,address)": {
        "details": "See {IERC20-allowance}."
      },
      "approve(address,uint256)": {
        "details": "See {IERC20-approve}. Requirements: - `spender` cannot be the zero address."
      },
      "balanceOf(address)": {
        "details": "See {IERC20-balanceOf}."
      },
      "burn(uint256)": {
        "details": "Destroys `amount` tokens from the caller. See {ERC20-_burn}."
      },
      "burnFrom(address,uint256)": {
        "details": "Destroys `amount` tokens from `account`, deducting from the caller's allowance. See {ERC20-_burn} and {ERC20-allowance}. Requirements: - the caller must have allowance for ``accounts``'s tokens of at least `amount`."
      },
      "constructor": {
        "details": "Grants `DEFAULT_ADMIN_ROLE`, `MINTER_ROLE` and `PAUSER_ROLE` to the account that deploys the contract. See {ERC20-constructor}."
      },
      "decimals()": {
        "details": "Returns the number of decimals used to get its user representation. For example, if `decimals` equals `2`, a balance of `505` tokens should be displayed to a user as `5,05` (`505 / 10 ** 2`). Tokens usually opt for a value of 18, imitating the relationship between Ether and Wei. This is the value {ERC20} uses, unless this function is overridden; NOTE: This information is only used for _display_ purposes: it in no way affects any of the arithmetic of the contract, including {IERC20-balanceOf} and {IERC20-transfer}."
      },
      "decreaseAllowance(address,uint256)": {
        "details": "Atomically decreases the allowance granted to `spender` by the caller. This is an alternative to {approve} that can be used as a mitigation for problems described in {IERC20-approve}. Emits an {Approval} event indicating the updated allowance. Requirements: - `spender` cannot be the zero address. - `spender` must have allowance for the caller of at least `subtractedValue`."
      },
      "getNFTRegistery()": {
        "details": "Returns the NFTRegistery of the token."
      },
      "getRoleAdmin(bytes32)": {
        "details": "Returns the admin role that controls `role`. See {grantRole} and {revokeRole}. To change a role's admin, use {_setRoleAdmin}."
      },
      "getRoleMember(bytes32,uint256)": {
        "details": "Returns one of the accounts that have `role`. `index` must be a value between 0 and {getRoleMemberCount}, non-inclusive. Role bearers are not sorted in any particular way, and their ordering may change at any point. WARNING: When using {getRoleMember} and {getRoleMemberCount}, make sure you perform all queries on the same block. See the following https://forum.openzeppelin.com/t/iterating-over-elements-on-enumerableset-in-openzeppelin-contracts/2296[forum post] for more information."
      },
      "getRoleMemberCount(bytes32)": {
        "details": "Returns the number of accounts that have `role`. Can be used together with {getRoleMember} to enumerate all bearers of a role."
      },
      "grantRole(bytes32,address)": {
        "details": "Overload {grantRole} to track enumerable memberships"
      },
      "hasRole(bytes32,address)": {
        "details": "Returns `true` if `account` has been granted `role`."
      },
      "increaseAllowance(address,uint256)": {
        "details": "Atomically increases the allowance granted to `spender` by the caller. This is an alternative to {approve} that can be used as a mitigation for problems described in {IERC20-approve}. Emits an {Approval} event indicating the updated allowance. Requirements: - `spender` cannot be the zero address."
      },
      "mint(address,uint256)": {
        "details": "Creates `amount` new tokens for `to`. See {ERC20-_mint}. Requirements: - the caller must have the `MINTER_ROLE`."
      },
      "name()": {
        "details": "Returns the name of the token."
      },
      "pause()": {
        "details": "Pauses all token transfers. See {ERC20Pausable} and {Pausable-_pause}. Requirements: - the caller must have the `PAUSER_ROLE`."
      },
      "paused()": {
        "details": "Returns true if the contract is paused, and false otherwise."
      },
      "renounceRole(bytes32,address)": {
        "details": "Overload {renounceRole} to track enumerable memberships"
      },
      "revokeRole(bytes32,address)": {
        "details": "Overload {revokeRole} to track enumerable memberships"
      },
      "supportsInterface(bytes4)": {
        "details": "See {IERC165-supportsInterface}."
      },
      "symbol()": {
        "details": "Returns the symbol of the token, usually a shorter version of the name."
      },
      "totalSupply()": {
        "details": "See {IERC20-totalSupply}."
      },
      "transfer(address,uint256)": {
        "details": "See {IERC20-transfer}. Requirements: - `recipient` cannot be the zero address. - the caller must have a balance of at least `amount`."
      },
      "transferFrom(address,address,uint256)": {
        "details": "See {IERC20-transferFrom}. Emits an {Approval} event indicating the updated allowance. This is not required by the EIP. See the note at the beginning of {ERC20}. Requirements: - `sender` and `recipient` cannot be the zero address. - `sender` must have a balance of at least `amount`. - the caller must have allowance for ``sender``'s tokens of at least `amount`."
      },
      "unpause()": {
        "details": "Unpauses all token transfers. See {ERC20Pausable} and {Pausable-_unpause}. Requirements: - the caller must have the `PAUSER_ROLE`."
      }
    },
    "version": 1
  },
  "userdoc": {
    "kind": "user",
    "methods": {},
    "version": 1
  }
}