{
  "contractName": "ERC20PresetMinterPauser",
  "abi": [
    {
      "inputs": [
        {
          "internalType": "string",
          "name": "name",
          "type": "string"
        },
        {
          "internalType": "string",
          "name": "symbol",
          "type": "string"
        }
      ],
      "stateMutability": "nonpayable",
      "type": "constructor"
    },
    {
      "anonymous": false,
      "inputs": [
        {
          "indexed": true,
          "internalType": "address",
          "name": "owner",
          "type": "address"
        },
        {
          "indexed": true,
          "internalType": "address",
          "name": "spender",
          "type": "address"
        },
        {
          "indexed": false,
          "internalType": "uint256",
          "name": "value",
          "type": "uint256"
        }
      ],
      "name": "Approval",
      "type": "event"
    },
    {
      "anonymous": false,
      "inputs": [
        {
          "indexed": false,
          "internalType": "address",
          "name": "account",
          "type": "address"
        }
      ],
      "name": "Paused",
      "type": "event"
    },
    {
      "anonymous": false,
      "inputs": [
        {
          "indexed": true,
          "internalType": "bytes32",
          "name": "role",
          "type": "bytes32"
        },
        {
          "indexed": true,
          "internalType": "bytes32",
          "name": "previousAdminRole",
          "type": "bytes32"
        },
        {
          "indexed": true,
          "internalType": "bytes32",
          "name": "newAdminRole",
          "type": "bytes32"
        }
      ],
      "name": "RoleAdminChanged",
      "type": "event"
    },
    {
      "anonymous": false,
      "inputs": [
        {
          "indexed": true,
          "internalType": "bytes32",
          "name": "role",
          "type": "bytes32"
        },
        {
          "indexed": true,
          "internalType": "address",
          "name": "account",
          "type": "address"
        },
        {
          "indexed": true,
          "internalType": "address",
          "name": "sender",
          "type": "address"
        }
      ],
      "name": "RoleGranted",
      "type": "event"
    },
    {
      "anonymous": false,
      "inputs": [
        {
          "indexed": true,
          "internalType": "bytes32",
          "name": "role",
          "type": "bytes32"
        },
        {
          "indexed": true,
          "internalType": "address",
          "name": "account",
          "type": "address"
        },
        {
          "indexed": true,
          "internalType": "address",
          "name": "sender",
          "type": "address"
        }
      ],
      "name": "RoleRevoked",
      "type": "event"
    },
    {
      "anonymous": false,
      "inputs": [
        {
          "indexed": true,
          "internalType": "address",
          "name": "from",
          "type": "address"
        },
        {
          "indexed": true,
          "internalType": "address",
          "name": "to",
          "type": "address"
        },
        {
          "indexed": false,
          "internalType": "uint256",
          "name": "value",
          "type": "uint256"
        }
      ],
      "name": "Transfer",
      "type": "event"
    },
    {
      "anonymous": false,
      "inputs": [
        {
          "indexed": false,
          "internalType": "address",
          "name": "account",
          "type": "address"
        }
      ],
      "name": "Unpaused",
      "type": "event"
    },
    {
      "inputs": [],
      "name": "DEFAULT_ADMIN_ROLE",
      "outputs": [
        {
          "internalType": "bytes32",
          "name": "",
          "type": "bytes32"
        }
      ],
      "stateMutability": "view",
      "type": "function"
    },
    {
      "inputs": [],
      "name": "MINTER_ROLE",
      "outputs": [
        {
          "internalType": "bytes32",
          "name": "",
          "type": "bytes32"
        }
      ],
      "stateMutability": "view",
      "type": "function"
    },
    {
      "inputs": [],
      "name": "PAUSER_ROLE",
      "outputs": [
        {
          "internalType": "bytes32",
          "name": "",
          "type": "bytes32"
        }
      ],
      "stateMutability": "view",
      "type": "function"
    },
    {
      "inputs": [
        {
          "internalType": "uint256",
          "name": "tokenId",
          "type": "uint256"
        },
        {
          "internalType": "address",
          "name": "from",
          "type": "address"
        },
        {
          "internalType": "uint256",
          "name": "amount",
          "type": "uint256"
        },
        {
          "internalType": "bool",
          "name": "isNFT",
          "type": "bool"
        }
      ],
      "name": "_spend",
      "outputs": [
        {
          "internalType": "bool",
          "name": "",
          "type": "bool"
        }
      ],
      "stateMutability": "nonpayable",
      "type": "function"
    },
    {
      "inputs": [
        {
          "internalType": "address",
          "name": "owner",
          "type": "address"
        },
        {
          "internalType": "address",
          "name": "spender",
          "type": "address"
        }
      ],
      "name": "allowance",
      "outputs": [
        {
          "internalType": "uint256",
          "name": "",
          "type": "uint256"
        }
      ],
      "stateMutability": "view",
      "type": "function"
    },
    {
      "inputs": [
        {
          "internalType": "address",
          "name": "spender",
          "type": "address"
        },
        {
          "internalType": "uint256",
          "name": "amount",
          "type": "uint256"
        }
      ],
      "name": "approve",
      "outputs": [
        {
          "internalType": "bool",
          "name": "",
          "type": "bool"
        }
      ],
      "stateMutability": "nonpayable",
      "type": "function"
    },
    {
      "inputs": [
        {
          "internalType": "address",
          "name": "account",
          "type": "address"
        }
      ],
      "name": "balanceOf",
      "outputs": [
        {
          "internalType": "uint256",
          "name": "",
          "type": "uint256"
        }
      ],
      "stateMutability": "view",
      "type": "function"
    },
    {
      "inputs": [
        {
          "internalType": "uint256",
          "name": "amount",
          "type": "uint256"
        }
      ],
      "name": "burn",
      "outputs": [],
      "stateMutability": "nonpayable",
      "type": "function"
    },
    {
      "inputs": [
        {
          "internalType": "address",
          "name": "account",
          "type": "address"
        },
        {
          "internalType": "uint256",
          "name": "amount",
          "type": "uint256"
        }
      ],
      "name": "burnFrom",
      "outputs": [],
      "stateMutability": "nonpayable",
      "type": "function"
    },
    {
      "inputs": [],
      "name": "decimals",
      "outputs": [
        {
          "internalType": "uint8",
          "name": "",
          "type": "uint8"
        }
      ],
      "stateMutability": "view",
      "type": "function"
    },
    {
      "inputs": [
        {
          "internalType": "address",
          "name": "spender",
          "type": "address"
        },
        {
          "internalType": "uint256",
          "name": "subtractedValue",
          "type": "uint256"
        }
      ],
      "name": "decreaseAllowance",
      "outputs": [
        {
          "internalType": "bool",
          "name": "",
          "type": "bool"
        }
      ],
      "stateMutability": "nonpayable",
      "type": "function"
    },
    {
      "inputs": [
        {
          "internalType": "uint256",
          "name": "tokenId",
          "type": "uint256"
        }
      ],
      "name": "deleteAuctionAddress",
      "outputs": [],
      "stateMutability": "nonpayable",
      "type": "function"
    },
    {
      "inputs": [
        {
          "internalType": "uint256",
          "name": "tokenId",
          "type": "uint256"
        }
      ],
      "name": "getAuctionsAddress",
      "outputs": [
        {
          "internalType": "address",
          "name": "",
          "type": "address"
        }
      ],
      "stateMutability": "view",
      "type": "function"
    },
    {
      "inputs": [],
      "name": "getNFTRegistery",
      "outputs": [
        {
          "internalType": "address",
          "name": "",
          "type": "address"
        }
      ],
      "stateMutability": "view",
      "type": "function"
    },
    {
      "inputs": [
        {
          "internalType": "bytes32",
          "name": "role",
          "type": "bytes32"
        }
      ],
      "name": "getRoleAdmin",
      "outputs": [
        {
          "internalType": "bytes32",
          "name": "",
          "type": "bytes32"
        }
      ],
      "stateMutability": "view",
      "type": "function"
    },
    {
      "inputs": [
        {
          "internalType": "bytes32",
          "name": "role",
          "type": "bytes32"
        },
        {
          "internalType": "uint256",
          "name": "index",
          "type": "uint256"
        }
      ],
      "name": "getRoleMember",
      "outputs": [
        {
          "internalType": "address",
          "name": "",
          "type": "address"
        }
      ],
      "stateMutability": "view",
      "type": "function"
    },
    {
      "inputs": [
        {
          "internalType": "bytes32",
          "name": "role",
          "type": "bytes32"
        }
      ],
      "name": "getRoleMemberCount",
      "outputs": [
        {
          "internalType": "uint256",
          "name": "",
          "type": "uint256"
        }
      ],
      "stateMutability": "view",
      "type": "function"
    },
    {
      "inputs": [
        {
          "internalType": "bytes32",
          "name": "role",
          "type": "bytes32"
        },
        {
          "internalType": "address",
          "name": "account",
          "type": "address"
        }
      ],
      "name": "grantRole",
      "outputs": [],
      "stateMutability": "nonpayable",
      "type": "function"
    },
    {
      "inputs": [
        {
          "internalType": "bytes32",
          "name": "role",
          "type": "bytes32"
        },
        {
          "internalType": "address",
          "name": "account",
          "type": "address"
        }
      ],
      "name": "hasRole",
      "outputs": [
        {
          "internalType": "bool",
          "name": "",
          "type": "bool"
        }
      ],
      "stateMutability": "view",
      "type": "function"
    },
    {
      "inputs": [
        {
          "internalType": "address",
          "name": "spender",
          "type": "address"
        },
        {
          "internalType": "uint256",
          "name": "addedValue",
          "type": "uint256"
        }
      ],
      "name": "increaseAllowance",
      "outputs": [
        {
          "internalType": "bool",
          "name": "",
          "type": "bool"
        }
      ],
      "stateMutability": "nonpayable",
      "type": "function"
    },
    {
      "inputs": [],
      "name": "name",
      "outputs": [
        {
          "internalType": "string",
          "name": "",
          "type": "string"
        }
      ],
      "stateMutability": "view",
      "type": "function"
    },
    {
      "inputs": [],
      "name": "paused",
      "outputs": [
        {
          "internalType": "bool",
          "name": "",
          "type": "bool"
        }
      ],
      "stateMutability": "view",
      "type": "function"
    },
    {
      "inputs": [
        {
          "internalType": "bytes32",
          "name": "role",
          "type": "bytes32"
        },
        {
          "internalType": "address",
          "name": "account",
          "type": "address"
        }
      ],
      "name": "renounceRole",
      "outputs": [],
      "stateMutability": "nonpayable",
      "type": "function"
    },
    {
      "inputs": [
        {
          "internalType": "bytes32",
          "name": "role",
          "type": "bytes32"
        },
        {
          "internalType": "address",
          "name": "account",
          "type": "address"
        }
      ],
      "name": "revokeRole",
      "outputs": [],
      "stateMutability": "nonpayable",
      "type": "function"
    },
    {
      "inputs": [
        {
          "internalType": "uint256",
          "name": "tokenId",
          "type": "uint256"
        },
        {
          "internalType": "address",
          "name": "auctionAddress",
          "type": "address"
        }
      ],
      "name": "setAuctionsAddress",
      "outputs": [],
      "stateMutability": "nonpayable",
      "type": "function"
    },
    {
      "inputs": [
        {
          "internalType": "address",
          "name": "NFTRegistery",
          "type": "address"
        }
      ],
      "name": "setNFTRegistery",
      "outputs": [],
      "stateMutability": "nonpayable",
      "type": "function"
    },
    {
      "inputs": [
        {
          "internalType": "uint256",
          "name": "tokenId",
          "type": "uint256"
        },
        {
          "internalType": "address",
          "name": "from",
          "type": "address"
        },
        {
          "internalType": "uint256",
          "name": "amount",
          "type": "uint256"
        }
      ],
      "name": "spendFrom",
      "outputs": [
        {
          "internalType": "bool",
          "name": "",
          "type": "bool"
        }
      ],
      "stateMutability": "nonpayable",
      "type": "function"
    },
    {
      "inputs": [
        {
          "internalType": "address",
          "name": "from",
          "type": "address"
        },
        {
          "internalType": "uint256",
          "name": "amount",
          "type": "uint256"
        }
      ],
      "name": "spendFrom",
      "outputs": [
        {
          "internalType": "bool",
          "name": "",
          "type": "bool"
        }
      ],
      "stateMutability": "nonpayable",
      "type": "function"
    },
    {
      "inputs": [
        {
          "internalType": "bytes4",
          "name": "interfaceId",
          "type": "bytes4"
        }
      ],
      "name": "supportsInterface",
      "outputs": [
        {
          "internalType": "bool",
          "name": "",
          "type": "bool"
        }
      ],
      "stateMutability": "view",
      "type": "function"
    },
    {
      "inputs": [],
      "name": "symbol",
      "outputs": [
        {
          "internalType": "string",
          "name": "",
          "type": "string"
        }
      ],
      "stateMutability": "view",
      "type": "function"
    },
    {
      "inputs": [],
      "name": "totalSupply",
      "outputs": [
        {
          "internalType": "uint256",
          "name": "",
          "type": "uint256"
        }
      ],
      "stateMutability": "view",
      "type": "function"
    },
    {
      "inputs": [
        {
          "internalType": "address",
          "name": "recipient",
          "type": "address"
        },
        {
          "internalType": "uint256",
          "name": "amount",
          "type": "uint256"
        }
      ],
      "name": "transfer",
      "outputs": [
        {
          "internalType": "bool",
          "name": "",
          "type": "bool"
        }
      ],
      "stateMutability": "nonpayable",
      "type": "function"
    },
    {
      "inputs": [
        {
          "internalType": "address",
          "name": "sender",
          "type": "address"
        },
        {
          "internalType": "address",
          "name": "recipient",
          "type": "address"
        },
        {
          "internalType": "uint256",
          "name": "amount",
          "type": "uint256"
        }
      ],
      "name": "transferFrom",
      "outputs": [
        {
          "internalType": "bool",
          "name": "",
          "type": "bool"
        }
      ],
      "stateMutability": "nonpayable",
      "type": "function"
    },
    {
      "inputs": [
        {
          "internalType": "address",
          "name": "to",
          "type": "address"
        },
        {
          "internalType": "uint256",
          "name": "amount",
          "type": "uint256"
        }
      ],
      "name": "mint",
      "outputs": [],
      "stateMutability": "nonpayable",
      "type": "function"
    },
    {
      "inputs": [],
      "name": "pause",
      "outputs": [],
      "stateMutability": "nonpayable",
      "type": "function"
    },
    {
      "inputs": [],
      "name": "unpause",
      "outputs": [],
      "stateMutability": "nonpayable",
      "type": "function"
    }
  ],
  "bytecode": "0x60806040523480156200001157600080fd5b5060405162004468380380620044688339818101604052810190620000379190620005a5565b818181600890805190602001906200005192919062000483565b5080600990805190602001906200006a92919062000483565b5033600560006101000a81548173ffffffffffffffffffffffffffffffffffffffff021916908373ffffffffffffffffffffffffffffffffffffffff16021790555050506000600a60006101000a81548160ff021916908315150217905550620001006000600102620000eb620001ae640100000000026401000000009004565b620001b6640100000000026401000000009004565b620001537f9f2df0fed2c77648de5860a4cc508cd0818c85b8b8a1ab4ceeef8d981c8956a66200013e620001ae640100000000026401000000009004565b620001b6640100000000026401000000009004565b620001a67f65d7a28e3265b37a6474929f336521b332c1681b933f6cb9f3376673440d862a62000191620001ae640100000000026401000000009004565b620001b6640100000000026401000000009004565b505062000749565b600033905090565b620001d6828262000210640100000000026200166c176401000000009004565b6200020b81600160008581526020019081526020016000206200022f640100000000026200167a179091906401000000009004565b505050565b6200022b828262000270640100000000026401000000009004565b5050565b600062000268836000018373ffffffffffffffffffffffffffffffffffffffff1660010262000373640100000000026401000000009004565b905092915050565b6200028b8282620003f6640100000000026401000000009004565b6200036f57600160008084815260200190815260200160002060000160008373ffffffffffffffffffffffffffffffffffffffff1673ffffffffffffffffffffffffffffffffffffffff16815260200190815260200160002060006101000a81548160ff02191690831515021790555062000314620001ae640100000000026401000000009004565b73ffffffffffffffffffffffffffffffffffffffff168173ffffffffffffffffffffffffffffffffffffffff16837f2f8788117e7eff1d82e926ec794901d17c78024a50270940304540a733656f0d60405160405180910390a45b5050565b600062000390838362000460640100000000026401000000009004565b620003eb578260000182908060018154018082558091505060019003906000526020600020016000909190919091505582600001805490508360010160008481526020019081526020016000208190555060019050620003f0565b600090505b92915050565b600080600084815260200190815260200160002060000160008373ffffffffffffffffffffffffffffffffffffffff1673ffffffffffffffffffffffffffffffffffffffff16815260200190815260200160002060009054906101000a900460ff16905092915050565b600080836001016000848152602001908152602001600020541415905092915050565b8280546200049190620006b5565b90600052602060002090601f016020900481019282620004b5576000855562000501565b82601f10620004d057805160ff191683800117855562000501565b8280016001018555821562000501579182015b8281111562000500578251825591602001919060010190620004e3565b5b50905062000510919062000514565b5090565b5b808211156200052f57600081600090555060010162000515565b5090565b60006200054a62000544846200064c565b62000618565b9050828152602081018484840111156200056357600080fd5b620005708482856200067f565b509392505050565b600082601f8301126200058a57600080fd5b81516200059c84826020860162000533565b91505092915050565b60008060408385031215620005b957600080fd5b600083015167ffffffffffffffff811115620005d457600080fd5b620005e28582860162000578565b925050602083015167ffffffffffffffff8111156200060057600080fd5b6200060e8582860162000578565b9150509250929050565b6000604051905081810181811067ffffffffffffffff821117156200064257620006416200071a565b5b8060405250919050565b600067ffffffffffffffff8211156200066a57620006696200071a565b5b601f19601f8301169050602081019050919050565b60005b838110156200069f57808201518184015260208101905062000682565b83811115620006af576000848401525b50505050565b60006002820490506001821680620006ce57607f821691505b60208210811415620006e557620006e4620006eb565b5b50919050565b7f4e487b7100000000000000000000000000000000000000000000000000000000600052602260045260246000fd5b7f4e487b7100000000000000000000000000000000000000000000000000000000600052604160045260246000fd5b613d0f80620007596000396000f3fe608060405234801561001057600080fd5b5060043610610239576000357c01000000000000000000000000000000000000000000000000000000009004806370a0823111610142578063a457c2d7116100ca578063ca15c87311610099578063ca15c873146106a4578063d5391393146106d4578063d547741f146106f2578063dd62ed3e1461070e578063e63ab1e91461073e57610239565b8063a457c2d7146105f8578063a7fa5e1114610628578063a9059cbb14610644578063c42d355e1461067457610239565b80638456cb59116101115780638456cb59146105525780639010d07c1461055c57806391d148541461058c57806395d89b41146105bc578063a217fddf146105da57610239565b806370a08231146104ce578063746e8e70146104fe57806377df84a41461051a57806379cc67901461053657610239565b806336568abe116101c557806340c10f191161019457806340c10f191461041857806342966c681461043457806346751263146104505780635c975abb146104805780636aade2881461049e57610239565b806336568abe146103a457806339509351146103c05780633f4ba83a146103f0578063407ae7bf146103fa57610239565b806318160ddd1161020c57806318160ddd146102ec57806323b872dd1461030a578063248a9ca31461033a5780632f2ff15d1461036a578063313ce5671461038657610239565b806301f07a3b1461023e57806301ffc9a71461026e57806306fdde031461029e578063095ea7b3146102bc575b600080fd5b61025860048036038101906102539190612c8e565b61075c565b6040516102659190613684565b60405180910390f35b61028860048036038101906102839190612c00565b610774565b6040516102959190613684565b60405180910390f35b6102a66107ee565b6040516102b391906136ba565b60405180910390f35b6102d660048036038101906102d19190612b23565b610880565b6040516102e39190613684565b60405180910390f35b6102f461089e565b604051610301919061399c565b60405180910390f35b610324600480360381019061031f9190612ad4565b6108a8565b6040516103319190613684565b60405180910390f35b610354600480360381019061034f9190612b5f565b6109a0565b604051610361919061369f565b60405180910390f35b610384600480360381019061037f9190612b88565b6109bf565b005b61038e6109f3565b60405161039b91906139b7565b60405180910390f35b6103be60048036038101906103b99190612b88565b6109fc565b005b6103da60048036038101906103d59190612b23565b610a30565b6040516103e79190613684565b60405180910390f35b6103f8610adc565b005b610402610b56565b60405161040f9190613669565b60405180910390f35b610432600480360381019061042d9190612b23565b610b80565b005b61044e60048036038101906104499190612c29565b610bfe565b005b61046a60048036038101906104659190612c29565b610c12565b6040516104779190613669565b60405180910390f35b610488610c4f565b6040516104959190613684565b60405180910390f35b6104b860048036038101906104b39190612b23565b610c66565b6040516104c59190613684565b60405180910390f35b6104e860048036038101906104e39190612a6f565b610c7e565b6040516104f5919061399c565b60405180910390f35b61051860048036038101906105139190612c52565b610cc7565b005b610534600480360381019061052f9190612c29565b610dad565b005b610550600480360381019061054b9190612b23565b610e87565b005b61055a610f02565b005b61057660048036038101906105719190612bc4565b610f7c565b6040516105839190613669565b60405180910390f35b6105a660048036038101906105a19190612b88565b610fab565b6040516105b39190613684565b60405180910390f35b6105c4611015565b6040516105d191906136ba565b60405180910390f35b6105e26110a7565b6040516105ef919061369f565b60405180910390f35b610612600480360381019061060d9190612b23565b6110af565b60405161061f9190613684565b60405180910390f35b610642600480360381019061063d9190612a6f565b61119a565b005b61065e60048036038101906106599190612b23565b61126e565b60405161066b9190613684565b60405180910390f35b61068e60048036038101906106899190612cdd565b61128c565b60405161069b9190613684565b60405180910390f35b6106be60048036038101906106b99190612b5f565b611545565b6040516106cb919061399c565b60405180910390f35b6106dc611569565b6040516106e9919061369f565b60405180910390f35b61070c60048036038101906107079190612b88565b61158d565b005b61072860048036038101906107239190612a98565b6115c1565b604051610735919061399c565b60405180910390f35b610746611648565b604051610753919061369f565b60405180910390f35b600061076b848484600061128c565b90509392505050565b60007f5a05180f000000000000000000000000000000000000000000000000000000007bffffffffffffffffffffffffffffffffffffffffffffffffffffffff1916827bffffffffffffffffffffffffffffffffffffffffffffffffffffffff191614806107e757506107e6826116aa565b5b9050919050565b6060600880546107fd90613bc5565b80601f016020809104026020016040519081016040528092919081815260200182805461082990613bc5565b80156108765780601f1061084b57610100808354040283529160200191610876565b820191906000526020600020905b81548152906001019060200180831161085957829003601f168201915b5050505050905090565b600061089461088d611724565b848461172c565b6001905092915050565b6000600454905090565b60006108b58484846118f7565b6000600360008673ffffffffffffffffffffffffffffffffffffffff1673ffffffffffffffffffffffffffffffffffffffff1681526020019081526020016000206000610900611724565b73ffffffffffffffffffffffffffffffffffffffff1673ffffffffffffffffffffffffffffffffffffffff16815260200190815260200160002054905082811015610980576040517f08c379a00000000000000000000000000000000000000000000000000000000081526004016109779061381c565b60405180910390fd5b6109948561098c611724565b85840361172c565b60019150509392505050565b6000806000838152602001908152602001600020600101549050919050565b6109c98282611b7b565b6109ee816001600085815260200190815260200160002061167a90919063ffffffff16565b505050565b60006012905090565b610a068282611ba4565b610a2b8160016000858152602001908152602001600020611c2790919063ffffffff16565b505050565b6000610ad2610a3d611724565b848460036000610a4b611724565b73ffffffffffffffffffffffffffffffffffffffff1673ffffffffffffffffffffffffffffffffffffffff16815260200190815260200160002060008873ffffffffffffffffffffffffffffffffffffffff1673ffffffffffffffffffffffffffffffffffffffff16815260200190815260200160002054610acd91906139f9565b61172c565b6001905092915050565b610b0d7f65d7a28e3265b37a6474929f336521b332c1681b933f6cb9f3376673440d862a610b08611724565b610fab565b610b4c576040517f08c379a0000000000000000000000000000000000000000000000000000000008152600401610b439061375c565b60405180910390fd5b610b54611c57565b565b6000600660009054906101000a900473ffffffffffffffffffffffffffffffffffffffff16905090565b610bb17f9f2df0fed2c77648de5860a4cc508cd0818c85b8b8a1ab4ceeef8d981c8956a6610bac611724565b610fab565b610bf0576040517f08c379a0000000000000000000000000000000000000000000000000000000008152600401610be79061383c565b60405180910390fd5b610bfa8282611cf9565b5050565b610c0f610c09611724565b82611e5a565b50565b60006007600083815260200190815260200160002060009054906101000a900473ffffffffffffffffffffffffffffffffffffffff169050919050565b6000600a60009054906101000a900460ff16905090565b6000610c7660008484600161128c565b905092915050565b6000600260008373ffffffffffffffffffffffffffffffffffffffff1673ffffffffffffffffffffffffffffffffffffffff168152602001908152602001600020549050919050565b600660009054906101000a900473ffffffffffffffffffffffffffffffffffffffff1673ffffffffffffffffffffffffffffffffffffffff163373ffffffffffffffffffffffffffffffffffffffff1614610d57576040517f08c379a0000000000000000000000000000000000000000000000000000000008152600401610d4e906137fc565b60405180910390fd5b806007600084815260200190815260200160002060006101000a81548173ffffffffffffffffffffffffffffffffffffffff021916908373ffffffffffffffffffffffffffffffffffffffff1602179055505050565b6007600082815260200190815260200160002060009054906101000a900473ffffffffffffffffffffffffffffffffffffffff1673ffffffffffffffffffffffffffffffffffffffff163373ffffffffffffffffffffffffffffffffffffffff1614610e4e576040517f08c379a0000000000000000000000000000000000000000000000000000000008152600401610e45906138fc565b60405180910390fd5b6007600082815260200190815260200160002060006101000a81549073ffffffffffffffffffffffffffffffffffffffff021916905550565b6000610e9a83610e95611724565b6115c1565b905081811015610edf576040517f08c379a0000000000000000000000000000000000000000000000000000000008152600401610ed69061385c565b60405180910390fd5b610ef383610eeb611724565b84840361172c565b610efd8383611e5a565b505050565b610f337f65d7a28e3265b37a6474929f336521b332c1681b933f6cb9f3376673440d862a610f2e611724565b610fab565b610f72576040517f08c379a0000000000000000000000000000000000000000000000000000000008152600401610f69906138dc565b60405180910390fd5b610f7a612033565b565b6000610fa382600160008681526020019081526020016000206120d690919063ffffffff16565b905092915050565b600080600084815260200190815260200160002060000160008373ffffffffffffffffffffffffffffffffffffffff1673ffffffffffffffffffffffffffffffffffffffff16815260200190815260200160002060009054906101000a900460ff16905092915050565b60606009805461102490613bc5565b80601f016020809104026020016040519081016040528092919081815260200182805461105090613bc5565b801561109d5780601f106110725761010080835404028352916020019161109d565b820191906000526020600020905b81548152906001019060200180831161108057829003601f168201915b5050505050905090565b600060010281565b600080600360006110be611724565b73ffffffffffffffffffffffffffffffffffffffff1673ffffffffffffffffffffffffffffffffffffffff16815260200190815260200160002060008573ffffffffffffffffffffffffffffffffffffffff1673ffffffffffffffffffffffffffffffffffffffff1681526020019081526020016000205490508281101561117b576040517f08c379a00000000000000000000000000000000000000000000000000000000081526004016111729061391c565b60405180910390fd5b61118f611186611724565b8585840361172c565b600191505092915050565b600560009054906101000a900473ffffffffffffffffffffffffffffffffffffffff1673ffffffffffffffffffffffffffffffffffffffff163373ffffffffffffffffffffffffffffffffffffffff161461122a576040517f08c379a0000000000000000000000000000000000000000000000000000000008152600401611221906137dc565b60405180910390fd5b80600660006101000a81548173ffffffffffffffffffffffffffffffffffffffff021916908373ffffffffffffffffffffffffffffffffffffffff16021790555050565b600061128261127b611724565b84846118f7565b6001905092915050565b6000600454831061129c57600080fd5b82600260008673ffffffffffffffffffffffffffffffffffffffff1673ffffffffffffffffffffffffffffffffffffffff16815260200190815260200160002054116112e757600080fd5b811561134c57600660009054906101000a900473ffffffffffffffffffffffffffffffffffffffff1673ffffffffffffffffffffffffffffffffffffffff163373ffffffffffffffffffffffffffffffffffffffff161461134757600080fd5b6113b8565b6007600086815260200190815260200160002060009054906101000a900473ffffffffffffffffffffffffffffffffffffffff1673ffffffffffffffffffffffffffffffffffffffff163373ffffffffffffffffffffffffffffffffffffffff16146113b757600080fd5b5b82600260008673ffffffffffffffffffffffffffffffffffffffff1673ffffffffffffffffffffffffffffffffffffffff168152602001908152602001600020546114039190613aa9565b600260008673ffffffffffffffffffffffffffffffffffffffff1673ffffffffffffffffffffffffffffffffffffffff1681526020019081526020016000208190555082600260003373ffffffffffffffffffffffffffffffffffffffff1673ffffffffffffffffffffffffffffffffffffffff1681526020019081526020016000205461149191906139f9565b600260003373ffffffffffffffffffffffffffffffffffffffff1673ffffffffffffffffffffffffffffffffffffffff168152602001908152602001600020819055503373ffffffffffffffffffffffffffffffffffffffff168473ffffffffffffffffffffffffffffffffffffffff167fddf252ad1be2c89b69c2b068fc378daa952ba7f163c4a11628f55a4df523b3ef85604051611531919061399c565b60405180910390a360019050949350505050565b6000611562600160008481526020019081526020016000206120f1565b9050919050565b7f9f2df0fed2c77648de5860a4cc508cd0818c85b8b8a1ab4ceeef8d981c8956a681565b6115978282612106565b6115bc8160016000858152602001908152602001600020611c2790919063ffffffff16565b505050565b6000600360008473ffffffffffffffffffffffffffffffffffffffff1673ffffffffffffffffffffffffffffffffffffffff16815260200190815260200160002060008373ffffffffffffffffffffffffffffffffffffffff1673ffffffffffffffffffffffffffffffffffffffff16815260200190815260200160002054905092915050565b7f65d7a28e3265b37a6474929f336521b332c1681b933f6cb9f3376673440d862a81565b611676828261212f565b5050565b60006116a2836000018373ffffffffffffffffffffffffffffffffffffffff1660010261220f565b905092915050565b60007f7965db0b000000000000000000000000000000000000000000000000000000007bffffffffffffffffffffffffffffffffffffffffffffffffffffffff1916827bffffffffffffffffffffffffffffffffffffffffffffffffffffffff1916148061171d575061171c8261227f565b5b9050919050565b600033905090565b600073ffffffffffffffffffffffffffffffffffffffff168373ffffffffffffffffffffffffffffffffffffffff16141561179c576040517f08c379a0000000000000000000000000000000000000000000000000000000008152600401611793906138bc565b60405180910390fd5b600073ffffffffffffffffffffffffffffffffffffffff168273ffffffffffffffffffffffffffffffffffffffff16141561180c576040517f08c379a00000000000000000000000000000000000000000000000000000000081526004016118039061377c565b60405180910390fd5b80600360008573ffffffffffffffffffffffffffffffffffffffff1673ffffffffffffffffffffffffffffffffffffffff16815260200190815260200160002060008473ffffffffffffffffffffffffffffffffffffffff1673ffffffffffffffffffffffffffffffffffffffff168152602001908152602001600020819055508173ffffffffffffffffffffffffffffffffffffffff168373ffffffffffffffffffffffffffffffffffffffff167f8c5be1e5ebec7d5bd14f71427d1e84f3dd0314c0f7b2291e5b200ac8c7c3b925836040516118ea919061399c565b60405180910390a3505050565b600073ffffffffffffffffffffffffffffffffffffffff168373ffffffffffffffffffffffffffffffffffffffff161415611967576040517f08c379a000000000000000000000000000000000000000000000000000000000815260040161195e9061389c565b60405180910390fd5b600073ffffffffffffffffffffffffffffffffffffffff168273ffffffffffffffffffffffffffffffffffffffff1614156119d7576040517f08c379a00000000000000000000000000000000000000000000000000000000081526004016119ce906136fc565b60405180910390fd5b6119e28383836122e9565b6000600260008573ffffffffffffffffffffffffffffffffffffffff1673ffffffffffffffffffffffffffffffffffffffff16815260200190815260200160002054905081811015611a69576040517f08c379a0000000000000000000000000000000000000000000000000000000008152600401611a609061379c565b60405180910390fd5b818103600260008673ffffffffffffffffffffffffffffffffffffffff1673ffffffffffffffffffffffffffffffffffffffff1681526020019081526020016000208190555081600260008573ffffffffffffffffffffffffffffffffffffffff1673ffffffffffffffffffffffffffffffffffffffff1681526020019081526020016000206000828254611afe91906139f9565b925050819055508273ffffffffffffffffffffffffffffffffffffffff168473ffffffffffffffffffffffffffffffffffffffff167fddf252ad1be2c89b69c2b068fc378daa952ba7f163c4a11628f55a4df523b3ef84604051611b62919061399c565b60405180910390a3611b758484846122f9565b50505050565b611b84826109a0565b611b9581611b90611724565b6122fe565b611b9f838361212f565b505050565b611bac611724565b73ffffffffffffffffffffffffffffffffffffffff168173ffffffffffffffffffffffffffffffffffffffff1614611c19576040517f08c379a0000000000000000000000000000000000000000000000000000000008152600401611c109061393c565b60405180910390fd5b611c23828261239c565b5050565b6000611c4f836000018373ffffffffffffffffffffffffffffffffffffffff1660010261247d565b905092915050565b611c5f610c4f565b611c9e576040517f08c379a0000000000000000000000000000000000000000000000000000000008152600401611c959061371c565b60405180910390fd5b6000600a60006101000a81548160ff0219169083151502179055507f5db9ee0a495bf2e6ff9c91a7834c1ba4fdd244a5e8aa4e537bd38aeae4b073aa611ce2611724565b604051611cef9190613669565b60405180910390a1565b600073ffffffffffffffffffffffffffffffffffffffff168273ffffffffffffffffffffffffffffffffffffffff161415611d69576040517f08c379a0000000000000000000000000000000000000000000000000000000008152600401611d609061395c565b60405180910390fd5b611d75600083836122e9565b8060046000828254611d8791906139f9565b9250508190555080600260008473ffffffffffffffffffffffffffffffffffffffff1673ffffffffffffffffffffffffffffffffffffffff1681526020019081526020016000206000828254611ddd91906139f9565b925050819055508173ffffffffffffffffffffffffffffffffffffffff16600073ffffffffffffffffffffffffffffffffffffffff167fddf252ad1be2c89b69c2b068fc378daa952ba7f163c4a11628f55a4df523b3ef83604051611e42919061399c565b60405180910390a3611e56600083836122f9565b5050565b600073ffffffffffffffffffffffffffffffffffffffff168273ffffffffffffffffffffffffffffffffffffffff161415611eca576040517f08c379a0000000000000000000000000000000000000000000000000000000008152600401611ec19061387c565b60405180910390fd5b611ed6826000836122e9565b6000600260008473ffffffffffffffffffffffffffffffffffffffff1673ffffffffffffffffffffffffffffffffffffffff16815260200190815260200160002054905081811015611f5d576040517f08c379a0000000000000000000000000000000000000000000000000000000008152600401611f549061373c565b60405180910390fd5b818103600260008573ffffffffffffffffffffffffffffffffffffffff1673ffffffffffffffffffffffffffffffffffffffff168152602001908152602001600020819055508160046000828254611fb59190613aa9565b92505081905550600073ffffffffffffffffffffffffffffffffffffffff168373ffffffffffffffffffffffffffffffffffffffff167fddf252ad1be2c89b69c2b068fc378daa952ba7f163c4a11628f55a4df523b3ef8460405161201a919061399c565b60405180910390a361202e836000846122f9565b505050565b61203b610c4f565b1561207b576040517f08c379a0000000000000000000000000000000000000000000000000000000008152600401612072906137bc565b60405180910390fd5b6001600a60006101000a81548160ff0219169083151502179055507f62e78cea01bee320cd4e420270b5ea74000d11b0c9f74754ebdbfc544b05a2586120bf611724565b6040516120cc9190613669565b60405180910390a1565b60006120e58360000183612603565b60019004905092915050565b60006120ff82600001612654565b9050919050565b61210f826109a0565b6121208161211b611724565b6122fe565b61212a838361239c565b505050565b6121398282610fab565b61220b57600160008084815260200190815260200160002060000160008373ffffffffffffffffffffffffffffffffffffffff1673ffffffffffffffffffffffffffffffffffffffff16815260200190815260200160002060006101000a81548160ff0219169083151502179055506121b0611724565b73ffffffffffffffffffffffffffffffffffffffff168173ffffffffffffffffffffffffffffffffffffffff16837f2f8788117e7eff1d82e926ec794901d17c78024a50270940304540a733656f0d60405160405180910390a45b5050565b600061221b8383612665565b612274578260000182908060018154018082558091505060019003906000526020600020016000909190919091505582600001805490508360010160008481526020019081526020016000208190555060019050612279565b600090505b92915050565b60007f01ffc9a7000000000000000000000000000000000000000000000000000000007bffffffffffffffffffffffffffffffffffffffffffffffffffffffff1916827bffffffffffffffffffffffffffffffffffffffffffffffffffffffff1916149050919050565b6122f4838383612688565b505050565b505050565b6123088282610fab565b6123985761232d8173ffffffffffffffffffffffffffffffffffffffff1660146126e0565b61233c836001900460206126e0565b60405160200161234d92919061362f565b6040516020818303038152906040526040517f08c379a000000000000000000000000000000000000000000000000000000000815260040161238f91906136ba565b60405180910390fd5b5050565b6123a68282610fab565b1561247957600080600084815260200190815260200160002060000160008373ffffffffffffffffffffffffffffffffffffffff1673ffffffffffffffffffffffffffffffffffffffff16815260200190815260200160002060006101000a81548160ff02191690831515021790555061241e611724565b73ffffffffffffffffffffffffffffffffffffffff168173ffffffffffffffffffffffffffffffffffffffff16837ff6391f5c32d9c69d2a47ea670b442974b53935d1edc7fd64eb21e047a839171b60405160405180910390a45b5050565b600080836001016000848152602001908152602001600020549050600081146125f75760006001826124af9190613aa9565b90506000600186600001805490506124c79190613aa9565b905081811461258257600086600001828154811061250e577f4e487b7100000000000000000000000000000000000000000000000000000000600052603260045260246000fd5b9060005260206000200154905080876000018481548110612558577f4e487b7100000000000000000000000000000000000000000000000000000000600052603260045260246000fd5b90600052602060002001819055508387600101600083815260200190815260200160002081905550505b856000018054806125bc577f4e487b7100000000000000000000000000000000000000000000000000000000600052603160045260246000fd5b6001900381819060005260206000200160009055905585600101600086815260200190815260200160002060009055600193505050506125fd565b60009150505b92915050565b6000826000018281548110612641577f4e487b7100000000000000000000000000000000000000000000000000000000600052603260045260246000fd5b9060005260206000200154905092915050565b600081600001805490509050919050565b600080836001016000848152602001908152602001600020541415905092915050565b612693838383612a01565b61269b610c4f565b156126db576040517f08c379a00000000000000000000000000000000000000000000000000000000081526004016126d29061397c565b60405180910390fd5b505050565b6060600060028360026126f39190613a4f565b6126fd91906139f9565b67ffffffffffffffff81111561273c577f4e487b7100000000000000000000000000000000000000000000000000000000600052604160045260246000fd5b6040519080825280601f01601f19166020018201604052801561276e5781602001600182028036833780820191505090505b5090507f3000000000000000000000000000000000000000000000000000000000000000816000815181106127cc577f4e487b7100000000000000000000000000000000000000000000000000000000600052603260045260246000fd5b60200101907effffffffffffffffffffffffffffffffffffffffffffffffffffffffffffff1916908160001a9053507f780000000000000000000000000000000000000000000000000000000000000081600181518110612856577f4e487b7100000000000000000000000000000000000000000000000000000000600052603260045260246000fd5b60200101907effffffffffffffffffffffffffffffffffffffffffffffffffffffffffffff1916908160001a905350600060018460026128969190613a4f565b6128a091906139f9565b90505b60018111156129b3577f3031323334353637383961626364656600000000000000000000000000000000600f861660108110612908577f4e487b7100000000000000000000000000000000000000000000000000000000600052603260045260246000fd5b1a7f010000000000000000000000000000000000000000000000000000000000000002828281518110612964577f4e487b7100000000000000000000000000000000000000000000000000000000600052603260045260246000fd5b60200101907effffffffffffffffffffffffffffffffffffffffffffffffffffffffffffff1916908160001a905350600485908060020a82049150509450806129ac90613b9b565b90506128a3565b50600084146129f7576040517f08c379a00000000000000000000000000000000000000000000000000000000081526004016129ee906136dc565b60405180910390fd5b8091505092915050565b505050565b600081359050612a1581613c66565b92915050565b600081359050612a2a81613c7d565b92915050565b600081359050612a3f81613c94565b92915050565b600081359050612a5481613cab565b92915050565b600081359050612a6981613cc2565b92915050565b600060208284031215612a8157600080fd5b6000612a8f84828501612a06565b91505092915050565b60008060408385031215612aab57600080fd5b6000612ab985828601612a06565b9250506020612aca85828601612a06565b9150509250929050565b600080600060608486031215612ae957600080fd5b6000612af786828701612a06565b9350506020612b0886828701612a06565b9250506040612b1986828701612a5a565b9150509250925092565b60008060408385031215612b3657600080fd5b6000612b4485828601612a06565b9250506020612b5585828601612a5a565b9150509250929050565b600060208284031215612b7157600080fd5b6000612b7f84828501612a30565b91505092915050565b60008060408385031215612b9b57600080fd5b6000612ba985828601612a30565b9250506020612bba85828601612a06565b9150509250929050565b60008060408385031215612bd757600080fd5b6000612be585828601612a30565b9250506020612bf685828601612a5a565b9150509250929050565b600060208284031215612c1257600080fd5b6000612c2084828501612a45565b91505092915050565b600060208284031215612c3b57600080fd5b6000612c4984828501612a5a565b91505092915050565b60008060408385031215612c6557600080fd5b6000612c7385828601612a5a565b9250506020612c8485828601612a06565b9150509250929050565b600080600060608486031215612ca357600080fd5b6000612cb186828701612a5a565b9350506020612cc286828701612a06565b9250506040612cd386828701612a5a565b9150509250925092565b60008060008060808587031215612cf357600080fd5b6000612d0187828801612a5a565b9450506020612d1287828801612a06565b9350506040612d2387828801612a5a565b9250506060612d3487828801612a1b565b91505092959194509250565b612d4981613add565b82525050565b612d5881613aef565b82525050565b612d6781613afb565b82525050565b6000612d78826139d2565b612d8281856139dd565b9350612d92818560208601613b68565b612d9b81613c55565b840191505092915050565b6000612db1826139d2565b612dbb81856139ee565b9350612dcb818560208601613b68565b80840191505092915050565b6000612de46020836139dd565b91507f537472696e67733a20686578206c656e67746820696e73756666696369656e746000830152602082019050919050565b6000612e246023836139dd565b91507f45524332303a207472616e7366657220746f20746865207a65726f206164647260008301527f65737300000000000000000000000000000000000000000000000000000000006020830152604082019050919050565b6000612e8a6014836139dd565b91507f5061757361626c653a206e6f74207061757365640000000000000000000000006000830152602082019050919050565b6000612eca6022836139dd565b91507f45524332303a206275726e20616d6f756e7420657863656564732062616c616e60008301527f63650000000000000000000000000000000000000000000000000000000000006020830152604082019050919050565b6000612f306039836139dd565b91507f45524332305072657365744d696e7465725061757365723a206d75737420686160008301527f76652070617573657220726f6c6520746f20756e7061757365000000000000006020830152604082019050919050565b6000612f966022836139dd565b91507f45524332303a20617070726f766520746f20746865207a65726f20616464726560008301527f73730000000000000000000000000000000000000000000000000000000000006020830152604082019050919050565b6000612ffc6026836139dd565b91507f45524332303a207472616e7366657220616d6f756e742065786365656473206260008301527f616c616e636500000000000000000000000000000000000000000000000000006020830152604082019050919050565b60006130626010836139dd565b91507f5061757361626c653a20706175736564000000000000000000000000000000006000830152602082019050919050565b60006130a26015836139dd565b91507f6f6e6c79206f776e65722063616e206368616e676500000000000000000000006000830152602082019050919050565b60006130e26018836139dd565b91507f63616e206f6e6c792063616c6c65642066726f6d204e465400000000000000006000830152602082019050919050565b60006131226028836139dd565b91507f45524332303a207472616e7366657220616d6f756e742065786365656473206160008301527f6c6c6f77616e63650000000000000000000000000000000000000000000000006020830152604082019050919050565b60006131886036836139dd565b91507f45524332305072657365744d696e7465725061757365723a206d75737420686160008301527f7665206d696e74657220726f6c6520746f206d696e74000000000000000000006020830152604082019050919050565b60006131ee6024836139dd565b91507f45524332303a206275726e20616d6f756e74206578636565647320616c6c6f7760008301527f616e6365000000000000000000000000000000000000000000000000000000006020830152604082019050919050565b60006132546021836139dd565b91507f45524332303a206275726e2066726f6d20746865207a65726f2061646472657360008301527f73000000000000000000000000000000000000000000000000000000000000006020830152604082019050919050565b60006132ba6025836139dd565b91507f45524332303a207472616e736665722066726f6d20746865207a65726f20616460008301527f64726573730000000000000000000000000000000000000000000000000000006020830152604082019050919050565b60006133206024836139dd565b91507f45524332303a20617070726f76652066726f6d20746865207a65726f2061646460008301527f72657373000000000000000000000000000000000000000000000000000000006020830152604082019050919050565b60006133866037836139dd565b91507f45524332305072657365744d696e7465725061757365723a206d75737420686160008301527f76652070617573657220726f6c6520746f2070617573650000000000000000006020830152604082019050919050565b60006133ec6017836139ee565b91507f416363657373436f6e74726f6c3a206163636f756e74200000000000000000006000830152601782019050919050565b600061342c601c836139dd565b91507f63616e206f6e6c792063616c6c65642066726f6d2041756374696f6e000000006000830152602082019050919050565b600061346c6025836139dd565b91507f45524332303a2064656372656173656420616c6c6f77616e63652062656c6f7760008301527f207a65726f0000000000000000000000000000000000000000000000000000006020830152604082019050919050565b60006134d26011836139ee565b91507f206973206d697373696e6720726f6c65200000000000000000000000000000006000830152601182019050919050565b6000613512602f836139dd565b91507f416363657373436f6e74726f6c3a2063616e206f6e6c792072656e6f756e636560008301527f20726f6c657320666f722073656c6600000000000000000000000000000000006020830152604082019050919050565b6000613578601f836139dd565b91507f45524332303a206d696e7420746f20746865207a65726f2061646472657373006000830152602082019050919050565b60006135b8602a836139dd565b91507f45524332305061757361626c653a20746f6b656e207472616e7366657220776860008301527f696c6520706175736564000000000000000000000000000000000000000000006020830152604082019050919050565b61361a81613b51565b82525050565b61362981613b5b565b82525050565b600061363a826133df565b91506136468285612da6565b9150613651826134c5565b915061365d8284612da6565b91508190509392505050565b600060208201905061367e6000830184612d40565b92915050565b60006020820190506136996000830184612d4f565b92915050565b60006020820190506136b46000830184612d5e565b92915050565b600060208201905081810360008301526136d48184612d6d565b905092915050565b600060208201905081810360008301526136f581612dd7565b9050919050565b6000602082019050818103600083015261371581612e17565b9050919050565b6000602082019050818103600083015261373581612e7d565b9050919050565b6000602082019050818103600083015261375581612ebd565b9050919050565b6000602082019050818103600083015261377581612f23565b9050919050565b6000602082019050818103600083015261379581612f89565b9050919050565b600060208201905081810360008301526137b581612fef565b9050919050565b600060208201905081810360008301526137d581613055565b9050919050565b600060208201905081810360008301526137f581613095565b9050919050565b60006020820190508181036000830152613815816130d5565b9050919050565b6000602082019050818103600083015261383581613115565b9050919050565b600060208201905081810360008301526138558161317b565b9050919050565b60006020820190508181036000830152613875816131e1565b9050919050565b6000602082019050818103600083015261389581613247565b9050919050565b600060208201905081810360008301526138b5816132ad565b9050919050565b600060208201905081810360008301526138d581613313565b9050919050565b600060208201905081810360008301526138f581613379565b9050919050565b600060208201905081810360008301526139158161341f565b9050919050565b600060208201905081810360008301526139358161345f565b9050919050565b6000602082019050818103600083015261395581613505565b9050919050565b600060208201905081810360008301526139758161356b565b9050919050565b60006020820190508181036000830152613995816135ab565b9050919050565b60006020820190506139b16000830184613611565b92915050565b60006020820190506139cc6000830184613620565b92915050565b600081519050919050565b600082825260208201905092915050565b600081905092915050565b6000613a0482613b51565b9150613a0f83613b51565b9250827fffffffffffffffffffffffffffffffffffffffffffffffffffffffffffffffff03821115613a4457613a43613bf7565b5b828201905092915050565b6000613a5a82613b51565b9150613a6583613b51565b9250817fffffffffffffffffffffffffffffffffffffffffffffffffffffffffffffffff0483118215151615613a9e57613a9d613bf7565b5b828202905092915050565b6000613ab482613b51565b9150613abf83613b51565b925082821015613ad257613ad1613bf7565b5b828203905092915050565b6000613ae882613b31565b9050919050565b60008115159050919050565b6000819050919050565b60007fffffffff0000000000000000000000000000000000000000000000000000000082169050919050565b600073ffffffffffffffffffffffffffffffffffffffff82169050919050565b6000819050919050565b600060ff82169050919050565b60005b83811015613b86578082015181840152602081019050613b6b565b83811115613b95576000848401525b50505050565b6000613ba682613b51565b91506000821415613bba57613bb9613bf7565b5b600182039050919050565b60006002820490506001821680613bdd57607f821691505b60208210811415613bf157613bf0613c26565b5b50919050565b7f4e487b7100000000000000000000000000000000000000000000000000000000600052601160045260246000fd5b7f4e487b7100000000000000000000000000000000000000000000000000000000600052602260045260246000fd5b6000601f19601f8301169050919050565b613c6f81613add565b8114613c7a57600080fd5b50565b613c8681613aef565b8114613c9157600080fd5b50565b613c9d81613afb565b8114613ca857600080fd5b50565b613cb481613b05565b8114613cbf57600080fd5b50565b613ccb81613b51565b8114613cd657600080fd5b5056fea26469706673582212206e2c3b7703ef9cbed3b65ba32dc2184ff7bc53b975da1e5c03b9d385541df2bb64736f6c63430008000033",
  "immutableReferences": {},
  "source": "// SPDX-License-Identifier: MIT\n\npragma solidity ^0.8.0;\n\nimport \"../ERC20.sol\";\nimport \"../extensions/ERC20Burnable.sol\";\nimport \"../extensions/ERC20Pausable.sol\";\nimport \"../../access/AccessControlEnumerable.sol\";\nimport \"../../utils/Context.sol\";\n\n/**\n * @dev {ERC20} token, including:\n *\n *  - ability for holders to burn (destroy) their tokens\n *  - a minter role that allows for token minting (creation)\n *  - a pauser role that allows to stop all token transfers\n *\n * This contract uses {AccessControl} to lock permissioned functions using the\n * different roles - head to its documentation for details.\n *\n * The account that deploys the contract will be granted the minter and pauser\n * roles, as well as the default admin role, which will let it grant both minter\n * and pauser roles to other accounts.\n */\ncontract ERC20PresetMinterPauser is Context, AccessControlEnumerable, ERC20Burnable, ERC20Pausable {\n    bytes32 public constant MINTER_ROLE = keccak256(\"MINTER_ROLE\");\n    bytes32 public constant PAUSER_ROLE = keccak256(\"PAUSER_ROLE\");\n\n    /**\n     * @dev Grants `DEFAULT_ADMIN_ROLE`, `MINTER_ROLE` and `PAUSER_ROLE` to the\n     * account that deploys the contract.\n     *\n     * See {ERC20-constructor}.\n     */\n    constructor(string memory name, string memory symbol) ERC20(name, symbol) {\n        _setupRole(DEFAULT_ADMIN_ROLE, _msgSender());\n\n        _setupRole(MINTER_ROLE, _msgSender());\n        _setupRole(PAUSER_ROLE, _msgSender());\n    }\n\n    /**\n     * @dev Creates `amount` new tokens for `to`.\n     *\n     * See {ERC20-_mint}.\n     *\n     * Requirements:\n     *\n     * - the caller must have the `MINTER_ROLE`.\n     */\n    function mint(address to, uint256 amount) public virtual {\n        require(hasRole(MINTER_ROLE, _msgSender()), \"ERC20PresetMinterPauser: must have minter role to mint\");\n        _mint(to, amount);\n    }\n\n    /**\n     * @dev Pauses all token transfers.\n     *\n     * See {ERC20Pausable} and {Pausable-_pause}.\n     *\n     * Requirements:\n     *\n     * - the caller must have the `PAUSER_ROLE`.\n     */\n    function pause() public virtual {\n        require(hasRole(PAUSER_ROLE, _msgSender()), \"ERC20PresetMinterPauser: must have pauser role to pause\");\n        _pause();\n    }\n\n    /**\n     * @dev Unpauses all token transfers.\n     *\n     * See {ERC20Pausable} and {Pausable-_unpause}.\n     *\n     * Requirements:\n     *\n     * - the caller must have the `PAUSER_ROLE`.\n     */\n    function unpause() public virtual {\n        require(hasRole(PAUSER_ROLE, _msgSender()), \"ERC20PresetMinterPauser: must have pauser role to unpause\");\n        _unpause();\n    }\n\n    function _beforeTokenTransfer(\n        address from,\n        address to,\n        uint256 amount\n    ) internal virtual override(ERC20, ERC20Pausable) {\n        super._beforeTokenTransfer(from, to, amount);\n    }\n}",
  "sourcePath": "/Volumes/Transcend/Projects/DappsLab/Lottery-Smart-Contract/contracts/customERC20ERC721/ERC20/presets/ERC20PresetMinterPauser.sol",
  "compiler": {
    "name": "solc",
    "version": "0.8.0+commit.c7dfd78e.Emscripten.clang"
  },
  "schemaVersion": "3.4.2",
  "updatedAt": "2021-07-27T11:42:39.197Z",
  "devdoc": {
    "details": "{ERC20} token, including:  - ability for holders to burn (destroy) their tokens  - a minter role that allows for token minting (creation)  - a pauser role that allows to stop all token transfers This contract uses {AccessControl} to lock permissioned functions using the different roles - head to its documentation for details. The account that deploys the contract will be granted the minter and pauser roles, as well as the default admin role, which will let it grant both minter and pauser roles to other accounts.",
    "kind": "dev",
    "methods": {
      "allowance(address,address)": {
        "details": "See {IERC20-allowance}."
      },
      "approve(address,uint256)": {
        "details": "See {IERC20-approve}. Requirements: - `spender` cannot be the zero address."
      },
      "balanceOf(address)": {
        "details": "See {IERC20-balanceOf}."
      },
      "burn(uint256)": {
        "details": "Destroys `amount` tokens from the caller. See {ERC20-_burn}."
      },
      "burnFrom(address,uint256)": {
        "details": "Destroys `amount` tokens from `account`, deducting from the caller's allowance. See {ERC20-_burn} and {ERC20-allowance}. Requirements: - the caller must have allowance for ``accounts``'s tokens of at least `amount`."
      },
      "constructor": {
        "details": "Grants `DEFAULT_ADMIN_ROLE`, `MINTER_ROLE` and `PAUSER_ROLE` to the account that deploys the contract. See {ERC20-constructor}."
      },
      "decimals()": {
        "details": "Returns the number of decimals used to get its user representation. For example, if `decimals` equals `2`, a balance of `505` tokens should be displayed to a user as `5,05` (`505 / 10 ** 2`). Tokens usually opt for a value of 18, imitating the relationship between Ether and Wei. This is the value {ERC20} uses, unless this function is overridden; NOTE: This information is only used for _display_ purposes: it in no way affects any of the arithmetic of the contract, including {IERC20-balanceOf} and {IERC20-transfer}."
      },
      "decreaseAllowance(address,uint256)": {
        "details": "Atomically decreases the allowance granted to `spender` by the caller. This is an alternative to {approve} that can be used as a mitigation for problems described in {IERC20-approve}. Emits an {Approval} event indicating the updated allowance. Requirements: - `spender` cannot be the zero address. - `spender` must have allowance for the caller of at least `subtractedValue`."
      },
      "getNFTRegistery()": {
        "details": "Returns the NFTRegistery of the token."
      },
      "getRoleAdmin(bytes32)": {
        "details": "Returns the admin role that controls `role`. See {grantRole} and {revokeRole}. To change a role's admin, use {_setRoleAdmin}."
      },
      "getRoleMember(bytes32,uint256)": {
        "details": "Returns one of the accounts that have `role`. `index` must be a value between 0 and {getRoleMemberCount}, non-inclusive. Role bearers are not sorted in any particular way, and their ordering may change at any point. WARNING: When using {getRoleMember} and {getRoleMemberCount}, make sure you perform all queries on the same block. See the following https://forum.openzeppelin.com/t/iterating-over-elements-on-enumerableset-in-openzeppelin-contracts/2296[forum post] for more information."
      },
      "getRoleMemberCount(bytes32)": {
        "details": "Returns the number of accounts that have `role`. Can be used together with {getRoleMember} to enumerate all bearers of a role."
      },
      "grantRole(bytes32,address)": {
        "details": "Overload {grantRole} to track enumerable memberships"
      },
      "hasRole(bytes32,address)": {
        "details": "Returns `true` if `account` has been granted `role`."
      },
      "increaseAllowance(address,uint256)": {
        "details": "Atomically increases the allowance granted to `spender` by the caller. This is an alternative to {approve} that can be used as a mitigation for problems described in {IERC20-approve}. Emits an {Approval} event indicating the updated allowance. Requirements: - `spender` cannot be the zero address."
      },
      "mint(address,uint256)": {
        "details": "Creates `amount` new tokens for `to`. See {ERC20-_mint}. Requirements: - the caller must have the `MINTER_ROLE`."
      },
      "name()": {
        "details": "Returns the name of the token."
      },
      "pause()": {
        "details": "Pauses all token transfers. See {ERC20Pausable} and {Pausable-_pause}. Requirements: - the caller must have the `PAUSER_ROLE`."
      },
      "paused()": {
        "details": "Returns true if the contract is paused, and false otherwise."
      },
      "renounceRole(bytes32,address)": {
        "details": "Overload {renounceRole} to track enumerable memberships"
      },
      "revokeRole(bytes32,address)": {
        "details": "Overload {revokeRole} to track enumerable memberships"
      },
      "supportsInterface(bytes4)": {
        "details": "See {IERC165-supportsInterface}."
      },
      "symbol()": {
        "details": "Returns the symbol of the token, usually a shorter version of the name."
      },
      "totalSupply()": {
        "details": "See {IERC20-totalSupply}."
      },
      "transfer(address,uint256)": {
        "details": "See {IERC20-transfer}. Requirements: - `recipient` cannot be the zero address. - the caller must have a balance of at least `amount`."
      },
      "transferFrom(address,address,uint256)": {
        "details": "See {IERC20-transferFrom}. Emits an {Approval} event indicating the updated allowance. This is not required by the EIP. See the note at the beginning of {ERC20}. Requirements: - `sender` and `recipient` cannot be the zero address. - `sender` must have a balance of at least `amount`. - the caller must have allowance for ``sender``'s tokens of at least `amount`."
      },
      "unpause()": {
        "details": "Unpauses all token transfers. See {ERC20Pausable} and {Pausable-_unpause}. Requirements: - the caller must have the `PAUSER_ROLE`."
      }
    },
    "version": 1
  },
  "userdoc": {
    "kind": "user",
    "methods": {},
    "version": 1
  }
}