{
  "contractName": "ERC721PresetMinterPauserAutoId",
  "abi": [
    {
      "inputs": [
        {
          "internalType": "string",
          "name": "name",
          "type": "string"
        },
        {
          "internalType": "string",
          "name": "symbol",
          "type": "string"
        },
        {
          "internalType": "string",
          "name": "baseTokenURI",
          "type": "string"
        }
      ],
      "stateMutability": "nonpayable",
      "type": "constructor"
    },
    {
      "anonymous": false,
      "inputs": [
        {
          "indexed": true,
          "internalType": "address",
          "name": "owner",
          "type": "address"
        },
        {
          "indexed": true,
          "internalType": "address",
          "name": "approved",
          "type": "address"
        },
        {
          "indexed": true,
          "internalType": "uint256",
          "name": "tokenId",
          "type": "uint256"
        }
      ],
      "name": "Approval",
      "type": "event"
    },
    {
      "anonymous": false,
      "inputs": [
        {
          "indexed": true,
          "internalType": "address",
          "name": "owner",
          "type": "address"
        },
        {
          "indexed": true,
          "internalType": "address",
          "name": "operator",
          "type": "address"
        },
        {
          "indexed": false,
          "internalType": "bool",
          "name": "approved",
          "type": "bool"
        }
      ],
      "name": "ApprovalForAll",
      "type": "event"
    },
    {
      "anonymous": false,
      "inputs": [
        {
          "indexed": false,
          "internalType": "address",
          "name": "account",
          "type": "address"
        }
      ],
      "name": "Paused",
      "type": "event"
    },
    {
      "anonymous": false,
      "inputs": [
        {
          "indexed": true,
          "internalType": "bytes32",
          "name": "role",
          "type": "bytes32"
        },
        {
          "indexed": true,
          "internalType": "bytes32",
          "name": "previousAdminRole",
          "type": "bytes32"
        },
        {
          "indexed": true,
          "internalType": "bytes32",
          "name": "newAdminRole",
          "type": "bytes32"
        }
      ],
      "name": "RoleAdminChanged",
      "type": "event"
    },
    {
      "anonymous": false,
      "inputs": [
        {
          "indexed": true,
          "internalType": "bytes32",
          "name": "role",
          "type": "bytes32"
        },
        {
          "indexed": true,
          "internalType": "address",
          "name": "account",
          "type": "address"
        },
        {
          "indexed": true,
          "internalType": "address",
          "name": "sender",
          "type": "address"
        }
      ],
      "name": "RoleGranted",
      "type": "event"
    },
    {
      "anonymous": false,
      "inputs": [
        {
          "indexed": true,
          "internalType": "bytes32",
          "name": "role",
          "type": "bytes32"
        },
        {
          "indexed": true,
          "internalType": "address",
          "name": "account",
          "type": "address"
        },
        {
          "indexed": true,
          "internalType": "address",
          "name": "sender",
          "type": "address"
        }
      ],
      "name": "RoleRevoked",
      "type": "event"
    },
    {
      "anonymous": false,
      "inputs": [
        {
          "indexed": true,
          "internalType": "address",
          "name": "from",
          "type": "address"
        },
        {
          "indexed": true,
          "internalType": "address",
          "name": "to",
          "type": "address"
        },
        {
          "indexed": true,
          "internalType": "uint256",
          "name": "tokenId",
          "type": "uint256"
        }
      ],
      "name": "Transfer",
      "type": "event"
    },
    {
      "anonymous": false,
      "inputs": [
        {
          "indexed": false,
          "internalType": "address",
          "name": "account",
          "type": "address"
        }
      ],
      "name": "Unpaused",
      "type": "event"
    },
    {
      "inputs": [],
      "name": "DEFAULT_ADMIN_ROLE",
      "outputs": [
        {
          "internalType": "bytes32",
          "name": "",
          "type": "bytes32"
        }
      ],
      "stateMutability": "view",
      "type": "function"
    },
    {
      "inputs": [],
      "name": "MINTER_ROLE",
      "outputs": [
        {
          "internalType": "bytes32",
          "name": "",
          "type": "bytes32"
        }
      ],
      "stateMutability": "view",
      "type": "function"
    },
    {
      "inputs": [],
      "name": "PAUSER_ROLE",
      "outputs": [
        {
          "internalType": "bytes32",
          "name": "",
          "type": "bytes32"
        }
      ],
      "stateMutability": "view",
      "type": "function"
    },
    {
      "inputs": [
        {
          "internalType": "uint256",
          "name": "",
          "type": "uint256"
        }
      ],
      "name": "_creator",
      "outputs": [
        {
          "internalType": "address",
          "name": "",
          "type": "address"
        }
      ],
      "stateMutability": "view",
      "type": "function"
    },
    {
      "inputs": [],
      "name": "_creatorComission",
      "outputs": [
        {
          "internalType": "uint256",
          "name": "",
          "type": "uint256"
        }
      ],
      "stateMutability": "view",
      "type": "function"
    },
    {
      "inputs": [
        {
          "internalType": "uint256",
          "name": "",
          "type": "uint256"
        }
      ],
      "name": "_owners",
      "outputs": [
        {
          "internalType": "address",
          "name": "",
          "type": "address"
        }
      ],
      "stateMutability": "view",
      "type": "function"
    },
    {
      "inputs": [
        {
          "internalType": "uint256",
          "name": "",
          "type": "uint256"
        }
      ],
      "name": "_sellPrice",
      "outputs": [
        {
          "internalType": "uint256",
          "name": "",
          "type": "uint256"
        }
      ],
      "stateMutability": "view",
      "type": "function"
    },
    {
      "inputs": [
        {
          "internalType": "uint256",
          "name": "",
          "type": "uint256"
        }
      ],
      "name": "_sellingNFTs",
      "outputs": [
        {
          "internalType": "uint256",
          "name": "",
          "type": "uint256"
        }
      ],
      "stateMutability": "view",
      "type": "function"
    },
    {
      "inputs": [
        {
          "internalType": "uint256",
          "name": "",
          "type": "uint256"
        }
      ],
      "name": "_sellingNFTsIndexes",
      "outputs": [
        {
          "internalType": "uint256",
          "name": "",
          "type": "uint256"
        }
      ],
      "stateMutability": "view",
      "type": "function"
    },
    {
      "inputs": [
        {
          "internalType": "uint256",
          "name": "tokenId",
          "type": "uint256"
        },
        {
          "internalType": "address",
          "name": "to",
          "type": "address"
        }
      ],
      "name": "_spend",
      "outputs": [
        {
          "internalType": "bool",
          "name": "",
          "type": "bool"
        }
      ],
      "stateMutability": "nonpayable",
      "type": "function"
    },
    {
      "inputs": [
        {
          "internalType": "address",
          "name": "to",
          "type": "address"
        },
        {
          "internalType": "uint256",
          "name": "tokenId",
          "type": "uint256"
        }
      ],
      "name": "approve",
      "outputs": [],
      "stateMutability": "nonpayable",
      "type": "function"
    },
    {
      "inputs": [
        {
          "internalType": "address",
          "name": "owner",
          "type": "address"
        }
      ],
      "name": "balanceOf",
      "outputs": [
        {
          "internalType": "uint256",
          "name": "",
          "type": "uint256"
        }
      ],
      "stateMutability": "view",
      "type": "function"
    },
    {
      "inputs": [
        {
          "internalType": "uint256",
          "name": "tokenId",
          "type": "uint256"
        }
      ],
      "name": "burn",
      "outputs": [],
      "stateMutability": "nonpayable",
      "type": "function"
    },
    {
      "inputs": [
        {
          "internalType": "uint256",
          "name": "tokenId",
          "type": "uint256"
        }
      ],
      "name": "getApproved",
      "outputs": [
        {
          "internalType": "address",
          "name": "",
          "type": "address"
        }
      ],
      "stateMutability": "view",
      "type": "function"
    },
    {
      "inputs": [
        {
          "internalType": "uint256",
          "name": "tokenId",
          "type": "uint256"
        }
      ],
      "name": "getCreator",
      "outputs": [
        {
          "internalType": "address",
          "name": "",
          "type": "address"
        }
      ],
      "stateMutability": "view",
      "type": "function"
    },
    {
      "inputs": [],
      "name": "getCreatorComission",
      "outputs": [
        {
          "internalType": "uint256",
          "name": "",
          "type": "uint256"
        }
      ],
      "stateMutability": "view",
      "type": "function"
    },
    {
      "inputs": [
        {
          "internalType": "bytes32",
          "name": "role",
          "type": "bytes32"
        }
      ],
      "name": "getRoleAdmin",
      "outputs": [
        {
          "internalType": "bytes32",
          "name": "",
          "type": "bytes32"
        }
      ],
      "stateMutability": "view",
      "type": "function"
    },
    {
      "inputs": [
        {
          "internalType": "bytes32",
          "name": "role",
          "type": "bytes32"
        },
        {
          "internalType": "uint256",
          "name": "index",
          "type": "uint256"
        }
      ],
      "name": "getRoleMember",
      "outputs": [
        {
          "internalType": "address",
          "name": "",
          "type": "address"
        }
      ],
      "stateMutability": "view",
      "type": "function"
    },
    {
      "inputs": [
        {
          "internalType": "bytes32",
          "name": "role",
          "type": "bytes32"
        }
      ],
      "name": "getRoleMemberCount",
      "outputs": [
        {
          "internalType": "uint256",
          "name": "",
          "type": "uint256"
        }
      ],
      "stateMutability": "view",
      "type": "function"
    },
    {
      "inputs": [
        {
          "internalType": "uint256",
          "name": "tokenId",
          "type": "uint256"
        }
      ],
      "name": "getSellPrice",
      "outputs": [
        {
          "internalType": "uint256",
          "name": "",
          "type": "uint256"
        }
      ],
      "stateMutability": "view",
      "type": "function"
    },
    {
      "inputs": [],
      "name": "getSellingNFTs",
      "outputs": [
        {
          "internalType": "uint256[]",
          "name": "",
          "type": "uint256[]"
        }
      ],
      "stateMutability": "view",
      "type": "function"
    },
    {
      "inputs": [
        {
          "internalType": "bytes32",
          "name": "role",
          "type": "bytes32"
        },
        {
          "internalType": "address",
          "name": "account",
          "type": "address"
        }
      ],
      "name": "grantRole",
      "outputs": [],
      "stateMutability": "nonpayable",
      "type": "function"
    },
    {
      "inputs": [
        {
          "internalType": "bytes32",
          "name": "role",
          "type": "bytes32"
        },
        {
          "internalType": "address",
          "name": "account",
          "type": "address"
        }
      ],
      "name": "hasRole",
      "outputs": [
        {
          "internalType": "bool",
          "name": "",
          "type": "bool"
        }
      ],
      "stateMutability": "view",
      "type": "function"
    },
    {
      "inputs": [
        {
          "internalType": "address",
          "name": "owner",
          "type": "address"
        },
        {
          "internalType": "address",
          "name": "operator",
          "type": "address"
        }
      ],
      "name": "isApprovedForAll",
      "outputs": [
        {
          "internalType": "bool",
          "name": "",
          "type": "bool"
        }
      ],
      "stateMutability": "view",
      "type": "function"
    },
    {
      "inputs": [],
      "name": "name",
      "outputs": [
        {
          "internalType": "string",
          "name": "",
          "type": "string"
        }
      ],
      "stateMutability": "view",
      "type": "function"
    },
    {
      "inputs": [
        {
          "internalType": "uint256",
          "name": "tokenId",
          "type": "uint256"
        }
      ],
      "name": "ownerOf",
      "outputs": [
        {
          "internalType": "address",
          "name": "",
          "type": "address"
        }
      ],
      "stateMutability": "view",
      "type": "function"
    },
    {
      "inputs": [],
      "name": "paused",
      "outputs": [
        {
          "internalType": "bool",
          "name": "",
          "type": "bool"
        }
      ],
      "stateMutability": "view",
      "type": "function"
    },
    {
      "inputs": [
        {
          "internalType": "bytes32",
          "name": "role",
          "type": "bytes32"
        },
        {
          "internalType": "address",
          "name": "account",
          "type": "address"
        }
      ],
      "name": "renounceRole",
      "outputs": [],
      "stateMutability": "nonpayable",
      "type": "function"
    },
    {
      "inputs": [
        {
          "internalType": "bytes32",
          "name": "role",
          "type": "bytes32"
        },
        {
          "internalType": "address",
          "name": "account",
          "type": "address"
        }
      ],
      "name": "revokeRole",
      "outputs": [],
      "stateMutability": "nonpayable",
      "type": "function"
    },
    {
      "inputs": [
        {
          "internalType": "address",
          "name": "from",
          "type": "address"
        },
        {
          "internalType": "address",
          "name": "to",
          "type": "address"
        },
        {
          "internalType": "uint256",
          "name": "tokenId",
          "type": "uint256"
        }
      ],
      "name": "safeTransferFrom",
      "outputs": [],
      "stateMutability": "nonpayable",
      "type": "function"
    },
    {
      "inputs": [
        {
          "internalType": "address",
          "name": "from",
          "type": "address"
        },
        {
          "internalType": "address",
          "name": "to",
          "type": "address"
        },
        {
          "internalType": "uint256",
          "name": "tokenId",
          "type": "uint256"
        },
        {
          "internalType": "bytes",
          "name": "_data",
          "type": "bytes"
        }
      ],
      "name": "safeTransferFrom",
      "outputs": [],
      "stateMutability": "nonpayable",
      "type": "function"
    },
    {
      "inputs": [
        {
          "internalType": "address",
          "name": "operator",
          "type": "address"
        },
        {
          "internalType": "bool",
          "name": "approved",
          "type": "bool"
        }
      ],
      "name": "setApprovalForAll",
      "outputs": [],
      "stateMutability": "nonpayable",
      "type": "function"
    },
    {
      "inputs": [],
      "name": "symbol",
      "outputs": [
        {
          "internalType": "string",
          "name": "",
          "type": "string"
        }
      ],
      "stateMutability": "view",
      "type": "function"
    },
    {
      "inputs": [
        {
          "internalType": "uint256",
          "name": "index",
          "type": "uint256"
        }
      ],
      "name": "tokenByIndex",
      "outputs": [
        {
          "internalType": "uint256",
          "name": "",
          "type": "uint256"
        }
      ],
      "stateMutability": "view",
      "type": "function"
    },
    {
      "inputs": [
        {
          "internalType": "address",
          "name": "owner",
          "type": "address"
        },
        {
          "internalType": "uint256",
          "name": "index",
          "type": "uint256"
        }
      ],
      "name": "tokenOfOwnerByIndex",
      "outputs": [
        {
          "internalType": "uint256",
          "name": "",
          "type": "uint256"
        }
      ],
      "stateMutability": "view",
      "type": "function"
    },
    {
      "inputs": [
        {
          "internalType": "uint256",
          "name": "tokenId",
          "type": "uint256"
        }
      ],
      "name": "tokenURI",
      "outputs": [
        {
          "internalType": "string",
          "name": "",
          "type": "string"
        }
      ],
      "stateMutability": "view",
      "type": "function"
    },
    {
      "inputs": [],
      "name": "totalSupply",
      "outputs": [
        {
          "internalType": "uint256",
          "name": "",
          "type": "uint256"
        }
      ],
      "stateMutability": "view",
      "type": "function"
    },
    {
      "inputs": [
        {
          "internalType": "address",
          "name": "from",
          "type": "address"
        },
        {
          "internalType": "address",
          "name": "to",
          "type": "address"
        },
        {
          "internalType": "uint256",
          "name": "tokenId",
          "type": "uint256"
        }
      ],
      "name": "transferFrom",
      "outputs": [],
      "stateMutability": "nonpayable",
      "type": "function"
    },
    {
      "inputs": [
        {
          "internalType": "address",
          "name": "to",
          "type": "address"
        }
      ],
      "name": "mint",
      "outputs": [],
      "stateMutability": "nonpayable",
      "type": "function"
    },
    {
      "inputs": [],
      "name": "pause",
      "outputs": [],
      "stateMutability": "nonpayable",
      "type": "function"
    },
    {
      "inputs": [],
      "name": "unpause",
      "outputs": [],
      "stateMutability": "nonpayable",
      "type": "function"
    },
    {
      "inputs": [
        {
          "internalType": "bytes4",
          "name": "interfaceId",
          "type": "bytes4"
        }
      ],
      "name": "supportsInterface",
      "outputs": [
        {
          "internalType": "bool",
          "name": "",
          "type": "bool"
        }
      ],
      "stateMutability": "view",
      "type": "function"
    }
  ],
  "bytecode": "0x6080604052600a6005553480156200001657600080fd5b506040516200335838038062003358833981016040819052620000399162000451565b8251839083906200005290600290602085019062000300565b5080516200006890600390602084019062000300565b505060048054600160a060020a03191633179055506012805460ff1916905580516200009c90601490602084019062000300565b50620000c56000620000b66401000000006200013e810204565b64010000000062000142810204565b620000fd7f9f2df0fed2c77648de5860a4cc508cd0818c85b8b8a1ab4ceeef8d981c8956a6620000b66401000000006200013e810204565b620001357f65d7a28e3265b37a6474929f336521b332c1681b933f6cb9f3376673440d862a620000b66401000000006200013e810204565b50505062000563565b3390565b6200015c828264010000000062000d256200018982021704565b600082815260016020526040902062000184908264010000000062000d2f620001a282021704565b505050565b6200019e8282640100000000620001cb810204565b5050565b6000620001c283600160a060020a03841664010000000062000267810204565b90505b92915050565b620001e08282640100000000620002bf810204565b6200019e57600082815260208181526040808320600160a060020a03851684529091529020805460ff19166001179055620002236401000000006200013e810204565b600160a060020a031681600160a060020a0316837f2f8788117e7eff1d82e926ec794901d17c78024a50270940304540a733656f0d60405160405180910390a45050565b60006200027e8383640100000000620002e8810204565b620002b657508154600181810184556000848152602080822090930184905584548482528286019093526040902091909155620001c5565b506000620001c5565b600091825260208281526040808420600160a060020a0393909316845291905290205460ff1690565b60009081526001919091016020526040902054151590565b8280546200030e90620004de565b90600052602060002090601f0160209004810192826200033257600085556200037d565b82601f106200034d57805160ff19168380011785556200037d565b828001600101855582156200037d579182015b828111156200037d57825182559160200191906001019062000360565b506200038b9291506200038f565b5090565b5b808211156200038b576000815560010162000390565b600082601f830112620003b7578081fd5b81516001604060020a0380821115620003d457620003d462000534565b6040516020601f8401601f1916820181018381118382101715620003fc57620003fc62000534565b604052838252858401810187101562000413578485fd5b8492505b8383101562000436578583018101518284018201529182019162000417565b838311156200044757848185840101525b5095945050505050565b60008060006060848603121562000466578283fd5b83516001604060020a03808211156200047d578485fd5b6200048b87838801620003a6565b94506020860151915080821115620004a1578384fd5b620004af87838801620003a6565b93506040860151915080821115620004c5578283fd5b50620004d486828701620003a6565b9150509250925092565b600281046001821680620004f357607f821691505b602082108114156200052e577f4e487b7100000000000000000000000000000000000000000000000000000000600052602260045260246000fd5b50919050565b7f4e487b7100000000000000000000000000000000000000000000000000000000600052604160045260246000fd5b612de580620005736000396000f3fe608060405234801561001057600080fd5b506004361061027b576000357c01000000000000000000000000000000000000000000000000000000009004806370a0823111610163578063a22cb465116100e0578063ca15c873116100a4578063ca15c8731461050a578063d48e638a1461051d578063d539139314610530578063d547741f14610538578063e63ab1e91461054b578063e985e9c5146105535761027b565b8063a22cb465146104b6578063aac5643d146104c9578063b88d4fde146104d1578063ba730e53146104e4578063c87b56dd146104f75761027b565b806391d148541161012757806391d148541461046d5780639564470e1461048057806395d89b4114610493578063992924a61461049b578063a217fddf146104ae5761027b565b806370a08231146104175780637211a20a1461042a57806380cf4dad1461043f5780638456cb59146104525780639010d07c1461045a5761027b565b80632f745c59116101fc57806342966c68116101c057806342966c68146103bb5780634f6ccce7146103ce5780635c975abb146103e15780636352211e146103e95780636a627842146103fc5780636e8e78db1461040f5761027b565b80632f745c591461036757806336568abe1461037a5780633f4ba83a1461038d578063417871971461039557806342842e0e146103a85761027b565b806323b872dd1161024357806323b872dd14610308578063248a9ca31461031b5780632838324b1461032e57806329e02e70146103415780632f2ff15d146103545761027b565b806301ffc9a71461028057806306fdde03146102a9578063081812fc146102be578063095ea7b3146102de57806318160ddd146102f3575b600080fd5b61029361028e36600461223f565b610566565b6040516102a091906123e7565b60405180910390f35b6102b1610579565b6040516102a091906123fb565b6102d16102cc3660046121e4565b61060b565b6040516102a09190612353565b6102f16102ec3660046121bb565b61065a565b005b6102fb6106f8565b6040516102a091906123f2565b6102f161031636600461207a565b6106fe565b6102fb6103293660046121e4565b610739565b6102fb61033c3660046121e4565b61074e565b6102d161034f3660046121e4565b610760565b6102f16103623660046121fc565b61077b565b6102fb6103753660046121bb565b61079d565b6102f16103883660046121fc565b6107f5565b6102f1610817565b6102fb6103a33660046121e4565b61086c565b6102f16103b636600461207a565b61087e565b6102f16103c93660046121e4565b610899565b6102fb6103dc3660046121e4565b6108cf565b610293610930565b6102d16103f73660046121e4565b610939565b6102f161040a36600461202e565b610971565b6102fb6109d9565b6102fb61042536600461202e565b6109df565b610432610a26565b6040516102a091906123a3565b6102fb61044d3660046121e4565b610a7d565b6102f1610a9e565b6102d161046836600461221e565b610af1565b61029361047b3660046121fc565b610b10565b61029361048e3660046121fc565b610b39565b6102b1610b4f565b6102d16104a93660046121e4565b610b5e565b6102fb610b79565b6102f16104c4366004612181565b610b7e565b6102fb610b94565b6102f16104df3660046120b5565b610b9a565b6102fb6104f23660046121e4565b610bdc565b6102b16105053660046121e4565b610bee565b6102fb6105183660046121e4565b610c73565b6102d161052b3660046121e4565b610c8a565b6102fb610ca5565b6102f16105463660046121fc565b610cc9565b6102fb610cd3565b610293610561366004612048565b610cf7565b600061057182610d44565b90505b919050565b60606002805461058890612ce1565b80601f01602080910402602001604051908101604052809291908181526020018280546105b490612ce1565b80156106015780601f106105d657610100808354040283529160200191610601565b820191906000526020600020905b8154815290600101906020018083116105e457829003601f168201915b5050505050905090565b600061061682610d82565b61063e5760405160e560020a62461bcd02815260040161063590612899565b60405180910390fd5b50600090815260096020526040902054600160a060020a031690565b600061066582610939565b905080600160a060020a031683600160a060020a0316141561069c5760405160e560020a62461bcd028152600401610635906129b0565b80600160a060020a03166106ae610d9f565b600160a060020a031614806106ca57506106ca81610561610d9f565b6106e95760405160e560020a62461bcd0281526004016106359061274d565b6106f38383610da3565b505050565b60105490565b61070f610709610d9f565b82610e1e565b61072e5760405160e560020a62461bcd02815260040161063590612a0d565b6106f3838383610ea6565b60009081526020819052604090206001015490565b600c6020526000908152604090205481565b600760205260009081526040902054600160a060020a031681565b6107858282610fe6565b60008281526001602052604090206106f39082610d2f565b60006107a8836109df565b82106107c95760405160e560020a62461bcd028152600401610635906124d7565b50600160a060020a0382166000908152600e602090815260408083208484529091529020545b92915050565b6107ff828261100a565b60008281526001602052604090206106f3908261104f565b6108437f65d7a28e3265b37a6474929f336521b332c1681b933f6cb9f3376673440d862a61047b610d9f565b6108625760405160e560020a62461bcd02815260040161063590612b81565b61086a611064565b565b600b6020526000908152604090205481565b6106f383838360405180602001604052806000815250610b9a565b6108a4610709610d9f565b6108c35760405160e560020a62461bcd02815260040161063590612b24565b6108cc816110d5565b50565b60006108d96106f8565b82106108fa5760405160e560020a62461bcd02815260040161063590612a6a565b6010828154811061091e5760e060020a634e487b7102600052603260045260246000fd5b90600052602060002001549050919050565b60125460ff1690565b600081815260066020526040812054600160a060020a0316806105715760405160e560020a62461bcd02815260040161063590612807565b61099d7f9f2df0fed2c77648de5860a4cc508cd0818c85b8b8a1ab4ceeef8d981c8956a661047b610d9f565b6109bc5760405160e560020a62461bcd02815260040161063590612ac7565b6109cf816109ca6013611189565b61118d565b6108cc6013611293565b60055481565b6000600160a060020a038216610a0a5760405160e560020a62461bcd028152600401610635906127aa565b50600160a060020a031660009081526008602052604090205490565b6060600d80548060200260200160405190810160405280929190818152602001828054801561060157602002820191906000526020600020905b815481526020019060010190808311610a60575050505050905090565b600d8181548110610a8d57600080fd5b600091825260209091200154905081565b610aca7f65d7a28e3265b37a6474929f336521b332c1681b933f6cb9f3376673440d862a61047b610d9f565b610ae95760405160e560020a62461bcd028152600401610635906125c8565b61086a61129c565b6000828152600160205260408120610b0990836112fa565b9392505050565b600091825260208281526040808420600160a060020a0393909316845291905290205460ff1690565b6000610b4633838561087e565b50600192915050565b60606003805461058890612ce1565b600660205260009081526040902054600160a060020a031681565b600081565b610b90610b89610d9f565b8383611306565b5050565b60055490565b610bab610ba5610d9f565b83610e1e565b610bca5760405160e560020a62461bcd02815260040161063590612a0d565b610bd6848484846113ac565b50505050565b6000908152600b602052604090205490565b6060610bf982610d82565b610c185760405160e560020a62461bcd02815260040161063590612953565b6000610c226113e2565b90506000815111610c425760405180602001604052806000815250610b09565b80610c4c846113f1565b604051602001610c5d9291906122a3565b6040516020818303038152906040529392505050565b60008181526001602052604081206105719061154d565b600090815260076020526040902054600160a060020a031690565b7f9f2df0fed2c77648de5860a4cc508cd0818c85b8b8a1ab4ceeef8d981c8956a681565b6107ff8282611558565b7f65d7a28e3265b37a6474929f336521b332c1681b933f6cb9f3376673440d862a81565b600160a060020a039182166000908152600a6020908152604080832093909416825291909152205460ff1690565b610b908282611577565b6000610b0983600160a060020a0384166115fc565b6000600160e060020a031982167f780e9d63000000000000000000000000000000000000000000000000000000001480610571575061057182611646565b600090815260066020526040902054600160a060020a0316151590565b3390565b6000818152600960205260409020805473ffffffffffffffffffffffffffffffffffffffff1916600160a060020a0384169081179091558190610de582610939565b600160a060020a03167f8c5be1e5ebec7d5bd14f71427d1e84f3dd0314c0f7b2291e5b200ac8c7c3b92560405160405180910390a45050565b6000610e2982610d82565b610e485760405160e560020a62461bcd028152600401610635906126b9565b6000610e5383610939565b905080600160a060020a031684600160a060020a03161480610e8e575083600160a060020a0316610e838461060b565b600160a060020a0316145b80610e9e5750610e9e8185610cf7565b949350505050565b82600160a060020a0316610eb982610939565b600160a060020a031614610ee25760405160e560020a62461bcd028152600401610635906128f6565b600160a060020a038216610f0b5760405160e560020a62461bcd02815260040161063590612625565b610f168383836116b8565b610f21600082610da3565b600160a060020a0383166000908152600860205260408120805460019290610f4a908490612c87565b9091555050600160a060020a0382166000908152600860205260408120805460019290610f78908490612c3c565b9091555050600081815260066020526040808220805473ffffffffffffffffffffffffffffffffffffffff1916600160a060020a0386811691821790925591518493918716917fddf252ad1be2c89b69c2b068fc378daa952ba7f163c4a11628f55a4df523b3ef91a4505050565b610fef82610739565b61100081610ffb610d9f565b6116c3565b6106f38383611577565b611012610d9f565b600160a060020a031681600160a060020a0316146110455760405160e560020a62461bcd02815260040161063590612bdf565b610b90828261172a565b6000610b0983600160a060020a0384166117ad565b61106c610930565b61108b5760405160e560020a62461bcd028152600401610635906124a0565b6012805460ff191690557f5db9ee0a495bf2e6ff9c91a7834c1ba4fdd244a5e8aa4e537bd38aeae4b073aa6110be610d9f565b6040516110cb9190612353565b60405180910390a1565b60006110e082610939565b90506110ee816000846116b8565b6110f9600083610da3565b600160a060020a0381166000908152600860205260408120805460019290611122908490612c87565b9091555050600082815260066020526040808220805473ffffffffffffffffffffffffffffffffffffffff1916905551839190600160a060020a038416907fddf252ad1be2c89b69c2b068fc378daa952ba7f163c4a11628f55a4df523b3ef908390a45050565b5490565b600160a060020a0382166111b65760405160e560020a62461bcd02815260040161063590612864565b6111bf81610d82565b156111df5760405160e560020a62461bcd02815260040161063590612591565b6111eb600083836116b8565b600160a060020a0382166000908152600860205260408120805460019290611214908490612c3c565b909155505060008181526006602090815260408083208054600160a060020a03871673ffffffffffffffffffffffffffffffffffffffff199182168117909255600790935281842080549093168117909255518392907fddf252ad1be2c89b69c2b068fc378daa952ba7f163c4a11628f55a4df523b3ef908290a45050565b80546001019055565b6112a4610930565b156112c45760405160e560020a62461bcd02815260040161063590612716565b6012805460ff191660011790557f62e78cea01bee320cd4e420270b5ea74000d11b0c9f74754ebdbfc544b05a2586110be610d9f565b6000610b0983836118d3565b81600160a060020a031683600160a060020a0316141561133b5760405160e560020a62461bcd02815260040161063590612682565b600160a060020a038381166000818152600a602090815260408083209487168084529490915290819020805460ff1916851515179055517f17307eab39ab6107e8899845ad3d59bd9653f200f220920489ca2b5937696c319061139f9085906123e7565b60405180910390a3505050565b6113b7848484610ea6565b6113c38484848461190e565b610bd65760405160e560020a62461bcd02815260040161063590612534565b60606014805461058890612ce1565b606081611432575060408051808201909152600181527f30000000000000000000000000000000000000000000000000000000000000006020820152610574565b8160005b811561145c578061144681612d1f565b91506114559050600a83612c54565b9150611436565b60008167ffffffffffffffff8111156114885760e060020a634e487b7102600052604160045260246000fd5b6040519080825280601f01601f1916602001820160405280156114b2576020820181803683370190505b5090505b8415610e9e576114c7600183612c87565b91506114d4600a86612d3a565b6114df906030612c3c565b7f0100000000000000000000000000000000000000000000000000000000000000028183815181106115245760e060020a634e487b7102600052603260045260246000fd5b6020010190600160f860020a031916908160001a905350611546600a86612c54565b94506114b6565b600061057182611189565b61156182610739565b61156d81610ffb610d9f565b6106f3838361172a565b6115818282610b10565b610b9057600082815260208181526040808320600160a060020a03851684529091529020805460ff191660011790556115b8610d9f565b600160a060020a031681600160a060020a0316837f2f8788117e7eff1d82e926ec794901d17c78024a50270940304540a733656f0d60405160405180910390a45050565b60006116088383611a61565b61163e575081546001818101845560008481526020808220909301849055845484825282860190935260409020919091556107ef565b5060006107ef565b6000600160e060020a031982167f80ac58cd0000000000000000000000000000000000000000000000000000000014806116a95750600160e060020a031982167f5b5e139f00000000000000000000000000000000000000000000000000000000145b80610571575061057182611a79565b6106f3838383611ab7565b6116cd8282610b10565b610b90576116e581600160a060020a03166014611aea565b6116f0836020611aea565b6040516020016117019291906122d2565b60408051601f198184030181529082905260e560020a62461bcd028252610635916004016123fb565b6117348282610b10565b15610b9057600082815260208181526040808320600160a060020a03851684529091529020805460ff19169055611769610d9f565b600160a060020a031681600160a060020a0316837ff6391f5c32d9c69d2a47ea670b442974b53935d1edc7fd64eb21e047a839171b60405160405180910390a45050565b600081815260018301602052604081205480156118c95760006117d1600183612c87565b85549091506000906117e590600190612c87565b905081811461186c5760008660000182815481106118165760e060020a634e487b7102600052603260045260246000fd5b906000526020600020015490508087600001848154811061184a5760e060020a634e487b7102600052603260045260246000fd5b6000918252602080832090910192909255918252600188019052604090208390555b855486908061188e5760e060020a634e487b7102600052603160045260246000fd5b6001900381819060005260206000200160009055905585600101600086815260200190815260200160002060009055600193505050506107ef565b60009150506107ef565b60008260000182815481106118fb5760e060020a634e487b7102600052603260045260246000fd5b9060005260206000200154905092915050565b600061192284600160a060020a0316611d11565b15611a565783600160a060020a031663150b7a0261193e610d9f565b8786866040518563ffffffff167c010000000000000000000000000000000000000000000000000000000002815260040161197c9493929190612367565b602060405180830381600087803b15801561199657600080fd5b505af19250505080156119c6575060408051601f3d908101601f191682019092526119c39181019061225b565b60015b611a23573d8080156119f4576040519150601f19603f3d011682016040523d82523d6000602084013e6119f9565b606091505b508051611a1b5760405160e560020a62461bcd02815260040161063590612534565b805181602001fd5b600160e060020a0319167f150b7a0200000000000000000000000000000000000000000000000000000000149050610e9e565b506001949350505050565b60009081526001919091016020526040902054151590565b6000600160e060020a031982167f5a05180f000000000000000000000000000000000000000000000000000000001480610571575061057182611d17565b611ac2838383611d55565b611aca610930565b156106f35760405160e560020a62461bcd02815260040161063590612443565b60606000611af9836002612c68565b611b04906002612c3c565b67ffffffffffffffff811115611b2d5760e060020a634e487b7102600052604160045260246000fd5b6040519080825280601f01601f191660200182016040528015611b57576020820181803683370190505b5090507f300000000000000000000000000000000000000000000000000000000000000081600081518110611b9f5760e060020a634e487b7102600052603260045260246000fd5b6020010190600160f860020a031916908160001a9053507f780000000000000000000000000000000000000000000000000000000000000081600181518110611bfb5760e060020a634e487b7102600052603260045260246000fd5b6020010190600160f860020a031916908160001a9053506000611c1f846002612c68565b611c2a906001612c3c565b90505b6001811115611cef577f303132333435363738396162636465660000000000000000000000000000000085600f1660108110611c7c5760e060020a634e487b7102600052603260045260246000fd5b1a7f010000000000000000000000000000000000000000000000000000000000000002828281518110611cc25760e060020a634e487b7102600052603260045260246000fd5b6020010190600160f860020a031916908160001a905350601090940493611ce881612cca565b9050611c2d565b508315610b095760405160e560020a62461bcd0281526004016106359061240e565b3b151590565b6000600160e060020a031982167f7965db0b000000000000000000000000000000000000000000000000000000001480610571575061057182611dde565b611d608383836106f3565b600160a060020a038316611d7c57611d7781611e10565b611d9f565b81600160a060020a031683600160a060020a031614611d9f57611d9f8382611e54565b600160a060020a038216611dbb57611db681611ef1565b6106f3565b82600160a060020a031682600160a060020a0316146106f3576106f38282611fd3565b600160e060020a031981167f01ffc9a70000000000000000000000000000000000000000000000000000000014919050565b601080546000838152601160205260408120829055600182018355919091527f1b6847dc741a1b0cd08d278845f9d819d87b734759afb55fe2de5cb82a9ae6720155565b60006001611e61846109df565b611e6b9190612c87565b6000838152600f6020526040902054909150808214611ebe57600160a060020a0384166000908152600e602090815260408083208584528252808320548484528184208190558352600f90915290208190555b506000918252600f60209081526040808420849055600160a060020a039094168352600e81528383209183525290812055565b601054600090611f0390600190612c87565b60008381526011602052604081205460108054939450909284908110611f3c5760e060020a634e487b7102600052603260045260246000fd5b906000526020600020015490508060108381548110611f6e5760e060020a634e487b7102600052603260045260246000fd5b6000918252602080832090910192909255828152601190915260408082208490558582528120556010805480611fb75760e060020a634e487b7102600052603160045260246000fd5b6001900381819060005260206000200160009055905550505050565b6000611fde836109df565b600160a060020a039093166000908152600e602090815260408083208684528252808320859055938252600f9052919091209190915550565b8035600160a060020a038116811461057457600080fd5b60006020828403121561203f578081fd5b610b0982612017565b6000806040838503121561205a578081fd5b61206383612017565b915061207160208401612017565b90509250929050565b60008060006060848603121561208e578081fd5b61209784612017565b92506120a560208501612017565b9150604084013590509250925092565b600080600080608085870312156120ca578081fd5b6120d385612017565b935060206120e2818701612017565b935060408601359250606086013567ffffffffffffffff80821115612105578384fd5b818801915088601f830112612118578384fd5b81358181111561212a5761212a612d80565b604051601f8201601f191681018501838111828210171561214d5761214d612d80565b60405281815283820185018b1015612163578586fd5b81858501868301379081019093019390935250939692955090935050565b60008060408385031215612193578182fd5b61219c83612017565b9150602083013580151581146121b0578182fd5b809150509250929050565b600080604083850312156121cd578182fd5b6121d683612017565b946020939093013593505050565b6000602082840312156121f5578081fd5b5035919050565b6000806040838503121561220e578182fd5b8235915061207160208401612017565b60008060408385031215612230578182fd5b50508035926020909101359150565b600060208284031215612250578081fd5b8135610b0981612d99565b60006020828403121561226c578081fd5b8151610b0981612d99565b6000815180845261228f816020860160208601612c9e565b601f01601f19169290920160200192915050565b600083516122b5818460208801612c9e565b8351908301906122c9818360208801612c9e565b01949350505050565b60007f416363657373436f6e74726f6c3a206163636f756e74200000000000000000008252835161230a816017850160208801612c9e565b7f206973206d697373696e6720726f6c65200000000000000000000000000000006017918401918201528351612347816028840160208801612c9e565b01602801949350505050565b600160a060020a0391909116815260200190565b6000600160a060020a038087168352808616602084015250836040830152608060608301526123996080830184612277565b9695505050505050565b6020808252825182820181905260009190848201906040850190845b818110156123db578351835292840192918401916001016123bf565b50909695505050505050565b901515815260200190565b90815260200190565b600060208252610b096020830184612277565b6020808252818101527f537472696e67733a20686578206c656e67746820696e73756666696369656e74604082015260600190565b6020808252602b908201527f4552433732315061757361626c653a20746f6b656e207472616e73666572207760408201527f68696c6520706175736564000000000000000000000000000000000000000000606082015260800190565b60208082526014908201527f5061757361626c653a206e6f7420706175736564000000000000000000000000604082015260600190565b6020808252602b908201527f455243373231456e756d657261626c653a206f776e657220696e646578206f7560408201527f74206f6620626f756e6473000000000000000000000000000000000000000000606082015260800190565b60208082526032908201527f4552433732313a207472616e7366657220746f206e6f6e20455243373231526560408201527f63656976657220696d706c656d656e7465720000000000000000000000000000606082015260800190565b6020808252601c908201527f4552433732313a20746f6b656e20616c7265616479206d696e74656400000000604082015260600190565b6020808252603e908201527f4552433732315072657365744d696e7465725061757365724175746f49643a2060408201527f6d75737420686176652070617573657220726f6c6520746f2070617573650000606082015260800190565b60208082526024908201527f4552433732313a207472616e7366657220746f20746865207a65726f2061646460408201527f7265737300000000000000000000000000000000000000000000000000000000606082015260800190565b60208082526019908201527f4552433732313a20617070726f766520746f2063616c6c657200000000000000604082015260600190565b6020808252602c908201527f4552433732313a206f70657261746f7220717565727920666f72206e6f6e657860408201527f697374656e7420746f6b656e0000000000000000000000000000000000000000606082015260800190565b60208082526010908201527f5061757361626c653a2070617573656400000000000000000000000000000000604082015260600190565b60208082526038908201527f4552433732313a20617070726f76652063616c6c6572206973206e6f74206f7760408201527f6e6572206e6f7220617070726f76656420666f7220616c6c0000000000000000606082015260800190565b6020808252602a908201527f4552433732313a2062616c616e636520717565727920666f7220746865207a6560408201527f726f206164647265737300000000000000000000000000000000000000000000606082015260800190565b60208082526029908201527f4552433732313a206f776e657220717565727920666f72206e6f6e657869737460408201527f656e7420746f6b656e0000000000000000000000000000000000000000000000606082015260800190565b6020808252818101527f4552433732313a206d696e7420746f20746865207a65726f2061646472657373604082015260600190565b6020808252602c908201527f4552433732313a20617070726f76656420717565727920666f72206e6f6e657860408201527f697374656e7420746f6b656e0000000000000000000000000000000000000000606082015260800190565b60208082526029908201527f4552433732313a207472616e73666572206f6620746f6b656e2074686174206960408201527f73206e6f74206f776e0000000000000000000000000000000000000000000000606082015260800190565b6020808252602f908201527f4552433732314d657461646174613a2055524920717565727920666f72206e6f60408201527f6e6578697374656e7420746f6b656e0000000000000000000000000000000000606082015260800190565b60208082526021908201527f4552433732313a20617070726f76616c20746f2063757272656e74206f776e6560408201527f7200000000000000000000000000000000000000000000000000000000000000606082015260800190565b60208082526031908201527f4552433732313a207472616e736665722063616c6c6572206973206e6f74206f60408201527f776e6572206e6f7220617070726f766564000000000000000000000000000000606082015260800190565b6020808252602c908201527f455243373231456e756d657261626c653a20676c6f62616c20696e646578206f60408201527f7574206f6620626f756e64730000000000000000000000000000000000000000606082015260800190565b6020808252603d908201527f4552433732315072657365744d696e7465725061757365724175746f49643a2060408201527f6d7573742068617665206d696e74657220726f6c6520746f206d696e74000000606082015260800190565b60208082526030908201527f4552433732314275726e61626c653a2063616c6c6572206973206e6f74206f7760408201527f6e6572206e6f7220617070726f76656400000000000000000000000000000000606082015260800190565b602080825260409082018190527f4552433732315072657365744d696e7465725061757365724175746f49643a20908201527f6d75737420686176652070617573657220726f6c6520746f20756e7061757365606082015260800190565b6020808252602f908201527f416363657373436f6e74726f6c3a2063616e206f6e6c792072656e6f756e636560408201527f20726f6c657320666f722073656c660000000000000000000000000000000000606082015260800190565b60008219821115612c4f57612c4f612d4e565b500190565b600082612c6357612c63612d67565b500490565b6000816000190483118215151615612c8257612c82612d4e565b500290565b600082821015612c9957612c99612d4e565b500390565b60005b83811015612cb9578181015183820152602001612ca1565b83811115610bd65750506000910152565b600081612cd957612cd9612d4e565b506000190190565b600281046001821680612cf557607f821691505b60208210811415612d195760e060020a634e487b7102600052602260045260246000fd5b50919050565b6000600019821415612d3357612d33612d4e565b5060010190565b600082612d4957612d49612d67565b500690565b60e060020a634e487b7102600052601160045260246000fd5b60e060020a634e487b7102600052601260045260246000fd5b60e060020a634e487b7102600052604160045260246000fd5b600160e060020a0319811681146108cc57600080fdfea26469706673582212205bcca0d4d1f9519b107cd01207d95cea69e0c1f01fde001ec99de2cd6e3c285664736f6c63430008000033",
  "immutableReferences": {},
  "source": "// SPDX-License-Identifier: MIT\n\npragma solidity ^0.8.0;\n\nimport \"../ERC721.sol\";\nimport \"../extensions/ERC721Enumerable.sol\";\nimport \"../extensions/ERC721Burnable.sol\";\nimport \"../extensions/ERC721Pausable.sol\";\nimport \"../../access/AccessControlEnumerable.sol\";\nimport \"../../utils/Context.sol\";\nimport \"../../utils/Counters.sol\";\n\n/**\n * @dev {ERC721} token, including:\n *\n *  - ability for holders to burn (destroy) their tokens\n *  - a minter role that allows for token minting (creation)\n *  - a pauser role that allows to stop all token transfers\n *  - token ID and URI autogeneration\n *\n * This contract uses {AccessControl} to lock permissioned functions using the\n * different roles - head to its documentation for details.\n *\n * The account that deploys the contract will be granted the minter and pauser\n * roles, as well as the default admin role, which will let it grant both minter\n * and pauser roles to other accounts.\n */\ncontract ERC721PresetMinterPauserAutoId is\n    Context,\n    AccessControlEnumerable,\n    ERC721Enumerable,\n    ERC721Burnable,\n    ERC721Pausable\n{\n    using Counters for Counters.Counter;\n\n    bytes32 public constant MINTER_ROLE = keccak256(\"MINTER_ROLE\");\n    bytes32 public constant PAUSER_ROLE = keccak256(\"PAUSER_ROLE\");\n\n    Counters.Counter private _tokenIdTracker;\n\n    string private _baseTokenURI;\n\n    /**\n     * @dev Grants `DEFAULT_ADMIN_ROLE`, `MINTER_ROLE` and `PAUSER_ROLE` to the\n     * account that deploys the contract.\n     *\n     * Token URIs will be autogenerated based on `baseURI` and their token IDs.\n     * See {ERC721-tokenURI}.\n     */\n    constructor(\n        string memory name,\n        string memory symbol,\n        string memory baseTokenURI\n    ) ERC721(name, symbol) {\n        _baseTokenURI = baseTokenURI;\n\n        _setupRole(DEFAULT_ADMIN_ROLE, _msgSender());\n\n        _setupRole(MINTER_ROLE, _msgSender());\n        _setupRole(PAUSER_ROLE, _msgSender());\n    }\n\n    function _baseURI() internal view virtual override returns (string memory) {\n        return _baseTokenURI;\n    }\n\n    /**\n     * @dev Creates a new token for `to`. Its token ID will be automatically\n     * assigned (and available on the emitted {IERC721-Transfer} event), and the token\n     * URI autogenerated based on the base URI passed at construction.\n     *\n     * See {ERC721-_mint}.\n     *\n     * Requirements:\n     *\n     * - the caller must have the `MINTER_ROLE`.\n     */\n    function mint(address to) public virtual {\n        require(hasRole(MINTER_ROLE, _msgSender()), \"ERC721PresetMinterPauserAutoId: must have minter role to mint\");\n\n        // We cannot just use balanceOf to create the new tokenId because tokens\n        // can be burned (destroyed), so we need a separate counter.\n        _mint(to, _tokenIdTracker.current());\n        _tokenIdTracker.increment();\n    }\n\n    /**\n     * @dev Pauses all token transfers.\n     *\n     * See {ERC721Pausable} and {Pausable-_pause}.\n     *\n     * Requirements:\n     *\n     * - the caller must have the `PAUSER_ROLE`.\n     */\n    function pause() public virtual {\n        require(hasRole(PAUSER_ROLE, _msgSender()), \"ERC721PresetMinterPauserAutoId: must have pauser role to pause\");\n        _pause();\n    }\n\n    /**\n     * @dev Unpauses all token transfers.\n     *\n     * See {ERC721Pausable} and {Pausable-_unpause}.\n     *\n     * Requirements:\n     *\n     * - the caller must have the `PAUSER_ROLE`.\n     */\n    function unpause() public virtual {\n        require(hasRole(PAUSER_ROLE, _msgSender()), \"ERC721PresetMinterPauserAutoId: must have pauser role to unpause\");\n        _unpause();\n    }\n\n    function _beforeTokenTransfer(\n        address from,\n        address to,\n        uint256 tokenId\n    ) internal virtual override(ERC721, ERC721Enumerable, ERC721Pausable) {\n        super._beforeTokenTransfer(from, to, tokenId);\n    }\n\n    /**\n     * @dev See {IERC165-supportsInterface}.\n     */\n    function supportsInterface(bytes4 interfaceId)\n        public\n        view\n        virtual\n        override(AccessControlEnumerable, ERC721, ERC721Enumerable)\n        returns (bool)\n    {\n        return super.supportsInterface(interfaceId);\n    }\n}",
  "sourcePath": "/Volumes/Transcend/Projects/DappsLab/Lottery-Smart-Contract/contracts/custom50PersentCharityNFT/ERC721/presets/ERC721PresetMinterPauserAutoId.sol",
  "compiler": {
    "name": "solc",
    "version": "0.8.0+commit.c7dfd78e.Emscripten.clang"
  },
  "schemaVersion": "3.4.3",
  "updatedAt": "2021-10-28T10:35:29.176Z",
  "devdoc": {
    "details": "{ERC721} token, including:  - ability for holders to burn (destroy) their tokens  - a minter role that allows for token minting (creation)  - a pauser role that allows to stop all token transfers  - token ID and URI autogeneration This contract uses {AccessControl} to lock permissioned functions using the different roles - head to its documentation for details. The account that deploys the contract will be granted the minter and pauser roles, as well as the default admin role, which will let it grant both minter and pauser roles to other accounts.",
    "kind": "dev",
    "methods": {
      "_spend(uint256,address)": {
        "details": "See {IERC721-safeTransferFrom}."
      },
      "approve(address,uint256)": {
        "details": "See {IERC721-approve}."
      },
      "balanceOf(address)": {
        "details": "See {IERC721-balanceOf}."
      },
      "burn(uint256)": {
        "details": "Burns `tokenId`. See {ERC721-_burn}. Requirements: - The caller must own `tokenId` or be an approved operator."
      },
      "constructor": {
        "details": "Grants `DEFAULT_ADMIN_ROLE`, `MINTER_ROLE` and `PAUSER_ROLE` to the account that deploys the contract. Token URIs will be autogenerated based on `baseURI` and their token IDs. See {ERC721-tokenURI}."
      },
      "getApproved(uint256)": {
        "details": "See {IERC721-getApproved}."
      },
      "getRoleAdmin(bytes32)": {
        "details": "Returns the admin role that controls `role`. See {grantRole} and {revokeRole}. To change a role's admin, use {_setRoleAdmin}."
      },
      "getRoleMember(bytes32,uint256)": {
        "details": "Returns one of the accounts that have `role`. `index` must be a value between 0 and {getRoleMemberCount}, non-inclusive. Role bearers are not sorted in any particular way, and their ordering may change at any point. WARNING: When using {getRoleMember} and {getRoleMemberCount}, make sure you perform all queries on the same block. See the following https://forum.openzeppelin.com/t/iterating-over-elements-on-enumerableset-in-openzeppelin-contracts/2296[forum post] for more information."
      },
      "getRoleMemberCount(bytes32)": {
        "details": "Returns the number of accounts that have `role`. Can be used together with {getRoleMember} to enumerate all bearers of a role."
      },
      "grantRole(bytes32,address)": {
        "details": "Overload {grantRole} to track enumerable memberships"
      },
      "hasRole(bytes32,address)": {
        "details": "Returns `true` if `account` has been granted `role`."
      },
      "isApprovedForAll(address,address)": {
        "details": "See {IERC721-isApprovedForAll}."
      },
      "mint(address)": {
        "details": "Creates a new token for `to`. Its token ID will be automatically assigned (and available on the emitted {IERC721-Transfer} event), and the token URI autogenerated based on the base URI passed at construction. See {ERC721-_mint}. Requirements: - the caller must have the `MINTER_ROLE`."
      },
      "name()": {
        "details": "See {IERC721Metadata-name}."
      },
      "ownerOf(uint256)": {
        "details": "See {IERC721-ownerOf}."
      },
      "pause()": {
        "details": "Pauses all token transfers. See {ERC721Pausable} and {Pausable-_pause}. Requirements: - the caller must have the `PAUSER_ROLE`."
      },
      "paused()": {
        "details": "Returns true if the contract is paused, and false otherwise."
      },
      "renounceRole(bytes32,address)": {
        "details": "Overload {renounceRole} to track enumerable memberships"
      },
      "revokeRole(bytes32,address)": {
        "details": "Overload {revokeRole} to track enumerable memberships"
      },
      "safeTransferFrom(address,address,uint256)": {
        "details": "Safely transfers `tokenId` token from `from` to `to`, checking first that contract recipients are aware of the ERC721 protocol to prevent tokens from being forever locked. Requirements: - `from` cannot be the zero address. - `to` cannot be the zero address. - `tokenId` token must exist and be owned by `from`. - If the caller is not `from`, it must be have been allowed to move this token by either {approve} or {setApprovalForAll}. - If `to` refers to a smart contract, it must implement {IERC721Receiver-onERC721Received}, which is called upon a safe transfer. Emits a {Transfer} event."
      },
      "safeTransferFrom(address,address,uint256,bytes)": {
        "details": "See {IERC721-safeTransferFrom}."
      },
      "setApprovalForAll(address,bool)": {
        "details": "See {IERC721-setApprovalForAll}."
      },
      "supportsInterface(bytes4)": {
        "details": "See {IERC165-supportsInterface}."
      },
      "symbol()": {
        "details": "See {IERC721Metadata-symbol}."
      },
      "tokenByIndex(uint256)": {
        "details": "See {IERC721Enumerable-tokenByIndex}."
      },
      "tokenOfOwnerByIndex(address,uint256)": {
        "details": "See {IERC721Enumerable-tokenOfOwnerByIndex}."
      },
      "tokenURI(uint256)": {
        "details": "See {IERC721Metadata-tokenURI}."
      },
      "totalSupply()": {
        "details": "See {IERC721Enumerable-totalSupply}."
      },
      "transferFrom(address,address,uint256)": {
        "details": "See {IERC721-transferFrom}."
      },
      "unpause()": {
        "details": "Unpauses all token transfers. See {ERC721Pausable} and {Pausable-_unpause}. Requirements: - the caller must have the `PAUSER_ROLE`."
      }
    },
    "version": 1
  },
  "userdoc": {
    "kind": "user",
    "methods": {},
    "version": 1
  }
}