{
  "contractName": "ERC721PresetMinterPauserAutoId",
  "abi": [
    {
      "inputs": [
        {
          "internalType": "string",
          "name": "name",
          "type": "string"
        },
        {
          "internalType": "string",
          "name": "symbol",
          "type": "string"
        },
        {
          "internalType": "string",
          "name": "baseTokenURI",
          "type": "string"
        }
      ],
      "stateMutability": "nonpayable",
      "type": "constructor"
    },
    {
      "anonymous": false,
      "inputs": [
        {
          "indexed": true,
          "internalType": "address",
          "name": "owner",
          "type": "address"
        },
        {
          "indexed": true,
          "internalType": "address",
          "name": "approved",
          "type": "address"
        },
        {
          "indexed": true,
          "internalType": "uint256",
          "name": "tokenId",
          "type": "uint256"
        }
      ],
      "name": "Approval",
      "type": "event"
    },
    {
      "anonymous": false,
      "inputs": [
        {
          "indexed": true,
          "internalType": "address",
          "name": "owner",
          "type": "address"
        },
        {
          "indexed": true,
          "internalType": "address",
          "name": "operator",
          "type": "address"
        },
        {
          "indexed": false,
          "internalType": "bool",
          "name": "approved",
          "type": "bool"
        }
      ],
      "name": "ApprovalForAll",
      "type": "event"
    },
    {
      "anonymous": false,
      "inputs": [
        {
          "indexed": false,
          "internalType": "address",
          "name": "account",
          "type": "address"
        }
      ],
      "name": "Paused",
      "type": "event"
    },
    {
      "anonymous": false,
      "inputs": [
        {
          "indexed": true,
          "internalType": "bytes32",
          "name": "role",
          "type": "bytes32"
        },
        {
          "indexed": true,
          "internalType": "bytes32",
          "name": "previousAdminRole",
          "type": "bytes32"
        },
        {
          "indexed": true,
          "internalType": "bytes32",
          "name": "newAdminRole",
          "type": "bytes32"
        }
      ],
      "name": "RoleAdminChanged",
      "type": "event"
    },
    {
      "anonymous": false,
      "inputs": [
        {
          "indexed": true,
          "internalType": "bytes32",
          "name": "role",
          "type": "bytes32"
        },
        {
          "indexed": true,
          "internalType": "address",
          "name": "account",
          "type": "address"
        },
        {
          "indexed": true,
          "internalType": "address",
          "name": "sender",
          "type": "address"
        }
      ],
      "name": "RoleGranted",
      "type": "event"
    },
    {
      "anonymous": false,
      "inputs": [
        {
          "indexed": true,
          "internalType": "bytes32",
          "name": "role",
          "type": "bytes32"
        },
        {
          "indexed": true,
          "internalType": "address",
          "name": "account",
          "type": "address"
        },
        {
          "indexed": true,
          "internalType": "address",
          "name": "sender",
          "type": "address"
        }
      ],
      "name": "RoleRevoked",
      "type": "event"
    },
    {
      "anonymous": false,
      "inputs": [
        {
          "indexed": true,
          "internalType": "address",
          "name": "from",
          "type": "address"
        },
        {
          "indexed": true,
          "internalType": "address",
          "name": "to",
          "type": "address"
        },
        {
          "indexed": true,
          "internalType": "uint256",
          "name": "tokenId",
          "type": "uint256"
        }
      ],
      "name": "Transfer",
      "type": "event"
    },
    {
      "anonymous": false,
      "inputs": [
        {
          "indexed": false,
          "internalType": "address",
          "name": "account",
          "type": "address"
        }
      ],
      "name": "Unpaused",
      "type": "event"
    },
    {
      "inputs": [],
      "name": "DEFAULT_ADMIN_ROLE",
      "outputs": [
        {
          "internalType": "bytes32",
          "name": "",
          "type": "bytes32"
        }
      ],
      "stateMutability": "view",
      "type": "function"
    },
    {
      "inputs": [],
      "name": "MINTER_ROLE",
      "outputs": [
        {
          "internalType": "bytes32",
          "name": "",
          "type": "bytes32"
        }
      ],
      "stateMutability": "view",
      "type": "function"
    },
    {
      "inputs": [],
      "name": "PAUSER_ROLE",
      "outputs": [
        {
          "internalType": "bytes32",
          "name": "",
          "type": "bytes32"
        }
      ],
      "stateMutability": "view",
      "type": "function"
    },
    {
      "inputs": [
        {
          "internalType": "address",
          "name": "to",
          "type": "address"
        },
        {
          "internalType": "uint256",
          "name": "tokenId",
          "type": "uint256"
        },
        {
          "internalType": "string",
          "name": "username_",
          "type": "string"
        },
        {
          "internalType": "string",
          "name": "email_",
          "type": "string"
        }
      ],
      "name": "_safeMint",
      "outputs": [],
      "stateMutability": "nonpayable",
      "type": "function"
    },
    {
      "inputs": [
        {
          "internalType": "address",
          "name": "to",
          "type": "address"
        },
        {
          "internalType": "uint256",
          "name": "tokenId",
          "type": "uint256"
        }
      ],
      "name": "approve",
      "outputs": [],
      "stateMutability": "nonpayable",
      "type": "function"
    },
    {
      "inputs": [
        {
          "internalType": "uint256",
          "name": "tokenId",
          "type": "uint256"
        }
      ],
      "name": "articlesOf",
      "outputs": [
        {
          "internalType": "string[]",
          "name": "",
          "type": "string[]"
        }
      ],
      "stateMutability": "view",
      "type": "function"
    },
    {
      "inputs": [
        {
          "internalType": "uint256",
          "name": "tokenId",
          "type": "uint256"
        },
        {
          "internalType": "uint256",
          "name": "articleID",
          "type": "uint256"
        }
      ],
      "name": "asticleOfPassportByID",
      "outputs": [
        {
          "internalType": "string",
          "name": "",
          "type": "string"
        }
      ],
      "stateMutability": "view",
      "type": "function"
    },
    {
      "inputs": [
        {
          "internalType": "address",
          "name": "owner",
          "type": "address"
        }
      ],
      "name": "balanceOf",
      "outputs": [
        {
          "internalType": "uint256",
          "name": "",
          "type": "uint256"
        }
      ],
      "stateMutability": "view",
      "type": "function"
    },
    {
      "inputs": [
        {
          "internalType": "uint256",
          "name": "tokenId",
          "type": "uint256"
        }
      ],
      "name": "burn",
      "outputs": [],
      "stateMutability": "nonpayable",
      "type": "function"
    },
    {
      "inputs": [
        {
          "internalType": "uint256",
          "name": "tokenId",
          "type": "uint256"
        }
      ],
      "name": "emailOf",
      "outputs": [
        {
          "internalType": "string",
          "name": "",
          "type": "string"
        }
      ],
      "stateMutability": "view",
      "type": "function"
    },
    {
      "inputs": [
        {
          "internalType": "uint256",
          "name": "tokenId",
          "type": "uint256"
        }
      ],
      "name": "getApproved",
      "outputs": [
        {
          "internalType": "address",
          "name": "",
          "type": "address"
        }
      ],
      "stateMutability": "view",
      "type": "function"
    },
    {
      "inputs": [
        {
          "internalType": "bytes32",
          "name": "role",
          "type": "bytes32"
        }
      ],
      "name": "getRoleAdmin",
      "outputs": [
        {
          "internalType": "bytes32",
          "name": "",
          "type": "bytes32"
        }
      ],
      "stateMutability": "view",
      "type": "function"
    },
    {
      "inputs": [
        {
          "internalType": "bytes32",
          "name": "role",
          "type": "bytes32"
        },
        {
          "internalType": "uint256",
          "name": "index",
          "type": "uint256"
        }
      ],
      "name": "getRoleMember",
      "outputs": [
        {
          "internalType": "address",
          "name": "",
          "type": "address"
        }
      ],
      "stateMutability": "view",
      "type": "function"
    },
    {
      "inputs": [
        {
          "internalType": "bytes32",
          "name": "role",
          "type": "bytes32"
        }
      ],
      "name": "getRoleMemberCount",
      "outputs": [
        {
          "internalType": "uint256",
          "name": "",
          "type": "uint256"
        }
      ],
      "stateMutability": "view",
      "type": "function"
    },
    {
      "inputs": [
        {
          "internalType": "bytes32",
          "name": "role",
          "type": "bytes32"
        },
        {
          "internalType": "address",
          "name": "account",
          "type": "address"
        }
      ],
      "name": "grantRole",
      "outputs": [],
      "stateMutability": "nonpayable",
      "type": "function"
    },
    {
      "inputs": [
        {
          "internalType": "bytes32",
          "name": "role",
          "type": "bytes32"
        },
        {
          "internalType": "address",
          "name": "account",
          "type": "address"
        }
      ],
      "name": "hasRole",
      "outputs": [
        {
          "internalType": "bool",
          "name": "",
          "type": "bool"
        }
      ],
      "stateMutability": "view",
      "type": "function"
    },
    {
      "inputs": [
        {
          "internalType": "address",
          "name": "owner",
          "type": "address"
        },
        {
          "internalType": "address",
          "name": "operator",
          "type": "address"
        }
      ],
      "name": "isApprovedForAll",
      "outputs": [
        {
          "internalType": "bool",
          "name": "",
          "type": "bool"
        }
      ],
      "stateMutability": "view",
      "type": "function"
    },
    {
      "inputs": [],
      "name": "name",
      "outputs": [
        {
          "internalType": "string",
          "name": "",
          "type": "string"
        }
      ],
      "stateMutability": "view",
      "type": "function"
    },
    {
      "inputs": [
        {
          "internalType": "uint256",
          "name": "tokenId",
          "type": "uint256"
        }
      ],
      "name": "ownerOf",
      "outputs": [
        {
          "internalType": "address",
          "name": "",
          "type": "address"
        }
      ],
      "stateMutability": "view",
      "type": "function"
    },
    {
      "inputs": [],
      "name": "paused",
      "outputs": [
        {
          "internalType": "bool",
          "name": "",
          "type": "bool"
        }
      ],
      "stateMutability": "view",
      "type": "function"
    },
    {
      "inputs": [
        {
          "internalType": "bytes32",
          "name": "role",
          "type": "bytes32"
        },
        {
          "internalType": "address",
          "name": "account",
          "type": "address"
        }
      ],
      "name": "renounceRole",
      "outputs": [],
      "stateMutability": "nonpayable",
      "type": "function"
    },
    {
      "inputs": [
        {
          "internalType": "bytes32",
          "name": "role",
          "type": "bytes32"
        },
        {
          "internalType": "address",
          "name": "account",
          "type": "address"
        }
      ],
      "name": "revokeRole",
      "outputs": [],
      "stateMutability": "nonpayable",
      "type": "function"
    },
    {
      "inputs": [
        {
          "internalType": "address",
          "name": "from",
          "type": "address"
        },
        {
          "internalType": "address",
          "name": "to",
          "type": "address"
        },
        {
          "internalType": "uint256",
          "name": "tokenId",
          "type": "uint256"
        }
      ],
      "name": "safeTransferFrom",
      "outputs": [],
      "stateMutability": "nonpayable",
      "type": "function"
    },
    {
      "inputs": [
        {
          "internalType": "address",
          "name": "from",
          "type": "address"
        },
        {
          "internalType": "address",
          "name": "to",
          "type": "address"
        },
        {
          "internalType": "uint256",
          "name": "tokenId",
          "type": "uint256"
        },
        {
          "internalType": "bytes",
          "name": "_data",
          "type": "bytes"
        }
      ],
      "name": "safeTransferFrom",
      "outputs": [],
      "stateMutability": "nonpayable",
      "type": "function"
    },
    {
      "inputs": [
        {
          "internalType": "address",
          "name": "operator",
          "type": "address"
        },
        {
          "internalType": "bool",
          "name": "approved",
          "type": "bool"
        }
      ],
      "name": "setApprovalForAll",
      "outputs": [],
      "stateMutability": "nonpayable",
      "type": "function"
    },
    {
      "inputs": [
        {
          "internalType": "uint256",
          "name": "tokenId",
          "type": "uint256"
        },
        {
          "internalType": "string",
          "name": "CID",
          "type": "string"
        }
      ],
      "name": "setArticle",
      "outputs": [],
      "stateMutability": "nonpayable",
      "type": "function"
    },
    {
      "inputs": [],
      "name": "symbol",
      "outputs": [
        {
          "internalType": "string",
          "name": "",
          "type": "string"
        }
      ],
      "stateMutability": "view",
      "type": "function"
    },
    {
      "inputs": [
        {
          "internalType": "uint256",
          "name": "index",
          "type": "uint256"
        }
      ],
      "name": "tokenByIndex",
      "outputs": [
        {
          "internalType": "uint256",
          "name": "",
          "type": "uint256"
        }
      ],
      "stateMutability": "view",
      "type": "function"
    },
    {
      "inputs": [
        {
          "internalType": "address",
          "name": "owner",
          "type": "address"
        },
        {
          "internalType": "uint256",
          "name": "index",
          "type": "uint256"
        }
      ],
      "name": "tokenOfOwnerByIndex",
      "outputs": [
        {
          "internalType": "uint256",
          "name": "",
          "type": "uint256"
        }
      ],
      "stateMutability": "view",
      "type": "function"
    },
    {
      "inputs": [
        {
          "internalType": "uint256",
          "name": "tokenId",
          "type": "uint256"
        }
      ],
      "name": "tokenURI",
      "outputs": [
        {
          "internalType": "string",
          "name": "",
          "type": "string"
        }
      ],
      "stateMutability": "view",
      "type": "function"
    },
    {
      "inputs": [],
      "name": "totalSupply",
      "outputs": [
        {
          "internalType": "uint256",
          "name": "",
          "type": "uint256"
        }
      ],
      "stateMutability": "view",
      "type": "function"
    },
    {
      "inputs": [
        {
          "internalType": "address",
          "name": "from",
          "type": "address"
        },
        {
          "internalType": "address",
          "name": "to",
          "type": "address"
        },
        {
          "internalType": "uint256",
          "name": "tokenId",
          "type": "uint256"
        }
      ],
      "name": "transferFrom",
      "outputs": [],
      "stateMutability": "nonpayable",
      "type": "function"
    },
    {
      "inputs": [
        {
          "internalType": "uint256",
          "name": "tokenId",
          "type": "uint256"
        }
      ],
      "name": "usernameOf",
      "outputs": [
        {
          "internalType": "string",
          "name": "",
          "type": "string"
        }
      ],
      "stateMutability": "view",
      "type": "function"
    },
    {
      "inputs": [
        {
          "internalType": "address",
          "name": "userWallet",
          "type": "address"
        },
        {
          "internalType": "uint256",
          "name": "quantity",
          "type": "uint256"
        }
      ],
      "name": "claimTo",
      "outputs": [],
      "stateMutability": "payable",
      "type": "function"
    },
    {
      "inputs": [
        {
          "internalType": "address",
          "name": "to",
          "type": "address"
        }
      ],
      "name": "mint",
      "outputs": [],
      "stateMutability": "nonpayable",
      "type": "function"
    },
    {
      "inputs": [],
      "name": "pause",
      "outputs": [],
      "stateMutability": "nonpayable",
      "type": "function"
    },
    {
      "inputs": [],
      "name": "unpause",
      "outputs": [],
      "stateMutability": "nonpayable",
      "type": "function"
    },
    {
      "inputs": [
        {
          "internalType": "bytes4",
          "name": "interfaceId",
          "type": "bytes4"
        }
      ],
      "name": "supportsInterface",
      "outputs": [
        {
          "internalType": "bool",
          "name": "",
          "type": "bool"
        }
      ],
      "stateMutability": "view",
      "type": "function"
    }
  ],
  "bytecode": "0x60806040523480156200001157600080fd5b5060405162003a7b38038062003a7b83398101604081905262000034916200043a565b8251839083906200004d906002906020850190620002e9565b50805162000063906003906020840190620002e9565b50506011805460ff1916905550805162000085906013906020840190620002e9565b50620000ae60006200009f64010000000062000127810204565b6401000000006200012b810204565b620000e67f9f2df0fed2c77648de5860a4cc508cd0818c85b8b8a1ab4ceeef8d981c8956a66200009f64010000000062000127810204565b6200011e7f65d7a28e3265b37a6474929f336521b332c1681b933f6cb9f3376673440d862a6200009f64010000000062000127810204565b5050506200054c565b3390565b620001458282640100000000620011df6200017282021704565b60008281526001602052604090206200016d9082640100000000620011e96200018b82021704565b505050565b620001878282640100000000620001b4810204565b5050565b6000620001ab83600160a060020a03841664010000000062000250810204565b90505b92915050565b620001c98282640100000000620002a8810204565b6200018757600082815260208181526040808320600160a060020a03851684529091529020805460ff191660011790556200020c64010000000062000127810204565b600160a060020a031681600160a060020a0316837f2f8788117e7eff1d82e926ec794901d17c78024a50270940304540a733656f0d60405160405180910390a45050565b6000620002678383640100000000620002d1810204565b6200029f57508154600181810184556000848152602080822090930184905584548482528286019093526040902091909155620001ae565b506000620001ae565b600091825260208281526040808420600160a060020a0393909316845291905290205460ff1690565b60009081526001919091016020526040902054151590565b828054620002f790620004c7565b90600052602060002090601f0160209004810192826200031b576000855562000366565b82601f106200033657805160ff191683800117855562000366565b8280016001018555821562000366579182015b828111156200036657825182559160200191906001019062000349565b506200037492915062000378565b5090565b5b8082111562000374576000815560010162000379565b600082601f830112620003a0578081fd5b81516001604060020a0380821115620003bd57620003bd6200051d565b6040516020601f8401601f1916820181018381118382101715620003e557620003e56200051d565b6040528382528584018101871015620003fc578485fd5b8492505b838310156200041f578583018101518284018201529182019162000400565b838311156200043057848185840101525b5095945050505050565b6000806000606084860312156200044f578283fd5b83516001604060020a038082111562000466578485fd5b62000474878388016200038f565b945060208601519150808211156200048a578384fd5b62000498878388016200038f565b93506040860151915080821115620004ae578283fd5b50620004bd868287016200038f565b9150509250925092565b600281046001821680620004dc57607f821691505b6020821081141562000517577f4e487b7100000000000000000000000000000000000000000000000000000000600052602260045260246000fd5b50919050565b7f4e487b7100000000000000000000000000000000000000000000000000000000600052604160045260246000fd5b61351f806200055c6000396000f3fe608060405260043610610242576000357c0100000000000000000000000000000000000000000000000000000000900480636a62784211610140578063a6516e7a116100c8578063ca15c8731161008c578063ca15c87314610659578063d539139314610679578063d547741f1461068e578063e63ab1e9146106ae578063e985e9c5146106c357610242565b8063a6516e7a146105b9578063b88d4fde146105d9578063b8b0af36146105f9578063c6c1b3be14610619578063c87b56dd1461063957610242565b806391d148541161010f57806391d148541461052257806395d89b4114610542578063a217fddf14610557578063a22cb4651461056c578063a56ed4441461058c57610242565b80636a627842146104ad57806370a08231146104cd5780638456cb59146104ed5780639010d07c1461050257610242565b80632f2ff15d116101ce57806342842e0e1161019257806342842e0e1461041857806342966c68146104385780634f6ccce7146104585780635c975abb146104785780636352211e1461048d57610242565b80632f2ff15d146103835780632f745c59146103a35780633101f1cc146103c357806336568abe146103e35780633f4ba83a1461040357610242565b80631204fe0c116102155780631204fe0c146102ee57806318160ddd146103015780631e6c0b361461032357806323b872dd14610343578063248a9ca31461036357610242565b806301ffc9a71461024757806306fdde031461027d578063081812fc1461029f578063095ea7b3146102cc575b600080fd5b34801561025357600080fd5b50610267610262366004612875565b6106e3565b6040516102749190612a7e565b60405180910390f35b34801561028957600080fd5b506102926106f6565b6040516102749190612a92565b3480156102ab57600080fd5b506102bf6102ba36600461281a565b610788565b60405161027491906129ce565b3480156102d857600080fd5b506102ec6102e7366004612782565b6107d7565b005b6102ec6102fc366004612782565b610875565b34801561030d57600080fd5b506103166108ef565b6040516102749190612a89565b34801561032f57600080fd5b5061029261033e36600461281a565b6108f5565b34801561034f57600080fd5b506102ec61035e366004612694565b6109cd565b34801561036f57600080fd5b5061031661037e36600461281a565b610a08565b34801561038f57600080fd5b506102ec61039e366004612832565b610a1d565b3480156103af57600080fd5b506103166103be366004612782565b610a3f565b3480156103cf57600080fd5b506102ec6103de3660046128ad565b610a97565b3480156103ef57600080fd5b506102ec6103fe366004612832565b610b56565b34801561040f57600080fd5b506102ec610b78565b34801561042457600080fd5b506102ec610433366004612694565b610bcd565b34801561044457600080fd5b506102ec61045336600461281a565b610be8565b34801561046457600080fd5b5061031661047336600461281a565b610c1e565b34801561048457600080fd5b50610267610c7f565b34801561049957600080fd5b506102bf6104a836600461281a565b610c88565b3480156104b957600080fd5b506102ec6104c8366004612648565b610cc0565b3480156104d957600080fd5b506103166104e8366004612648565b610d28565b3480156104f957600080fd5b506102ec610d6f565b34801561050e57600080fd5b506102bf61051d366004612854565b610dc2565b34801561052e57600080fd5b5061026761053d366004612832565b610de1565b34801561054e57600080fd5b50610292610e0a565b34801561056357600080fd5b50610316610e19565b34801561057857600080fd5b506102ec610587366004612748565b610e1e565b34801561059857600080fd5b506105ac6105a736600461281a565b610e34565b6040516102749190612a1e565b3480156105c557600080fd5b506102ec6105d43660046127ab565b610f20565b3480156105e557600080fd5b506102ec6105f43660046126cf565b610f80565b34801561060557600080fd5b50610292610614366004612854565b610fc2565b34801561062557600080fd5b5061029261063436600461281a565b611070565b34801561064557600080fd5b5061029261065436600461281a565b6110c3565b34801561066557600080fd5b5061031661067436600461281a565b611148565b34801561068557600080fd5b5061031661115f565b34801561069a57600080fd5b506102ec6106a9366004612832565b611183565b3480156106ba57600080fd5b5061031661118d565b3480156106cf57600080fd5b506102676106de366004612662565b6111b1565b60006106ee826111fe565b90505b919050565b6060600280546107059061341b565b80601f01602080910402602001604051908101604052809291908181526020018280546107319061341b565b801561077e5780601f106107535761010080835404028352916020019161077e565b820191906000526020600020905b81548152906001019060200180831161076157829003601f168201915b5050505050905090565b60006107938261123c565b6107bb5760405160e560020a62461bcd0281526004016107b290612ff9565b60405180910390fd5b506000908152600b6020526040902054600160a060020a031690565b60006107e282610c88565b905080600160a060020a031683600160a060020a031614156108195760405160e560020a62461bcd0281526004016107b2906130ea565b80600160a060020a031661082b611259565b600160a060020a031614806108475750610847816106de611259565b6108665760405160e560020a62461bcd0281526004016107b290612e41565b610870838361125d565b505050565b61088381633b9aca006133a2565b3410156108a55760405160e560020a62461bcd0281526004016107b290612f58565b60058111156108c95760405160e560020a62461bcd0281526004016107b290612f8f565b60005b81811015610870576108dd33610cc0565b806108e781613459565b9150506108cc565b600f5490565b600081815260046020526040902054606090600160a060020a031661092f5760405160e560020a62461bcd0281526004016107b2906130b3565b600082815260056020526040902080546109489061341b565b80601f01602080910402602001604051908101604052809291908181526020018280546109749061341b565b80156109c15780601f10610996576101008083540402835291602001916109c1565b820191906000526020600020905b8154815290600101906020018083116109a457829003601f168201915b50505050509050919050565b6109de6109d8611259565b826112d8565b6109fd5760405160e560020a62461bcd0281526004016107b290613147565b610870838383611360565b60009081526020819052604090206001015490565b610a2782826114a6565b600082815260016020526040902061087090826111e9565b6000610a4a83610d28565b8210610a6b5760405160e560020a62461bcd0281526004016107b290612b6e565b50600160a060020a0382166000908152600d602090815260408083208484529091529020545b92915050565b600082815260046020526040902054600160a060020a0316610ace5760405160e560020a62461bcd0281526004016107b2906130b3565b600082815260086020526040902054610ae8906001613376565b600083815260086020908152604080832093909355600781529181208054600181018255908252908290208351610b2793919092019190840190612509565b506000828152600960209081526040808320600883528184205484528252909120825161087092840190612509565b610b6082826114ca565b6000828152600160205260409020610870908261150f565b610ba47f65d7a28e3265b37a6474929f336521b332c1681b933f6cb9f3376673440d862a61053d611259565b610bc35760405160e560020a62461bcd0281526004016107b2906132bb565b610bcb611524565b565b61087083838360405180602001604052806000815250610f80565b610bf36109d8611259565b610c125760405160e560020a62461bcd0281526004016107b29061325e565b610c1b81611595565b50565b6000610c286108ef565b8210610c495760405160e560020a62461bcd0281526004016107b2906131a4565b600f8281548110610c6d5760e060020a634e487b7102600052603260045260246000fd5b90600052602060002001549050919050565b60115460ff1690565b600081815260046020526040812054600160a060020a0316806106ee5760405160e560020a62461bcd0281526004016107b290612efb565b610cec7f9f2df0fed2c77648de5860a4cc508cd0818c85b8b8a1ab4ceeef8d981c8956a661053d611259565b610d0b5760405160e560020a62461bcd0281526004016107b290613201565b610d1e81610d196012611651565b611655565b610c1b601261174f565b6000600160a060020a038216610d535760405160e560020a62461bcd0281526004016107b290612e9e565b50600160a060020a03166000908152600a602052604090205490565b610d9b7f65d7a28e3265b37a6474929f336521b332c1681b933f6cb9f3376673440d862a61053d611259565b610dba5760405160e560020a62461bcd0281526004016107b290612cbc565b610bcb611758565b6000828152600160205260408120610dda90836117b6565b9392505050565b600091825260208281526040808420600160a060020a0393909316845291905290205460ff1690565b6060600380546107059061341b565b600081565b610e30610e29611259565b83836117c2565b5050565b606060076000838152602001908152602001600020805480602002602001604051908101604052809291908181526020016000905b82821015610f15578382906000526020600020018054610e889061341b565b80601f0160208091040260200160405190810160405280929190818152602001828054610eb49061341b565b8015610f015780601f10610ed657610100808354040283529160200191610f01565b820191906000526020600020905b815481529060010190602001808311610ee457829003601f168201915b505050505081526020019060010190610e69565b505050509050919050565b610f3a848460405180602001604052806000815250611868565b60008381526006602090815260409091208251610f5992840190612509565b5060008381526005602090815260409091208351610f7992850190612509565b5050505050565b610f91610f8b611259565b836112d8565b610fb05760405160e560020a62461bcd0281526004016107b290613147565b610fbc8484848461189e565b50505050565b60008281526009602090815260408083208484529091529020805460609190610fea9061341b565b80601f01602080910402602001604051908101604052809291908181526020018280546110169061341b565b80156110635780601f1061103857610100808354040283529160200191611063565b820191906000526020600020905b81548152906001019060200180831161104657829003601f168201915b5050505050905092915050565b600081815260046020526040902054606090600160a060020a03166110aa5760405160e560020a62461bcd0281526004016107b2906130b3565b600082815260066020526040902080546109489061341b565b60606110ce8261123c565b6110ed5760405160e560020a62461bcd0281526004016107b290613056565b60006110f76118d4565b905060008151116111175760405180602001604052806000815250610dda565b80611121846118e3565b60405160200161113292919061291e565b6040516020818303038152906040529392505050565b60008181526001602052604081206106ee90611a3f565b7f9f2df0fed2c77648de5860a4cc508cd0818c85b8b8a1ab4ceeef8d981c8956a681565b610b608282611a4a565b7f65d7a28e3265b37a6474929f336521b332c1681b933f6cb9f3376673440d862a81565b600160a060020a039182166000908152600c6020908152604080832093909416825291909152205460ff1690565b610e308282611a69565b6000610dda83600160a060020a038416611aee565b6000600160e060020a031982167f780e9d630000000000000000000000000000000000000000000000000000000014806106ee57506106ee82611b38565b600090815260046020526040902054600160a060020a0316151590565b3390565b6000818152600b60205260409020805473ffffffffffffffffffffffffffffffffffffffff1916600160a060020a038416908117909155819061129f82610c88565b600160a060020a03167f8c5be1e5ebec7d5bd14f71427d1e84f3dd0314c0f7b2291e5b200ac8c7c3b92560405160405180910390a45050565b60006112e38261123c565b6113025760405160e560020a62461bcd0281526004016107b290612dad565b600061130d83610c88565b905080600160a060020a031684600160a060020a03161480611334575061133481856111b1565b80611358575083600160a060020a031661134d84610788565b600160a060020a0316145b949350505050565b82600160a060020a031661137382610c88565b600160a060020a03161461139c5760405160e560020a62461bcd0281526004016107b290612c28565b600160a060020a0382166113c55760405160e560020a62461bcd0281526004016107b290612d19565b6113d0838383611baa565b6113db60008261125d565b600160a060020a0383166000908152600a602052604081208054600192906114049084906133c1565b9091555050600160a060020a0382166000908152600a60205260408120805460019290611432908490613376565b9091555050600081815260046020526040808220805473ffffffffffffffffffffffffffffffffffffffff1916600160a060020a0386811691821790925591518493918716917fddf252ad1be2c89b69c2b068fc378daa952ba7f163c4a11628f55a4df523b3ef91a4610870838383610870565b6114af82610a08565b6114c0816114bb611259565b611bb5565b6108708383611a69565b6114d2611259565b600160a060020a031681600160a060020a0316146115055760405160e560020a62461bcd0281526004016107b290613319565b610e308282611c1c565b6000610dda83600160a060020a038416611c9f565b61152c610c7f565b61154b5760405160e560020a62461bcd0281526004016107b290612b37565b6011805460ff191690557f5db9ee0a495bf2e6ff9c91a7834c1ba4fdd244a5e8aa4e537bd38aeae4b073aa61157e611259565b60405161158b91906129ce565b60405180910390a1565b60006115a082610c88565b90506115ae81600084611baa565b6115b960008361125d565b600160a060020a0381166000908152600a602052604081208054600192906115e29084906133c1565b9091555050600082815260046020526040808220805473ffffffffffffffffffffffffffffffffffffffff1916905551839190600160a060020a038416907fddf252ad1be2c89b69c2b068fc378daa952ba7f163c4a11628f55a4df523b3ef908390a4610e3081600084610870565b5490565b600160a060020a03821661167e5760405160e560020a62461bcd0281526004016107b290612fc4565b6116878161123c565b156116a75760405160e560020a62461bcd0281526004016107b290612c85565b6116b360008383611baa565b600160a060020a0382166000908152600a602052604081208054600192906116dc908490613376565b9091555050600081815260046020526040808220805473ffffffffffffffffffffffffffffffffffffffff1916600160a060020a03861690811790915590518392907fddf252ad1be2c89b69c2b068fc378daa952ba7f163c4a11628f55a4df523b3ef908290a4610e3060008383610870565b80546001019055565b611760610c7f565b156117805760405160e560020a62461bcd0281526004016107b290612e0a565b6011805460ff191660011790557f62e78cea01bee320cd4e420270b5ea74000d11b0c9f74754ebdbfc544b05a25861157e611259565b6000610dda8383611dc5565b81600160a060020a031683600160a060020a031614156117f75760405160e560020a62461bcd0281526004016107b290612d76565b600160a060020a038381166000818152600c602090815260408083209487168084529490915290819020805460ff1916851515179055517f17307eab39ab6107e8899845ad3d59bd9653f200f220920489ca2b5937696c319061185b908590612a7e565b60405180910390a3505050565b6118728383611655565b61187f6000848484611e00565b6108705760405160e560020a62461bcd0281526004016107b290612bcb565b6118a9848484611360565b6118b584848484611e00565b610fbc5760405160e560020a62461bcd0281526004016107b290612bcb565b6060601380546107059061341b565b606081611924575060408051808201909152600181527f300000000000000000000000000000000000000000000000000000000000000060208201526106f1565b8160005b811561194e578061193881613459565b91506119479050600a8361338e565b9150611928565b60008167ffffffffffffffff81111561197a5760e060020a634e487b7102600052604160045260246000fd5b6040519080825280601f01601f1916602001820160405280156119a4576020820181803683370190505b5090505b8415611358576119b96001836133c1565b91506119c6600a86613474565b6119d1906030613376565b7f010000000000000000000000000000000000000000000000000000000000000002818381518110611a165760e060020a634e487b7102600052603260045260246000fd5b6020010190600160f860020a031916908160001a905350611a38600a8661338e565b94506119a8565b60006106ee82611651565b611a5382610a08565b611a5f816114bb611259565b6108708383611c1c565b611a738282610de1565b610e3057600082815260208181526040808320600160a060020a03851684529091529020805460ff19166001179055611aaa611259565b600160a060020a031681600160a060020a0316837f2f8788117e7eff1d82e926ec794901d17c78024a50270940304540a733656f0d60405160405180910390a45050565b6000611afa8383611f53565b611b3057508154600181810184556000848152602080822090930184905584548482528286019093526040902091909155610a91565b506000610a91565b6000600160e060020a031982167f80ac58cd000000000000000000000000000000000000000000000000000000001480611b9b5750600160e060020a031982167f5b5e139f00000000000000000000000000000000000000000000000000000000145b806106ee57506106ee82611f6b565b610870838383611fa9565b611bbf8282610de1565b610e3057611bd781600160a060020a03166014611fdc565b611be2836020611fdc565b604051602001611bf392919061294d565b60408051601f198184030181529082905260e560020a62461bcd0282526107b291600401612a92565b611c268282610de1565b15610e3057600082815260208181526040808320600160a060020a03851684529091529020805460ff19169055611c5b611259565b600160a060020a031681600160a060020a0316837ff6391f5c32d9c69d2a47ea670b442974b53935d1edc7fd64eb21e047a839171b60405160405180910390a45050565b60008181526001830160205260408120548015611dbb576000611cc36001836133c1565b8554909150600090611cd7906001906133c1565b9050818114611d5e576000866000018281548110611d085760e060020a634e487b7102600052603260045260246000fd5b9060005260206000200154905080876000018481548110611d3c5760e060020a634e487b7102600052603260045260246000fd5b6000918252602080832090910192909255918252600188019052604090208390555b8554869080611d805760e060020a634e487b7102600052603160045260246000fd5b600190038181906000526020600020016000905590558560010160008681526020019081526020016000206000905560019350505050610a91565b6000915050610a91565b6000826000018281548110611ded5760e060020a634e487b7102600052603260045260246000fd5b9060005260206000200154905092915050565b6000611e1484600160a060020a0316612203565b15611f485783600160a060020a031663150b7a02611e30611259565b8786866040518563ffffffff167c0100000000000000000000000000000000000000000000000000000000028152600401611e6e94939291906129e2565b602060405180830381600087803b158015611e8857600080fd5b505af1925050508015611eb8575060408051601f3d908101601f19168201909252611eb591810190612891565b60015b611f15573d808015611ee6576040519150601f19603f3d011682016040523d82523d6000602084013e611eeb565b606091505b508051611f0d5760405160e560020a62461bcd0281526004016107b290612bcb565b805181602001fd5b600160e060020a0319167f150b7a0200000000000000000000000000000000000000000000000000000000149050611358565b506001949350505050565b60009081526001919091016020526040902054151590565b6000600160e060020a031982167f5a05180f0000000000000000000000000000000000000000000000000000000014806106ee57506106ee82612209565b611fb4838383612247565b611fbc610c7f565b156108705760405160e560020a62461bcd0281526004016107b290612ada565b60606000611feb8360026133a2565b611ff6906002613376565b67ffffffffffffffff81111561201f5760e060020a634e487b7102600052604160045260246000fd5b6040519080825280601f01601f191660200182016040528015612049576020820181803683370190505b5090507f3000000000000000000000000000000000000000000000000000000000000000816000815181106120915760e060020a634e487b7102600052603260045260246000fd5b6020010190600160f860020a031916908160001a9053507f7800000000000000000000000000000000000000000000000000000000000000816001815181106120ed5760e060020a634e487b7102600052603260045260246000fd5b6020010190600160f860020a031916908160001a90535060006121118460026133a2565b61211c906001613376565b90505b60018111156121e1577f303132333435363738396162636465660000000000000000000000000000000085600f166010811061216e5760e060020a634e487b7102600052603260045260246000fd5b1a7f0100000000000000000000000000000000000000000000000000000000000000028282815181106121b45760e060020a634e487b7102600052603260045260246000fd5b6020010190600160f860020a031916908160001a9053506010909404936121da81613404565b905061211f565b508315610dda5760405160e560020a62461bcd0281526004016107b290612aa5565b3b151590565b6000600160e060020a031982167f7965db0b0000000000000000000000000000000000000000000000000000000014806106ee57506106ee826122d0565b612252838383610870565b600160a060020a03831661226e5761226981612302565b612291565b81600160a060020a031683600160a060020a031614612291576122918382612346565b600160a060020a0382166122ad576122a8816123e3565b610870565b82600160a060020a031682600160a060020a0316146108705761087082826124c5565b600160e060020a031981167f01ffc9a70000000000000000000000000000000000000000000000000000000014919050565b600f80546000838152601060205260408120829055600182018355919091527f8d1108e10bcb7c27dddfc02ed9d693a074039d026cf4ea4240b40f7d581ac8020155565b6000600161235384610d28565b61235d91906133c1565b6000838152600e60205260409020549091508082146123b057600160a060020a0384166000908152600d602090815260408083208584528252808320548484528184208190558352600e90915290208190555b506000918252600e60209081526040808420849055600160a060020a039094168352600d81528383209183525290812055565b600f546000906123f5906001906133c1565b600083815260106020526040812054600f805493945090928490811061242e5760e060020a634e487b7102600052603260045260246000fd5b9060005260206000200154905080600f83815481106124605760e060020a634e487b7102600052603260045260246000fd5b600091825260208083209091019290925582815260109091526040808220849055858252812055600f8054806124a95760e060020a634e487b7102600052603160045260246000fd5b6001900381819060005260206000200160009055905550505050565b60006124d083610d28565b600160a060020a039093166000908152600d602090815260408083208684528252808320859055938252600e9052919091209190915550565b8280546125159061341b565b90600052602060002090601f016020900481019282612537576000855561257d565b82601f1061255057805160ff191683800117855561257d565b8280016001018555821561257d579182015b8281111561257d578251825591602001919060010190612562565b5061258992915061258d565b5090565b5b80821115612589576000815560010161258e565b600067ffffffffffffffff808411156125bd576125bd6134ba565b604051601f8501601f1916810160200182811182821017156125e1576125e16134ba565b6040528481529150818385018610156125f957600080fd5b8484602083013760006020868301015250509392505050565b8035600160a060020a03811681146106f157600080fd5b600082601f830112612639578081fd5b610dda838335602085016125a2565b600060208284031215612659578081fd5b610dda82612612565b60008060408385031215612674578081fd5b61267d83612612565b915061268b60208401612612565b90509250929050565b6000806000606084860312156126a8578081fd5b6126b184612612565b92506126bf60208501612612565b9150604084013590509250925092565b600080600080608085870312156126e4578081fd5b6126ed85612612565b93506126fb60208601612612565b925060408501359150606085013567ffffffffffffffff81111561271d578182fd5b8501601f8101871361272d578182fd5b61273c878235602084016125a2565b91505092959194509250565b6000806040838503121561275a578182fd5b61276383612612565b915060208301358015158114612777578182fd5b809150509250929050565b60008060408385031215612794578182fd5b61279d83612612565b946020939093013593505050565b600080600080608085870312156127c0578384fd5b6127c985612612565b935060208501359250604085013567ffffffffffffffff808211156127ec578384fd5b6127f888838901612629565b9350606087013591508082111561280d578283fd5b5061273c87828801612629565b60006020828403121561282b578081fd5b5035919050565b60008060408385031215612844578182fd5b8235915061268b60208401612612565b60008060408385031215612866578182fd5b50508035926020909101359150565b600060208284031215612886578081fd5b8135610dda816134d3565b6000602082840312156128a2578081fd5b8151610dda816134d3565b600080604083850312156128bf578182fd5b82359150602083013567ffffffffffffffff8111156128dc578182fd5b6128e885828601612629565b9150509250929050565b6000815180845261290a8160208601602086016133d8565b601f01601f19169290920160200192915050565b600083516129308184602088016133d8565b8351908301906129448183602088016133d8565b01949350505050565b60007f416363657373436f6e74726f6c3a206163636f756e7420000000000000000000825283516129858160178501602088016133d8565b7f206973206d697373696e6720726f6c652000000000000000000000000000000060179184019182015283516129c28160288401602088016133d8565b01602801949350505050565b600160a060020a0391909116815260200190565b6000600160a060020a03808716835280861660208401525083604083015260806060830152612a1460808301846128f2565b9695505050505050565b6000602080830181845280855180835260408601915060408482028701019250838701855b82811015612a7157603f19888603018452612a5f8583516128f2565b94509285019290850190600101612a43565b5092979650505050505050565b901515815260200190565b90815260200190565b600060208252610dda60208301846128f2565b6020808252818101527f537472696e67733a20686578206c656e67746820696e73756666696369656e74604082015260600190565b6020808252602b908201527f4552433732315061757361626c653a20746f6b656e207472616e73666572207760408201527f68696c6520706175736564000000000000000000000000000000000000000000606082015260800190565b60208082526014908201527f5061757361626c653a206e6f7420706175736564000000000000000000000000604082015260600190565b6020808252602b908201527f455243373231456e756d657261626c653a206f776e657220696e646578206f7560408201527f74206f6620626f756e6473000000000000000000000000000000000000000000606082015260800190565b60208082526032908201527f4552433732313a207472616e7366657220746f206e6f6e20455243373231526560408201527f63656976657220696d706c656d656e7465720000000000000000000000000000606082015260800190565b60208082526025908201527f4552433732313a207472616e736665722066726f6d20696e636f72726563742060408201527f6f776e6572000000000000000000000000000000000000000000000000000000606082015260800190565b6020808252601c908201527f4552433732313a20746f6b656e20616c7265616479206d696e74656400000000604082015260600190565b6020808252603e908201527f4552433732315072657365744d696e7465725061757365724175746f49643a2060408201527f6d75737420686176652070617573657220726f6c6520746f2070617573650000606082015260800190565b60208082526024908201527f4552433732313a207472616e7366657220746f20746865207a65726f2061646460408201527f7265737300000000000000000000000000000000000000000000000000000000606082015260800190565b60208082526019908201527f4552433732313a20617070726f766520746f2063616c6c657200000000000000604082015260600190565b6020808252602c908201527f4552433732313a206f70657261746f7220717565727920666f72206e6f6e657860408201527f697374656e7420746f6b656e0000000000000000000000000000000000000000606082015260800190565b60208082526010908201527f5061757361626c653a2070617573656400000000000000000000000000000000604082015260600190565b60208082526038908201527f4552433732313a20617070726f76652063616c6c6572206973206e6f74206f7760408201527f6e6572206e6f7220617070726f76656420666f7220616c6c0000000000000000606082015260800190565b6020808252602a908201527f4552433732313a2062616c616e636520717565727920666f7220746865207a6560408201527f726f206164647265737300000000000000000000000000000000000000000000606082015260800190565b60208082526029908201527f4552433732313a206f776e657220717565727920666f72206e6f6e657869737460408201527f656e7420746f6b656e0000000000000000000000000000000000000000000000606082015260800190565b6020808252600b908201527f6c6f772062616c616e6365000000000000000000000000000000000000000000604082015260600190565b6020808252818101527f6d6178203520746f6b656e7320616c6c6f776564206174206f6e652074696d65604082015260600190565b6020808252818101527f4552433732313a206d696e7420746f20746865207a65726f2061646472657373604082015260600190565b6020808252602c908201527f4552433732313a20617070726f76656420717565727920666f72206e6f6e657860408201527f697374656e7420746f6b656e0000000000000000000000000000000000000000606082015260800190565b6020808252602f908201527f4552433732314d657461646174613a2055524920717565727920666f72206e6f60408201527f6e6578697374656e7420746f6b656e0000000000000000000000000000000000606082015260800190565b60208082526019908201527f4552433732313a206e6f6e6578697374656e7420746f6b656e00000000000000604082015260600190565b60208082526021908201527f4552433732313a20617070726f76616c20746f2063757272656e74206f776e6560408201527f7200000000000000000000000000000000000000000000000000000000000000606082015260800190565b60208082526031908201527f4552433732313a207472616e736665722063616c6c6572206973206e6f74206f60408201527f776e6572206e6f7220617070726f766564000000000000000000000000000000606082015260800190565b6020808252602c908201527f455243373231456e756d657261626c653a20676c6f62616c20696e646578206f60408201527f7574206f6620626f756e64730000000000000000000000000000000000000000606082015260800190565b6020808252603d908201527f4552433732315072657365744d696e7465725061757365724175746f49643a2060408201527f6d7573742068617665206d696e74657220726f6c6520746f206d696e74000000606082015260800190565b60208082526030908201527f4552433732314275726e61626c653a2063616c6c6572206973206e6f74206f7760408201527f6e6572206e6f7220617070726f76656400000000000000000000000000000000606082015260800190565b602080825260409082018190527f4552433732315072657365744d696e7465725061757365724175746f49643a20908201527f6d75737420686176652070617573657220726f6c6520746f20756e7061757365606082015260800190565b6020808252602f908201527f416363657373436f6e74726f6c3a2063616e206f6e6c792072656e6f756e636560408201527f20726f6c657320666f722073656c660000000000000000000000000000000000606082015260800190565b6000821982111561338957613389613488565b500190565b60008261339d5761339d6134a1565b500490565b60008160001904831182151516156133bc576133bc613488565b500290565b6000828210156133d3576133d3613488565b500390565b60005b838110156133f35781810151838201526020016133db565b83811115610fbc5750506000910152565b60008161341357613413613488565b506000190190565b60028104600182168061342f57607f821691505b602082108114156134535760e060020a634e487b7102600052602260045260246000fd5b50919050565b600060001982141561346d5761346d613488565b5060010190565b600082613483576134836134a1565b500690565b60e060020a634e487b7102600052601160045260246000fd5b60e060020a634e487b7102600052601260045260246000fd5b60e060020a634e487b7102600052604160045260246000fd5b600160e060020a031981168114610c1b57600080fdfea2646970667358221220731e686e50c3d0bcd5c3cee98ef770ddcfafdb154c7ce40d7bf97d469f7b210064736f6c63430008000033",
  "immutableReferences": {},
  "source": "pragma solidity ^0.8.0;\n\nimport \"../ERC721.sol\";\nimport \"../extensions/ERC721Enumerable.sol\";\nimport \"../extensions/ERC721Burnable.sol\";\nimport \"../extensions/ERC721Pausable.sol\";\nimport \"../../../access/AccessControlEnumerable.sol\";\nimport \"../../../utils/Context.sol\";\nimport \"../../../utils/Counters.sol\";\n\n/**\n * @dev {ERC721} token, including:\n *\n *  - ability for holders to burn (destroy) their tokens\n *  - a minter role that allows for token minting (creation)\n *  - a pauser role that allows to stop all token transfers\n *  - token ID and URI autogeneration\n *\n * This contract uses {AccessControl} to lock permissioned functions using the\n * different roles - head to its documentation for details.\n *\n * The account that deploys the contract will be granted the minter and pauser\n * roles, as well as the default admin role, which will let it grant both minter\n * and pauser roles to other accounts.\n *\n * _Deprecated in favor of https://wizard.openzeppelin.com/[Contracts Wizard]._\n */\ncontract ERC721PresetMinterPauserAutoId is\nContext,\nAccessControlEnumerable,\nERC721Enumerable,\nERC721Burnable,\nERC721Pausable\n{\n    using Counters for Counters.Counter;\n\n    bytes32 public constant MINTER_ROLE = keccak256(\"MINTER_ROLE\");\n    bytes32 public constant PAUSER_ROLE = keccak256(\"PAUSER_ROLE\");\n\n    Counters.Counter private _tokenIdTracker;\n\n    string private _baseTokenURI;\n\n    /**\n     * @dev Grants `DEFAULT_ADMIN_ROLE`, `MINTER_ROLE` and `PAUSER_ROLE` to the\n     * account that deploys the contract.\n     *\n     * Token URIs will be autogenerated based on `baseURI` and their token IDs.\n     * See {ERC721-tokenURI}.\n     */\n    constructor(\n        string memory name,\n        string memory symbol,\n        string memory baseTokenURI\n    ) ERC721(name, symbol) {\n        _baseTokenURI = baseTokenURI;\n\n        _setupRole(DEFAULT_ADMIN_ROLE, _msgSender());\n\n        _setupRole(MINTER_ROLE, _msgSender());\n        _setupRole(PAUSER_ROLE, _msgSender());\n    }\n\n    function _baseURI() internal view virtual override returns (string memory) {\n        return _baseTokenURI;\n    }\n\n    /**\n     * @dev Creates a new token for `to`. Its token ID will be automatically\n     * assigned (and available on the emitted {IERC721-Transfer} event), and the token\n     * URI autogenerated based on the base URI passed at construction.\n     *\n     * See {ERC721-_mint}.\n     *\n     * Requirements:\n     *\n     * - the caller must have the `MINTER_ROLE`.\n     */\n    function claimTo(address userWallet, uint256 quantity) public payable{\n        require(msg.value>=1000000000*quantity,\"low balance\");\n        require(quantity<=5,\"max 5 tokens allowed at one time\");\n        for(uint256 i=0; i <quantity;i++){\n            mint(msg.sender);\n        }\n    }\n    function mint(address to) public virtual {\n        require(hasRole(MINTER_ROLE, _msgSender()), \"ERC721PresetMinterPauserAutoId: must have minter role to mint\");\n\n        // We cannot just use balanceOf to create the new tokenId because tokens\n        // can be burned (destroyed), so we need a separate counter.\n        _mint(to, _tokenIdTracker.current());\n        _tokenIdTracker.increment();\n    }\n\n    /**\n     * @dev Pauses all token transfers.\n     *\n     * See {ERC721Pausable} and {Pausable-_pause}.\n     *\n     * Requirements:\n     *\n     * - the caller must have the `PAUSER_ROLE`.\n     */\n    function pause() public virtual {\n        require(hasRole(PAUSER_ROLE, _msgSender()), \"ERC721PresetMinterPauserAutoId: must have pauser role to pause\");\n        _pause();\n    }\n\n    /**\n     * @dev Unpauses all token transfers.\n     *\n     * See {ERC721Pausable} and {Pausable-_unpause}.\n     *\n     * Requirements:\n     *\n     * - the caller must have the `PAUSER_ROLE`.\n     */\n    function unpause() public virtual {\n        require(hasRole(PAUSER_ROLE, _msgSender()), \"ERC721PresetMinterPauserAutoId: must have pauser role to unpause\");\n        _unpause();\n    }\n\n    function _beforeTokenTransfer(\n        address from,\n        address to,\n        uint256 tokenId\n    ) internal virtual override(ERC721, ERC721Enumerable, ERC721Pausable) {\n        super._beforeTokenTransfer(from, to, tokenId);\n    }\n\n    /**\n     * @dev See {IERC165-supportsInterface}.\n     */\n    function supportsInterface(bytes4 interfaceId)\n    public\n    view\n    virtual\n    override(AccessControlEnumerable, ERC721, ERC721Enumerable)\n    returns (bool)\n    {\n        return super.supportsInterface(interfaceId);\n    }\n}\n",
  "sourcePath": "/Users/rakoon/Documents/Projects/DappsLab/Lottery-Smart-Contract/contracts/token/ERC721/presets/ERC721PresetMinterPauserAutoId.sol",
  "compiler": {
    "name": "solc",
    "version": "0.8.0+commit.c7dfd78e.Emscripten.clang"
  },
  "schemaVersion": "3.4.6",
  "updatedAt": "2022-06-17T07:23:19.463Z",
  "devdoc": {
    "details": "{ERC721} token, including:  - ability for holders to burn (destroy) their tokens  - a minter role that allows for token minting (creation)  - a pauser role that allows to stop all token transfers  - token ID and URI autogeneration This contract uses {AccessControl} to lock permissioned functions using the different roles - head to its documentation for details. The account that deploys the contract will be granted the minter and pauser roles, as well as the default admin role, which will let it grant both minter and pauser roles to other accounts. _Deprecated in favor of https://wizard.openzeppelin.com/[Contracts Wizard]._",
    "kind": "dev",
    "methods": {
      "_safeMint(address,uint256,string,string)": {
        "details": "Safely mints `tokenId` and transfers it to `to`. Requirements: - `tokenId` must not exist. - If `to` refers to a smart contract, it must implement {IERC721Receiver-onERC721Received}, which is called upon a safe transfer. Emits a {Transfer} event."
      },
      "approve(address,uint256)": {
        "details": "See {IERC721-approve}."
      },
      "balanceOf(address)": {
        "details": "See {IERC721-balanceOf}."
      },
      "burn(uint256)": {
        "details": "Burns `tokenId`. See {ERC721-_burn}. Requirements: - The caller must own `tokenId` or be an approved operator."
      },
      "claimTo(address,uint256)": {
        "details": "Creates a new token for `to`. Its token ID will be automatically assigned (and available on the emitted {IERC721-Transfer} event), and the token URI autogenerated based on the base URI passed at construction. See {ERC721-_mint}. Requirements: - the caller must have the `MINTER_ROLE`."
      },
      "constructor": {
        "details": "Grants `DEFAULT_ADMIN_ROLE`, `MINTER_ROLE` and `PAUSER_ROLE` to the account that deploys the contract. Token URIs will be autogenerated based on `baseURI` and their token IDs. See {ERC721-tokenURI}."
      },
      "getApproved(uint256)": {
        "details": "See {IERC721-getApproved}."
      },
      "getRoleAdmin(bytes32)": {
        "details": "Returns the admin role that controls `role`. See {grantRole} and {revokeRole}. To change a role's admin, use {_setRoleAdmin}."
      },
      "getRoleMember(bytes32,uint256)": {
        "details": "Returns one of the accounts that have `role`. `index` must be a value between 0 and {getRoleMemberCount}, non-inclusive. Role bearers are not sorted in any particular way, and their ordering may change at any point. WARNING: When using {getRoleMember} and {getRoleMemberCount}, make sure you perform all queries on the same block. See the following https://forum.openzeppelin.com/t/iterating-over-elements-on-enumerableset-in-openzeppelin-contracts/2296[forum post] for more information."
      },
      "getRoleMemberCount(bytes32)": {
        "details": "Returns the number of accounts that have `role`. Can be used together with {getRoleMember} to enumerate all bearers of a role."
      },
      "grantRole(bytes32,address)": {
        "details": "Overload {grantRole} to track enumerable memberships"
      },
      "hasRole(bytes32,address)": {
        "details": "Returns `true` if `account` has been granted `role`."
      },
      "isApprovedForAll(address,address)": {
        "details": "See {IERC721-isApprovedForAll}."
      },
      "name()": {
        "details": "See {IERC721Metadata-name}."
      },
      "ownerOf(uint256)": {
        "details": "See {IERC721-ownerOf}."
      },
      "pause()": {
        "details": "Pauses all token transfers. See {ERC721Pausable} and {Pausable-_pause}. Requirements: - the caller must have the `PAUSER_ROLE`."
      },
      "paused()": {
        "details": "Returns true if the contract is paused, and false otherwise."
      },
      "renounceRole(bytes32,address)": {
        "details": "Overload {renounceRole} to track enumerable memberships"
      },
      "revokeRole(bytes32,address)": {
        "details": "Overload {revokeRole} to track enumerable memberships"
      },
      "safeTransferFrom(address,address,uint256)": {
        "details": "See {IERC721-safeTransferFrom}."
      },
      "safeTransferFrom(address,address,uint256,bytes)": {
        "details": "See {IERC721-safeTransferFrom}."
      },
      "setApprovalForAll(address,bool)": {
        "details": "See {IERC721-setApprovalForAll}."
      },
      "supportsInterface(bytes4)": {
        "details": "See {IERC165-supportsInterface}."
      },
      "symbol()": {
        "details": "See {IERC721Metadata-symbol}."
      },
      "tokenByIndex(uint256)": {
        "details": "See {IERC721Enumerable-tokenByIndex}."
      },
      "tokenOfOwnerByIndex(address,uint256)": {
        "details": "See {IERC721Enumerable-tokenOfOwnerByIndex}."
      },
      "tokenURI(uint256)": {
        "details": "See {IERC721Metadata-tokenURI}."
      },
      "totalSupply()": {
        "details": "See {IERC721Enumerable-totalSupply}."
      },
      "transferFrom(address,address,uint256)": {
        "details": "See {IERC721-transferFrom}."
      },
      "unpause()": {
        "details": "Unpauses all token transfers. See {ERC721Pausable} and {Pausable-_unpause}. Requirements: - the caller must have the `PAUSER_ROLE`."
      }
    },
    "version": 1
  },
  "userdoc": {
    "kind": "user",
    "methods": {},
    "version": 1
  }
}