{
  "contractName": "ERC721",
  "abi": [
    {
      "inputs": [
        {
          "internalType": "string",
          "name": "name_",
          "type": "string"
        },
        {
          "internalType": "string",
          "name": "symbol_",
          "type": "string"
        }
      ],
      "stateMutability": "nonpayable",
      "type": "constructor"
    },
    {
      "anonymous": false,
      "inputs": [
        {
          "indexed": true,
          "internalType": "address",
          "name": "owner",
          "type": "address"
        },
        {
          "indexed": true,
          "internalType": "address",
          "name": "approved",
          "type": "address"
        },
        {
          "indexed": true,
          "internalType": "uint256",
          "name": "tokenId",
          "type": "uint256"
        }
      ],
      "name": "Approval",
      "type": "event"
    },
    {
      "anonymous": false,
      "inputs": [
        {
          "indexed": true,
          "internalType": "address",
          "name": "owner",
          "type": "address"
        },
        {
          "indexed": true,
          "internalType": "address",
          "name": "operator",
          "type": "address"
        },
        {
          "indexed": false,
          "internalType": "bool",
          "name": "approved",
          "type": "bool"
        }
      ],
      "name": "ApprovalForAll",
      "type": "event"
    },
    {
      "anonymous": false,
      "inputs": [
        {
          "indexed": true,
          "internalType": "address",
          "name": "from",
          "type": "address"
        },
        {
          "indexed": true,
          "internalType": "address",
          "name": "to",
          "type": "address"
        },
        {
          "indexed": true,
          "internalType": "uint256",
          "name": "tokenId",
          "type": "uint256"
        }
      ],
      "name": "Transfer",
      "type": "event"
    },
    {
      "inputs": [],
      "name": "_creatorComission",
      "outputs": [
        {
          "internalType": "uint8",
          "name": "",
          "type": "uint8"
        }
      ],
      "stateMutability": "view",
      "type": "function"
    },
    {
      "inputs": [
        {
          "internalType": "uint256",
          "name": "tokenId",
          "type": "uint256"
        }
      ],
      "name": "getCreator",
      "outputs": [
        {
          "internalType": "address",
          "name": "",
          "type": "address"
        }
      ],
      "stateMutability": "view",
      "type": "function"
    },
    {
      "inputs": [],
      "name": "getToken",
      "outputs": [
        {
          "internalType": "contract ERC20",
          "name": "",
          "type": "address"
        }
      ],
      "stateMutability": "view",
      "type": "function"
    },
    {
      "inputs": [
        {
          "internalType": "address",
          "name": "tokenAddress",
          "type": "address"
        }
      ],
      "name": "setToken",
      "outputs": [],
      "stateMutability": "nonpayable",
      "type": "function"
    },
    {
      "inputs": [
        {
          "internalType": "uint256",
          "name": "tokenId",
          "type": "uint256"
        },
        {
          "internalType": "uint256",
          "name": "time",
          "type": "uint256"
        }
      ],
      "name": "startAuction",
      "outputs": [],
      "stateMutability": "nonpayable",
      "type": "function"
    },
    {
      "inputs": [
        {
          "internalType": "uint256",
          "name": "tokenId",
          "type": "uint256"
        }
      ],
      "name": "getAuctionContract",
      "outputs": [
        {
          "internalType": "contract Auction",
          "name": "",
          "type": "address"
        }
      ],
      "stateMutability": "view",
      "type": "function"
    },
    {
      "inputs": [
        {
          "internalType": "uint256",
          "name": "tokenId",
          "type": "uint256"
        },
        {
          "internalType": "contract Auction",
          "name": "auctionAddress",
          "type": "address"
        }
      ],
      "name": "setAuctionContract",
      "outputs": [],
      "stateMutability": "nonpayable",
      "type": "function"
    },
    {
      "inputs": [
        {
          "internalType": "bytes4",
          "name": "interfaceId",
          "type": "bytes4"
        }
      ],
      "name": "supportsInterface",
      "outputs": [
        {
          "internalType": "bool",
          "name": "",
          "type": "bool"
        }
      ],
      "stateMutability": "view",
      "type": "function"
    },
    {
      "inputs": [
        {
          "internalType": "address",
          "name": "owner",
          "type": "address"
        }
      ],
      "name": "balanceOf",
      "outputs": [
        {
          "internalType": "uint256",
          "name": "",
          "type": "uint256"
        }
      ],
      "stateMutability": "view",
      "type": "function"
    },
    {
      "inputs": [
        {
          "internalType": "uint256",
          "name": "tokenId",
          "type": "uint256"
        }
      ],
      "name": "ownerOf",
      "outputs": [
        {
          "internalType": "address",
          "name": "",
          "type": "address"
        }
      ],
      "stateMutability": "view",
      "type": "function"
    },
    {
      "inputs": [],
      "name": "name",
      "outputs": [
        {
          "internalType": "string",
          "name": "",
          "type": "string"
        }
      ],
      "stateMutability": "view",
      "type": "function"
    },
    {
      "inputs": [],
      "name": "symbol",
      "outputs": [
        {
          "internalType": "string",
          "name": "",
          "type": "string"
        }
      ],
      "stateMutability": "view",
      "type": "function"
    },
    {
      "inputs": [
        {
          "internalType": "uint256",
          "name": "tokenId",
          "type": "uint256"
        }
      ],
      "name": "tokenURI",
      "outputs": [
        {
          "internalType": "string",
          "name": "",
          "type": "string"
        }
      ],
      "stateMutability": "view",
      "type": "function"
    },
    {
      "inputs": [
        {
          "internalType": "address",
          "name": "to",
          "type": "address"
        },
        {
          "internalType": "uint256",
          "name": "tokenId",
          "type": "uint256"
        }
      ],
      "name": "approve",
      "outputs": [],
      "stateMutability": "nonpayable",
      "type": "function"
    },
    {
      "inputs": [
        {
          "internalType": "uint256",
          "name": "tokenId",
          "type": "uint256"
        }
      ],
      "name": "getApproved",
      "outputs": [
        {
          "internalType": "address",
          "name": "",
          "type": "address"
        }
      ],
      "stateMutability": "view",
      "type": "function"
    },
    {
      "inputs": [
        {
          "internalType": "address",
          "name": "operator",
          "type": "address"
        },
        {
          "internalType": "bool",
          "name": "approved",
          "type": "bool"
        }
      ],
      "name": "setApprovalForAll",
      "outputs": [],
      "stateMutability": "nonpayable",
      "type": "function"
    },
    {
      "inputs": [
        {
          "internalType": "address",
          "name": "owner",
          "type": "address"
        },
        {
          "internalType": "address",
          "name": "operator",
          "type": "address"
        }
      ],
      "name": "isApprovedForAll",
      "outputs": [
        {
          "internalType": "bool",
          "name": "",
          "type": "bool"
        }
      ],
      "stateMutability": "view",
      "type": "function"
    },
    {
      "inputs": [
        {
          "internalType": "address",
          "name": "from",
          "type": "address"
        },
        {
          "internalType": "address",
          "name": "to",
          "type": "address"
        },
        {
          "internalType": "uint256",
          "name": "tokenId",
          "type": "uint256"
        }
      ],
      "name": "transferFrom",
      "outputs": [],
      "stateMutability": "nonpayable",
      "type": "function"
    },
    {
      "inputs": [
        {
          "internalType": "uint256",
          "name": "tokenId",
          "type": "uint256"
        },
        {
          "internalType": "address",
          "name": "to",
          "type": "address"
        }
      ],
      "name": "_spend",
      "outputs": [
        {
          "internalType": "bool",
          "name": "",
          "type": "bool"
        }
      ],
      "stateMutability": "nonpayable",
      "type": "function"
    },
    {
      "inputs": [
        {
          "internalType": "address",
          "name": "from",
          "type": "address"
        },
        {
          "internalType": "address",
          "name": "to",
          "type": "address"
        },
        {
          "internalType": "uint256",
          "name": "tokenId",
          "type": "uint256"
        }
      ],
      "name": "safeTransferFrom",
      "outputs": [],
      "stateMutability": "nonpayable",
      "type": "function"
    },
    {
      "inputs": [
        {
          "internalType": "address",
          "name": "from",
          "type": "address"
        },
        {
          "internalType": "address",
          "name": "to",
          "type": "address"
        },
        {
          "internalType": "uint256",
          "name": "tokenId",
          "type": "uint256"
        },
        {
          "internalType": "bytes",
          "name": "_data",
          "type": "bytes"
        }
      ],
      "name": "safeTransferFrom",
      "outputs": [],
      "stateMutability": "nonpayable",
      "type": "function"
    },
    {
      "inputs": [
        {
          "internalType": "address",
          "name": "to",
          "type": "address"
        },
        {
          "internalType": "uint256",
          "name": "tokenId",
          "type": "uint256"
        },
        {
          "internalType": "uint256",
          "name": "tokenAmount",
          "type": "uint256"
        }
      ],
      "name": "_mint",
      "outputs": [],
      "stateMutability": "nonpayable",
      "type": "function"
    }
  ],
  "bytecode": "0x6080604052600a600360006101000a81548160ff021916908360ff1602179055503480156200002d57600080fd5b506040516200519d3803806200519d8339818101604052810190620000539190620001af565b81600190805190602001906200006b9291906200008d565b508060029080519060200190620000849291906200008d565b50505062000353565b8280546200009b90620002bf565b90600052602060002090601f016020900481019282620000bf57600085556200010b565b82601f10620000da57805160ff19168380011785556200010b565b828001600101855582156200010b579182015b828111156200010a578251825591602001919060010190620000ed565b5b5090506200011a91906200011e565b5090565b5b80821115620001395760008160009055506001016200011f565b5090565b6000620001546200014e8462000256565b62000222565b9050828152602081018484840111156200016d57600080fd5b6200017a84828562000289565b509392505050565b600082601f8301126200019457600080fd5b8151620001a68482602086016200013d565b91505092915050565b60008060408385031215620001c357600080fd5b600083015167ffffffffffffffff811115620001de57600080fd5b620001ec8582860162000182565b925050602083015167ffffffffffffffff8111156200020a57600080fd5b620002188582860162000182565b9150509250929050565b6000604051905081810181811067ffffffffffffffff821117156200024c576200024b62000324565b5b8060405250919050565b600067ffffffffffffffff82111562000274576200027362000324565b5b601f19601f8301169050602081019050919050565b60005b83811015620002a95780820151818401526020810190506200028c565b83811115620002b9576000848401525b50505050565b60006002820490506001821680620002d857607f821691505b60208210811415620002ef57620002ee620002f5565b5b50919050565b7f4e487b7100000000000000000000000000000000000000000000000000000000600052602260045260246000fd5b7f4e487b7100000000000000000000000000000000000000000000000000000000600052604160045260246000fd5b614e3a80620003636000396000f3fe60806040523480156200001157600080fd5b50600436106200017d576000357c01000000000000000000000000000000000000000000000000000000009004806370a0823111620000e6578063b88d4fde11620000a4578063b88d4fde14620003f8578063c87b56dd1462000418578063d48e638a146200044e578063e506dfbe1462000484578063e985e9c514620004ba578063fc9b5fc814620004f0576200017d565b806370a08231146200032a5780637776afa014620003605780639564470e146200038057806395d89b4114620003b6578063a22cb46514620003d8576200017d565b806321df0da7116200014057806321df0da7146200025057806323b872dd146200027257806342842e0e14620002925780634fee13fc14620002b25780636352211e14620002d25780636e8e78db1462000308576200017d565b806301ffc9a7146200018257806306fdde0314620001b8578063081812fc14620001da578063095ea7b31462000210578063144fa6d71462000230575b600080fd5b620001a060048036038101906200019a91906200228d565b62000510565b604051620001af919062002b5f565b60405180910390f35b620001c2620005f6565b604051620001d1919062002bb6565b60405180910390f35b620001f86004803603810190620001f29190620022e5565b62000690565b60405162000207919062002ac1565b60405180910390f35b6200022e6004803603810190620002289190620021ca565b6200071a565b005b6200024e600480360381019062000248919062002041565b62000843565b005b6200025a62000886565b60405162000269919062002b99565b60405180910390f35b6200029060048036038101906200028a9190620020ae565b620008af565b005b620002b06004803603810190620002aa9190620020ae565b62000918565b005b620002d06004803603810190620002ca919062002393565b6200093a565b005b620002f06004803603810190620002ea9190620022e5565b62000bed565b604051620002ff919062002ac1565b60405180910390f35b6200031262000ca2565b60405162000321919062002e7f565b60405180910390f35b62000348600480360381019062000342919062002041565b62000cb5565b60405162000357919062002dd8565b60405180910390f35b6200037e60048036038101906200037891906200220b565b62000d70565b005b6200039e600480360381019062000398919062002311565b62001076565b604051620003ad919062002b5f565b60405180910390f35b620003c06200108f565b604051620003cf919062002bb6565b60405180910390f35b620003f66004803603810190620003f0919062002189565b62001129565b005b62000416600480360381019062000410919062002104565b620012b5565b005b620004366004803603810190620004309190620022e5565b62001320565b60405162000445919062002bb6565b60405180910390f35b6200046c6004803603810190620004669190620022e5565b620013d4565b6040516200047b919062002ac1565b60405180910390f35b620004a260048036038101906200049c9190620022e5565b62001411565b604051620004b1919062002b7c565b60405180910390f35b620004d86004803603810190620004d291906200206d565b6200144e565b604051620004e7919062002b5f565b60405180910390f35b6200050e600480360381019062000508919062002352565b620014e2565b005b60007f80ac58cd000000000000000000000000000000000000000000000000000000007bffffffffffffffffffffffffffffffffffffffffffffffffffffffff1916827bffffffffffffffffffffffffffffffffffffffffffffffffffffffff19161480620005dc57507f5b5e139f000000000000000000000000000000000000000000000000000000007bffffffffffffffffffffffffffffffffffffffffffffffffffffffff1916827bffffffffffffffffffffffffffffffffffffffffffffffffffffffff1916145b80620005ef5750620005ee82620015dc565b5b9050919050565b606060018054620006079062003142565b80601f0160208091040260200160405190810160405280929190818152602001828054620006359062003142565b8015620006865780601f106200065a5761010080835404028352916020019162000686565b820191906000526020600020905b8154815290600101906020018083116200066857829003601f168201915b5050505050905090565b60006200069d8262001646565b620006df576040517f08c379a0000000000000000000000000000000000000000000000000000000008152600401620006d69062002d0c565b60405180910390fd5b6007600083815260200190815260200160002060009054906101000a900473ffffffffffffffffffffffffffffffffffffffff169050919050565b6000620007278262000bed565b90508073ffffffffffffffffffffffffffffffffffffffff168373ffffffffffffffffffffffffffffffffffffffff1614156200079b576040517f08c379a0000000000000000000000000000000000000000000000000000000008152600401620007929062002d94565b60405180910390fd5b8073ffffffffffffffffffffffffffffffffffffffff16620007bc620016b2565b73ffffffffffffffffffffffffffffffffffffffff161480620007f05750620007ef81620007e9620016b2565b6200144e565b5b62000832576040517f08c379a0000000000000000000000000000000000000000000000000000000008152600401620008299062002c84565b60405180910390fd5b6200083e8383620016ba565b505050565b806000806101000a81548173ffffffffffffffffffffffffffffffffffffffff021916908373ffffffffffffffffffffffffffffffffffffffff16021790555050565b60008060009054906101000a900473ffffffffffffffffffffffffffffffffffffffff16905090565b620008c4620008bd620016b2565b8262001775565b62000906576040517f08c379a0000000000000000000000000000000000000000000000000000000008152600401620008fd9062002db6565b60405180910390fd5b6200091383838362001860565b505050565b6200093583838360405180602001604052806000815250620012b5565b505050565b6004600083815260200190815260200160002060009054906101000a900473ffffffffffffffffffffffffffffffffffffffff1673ffffffffffffffffffffffffffffffffffffffff163373ffffffffffffffffffffffffffffffffffffffff1614620009de576040517f08c379a0000000000000000000000000000000000000000000000000000000008152600401620009d59062002d2e565b60405180910390fd5b600030905082826004600086815260200190815260200160002060009054906101000a900473ffffffffffffffffffffffffffffffffffffffff1660008054906101000a900473ffffffffffffffffffffffffffffffffffffffff168460405162000a499062001f20565b62000a5995949392919062002e22565b604051809103906000f08015801562000a76573d6000803e3d6000fd5b506009600085815260200190815260200160002060006101000a81548173ffffffffffffffffffffffffffffffffffffffff021916908373ffffffffffffffffffffffffffffffffffffffff16021790555062000b08336009600086815260200190815260200160002060009054906101000a900473ffffffffffffffffffffffffffffffffffffffff168562000918565b60008054906101000a900473ffffffffffffffffffffffffffffffffffffffff1673ffffffffffffffffffffffffffffffffffffffff1663746e8e70846009600087815260200190815260200160002060009054906101000a900473ffffffffffffffffffffffffffffffffffffffff166040518363ffffffff167c010000000000000000000000000000000000000000000000000000000002815260040162000bb492919062002df5565b600060405180830381600087803b15801562000bcf57600080fd5b505af115801562000be4573d6000803e3d6000fd5b50505050505050565b6000806004600084815260200190815260200160002060009054906101000a900473ffffffffffffffffffffffffffffffffffffffff169050600073ffffffffffffffffffffffffffffffffffffffff168173ffffffffffffffffffffffffffffffffffffffff16141562000c99576040517f08c379a000000000000000000000000000000000000000000000000000000000815260040162000c909062002cc8565b60405180910390fd5b80915050919050565b600360009054906101000a900460ff1681565b60008073ffffffffffffffffffffffffffffffffffffffff168273ffffffffffffffffffffffffffffffffffffffff16141562000d29576040517f08c379a000000000000000000000000000000000000000000000000000000000815260040162000d209062002ca6565b60405180910390fd5b600660008373ffffffffffffffffffffffffffffffffffffffff1673ffffffffffffffffffffffffffffffffffffffff168152602001908152602001600020549050919050565b600073ffffffffffffffffffffffffffffffffffffffff168373ffffffffffffffffffffffffffffffffffffffff16141562000de3576040517f08c379a000000000000000000000000000000000000000000000000000000000815260040162000dda9062002cea565b60405180910390fd5b62000dee8262001646565b1562000e31576040517f08c379a000000000000000000000000000000000000000000000000000000000815260040162000e289062002bfc565b60405180910390fd5b6000811162000e3f57600080fd5b60008054906101000a900473ffffffffffffffffffffffffffffffffffffffff1673ffffffffffffffffffffffffffffffffffffffff16636aade28884836040518363ffffffff167c010000000000000000000000000000000000000000000000000000000002815260040162000eb892919062002b32565b602060405180830381600087803b15801562000ed357600080fd5b505af115801562000ee8573d6000803e3d6000fd5b505050506040513d601f19601f8201168201806040525081019062000f0e919062002261565b62000f1857600080fd5b6001600660008573ffffffffffffffffffffffffffffffffffffffff1673ffffffffffffffffffffffffffffffffffffffff168152602001908152602001600020600082825462000f6a919062002f46565b92505081905550826004600084815260200190815260200160002060006101000a81548173ffffffffffffffffffffffffffffffffffffffff021916908373ffffffffffffffffffffffffffffffffffffffff160217905550826005600084815260200190815260200160002060006101000a81548173ffffffffffffffffffffffffffffffffffffffff021916908373ffffffffffffffffffffffffffffffffffffffff160217905550818373ffffffffffffffffffffffffffffffffffffffff16600073ffffffffffffffffffffffffffffffffffffffff167fddf252ad1be2c89b69c2b068fc378daa952ba7f163c4a11628f55a4df523b3ef60405160405180910390a4505050565b60006200108533838562000918565b6001905092915050565b606060028054620010a09062003142565b80601f0160208091040260200160405190810160405280929190818152602001828054620010ce9062003142565b80156200111f5780601f10620010f3576101008083540402835291602001916200111f565b820191906000526020600020905b8154815290600101906020018083116200110157829003601f168201915b5050505050905090565b62001133620016b2565b73ffffffffffffffffffffffffffffffffffffffff168273ffffffffffffffffffffffffffffffffffffffff161415620011a4576040517f08c379a00000000000000000000000000000000000000000000000000000000081526004016200119b9062002c40565b60405180910390fd5b8060086000620011b3620016b2565b73ffffffffffffffffffffffffffffffffffffffff1673ffffffffffffffffffffffffffffffffffffffff16815260200190815260200160002060008473ffffffffffffffffffffffffffffffffffffffff1673ffffffffffffffffffffffffffffffffffffffff16815260200190815260200160002060006101000a81548160ff0219169083151502179055508173ffffffffffffffffffffffffffffffffffffffff1662001262620016b2565b73ffffffffffffffffffffffffffffffffffffffff167f17307eab39ab6107e8899845ad3d59bd9653f200f220920489ca2b5937696c3183604051620012a9919062002b5f565b60405180910390a35050565b620012ca620012c3620016b2565b8362001775565b6200130c576040517f08c379a0000000000000000000000000000000000000000000000000000000008152600401620013039062002db6565b60405180910390fd5b6200131a8484848462001acc565b50505050565b60606200132d8262001646565b6200136f576040517f08c379a0000000000000000000000000000000000000000000000000000000008152600401620013669062002d72565b60405180910390fd5b60006200137b62001b2f565b905060008151116200139d5760405180602001604052806000815250620013cc565b80620013a98462001b46565b604051602001620013bc92919062002a99565b6040516020818303038152906040525b915050919050565b60006005600083815260200190815260200160002060009054906101000a900473ffffffffffffffffffffffffffffffffffffffff169050919050565b60006009600083815260200190815260200160002060009054906101000a900473ffffffffffffffffffffffffffffffffffffffff169050919050565b6000600860008473ffffffffffffffffffffffffffffffffffffffff1673ffffffffffffffffffffffffffffffffffffffff16815260200190815260200160002060008373ffffffffffffffffffffffffffffffffffffffff1673ffffffffffffffffffffffffffffffffffffffff16815260200190815260200160002060009054906101000a900460ff16905092915050565b6004600083815260200190815260200160002060009054906101000a900473ffffffffffffffffffffffffffffffffffffffff1673ffffffffffffffffffffffffffffffffffffffff163373ffffffffffffffffffffffffffffffffffffffff161462001586576040517f08c379a00000000000000000000000000000000000000000000000000000000081526004016200157d9062002d2e565b60405180910390fd5b806009600084815260200190815260200160002060006101000a81548173ffffffffffffffffffffffffffffffffffffffff021916908373ffffffffffffffffffffffffffffffffffffffff1602179055505050565b60007f01ffc9a7000000000000000000000000000000000000000000000000000000007bffffffffffffffffffffffffffffffffffffffffffffffffffffffff1916827bffffffffffffffffffffffffffffffffffffffffffffffffffffffff1916149050919050565b60008073ffffffffffffffffffffffffffffffffffffffff166004600084815260200190815260200160002060009054906101000a900473ffffffffffffffffffffffffffffffffffffffff1673ffffffffffffffffffffffffffffffffffffffff1614159050919050565b600033905090565b816007600083815260200190815260200160002060006101000a81548173ffffffffffffffffffffffffffffffffffffffff021916908373ffffffffffffffffffffffffffffffffffffffff160217905550808273ffffffffffffffffffffffffffffffffffffffff166200172f8362000bed565b73ffffffffffffffffffffffffffffffffffffffff167f8c5be1e5ebec7d5bd14f71427d1e84f3dd0314c0f7b2291e5b200ac8c7c3b92560405160405180910390a45050565b6000620017828262001646565b620017c4576040517f08c379a0000000000000000000000000000000000000000000000000000000008152600401620017bb9062002c62565b60405180910390fd5b6000620017d18362000bed565b90508073ffffffffffffffffffffffffffffffffffffffff168473ffffffffffffffffffffffffffffffffffffffff1614806200184357508373ffffffffffffffffffffffffffffffffffffffff166200182b8462000690565b73ffffffffffffffffffffffffffffffffffffffff16145b806200185757506200185681856200144e565b5b91505092915050565b8273ffffffffffffffffffffffffffffffffffffffff16620018828262000bed565b73ffffffffffffffffffffffffffffffffffffffff1614620018db576040517f08c379a0000000000000000000000000000000000000000000000000000000008152600401620018d29062002d50565b60405180910390fd5b600073ffffffffffffffffffffffffffffffffffffffff168273ffffffffffffffffffffffffffffffffffffffff1614156200194e576040517f08c379a0000000000000000000000000000000000000000000000000000000008152600401620019459062002c1e565b60405180910390fd5b6200195b83838362001d27565b62001968600082620016ba565b6001600660008573ffffffffffffffffffffffffffffffffffffffff1673ffffffffffffffffffffffffffffffffffffffff1681526020019081526020016000206000828254620019ba919062002fdb565b925050819055506001600660008473ffffffffffffffffffffffffffffffffffffffff1673ffffffffffffffffffffffffffffffffffffffff168152602001908152602001600020600082825462001a13919062002f46565b92505081905550816004600083815260200190815260200160002060006101000a81548173ffffffffffffffffffffffffffffffffffffffff021916908373ffffffffffffffffffffffffffffffffffffffff160217905550808273ffffffffffffffffffffffffffffffffffffffff168473ffffffffffffffffffffffffffffffffffffffff167fddf252ad1be2c89b69c2b068fc378daa952ba7f163c4a11628f55a4df523b3ef60405160405180910390a4505050565b62001ad984848462001860565b62001ae78484848462001d2c565b62001b29576040517f08c379a000000000000000000000000000000000000000000000000000000000815260040162001b209062002bda565b60405180910390fd5b50505050565b606060405180602001604052806000815250905090565b6060600082141562001b90576040518060400160405280600181526020017f3000000000000000000000000000000000000000000000000000000000000000815250905062001d22565b600082905060005b6000821462001bc857808062001bae9062003178565b915050600a8262001bc0919062002fa3565b915062001b98565b60008167ffffffffffffffff81111562001c0b577f4e487b7100000000000000000000000000000000000000000000000000000000600052604160045260246000fd5b6040519080825280601f01601f19166020018201604052801562001c3e5781602001600182028036833780820191505090505b5090505b6000851462001d1b5760018262001c5a919062002fdb565b9150600a8562001c6b9190620031c6565b603062001c79919062002f46565b7f01000000000000000000000000000000000000000000000000000000000000000281838151811062001cd5577f4e487b7100000000000000000000000000000000000000000000000000000000600052603260045260246000fd5b60200101907effffffffffffffffffffffffffffffffffffffffffffffffffffffffffffff1916908160001a905350600a8562001d13919062002fa3565b945062001c42565b8093505050505b919050565b505050565b600062001d4f8473ffffffffffffffffffffffffffffffffffffffff1662001f0d565b1562001f00578373ffffffffffffffffffffffffffffffffffffffff1663150b7a0262001d7b620016b2565b8786866040518563ffffffff167c010000000000000000000000000000000000000000000000000000000002815260040162001dbb949392919062002ade565b602060405180830381600087803b15801562001dd657600080fd5b505af192505050801562001e0a57506040513d601f19601f8201168201806040525081019062001e079190620022b9565b60015b62001e93573d806000811462001e3d576040519150601f19603f3d011682016040523d82523d6000602084013e62001e42565b606091505b5060008151141562001e8b576040517f08c379a000000000000000000000000000000000000000000000000000000000815260040162001e829062002bda565b60405180910390fd5b805181602001fd5b63150b7a027c0100000000000000000000000000000000000000000000000000000000027bffffffffffffffffffffffffffffffffffffffffffffffffffffffff1916817bffffffffffffffffffffffffffffffffffffffffffffffffffffffff19161491505062001f05565b600190505b949350505050565b600080823b905060008111915050919050565b611ab7806200334e83390190565b600062001f4562001f3f8462002ed0565b62002e9c565b90508281526020810184848401111562001f5e57600080fd5b62001f6b848285620030fd565b509392505050565b60008135905062001f8481620032cb565b92915050565b60008135905062001f9b81620032e5565b92915050565b60008151905062001fb281620032e5565b92915050565b60008135905062001fc981620032ff565b92915050565b60008151905062001fe081620032ff565b92915050565b600082601f83011262001ff857600080fd5b81356200200a84826020860162001f2e565b91505092915050565b600081359050620020248162003319565b92915050565b6000813590506200203b8162003333565b92915050565b6000602082840312156200205457600080fd5b6000620020648482850162001f73565b91505092915050565b600080604083850312156200208157600080fd5b6000620020918582860162001f73565b9250506020620020a48582860162001f73565b9150509250929050565b600080600060608486031215620020c457600080fd5b6000620020d48682870162001f73565b9350506020620020e78682870162001f73565b9250506040620020fa868287016200202a565b9150509250925092565b600080600080608085870312156200211b57600080fd5b60006200212b8782880162001f73565b94505060206200213e8782880162001f73565b935050604062002151878288016200202a565b925050606085013567ffffffffffffffff8111156200216f57600080fd5b6200217d8782880162001fe6565b91505092959194509250565b600080604083850312156200219d57600080fd5b6000620021ad8582860162001f73565b9250506020620021c08582860162001f8a565b9150509250929050565b60008060408385031215620021de57600080fd5b6000620021ee8582860162001f73565b925050602062002201858286016200202a565b9150509250929050565b6000806000606084860312156200222157600080fd5b6000620022318682870162001f73565b935050602062002244868287016200202a565b925050604062002257868287016200202a565b9150509250925092565b6000602082840312156200227457600080fd5b6000620022848482850162001fa1565b91505092915050565b600060208284031215620022a057600080fd5b6000620022b08482850162001fb8565b91505092915050565b600060208284031215620022cc57600080fd5b6000620022dc8482850162001fcf565b91505092915050565b600060208284031215620022f857600080fd5b600062002308848285016200202a565b91505092915050565b600080604083850312156200232557600080fd5b600062002335858286016200202a565b9250506020620023488582860162001f73565b9150509250929050565b600080604083850312156200236657600080fd5b600062002376858286016200202a565b9250506020620023898582860162002013565b9150509250929050565b60008060408385031215620023a757600080fd5b6000620023b7858286016200202a565b9250506020620023ca858286016200202a565b9150509250929050565b620023df8162003016565b82525050565b620023f0816200302a565b82525050565b6000620024038262002f03565b6200240f818562002f19565b9350620024218185602086016200310c565b6200242c81620032ba565b840191505092915050565b6200244281620030ad565b82525050565b6200245381620030d5565b82525050565b6000620024668262002f0e565b62002472818562002f2a565b9350620024848185602086016200310c565b6200248f81620032ba565b840191505092915050565b6000620024a78262002f0e565b620024b3818562002f3b565b9350620024c58185602086016200310c565b80840191505092915050565b6000620024e060328362002f2a565b91507f4552433732313a207472616e7366657220746f206e6f6e20455243373231526560008301527f63656976657220696d706c656d656e74657200000000000000000000000000006020830152604082019050919050565b600062002548601c8362002f2a565b91507f4552433732313a20746f6b656e20616c7265616479206d696e746564000000006000830152602082019050919050565b60006200258a60248362002f2a565b91507f4552433732313a207472616e7366657220746f20746865207a65726f2061646460008301527f72657373000000000000000000000000000000000000000000000000000000006020830152604082019050919050565b6000620025f260198362002f2a565b91507f4552433732313a20617070726f766520746f2063616c6c6572000000000000006000830152602082019050919050565b600062002634602c8362002f2a565b91507f4552433732313a206f70657261746f7220717565727920666f72206e6f6e657860008301527f697374656e7420746f6b656e00000000000000000000000000000000000000006020830152604082019050919050565b60006200269c60388362002f2a565b91507f4552433732313a20617070726f76652063616c6c6572206973206e6f74206f7760008301527f6e6572206e6f7220617070726f76656420666f7220616c6c00000000000000006020830152604082019050919050565b600062002704602a8362002f2a565b91507f4552433732313a2062616c616e636520717565727920666f7220746865207a6560008301527f726f2061646472657373000000000000000000000000000000000000000000006020830152604082019050919050565b60006200276c60298362002f2a565b91507f4552433732313a206f776e657220717565727920666f72206e6f6e657869737460008301527f656e7420746f6b656e00000000000000000000000000000000000000000000006020830152604082019050919050565b6000620027d460208362002f2a565b91507f4552433732313a206d696e7420746f20746865207a65726f20616464726573736000830152602082019050919050565b600062002816602c8362002f2a565b91507f4552433732313a20617070726f76656420717565727920666f72206e6f6e657860008301527f697374656e7420746f6b656e00000000000000000000000000000000000000006020830152604082019050919050565b60006200287e60248362002f2a565b91507f73686f756c642062652063616c6c6564206279206f6e6c7920746f6b656e206f60008301527f776e6572000000000000000000000000000000000000000000000000000000006020830152604082019050919050565b6000620028e660298362002f2a565b91507f4552433732313a207472616e73666572206f6620746f6b656e2074686174206960008301527f73206e6f74206f776e00000000000000000000000000000000000000000000006020830152604082019050919050565b60006200294e602f8362002f2a565b91507f4552433732314d657461646174613a2055524920717565727920666f72206e6f60008301527f6e6578697374656e7420746f6b656e00000000000000000000000000000000006020830152604082019050919050565b6000620029b660218362002f2a565b91507f4552433732313a20617070726f76616c20746f2063757272656e74206f776e6560008301527f72000000000000000000000000000000000000000000000000000000000000006020830152604082019050919050565b600062002a1e60318362002f2a565b91507f4552433732313a207472616e736665722063616c6c6572206973206e6f74206f60008301527f776e6572206e6f7220617070726f7665640000000000000000000000000000006020830152604082019050919050565b62002a828162003096565b82525050565b62002a9381620030a0565b82525050565b600062002aa782856200249a565b915062002ab582846200249a565b91508190509392505050565b600060208201905062002ad86000830184620023d4565b92915050565b600060808201905062002af56000830187620023d4565b62002b046020830186620023d4565b62002b13604083018562002a77565b818103606083015262002b278184620023f6565b905095945050505050565b600060408201905062002b496000830185620023d4565b62002b58602083018462002a77565b9392505050565b600060208201905062002b766000830184620023e5565b92915050565b600060208201905062002b93600083018462002437565b92915050565b600060208201905062002bb0600083018462002448565b92915050565b6000602082019050818103600083015262002bd2818462002459565b905092915050565b6000602082019050818103600083015262002bf581620024d1565b9050919050565b6000602082019050818103600083015262002c178162002539565b9050919050565b6000602082019050818103600083015262002c39816200257b565b9050919050565b6000602082019050818103600083015262002c5b81620025e3565b9050919050565b6000602082019050818103600083015262002c7d8162002625565b9050919050565b6000602082019050818103600083015262002c9f816200268d565b9050919050565b6000602082019050818103600083015262002cc181620026f5565b9050919050565b6000602082019050818103600083015262002ce3816200275d565b9050919050565b6000602082019050818103600083015262002d0581620027c5565b9050919050565b6000602082019050818103600083015262002d278162002807565b9050919050565b6000602082019050818103600083015262002d49816200286f565b9050919050565b6000602082019050818103600083015262002d6b81620028d7565b9050919050565b6000602082019050818103600083015262002d8d816200293f565b9050919050565b6000602082019050818103600083015262002daf81620029a7565b9050919050565b6000602082019050818103600083015262002dd18162002a0f565b9050919050565b600060208201905062002def600083018462002a77565b92915050565b600060408201905062002e0c600083018562002a77565b62002e1b6020830184620023d4565b9392505050565b600060a08201905062002e39600083018862002a77565b62002e48602083018762002a77565b62002e576040830186620023d4565b62002e66606083018562002448565b62002e756080830184620023d4565b9695505050505050565b600060208201905062002e96600083018462002a88565b92915050565b6000604051905081810181811067ffffffffffffffff8211171562002ec65762002ec56200328b565b5b8060405250919050565b600067ffffffffffffffff82111562002eee5762002eed6200328b565b5b601f19601f8301169050602081019050919050565b600081519050919050565b600081519050919050565b600082825260208201905092915050565b600082825260208201905092915050565b600081905092915050565b600062002f538262003096565b915062002f608362003096565b9250827fffffffffffffffffffffffffffffffffffffffffffffffffffffffffffffffff0382111562002f985762002f97620031fe565b5b828201905092915050565b600062002fb08262003096565b915062002fbd8362003096565b92508262002fd05762002fcf6200322d565b5b828204905092915050565b600062002fe88262003096565b915062002ff58362003096565b9250828210156200300b576200300a620031fe565b5b828203905092915050565b6000620030238262003076565b9050919050565b60008115159050919050565b60007fffffffff0000000000000000000000000000000000000000000000000000000082169050919050565b60006200306f8262003016565b9050919050565b600073ffffffffffffffffffffffffffffffffffffffff82169050919050565b6000819050919050565b600060ff82169050919050565b6000620030ba82620030c1565b9050919050565b6000620030ce8262003076565b9050919050565b6000620030e282620030e9565b9050919050565b6000620030f68262003076565b9050919050565b82818337600083830152505050565b60005b838110156200312c5780820151818401526020810190506200310f565b838111156200313c576000848401525b50505050565b600060028204905060018216806200315b57607f821691505b602082108114156200317257620031716200325c565b5b50919050565b6000620031858262003096565b91507fffffffffffffffffffffffffffffffffffffffffffffffffffffffffffffffff821415620031bb57620031ba620031fe565b5b600182019050919050565b6000620031d38262003096565b9150620031e08362003096565b925082620031f357620031f26200322d565b5b828206905092915050565b7f4e487b7100000000000000000000000000000000000000000000000000000000600052601160045260246000fd5b7f4e487b7100000000000000000000000000000000000000000000000000000000600052601260045260246000fd5b7f4e487b7100000000000000000000000000000000000000000000000000000000600052602260045260246000fd5b7f4e487b7100000000000000000000000000000000000000000000000000000000600052604160045260246000fd5b6000601f19601f8301169050919050565b620032d68162003016565b8114620032e257600080fd5b50565b620032f0816200302a565b8114620032fc57600080fd5b50565b6200330a8162003036565b81146200331657600080fd5b50565b620033248162003062565b81146200333057600080fd5b50565b6200333e8162003096565b81146200334a57600080fd5b5056fe60806040523480156200001157600080fd5b5060405162001ab738038062001ab7833981810160405281019062000037919062000164565b84600481905550826000806101000a81548173ffffffffffffffffffffffffffffffffffffffff021916908373ffffffffffffffffffffffffffffffffffffffff16021790555083426200008c9190620001e6565b60018190555081600260006101000a81548173ffffffffffffffffffffffffffffffffffffffff021916908373ffffffffffffffffffffffffffffffffffffffff16021790555080600360006101000a81548173ffffffffffffffffffffffffffffffffffffffff021916908373ffffffffffffffffffffffffffffffffffffffff160217905550505050505062000312565b6000815190506200013081620002c4565b92915050565b6000815190506200014781620002de565b92915050565b6000815190506200015e81620002f8565b92915050565b600080600080600060a086880312156200017d57600080fd5b60006200018d888289016200014d565b9550506020620001a0888289016200014d565b9450506040620001b3888289016200011f565b9350506060620001c68882890162000136565b9250506080620001d9888289016200011f565b9150509295509295909350565b6000620001f3826200028b565b915062000200836200028b565b9250827fffffffffffffffffffffffffffffffffffffffffffffffffffffffffffffffff0382111562000238576200023762000295565b5b828201905092915050565b600062000250826200026b565b9050919050565b6000620002648262000243565b9050919050565b600073ffffffffffffffffffffffffffffffffffffffff82169050919050565b6000819050919050565b7f4e487b7100000000000000000000000000000000000000000000000000000000600052601160045260246000fd5b620002cf8162000243565b8114620002db57600080fd5b50565b620002e98162000257565b8114620002f557600080fd5b50565b62000303816200028b565b81146200030f57600080fd5b50565b61179580620003226000396000f3fe608060405260043610610110576000357c010000000000000000000000000000000000000000000000000000000090048063454a2ab3116100a757806388a6360e1161007657806388a6360e146102e357806391f901571461030e578063d57bde7914610339578063f56e9c661461036457610110565b8063454a2ab3146102485780634b449cba1461026457806370bda8941461028f57806383ffda3b146102a657610110565b806321df0da7116100e357806321df0da7146101bd5780632a24f46c146101e857806338af3eed146101f25780633ccfd60b1461021d57610110565b806312fa6feb14610115578063144fa6d714610140578063150b7a02146101695780631e36d755146101a6575b600080fd5b34801561012157600080fd5b5061012a61038d565b6040516101379190611351565b60405180910390f35b34801561014c57600080fd5b5061016760048036038101906101629190611035565b6103a0565b005b34801561017557600080fd5b50610190600480360381019061018b919061105e565b6103e4565b60405161019d919061136c565b60405180910390f35b3480156101b257600080fd5b506101bb610414565b005b3480156101c957600080fd5b506101d2610504565b6040516101df9190611387565b60405180910390f35b6101f061052e565b005b3480156101fe57600080fd5b50610207610969565b60405161021491906112e4565b60405180910390f35b34801561022957600080fd5b5061023261098d565b60405161023f9190611351565b60405180910390f35b610262600480360381019061025d9190611102565b610b47565b005b34801561027057600080fd5b50610279610db5565b604051610286919061143d565b60405180910390f35b34801561029b57600080fd5b506102a4610dbb565b005b3480156102b257600080fd5b506102cd60048036038101906102c89190611035565b610eab565b6040516102da919061143d565b60405180910390f35b3480156102ef57600080fd5b506102f8610ef4565b60405161030591906113a2565b60405180910390f35b34801561031a57600080fd5b50610323610f1e565b60405161033091906112c9565b60405180910390f35b34801561034557600080fd5b5061034e610f44565b60405161035b919061143d565b60405180910390f35b34801561037057600080fd5b5061038b60048036038101906103869190611035565b610f4a565b005b600860009054906101000a900460ff1681565b80600260006101000a81548173ffffffffffffffffffffffffffffffffffffffff021916908373ffffffffffffffffffffffffffffffffffffffff16021790555050565b600063150b7a027c0100000000000000000000000000000000000000000000000000000000029050949350505050565b600360009054906101000a900473ffffffffffffffffffffffffffffffffffffffff1673ffffffffffffffffffffffffffffffffffffffff16639564470e60045460008054906101000a900473ffffffffffffffffffffffffffffffffffffffff166040518363ffffffff167c01000000000000000000000000000000000000000000000000000000000281526004016104af929190611481565b602060405180830381600087803b1580156104c957600080fd5b505af11580156104dd573d6000803e3d6000fd5b505050506040513d601f19601f8201168201806040525081019061050191906110d9565b50565b6000600260009054906101000a900473ffffffffffffffffffffffffffffffffffffffff16905090565b600154421015610573576040517f08c379a000000000000000000000000000000000000000000000000000000000815260040161056a906113fd565b60405180910390fd5b600860009054906101000a900460ff16156105c3576040517f08c379a00000000000000000000000000000000000000000000000000000000081526004016105ba9061141d565b60405180910390fd5b6001600860006101000a81548160ff0219169083151502179055507fd2aa34a4fdbbc6dff6a3e56f46e0f3ae2a31d7785ff3487aa5c95c642acea501600454600560009054906101000a900473ffffffffffffffffffffffffffffffffffffffff16600654604051610637939291906114aa565b60405180910390a1600073ffffffffffffffffffffffffffffffffffffffff16600560009054906101000a900473ffffffffffffffffffffffffffffffffffffffff1673ffffffffffffffffffffffffffffffffffffffff161461087857600360009054906101000a900473ffffffffffffffffffffffffffffffffffffffff1673ffffffffffffffffffffffffffffffffffffffff16639564470e600454600560009054906101000a900473ffffffffffffffffffffffffffffffffffffffff166040518363ffffffff167c0100000000000000000000000000000000000000000000000000000000028152600401610732929190611458565b602060405180830381600087803b15801561074c57600080fd5b505af1158015610760573d6000803e3d6000fd5b505050506040513d601f19601f8201168201806040525081019061078491906110d9565b50600260009054906101000a900473ffffffffffffffffffffffffffffffffffffffff1673ffffffffffffffffffffffffffffffffffffffff1663a9059cbb60008054906101000a900473ffffffffffffffffffffffffffffffffffffffff166006546040518363ffffffff167c01000000000000000000000000000000000000000000000000000000000281526004016108209291906112ff565b602060405180830381600087803b15801561083a57600080fd5b505af115801561084e573d6000803e3d6000fd5b505050506040513d601f19601f8201168201806040525081019061087291906110d9565b50610967565b600360009054906101000a900473ffffffffffffffffffffffffffffffffffffffff1673ffffffffffffffffffffffffffffffffffffffff16639564470e60045460008054906101000a900473ffffffffffffffffffffffffffffffffffffffff166040518363ffffffff167c0100000000000000000000000000000000000000000000000000000000028152600401610913929190611481565b602060405180830381600087803b15801561092d57600080fd5b505af1158015610941573d6000803e3d6000fd5b505050506040513d601f19601f8201168201806040525081019061096591906110d9565b505b565b60008054906101000a900473ffffffffffffffffffffffffffffffffffffffff1681565b600080600760003373ffffffffffffffffffffffffffffffffffffffff1673ffffffffffffffffffffffffffffffffffffffff1681526020019081526020016000205490506000811115610b3e576000600760003373ffffffffffffffffffffffffffffffffffffffff1673ffffffffffffffffffffffffffffffffffffffff16815260200190815260200160002081905550600260009054906101000a900473ffffffffffffffffffffffffffffffffffffffff1673ffffffffffffffffffffffffffffffffffffffff1663a9059cbb33836040518363ffffffff167c0100000000000000000000000000000000000000000000000000000000028152600401610a99929190611328565b602060405180830381600087803b158015610ab357600080fd5b505af1158015610ac7573d6000803e3d6000fd5b505050506040513d601f19601f82011682018060405250810190610aeb91906110d9565b610b3d5780600760003373ffffffffffffffffffffffffffffffffffffffff1673ffffffffffffffffffffffffffffffffffffffff168152602001908152602001600020819055506000915050610b44565b5b60019150505b90565b600154421115610b8c576040517f08c379a0000000000000000000000000000000000000000000000000000000008152600401610b83906113bd565b60405180910390fd5b6006548111610bd0576040517f08c379a0000000000000000000000000000000000000000000000000000000008152600401610bc7906113dd565b60405180910390fd5b600260009054906101000a900473ffffffffffffffffffffffffffffffffffffffff1673ffffffffffffffffffffffffffffffffffffffff166301f07a3b60045433846040518463ffffffff167c0100000000000000000000000000000000000000000000000000000000028152600401610c4d939291906114aa565b602060405180830381600087803b158015610c6757600080fd5b505af1158015610c7b573d6000803e3d6000fd5b505050506040513d601f19601f82011682018060405250810190610c9f91906110d9565b610ca857600080fd5b600060065414610d2d5760065460076000600560009054906101000a900473ffffffffffffffffffffffffffffffffffffffff1673ffffffffffffffffffffffffffffffffffffffff1673ffffffffffffffffffffffffffffffffffffffff1681526020019081526020016000206000828254610d259190611553565b925050819055505b33600560006101000a81548173ffffffffffffffffffffffffffffffffffffffff021916908373ffffffffffffffffffffffffffffffffffffffff160217905550806006819055507fda0a18da71d8ebd145966339a728fc0d8ccc07c22870d561890d823c515dda6b6004543383604051610daa939291906114aa565b60405180910390a150565b60015481565b600360009054906101000a900473ffffffffffffffffffffffffffffffffffffffff1673ffffffffffffffffffffffffffffffffffffffff16639564470e60045460008054906101000a900473ffffffffffffffffffffffffffffffffffffffff166040518363ffffffff167c0100000000000000000000000000000000000000000000000000000000028152600401610e56929190611481565b602060405180830381600087803b158015610e7057600080fd5b505af1158015610e84573d6000803e3d6000fd5b505050506040513d601f19601f82011682018060405250810190610ea891906110d9565b50565b6000600760008373ffffffffffffffffffffffffffffffffffffffff1673ffffffffffffffffffffffffffffffffffffffff168152602001908152602001600020549050919050565b6000600360009054906101000a900473ffffffffffffffffffffffffffffffffffffffff16905090565b600560009054906101000a900473ffffffffffffffffffffffffffffffffffffffff1681565b60065481565b80600360006101000a81548173ffffffffffffffffffffffffffffffffffffffff021916908373ffffffffffffffffffffffffffffffffffffffff16021790555050565b6000610fa1610f9c84611512565b6114e1565b905082815260208101848484011115610fb957600080fd5b610fc48482856116ad565b509392505050565b600081359050610fdb8161171a565b92915050565b600081519050610ff081611731565b92915050565b600082601f83011261100757600080fd5b8135611017848260208601610f8e565b91505092915050565b60008135905061102f81611748565b92915050565b60006020828403121561104757600080fd5b600061105584828501610fcc565b91505092915050565b6000806000806080858703121561107457600080fd5b600061108287828801610fcc565b945050602061109387828801610fcc565b93505060406110a487828801611020565b925050606085013567ffffffffffffffff8111156110c157600080fd5b6110cd87828801610ff6565b91505092959194509250565b6000602082840312156110eb57600080fd5b60006110f984828501610fe1565b91505092915050565b60006020828403121561111457600080fd5b600061112284828501611020565b91505092915050565b6111348161162f565b82525050565b611143816115bb565b82525050565b611152816115a9565b82525050565b611161816115cd565b82525050565b611170816115d9565b82525050565b61117f81611641565b82525050565b61118e81611665565b82525050565b60006111a1601683611542565b91507f41756374696f6e20616c726561647920656e6465642e000000000000000000006000830152602082019050919050565b60006111e1601e83611542565b91507f546865726520616c7265616479206973206120686967686572206269642e00006000830152602082019050919050565b6000611221601683611542565b91507f41756374696f6e206e6f742079657420656e6465642e000000000000000000006000830152602082019050919050565b6000611261602383611542565b91507f61756374696f6e456e642068617320616c7265616479206265656e2063616c6c60008301527f65642e00000000000000000000000000000000000000000000000000000000006020830152604082019050919050565b6112c381611625565b82525050565b60006020820190506112de6000830184611149565b92915050565b60006020820190506112f9600083018461113a565b92915050565b6000604082019050611314600083018561112b565b61132160208301846112ba565b9392505050565b600060408201905061133d6000830185611149565b61134a60208301846112ba565b9392505050565b60006020820190506113666000830184611158565b92915050565b60006020820190506113816000830184611167565b92915050565b600060208201905061139c6000830184611176565b92915050565b60006020820190506113b76000830184611185565b92915050565b600060208201905081810360008301526113d681611194565b9050919050565b600060208201905081810360008301526113f6816111d4565b9050919050565b6000602082019050818103600083015261141681611214565b9050919050565b6000602082019050818103600083015261143681611254565b9050919050565b600060208201905061145260008301846112ba565b92915050565b600060408201905061146d60008301856112ba565b61147a6020830184611149565b9392505050565b600060408201905061149660008301856112ba565b6114a3602083018461112b565b9392505050565b60006060820190506114bf60008301866112ba565b6114cc6020830185611149565b6114d960408301846112ba565b949350505050565b6000604051905081810181811067ffffffffffffffff82111715611508576115076116eb565b5b8060405250919050565b600067ffffffffffffffff82111561152d5761152c6116eb565b5b601f19601f8301169050602081019050919050565b600082825260208201905092915050565b600061155e82611625565b915061156983611625565b9250827fffffffffffffffffffffffffffffffffffffffffffffffffffffffffffffffff0382111561159e5761159d6116bc565b5b828201905092915050565b60006115b482611605565b9050919050565b60006115c682611605565b9050919050565b60008115159050919050565b60007fffffffff0000000000000000000000000000000000000000000000000000000082169050919050565b600073ffffffffffffffffffffffffffffffffffffffff82169050919050565b6000819050919050565b600061163a82611689565b9050919050565b600061164c82611653565b9050919050565b600061165e82611605565b9050919050565b600061167082611677565b9050919050565b600061168282611605565b9050919050565b60006116948261169b565b9050919050565b60006116a682611605565b9050919050565b82818337600083830152505050565b7f4e487b7100000000000000000000000000000000000000000000000000000000600052601160045260246000fd5b7f4e487b7100000000000000000000000000000000000000000000000000000000600052604160045260246000fd5b611723816115a9565b811461172e57600080fd5b50565b61173a816115cd565b811461174557600080fd5b50565b61175181611625565b811461175c57600080fd5b5056fea2646970667358221220e8486ce6beb12b4c7582ee5b1cef442e5292904d6262c6907b1ec9b0df6c24c564736f6c63430008000033a2646970667358221220a815a72d2a53f7271cd71d14b106e7c690442870d844a0005fed4c2f951f00aa64736f6c63430008000033",
  "immutableReferences": {},
  "source": "// SPDX-License-Identifier: MIT\n\npragma solidity ^0.8.0;\n\nimport \"./IERC721.sol\";\nimport \"./IERC721Receiver.sol\";\nimport \"./extensions/IERC721Metadata.sol\";\nimport \"../utils/Address.sol\";\nimport \"../utils/Context.sol\";\nimport \"../utils/Strings.sol\";\nimport \"../utils/introspection/ERC165.sol\";\nimport \"../ERC20/ERC20.sol\";\nimport \"../Auction.sol\";\n/**\n * @dev Implementation of https://eips.ethereum.org/EIPS/eip-721[ERC721] Non-Fungible Token Standard, including\n * the Metadata extension, but not including the Enumerable extension, which is available separately as\n * {ERC721Enumerable}.\n */\n\ncontract ERC721 is Context, ERC165, IERC721, IERC721Metadata {\n    using Address for address;\n    using Strings for uint256;\n\n    //ERC20 Token\n    ERC20 private _token; // getters and setters\n\n    // Token name\n    string private _name;\n\n    // Token symbol\n    string private _symbol;\n\n\n    uint8 public _creatorComission = 10;\n    // Mapping from token ID to owner address\n    mapping(uint256 => address) private _owners;\n\n    // Mapping from token ID to creator address\n    mapping(uint256 => address) internal _creator;\n    // Mapping owner address to token count\n    mapping(address => uint256) private _balances;\n\n    // Mapping from token ID to approved address\n    mapping(uint256 => address) private _tokenApprovals;\n\n    // Mapping from owner to operator approvals\n    mapping(address => mapping(address => bool)) private _operatorApprovals;\n\n    mapping(uint256 => Auction) private _auctionContracts;\n\n    // Auction public auction;\n    // Events that will be emitted on changes.\n\n    /**\n     * @dev Initializes the contract by setting a `name` and a `symbol` to the token collection.\n     */\n    constructor(string memory name_, string memory symbol_) {\n        _name = name_;\n        _symbol = symbol_;\n    }\n\n    function getCreator(uint256 tokenId) public view returns(address){\n        return _creator[tokenId];\n    }\n    /**\n     * Getter and Setter of _token (ERC20)\n     **/\n    function getToken() public view returns(ERC20){\n        return _token;\n    }\n\n    //  ERC20 private _token; // getters and setters\n    function setToken(address tokenAddress) public {\n        _token = ERC20(tokenAddress);\n    }\n\n    function startAuction(uint256 tokenId, uint time) public {\n        require(msg.sender == _owners[tokenId], 'should be called by only token owner');\n        address nftaddress = address(this);\n        _auctionContracts[tokenId] = new Auction(tokenId, time, _owners[tokenId], _token, nftaddress);\n        safeTransferFrom(msg.sender, address(_auctionContracts[tokenId]), tokenId);\n        _token.setAuctionsAddress(tokenId, address(_auctionContracts[tokenId]));\n    }\n\n    function getAuctionContract(uint256 tokenId) public view returns(Auction){\n        return _auctionContracts[tokenId];\n    }\n    function setAuctionContract(uint256 tokenId, Auction auctionAddress) public {\n        require(msg.sender == _owners[tokenId], 'should be called by only token owner');\n        _auctionContracts[tokenId] = auctionAddress;\n    }\n    /**\n     * @dev See {IERC165-supportsInterface}.\n     */\n    function supportsInterface(bytes4 interfaceId) public view virtual override(ERC165, IERC165) returns (bool) {\n        return\n        interfaceId == type(IERC721).interfaceId ||\n        interfaceId == type(IERC721Metadata).interfaceId ||\n        super.supportsInterface(interfaceId);\n    }\n\n    /**\n     * @dev See {IERC721-balanceOf}.\n     */\n    function balanceOf(address owner) public view virtual override returns (uint256) {\n        require(owner != address(0), \"ERC721: balance query for the zero address\");\n        return _balances[owner];\n    }\n\n\n    /**\n     * @dev See {IERC721-ownerOf}.\n     */\n    function ownerOf(uint256 tokenId) public view virtual override returns (address) {\n        address owner = _owners[tokenId];\n        require(owner != address(0), \"ERC721: owner query for nonexistent token\");\n        return owner;\n    }\n\n    /**\n     * @dev See {IERC721Metadata-name}.\n     */\n    function name() public view virtual override returns (string memory) {\n        return _name;\n    }\n\n    /**\n     * @dev See {IERC721Metadata-symbol}.\n     */\n    function symbol() public view virtual override returns (string memory) {\n        return _symbol;\n    }\n\n    /**\n     * @dev See {IERC721Metadata-tokenURI}.\n     */\n    function tokenURI(uint256 tokenId) public view virtual override returns (string memory) {\n        require(_exists(tokenId), \"ERC721Metadata: URI query for nonexistent token\");\n\n        string memory baseURI = _baseURI();\n        return bytes(baseURI).length > 0 ? string(abi.encodePacked(baseURI, tokenId.toString())) : \"\";\n    }\n\n    /**\n     * @dev Base URI for computing {tokenURI}. If set, the resulting URI for each\n     * token will be the concatenation of the `baseURI` and the `tokenId`. Empty\n     * by default, can be overriden in child contracts.\n     */\n    function _baseURI() internal view virtual returns (string memory) {\n        return \"\";\n    }\n\n    /**\n     * @dev See {IERC721-approve}.\n     */\n    function approve(address to, uint256 tokenId) public virtual override {\n        address owner = ERC721.ownerOf(tokenId);\n        require(to != owner, \"ERC721: approval to current owner\");\n\n        require(\n            _msgSender() == owner || isApprovedForAll(owner, _msgSender()),\n            \"ERC721: approve caller is not owner nor approved for all\"\n        );\n\n        _approve(to, tokenId);\n    }\n\n    /**\n     * @dev See {IERC721-getApproved}.\n     */\n    function getApproved(uint256 tokenId) public view virtual override returns (address) {\n        require(_exists(tokenId), \"ERC721: approved query for nonexistent token\");\n\n        return _tokenApprovals[tokenId];\n    }\n\n    /**\n     * @dev See {IERC721-setApprovalForAll}.\n     */\n    function setApprovalForAll(address operator, bool approved) public virtual override {\n        require(operator != _msgSender(), \"ERC721: approve to caller\");\n\n        _operatorApprovals[_msgSender()][operator] = approved;\n        emit ApprovalForAll(_msgSender(), operator, approved);\n    }\n\n    /**\n     * @dev See {IERC721-isApprovedForAll}.\n     */\n    function isApprovedForAll(address owner, address operator) public view virtual override returns (bool) {\n        return _operatorApprovals[owner][operator];\n    }\n\n    /**\n     * @dev See {IERC721-transferFrom}.\n     */\n    function transferFrom(\n        address from,\n        address to,\n        uint256 tokenId\n    ) public virtual override {\n        //solhint-disable-next-line max-line-length\n        require(_isApprovedOrOwner(_msgSender(), tokenId), \"ERC721: transfer caller is not owner nor approved\");\n\n        _transfer(from, to, tokenId);\n    }\n\n    /**\n     * @dev See {IERC721-safeTransferFrom}.\n     */\n\n    function _spend(uint256 tokenId, address to) public virtual returns (bool) {\n        safeTransferFrom(msg.sender, to, tokenId);\n        return true;\n    }\n\n    function safeTransferFrom(\n        address from,\n        address to,\n        uint256 tokenId\n    ) public virtual override {\n        safeTransferFrom(from, to, tokenId, \"\");\n    }\n\n    /**\n     * @dev See {IERC721-safeTransferFrom}.\n     */\n    function safeTransferFrom(\n        address from,\n        address to,\n        uint256 tokenId,\n        bytes memory _data\n    ) public virtual override {\n        require(_isApprovedOrOwner(_msgSender(), tokenId), \"ERC721: transfer caller is not owner nor approved\");\n        _safeTransfer(from, to, tokenId, _data);\n    }\n\n    /**\n     * @dev Safely transfers `tokenId` token from `from` to `to`, checking first that contract recipients\n     * are aware of the ERC721 protocol to prevent tokens from being forever locked.\n     *\n     * `_data` is additional data, it has no specified format and it is sent in call to `to`.\n     *\n     * This internal function is equivalent to {safeTransferFrom}, and can be used to e.g.\n     * implement alternative mechanisms to perform token transfer, such as signature-based.\n     *\n     * Requirements:\n     *\n     * - `from` cannot be the zero address.\n     * - `to` cannot be the zero address.\n     * - `tokenId` token must exist and be owned by `from`.\n     * - If `to` refers to a smart contract, it must implement {IERC721Receiver-onERC721Received}, which is called upon a safe transfer.\n     *\n     * Emits a {Transfer} event.\n     */\n    function _safeTransfer(\n        address from,\n        address to,\n        uint256 tokenId,\n        bytes memory _data\n    ) internal virtual {\n        _transfer(from, to, tokenId);\n        require(_checkOnERC721Received(from, to, tokenId, _data), \"ERC721: transfer to non ERC721Receiver implementer\");\n    }\n\n\n\n    /**\n     * @dev Returns whether `tokenId` exists.\n     *\n     * Tokens can be managed by their owner or approved accounts via {approve} or {setApprovalForAll}.\n     *\n     * Tokens start existing when they are minted (`_mint`),\n     * and stop existing when they are burned (`_burn`).\n     */\n    function _exists(uint256 tokenId) internal view virtual returns (bool) {\n        return _owners[tokenId] != address(0);\n    }\n\n    /**\n     * @dev Returns whether `spender` is allowed to manage `tokenId`.\n     *\n     * Requirements:\n     *\n     * - `tokenId` must exist.\n     */\n    function _isApprovedOrOwner(address spender, uint256 tokenId) internal view virtual returns (bool) {\n        require(_exists(tokenId), \"ERC721: operator query for nonexistent token\");\n        address owner = ERC721.ownerOf(tokenId);\n        return (spender == owner || getApproved(tokenId) == spender || isApprovedForAll(owner, spender));\n    }\n\n    /**\n     * @dev Safely mints `tokenId` and transfers it to `to`.\n     *\n     * Requirements:\n     *\n     * - `tokenId` must not exist.\n     * - If `to` refers to a smart contract, it must implement {IERC721Receiver-onERC721Received}, which is called upon a safe transfer.\n     *\n     * Emits a {Transfer} event.\n     */\n    function _safeMint(address to, uint256 tokenId, uint256 tokenAmount) internal virtual {\n        _safeMint(to, tokenId, tokenAmount, \"\");\n    }\n\n    /**\n     * @dev Same as {xref-ERC721-_safeMint-address-uint256-}[`_safeMint`], with an additional `data` parameter which is\n     * forwarded in {IERC721Receiver-onERC721Received} to contract recipients.\n     */\n    function _safeMint(\n        address to,\n        uint256 tokenId,\n        uint256 tokenAmount,\n        bytes memory _data\n    ) internal virtual {\n        _mint(to, tokenId, tokenAmount);\n        require(\n            _checkOnERC721Received(address(0), to, tokenId, _data),\n            \"ERC721: transfer to non ERC721Receiver implementer\"\n        );\n    }\n\n    /**\n     * @dev Mints `tokenId` and transfers it to `to`.\n     *\n     * WARNING: Usage of this method is discouraged, use {_safeMint} whenever possible\n     *\n     * Requirements:\n     *\n     * - `tokenId` must not exist.\n     * - `to` cannot be the zero address.\n     *\n     * Emits a {Transfer} event.\n     */\n    function _mint(address to, uint256 tokenId, uint256 tokenAmount) public virtual {\n        require(to != address(0), \"ERC721: mint to the zero address\");\n        require(!_exists(tokenId), \"ERC721: token already minted\");\n        require(tokenAmount > 0);\n\n        require(_token.spendFrom(to, tokenAmount));\n\n        _balances[to] += 1;\n        _owners[tokenId] = to;\n        _creator[tokenId] = to;\n        emit Transfer(address(0), to, tokenId);\n    }\n\n    /**\n     * @dev Destroys `tokenId`.\n     * The approval is cleared when the token is burned.\n     *\n     * Requirements:\n     *\n     * - `tokenId` must exist.\n     *\n     * Emits a {Transfer} event.\n     */\n    function _burn(uint256 tokenId) internal virtual {\n        address owner = ERC721.ownerOf(tokenId);\n\n        // Clear approvals\n        _approve(address(0), tokenId);\n\n        _balances[owner] -= 1;\n        delete _owners[tokenId];\n\n        emit Transfer(owner, address(0), tokenId);\n    }\n\n    /**\n     * @dev Transfers `tokenId` from `from` to `to`.\n     *  As opposed to {transferFrom}, this imposes no restrictions on msg.sender.\n     *\n     * Requirements:\n     *\n     * - `to` cannot be the zero address.\n     * - `tokenId` token must be owned by `from`.\n     *\n     * Emits a {Transfer} event.\n     */\n    function _transfer(\n        address from,\n        address to,\n        uint256 tokenId\n    ) internal virtual {\n        require(ERC721.ownerOf(tokenId) == from, \"ERC721: transfer of token that is not own\");\n        require(to != address(0), \"ERC721: transfer to the zero address\");\n\n        _beforeTokenTransfer(from, to, tokenId);\n\n        // Clear approvals from the previous owner\n        _approve(address(0), tokenId);\n\n        _balances[from] -= 1;\n        _balances[to] += 1;\n        _owners[tokenId] = to;\n\n        emit Transfer(from, to, tokenId);\n    }\n\n    /**\n     * @dev Approve `to` to operate on `tokenId`\n     *\n     * Emits a {Approval} event.\n     */\n    function _approve(address to, uint256 tokenId) internal virtual {\n        _tokenApprovals[tokenId] = to;\n        emit Approval(ERC721.ownerOf(tokenId), to, tokenId);\n    }\n\n    /**\n     * @dev Internal function to invoke {IERC721Receiver-onERC721Received} on a target address.\n     * The call is not executed if the target address is not a contract.\n     *\n     * @param from address representing the previous owner of the given token ID\n     * @param to target address that will receive the tokens\n     * @param tokenId uint256 ID of the token to be transferred\n     * @param _data bytes optional data to send along with the call\n     * @return bool whether the call correctly returned the expected magic value\n     */\n    function _checkOnERC721Received(\n        address from,\n        address to,\n        uint256 tokenId,\n        bytes memory _data\n    ) private returns (bool) {\n        if (to.isContract()) {\n            try IERC721Receiver(to).onERC721Received(_msgSender(), from, tokenId, _data) returns (bytes4 retval) {\n                return retval == IERC721Receiver(to).onERC721Received.selector;\n            } catch (bytes memory reason) {\n                if (reason.length == 0) {\n                    revert(\"ERC721: transfer to non ERC721Receiver implementer\");\n                } else {\n                    assembly {\n                        revert(add(32, reason), mload(reason))\n                    }\n                }\n            }\n        } else {\n            return true;\n        }\n    }\n\n    /**\n     * @dev Hook that is called before any token transfer. This includes minting\n     * and burning.\n     *\n     * Calling conditions:\n     *\n     * - When `from` and `to` are both non-zero, ``from``'s `tokenId` will be\n     * transferred to `to`.\n     * - When `from` is zero, `tokenId` will be minted for `to`.\n     * - When `to` is zero, ``from``'s `tokenId` will be burned.\n     * - `from` and `to` are never both zero.\n     *\n     * To learn more about hooks, head to xref:ROOT:extending-contracts.adoc#using-hooks[Using Hooks].\n     */\n    function _beforeTokenTransfer(\n        address from,\n        address to,\n        uint256 tokenId\n    ) internal virtual {}\n}",
  "sourcePath": "/Volumes/Transcend/Projects/DappsLab/Lottery-Smart-Contract/contracts/customERC20ERC721/ERC721/ERC721.sol",
  "compiler": {
    "name": "solc",
    "version": "0.8.0+commit.c7dfd78e.Emscripten.clang"
  },
  "schemaVersion": "3.4.2",
  "updatedAt": "2021-07-27T08:00:18.726Z",
  "devdoc": {
    "details": "Implementation of https://eips.ethereum.org/EIPS/eip-721[ERC721] Non-Fungible Token Standard, including the Metadata extension, but not including the Enumerable extension, which is available separately as {ERC721Enumerable}.",
    "kind": "dev",
    "methods": {
      "_mint(address,uint256,uint256)": {
        "details": "Mints `tokenId` and transfers it to `to`. WARNING: Usage of this method is discouraged, use {_safeMint} whenever possible Requirements: - `tokenId` must not exist. - `to` cannot be the zero address. Emits a {Transfer} event."
      },
      "_spend(uint256,address)": {
        "details": "See {IERC721-safeTransferFrom}."
      },
      "approve(address,uint256)": {
        "details": "See {IERC721-approve}."
      },
      "balanceOf(address)": {
        "details": "See {IERC721-balanceOf}."
      },
      "constructor": {
        "details": "Initializes the contract by setting a `name` and a `symbol` to the token collection."
      },
      "getApproved(uint256)": {
        "details": "See {IERC721-getApproved}."
      },
      "isApprovedForAll(address,address)": {
        "details": "See {IERC721-isApprovedForAll}."
      },
      "name()": {
        "details": "See {IERC721Metadata-name}."
      },
      "ownerOf(uint256)": {
        "details": "See {IERC721-ownerOf}."
      },
      "safeTransferFrom(address,address,uint256)": {
        "details": "Safely transfers `tokenId` token from `from` to `to`, checking first that contract recipients are aware of the ERC721 protocol to prevent tokens from being forever locked. Requirements: - `from` cannot be the zero address. - `to` cannot be the zero address. - `tokenId` token must exist and be owned by `from`. - If the caller is not `from`, it must be have been allowed to move this token by either {approve} or {setApprovalForAll}. - If `to` refers to a smart contract, it must implement {IERC721Receiver-onERC721Received}, which is called upon a safe transfer. Emits a {Transfer} event."
      },
      "safeTransferFrom(address,address,uint256,bytes)": {
        "details": "See {IERC721-safeTransferFrom}."
      },
      "setApprovalForAll(address,bool)": {
        "details": "See {IERC721-setApprovalForAll}."
      },
      "supportsInterface(bytes4)": {
        "details": "See {IERC165-supportsInterface}."
      },
      "symbol()": {
        "details": "See {IERC721Metadata-symbol}."
      },
      "tokenURI(uint256)": {
        "details": "See {IERC721Metadata-tokenURI}."
      },
      "transferFrom(address,address,uint256)": {
        "details": "See {IERC721-transferFrom}."
      }
    },
    "version": 1
  },
  "userdoc": {
    "kind": "user",
    "methods": {
      "getToken()": {
        "notice": "Getter and Setter of _token (ERC20)*"
      }
    },
    "version": 1
  }
}