{
  "contractName": "ERC721PresetMinterPauserAutoId",
  "abi": [
    {
      "inputs": [
        {
          "internalType": "string",
          "name": "name",
          "type": "string"
        },
        {
          "internalType": "string",
          "name": "symbol",
          "type": "string"
        },
        {
          "internalType": "string",
          "name": "baseTokenURI",
          "type": "string"
        }
      ],
      "stateMutability": "nonpayable",
      "type": "constructor"
    },
    {
      "anonymous": false,
      "inputs": [
        {
          "indexed": true,
          "internalType": "address",
          "name": "owner",
          "type": "address"
        },
        {
          "indexed": true,
          "internalType": "address",
          "name": "approved",
          "type": "address"
        },
        {
          "indexed": true,
          "internalType": "uint256",
          "name": "tokenId",
          "type": "uint256"
        }
      ],
      "name": "Approval",
      "type": "event"
    },
    {
      "anonymous": false,
      "inputs": [
        {
          "indexed": true,
          "internalType": "address",
          "name": "owner",
          "type": "address"
        },
        {
          "indexed": true,
          "internalType": "address",
          "name": "operator",
          "type": "address"
        },
        {
          "indexed": false,
          "internalType": "bool",
          "name": "approved",
          "type": "bool"
        }
      ],
      "name": "ApprovalForAll",
      "type": "event"
    },
    {
      "anonymous": false,
      "inputs": [
        {
          "indexed": false,
          "internalType": "address",
          "name": "account",
          "type": "address"
        }
      ],
      "name": "Paused",
      "type": "event"
    },
    {
      "anonymous": false,
      "inputs": [
        {
          "indexed": true,
          "internalType": "bytes32",
          "name": "role",
          "type": "bytes32"
        },
        {
          "indexed": true,
          "internalType": "bytes32",
          "name": "previousAdminRole",
          "type": "bytes32"
        },
        {
          "indexed": true,
          "internalType": "bytes32",
          "name": "newAdminRole",
          "type": "bytes32"
        }
      ],
      "name": "RoleAdminChanged",
      "type": "event"
    },
    {
      "anonymous": false,
      "inputs": [
        {
          "indexed": true,
          "internalType": "bytes32",
          "name": "role",
          "type": "bytes32"
        },
        {
          "indexed": true,
          "internalType": "address",
          "name": "account",
          "type": "address"
        },
        {
          "indexed": true,
          "internalType": "address",
          "name": "sender",
          "type": "address"
        }
      ],
      "name": "RoleGranted",
      "type": "event"
    },
    {
      "anonymous": false,
      "inputs": [
        {
          "indexed": true,
          "internalType": "bytes32",
          "name": "role",
          "type": "bytes32"
        },
        {
          "indexed": true,
          "internalType": "address",
          "name": "account",
          "type": "address"
        },
        {
          "indexed": true,
          "internalType": "address",
          "name": "sender",
          "type": "address"
        }
      ],
      "name": "RoleRevoked",
      "type": "event"
    },
    {
      "anonymous": false,
      "inputs": [
        {
          "indexed": true,
          "internalType": "address",
          "name": "from",
          "type": "address"
        },
        {
          "indexed": true,
          "internalType": "address",
          "name": "to",
          "type": "address"
        },
        {
          "indexed": true,
          "internalType": "uint256",
          "name": "tokenId",
          "type": "uint256"
        }
      ],
      "name": "Transfer",
      "type": "event"
    },
    {
      "anonymous": false,
      "inputs": [
        {
          "indexed": false,
          "internalType": "address",
          "name": "account",
          "type": "address"
        }
      ],
      "name": "Unpaused",
      "type": "event"
    },
    {
      "inputs": [],
      "name": "DEFAULT_ADMIN_ROLE",
      "outputs": [
        {
          "internalType": "bytes32",
          "name": "",
          "type": "bytes32"
        }
      ],
      "stateMutability": "view",
      "type": "function"
    },
    {
      "inputs": [],
      "name": "MINTER_ROLE",
      "outputs": [
        {
          "internalType": "bytes32",
          "name": "",
          "type": "bytes32"
        }
      ],
      "stateMutability": "view",
      "type": "function"
    },
    {
      "inputs": [],
      "name": "PAUSER_ROLE",
      "outputs": [
        {
          "internalType": "bytes32",
          "name": "",
          "type": "bytes32"
        }
      ],
      "stateMutability": "view",
      "type": "function"
    },
    {
      "inputs": [
        {
          "internalType": "address",
          "name": "to",
          "type": "address"
        },
        {
          "internalType": "uint256",
          "name": "tokenId",
          "type": "uint256"
        }
      ],
      "name": "approve",
      "outputs": [],
      "stateMutability": "nonpayable",
      "type": "function"
    },
    {
      "inputs": [
        {
          "internalType": "address",
          "name": "owner",
          "type": "address"
        }
      ],
      "name": "balanceOf",
      "outputs": [
        {
          "internalType": "uint256",
          "name": "",
          "type": "uint256"
        }
      ],
      "stateMutability": "view",
      "type": "function"
    },
    {
      "inputs": [
        {
          "internalType": "uint256",
          "name": "tokenId",
          "type": "uint256"
        }
      ],
      "name": "burn",
      "outputs": [],
      "stateMutability": "nonpayable",
      "type": "function"
    },
    {
      "inputs": [
        {
          "internalType": "uint256",
          "name": "tokenId",
          "type": "uint256"
        }
      ],
      "name": "getApproved",
      "outputs": [
        {
          "internalType": "address",
          "name": "",
          "type": "address"
        }
      ],
      "stateMutability": "view",
      "type": "function"
    },
    {
      "inputs": [
        {
          "internalType": "bytes32",
          "name": "role",
          "type": "bytes32"
        }
      ],
      "name": "getRoleAdmin",
      "outputs": [
        {
          "internalType": "bytes32",
          "name": "",
          "type": "bytes32"
        }
      ],
      "stateMutability": "view",
      "type": "function"
    },
    {
      "inputs": [
        {
          "internalType": "bytes32",
          "name": "role",
          "type": "bytes32"
        },
        {
          "internalType": "uint256",
          "name": "index",
          "type": "uint256"
        }
      ],
      "name": "getRoleMember",
      "outputs": [
        {
          "internalType": "address",
          "name": "",
          "type": "address"
        }
      ],
      "stateMutability": "view",
      "type": "function"
    },
    {
      "inputs": [
        {
          "internalType": "bytes32",
          "name": "role",
          "type": "bytes32"
        }
      ],
      "name": "getRoleMemberCount",
      "outputs": [
        {
          "internalType": "uint256",
          "name": "",
          "type": "uint256"
        }
      ],
      "stateMutability": "view",
      "type": "function"
    },
    {
      "inputs": [
        {
          "internalType": "bytes32",
          "name": "role",
          "type": "bytes32"
        },
        {
          "internalType": "address",
          "name": "account",
          "type": "address"
        }
      ],
      "name": "grantRole",
      "outputs": [],
      "stateMutability": "nonpayable",
      "type": "function"
    },
    {
      "inputs": [
        {
          "internalType": "bytes32",
          "name": "role",
          "type": "bytes32"
        },
        {
          "internalType": "address",
          "name": "account",
          "type": "address"
        }
      ],
      "name": "hasRole",
      "outputs": [
        {
          "internalType": "bool",
          "name": "",
          "type": "bool"
        }
      ],
      "stateMutability": "view",
      "type": "function"
    },
    {
      "inputs": [
        {
          "internalType": "address",
          "name": "owner",
          "type": "address"
        },
        {
          "internalType": "address",
          "name": "operator",
          "type": "address"
        }
      ],
      "name": "isApprovedForAll",
      "outputs": [
        {
          "internalType": "bool",
          "name": "",
          "type": "bool"
        }
      ],
      "stateMutability": "view",
      "type": "function"
    },
    {
      "inputs": [],
      "name": "name",
      "outputs": [
        {
          "internalType": "string",
          "name": "",
          "type": "string"
        }
      ],
      "stateMutability": "view",
      "type": "function"
    },
    {
      "inputs": [
        {
          "internalType": "uint256",
          "name": "tokenId",
          "type": "uint256"
        }
      ],
      "name": "ownerOf",
      "outputs": [
        {
          "internalType": "address",
          "name": "",
          "type": "address"
        }
      ],
      "stateMutability": "view",
      "type": "function"
    },
    {
      "inputs": [],
      "name": "paused",
      "outputs": [
        {
          "internalType": "bool",
          "name": "",
          "type": "bool"
        }
      ],
      "stateMutability": "view",
      "type": "function"
    },
    {
      "inputs": [
        {
          "internalType": "bytes32",
          "name": "role",
          "type": "bytes32"
        },
        {
          "internalType": "address",
          "name": "account",
          "type": "address"
        }
      ],
      "name": "renounceRole",
      "outputs": [],
      "stateMutability": "nonpayable",
      "type": "function"
    },
    {
      "inputs": [
        {
          "internalType": "bytes32",
          "name": "role",
          "type": "bytes32"
        },
        {
          "internalType": "address",
          "name": "account",
          "type": "address"
        }
      ],
      "name": "revokeRole",
      "outputs": [],
      "stateMutability": "nonpayable",
      "type": "function"
    },
    {
      "inputs": [
        {
          "internalType": "address",
          "name": "from",
          "type": "address"
        },
        {
          "internalType": "address",
          "name": "to",
          "type": "address"
        },
        {
          "internalType": "uint256",
          "name": "tokenId",
          "type": "uint256"
        }
      ],
      "name": "safeTransferFrom",
      "outputs": [],
      "stateMutability": "nonpayable",
      "type": "function"
    },
    {
      "inputs": [
        {
          "internalType": "address",
          "name": "from",
          "type": "address"
        },
        {
          "internalType": "address",
          "name": "to",
          "type": "address"
        },
        {
          "internalType": "uint256",
          "name": "tokenId",
          "type": "uint256"
        },
        {
          "internalType": "bytes",
          "name": "_data",
          "type": "bytes"
        }
      ],
      "name": "safeTransferFrom",
      "outputs": [],
      "stateMutability": "nonpayable",
      "type": "function"
    },
    {
      "inputs": [
        {
          "internalType": "address",
          "name": "operator",
          "type": "address"
        },
        {
          "internalType": "bool",
          "name": "approved",
          "type": "bool"
        }
      ],
      "name": "setApprovalForAll",
      "outputs": [],
      "stateMutability": "nonpayable",
      "type": "function"
    },
    {
      "inputs": [],
      "name": "symbol",
      "outputs": [
        {
          "internalType": "string",
          "name": "",
          "type": "string"
        }
      ],
      "stateMutability": "view",
      "type": "function"
    },
    {
      "inputs": [
        {
          "internalType": "uint256",
          "name": "index",
          "type": "uint256"
        }
      ],
      "name": "tokenByIndex",
      "outputs": [
        {
          "internalType": "uint256",
          "name": "",
          "type": "uint256"
        }
      ],
      "stateMutability": "view",
      "type": "function"
    },
    {
      "inputs": [
        {
          "internalType": "address",
          "name": "owner",
          "type": "address"
        },
        {
          "internalType": "uint256",
          "name": "index",
          "type": "uint256"
        }
      ],
      "name": "tokenOfOwnerByIndex",
      "outputs": [
        {
          "internalType": "uint256",
          "name": "",
          "type": "uint256"
        }
      ],
      "stateMutability": "view",
      "type": "function"
    },
    {
      "inputs": [
        {
          "internalType": "uint256",
          "name": "tokenId",
          "type": "uint256"
        }
      ],
      "name": "tokenURI",
      "outputs": [
        {
          "internalType": "string",
          "name": "",
          "type": "string"
        }
      ],
      "stateMutability": "view",
      "type": "function"
    },
    {
      "inputs": [],
      "name": "totalSupply",
      "outputs": [
        {
          "internalType": "uint256",
          "name": "",
          "type": "uint256"
        }
      ],
      "stateMutability": "view",
      "type": "function"
    },
    {
      "inputs": [
        {
          "internalType": "address",
          "name": "from",
          "type": "address"
        },
        {
          "internalType": "address",
          "name": "to",
          "type": "address"
        },
        {
          "internalType": "uint256",
          "name": "tokenId",
          "type": "uint256"
        }
      ],
      "name": "transferFrom",
      "outputs": [],
      "stateMutability": "nonpayable",
      "type": "function"
    },
    {
      "inputs": [
        {
          "internalType": "address",
          "name": "to",
          "type": "address"
        }
      ],
      "name": "mint",
      "outputs": [],
      "stateMutability": "nonpayable",
      "type": "function"
    },
    {
      "inputs": [],
      "name": "pause",
      "outputs": [],
      "stateMutability": "nonpayable",
      "type": "function"
    },
    {
      "inputs": [],
      "name": "unpause",
      "outputs": [],
      "stateMutability": "nonpayable",
      "type": "function"
    },
    {
      "inputs": [
        {
          "internalType": "bytes4",
          "name": "interfaceId",
          "type": "bytes4"
        }
      ],
      "name": "supportsInterface",
      "outputs": [
        {
          "internalType": "bool",
          "name": "",
          "type": "bool"
        }
      ],
      "stateMutability": "view",
      "type": "function"
    }
  ],
  "bytecode": "0x60806040523480156200001157600080fd5b50604051620030d0380380620030d083398101604081905262000034916200043a565b8251839083906200004d906002906020850190620002e9565b50805162000063906003906020840190620002e9565b5050600c805460ff191690555080516200008590600e906020840190620002e9565b50620000ae60006200009f64010000000062000127810204565b6401000000006200012b810204565b620000e67f9f2df0fed2c77648de5860a4cc508cd0818c85b8b8a1ab4ceeef8d981c8956a66200009f64010000000062000127810204565b6200011e7f65d7a28e3265b37a6474929f336521b332c1681b933f6cb9f3376673440d862a6200009f64010000000062000127810204565b5050506200054c565b3390565b62000145828264010000000062000ace6200017282021704565b60008281526001602052604090206200016d908264010000000062000ad86200018b82021704565b505050565b620001878282640100000000620001b4810204565b5050565b6000620001ab83600160a060020a03841664010000000062000250810204565b90505b92915050565b620001c98282640100000000620002a8810204565b6200018757600082815260208181526040808320600160a060020a03851684529091529020805460ff191660011790556200020c64010000000062000127810204565b600160a060020a031681600160a060020a0316837f2f8788117e7eff1d82e926ec794901d17c78024a50270940304540a733656f0d60405160405180910390a45050565b6000620002678383640100000000620002d1810204565b6200029f57508154600181810184556000848152602080822090930184905584548482528286019093526040902091909155620001ae565b506000620001ae565b600091825260208281526040808420600160a060020a0393909316845291905290205460ff1690565b60009081526001919091016020526040902054151590565b828054620002f790620004c7565b90600052602060002090601f0160209004810192826200031b576000855562000366565b82601f106200033657805160ff191683800117855562000366565b8280016001018555821562000366579182015b828111156200036657825182559160200191906001019062000349565b506200037492915062000378565b5090565b5b8082111562000374576000815560010162000379565b600082601f830112620003a0578081fd5b81516001604060020a0380821115620003bd57620003bd6200051d565b6040516020601f8401601f1916820181018381118382101715620003e557620003e56200051d565b6040528382528584018101871015620003fc578485fd5b8492505b838310156200041f578583018101518284018201529182019162000400565b838311156200043057848185840101525b5095945050505050565b6000806000606084860312156200044f578283fd5b83516001604060020a038082111562000466578485fd5b62000474878388016200038f565b945060208601519150808211156200048a578384fd5b62000498878388016200038f565b93506040860151915080821115620004ae578283fd5b50620004bd868287016200038f565b9150509250925092565b600281046001821680620004dc57607f821691505b6020821081141562000517577f4e487b7100000000000000000000000000000000000000000000000000000000600052602260045260246000fd5b50919050565b7f4e487b7100000000000000000000000000000000000000000000000000000000600052604160045260246000fd5b612b74806200055c6000396000f3fe608060405234801561001057600080fd5b5060043610610202576000357c0100000000000000000000000000000000000000000000000000000000900480636352211e1161012c578063a22cb465116100bf578063d53913931161008e578063d5391393146103fa578063d547741f14610402578063e63ab1e914610415578063e985e9c51461041d57610202565b8063a22cb465146103ae578063b88d4fde146103c1578063c87b56dd146103d4578063ca15c873146103e757610202565b80639010d07c116100fb5780639010d07c1461037857806391d148541461038b57806395d89b411461039e578063a217fddf146103a657610202565b80636352211e146103375780636a6278421461034a57806370a082311461035d5780638456cb591461037057610202565b80632f2ff15d116101a457806342842e0e1161017357806342842e0e146102f657806342966c68146103095780634f6ccce71461031c5780635c975abb1461032f57610202565b80632f2ff15d146102b55780632f745c59146102c857806336568abe146102db5780633f4ba83a146102ee57610202565b8063095ea7b3116101e0578063095ea7b31461026557806318160ddd1461027a57806323b872dd1461028f578063248a9ca3146102a257610202565b806301ffc9a71461020757806306fdde0314610230578063081812fc14610245575b600080fd5b61021a610215366004611fea565b610430565b6040516102279190612176565b60405180910390f35b610238610443565b604051610227919061218a565b610258610253366004611f8f565b6104d5565b6040516102279190612126565b610278610273366004611f66565b610524565b005b6102826105c2565b6040516102279190612181565b61027861029d366004611e25565b6105c8565b6102826102b0366004611f8f565b610603565b6102786102c3366004611fa7565b610618565b6102826102d6366004611f66565b61063a565b6102786102e9366004611fa7565b610692565b6102786106b4565b610278610304366004611e25565b610709565b610278610317366004611f8f565b610724565b61028261032a366004611f8f565b61075a565b61021a6107bb565b610258610345366004611f8f565b6107c4565b610278610358366004611dd9565b6107fc565b61028261036b366004611dd9565b610864565b6102786108ab565b610258610386366004611fc9565b6108fe565b61021a610399366004611fa7565b61091d565b610238610946565b610282610955565b6102786103bc366004611f2c565b61095a565b6102786103cf366004611e60565b610970565b6102386103e2366004611f8f565b6109b2565b6102826103f5366004611f8f565b610a37565b610282610a4e565b610278610410366004611fa7565b610a72565b610282610a7c565b61021a61042b366004611df3565b610aa0565b600061043b82610aed565b90505b919050565b60606002805461045290612a70565b80601f016020809104026020016040519081016040528092919081815260200182805461047e90612a70565b80156104cb5780601f106104a0576101008083540402835291602001916104cb565b820191906000526020600020905b8154815290600101906020018083116104ae57829003601f168201915b5050505050905090565b60006104e082610b2b565b6105085760405160e560020a62461bcd0281526004016104ff90612685565b60405180910390fd5b50600090815260066020526040902054600160a060020a031690565b600061052f826107c4565b905080600160a060020a031683600160a060020a031614156105665760405160e560020a62461bcd0281526004016104ff9061273f565b80600160a060020a0316610578610b48565b600160a060020a0316148061059457506105948161042b610b48565b6105b35760405160e560020a62461bcd0281526004016104ff90612539565b6105bd8383610b4c565b505050565b600a5490565b6105d96105d3610b48565b82610bc7565b6105f85760405160e560020a62461bcd0281526004016104ff9061279c565b6105bd838383610c4f565b60009081526020819052604090206001015490565b6106228282610d95565b60008281526001602052604090206105bd9082610ad8565b600061064583610864565b82106106665760405160e560020a62461bcd0281526004016104ff90612266565b50600160a060020a03821660009081526008602090815260408083208484529091529020545b92915050565b61069c8282610db9565b60008281526001602052604090206105bd9082610dfe565b6106e07f65d7a28e3265b37a6474929f336521b332c1681b933f6cb9f3376673440d862a610399610b48565b6106ff5760405160e560020a62461bcd0281526004016104ff90612910565b610707610e13565b565b6105bd83838360405180602001604052806000815250610970565b61072f6105d3610b48565b61074e5760405160e560020a62461bcd0281526004016104ff906128b3565b61075781610e84565b50565b60006107646105c2565b82106107855760405160e560020a62461bcd0281526004016104ff906127f9565b600a82815481106107a95760e060020a634e487b7102600052603260045260246000fd5b90600052602060002001549050919050565b600c5460ff1690565b600081815260046020526040812054600160a060020a03168061043b5760405160e560020a62461bcd0281526004016104ff906125f3565b6108287f9f2df0fed2c77648de5860a4cc508cd0818c85b8b8a1ab4ceeef8d981c8956a6610399610b48565b6108475760405160e560020a62461bcd0281526004016104ff90612856565b61085a81610855600d610f40565b610f44565b610757600d61103e565b6000600160a060020a03821661088f5760405160e560020a62461bcd0281526004016104ff90612596565b50600160a060020a031660009081526005602052604090205490565b6108d77f65d7a28e3265b37a6474929f336521b332c1681b933f6cb9f3376673440d862a610399610b48565b6108f65760405160e560020a62461bcd0281526004016104ff906123b4565b610707611047565b600082815260016020526040812061091690836110a5565b9392505050565b600091825260208281526040808420600160a060020a0393909316845291905290205460ff1690565b60606003805461045290612a70565b600081565b61096c610965610b48565b83836110b1565b5050565b61098161097b610b48565b83610bc7565b6109a05760405160e560020a62461bcd0281526004016104ff9061279c565b6109ac84848484611157565b50505050565b60606109bd82610b2b565b6109dc5760405160e560020a62461bcd0281526004016104ff906126e2565b60006109e661118d565b90506000815111610a065760405180602001604052806000815250610916565b80610a108461119c565b604051602001610a2192919061204e565b6040516020818303038152906040529392505050565b600081815260016020526040812061043b906112f8565b7f9f2df0fed2c77648de5860a4cc508cd0818c85b8b8a1ab4ceeef8d981c8956a681565b61069c8282611303565b7f65d7a28e3265b37a6474929f336521b332c1681b933f6cb9f3376673440d862a81565b600160a060020a03918216600090815260076020908152604080832093909416825291909152205460ff1690565b61096c8282611322565b600061091683600160a060020a0384166113a7565b6000600160e060020a031982167f780e9d6300000000000000000000000000000000000000000000000000000000148061043b575061043b826113f1565b600090815260046020526040902054600160a060020a0316151590565b3390565b6000818152600660205260409020805473ffffffffffffffffffffffffffffffffffffffff1916600160a060020a0384169081179091558190610b8e826107c4565b600160a060020a03167f8c5be1e5ebec7d5bd14f71427d1e84f3dd0314c0f7b2291e5b200ac8c7c3b92560405160405180910390a45050565b6000610bd282610b2b565b610bf15760405160e560020a62461bcd0281526004016104ff906124a5565b6000610bfc836107c4565b905080600160a060020a031684600160a060020a03161480610c37575083600160a060020a0316610c2c846104d5565b600160a060020a0316145b80610c475750610c478185610aa0565b949350505050565b82600160a060020a0316610c62826107c4565b600160a060020a031614610c8b5760405160e560020a62461bcd0281526004016104ff90612320565b600160a060020a038216610cb45760405160e560020a62461bcd0281526004016104ff90612411565b610cbf838383611463565b610cca600082610b4c565b600160a060020a0383166000908152600560205260408120805460019290610cf3908490612a16565b9091555050600160a060020a0382166000908152600560205260408120805460019290610d219084906129cb565b9091555050600081815260046020526040808220805473ffffffffffffffffffffffffffffffffffffffff1916600160a060020a0386811691821790925591518493918716917fddf252ad1be2c89b69c2b068fc378daa952ba7f163c4a11628f55a4df523b3ef91a46105bd8383836105bd565b610d9e82610603565b610daf81610daa610b48565b61146e565b6105bd8383611322565b610dc1610b48565b600160a060020a031681600160a060020a031614610df45760405160e560020a62461bcd0281526004016104ff9061296e565b61096c82826114d5565b600061091683600160a060020a038416611558565b610e1b6107bb565b610e3a5760405160e560020a62461bcd0281526004016104ff9061222f565b600c805460ff191690557f5db9ee0a495bf2e6ff9c91a7834c1ba4fdd244a5e8aa4e537bd38aeae4b073aa610e6d610b48565b604051610e7a9190612126565b60405180910390a1565b6000610e8f826107c4565b9050610e9d81600084611463565b610ea8600083610b4c565b600160a060020a0381166000908152600560205260408120805460019290610ed1908490612a16565b9091555050600082815260046020526040808220805473ffffffffffffffffffffffffffffffffffffffff1916905551839190600160a060020a038416907fddf252ad1be2c89b69c2b068fc378daa952ba7f163c4a11628f55a4df523b3ef908390a461096c816000846105bd565b5490565b600160a060020a038216610f6d5760405160e560020a62461bcd0281526004016104ff90612650565b610f7681610b2b565b15610f965760405160e560020a62461bcd0281526004016104ff9061237d565b610fa260008383611463565b600160a060020a0382166000908152600560205260408120805460019290610fcb9084906129cb565b9091555050600081815260046020526040808220805473ffffffffffffffffffffffffffffffffffffffff1916600160a060020a03861690811790915590518392907fddf252ad1be2c89b69c2b068fc378daa952ba7f163c4a11628f55a4df523b3ef908290a461096c600083836105bd565b80546001019055565b61104f6107bb565b1561106f5760405160e560020a62461bcd0281526004016104ff90612502565b600c805460ff191660011790557f62e78cea01bee320cd4e420270b5ea74000d11b0c9f74754ebdbfc544b05a258610e6d610b48565b6000610916838361167e565b81600160a060020a031683600160a060020a031614156110e65760405160e560020a62461bcd0281526004016104ff9061246e565b600160a060020a0383811660008181526007602090815260408083209487168084529490915290819020805460ff1916851515179055517f17307eab39ab6107e8899845ad3d59bd9653f200f220920489ca2b5937696c319061114a908590612176565b60405180910390a3505050565b611162848484610c4f565b61116e848484846116b9565b6109ac5760405160e560020a62461bcd0281526004016104ff906122c3565b6060600e805461045290612a70565b6060816111dd575060408051808201909152600181527f3000000000000000000000000000000000000000000000000000000000000000602082015261043e565b8160005b811561120757806111f181612aae565b91506112009050600a836129e3565b91506111e1565b60008167ffffffffffffffff8111156112335760e060020a634e487b7102600052604160045260246000fd5b6040519080825280601f01601f19166020018201604052801561125d576020820181803683370190505b5090505b8415610c4757611272600183612a16565b915061127f600a86612ac9565b61128a9060306129cb565b7f0100000000000000000000000000000000000000000000000000000000000000028183815181106112cf5760e060020a634e487b7102600052603260045260246000fd5b6020010190600160f860020a031916908160001a9053506112f1600a866129e3565b9450611261565b600061043b82610f40565b61130c82610603565b61131881610daa610b48565b6105bd83836114d5565b61132c828261091d565b61096c57600082815260208181526040808320600160a060020a03851684529091529020805460ff19166001179055611363610b48565b600160a060020a031681600160a060020a0316837f2f8788117e7eff1d82e926ec794901d17c78024a50270940304540a733656f0d60405160405180910390a45050565b60006113b3838361180c565b6113e95750815460018181018455600084815260208082209093018490558454848252828601909352604090209190915561068c565b50600061068c565b6000600160e060020a031982167f80ac58cd0000000000000000000000000000000000000000000000000000000014806114545750600160e060020a031982167f5b5e139f00000000000000000000000000000000000000000000000000000000145b8061043b575061043b82611824565b6105bd838383611862565b611478828261091d565b61096c5761149081600160a060020a03166014611895565b61149b836020611895565b6040516020016114ac9291906120a5565b60408051601f198184030181529082905260e560020a62461bcd0282526104ff9160040161218a565b6114df828261091d565b1561096c57600082815260208181526040808320600160a060020a03851684529091529020805460ff19169055611514610b48565b600160a060020a031681600160a060020a0316837ff6391f5c32d9c69d2a47ea670b442974b53935d1edc7fd64eb21e047a839171b60405160405180910390a45050565b6000818152600183016020526040812054801561167457600061157c600183612a16565b855490915060009061159090600190612a16565b90508181146116175760008660000182815481106115c15760e060020a634e487b7102600052603260045260246000fd5b90600052602060002001549050808760000184815481106115f55760e060020a634e487b7102600052603260045260246000fd5b6000918252602080832090910192909255918252600188019052604090208390555b85548690806116395760e060020a634e487b7102600052603160045260246000fd5b60019003818190600052602060002001600090559055856001016000868152602001908152602001600020600090556001935050505061068c565b600091505061068c565b60008260000182815481106116a65760e060020a634e487b7102600052603260045260246000fd5b9060005260206000200154905092915050565b60006116cd84600160a060020a0316611abc565b156118015783600160a060020a031663150b7a026116e9610b48565b8786866040518563ffffffff167c0100000000000000000000000000000000000000000000000000000000028152600401611727949392919061213a565b602060405180830381600087803b15801561174157600080fd5b505af1925050508015611771575060408051601f3d908101601f1916820190925261176e91810190612006565b60015b6117ce573d80801561179f576040519150601f19603f3d011682016040523d82523d6000602084013e6117a4565b606091505b5080516117c65760405160e560020a62461bcd0281526004016104ff906122c3565b805181602001fd5b600160e060020a0319167f150b7a0200000000000000000000000000000000000000000000000000000000149050610c47565b506001949350505050565b60009081526001919091016020526040902054151590565b6000600160e060020a031982167f5a05180f00000000000000000000000000000000000000000000000000000000148061043b575061043b82611ac2565b61186d838383611b00565b6118756107bb565b156105bd5760405160e560020a62461bcd0281526004016104ff906121d2565b606060006118a48360026129f7565b6118af9060026129cb565b67ffffffffffffffff8111156118d85760e060020a634e487b7102600052604160045260246000fd5b6040519080825280601f01601f191660200182016040528015611902576020820181803683370190505b5090507f30000000000000000000000000000000000000000000000000000000000000008160008151811061194a5760e060020a634e487b7102600052603260045260246000fd5b6020010190600160f860020a031916908160001a9053507f7800000000000000000000000000000000000000000000000000000000000000816001815181106119a65760e060020a634e487b7102600052603260045260246000fd5b6020010190600160f860020a031916908160001a90535060006119ca8460026129f7565b6119d59060016129cb565b90505b6001811115611a9a577f303132333435363738396162636465660000000000000000000000000000000085600f1660108110611a275760e060020a634e487b7102600052603260045260246000fd5b1a7f010000000000000000000000000000000000000000000000000000000000000002828281518110611a6d5760e060020a634e487b7102600052603260045260246000fd5b6020010190600160f860020a031916908160001a905350601090940493611a9381612a59565b90506119d8565b5083156109165760405160e560020a62461bcd0281526004016104ff9061219d565b3b151590565b6000600160e060020a031982167f7965db0b00000000000000000000000000000000000000000000000000000000148061043b575061043b82611b89565b611b0b8383836105bd565b600160a060020a038316611b2757611b2281611bbb565b611b4a565b81600160a060020a031683600160a060020a031614611b4a57611b4a8382611bff565b600160a060020a038216611b6657611b6181611c9c565b6105bd565b82600160a060020a031682600160a060020a0316146105bd576105bd8282611d7e565b600160e060020a031981167f01ffc9a70000000000000000000000000000000000000000000000000000000014919050565b600a80546000838152600b60205260408120829055600182018355919091527fc65a7bb8d6351c1cf70c95a316cc6a92839c986682d98bc35f958f4883f9d2a80155565b60006001611c0c84610864565b611c169190612a16565b600083815260096020526040902054909150808214611c6957600160a060020a03841660009081526008602090815260408083208584528252808320548484528184208190558352600990915290208190555b506000918252600960209081526040808420849055600160a060020a039094168352600881528383209183525290812055565b600a54600090611cae90600190612a16565b6000838152600b6020526040812054600a8054939450909284908110611ce75760e060020a634e487b7102600052603260045260246000fd5b9060005260206000200154905080600a8381548110611d195760e060020a634e487b7102600052603260045260246000fd5b6000918252602080832090910192909255828152600b9091526040808220849055858252812055600a805480611d625760e060020a634e487b7102600052603160045260246000fd5b6001900381819060005260206000200160009055905550505050565b6000611d8983610864565b600160a060020a039093166000908152600860209081526040808320868452825280832085905593825260099052919091209190915550565b8035600160a060020a038116811461043e57600080fd5b600060208284031215611dea578081fd5b61091682611dc2565b60008060408385031215611e05578081fd5b611e0e83611dc2565b9150611e1c60208401611dc2565b90509250929050565b600080600060608486031215611e39578081fd5b611e4284611dc2565b9250611e5060208501611dc2565b9150604084013590509250925092565b60008060008060808587031215611e75578081fd5b611e7e85611dc2565b93506020611e8d818701611dc2565b935060408601359250606086013567ffffffffffffffff80821115611eb0578384fd5b818801915088601f830112611ec3578384fd5b813581811115611ed557611ed5612b0f565b604051601f8201601f1916810185018381118282101715611ef857611ef8612b0f565b60405281815283820185018b1015611f0e578586fd5b81858501868301379081019093019390935250939692955090935050565b60008060408385031215611f3e578182fd5b611f4783611dc2565b915060208301358015158114611f5b578182fd5b809150509250929050565b60008060408385031215611f78578182fd5b611f8183611dc2565b946020939093013593505050565b600060208284031215611fa0578081fd5b5035919050565b60008060408385031215611fb9578182fd5b82359150611e1c60208401611dc2565b60008060408385031215611fdb578182fd5b50508035926020909101359150565b600060208284031215611ffb578081fd5b813561091681612b28565b600060208284031215612017578081fd5b815161091681612b28565b6000815180845261203a816020860160208601612a2d565b601f01601f19169290920160200192915050565b60008351612060818460208801612a2d565b835190830190612074818360208801612a2d565b7f2e6a736f6e0000000000000000000000000000000000000000000000000000009101908152600501949350505050565b60007f416363657373436f6e74726f6c3a206163636f756e7420000000000000000000825283516120dd816017850160208801612a2d565b7f206973206d697373696e6720726f6c6520000000000000000000000000000000601791840191820152835161211a816028840160208801612a2d565b01602801949350505050565b600160a060020a0391909116815260200190565b6000600160a060020a0380871683528086166020840152508360408301526080606083015261216c6080830184612022565b9695505050505050565b901515815260200190565b90815260200190565b6000602082526109166020830184612022565b6020808252818101527f537472696e67733a20686578206c656e67746820696e73756666696369656e74604082015260600190565b6020808252602b908201527f4552433732315061757361626c653a20746f6b656e207472616e73666572207760408201527f68696c6520706175736564000000000000000000000000000000000000000000606082015260800190565b60208082526014908201527f5061757361626c653a206e6f7420706175736564000000000000000000000000604082015260600190565b6020808252602b908201527f455243373231456e756d657261626c653a206f776e657220696e646578206f7560408201527f74206f6620626f756e6473000000000000000000000000000000000000000000606082015260800190565b60208082526032908201527f4552433732313a207472616e7366657220746f206e6f6e20455243373231526560408201527f63656976657220696d706c656d656e7465720000000000000000000000000000606082015260800190565b60208082526025908201527f4552433732313a207472616e736665722066726f6d20696e636f72726563742060408201527f6f776e6572000000000000000000000000000000000000000000000000000000606082015260800190565b6020808252601c908201527f4552433732313a20746f6b656e20616c7265616479206d696e74656400000000604082015260600190565b6020808252603e908201527f4552433732315072657365744d696e7465725061757365724175746f49643a2060408201527f6d75737420686176652070617573657220726f6c6520746f2070617573650000606082015260800190565b60208082526024908201527f4552433732313a207472616e7366657220746f20746865207a65726f2061646460408201527f7265737300000000000000000000000000000000000000000000000000000000606082015260800190565b60208082526019908201527f4552433732313a20617070726f766520746f2063616c6c657200000000000000604082015260600190565b6020808252602c908201527f4552433732313a206f70657261746f7220717565727920666f72206e6f6e657860408201527f697374656e7420746f6b656e0000000000000000000000000000000000000000606082015260800190565b60208082526010908201527f5061757361626c653a2070617573656400000000000000000000000000000000604082015260600190565b60208082526038908201527f4552433732313a20617070726f76652063616c6c6572206973206e6f74206f7760408201527f6e6572206e6f7220617070726f76656420666f7220616c6c0000000000000000606082015260800190565b6020808252602a908201527f4552433732313a2062616c616e636520717565727920666f7220746865207a6560408201527f726f206164647265737300000000000000000000000000000000000000000000606082015260800190565b60208082526029908201527f4552433732313a206f776e657220717565727920666f72206e6f6e657869737460408201527f656e7420746f6b656e0000000000000000000000000000000000000000000000606082015260800190565b6020808252818101527f4552433732313a206d696e7420746f20746865207a65726f2061646472657373604082015260600190565b6020808252602c908201527f4552433732313a20617070726f76656420717565727920666f72206e6f6e657860408201527f697374656e7420746f6b656e0000000000000000000000000000000000000000606082015260800190565b6020808252602f908201527f4552433732314d657461646174613a2055524920717565727920666f72206e6f60408201527f6e6578697374656e7420746f6b656e0000000000000000000000000000000000606082015260800190565b60208082526021908201527f4552433732313a20617070726f76616c20746f2063757272656e74206f776e6560408201527f7200000000000000000000000000000000000000000000000000000000000000606082015260800190565b60208082526031908201527f4552433732313a207472616e736665722063616c6c6572206973206e6f74206f60408201527f776e6572206e6f7220617070726f766564000000000000000000000000000000606082015260800190565b6020808252602c908201527f455243373231456e756d657261626c653a20676c6f62616c20696e646578206f60408201527f7574206f6620626f756e64730000000000000000000000000000000000000000606082015260800190565b6020808252603d908201527f4552433732315072657365744d696e7465725061757365724175746f49643a2060408201527f6d7573742068617665206d696e74657220726f6c6520746f206d696e74000000606082015260800190565b60208082526030908201527f4552433732314275726e61626c653a2063616c6c6572206973206e6f74206f7760408201527f6e6572206e6f7220617070726f76656400000000000000000000000000000000606082015260800190565b602080825260409082018190527f4552433732315072657365744d696e7465725061757365724175746f49643a20908201527f6d75737420686176652070617573657220726f6c6520746f20756e7061757365606082015260800190565b6020808252602f908201527f416363657373436f6e74726f6c3a2063616e206f6e6c792072656e6f756e636560408201527f20726f6c657320666f722073656c660000000000000000000000000000000000606082015260800190565b600082198211156129de576129de612add565b500190565b6000826129f2576129f2612af6565b500490565b6000816000190483118215151615612a1157612a11612add565b500290565b600082821015612a2857612a28612add565b500390565b60005b83811015612a48578181015183820152602001612a30565b838111156109ac5750506000910152565b600081612a6857612a68612add565b506000190190565b600281046001821680612a8457607f821691505b60208210811415612aa85760e060020a634e487b7102600052602260045260246000fd5b50919050565b6000600019821415612ac257612ac2612add565b5060010190565b600082612ad857612ad8612af6565b500690565b60e060020a634e487b7102600052601160045260246000fd5b60e060020a634e487b7102600052601260045260246000fd5b60e060020a634e487b7102600052604160045260246000fd5b600160e060020a03198116811461075757600080fdfea26469706673582212208b996352e2a6f0a13654d5a074eb7b129d88ce366b5b2e5c243a6f184c20f9ef64736f6c63430008000033",
  "immutableReferences": {},
  "source": "pragma solidity ^0.8.0;\n\nimport \"../ERC721.sol\";\nimport \"../extensions/ERC721Enumerable.sol\";\nimport \"../extensions/ERC721Burnable.sol\";\nimport \"../extensions/ERC721Pausable.sol\";\nimport \"../../../access/AccessControlEnumerable.sol\";\nimport \"../../../utils/Context.sol\";\nimport \"../../../utils/Counters.sol\";\n\n/**\n * @dev {ERC721} token, including:\n *\n *  - ability for holders to burn (destroy) their tokens\n *  - a minter role that allows for token minting (creation)\n *  - a pauser role that allows to stop all token transfers\n *  - token ID and URI autogeneration\n *\n * This contract uses {AccessControl} to lock permissioned functions using the\n * different roles - head to its documentation for details.\n *\n * The account that deploys the contract will be granted the minter and pauser\n * roles, as well as the default admin role, which will let it grant both minter\n * and pauser roles to other accounts.\n *\n * _Deprecated in favor of https://wizard.openzeppelin.com/[Contracts Wizard]._\n */\ncontract ERC721PresetMinterPauserAutoId is\nContext,\nAccessControlEnumerable,\nERC721Enumerable,\nERC721Burnable,\nERC721Pausable\n{\n    using Counters for Counters.Counter;\n\n    bytes32 public constant MINTER_ROLE = keccak256(\"MINTER_ROLE\");\n    bytes32 public constant PAUSER_ROLE = keccak256(\"PAUSER_ROLE\");\n\n    Counters.Counter private _tokenIdTracker;\n\n    string private _baseTokenURI;\n\n    /**\n     * @dev Grants `DEFAULT_ADMIN_ROLE`, `MINTER_ROLE` and `PAUSER_ROLE` to the\n     * account that deploys the contract.\n     *\n     * Token URIs will be autogenerated based on `baseURI` and their token IDs.\n     * See {ERC721-tokenURI}.\n     */\n    constructor(\n        string memory name,\n        string memory symbol,\n        string memory baseTokenURI\n    ) ERC721(name, symbol) {\n        _baseTokenURI = baseTokenURI;\n\n        _setupRole(DEFAULT_ADMIN_ROLE, _msgSender());\n\n        _setupRole(MINTER_ROLE, _msgSender());\n        _setupRole(PAUSER_ROLE, _msgSender());\n    }\n\n    function _baseURI() internal view virtual override returns (string memory) {\n        return _baseTokenURI;\n    }\n\n    /**\n     * @dev Creates a new token for `to`. Its token ID will be automatically\n     * assigned (and available on the emitted {IERC721-Transfer} event), and the token\n     * URI autogenerated based on the base URI passed at construction.\n     *\n     * See {ERC721-_mint}.\n     *\n     * Requirements:\n     *\n     * - the caller must have the `MINTER_ROLE`.\n     */\n    function mint(address to) public virtual {\n        require(hasRole(MINTER_ROLE, _msgSender()), \"ERC721PresetMinterPauserAutoId: must have minter role to mint\");\n\n        // We cannot just use balanceOf to create the new tokenId because tokens\n        // can be burned (destroyed), so we need a separate counter.\n        _mint(to, _tokenIdTracker.current());\n        _tokenIdTracker.increment();\n    }\n\n    /**\n     * @dev Pauses all token transfers.\n     *\n     * See {ERC721Pausable} and {Pausable-_pause}.\n     *\n     * Requirements:\n     *\n     * - the caller must have the `PAUSER_ROLE`.\n     */\n    function pause() public virtual {\n        require(hasRole(PAUSER_ROLE, _msgSender()), \"ERC721PresetMinterPauserAutoId: must have pauser role to pause\");\n        _pause();\n    }\n\n    /**\n     * @dev Unpauses all token transfers.\n     *\n     * See {ERC721Pausable} and {Pausable-_unpause}.\n     *\n     * Requirements:\n     *\n     * - the caller must have the `PAUSER_ROLE`.\n     */\n    function unpause() public virtual {\n        require(hasRole(PAUSER_ROLE, _msgSender()), \"ERC721PresetMinterPauserAutoId: must have pauser role to unpause\");\n        _unpause();\n    }\n\n    function _beforeTokenTransfer(\n        address from,\n        address to,\n        uint256 tokenId\n    ) internal virtual override(ERC721, ERC721Enumerable, ERC721Pausable) {\n        super._beforeTokenTransfer(from, to, tokenId);\n    }\n\n    /**\n     * @dev See {IERC165-supportsInterface}.\n     */\n    function supportsInterface(bytes4 interfaceId)\n    public\n    view\n    virtual\n    override(AccessControlEnumerable, ERC721, ERC721Enumerable)\n    returns (bool)\n    {\n        return super.supportsInterface(interfaceId);\n    }\n}\n",
  "sourcePath": "/Volumes/Transcend/Projects/DappsLab/Lottery-Smart-Contract/contracts/token/ERC721/presets/ERC721PresetMinterPauserAutoId.sol",
  "compiler": {
    "name": "solc",
    "version": "0.8.0+commit.c7dfd78e.Emscripten.clang"
  },
  "schemaVersion": "3.4.4",
  "updatedAt": "2022-02-09T10:52:23.192Z",
  "devdoc": {
    "details": "{ERC721} token, including:  - ability for holders to burn (destroy) their tokens  - a minter role that allows for token minting (creation)  - a pauser role that allows to stop all token transfers  - token ID and URI autogeneration This contract uses {AccessControl} to lock permissioned functions using the different roles - head to its documentation for details. The account that deploys the contract will be granted the minter and pauser roles, as well as the default admin role, which will let it grant both minter and pauser roles to other accounts. _Deprecated in favor of https://wizard.openzeppelin.com/[Contracts Wizard]._",
    "kind": "dev",
    "methods": {
      "approve(address,uint256)": {
        "details": "See {IERC721-approve}."
      },
      "balanceOf(address)": {
        "details": "See {IERC721-balanceOf}."
      },
      "burn(uint256)": {
        "details": "Burns `tokenId`. See {ERC721-_burn}. Requirements: - The caller must own `tokenId` or be an approved operator."
      },
      "constructor": {
        "details": "Grants `DEFAULT_ADMIN_ROLE`, `MINTER_ROLE` and `PAUSER_ROLE` to the account that deploys the contract. Token URIs will be autogenerated based on `baseURI` and their token IDs. See {ERC721-tokenURI}."
      },
      "getApproved(uint256)": {
        "details": "See {IERC721-getApproved}."
      },
      "getRoleAdmin(bytes32)": {
        "details": "Returns the admin role that controls `role`. See {grantRole} and {revokeRole}. To change a role's admin, use {_setRoleAdmin}."
      },
      "getRoleMember(bytes32,uint256)": {
        "details": "Returns one of the accounts that have `role`. `index` must be a value between 0 and {getRoleMemberCount}, non-inclusive. Role bearers are not sorted in any particular way, and their ordering may change at any point. WARNING: When using {getRoleMember} and {getRoleMemberCount}, make sure you perform all queries on the same block. See the following https://forum.openzeppelin.com/t/iterating-over-elements-on-enumerableset-in-openzeppelin-contracts/2296[forum post] for more information."
      },
      "getRoleMemberCount(bytes32)": {
        "details": "Returns the number of accounts that have `role`. Can be used together with {getRoleMember} to enumerate all bearers of a role."
      },
      "grantRole(bytes32,address)": {
        "details": "Overload {grantRole} to track enumerable memberships"
      },
      "hasRole(bytes32,address)": {
        "details": "Returns `true` if `account` has been granted `role`."
      },
      "isApprovedForAll(address,address)": {
        "details": "See {IERC721-isApprovedForAll}."
      },
      "mint(address)": {
        "details": "Creates a new token for `to`. Its token ID will be automatically assigned (and available on the emitted {IERC721-Transfer} event), and the token URI autogenerated based on the base URI passed at construction. See {ERC721-_mint}. Requirements: - the caller must have the `MINTER_ROLE`."
      },
      "name()": {
        "details": "See {IERC721Metadata-name}."
      },
      "ownerOf(uint256)": {
        "details": "See {IERC721-ownerOf}."
      },
      "pause()": {
        "details": "Pauses all token transfers. See {ERC721Pausable} and {Pausable-_pause}. Requirements: - the caller must have the `PAUSER_ROLE`."
      },
      "paused()": {
        "details": "Returns true if the contract is paused, and false otherwise."
      },
      "renounceRole(bytes32,address)": {
        "details": "Overload {renounceRole} to track enumerable memberships"
      },
      "revokeRole(bytes32,address)": {
        "details": "Overload {revokeRole} to track enumerable memberships"
      },
      "safeTransferFrom(address,address,uint256)": {
        "details": "See {IERC721-safeTransferFrom}."
      },
      "safeTransferFrom(address,address,uint256,bytes)": {
        "details": "See {IERC721-safeTransferFrom}."
      },
      "setApprovalForAll(address,bool)": {
        "details": "See {IERC721-setApprovalForAll}."
      },
      "supportsInterface(bytes4)": {
        "details": "See {IERC165-supportsInterface}."
      },
      "symbol()": {
        "details": "See {IERC721Metadata-symbol}."
      },
      "tokenByIndex(uint256)": {
        "details": "See {IERC721Enumerable-tokenByIndex}."
      },
      "tokenOfOwnerByIndex(address,uint256)": {
        "details": "See {IERC721Enumerable-tokenOfOwnerByIndex}."
      },
      "tokenURI(uint256)": {
        "details": "See {IERC721Metadata-tokenURI}."
      },
      "totalSupply()": {
        "details": "See {IERC721Enumerable-totalSupply}."
      },
      "transferFrom(address,address,uint256)": {
        "details": "See {IERC721-transferFrom}."
      },
      "unpause()": {
        "details": "Unpauses all token transfers. See {ERC721Pausable} and {Pausable-_unpause}. Requirements: - the caller must have the `PAUSER_ROLE`."
      }
    },
    "version": 1
  },
  "userdoc": {
    "kind": "user",
    "methods": {},
    "version": 1
  }
}