{
  "contractName": "ERC721",
  "abi": [
    {
      "inputs": [
        {
          "internalType": "string",
          "name": "name_",
          "type": "string"
        },
        {
          "internalType": "string",
          "name": "symbol_",
          "type": "string"
        }
      ],
      "stateMutability": "nonpayable",
      "type": "constructor"
    },
    {
      "anonymous": false,
      "inputs": [
        {
          "indexed": true,
          "internalType": "address",
          "name": "owner",
          "type": "address"
        },
        {
          "indexed": true,
          "internalType": "address",
          "name": "approved",
          "type": "address"
        },
        {
          "indexed": true,
          "internalType": "uint256",
          "name": "tokenId",
          "type": "uint256"
        }
      ],
      "name": "Approval",
      "type": "event"
    },
    {
      "anonymous": false,
      "inputs": [
        {
          "indexed": true,
          "internalType": "address",
          "name": "owner",
          "type": "address"
        },
        {
          "indexed": true,
          "internalType": "address",
          "name": "operator",
          "type": "address"
        },
        {
          "indexed": false,
          "internalType": "bool",
          "name": "approved",
          "type": "bool"
        }
      ],
      "name": "ApprovalForAll",
      "type": "event"
    },
    {
      "anonymous": false,
      "inputs": [
        {
          "indexed": true,
          "internalType": "address",
          "name": "from",
          "type": "address"
        },
        {
          "indexed": true,
          "internalType": "address",
          "name": "to",
          "type": "address"
        },
        {
          "indexed": true,
          "internalType": "uint256",
          "name": "tokenId",
          "type": "uint256"
        }
      ],
      "name": "Transfer",
      "type": "event"
    },
    {
      "inputs": [
        {
          "internalType": "uint256",
          "name": "tokenId",
          "type": "uint256"
        }
      ],
      "name": "getCreator",
      "outputs": [
        {
          "internalType": "address",
          "name": "",
          "type": "address"
        }
      ],
      "stateMutability": "view",
      "type": "function"
    },
    {
      "inputs": [],
      "name": "getToken",
      "outputs": [
        {
          "internalType": "contract ERC20",
          "name": "",
          "type": "address"
        }
      ],
      "stateMutability": "view",
      "type": "function"
    },
    {
      "inputs": [
        {
          "internalType": "address",
          "name": "tokenAddress",
          "type": "address"
        }
      ],
      "name": "setToken",
      "outputs": [],
      "stateMutability": "nonpayable",
      "type": "function"
    },
    {
      "inputs": [
        {
          "internalType": "uint256",
          "name": "tokenId",
          "type": "uint256"
        },
        {
          "internalType": "uint256",
          "name": "time",
          "type": "uint256"
        }
      ],
      "name": "startAuction",
      "outputs": [],
      "stateMutability": "nonpayable",
      "type": "function"
    },
    {
      "inputs": [
        {
          "internalType": "uint256",
          "name": "tokenId",
          "type": "uint256"
        }
      ],
      "name": "getAuctionContract",
      "outputs": [
        {
          "internalType": "address",
          "name": "",
          "type": "address"
        }
      ],
      "stateMutability": "view",
      "type": "function"
    },
    {
      "inputs": [
        {
          "internalType": "uint256",
          "name": "tokenId",
          "type": "uint256"
        },
        {
          "internalType": "address",
          "name": "auctionAddress",
          "type": "address"
        }
      ],
      "name": "setAuctionContract",
      "outputs": [],
      "stateMutability": "nonpayable",
      "type": "function"
    },
    {
      "inputs": [
        {
          "internalType": "bytes4",
          "name": "interfaceId",
          "type": "bytes4"
        }
      ],
      "name": "supportsInterface",
      "outputs": [
        {
          "internalType": "bool",
          "name": "",
          "type": "bool"
        }
      ],
      "stateMutability": "view",
      "type": "function"
    },
    {
      "inputs": [
        {
          "internalType": "address",
          "name": "owner",
          "type": "address"
        }
      ],
      "name": "balanceOf",
      "outputs": [
        {
          "internalType": "uint256",
          "name": "",
          "type": "uint256"
        }
      ],
      "stateMutability": "view",
      "type": "function"
    },
    {
      "inputs": [
        {
          "internalType": "uint256",
          "name": "tokenId",
          "type": "uint256"
        }
      ],
      "name": "ownerOf",
      "outputs": [
        {
          "internalType": "address",
          "name": "",
          "type": "address"
        }
      ],
      "stateMutability": "view",
      "type": "function"
    },
    {
      "inputs": [],
      "name": "name",
      "outputs": [
        {
          "internalType": "string",
          "name": "",
          "type": "string"
        }
      ],
      "stateMutability": "view",
      "type": "function"
    },
    {
      "inputs": [],
      "name": "symbol",
      "outputs": [
        {
          "internalType": "string",
          "name": "",
          "type": "string"
        }
      ],
      "stateMutability": "view",
      "type": "function"
    },
    {
      "inputs": [
        {
          "internalType": "uint256",
          "name": "tokenId",
          "type": "uint256"
        }
      ],
      "name": "tokenURI",
      "outputs": [
        {
          "internalType": "string",
          "name": "",
          "type": "string"
        }
      ],
      "stateMutability": "view",
      "type": "function"
    },
    {
      "inputs": [
        {
          "internalType": "address",
          "name": "to",
          "type": "address"
        },
        {
          "internalType": "uint256",
          "name": "tokenId",
          "type": "uint256"
        }
      ],
      "name": "approve",
      "outputs": [],
      "stateMutability": "nonpayable",
      "type": "function"
    },
    {
      "inputs": [
        {
          "internalType": "uint256",
          "name": "tokenId",
          "type": "uint256"
        }
      ],
      "name": "getApproved",
      "outputs": [
        {
          "internalType": "address",
          "name": "",
          "type": "address"
        }
      ],
      "stateMutability": "view",
      "type": "function"
    },
    {
      "inputs": [
        {
          "internalType": "address",
          "name": "operator",
          "type": "address"
        },
        {
          "internalType": "bool",
          "name": "approved",
          "type": "bool"
        }
      ],
      "name": "setApprovalForAll",
      "outputs": [],
      "stateMutability": "nonpayable",
      "type": "function"
    },
    {
      "inputs": [
        {
          "internalType": "address",
          "name": "owner",
          "type": "address"
        },
        {
          "internalType": "address",
          "name": "operator",
          "type": "address"
        }
      ],
      "name": "isApprovedForAll",
      "outputs": [
        {
          "internalType": "bool",
          "name": "",
          "type": "bool"
        }
      ],
      "stateMutability": "view",
      "type": "function"
    },
    {
      "inputs": [
        {
          "internalType": "address",
          "name": "from",
          "type": "address"
        },
        {
          "internalType": "address",
          "name": "to",
          "type": "address"
        },
        {
          "internalType": "uint256",
          "name": "tokenId",
          "type": "uint256"
        }
      ],
      "name": "transferFrom",
      "outputs": [],
      "stateMutability": "nonpayable",
      "type": "function"
    },
    {
      "inputs": [
        {
          "internalType": "uint256",
          "name": "tokenId",
          "type": "uint256"
        },
        {
          "internalType": "address",
          "name": "to",
          "type": "address"
        }
      ],
      "name": "_spend",
      "outputs": [
        {
          "internalType": "bool",
          "name": "",
          "type": "bool"
        }
      ],
      "stateMutability": "nonpayable",
      "type": "function"
    },
    {
      "inputs": [
        {
          "internalType": "address",
          "name": "from",
          "type": "address"
        },
        {
          "internalType": "address",
          "name": "to",
          "type": "address"
        },
        {
          "internalType": "uint256",
          "name": "tokenId",
          "type": "uint256"
        }
      ],
      "name": "safeTransferFrom",
      "outputs": [],
      "stateMutability": "nonpayable",
      "type": "function"
    },
    {
      "inputs": [
        {
          "internalType": "address",
          "name": "from",
          "type": "address"
        },
        {
          "internalType": "address",
          "name": "to",
          "type": "address"
        },
        {
          "internalType": "uint256",
          "name": "tokenId",
          "type": "uint256"
        },
        {
          "internalType": "bytes",
          "name": "_data",
          "type": "bytes"
        }
      ],
      "name": "safeTransferFrom",
      "outputs": [],
      "stateMutability": "nonpayable",
      "type": "function"
    },
    {
      "inputs": [
        {
          "internalType": "address",
          "name": "to",
          "type": "address"
        },
        {
          "internalType": "uint256",
          "name": "tokenId",
          "type": "uint256"
        },
        {
          "internalType": "uint256",
          "name": "tokenAmount",
          "type": "uint256"
        }
      ],
      "name": "_mint",
      "outputs": [],
      "stateMutability": "nonpayable",
      "type": "function"
    }
  ],
  "bytecode": "0x60806040523480156200001157600080fd5b5060405162004fde38038062004fde833981810160405281019062000037919062000193565b81600190805190602001906200004f92919062000071565b5080600290805190602001906200006892919062000071565b50505062000337565b8280546200007f90620002a3565b90600052602060002090601f016020900481019282620000a35760008555620000ef565b82601f10620000be57805160ff1916838001178555620000ef565b82800160010185558215620000ef579182015b82811115620000ee578251825591602001919060010190620000d1565b5b509050620000fe919062000102565b5090565b5b808211156200011d57600081600090555060010162000103565b5090565b60006200013862000132846200023a565b62000206565b9050828152602081018484840111156200015157600080fd5b6200015e8482856200026d565b509392505050565b600082601f8301126200017857600080fd5b81516200018a84826020860162000121565b91505092915050565b60008060408385031215620001a757600080fd5b600083015167ffffffffffffffff811115620001c257600080fd5b620001d08582860162000166565b925050602083015167ffffffffffffffff811115620001ee57600080fd5b620001fc8582860162000166565b9150509250929050565b6000604051905081810181811067ffffffffffffffff8211171562000230576200022f62000308565b5b8060405250919050565b600067ffffffffffffffff82111562000258576200025762000308565b5b601f19601f8301169050602081019050919050565b60005b838110156200028d57808201518184015260208101905062000270565b838111156200029d576000848401525b50505050565b60006002820490506001821680620002bc57607f821691505b60208210811415620002d357620002d2620002d9565b5b50919050565b7f4e487b7100000000000000000000000000000000000000000000000000000000600052602260045260246000fd5b7f4e487b7100000000000000000000000000000000000000000000000000000000600052604160045260246000fd5b614c9780620003476000396000f3fe60806040523480156200001157600080fd5b506004361062000171576000357c01000000000000000000000000000000000000000000000000000000009004806370a0823111620000e6578063b88d4fde11620000a4578063b88d4fde14620003ca578063c87b56dd14620003ea578063d48e638a1462000420578063e506dfbe1462000456578063e985e9c5146200048c578063fc9b5fc814620004c25762000171565b806370a0823114620002fc5780637776afa014620003325780639564470e146200035257806395d89b411462000388578063a22cb46514620003aa5762000171565b806321df0da7116200013457806321df0da7146200024457806323b872dd146200026657806342842e0e14620002865780634fee13fc14620002a65780636352211e14620002c65762000171565b806301ffc9a7146200017657806306fdde0314620001ac578063081812fc14620001ce578063095ea7b31462000204578063144fa6d71462000224575b600080fd5b6200019460048036038101906200018e91906200222f565b620004e2565b604051620001a3919062002a9e565b60405180910390f35b620001b6620005c8565b604051620001c5919062002ad8565b60405180910390f35b620001ec6004803603810190620001e6919062002287565b62000662565b604051620001fb919062002a00565b60405180910390f35b6200022260048036038101906200021c91906200216c565b620006ec565b005b6200024260048036038101906200023c919062001fe3565b62000815565b005b6200024e62000858565b6040516200025d919062002abb565b60405180910390f35b6200028460048036038101906200027e919062002050565b62000881565b005b620002a460048036038101906200029e919062002050565b620008ea565b005b620002c46004803603810190620002be9190620022f4565b6200090c565b005b620002e46004803603810190620002de919062002287565b62000bb9565b604051620002f3919062002a00565b60405180910390f35b6200031a600480360381019062000314919062001fe3565b62000c6e565b60405162000329919062002cfa565b60405180910390f35b6200035060048036038101906200034a9190620021ad565b62000d29565b005b6200037060048036038101906200036a9190620022b3565b6200102f565b6040516200037f919062002a9e565b60405180910390f35b6200039262001048565b604051620003a1919062002ad8565b60405180910390f35b620003c86004803603810190620003c291906200212b565b620010e2565b005b620003e86004803603810190620003e29190620020a6565b6200126e565b005b62000408600480360381019062000402919062002287565b620012d9565b60405162000417919062002ad8565b60405180910390f35b6200043e600480360381019062000438919062002287565b6200138d565b6040516200044d919062002a00565b60405180910390f35b6200047460048036038101906200046e919062002287565b620013ca565b60405162000483919062002a00565b60405180910390f35b620004aa6004803603810190620004a491906200200f565b62001407565b604051620004b9919062002a9e565b60405180910390f35b620004e06004803603810190620004da9190620022b3565b6200149b565b005b60007f80ac58cd000000000000000000000000000000000000000000000000000000007bffffffffffffffffffffffffffffffffffffffffffffffffffffffff1916827bffffffffffffffffffffffffffffffffffffffffffffffffffffffff19161480620005ae57507f5b5e139f000000000000000000000000000000000000000000000000000000007bffffffffffffffffffffffffffffffffffffffffffffffffffffffff1916827bffffffffffffffffffffffffffffffffffffffffffffffffffffffff1916145b80620005c15750620005c08262001595565b5b9050919050565b606060018054620005d99062002ffe565b80601f0160208091040260200160405190810160405280929190818152602001828054620006079062002ffe565b8015620006585780601f106200062c5761010080835404028352916020019162000658565b820191906000526020600020905b8154815290600101906020018083116200063a57829003601f168201915b5050505050905090565b60006200066f82620015ff565b620006b1576040517f08c379a0000000000000000000000000000000000000000000000000000000008152600401620006a89062002c2e565b60405180910390fd5b6006600083815260200190815260200160002060009054906101000a900473ffffffffffffffffffffffffffffffffffffffff169050919050565b6000620006f98262000bb9565b90508073ffffffffffffffffffffffffffffffffffffffff168373ffffffffffffffffffffffffffffffffffffffff1614156200076d576040517f08c379a0000000000000000000000000000000000000000000000000000000008152600401620007649062002cb6565b60405180910390fd5b8073ffffffffffffffffffffffffffffffffffffffff166200078e6200166b565b73ffffffffffffffffffffffffffffffffffffffff161480620007c25750620007c181620007bb6200166b565b62001407565b5b62000804576040517f08c379a0000000000000000000000000000000000000000000000000000000008152600401620007fb9062002ba6565b60405180910390fd5b62000810838362001673565b505050565b806000806101000a81548173ffffffffffffffffffffffffffffffffffffffff021916908373ffffffffffffffffffffffffffffffffffffffff16021790555050565b60008060009054906101000a900473ffffffffffffffffffffffffffffffffffffffff16905090565b620008966200088f6200166b565b826200172e565b620008d8576040517f08c379a0000000000000000000000000000000000000000000000000000000008152600401620008cf9062002cd8565b60405180910390fd5b620008e583838362001819565b505050565b62000907838383604051806020016040528060008152506200126e565b505050565b6003600083815260200190815260200160002060009054906101000a900473ffffffffffffffffffffffffffffffffffffffff1673ffffffffffffffffffffffffffffffffffffffff163373ffffffffffffffffffffffffffffffffffffffff1614620009b0576040517f08c379a0000000000000000000000000000000000000000000000000000000008152600401620009a79062002c50565b60405180910390fd5b81816003600085815260200190815260200160002060009054906101000a900473ffffffffffffffffffffffffffffffffffffffff1660008054906101000a900473ffffffffffffffffffffffffffffffffffffffff163060405162000a169062001ed9565b62000a2695949392919062002d44565b604051809103906000f08015801562000a43573d6000803e3d6000fd5b506008600084815260200190815260200160002060006101000a81548173ffffffffffffffffffffffffffffffffffffffff021916908373ffffffffffffffffffffffffffffffffffffffff16021790555062000ad5336008600085815260200190815260200160002060009054906101000a900473ffffffffffffffffffffffffffffffffffffffff1684620008ea565b60008054906101000a900473ffffffffffffffffffffffffffffffffffffffff1673ffffffffffffffffffffffffffffffffffffffff1663746e8e70836008600086815260200190815260200160002060009054906101000a900473ffffffffffffffffffffffffffffffffffffffff166040518363ffffffff167c010000000000000000000000000000000000000000000000000000000002815260040162000b8192919062002d17565b600060405180830381600087803b15801562000b9c57600080fd5b505af115801562000bb1573d6000803e3d6000fd5b505050505050565b6000806003600084815260200190815260200160002060009054906101000a900473ffffffffffffffffffffffffffffffffffffffff169050600073ffffffffffffffffffffffffffffffffffffffff168173ffffffffffffffffffffffffffffffffffffffff16141562000c65576040517f08c379a000000000000000000000000000000000000000000000000000000000815260040162000c5c9062002bea565b60405180910390fd5b80915050919050565b60008073ffffffffffffffffffffffffffffffffffffffff168273ffffffffffffffffffffffffffffffffffffffff16141562000ce2576040517f08c379a000000000000000000000000000000000000000000000000000000000815260040162000cd99062002bc8565b60405180910390fd5b600560008373ffffffffffffffffffffffffffffffffffffffff1673ffffffffffffffffffffffffffffffffffffffff168152602001908152602001600020549050919050565b600073ffffffffffffffffffffffffffffffffffffffff168373ffffffffffffffffffffffffffffffffffffffff16141562000d9c576040517f08c379a000000000000000000000000000000000000000000000000000000000815260040162000d939062002c0c565b60405180910390fd5b62000da782620015ff565b1562000dea576040517f08c379a000000000000000000000000000000000000000000000000000000000815260040162000de19062002b1e565b60405180910390fd5b6000811162000df857600080fd5b60008054906101000a900473ffffffffffffffffffffffffffffffffffffffff1673ffffffffffffffffffffffffffffffffffffffff16636aade28884836040518363ffffffff167c010000000000000000000000000000000000000000000000000000000002815260040162000e7192919062002a71565b602060405180830381600087803b15801562000e8c57600080fd5b505af115801562000ea1573d6000803e3d6000fd5b505050506040513d601f19601f8201168201806040525081019062000ec7919062002203565b62000ed157600080fd5b6001600560008573ffffffffffffffffffffffffffffffffffffffff1673ffffffffffffffffffffffffffffffffffffffff168152602001908152602001600020600082825462000f23919062002e4b565b92505081905550826003600084815260200190815260200160002060006101000a81548173ffffffffffffffffffffffffffffffffffffffff021916908373ffffffffffffffffffffffffffffffffffffffff160217905550826004600084815260200190815260200160002060006101000a81548173ffffffffffffffffffffffffffffffffffffffff021916908373ffffffffffffffffffffffffffffffffffffffff160217905550818373ffffffffffffffffffffffffffffffffffffffff16600073ffffffffffffffffffffffffffffffffffffffff167fddf252ad1be2c89b69c2b068fc378daa952ba7f163c4a11628f55a4df523b3ef60405160405180910390a4505050565b60006200103e338385620008ea565b6001905092915050565b606060028054620010599062002ffe565b80601f0160208091040260200160405190810160405280929190818152602001828054620010879062002ffe565b8015620010d85780601f10620010ac57610100808354040283529160200191620010d8565b820191906000526020600020905b815481529060010190602001808311620010ba57829003601f168201915b5050505050905090565b620010ec6200166b565b73ffffffffffffffffffffffffffffffffffffffff168273ffffffffffffffffffffffffffffffffffffffff1614156200115d576040517f08c379a0000000000000000000000000000000000000000000000000000000008152600401620011549062002b62565b60405180910390fd5b80600760006200116c6200166b565b73ffffffffffffffffffffffffffffffffffffffff1673ffffffffffffffffffffffffffffffffffffffff16815260200190815260200160002060008473ffffffffffffffffffffffffffffffffffffffff1673ffffffffffffffffffffffffffffffffffffffff16815260200190815260200160002060006101000a81548160ff0219169083151502179055508173ffffffffffffffffffffffffffffffffffffffff166200121b6200166b565b73ffffffffffffffffffffffffffffffffffffffff167f17307eab39ab6107e8899845ad3d59bd9653f200f220920489ca2b5937696c318360405162001262919062002a9e565b60405180910390a35050565b620012836200127c6200166b565b836200172e565b620012c5576040517f08c379a0000000000000000000000000000000000000000000000000000000008152600401620012bc9062002cd8565b60405180910390fd5b620012d38484848462001a85565b50505050565b6060620012e682620015ff565b62001328576040517f08c379a00000000000000000000000000000000000000000000000000000000081526004016200131f9062002c94565b60405180910390fd5b60006200133462001ae8565b9050600081511162001356576040518060200160405280600081525062001385565b80620013628462001aff565b60405160200162001375929190620029d8565b6040516020818303038152906040525b915050919050565b60006004600083815260200190815260200160002060009054906101000a900473ffffffffffffffffffffffffffffffffffffffff169050919050565b60006008600083815260200190815260200160002060009054906101000a900473ffffffffffffffffffffffffffffffffffffffff169050919050565b6000600760008473ffffffffffffffffffffffffffffffffffffffff1673ffffffffffffffffffffffffffffffffffffffff16815260200190815260200160002060008373ffffffffffffffffffffffffffffffffffffffff1673ffffffffffffffffffffffffffffffffffffffff16815260200190815260200160002060009054906101000a900460ff16905092915050565b6003600083815260200190815260200160002060009054906101000a900473ffffffffffffffffffffffffffffffffffffffff1673ffffffffffffffffffffffffffffffffffffffff163373ffffffffffffffffffffffffffffffffffffffff16146200153f576040517f08c379a0000000000000000000000000000000000000000000000000000000008152600401620015369062002c50565b60405180910390fd5b806008600084815260200190815260200160002060006101000a81548173ffffffffffffffffffffffffffffffffffffffff021916908373ffffffffffffffffffffffffffffffffffffffff1602179055505050565b60007f01ffc9a7000000000000000000000000000000000000000000000000000000007bffffffffffffffffffffffffffffffffffffffffffffffffffffffff1916827bffffffffffffffffffffffffffffffffffffffffffffffffffffffff1916149050919050565b60008073ffffffffffffffffffffffffffffffffffffffff166003600084815260200190815260200160002060009054906101000a900473ffffffffffffffffffffffffffffffffffffffff1673ffffffffffffffffffffffffffffffffffffffff1614159050919050565b600033905090565b816006600083815260200190815260200160002060006101000a81548173ffffffffffffffffffffffffffffffffffffffff021916908373ffffffffffffffffffffffffffffffffffffffff160217905550808273ffffffffffffffffffffffffffffffffffffffff16620016e88362000bb9565b73ffffffffffffffffffffffffffffffffffffffff167f8c5be1e5ebec7d5bd14f71427d1e84f3dd0314c0f7b2291e5b200ac8c7c3b92560405160405180910390a45050565b60006200173b82620015ff565b6200177d576040517f08c379a0000000000000000000000000000000000000000000000000000000008152600401620017749062002b84565b60405180910390fd5b60006200178a8362000bb9565b90508073ffffffffffffffffffffffffffffffffffffffff168473ffffffffffffffffffffffffffffffffffffffff161480620017fc57508373ffffffffffffffffffffffffffffffffffffffff16620017e48462000662565b73ffffffffffffffffffffffffffffffffffffffff16145b806200181057506200180f818562001407565b5b91505092915050565b8273ffffffffffffffffffffffffffffffffffffffff166200183b8262000bb9565b73ffffffffffffffffffffffffffffffffffffffff161462001894576040517f08c379a00000000000000000000000000000000000000000000000000000000081526004016200188b9062002c72565b60405180910390fd5b600073ffffffffffffffffffffffffffffffffffffffff168273ffffffffffffffffffffffffffffffffffffffff16141562001907576040517f08c379a0000000000000000000000000000000000000000000000000000000008152600401620018fe9062002b40565b60405180910390fd5b6200191483838362001ce0565b6200192160008262001673565b6001600560008573ffffffffffffffffffffffffffffffffffffffff1673ffffffffffffffffffffffffffffffffffffffff168152602001908152602001600020600082825462001973919062002ee0565b925050819055506001600560008473ffffffffffffffffffffffffffffffffffffffff1673ffffffffffffffffffffffffffffffffffffffff1681526020019081526020016000206000828254620019cc919062002e4b565b92505081905550816003600083815260200190815260200160002060006101000a81548173ffffffffffffffffffffffffffffffffffffffff021916908373ffffffffffffffffffffffffffffffffffffffff160217905550808273ffffffffffffffffffffffffffffffffffffffff168473ffffffffffffffffffffffffffffffffffffffff167fddf252ad1be2c89b69c2b068fc378daa952ba7f163c4a11628f55a4df523b3ef60405160405180910390a4505050565b62001a9284848462001819565b62001aa08484848462001ce5565b62001ae2576040517f08c379a000000000000000000000000000000000000000000000000000000000815260040162001ad99062002afc565b60405180910390fd5b50505050565b606060405180602001604052806000815250905090565b6060600082141562001b49576040518060400160405280600181526020017f3000000000000000000000000000000000000000000000000000000000000000815250905062001cdb565b600082905060005b6000821462001b8157808062001b679062003034565b915050600a8262001b79919062002ea8565b915062001b51565b60008167ffffffffffffffff81111562001bc4577f4e487b7100000000000000000000000000000000000000000000000000000000600052604160045260246000fd5b6040519080825280601f01601f19166020018201604052801562001bf75781602001600182028036833780820191505090505b5090505b6000851462001cd45760018262001c13919062002ee0565b9150600a8562001c24919062003082565b603062001c32919062002e4b565b7f01000000000000000000000000000000000000000000000000000000000000000281838151811062001c8e577f4e487b7100000000000000000000000000000000000000000000000000000000600052603260045260246000fd5b60200101907effffffffffffffffffffffffffffffffffffffffffffffffffffffffffffff1916908160001a905350600a8562001ccc919062002ea8565b945062001bfb565b8093505050505b919050565b505050565b600062001d088473ffffffffffffffffffffffffffffffffffffffff1662001ec6565b1562001eb9578373ffffffffffffffffffffffffffffffffffffffff1663150b7a0262001d346200166b565b8786866040518563ffffffff167c010000000000000000000000000000000000000000000000000000000002815260040162001d74949392919062002a1d565b602060405180830381600087803b15801562001d8f57600080fd5b505af192505050801562001dc357506040513d601f19601f8201168201806040525081019062001dc091906200225b565b60015b62001e4c573d806000811462001df6576040519150601f19603f3d011682016040523d82523d6000602084013e62001dfb565b606091505b5060008151141562001e44576040517f08c379a000000000000000000000000000000000000000000000000000000000815260040162001e3b9062002afc565b60405180910390fd5b805181602001fd5b63150b7a027c0100000000000000000000000000000000000000000000000000000000027bffffffffffffffffffffffffffffffffffffffffffffffffffffffff1916817bffffffffffffffffffffffffffffffffffffffffffffffffffffffff19161491505062001ebe565b600190505b949350505050565b600080823b905060008111915050919050565b611a7280620031f083390190565b600062001efe62001ef88462002dd5565b62002da1565b90508281526020810184848401111562001f1757600080fd5b62001f2484828562002fb9565b509392505050565b60008135905062001f3d8162003187565b92915050565b60008135905062001f5481620031a1565b92915050565b60008151905062001f6b81620031a1565b92915050565b60008135905062001f8281620031bb565b92915050565b60008151905062001f9981620031bb565b92915050565b600082601f83011262001fb157600080fd5b813562001fc384826020860162001ee7565b91505092915050565b60008135905062001fdd81620031d5565b92915050565b60006020828403121562001ff657600080fd5b6000620020068482850162001f2c565b91505092915050565b600080604083850312156200202357600080fd5b6000620020338582860162001f2c565b9250506020620020468582860162001f2c565b9150509250929050565b6000806000606084860312156200206657600080fd5b6000620020768682870162001f2c565b9350506020620020898682870162001f2c565b92505060406200209c8682870162001fcc565b9150509250925092565b60008060008060808587031215620020bd57600080fd5b6000620020cd8782880162001f2c565b9450506020620020e08782880162001f2c565b9350506040620020f38782880162001fcc565b925050606085013567ffffffffffffffff8111156200211157600080fd5b6200211f8782880162001f9f565b91505092959194509250565b600080604083850312156200213f57600080fd5b60006200214f8582860162001f2c565b9250506020620021628582860162001f43565b9150509250929050565b600080604083850312156200218057600080fd5b6000620021908582860162001f2c565b9250506020620021a38582860162001fcc565b9150509250929050565b600080600060608486031215620021c357600080fd5b6000620021d38682870162001f2c565b9350506020620021e68682870162001fcc565b9250506040620021f98682870162001fcc565b9150509250925092565b6000602082840312156200221657600080fd5b6000620022268482850162001f5a565b91505092915050565b6000602082840312156200224257600080fd5b6000620022528482850162001f71565b91505092915050565b6000602082840312156200226e57600080fd5b60006200227e8482850162001f88565b91505092915050565b6000602082840312156200229a57600080fd5b6000620022aa8482850162001fcc565b91505092915050565b60008060408385031215620022c757600080fd5b6000620022d78582860162001fcc565b9250506020620022ea8582860162001f2c565b9150509250929050565b600080604083850312156200230857600080fd5b6000620023188582860162001fcc565b92505060206200232b8582860162001fcc565b9150509250929050565b620023408162002f1b565b82525050565b620023518162002f2f565b82525050565b6000620023648262002e08565b62002370818562002e1e565b93506200238281856020860162002fc8565b6200238d8162003176565b840191505092915050565b620023a38162002f91565b82525050565b6000620023b68262002e13565b620023c2818562002e2f565b9350620023d481856020860162002fc8565b620023df8162003176565b840191505092915050565b6000620023f78262002e13565b62002403818562002e40565b93506200241581856020860162002fc8565b80840191505092915050565b60006200243060328362002e2f565b91507f4552433732313a207472616e7366657220746f206e6f6e20455243373231526560008301527f63656976657220696d706c656d656e74657200000000000000000000000000006020830152604082019050919050565b600062002498601c8362002e2f565b91507f4552433732313a20746f6b656e20616c7265616479206d696e746564000000006000830152602082019050919050565b6000620024da60248362002e2f565b91507f4552433732313a207472616e7366657220746f20746865207a65726f2061646460008301527f72657373000000000000000000000000000000000000000000000000000000006020830152604082019050919050565b60006200254260198362002e2f565b91507f4552433732313a20617070726f766520746f2063616c6c6572000000000000006000830152602082019050919050565b600062002584602c8362002e2f565b91507f4552433732313a206f70657261746f7220717565727920666f72206e6f6e657860008301527f697374656e7420746f6b656e00000000000000000000000000000000000000006020830152604082019050919050565b6000620025ec60388362002e2f565b91507f4552433732313a20617070726f76652063616c6c6572206973206e6f74206f7760008301527f6e6572206e6f7220617070726f76656420666f7220616c6c00000000000000006020830152604082019050919050565b600062002654602a8362002e2f565b91507f4552433732313a2062616c616e636520717565727920666f7220746865207a6560008301527f726f2061646472657373000000000000000000000000000000000000000000006020830152604082019050919050565b6000620026bc60298362002e2f565b91507f4552433732313a206f776e657220717565727920666f72206e6f6e657869737460008301527f656e7420746f6b656e00000000000000000000000000000000000000000000006020830152604082019050919050565b60006200272460208362002e2f565b91507f4552433732313a206d696e7420746f20746865207a65726f20616464726573736000830152602082019050919050565b600062002766602c8362002e2f565b91507f4552433732313a20617070726f76656420717565727920666f72206e6f6e657860008301527f697374656e7420746f6b656e00000000000000000000000000000000000000006020830152604082019050919050565b6000620027ce60248362002e2f565b91507f73686f756c642062652063616c6c6564206279206f6e6c7920746f6b656e206f60008301527f776e6572000000000000000000000000000000000000000000000000000000006020830152604082019050919050565b60006200283660298362002e2f565b91507f4552433732313a207472616e73666572206f6620746f6b656e2074686174206960008301527f73206e6f74206f776e00000000000000000000000000000000000000000000006020830152604082019050919050565b60006200289e602f8362002e2f565b91507f4552433732314d657461646174613a2055524920717565727920666f72206e6f60008301527f6e6578697374656e7420746f6b656e00000000000000000000000000000000006020830152604082019050919050565b60006200290660218362002e2f565b91507f4552433732313a20617070726f76616c20746f2063757272656e74206f776e6560008301527f72000000000000000000000000000000000000000000000000000000000000006020830152604082019050919050565b60006200296e60318362002e2f565b91507f4552433732313a207472616e736665722063616c6c6572206973206e6f74206f60008301527f776e6572206e6f7220617070726f7665640000000000000000000000000000006020830152604082019050919050565b620029d28162002f87565b82525050565b6000620029e68285620023ea565b9150620029f48284620023ea565b91508190509392505050565b600060208201905062002a17600083018462002335565b92915050565b600060808201905062002a34600083018762002335565b62002a43602083018662002335565b62002a526040830185620029c7565b818103606083015262002a66818462002357565b905095945050505050565b600060408201905062002a88600083018562002335565b62002a976020830184620029c7565b9392505050565b600060208201905062002ab5600083018462002346565b92915050565b600060208201905062002ad2600083018462002398565b92915050565b6000602082019050818103600083015262002af48184620023a9565b905092915050565b6000602082019050818103600083015262002b178162002421565b9050919050565b6000602082019050818103600083015262002b398162002489565b9050919050565b6000602082019050818103600083015262002b5b81620024cb565b9050919050565b6000602082019050818103600083015262002b7d8162002533565b9050919050565b6000602082019050818103600083015262002b9f8162002575565b9050919050565b6000602082019050818103600083015262002bc181620025dd565b9050919050565b6000602082019050818103600083015262002be38162002645565b9050919050565b6000602082019050818103600083015262002c0581620026ad565b9050919050565b6000602082019050818103600083015262002c278162002715565b9050919050565b6000602082019050818103600083015262002c498162002757565b9050919050565b6000602082019050818103600083015262002c6b81620027bf565b9050919050565b6000602082019050818103600083015262002c8d8162002827565b9050919050565b6000602082019050818103600083015262002caf816200288f565b9050919050565b6000602082019050818103600083015262002cd181620028f7565b9050919050565b6000602082019050818103600083015262002cf3816200295f565b9050919050565b600060208201905062002d116000830184620029c7565b92915050565b600060408201905062002d2e6000830185620029c7565b62002d3d602083018462002335565b9392505050565b600060a08201905062002d5b6000830188620029c7565b62002d6a6020830187620029c7565b62002d79604083018662002335565b62002d88606083018562002335565b62002d97608083018462002335565b9695505050505050565b6000604051905081810181811067ffffffffffffffff8211171562002dcb5762002dca62003147565b5b8060405250919050565b600067ffffffffffffffff82111562002df35762002df262003147565b5b601f19601f8301169050602081019050919050565b600081519050919050565b600081519050919050565b600082825260208201905092915050565b600082825260208201905092915050565b600081905092915050565b600062002e588262002f87565b915062002e658362002f87565b9250827fffffffffffffffffffffffffffffffffffffffffffffffffffffffffffffffff0382111562002e9d5762002e9c620030ba565b5b828201905092915050565b600062002eb58262002f87565b915062002ec28362002f87565b92508262002ed55762002ed4620030e9565b5b828204905092915050565b600062002eed8262002f87565b915062002efa8362002f87565b92508282101562002f105762002f0f620030ba565b5b828203905092915050565b600062002f288262002f67565b9050919050565b60008115159050919050565b60007fffffffff0000000000000000000000000000000000000000000000000000000082169050919050565b600073ffffffffffffffffffffffffffffffffffffffff82169050919050565b6000819050919050565b600062002f9e8262002fa5565b9050919050565b600062002fb28262002f67565b9050919050565b82818337600083830152505050565b60005b8381101562002fe857808201518184015260208101905062002fcb565b8381111562002ff8576000848401525b50505050565b600060028204905060018216806200301757607f821691505b602082108114156200302e576200302d62003118565b5b50919050565b6000620030418262002f87565b91507fffffffffffffffffffffffffffffffffffffffffffffffffffffffffffffffff821415620030775762003076620030ba565b5b600182019050919050565b60006200308f8262002f87565b91506200309c8362002f87565b925082620030af57620030ae620030e9565b5b828206905092915050565b7f4e487b7100000000000000000000000000000000000000000000000000000000600052601160045260246000fd5b7f4e487b7100000000000000000000000000000000000000000000000000000000600052601260045260246000fd5b7f4e487b7100000000000000000000000000000000000000000000000000000000600052602260045260246000fd5b7f4e487b7100000000000000000000000000000000000000000000000000000000600052604160045260246000fd5b6000601f19601f8301169050919050565b620031928162002f1b565b81146200319e57600080fd5b50565b620031ac8162002f2f565b8114620031b857600080fd5b50565b620031c68162002f3b565b8114620031d257600080fd5b50565b620031e08162002f87565b8114620031ec57600080fd5b5056fe60806040523480156200001157600080fd5b5060405162001a7238038062001a7283398181016040528101906200003791906200014d565b84600481905550826000806101000a81548173ffffffffffffffffffffffffffffffffffffffff021916908373ffffffffffffffffffffffffffffffffffffffff16021790555083426200008c9190620001cf565b60018190555081600260006101000a81548173ffffffffffffffffffffffffffffffffffffffff021916908373ffffffffffffffffffffffffffffffffffffffff16021790555080600360006101000a81548173ffffffffffffffffffffffffffffffffffffffff021916908373ffffffffffffffffffffffffffffffffffffffff1602179055505050505050620002cd565b600081519050620001308162000299565b92915050565b6000815190506200014781620002b3565b92915050565b600080600080600060a086880312156200016657600080fd5b6000620001768882890162000136565b9550506020620001898882890162000136565b94505060406200019c888289016200011f565b9350506060620001af888289016200011f565b9250506080620001c2888289016200011f565b9150509295509295909350565b6000620001dc8262000260565b9150620001e98362000260565b9250827fffffffffffffffffffffffffffffffffffffffffffffffffffffffffffffffff038211156200022157620002206200026a565b5b828201905092915050565b6000620002398262000240565b9050919050565b600073ffffffffffffffffffffffffffffffffffffffff82169050919050565b6000819050919050565b7f4e487b7100000000000000000000000000000000000000000000000000000000600052601160045260246000fd5b620002a4816200022c565b8114620002b057600080fd5b50565b620002be8162000260565b8114620002ca57600080fd5b50565b61179580620002dd6000396000f3fe608060405260043610610110576000357c010000000000000000000000000000000000000000000000000000000090048063454a2ab3116100a757806388a6360e1161007657806388a6360e146102e357806391f901571461030e578063d57bde7914610339578063f56e9c661461036457610110565b8063454a2ab3146102485780634b449cba1461026457806370bda8941461028f57806383ffda3b146102a657610110565b806321df0da7116100e357806321df0da7146101bd5780632a24f46c146101e857806338af3eed146101f25780633ccfd60b1461021d57610110565b806312fa6feb14610115578063144fa6d714610140578063150b7a02146101695780631e36d755146101a6575b600080fd5b34801561012157600080fd5b5061012a61038d565b6040516101379190611351565b60405180910390f35b34801561014c57600080fd5b5061016760048036038101906101629190611035565b6103a0565b005b34801561017557600080fd5b50610190600480360381019061018b919061105e565b6103e4565b60405161019d919061136c565b60405180910390f35b3480156101b257600080fd5b506101bb610414565b005b3480156101c957600080fd5b506101d2610504565b6040516101df9190611387565b60405180910390f35b6101f061052e565b005b3480156101fe57600080fd5b50610207610969565b60405161021491906112e4565b60405180910390f35b34801561022957600080fd5b5061023261098d565b60405161023f9190611351565b60405180910390f35b610262600480360381019061025d9190611102565b610b47565b005b34801561027057600080fd5b50610279610db5565b604051610286919061143d565b60405180910390f35b34801561029b57600080fd5b506102a4610dbb565b005b3480156102b257600080fd5b506102cd60048036038101906102c89190611035565b610eab565b6040516102da919061143d565b60405180910390f35b3480156102ef57600080fd5b506102f8610ef4565b60405161030591906113a2565b60405180910390f35b34801561031a57600080fd5b50610323610f1e565b60405161033091906112c9565b60405180910390f35b34801561034557600080fd5b5061034e610f44565b60405161035b919061143d565b60405180910390f35b34801561037057600080fd5b5061038b60048036038101906103869190611035565b610f4a565b005b600860009054906101000a900460ff1681565b80600260006101000a81548173ffffffffffffffffffffffffffffffffffffffff021916908373ffffffffffffffffffffffffffffffffffffffff16021790555050565b600063150b7a027c0100000000000000000000000000000000000000000000000000000000029050949350505050565b600360009054906101000a900473ffffffffffffffffffffffffffffffffffffffff1673ffffffffffffffffffffffffffffffffffffffff16639564470e60045460008054906101000a900473ffffffffffffffffffffffffffffffffffffffff166040518363ffffffff167c01000000000000000000000000000000000000000000000000000000000281526004016104af929190611481565b602060405180830381600087803b1580156104c957600080fd5b505af11580156104dd573d6000803e3d6000fd5b505050506040513d601f19601f8201168201806040525081019061050191906110d9565b50565b6000600260009054906101000a900473ffffffffffffffffffffffffffffffffffffffff16905090565b600154421015610573576040517f08c379a000000000000000000000000000000000000000000000000000000000815260040161056a906113fd565b60405180910390fd5b600860009054906101000a900460ff16156105c3576040517f08c379a00000000000000000000000000000000000000000000000000000000081526004016105ba9061141d565b60405180910390fd5b6001600860006101000a81548160ff0219169083151502179055507fd2aa34a4fdbbc6dff6a3e56f46e0f3ae2a31d7785ff3487aa5c95c642acea501600454600560009054906101000a900473ffffffffffffffffffffffffffffffffffffffff16600654604051610637939291906114aa565b60405180910390a1600073ffffffffffffffffffffffffffffffffffffffff16600560009054906101000a900473ffffffffffffffffffffffffffffffffffffffff1673ffffffffffffffffffffffffffffffffffffffff161461087857600360009054906101000a900473ffffffffffffffffffffffffffffffffffffffff1673ffffffffffffffffffffffffffffffffffffffff16639564470e600454600560009054906101000a900473ffffffffffffffffffffffffffffffffffffffff166040518363ffffffff167c0100000000000000000000000000000000000000000000000000000000028152600401610732929190611458565b602060405180830381600087803b15801561074c57600080fd5b505af1158015610760573d6000803e3d6000fd5b505050506040513d601f19601f8201168201806040525081019061078491906110d9565b50600260009054906101000a900473ffffffffffffffffffffffffffffffffffffffff1673ffffffffffffffffffffffffffffffffffffffff1663a9059cbb60008054906101000a900473ffffffffffffffffffffffffffffffffffffffff166006546040518363ffffffff167c01000000000000000000000000000000000000000000000000000000000281526004016108209291906112ff565b602060405180830381600087803b15801561083a57600080fd5b505af115801561084e573d6000803e3d6000fd5b505050506040513d601f19601f8201168201806040525081019061087291906110d9565b50610967565b600360009054906101000a900473ffffffffffffffffffffffffffffffffffffffff1673ffffffffffffffffffffffffffffffffffffffff16639564470e60045460008054906101000a900473ffffffffffffffffffffffffffffffffffffffff166040518363ffffffff167c0100000000000000000000000000000000000000000000000000000000028152600401610913929190611481565b602060405180830381600087803b15801561092d57600080fd5b505af1158015610941573d6000803e3d6000fd5b505050506040513d601f19601f8201168201806040525081019061096591906110d9565b505b565b60008054906101000a900473ffffffffffffffffffffffffffffffffffffffff1681565b600080600760003373ffffffffffffffffffffffffffffffffffffffff1673ffffffffffffffffffffffffffffffffffffffff1681526020019081526020016000205490506000811115610b3e576000600760003373ffffffffffffffffffffffffffffffffffffffff1673ffffffffffffffffffffffffffffffffffffffff16815260200190815260200160002081905550600260009054906101000a900473ffffffffffffffffffffffffffffffffffffffff1673ffffffffffffffffffffffffffffffffffffffff1663a9059cbb33836040518363ffffffff167c0100000000000000000000000000000000000000000000000000000000028152600401610a99929190611328565b602060405180830381600087803b158015610ab357600080fd5b505af1158015610ac7573d6000803e3d6000fd5b505050506040513d601f19601f82011682018060405250810190610aeb91906110d9565b610b3d5780600760003373ffffffffffffffffffffffffffffffffffffffff1673ffffffffffffffffffffffffffffffffffffffff168152602001908152602001600020819055506000915050610b44565b5b60019150505b90565b600154421115610b8c576040517f08c379a0000000000000000000000000000000000000000000000000000000008152600401610b83906113bd565b60405180910390fd5b6006548111610bd0576040517f08c379a0000000000000000000000000000000000000000000000000000000008152600401610bc7906113dd565b60405180910390fd5b600260009054906101000a900473ffffffffffffffffffffffffffffffffffffffff1673ffffffffffffffffffffffffffffffffffffffff166301f07a3b60045433846040518463ffffffff167c0100000000000000000000000000000000000000000000000000000000028152600401610c4d939291906114aa565b602060405180830381600087803b158015610c6757600080fd5b505af1158015610c7b573d6000803e3d6000fd5b505050506040513d601f19601f82011682018060405250810190610c9f91906110d9565b610ca857600080fd5b600060065414610d2d5760065460076000600560009054906101000a900473ffffffffffffffffffffffffffffffffffffffff1673ffffffffffffffffffffffffffffffffffffffff1673ffffffffffffffffffffffffffffffffffffffff1681526020019081526020016000206000828254610d259190611553565b925050819055505b33600560006101000a81548173ffffffffffffffffffffffffffffffffffffffff021916908373ffffffffffffffffffffffffffffffffffffffff160217905550806006819055507fda0a18da71d8ebd145966339a728fc0d8ccc07c22870d561890d823c515dda6b6004543383604051610daa939291906114aa565b60405180910390a150565b60015481565b600360009054906101000a900473ffffffffffffffffffffffffffffffffffffffff1673ffffffffffffffffffffffffffffffffffffffff16639564470e60045460008054906101000a900473ffffffffffffffffffffffffffffffffffffffff166040518363ffffffff167c0100000000000000000000000000000000000000000000000000000000028152600401610e56929190611481565b602060405180830381600087803b158015610e7057600080fd5b505af1158015610e84573d6000803e3d6000fd5b505050506040513d601f19601f82011682018060405250810190610ea891906110d9565b50565b6000600760008373ffffffffffffffffffffffffffffffffffffffff1673ffffffffffffffffffffffffffffffffffffffff168152602001908152602001600020549050919050565b6000600360009054906101000a900473ffffffffffffffffffffffffffffffffffffffff16905090565b600560009054906101000a900473ffffffffffffffffffffffffffffffffffffffff1681565b60065481565b80600360006101000a81548173ffffffffffffffffffffffffffffffffffffffff021916908373ffffffffffffffffffffffffffffffffffffffff16021790555050565b6000610fa1610f9c84611512565b6114e1565b905082815260208101848484011115610fb957600080fd5b610fc48482856116ad565b509392505050565b600081359050610fdb8161171a565b92915050565b600081519050610ff081611731565b92915050565b600082601f83011261100757600080fd5b8135611017848260208601610f8e565b91505092915050565b60008135905061102f81611748565b92915050565b60006020828403121561104757600080fd5b600061105584828501610fcc565b91505092915050565b6000806000806080858703121561107457600080fd5b600061108287828801610fcc565b945050602061109387828801610fcc565b93505060406110a487828801611020565b925050606085013567ffffffffffffffff8111156110c157600080fd5b6110cd87828801610ff6565b91505092959194509250565b6000602082840312156110eb57600080fd5b60006110f984828501610fe1565b91505092915050565b60006020828403121561111457600080fd5b600061112284828501611020565b91505092915050565b6111348161162f565b82525050565b611143816115bb565b82525050565b611152816115a9565b82525050565b611161816115cd565b82525050565b611170816115d9565b82525050565b61117f81611641565b82525050565b61118e81611665565b82525050565b60006111a1601683611542565b91507f41756374696f6e20616c726561647920656e6465642e000000000000000000006000830152602082019050919050565b60006111e1601e83611542565b91507f546865726520616c7265616479206973206120686967686572206269642e00006000830152602082019050919050565b6000611221601683611542565b91507f41756374696f6e206e6f742079657420656e6465642e000000000000000000006000830152602082019050919050565b6000611261602383611542565b91507f61756374696f6e456e642068617320616c7265616479206265656e2063616c6c60008301527f65642e00000000000000000000000000000000000000000000000000000000006020830152604082019050919050565b6112c381611625565b82525050565b60006020820190506112de6000830184611149565b92915050565b60006020820190506112f9600083018461113a565b92915050565b6000604082019050611314600083018561112b565b61132160208301846112ba565b9392505050565b600060408201905061133d6000830185611149565b61134a60208301846112ba565b9392505050565b60006020820190506113666000830184611158565b92915050565b60006020820190506113816000830184611167565b92915050565b600060208201905061139c6000830184611176565b92915050565b60006020820190506113b76000830184611185565b92915050565b600060208201905081810360008301526113d681611194565b9050919050565b600060208201905081810360008301526113f6816111d4565b9050919050565b6000602082019050818103600083015261141681611214565b9050919050565b6000602082019050818103600083015261143681611254565b9050919050565b600060208201905061145260008301846112ba565b92915050565b600060408201905061146d60008301856112ba565b61147a6020830184611149565b9392505050565b600060408201905061149660008301856112ba565b6114a3602083018461112b565b9392505050565b60006060820190506114bf60008301866112ba565b6114cc6020830185611149565b6114d960408301846112ba565b949350505050565b6000604051905081810181811067ffffffffffffffff82111715611508576115076116eb565b5b8060405250919050565b600067ffffffffffffffff82111561152d5761152c6116eb565b5b601f19601f8301169050602081019050919050565b600082825260208201905092915050565b600061155e82611625565b915061156983611625565b9250827fffffffffffffffffffffffffffffffffffffffffffffffffffffffffffffffff0382111561159e5761159d6116bc565b5b828201905092915050565b60006115b482611605565b9050919050565b60006115c682611605565b9050919050565b60008115159050919050565b60007fffffffff0000000000000000000000000000000000000000000000000000000082169050919050565b600073ffffffffffffffffffffffffffffffffffffffff82169050919050565b6000819050919050565b600061163a82611689565b9050919050565b600061164c82611653565b9050919050565b600061165e82611605565b9050919050565b600061167082611677565b9050919050565b600061168282611605565b9050919050565b60006116948261169b565b9050919050565b60006116a682611605565b9050919050565b82818337600083830152505050565b7f4e487b7100000000000000000000000000000000000000000000000000000000600052601160045260246000fd5b7f4e487b7100000000000000000000000000000000000000000000000000000000600052604160045260246000fd5b611723816115a9565b811461172e57600080fd5b50565b61173a816115cd565b811461174557600080fd5b50565b61175181611625565b811461175c57600080fd5b5056fea264697066735822122073c2317c4e0a16ccea3b6b462f77086cf05eccc53c5859243ebd42756689c42664736f6c63430008000033a2646970667358221220cb9bdb5edb20c99a99ca3982b576c47e5219f9580ecdedca2e91f4e1748783af64736f6c63430008000033",
  "immutableReferences": {},
  "source": "// SPDX-License-Identifier: MIT\n\npragma solidity ^0.8.0;\n\nimport \"./IERC721.sol\";\nimport \"./IERC721Receiver.sol\";\nimport \"./extensions/IERC721Metadata.sol\";\nimport \"../utils/Address.sol\";\nimport \"../utils/Context.sol\";\nimport \"../utils/Strings.sol\";\nimport \"../utils/introspection/ERC165.sol\";\nimport \"../ERC20/ERC20.sol\";\nimport \"../Auction.sol\";\n/**\n * @dev Implementation of https://eips.ethereum.org/EIPS/eip-721[ERC721] Non-Fungible Token Standard, including\n * the Metadata extension, but not including the Enumerable extension, which is available separately as\n * {ERC721Enumerable}.\n */\n\ncontract ERC721 is Context, ERC165, IERC721, IERC721Metadata {\n    using Address for address;\n    using Strings for uint256;\n\n    //ERC20 Token\n    ERC20 private _token; // getters and setters\n\n    // Token name\n    string private _name;\n\n    // Token symbol\n    string private _symbol;\n\n    // Mapping from token ID to owner address\n    mapping(uint256 => address) private _owners;\n\n    // Mapping from token ID to creator address\n    mapping(uint256 => address) internal _creator;\n    // Mapping owner address to token count\n    mapping(address => uint256) private _balances;\n\n    // Mapping from token ID to approved address\n    mapping(uint256 => address) private _tokenApprovals;\n\n    // Mapping from owner to operator approvals\n    mapping(address => mapping(address => bool)) private _operatorApprovals;\n\n    mapping(uint256 => address) private _auctionContracts;\n\n    // Auction public auction;\n    // Events that will be emitted on changes.\n\n    /**\n     * @dev Initializes the contract by setting a `name` and a `symbol` to the token collection.\n     */\n    constructor(string memory name_, string memory symbol_) {\n        _name = name_;\n        _symbol = symbol_;\n    }\n\n    function getCreator(uint256 tokenId) public view returns(address){\n        return _creator[tokenId];\n    }\n    /**\n     * Getter and Setter of _token (ERC20)\n     **/\n    function getToken() public view returns(ERC20){\n        return _token;\n    }\n\n    //  ERC20 private _token; // getters and setters\n    function setToken(address tokenAddress) public {\n        _token = ERC20(tokenAddress);\n    }\n\n    function startAuction(uint256 tokenId, uint time) public {\n        require(msg.sender == _owners[tokenId], 'should be called by only token owner');\n        _auctionContracts[tokenId] = address(new Auction(tokenId, time, _owners[tokenId], address(_token), address(this)));\n        safeTransferFrom(msg.sender, _auctionContracts[tokenId], tokenId);\n        _token.setAuctionsAddress(tokenId, _auctionContracts[tokenId]);\n    }\n\n    function getAuctionContract(uint256 tokenId) public view returns(address){\n        return _auctionContracts[tokenId];\n    }\n    function setAuctionContract(uint256 tokenId, address auctionAddress) public {\n        require(msg.sender == _owners[tokenId], 'should be called by only token owner');\n        _auctionContracts[tokenId] = auctionAddress;\n    }\n    /**\n     * @dev See {IERC165-supportsInterface}.\n     */\n    function supportsInterface(bytes4 interfaceId) public view virtual override(ERC165, IERC165) returns (bool) {\n        return\n        interfaceId == type(IERC721).interfaceId ||\n        interfaceId == type(IERC721Metadata).interfaceId ||\n        super.supportsInterface(interfaceId);\n    }\n\n    /**\n     * @dev See {IERC721-balanceOf}.\n     */\n    function balanceOf(address owner) public view virtual override returns (uint256) {\n        require(owner != address(0), \"ERC721: balance query for the zero address\");\n        return _balances[owner];\n    }\n\n\n    /**\n     * @dev See {IERC721-ownerOf}.\n     */\n    function ownerOf(uint256 tokenId) public view virtual override returns (address) {\n        address owner = _owners[tokenId];\n        require(owner != address(0), \"ERC721: owner query for nonexistent token\");\n        return owner;\n    }\n\n    /**\n     * @dev See {IERC721Metadata-name}.\n     */\n    function name() public view virtual override returns (string memory) {\n        return _name;\n    }\n\n    /**\n     * @dev See {IERC721Metadata-symbol}.\n     */\n    function symbol() public view virtual override returns (string memory) {\n        return _symbol;\n    }\n\n    /**\n     * @dev See {IERC721Metadata-tokenURI}.\n     */\n    function tokenURI(uint256 tokenId) public view virtual override returns (string memory) {\n        require(_exists(tokenId), \"ERC721Metadata: URI query for nonexistent token\");\n\n        string memory baseURI = _baseURI();\n        return bytes(baseURI).length > 0 ? string(abi.encodePacked(baseURI, tokenId.toString())) : \"\";\n    }\n\n    /**\n     * @dev Base URI for computing {tokenURI}. If set, the resulting URI for each\n     * token will be the concatenation of the `baseURI` and the `tokenId`. Empty\n     * by default, can be overriden in child contracts.\n     */\n    function _baseURI() internal view virtual returns (string memory) {\n        return \"\";\n    }\n\n    /**\n     * @dev See {IERC721-approve}.\n     */\n    function approve(address to, uint256 tokenId) public virtual override {\n        address owner = ERC721.ownerOf(tokenId);\n        require(to != owner, \"ERC721: approval to current owner\");\n\n        require(\n            _msgSender() == owner || isApprovedForAll(owner, _msgSender()),\n            \"ERC721: approve caller is not owner nor approved for all\"\n        );\n\n        _approve(to, tokenId);\n    }\n\n    /**\n     * @dev See {IERC721-getApproved}.\n     */\n    function getApproved(uint256 tokenId) public view virtual override returns (address) {\n        require(_exists(tokenId), \"ERC721: approved query for nonexistent token\");\n\n        return _tokenApprovals[tokenId];\n    }\n\n    /**\n     * @dev See {IERC721-setApprovalForAll}.\n     */\n    function setApprovalForAll(address operator, bool approved) public virtual override {\n        require(operator != _msgSender(), \"ERC721: approve to caller\");\n\n        _operatorApprovals[_msgSender()][operator] = approved;\n        emit ApprovalForAll(_msgSender(), operator, approved);\n    }\n\n    /**\n     * @dev See {IERC721-isApprovedForAll}.\n     */\n    function isApprovedForAll(address owner, address operator) public view virtual override returns (bool) {\n        return _operatorApprovals[owner][operator];\n    }\n\n    /**\n     * @dev See {IERC721-transferFrom}.\n     */\n    function transferFrom(\n        address from,\n        address to,\n        uint256 tokenId\n    ) public virtual override {\n        //solhint-disable-next-line max-line-length\n        require(_isApprovedOrOwner(_msgSender(), tokenId), \"ERC721: transfer caller is not owner nor approved\");\n\n        _transfer(from, to, tokenId);\n    }\n\n    /**\n     * @dev See {IERC721-safeTransferFrom}.\n     */\n\n    function _spend(uint256 tokenId, address to) public virtual returns (bool) {\n        safeTransferFrom(msg.sender, to, tokenId);\n        return true;\n    }\n\n    function safeTransferFrom(\n        address from,\n        address to,\n        uint256 tokenId\n    ) public virtual override {\n        safeTransferFrom(from, to, tokenId, \"\");\n    }\n\n    /**\n     * @dev See {IERC721-safeTransferFrom}.\n     */\n    function safeTransferFrom(\n        address from,\n        address to,\n        uint256 tokenId,\n        bytes memory _data\n    ) public virtual override {\n        require(_isApprovedOrOwner(_msgSender(), tokenId), \"ERC721: transfer caller is not owner nor approved\");\n        _safeTransfer(from, to, tokenId, _data);\n    }\n\n    /**\n     * @dev Safely transfers `tokenId` token from `from` to `to`, checking first that contract recipients\n     * are aware of the ERC721 protocol to prevent tokens from being forever locked.\n     *\n     * `_data` is additional data, it has no specified format and it is sent in call to `to`.\n     *\n     * This internal function is equivalent to {safeTransferFrom}, and can be used to e.g.\n     * implement alternative mechanisms to perform token transfer, such as signature-based.\n     *\n     * Requirements:\n     *\n     * - `from` cannot be the zero address.\n     * - `to` cannot be the zero address.\n     * - `tokenId` token must exist and be owned by `from`.\n     * - If `to` refers to a smart contract, it must implement {IERC721Receiver-onERC721Received}, which is called upon a safe transfer.\n     *\n     * Emits a {Transfer} event.\n     */\n    function _safeTransfer(\n        address from,\n        address to,\n        uint256 tokenId,\n        bytes memory _data\n    ) internal virtual {\n        _transfer(from, to, tokenId);\n        require(_checkOnERC721Received(from, to, tokenId, _data), \"ERC721: transfer to non ERC721Receiver implementer\");\n    }\n\n\n\n    /**\n     * @dev Returns whether `tokenId` exists.\n     *\n     * Tokens can be managed by their owner or approved accounts via {approve} or {setApprovalForAll}.\n     *\n     * Tokens start existing when they are minted (`_mint`),\n     * and stop existing when they are burned (`_burn`).\n     */\n    function _exists(uint256 tokenId) internal view virtual returns (bool) {\n        return _owners[tokenId] != address(0);\n    }\n\n    /**\n     * @dev Returns whether `spender` is allowed to manage `tokenId`.\n     *\n     * Requirements:\n     *\n     * - `tokenId` must exist.\n     */\n    function _isApprovedOrOwner(address spender, uint256 tokenId) internal view virtual returns (bool) {\n        require(_exists(tokenId), \"ERC721: operator query for nonexistent token\");\n        address owner = ERC721.ownerOf(tokenId);\n        return (spender == owner || getApproved(tokenId) == spender || isApprovedForAll(owner, spender));\n    }\n\n    /**\n     * @dev Safely mints `tokenId` and transfers it to `to`.\n     *\n     * Requirements:\n     *\n     * - `tokenId` must not exist.\n     * - If `to` refers to a smart contract, it must implement {IERC721Receiver-onERC721Received}, which is called upon a safe transfer.\n     *\n     * Emits a {Transfer} event.\n     */\n    function _safeMint(address to, uint256 tokenId, uint256 tokenAmount) internal virtual {\n        _safeMint(to, tokenId, tokenAmount, \"\");\n    }\n\n    /**\n     * @dev Same as {xref-ERC721-_safeMint-address-uint256-}[`_safeMint`], with an additional `data` parameter which is\n     * forwarded in {IERC721Receiver-onERC721Received} to contract recipients.\n     */\n    function _safeMint(\n        address to,\n        uint256 tokenId,\n        uint256 tokenAmount,\n        bytes memory _data\n    ) internal virtual {\n        _mint(to, tokenId, tokenAmount);\n        require(\n            _checkOnERC721Received(address(0), to, tokenId, _data),\n            \"ERC721: transfer to non ERC721Receiver implementer\"\n        );\n    }\n\n    /**\n     * @dev Mints `tokenId` and transfers it to `to`.\n     *\n     * WARNING: Usage of this method is discouraged, use {_safeMint} whenever possible\n     *\n     * Requirements:\n     *\n     * - `tokenId` must not exist.\n     * - `to` cannot be the zero address.\n     *\n     * Emits a {Transfer} event.\n     */\n    function _mint(address to, uint256 tokenId, uint256 tokenAmount) public virtual {\n        require(to != address(0), \"ERC721: mint to the zero address\");\n        require(!_exists(tokenId), \"ERC721: token already minted\");\n        require(tokenAmount > 0);\n\n        require(_token.spendFrom(to, tokenAmount));\n\n        _balances[to] += 1;\n        _owners[tokenId] = to;\n        _creator[tokenId] = to;\n        emit Transfer(address(0), to, tokenId);\n    }\n\n    /**\n     * @dev Destroys `tokenId`.\n     * The approval is cleared when the token is burned.\n     *\n     * Requirements:\n     *\n     * - `tokenId` must exist.\n     *\n     * Emits a {Transfer} event.\n     */\n    function _burn(uint256 tokenId) internal virtual {\n        address owner = ERC721.ownerOf(tokenId);\n\n        // Clear approvals\n        _approve(address(0), tokenId);\n\n        _balances[owner] -= 1;\n        delete _owners[tokenId];\n\n        emit Transfer(owner, address(0), tokenId);\n    }\n\n    /**\n     * @dev Transfers `tokenId` from `from` to `to`.\n     *  As opposed to {transferFrom}, this imposes no restrictions on msg.sender.\n     *\n     * Requirements:\n     *\n     * - `to` cannot be the zero address.\n     * - `tokenId` token must be owned by `from`.\n     *\n     * Emits a {Transfer} event.\n     */\n    function _transfer(\n        address from,\n        address to,\n        uint256 tokenId\n    ) internal virtual {\n        require(ERC721.ownerOf(tokenId) == from, \"ERC721: transfer of token that is not own\");\n        require(to != address(0), \"ERC721: transfer to the zero address\");\n\n        _beforeTokenTransfer(from, to, tokenId);\n\n        // Clear approvals from the previous owner\n        _approve(address(0), tokenId);\n\n        _balances[from] -= 1;\n        _balances[to] += 1;\n        _owners[tokenId] = to;\n\n        emit Transfer(from, to, tokenId);\n    }\n\n    /**\n     * @dev Approve `to` to operate on `tokenId`\n     *\n     * Emits a {Approval} event.\n     */\n    function _approve(address to, uint256 tokenId) internal virtual {\n        _tokenApprovals[tokenId] = to;\n        emit Approval(ERC721.ownerOf(tokenId), to, tokenId);\n    }\n\n    /**\n     * @dev Internal function to invoke {IERC721Receiver-onERC721Received} on a target address.\n     * The call is not executed if the target address is not a contract.\n     *\n     * @param from address representing the previous owner of the given token ID\n     * @param to target address that will receive the tokens\n     * @param tokenId uint256 ID of the token to be transferred\n     * @param _data bytes optional data to send along with the call\n     * @return bool whether the call correctly returned the expected magic value\n     */\n    function _checkOnERC721Received(\n        address from,\n        address to,\n        uint256 tokenId,\n        bytes memory _data\n    ) private returns (bool) {\n        if (to.isContract()) {\n            try IERC721Receiver(to).onERC721Received(_msgSender(), from, tokenId, _data) returns (bytes4 retval) {\n                return retval == IERC721Receiver(to).onERC721Received.selector;\n            } catch (bytes memory reason) {\n                if (reason.length == 0) {\n                    revert(\"ERC721: transfer to non ERC721Receiver implementer\");\n                } else {\n                    assembly {\n                        revert(add(32, reason), mload(reason))\n                    }\n                }\n            }\n        } else {\n            return true;\n        }\n    }\n\n    /**\n     * @dev Hook that is called before any token transfer. This includes minting\n     * and burning.\n     *\n     * Calling conditions:\n     *\n     * - When `from` and `to` are both non-zero, ``from``'s `tokenId` will be\n     * transferred to `to`.\n     * - When `from` is zero, `tokenId` will be minted for `to`.\n     * - When `to` is zero, ``from``'s `tokenId` will be burned.\n     * - `from` and `to` are never both zero.\n     *\n     * To learn more about hooks, head to xref:ROOT:extending-contracts.adoc#using-hooks[Using Hooks].\n     */\n    function _beforeTokenTransfer(\n        address from,\n        address to,\n        uint256 tokenId\n    ) internal virtual {}\n}",
  "sourcePath": "/Volumes/Transcend/Projects/DappsLab/Lottery-Smart-Contract/contracts/customERC20ERC721/ERC721/ERC721.sol",
  "compiler": {
    "name": "solc",
    "version": "0.8.0+commit.c7dfd78e.Emscripten.clang"
  },
  "schemaVersion": "3.4.2",
  "updatedAt": "2021-07-27T11:42:39.228Z",
  "devdoc": {
    "details": "Implementation of https://eips.ethereum.org/EIPS/eip-721[ERC721] Non-Fungible Token Standard, including the Metadata extension, but not including the Enumerable extension, which is available separately as {ERC721Enumerable}.",
    "kind": "dev",
    "methods": {
      "_mint(address,uint256,uint256)": {
        "details": "Mints `tokenId` and transfers it to `to`. WARNING: Usage of this method is discouraged, use {_safeMint} whenever possible Requirements: - `tokenId` must not exist. - `to` cannot be the zero address. Emits a {Transfer} event."
      },
      "_spend(uint256,address)": {
        "details": "See {IERC721-safeTransferFrom}."
      },
      "approve(address,uint256)": {
        "details": "See {IERC721-approve}."
      },
      "balanceOf(address)": {
        "details": "See {IERC721-balanceOf}."
      },
      "constructor": {
        "details": "Initializes the contract by setting a `name` and a `symbol` to the token collection."
      },
      "getApproved(uint256)": {
        "details": "See {IERC721-getApproved}."
      },
      "isApprovedForAll(address,address)": {
        "details": "See {IERC721-isApprovedForAll}."
      },
      "name()": {
        "details": "See {IERC721Metadata-name}."
      },
      "ownerOf(uint256)": {
        "details": "See {IERC721-ownerOf}."
      },
      "safeTransferFrom(address,address,uint256)": {
        "details": "Safely transfers `tokenId` token from `from` to `to`, checking first that contract recipients are aware of the ERC721 protocol to prevent tokens from being forever locked. Requirements: - `from` cannot be the zero address. - `to` cannot be the zero address. - `tokenId` token must exist and be owned by `from`. - If the caller is not `from`, it must be have been allowed to move this token by either {approve} or {setApprovalForAll}. - If `to` refers to a smart contract, it must implement {IERC721Receiver-onERC721Received}, which is called upon a safe transfer. Emits a {Transfer} event."
      },
      "safeTransferFrom(address,address,uint256,bytes)": {
        "details": "See {IERC721-safeTransferFrom}."
      },
      "setApprovalForAll(address,bool)": {
        "details": "See {IERC721-setApprovalForAll}."
      },
      "supportsInterface(bytes4)": {
        "details": "See {IERC165-supportsInterface}."
      },
      "symbol()": {
        "details": "See {IERC721Metadata-symbol}."
      },
      "tokenURI(uint256)": {
        "details": "See {IERC721Metadata-tokenURI}."
      },
      "transferFrom(address,address,uint256)": {
        "details": "See {IERC721-transferFrom}."
      }
    },
    "version": 1
  },
  "userdoc": {
    "kind": "user",
    "methods": {
      "getToken()": {
        "notice": "Getter and Setter of _token (ERC20)*"
      }
    },
    "version": 1
  }
}