{
  "contractName": "ERC721",
  "abi": [
    {
      "inputs": [
        {
          "internalType": "string",
          "name": "name_",
          "type": "string"
        },
        {
          "internalType": "string",
          "name": "symbol_",
          "type": "string"
        }
      ],
      "stateMutability": "nonpayable",
      "type": "constructor"
    },
    {
      "anonymous": false,
      "inputs": [
        {
          "indexed": true,
          "internalType": "address",
          "name": "owner",
          "type": "address"
        },
        {
          "indexed": true,
          "internalType": "address",
          "name": "approved",
          "type": "address"
        },
        {
          "indexed": true,
          "internalType": "uint256",
          "name": "tokenId",
          "type": "uint256"
        }
      ],
      "name": "Approval",
      "type": "event"
    },
    {
      "anonymous": false,
      "inputs": [
        {
          "indexed": true,
          "internalType": "address",
          "name": "owner",
          "type": "address"
        },
        {
          "indexed": true,
          "internalType": "address",
          "name": "operator",
          "type": "address"
        },
        {
          "indexed": false,
          "internalType": "bool",
          "name": "approved",
          "type": "bool"
        }
      ],
      "name": "ApprovalForAll",
      "type": "event"
    },
    {
      "anonymous": false,
      "inputs": [
        {
          "indexed": true,
          "internalType": "address",
          "name": "from",
          "type": "address"
        },
        {
          "indexed": true,
          "internalType": "address",
          "name": "to",
          "type": "address"
        },
        {
          "indexed": true,
          "internalType": "uint256",
          "name": "tokenId",
          "type": "uint256"
        }
      ],
      "name": "Transfer",
      "type": "event"
    },
    {
      "inputs": [
        {
          "internalType": "uint256",
          "name": "",
          "type": "uint256"
        }
      ],
      "name": "_creator",
      "outputs": [
        {
          "internalType": "address",
          "name": "",
          "type": "address"
        }
      ],
      "stateMutability": "view",
      "type": "function"
    },
    {
      "inputs": [],
      "name": "_creatorComission",
      "outputs": [
        {
          "internalType": "uint256",
          "name": "",
          "type": "uint256"
        }
      ],
      "stateMutability": "view",
      "type": "function"
    },
    {
      "inputs": [
        {
          "internalType": "uint256",
          "name": "",
          "type": "uint256"
        }
      ],
      "name": "_owners",
      "outputs": [
        {
          "internalType": "address",
          "name": "",
          "type": "address"
        }
      ],
      "stateMutability": "view",
      "type": "function"
    },
    {
      "inputs": [
        {
          "internalType": "uint256",
          "name": "",
          "type": "uint256"
        }
      ],
      "name": "_sellPrice",
      "outputs": [
        {
          "internalType": "uint256",
          "name": "",
          "type": "uint256"
        }
      ],
      "stateMutability": "view",
      "type": "function"
    },
    {
      "inputs": [
        {
          "internalType": "uint256",
          "name": "",
          "type": "uint256"
        }
      ],
      "name": "_sellingNFTs",
      "outputs": [
        {
          "internalType": "uint256",
          "name": "",
          "type": "uint256"
        }
      ],
      "stateMutability": "view",
      "type": "function"
    },
    {
      "inputs": [
        {
          "internalType": "uint256",
          "name": "",
          "type": "uint256"
        }
      ],
      "name": "_sellingNFTsIndexes",
      "outputs": [
        {
          "internalType": "uint256",
          "name": "",
          "type": "uint256"
        }
      ],
      "stateMutability": "view",
      "type": "function"
    },
    {
      "inputs": [],
      "name": "getCreatorComission",
      "outputs": [
        {
          "internalType": "uint256",
          "name": "",
          "type": "uint256"
        }
      ],
      "stateMutability": "view",
      "type": "function"
    },
    {
      "inputs": [],
      "name": "getSellingNFTs",
      "outputs": [
        {
          "internalType": "uint256[]",
          "name": "",
          "type": "uint256[]"
        }
      ],
      "stateMutability": "view",
      "type": "function"
    },
    {
      "inputs": [
        {
          "internalType": "uint256",
          "name": "tokenId",
          "type": "uint256"
        },
        {
          "internalType": "uint256",
          "name": "price",
          "type": "uint256"
        }
      ],
      "name": "startSellingNFT",
      "outputs": [
        {
          "internalType": "bool",
          "name": "",
          "type": "bool"
        }
      ],
      "stateMutability": "nonpayable",
      "type": "function"
    },
    {
      "inputs": [
        {
          "internalType": "uint256",
          "name": "tokenId",
          "type": "uint256"
        }
      ],
      "name": "cancelSellingNFT",
      "outputs": [
        {
          "internalType": "bool",
          "name": "",
          "type": "bool"
        }
      ],
      "stateMutability": "nonpayable",
      "type": "function"
    },
    {
      "inputs": [
        {
          "internalType": "uint256",
          "name": "tokenId",
          "type": "uint256"
        }
      ],
      "name": "buyNFT",
      "outputs": [
        {
          "internalType": "bool",
          "name": "",
          "type": "bool"
        }
      ],
      "stateMutability": "payable",
      "type": "function"
    },
    {
      "inputs": [
        {
          "internalType": "uint256",
          "name": "tokenId",
          "type": "uint256"
        }
      ],
      "name": "getCreator",
      "outputs": [
        {
          "internalType": "address",
          "name": "",
          "type": "address"
        }
      ],
      "stateMutability": "view",
      "type": "function"
    },
    {
      "inputs": [
        {
          "internalType": "uint256",
          "name": "tokenId",
          "type": "uint256"
        }
      ],
      "name": "getSellPrice",
      "outputs": [
        {
          "internalType": "uint256",
          "name": "",
          "type": "uint256"
        }
      ],
      "stateMutability": "view",
      "type": "function"
    },
    {
      "inputs": [],
      "name": "getToken",
      "outputs": [
        {
          "internalType": "contract ERC20",
          "name": "",
          "type": "address"
        }
      ],
      "stateMutability": "view",
      "type": "function"
    },
    {
      "inputs": [
        {
          "internalType": "address",
          "name": "tokenAddress",
          "type": "address"
        }
      ],
      "name": "setToken",
      "outputs": [],
      "stateMutability": "nonpayable",
      "type": "function"
    },
    {
      "inputs": [
        {
          "internalType": "uint256",
          "name": "tokenId",
          "type": "uint256"
        },
        {
          "internalType": "uint256",
          "name": "time",
          "type": "uint256"
        }
      ],
      "name": "startAuction",
      "outputs": [],
      "stateMutability": "nonpayable",
      "type": "function"
    },
    {
      "inputs": [
        {
          "internalType": "uint256",
          "name": "tokenId",
          "type": "uint256"
        }
      ],
      "name": "getAuctionContract",
      "outputs": [
        {
          "internalType": "contract Auction",
          "name": "",
          "type": "address"
        }
      ],
      "stateMutability": "view",
      "type": "function"
    },
    {
      "inputs": [
        {
          "internalType": "uint256",
          "name": "tokenId",
          "type": "uint256"
        }
      ],
      "name": "deleteAuctionContract",
      "outputs": [],
      "stateMutability": "nonpayable",
      "type": "function"
    },
    {
      "inputs": [
        {
          "internalType": "bytes4",
          "name": "interfaceId",
          "type": "bytes4"
        }
      ],
      "name": "supportsInterface",
      "outputs": [
        {
          "internalType": "bool",
          "name": "",
          "type": "bool"
        }
      ],
      "stateMutability": "view",
      "type": "function"
    },
    {
      "inputs": [
        {
          "internalType": "address",
          "name": "owner",
          "type": "address"
        }
      ],
      "name": "balanceOf",
      "outputs": [
        {
          "internalType": "uint256",
          "name": "",
          "type": "uint256"
        }
      ],
      "stateMutability": "view",
      "type": "function"
    },
    {
      "inputs": [
        {
          "internalType": "uint256",
          "name": "tokenId",
          "type": "uint256"
        }
      ],
      "name": "ownerOf",
      "outputs": [
        {
          "internalType": "address",
          "name": "",
          "type": "address"
        }
      ],
      "stateMutability": "view",
      "type": "function"
    },
    {
      "inputs": [],
      "name": "name",
      "outputs": [
        {
          "internalType": "string",
          "name": "",
          "type": "string"
        }
      ],
      "stateMutability": "view",
      "type": "function"
    },
    {
      "inputs": [],
      "name": "symbol",
      "outputs": [
        {
          "internalType": "string",
          "name": "",
          "type": "string"
        }
      ],
      "stateMutability": "view",
      "type": "function"
    },
    {
      "inputs": [
        {
          "internalType": "uint256",
          "name": "tokenId",
          "type": "uint256"
        }
      ],
      "name": "tokenURI",
      "outputs": [
        {
          "internalType": "string",
          "name": "",
          "type": "string"
        }
      ],
      "stateMutability": "view",
      "type": "function"
    },
    {
      "inputs": [
        {
          "internalType": "address",
          "name": "to",
          "type": "address"
        },
        {
          "internalType": "uint256",
          "name": "tokenId",
          "type": "uint256"
        }
      ],
      "name": "approve",
      "outputs": [],
      "stateMutability": "nonpayable",
      "type": "function"
    },
    {
      "inputs": [
        {
          "internalType": "uint256",
          "name": "tokenId",
          "type": "uint256"
        }
      ],
      "name": "getApproved",
      "outputs": [
        {
          "internalType": "address",
          "name": "",
          "type": "address"
        }
      ],
      "stateMutability": "view",
      "type": "function"
    },
    {
      "inputs": [
        {
          "internalType": "address",
          "name": "operator",
          "type": "address"
        },
        {
          "internalType": "bool",
          "name": "approved",
          "type": "bool"
        }
      ],
      "name": "setApprovalForAll",
      "outputs": [],
      "stateMutability": "nonpayable",
      "type": "function"
    },
    {
      "inputs": [
        {
          "internalType": "address",
          "name": "owner",
          "type": "address"
        },
        {
          "internalType": "address",
          "name": "operator",
          "type": "address"
        }
      ],
      "name": "isApprovedForAll",
      "outputs": [
        {
          "internalType": "bool",
          "name": "",
          "type": "bool"
        }
      ],
      "stateMutability": "view",
      "type": "function"
    },
    {
      "inputs": [
        {
          "internalType": "address",
          "name": "from",
          "type": "address"
        },
        {
          "internalType": "address",
          "name": "to",
          "type": "address"
        },
        {
          "internalType": "uint256",
          "name": "tokenId",
          "type": "uint256"
        }
      ],
      "name": "transferFrom",
      "outputs": [],
      "stateMutability": "nonpayable",
      "type": "function"
    },
    {
      "inputs": [
        {
          "internalType": "uint256",
          "name": "tokenId",
          "type": "uint256"
        },
        {
          "internalType": "address",
          "name": "to",
          "type": "address"
        }
      ],
      "name": "_spend",
      "outputs": [
        {
          "internalType": "bool",
          "name": "",
          "type": "bool"
        }
      ],
      "stateMutability": "nonpayable",
      "type": "function"
    },
    {
      "inputs": [
        {
          "internalType": "address",
          "name": "from",
          "type": "address"
        },
        {
          "internalType": "address",
          "name": "to",
          "type": "address"
        },
        {
          "internalType": "uint256",
          "name": "tokenId",
          "type": "uint256"
        }
      ],
      "name": "safeTransferFrom",
      "outputs": [],
      "stateMutability": "nonpayable",
      "type": "function"
    },
    {
      "inputs": [
        {
          "internalType": "address",
          "name": "from",
          "type": "address"
        },
        {
          "internalType": "address",
          "name": "to",
          "type": "address"
        },
        {
          "internalType": "uint256",
          "name": "tokenId",
          "type": "uint256"
        },
        {
          "internalType": "bytes",
          "name": "_data",
          "type": "bytes"
        }
      ],
      "name": "safeTransferFrom",
      "outputs": [],
      "stateMutability": "nonpayable",
      "type": "function"
    }
  ],
  "bytecode": "0x6080604052600a6004553480156200001657600080fd5b5060405162003fb338038062003fb38339810160408190526200003991620001d0565b81516200004e9060019060208501906200007f565b508051620000649060029060208401906200007f565b505060038054600160a060020a0319163317905550620002bc565b8280546200008d9062000237565b90600052602060002090601f016020900481019282620000b15760008555620000fc565b82601f10620000cc57805160ff1916838001178555620000fc565b82800160010185558215620000fc579182015b82811115620000fc578251825591602001919060010190620000df565b506200010a9291506200010e565b5090565b5b808211156200010a57600081556001016200010f565b600082601f83011262000136578081fd5b81516001604060020a03808211156200015357620001536200028d565b6040516020601f8401601f19168201810183811183821017156200017b576200017b6200028d565b604052838252858401810187101562000192578485fd5b8492505b83831015620001b5578583018101518284018201529182019162000196565b83831115620001c657848185840101525b5095945050505050565b60008060408385031215620001e3578182fd5b82516001604060020a0380821115620001fa578384fd5b620002088683870162000125565b935060208501519150808211156200021e578283fd5b506200022d8582860162000125565b9150509250929050565b6002810460018216806200024c57607f821691505b6020821081141562000287577f4e487b7100000000000000000000000000000000000000000000000000000000600052602260045260246000fd5b50919050565b7f4e487b7100000000000000000000000000000000000000000000000000000000600052604160045260246000fd5b613ce780620002cc6000396000f3fe608060405260043610620002165760003560e060020a9004806370a08231116200011f578063aac5643d11620000a7578063c87b56dd1162000071578063c87b56dd1462000621578063d48e638a1462000646578063e506dfbe146200066b578063e985e9c514620006905762000216565b8063aac5643d146200059a578063b88d4fde14620005b2578063ba730e5314620005d7578063c494b08214620005fc5762000216565b806395d89b4111620000e957806395d89b41146200051357806396e392d3146200052b578063992924a61462000550578063a22cb46514620005755762000216565b806370a08231146200047d5780637211a20a14620004a257806380cf4dad14620004c95780639564470e14620004ee5762000216565b806329e02e7011620001a357806351ed8288116200016d57806351ed828814620004045780636352211e146200041b5780636d3d602814620004405780636e8e78db14620004655762000216565b806329e02e70146200037057806341787197146200039557806342842e0e14620003ba5780634fee13fc14620003df5762000216565b8063144fa6d711620001e5578063144fa6d714620002da57806321df0da714620002ff57806323b872dd14620003175780632838324b146200033c5762000216565b806301ffc9a7146200021b57806306fdde031462000258578063081812fc146200027f578063095ea7b314620002b3575b600080fd5b3480156200022857600080fd5b50620002406200023a36600462001ecf565b620006b5565b6040516200024f919062002098565b60405180910390f35b3480156200026557600080fd5b506200027062000733565b6040516200024f9190620020a3565b3480156200028c57600080fd5b50620002a46200029e36600462001f0d565b620007cd565b6040516200024f919062001fe7565b348015620002c057600080fd5b50620002d8620002d236600462001e84565b62000821565b005b348015620002e757600080fd5b50620002d8620002f936600462001cdb565b620008cf565b3480156200030c57600080fd5b50620002a46200092e565b3480156200032457600080fd5b50620002d86200033636600462001d2f565b6200093d565b3480156200034957600080fd5b50620003616200035b36600462001f0d565b62000981565b6040516200024f91906200276f565b3480156200037d57600080fd5b50620002a46200038f36600462001f0d565b62000993565b348015620003a257600080fd5b5062000361620003b436600462001f0d565b620009ae565b348015620003c757600080fd5b50620002d8620003d936600462001d2f565b620009c0565b348015620003ec57600080fd5b50620002d8620003fe36600462001f64565b620009dd565b620002406200041536600462001f0d565b62000b8d565b3480156200042857600080fd5b50620002a46200043a36600462001f0d565b62001002565b3480156200044d57600080fd5b50620002406200045f36600462001f64565b6200103d565b3480156200047257600080fd5b50620003616200113b565b3480156200048a57600080fd5b50620003616200049c36600462001cdb565b62001141565b348015620004af57600080fd5b50620004ba6200118b565b6040516200024f919062002052565b348015620004d657600080fd5b5062000361620004e836600462001f0d565b620011e4565b348015620004fb57600080fd5b50620002406200050d36600462001f3f565b62001206565b3480156200052057600080fd5b50620002706200121e565b3480156200053857600080fd5b50620002d86200054a36600462001f0d565b6200122f565b3480156200055d57600080fd5b50620002a46200056f36600462001f0d565b62001296565b3480156200058257600080fd5b50620002d86200059436600462001e49565b620012b1565b348015620005a757600080fd5b50620003616200138d565b348015620005bf57600080fd5b50620002d8620005d136600462001d6f565b62001393565b348015620005e457600080fd5b5062000361620005f636600462001f0d565b620013de565b3480156200060957600080fd5b50620002406200061b36600462001f0d565b620013f0565b3480156200062e57600080fd5b50620002706200064036600462001f0d565b6200149a565b3480156200065357600080fd5b50620002a46200066536600462001f0d565b6200152d565b3480156200067857600080fd5b50620002a46200068a36600462001f0d565b62001548565b3480156200069d57600080fd5b5062000240620006af36600462001cf8565b62001563565b6000600160e060020a031982167f80ac58cd000000000000000000000000000000000000000000000000000000001480620007195750600160e060020a031982167f5b5e139f00000000000000000000000000000000000000000000000000000000145b806200072b57506200072b8262001591565b90505b919050565b60606001805462000744906200285a565b80601f016020809104026020016040519081016040528092919081815260200182805462000772906200285a565b8015620007c35780601f106200079757610100808354040283529160200191620007c3565b820191906000526020600020905b815481529060010190602001808311620007a557829003601f168201915b5050505050905090565b6000620007da82620015c3565b620008055760405160e560020a62461bcd028152600401620007fc90620024d3565b60405180910390fd5b50600090815260086020526040902054600160a060020a031690565b60006200082e8262001002565b905080600160a060020a031683600160a060020a03161415620008685760405160e560020a62461bcd028152600401620007fc9062002658565b80600160a060020a03166200087c620015e0565b600160a060020a031614806200089c57506200089c81620006af620015e0565b620008be5760405160e560020a62461bcd028152600401620007fc9062002274565b620008ca8383620015e4565b505050565b600354600160a060020a03163314620008ff5760405160e560020a62461bcd028152600401620007fc90620023f9565b6000805473ffffffffffffffffffffffffffffffffffffffff1916600160a060020a0392909216919091179055565b600054600160a060020a031690565b620009526200094b620015e0565b8262001661565b620009745760405160e560020a62461bcd028152600401620007fc90620026b5565b620008ca838383620016f6565b600c6020526000908152604090205481565b600660205260009081526040902054600160a060020a031681565b600b6020526000908152604090205481565b620008ca8383836040518060200160405280600081525062001393565b600082815260056020526040902054600160a060020a0316331462000a195760405160e560020a62461bcd028152600401620007fc90620023c2565b6000828152600b60205260409020541562000a4b5760405160e560020a62461bcd028152600401620007fc9062002712565b6000828152600560205260408082205491549051309285928592600160a060020a039283169290911690859062000a829062001cb5565b62000a929594939291906200278f565b604051809103906000f08015801562000aaf573d6000803e3d6000fd5b506000848152600a60205260409020805473ffffffffffffffffffffffffffffffffffffffff1916600160a060020a03928316179081905562000af69133911685620009c0565b60008054848252600a6020526040918290205491517f746e8e70000000000000000000000000000000000000000000000000000000008152600160a060020a039182169263746e8e709262000b549288929091169060040162002778565b600060405180830381600087803b15801562000b6f57600080fd5b505af115801562000b84573d6000803e3d6000fd5b50505050505050565b6000818152600b602052604081205462000bbe5760405160e560020a62461bcd028152600401620007fc90620022d1565b600082815260056020526040902054600160a060020a031633141562000bfb5760405160e560020a62461bcd028152600401620007fc906200249c565b6000828152600b602052604080822054915490517f70a08231000000000000000000000000000000000000000000000000000000008152600160a060020a03909116906370a082319062000c5490339060040162001fe7565b60206040518083038186803b15801562000c6d57600080fd5b505afa15801562000c82573d6000803e3d6000fd5b505050506040513d601f19601f8201168201806040525081019062000ca8919062001f26565b101562000ccc5760405160e560020a62461bcd028152600401620007fc906200214c565b60008054838252600b6020526040918290205491517f6aade288000000000000000000000000000000000000000000000000000000008152600160a060020a0390911691636aade2889162000d2691339160040162002039565b602060405180830381600087803b15801562000d4157600080fd5b505af115801562000d56573d6000803e3d6000fd5b505050506040513d601f19601f8201168201806040525081019062000d7c919062001eb0565b62000d9e5760405160e560020a62461bcd028152600401620007fc9062002621565b6004546000838152600b6020526040812054909160649162000dc19190620027ef565b62000dcd9190620027d8565b6000805485825260066020526040918290205491517fa9059cbb000000000000000000000000000000000000000000000000000000008152929350600160a060020a039081169263a9059cbb9262000e2c921690859060040162002039565b602060405180830381600087803b15801562000e4757600080fd5b505af115801562000e5c573d6000803e3d6000fd5b505050506040513d601f19601f8201168201806040525081019062000e82919062001eb0565b506000805484825260056020908152604080842054600b90925290922054600160a060020a039182169263a9059cbb92169062000ec190859062002811565b6040518363ffffffff1660e060020a02815260040162000ee392919062002039565b602060405180830381600087803b15801562000efe57600080fd5b505af115801562000f13573d6000803e3d6000fd5b505050506040513d601f19601f8201168201806040525081019062000f39919062001eb0565b50600083815260056020908152604080832054600160a060020a031683526007909152812080546001929062000f7190849062002811565b909155505033600090815260076020526040812080546001929062000f98908490620027bd565b90915550506000838152600560209081526040808320805473ffffffffffffffffffffffffffffffffffffffff191633179055600c90915290205462000fdf908462001846565b50506000908152600c60209081526040808320839055600b909152812055600190565b600081815260056020526040812054600160a060020a0316806200072b5760405160e560020a62461bcd028152600401620007fc9062002365565b600082815260056020526040812054600160a060020a03163314620010795760405160e560020a62461bcd028152600401620007fc90620025ea565b600082116200109f5760405160e560020a62461bcd028152600401620007fc90620020b8565b6000838152600b602052604090205415620010d15760405160e560020a62461bcd028152600401620007fc9062002430565b6000838152600b60205260408120839055600d805460018181018355928290527fd7b6990105719101dabeb77144f2a3385c8033acd3af97e9423a695e81ad1eb5018590555462001123919062002811565b6000848152600c602052604090205550600192915050565b60045481565b6000600160a060020a0382166200116f5760405160e560020a62461bcd028152600401620007fc9062002308565b50600160a060020a031660009081526007602052604090205490565b6060600d805480602002602001604051908101604052809291908181526020018280548015620007c357602002820191906000526020600020905b815481526020019060010190808311620011c6575050505050905090565b600d8181548110620011f557600080fd5b600091825260209091200154905081565b600062001215338385620009c0565b50600192915050565b60606002805462000744906200285a565b6000818152600a6020526040902054600160a060020a031633146200126b5760405160e560020a62461bcd028152600401620007fc9062002467565b6000908152600a60205260409020805473ffffffffffffffffffffffffffffffffffffffff19169055565b600560205260009081526040902054600160a060020a031681565b620012bb620015e0565b600160a060020a031682600160a060020a03161415620012f25760405160e560020a62461bcd028152600401620007fc90620021e0565b806009600062001301620015e0565b600160a060020a03908116825260208083019390935260409182016000908120918716808252919093529120805460ff19169215159290921790915562001347620015e0565b600160a060020a03167f17307eab39ab6107e8899845ad3d59bd9653f200f220920489ca2b5937696c318360405162001381919062002098565b60405180910390a35050565b60045490565b620013a8620013a1620015e0565b8362001661565b620013ca5760405160e560020a62461bcd028152600401620007fc90620026b5565b620013d8848484846200198b565b50505050565b6000908152600b602052604090205490565b600081815260056020526040812054600160a060020a031633146200142c5760405160e560020a62461bcd028152600401620007fc90620025ea565b6000828152600b60205260409020546200145d5760405160e560020a62461bcd028152600401620007fc90620022d1565b6000828152600c602052604090205462001478908362001846565b506000908152600c60209081526040808320839055600b909152812055600190565b6060620014a782620015c3565b620014c95760405160e560020a62461bcd028152600401620007fc906200258d565b6000620014d5620019c8565b90506000815111620014f7576040518060200160405280600081525062001526565b806200150384620019da565b6040516020016200151692919062001fb4565b6040516020818303038152906040525b9392505050565b600090815260066020526040902054600160a060020a031690565b6000908152600a6020526040902054600160a060020a031690565b600160a060020a03918216600090815260096020908152604080832093909416825291909152205460ff1690565b600160e060020a031981167f01ffc9a70000000000000000000000000000000000000000000000000000000014919050565b600090815260056020526040902054600160a060020a0316151590565b3390565b6000818152600860205260409020805473ffffffffffffffffffffffffffffffffffffffff1916600160a060020a0384169081179091558190620016288262001002565b600160a060020a03167f8c5be1e5ebec7d5bd14f71427d1e84f3dd0314c0f7b2291e5b200ac8c7c3b92560405160405180910390a45050565b60006200166e82620015c3565b620016905760405160e560020a62461bcd028152600401620007fc9062002217565b60006200169d8362001002565b905080600160a060020a031684600160a060020a03161480620016db575083600160a060020a0316620016d084620007cd565b600160a060020a0316145b80620016ee5750620016ee818562001563565b949350505050565b82600160a060020a03166200170b8262001002565b600160a060020a031614620017375760405160e560020a62461bcd028152600401620007fc9062002530565b600160a060020a038216620017635760405160e560020a62461bcd028152600401620007fc9062002183565b62001770838383620008ca565b6200177d600082620015e4565b600160a060020a0383166000908152600760205260408120805460019290620017a890849062002811565b9091555050600160a060020a0382166000908152600760205260408120805460019290620017d8908490620027bd565b9091555050600081815260056020526040808220805473ffffffffffffffffffffffffffffffffffffffff1916600160a060020a0386811691821790925591518493918716917fddf252ad1be2c89b69c2b068fc378daa952ba7f163c4a11628f55a4df523b3ef91a4505050565b600d548210620018565762001987565b6000818152600c6020526040812055815b600d54620018789060019062002811565b8110156200194c57600d6200188f826001620027bd565b81548110620018b15760e060020a634e487b7102600052603260045260246000fd5b9060005260206000200154600d8281548110620018e15760e060020a634e487b7102600052603260045260246000fd5b906000526020600020018190555080600c6000600d8481548110620019195760e060020a634e487b7102600052603260045260246000fd5b9060005260206000200154815260200190815260200160002081905550808062001943906200289a565b91505062001867565b50600d805480620019705760e060020a634e487b7102600052603160045260246000fd5b600190038181906000526020600020016000905590555b5050565b62001998848484620016f6565b620019a68484848462001b63565b620013d85760405160e560020a62461bcd028152600401620007fc90620020ef565b60408051602081019091526000815290565b60608162001a1d575060408051808201909152600181527f300000000000000000000000000000000000000000000000000000000000000060208201526200072e565b8160005b811562001a4d578062001a34816200289a565b915062001a459050600a83620027d8565b915062001a21565b60008167ffffffffffffffff81111562001a7a5760e060020a634e487b7102600052604160045260246000fd5b6040519080825280601f01601f19166020018201604052801562001aa5576020820181803683370190505b5090505b8415620016ee5762001abd60018362002811565b915062001acc600a86620028b8565b62001ad9906030620027bd565b7f01000000000000000000000000000000000000000000000000000000000000000281838151811062001b1f5760e060020a634e487b7102600052603260045260246000fd5b60200101907effffffffffffffffffffffffffffffffffffffffffffffffffffffffffffff1916908160001a90535062001b5b600a86620027d8565b945062001aa9565b600062001b7984600160a060020a031662001caf565b1562001ca45783600160a060020a031663150b7a0262001b98620015e0565b8786866040518563ffffffff1660e060020a02815260040162001bbf949392919062001ffb565b602060405180830381600087803b15801562001bda57600080fd5b505af192505050801562001c0d575060408051601f3d908101601f1916820190925262001c0a9181019062001eee565b60015b62001c70573d80801562001c3e576040519150601f19603f3d011682016040523d82523d6000602084013e62001c43565b606091505b50805162001c685760405160e560020a62461bcd028152600401620007fc90620020ef565b805181602001fd5b600160e060020a0319167f150b7a0200000000000000000000000000000000000000000000000000000000149050620016ee565b506001949350505050565b3b151590565b61136e806200294483390190565b8035600160a060020a03811681146200072e57600080fd5b60006020828403121562001ced578081fd5b620015268262001cc3565b6000806040838503121562001d0b578081fd5b62001d168362001cc3565b915062001d266020840162001cc3565b90509250929050565b60008060006060848603121562001d44578081fd5b62001d4f8462001cc3565b925062001d5f6020850162001cc3565b9150604084013590509250925092565b6000806000806080858703121562001d85578081fd5b62001d908562001cc3565b9350602062001da181870162001cc3565b935060408601359250606086013567ffffffffffffffff8082111562001dc5578384fd5b818801915088601f83011262001dd9578384fd5b81358181111562001dee5762001dee62002901565b604051601f8201601f191681018501838111828210171562001e145762001e1462002901565b60405281815283820185018b101562001e2b578586fd5b81858501868301379081019093019390935250939692955090935050565b6000806040838503121562001e5c578182fd5b62001e678362001cc3565b9150602083013562001e79816200291a565b809150509250929050565b6000806040838503121562001e97578182fd5b62001ea28362001cc3565b946020939093013593505050565b60006020828403121562001ec2578081fd5b815162001526816200291a565b60006020828403121562001ee1578081fd5b813562001526816200292c565b60006020828403121562001f00578081fd5b815162001526816200292c565b60006020828403121562001f1f578081fd5b5035919050565b60006020828403121562001f38578081fd5b5051919050565b6000806040838503121562001f52578182fd5b8235915062001d266020840162001cc3565b6000806040838503121562001f77578182fd5b50508035926020909101359150565b6000815180845262001fa08160208601602086016200282b565b601f01601f19169290920160200192915050565b6000835162001fc88184602088016200282b565b83519083019062001fde8183602088016200282b565b01949350505050565b600160a060020a0391909116815260200190565b6000600160a060020a038087168352808616602084015250836040830152608060608301526200202f608083018462001f86565b9695505050505050565b600160a060020a03929092168252602082015260400190565b6020808252825182820181905260009190848201906040850190845b818110156200208c578351835292840192918401916001016200206e565b50909695505050505050565b901515815260200190565b60006020825262001526602083018462001f86565b6020808252601e908201527f70726963652073686f756c642062652067726561746572207468616e20300000604082015260600190565b60208082526032908201527f4552433732313a207472616e7366657220746f206e6f6e20455243373231526560408201527f63656976657220696d706c656d656e7465720000000000000000000000000000606082015260800190565b6020808252600b908201527f4c6f772062616c616e6365000000000000000000000000000000000000000000604082015260600190565b60208082526024908201527f4552433732313a207472616e7366657220746f20746865207a65726f2061646460408201527f7265737300000000000000000000000000000000000000000000000000000000606082015260800190565b60208082526019908201527f4552433732313a20617070726f766520746f2063616c6c657200000000000000604082015260600190565b6020808252602c908201527f4552433732313a206f70657261746f7220717565727920666f72206e6f6e657860408201527f697374656e7420746f6b656e0000000000000000000000000000000000000000606082015260800190565b60208082526038908201527f4552433732313a20617070726f76652063616c6c6572206973206e6f74206f7760408201527f6e6572206e6f7220617070726f76656420666f7220616c6c0000000000000000606082015260800190565b60208082526016908201527f6e6f742053656c6c696e67207468697320746f6b656e00000000000000000000604082015260600190565b6020808252602a908201527f4552433732313a2062616c616e636520717565727920666f7220746865207a6560408201527f726f206164647265737300000000000000000000000000000000000000000000606082015260800190565b60208082526029908201527f4552433732313a206f776e657220717565727920666f72206e6f6e657869737460408201527f656e7420746f6b656e0000000000000000000000000000000000000000000000606082015260800190565b6020808252601b908201527f63616e206f6e6c792062652063616c6c6564206279204f776e65720000000000604082015260600190565b6020808252601f908201527f63616e2062652063616c6c656420627920436f6e7472616374204f776e657200604082015260600190565b6020808252600f908201527f416c72656164792053656c6c696e670000000000000000000000000000000000604082015260600190565b6020808252818101527f63616e206f6e6c792063616c6c65642062792041756374696f6e2f4f776e6572604082015260600190565b6020808252601d908201527f4f776e65722063616e6e6f74206275792069742773206f776e204e4654000000604082015260600190565b6020808252602c908201527f4552433732313a20617070726f76656420717565727920666f72206e6f6e657860408201527f697374656e7420746f6b656e0000000000000000000000000000000000000000606082015260800190565b60208082526029908201527f4552433732313a207472616e73666572206f6620746f6b656e2074686174206960408201527f73206e6f74206f776e0000000000000000000000000000000000000000000000606082015260800190565b6020808252602f908201527f4552433732314d657461646174613a2055524920717565727920666f72206e6f60408201527f6e6578697374656e7420746f6b656e0000000000000000000000000000000000606082015260800190565b60208082526018908201527f63616e20626520736574206279206f776e6572206f6e6c790000000000000000604082015260600190565b60208082526018908201527f546f6b656e205472616e73656374696f6e204661696c65640000000000000000604082015260600190565b60208082526021908201527f4552433732313a20617070726f76616c20746f2063757272656e74206f776e6560408201527f7200000000000000000000000000000000000000000000000000000000000000606082015260800190565b60208082526031908201527f4552433732313a207472616e736665722063616c6c6572206973206e6f74206f60408201527f776e6572206e6f7220617070726f766564000000000000000000000000000000606082015260800190565b60208082526029908201527f416c72656164792053656c6c696e672c2063616e63656c2053656c6c696e672060408201527f4e46542046697273740000000000000000000000000000000000000000000000606082015260800190565b90815260200190565b918252600160a060020a0316602082015260400190565b9485526020850193909352600160a060020a0391821660408501528116606084015216608082015260a00190565b60008219821115620027d357620027d3620028cf565b500190565b600082620027ea57620027ea620028e8565b500490565b60008160001904831182151516156200280c576200280c620028cf565b500290565b600082821015620028265762002826620028cf565b500390565b60005b83811015620028485781810151838201526020016200282e565b83811115620013d85750506000910152565b6002810460018216806200286f57607f821691505b60208210811415620028945760e060020a634e487b7102600052602260045260246000fd5b50919050565b6000600019821415620028b157620028b1620028cf565b5060010190565b600082620028ca57620028ca620028e8565b500690565b60e060020a634e487b7102600052601160045260246000fd5b60e060020a634e487b7102600052601260045260246000fd5b60e060020a634e487b7102600052604160045260246000fd5b80151581146200292957600080fd5b50565b600160e060020a0319811681146200292957600080fdfe60806040523480156200001157600080fd5b506040516200136e3803806200136e8339810160408190526200003491620000d6565b600485905560008054600160a060020a031916600160a060020a0385161790556200006084426200013d565b600190815560028054600160a060020a0319908116600160a060020a039586161790915560038054821693909416929092179092556009805492830181556000527f6e1540171b6c0c960b71a7020d9f60077f6af931a8bbf590da0223dacf75c7af909101805490911690555062000194915050565b600080600080600060a08688031215620000ee578081fd5b8551945060208601519350604086015162000109816200017b565b60608701519093506200011c816200017b565b60808701519092506200012f816200017b565b809150509295509295909350565b6000821982111562000176577f4e487b710000000000000000000000000000000000000000000000000000000081526011600452602481fd5b500190565b600160a060020a03811681146200019157600080fd5b50565b6111ca80620001a46000396000f3fe6080604052600436106100f75760003560e060020a90048063454a2ab31161008e57806388a6360e1161005d57806388a6360e1461023457806391f9015714610249578063d57bde791461025e578063f56e9c6614610273576100f7565b8063454a2ab3146101df5780634b449cba146101f257806370bda8941461017657806383ffda3b14610214576100f7565b806321df0da7116100ca57806321df0da71461018b5780632a24f46c146101ad57806338af3eed146101b55780633ccfd60b146101ca576100f7565b806312fa6feb146100fc578063144fa6d714610127578063150b7a02146101495780631e36d75514610176575b600080fd5b34801561010857600080fd5b50610111610293565b60405161011e9190610eeb565b60405180910390f35b34801561013357600080fd5b50610147610142366004610d5f565b61029c565b005b34801561015557600080fd5b50610169610164366004610d9e565b6102cb565b60405161011e9190610ef6565b34801561018257600080fd5b506101476102f4565b34801561019757600080fd5b506101a061039a565b60405161011e9190610ebe565b6101476103a9565b3480156101c157600080fd5b506101a06109b3565b3480156101d657600080fd5b506101116109c2565b6101476101ed366004610e8e565b6109d2565b3480156101fe57600080fd5b50610207610be7565b60405161011e9190611082565b34801561022057600080fd5b5061020761022f366004610d5f565b610bed565b34801561024057600080fd5b506101a0610c0c565b34801561025557600080fd5b506101a0610c1b565b34801561026a57600080fd5b50610207610c2a565b34801561027f57600080fd5b5061014761028e366004610d5f565b610c30565b600a5460ff1681565b6002805473ffffffffffffffffffffffffffffffffffffffff1916600160a060020a0392909216919091179055565b7f150b7a0200000000000000000000000000000000000000000000000000000000949350505050565b600354600480546000546040517f9564470e000000000000000000000000000000000000000000000000000000008152600160a060020a0394851694639564470e946103459493909116910161108b565b602060405180830381600087803b15801561035f57600080fd5b505af1158015610373573d6000803e3d6000fd5b505050506040513d601f19601f820116820180604052508101906103979190610e6e565b50565b600254600160a060020a031690565b600054600160a060020a03163314806103cc5750600554600160a060020a031633145b6103f45760405160e560020a62461bcd0281526004016103eb90611025565b60405180910390fd5b6001544210156104195760405160e560020a62461bcd0281526004016103eb90610f91565b600a5460ff161561043f5760405160e560020a62461bcd0281526004016103eb90610fc8565b600a805460ff191660011790556004546005546006546040517fd2aa34a4fdbbc6dff6a3e56f46e0f3ae2a31d7785ff3487aa5c95c642acea50193610491939092600160a060020a03909116916110a2565b60405180910390a1600554600160a060020a03161561081357600354600480546005546040517f9564470e000000000000000000000000000000000000000000000000000000008152600160a060020a0394851694639564470e946104fb9493909116910161108b565b602060405180830381600087803b15801561051557600080fd5b505af1158015610529573d6000803e3d6000fd5b505050506040513d601f19601f8201168201806040525081019061054d9190610e6e565b5060006064600360009054906101000a9004600160a060020a0316600160a060020a031663aac5643d6040518163ffffffff1660e060020a02815260040160206040518083038186803b1580156105a357600080fd5b505afa1580156105b7573d6000803e3d6000fd5b505050506040513d601f19601f820116820180604052508101906105db9190610ea6565b6006546105e891906110fc565b6105f291906110d9565b600254600354600480546040517fd48e638a000000000000000000000000000000000000000000000000000000008152949550600160a060020a039384169463a9059cbb949093169263d48e638a9261064c929101611082565b60206040518083038186803b15801561066457600080fd5b505afa158015610678573d6000803e3d6000fd5b505050506040513d601f19601f8201168201806040525081019061069c9190610d82565b836040518363ffffffff1660e060020a0281526004016106bd929190610ed2565b602060405180830381600087803b1580156106d757600080fd5b505af11580156106eb573d6000803e3d6000fd5b505050506040513d601f19601f8201168201806040525081019061070f9190610e6e565b50600254600054600654600160a060020a039283169263a9059cbb92169061073890859061111b565b6040518363ffffffff1660e060020a028152600401610758929190610ed2565b602060405180830381600087803b15801561077257600080fd5b505af1158015610786573d6000803e3d6000fd5b505050506040513d601f19601f820116820180604052508101906107aa9190610e6e565b5060015b60095481101561080c576107f9600982815481106107df5760e060020a634e487b7102600052603260045260246000fd5b600091825260209091200154600160a060020a0316610c5f565b508061080481611132565b9150506107ae565b50506108b8565b600354600480546000546040517f9564470e000000000000000000000000000000000000000000000000000000008152600160a060020a0394851694639564470e946108649493909116910161108b565b602060405180830381600087803b15801561087e57600080fd5b505af1158015610892573d6000803e3d6000fd5b505050506040513d601f19601f820116820180604052508101906108b69190610e6e565b505b600354600480546040517f96e392d3000000000000000000000000000000000000000000000000000000008152600160a060020a03909316926396e392d392610902929101611082565b600060405180830381600087803b15801561091c57600080fd5b505af1158015610930573d6000803e3d6000fd5b5050600254600480546040517f77df84a4000000000000000000000000000000000000000000000000000000008152600160a060020a0390931694506377df84a4935061097f92909101611082565b600060405180830381600087803b15801561099957600080fd5b505af11580156109ad573d6000803e3d6000fd5b50505050565b600054600160a060020a031681565b60006109cd33610c5f565b905090565b6001544211156109f75760405160e560020a62461bcd0281526004016103eb90610f23565b6006548111610a1b5760405160e560020a62461bcd0281526004016103eb90610f5a565b600254600480546040517f01f07a3b000000000000000000000000000000000000000000000000000000008152600160a060020a03909316926301f07a3b92610a69929133918791016110a2565b602060405180830381600087803b158015610a8357600080fd5b505af1158015610a97573d6000803e3d6000fd5b505050506040513d601f19601f82011682018060405250810190610abb9190610e6e565b610ac457600080fd5b60065415610aff57600654600554600160a060020a031660009081526007602052604081208054909190610af99084906110c1565b90915550505b6005805473ffffffffffffffffffffffffffffffffffffffff1916339081179091556006829055600090815260086020526040902054610ba757600980546001818101835560008390527f6e1540171b6c0c960b71a7020d9f60077f6af931a8bbf590da0223dacf75c7af909101805473ffffffffffffffffffffffffffffffffffffffff1916331790559054610b96919061111b565b336000908152600860205260409020555b7fda0a18da71d8ebd145966339a728fc0d8ccc07c22870d561890d823c515dda6b6004543383604051610bdc939291906110a2565b60405180910390a150565b60015481565b600160a060020a0381166000908152600760205260409020545b919050565b600354600160a060020a031690565b600554600160a060020a031681565b60065481565b6003805473ffffffffffffffffffffffffffffffffffffffff1916600160a060020a0392909216919091179055565b600160a060020a0381166000908152600760205260408120548015610d5657600160a060020a038084166000908152600760205260408082209190915560025490517fa9059cbb00000000000000000000000000000000000000000000000000000000815291169063a9059cbb90610cdd9086908590600401610ed2565b602060405180830381600087803b158015610cf757600080fd5b505af1158015610d0b573d6000803e3d6000fd5b505050506040513d601f19601f82011682018060405250810190610d2f9190610e6e565b610d5657600160a060020a0383166000908152600760205260408120919091559050610c07565b50600192915050565b600060208284031215610d70578081fd5b8135610d7b8161117f565b9392505050565b600060208284031215610d93578081fd5b8151610d7b8161117f565b60008060008060808587031215610db3578283fd5b8435610dbe8161117f565b9350602085810135610dcf8161117f565b935060408601359250606086013567ffffffffffffffff80821115610df2578384fd5b818801915088601f830112610e05578384fd5b813581811115610e1757610e17611166565b604051601f8201601f1916810185018381118282101715610e3a57610e3a611166565b60405281815283820185018b1015610e50578586fd5b81858501868301379081019093019390935250939692955090935050565b600060208284031215610e7f578081fd5b81518015158114610d7b578182fd5b600060208284031215610e9f578081fd5b5035919050565b600060208284031215610eb7578081fd5b5051919050565b600160a060020a0391909116815260200190565b600160a060020a03929092168252602082015260400190565b901515815260200190565b7fffffffff0000000000000000000000000000000000000000000000000000000091909116815260200190565b60208082526016908201527f41756374696f6e20616c726561647920656e6465642e00000000000000000000604082015260600190565b6020808252601e908201527f546865726520616c7265616479206973206120686967686572206269642e0000604082015260600190565b60208082526016908201527f41756374696f6e206e6f742079657420656e6465642e00000000000000000000604082015260600190565b60208082526023908201527f61756374696f6e456e642068617320616c7265616479206265656e2063616c6c60408201527f65642e0000000000000000000000000000000000000000000000000000000000606082015260800190565b6020808252602a908201527f6f6e6c79206f776e6572206f6620746f6b656e2063616e2063616c6c2074686960408201527f732066756e6374696f6e00000000000000000000000000000000000000000000606082015260800190565b90815260200190565b918252600160a060020a0316602082015260400190565b928352600160a060020a03919091166020830152604082015260600190565b600082198211156110d4576110d461114d565b500190565b6000826110f75760e060020a634e487b710281526012600452602481fd5b500490565b60008160001904831182151516156111165761111661114d565b500290565b60008282101561112d5761112d61114d565b500390565b60006000198214156111465761114661114d565b5060010190565b60e060020a634e487b7102600052601160045260246000fd5b60e060020a634e487b7102600052604160045260246000fd5b600160a060020a038116811461039757600080fdfea26469706673582212207471e1d9a80a915cf2382c670c380d9d9d2a171fd185718f1192d39f6d95939064736f6c63430008000033a26469706673582212204ab3b74fb49dfc347535d22627cfa0a4fe7e37447506cba039c83afab5f77dd164736f6c63430008000033",
  "immutableReferences": {},
  "source": "// SPDX-License-Identifier: MIT\n\npragma solidity ^0.8.0;\n\nimport \"./IERC721.sol\";\nimport \"./IERC721Receiver.sol\";\nimport \"./extensions/IERC721Metadata.sol\";\nimport \"../utils/Address.sol\";\nimport \"../utils/Context.sol\";\nimport \"../utils/Strings.sol\";\nimport \"../utils/introspection/ERC165.sol\";\nimport \"../ERC20/ERC20.sol\";\nimport \"../Auction.sol\";\n/**\n * @dev Implementation of https://eips.ethereum.org/EIPS/eip-721[ERC721] Non-Fungible Token Standard, including\n * the Metadata extension, but not including the Enumerable extension, which is available separately as\n * {ERC721Enumerable}.\n */\n\ncontract ERC721 is Context, ERC165, IERC721, IERC721Metadata {\n    using Address for address;\n    using Strings for uint256;\n\n    //ERC20 Token\n    ERC20 private _token; // getters and setters\n\n    // Token name\n    string private _name;\n\n    // Token symbol\n    string private _symbol;\n    address private ownership;\n    uint256 public _creatorComission = 10;\n    // Mapping from token ID to owner address\n    mapping(uint256 => address) public _owners;\n\n    // Mapping from token ID to creator address\n    mapping(uint256 => address) public _creator;\n    // Mapping owner address to token count\n    mapping(address => uint256) private _balances;\n\n    // Mapping from token ID to approved address\n    mapping(uint256 => address) private _tokenApprovals;\n\n    // Mapping from owner to operator approvals\n    mapping(address => mapping(address => bool)) private _operatorApprovals;\n\n    mapping(uint256 => Auction) private _auctionContracts;\n\n    //mapping of tokenId to sellPrices\n    mapping(uint256 => uint256) public _sellPrice;\n    mapping(uint256 => uint256) public _sellingNFTsIndexes;\n    uint256[] public _sellingNFTs;\n\n    // Auction public auction;\n    // Events that will be emitted on changes.\n\n    /**\n     * @dev Initializes the contract by setting a `name` and a `symbol` to the token collection.\n     */\n    constructor(string memory name_, string memory symbol_) {\n        _name = name_;\n        _symbol = symbol_;\n        ownership = msg.sender;\n    }\n    function getCreatorComission() public view returns(uint256){\n        return _creatorComission;\n    }\n    function getSellingNFTs() public view returns(uint256[] memory){\n        return _sellingNFTs;\n    }\n    function startSellingNFT(uint256 tokenId, uint256 price) public returns(bool){\n        require(msg.sender == _owners[tokenId], \"can be set by owner only\");\n        require(price > 0,\"price should be greater than 0\");\n        require(!(_sellPrice[tokenId] > 0), \"Already Selling\");\n        // require(price > _sellPrice[tokenId], \"new price should be higher than previous price\");\n        _sellPrice[tokenId] = price;\n        _sellingNFTs.push(tokenId);\n        _sellingNFTsIndexes[tokenId] = _sellingNFTs.length-1;\n        return true;\n    }\n    function cancelSellingNFT(uint256 tokenId) public returns(bool){\n        require(msg.sender == _owners[tokenId], \"can be set by owner only\");\n        require(_sellPrice[tokenId] > 0, \"not Selling this token\");\n        removeSellingNFTs(_sellingNFTsIndexes[tokenId], tokenId);\n        delete _sellingNFTsIndexes[tokenId];\n        delete _sellPrice[tokenId];\n        return true;\n    }\n\n    function buyNFT(uint256 tokenId) public payable returns(bool){\n        require(_sellPrice[tokenId] > 0, \"not Selling this token\");\n        require(msg.sender != _owners[tokenId],\"Owner cannot buy it's own NFT\");\n        require(_token.balanceOf(msg.sender) >= _sellPrice[tokenId],\"Low balance\");\n        require(_token.spendFrom(msg.sender, _sellPrice[tokenId]),\"Token Transection Failed\");\n        uint256 comission = (_sellPrice[tokenId] * _creatorComission) / 100 ;\n        _token.transfer(_creator[tokenId], comission);\n        _token.transfer(_owners[tokenId], (_sellPrice[tokenId] - comission));\n        _balances[_owners[tokenId]] -= 1;\n        _balances[msg.sender] += 1;\n        _owners[tokenId] = msg.sender;\n        removeSellingNFTs(_sellingNFTsIndexes[tokenId], tokenId);\n        delete _sellingNFTsIndexes[tokenId];\n        delete _sellPrice[tokenId];\n        return true;\n    }\n    function getCreator(uint256 tokenId) public view returns (address){\n        return _creator[tokenId];\n    }\n\n    function getSellPrice(uint256 tokenId) public view returns(uint256){\n        return _sellPrice[tokenId];\n    }\n    function removeSellingNFTs(uint256 index, uint256 tokenId) private /* returns(uint[]) */{\n        if (index >= _sellingNFTs.length) return;\n        delete _sellingNFTsIndexes[tokenId];\n        for (uint i = index; i<_sellingNFTs.length-1; i++){\n            _sellingNFTs[i] = _sellingNFTs[i+1];\n            _sellingNFTsIndexes[_sellingNFTs[i]] = i;\n        }\n        _sellingNFTs.pop();\n        // return _sellingNFTs;\n    }\n    /**\n     * Getter and Setter of _token (ERC20)\n     **/\n    function getToken() public view returns (ERC20){\n        return _token;\n    }\n\n    //  ERC20 private _token; // getters and setters\n    function setToken(address tokenAddress) public {\n        require(msg.sender == ownership, \"can be called by Contract Owner\");\n        _token = ERC20(tokenAddress);\n    }\n\n    function startAuction(uint256 tokenId, uint time) public {\n        require(msg.sender == _owners[tokenId], 'can only be called by Owner');\n        require(!(_sellPrice[tokenId] > 0), \"Already Selling, cancel Selling NFT First\");\n        address nftaddress = address(this);\n        _auctionContracts[tokenId] = new Auction(tokenId, time, _owners[tokenId], _token, nftaddress);\n        safeTransferFrom(msg.sender, address(_auctionContracts[tokenId]), tokenId);\n        _token.setAuctionsAddress(tokenId, address(_auctionContracts[tokenId]));\n    }\n\n    function getAuctionContract(uint256 tokenId) public view returns (Auction){\n        return _auctionContracts[tokenId];\n    }\n\n\n    function deleteAuctionContract(uint256 tokenId) public {\n        require(msg.sender == address(_auctionContracts[tokenId]), \"can only called by Auction/Owner\");\n        delete _auctionContracts[tokenId];\n    }\n    /**\n     * @dev See {IERC165-supportsInterface}.\n     */\n    function supportsInterface(bytes4 interfaceId) public view virtual override(ERC165, IERC165) returns (bool) {\n        return\n        interfaceId == type(IERC721).interfaceId ||\n        interfaceId == type(IERC721Metadata).interfaceId ||\n        super.supportsInterface(interfaceId);\n    }\n\n    /**\n     * @dev See {IERC721-balanceOf}.\n     */\n    function balanceOf(address owner) public view virtual override returns (uint256) {\n        require(owner != address(0), \"ERC721: balance query for the zero address\");\n        return _balances[owner];\n    }\n\n\n    /**\n     * @dev See {IERC721-ownerOf}.\n     */\n    function ownerOf(uint256 tokenId) public view virtual override returns (address) {\n        address owner = _owners[tokenId];\n        require(owner != address(0), \"ERC721: owner query for nonexistent token\");\n        return owner;\n    }\n\n    /**\n     * @dev See {IERC721Metadata-name}.\n     */\n    function name() public view virtual override returns (string memory) {\n        return _name;\n    }\n\n    /**\n     * @dev See {IERC721Metadata-symbol}.\n     */\n    function symbol() public view virtual override returns (string memory) {\n        return _symbol;\n    }\n\n    /**\n     * @dev See {IERC721Metadata-tokenURI}.\n     */\n    function tokenURI(uint256 tokenId) public view virtual override returns (string memory) {\n        require(_exists(tokenId), \"ERC721Metadata: URI query for nonexistent token\");\n\n        string memory baseURI = _baseURI();\n        return bytes(baseURI).length > 0 ? string(abi.encodePacked(baseURI, tokenId.toString())) : \"\";\n    }\n\n    /**\n     * @dev Base URI for computing {tokenURI}. If set, the resulting URI for each\n     * token will be the concatenation of the `baseURI` and the `tokenId`. Empty\n     * by default, can be overriden in child contracts.\n     */\n    function _baseURI() internal view virtual returns (string memory) {\n        return \"\";\n    }\n\n    /**\n     * @dev See {IERC721-approve}.\n     */\n    function approve(address to, uint256 tokenId) public virtual override {\n        address owner = ERC721.ownerOf(tokenId);\n        require(to != owner, \"ERC721: approval to current owner\");\n\n        require(\n            _msgSender() == owner || isApprovedForAll(owner, _msgSender()),\n            \"ERC721: approve caller is not owner nor approved for all\"\n        );\n\n        _approve(to, tokenId);\n    }\n\n    /**\n     * @dev See {IERC721-getApproved}.\n     */\n    function getApproved(uint256 tokenId) public view virtual override returns (address) {\n        require(_exists(tokenId), \"ERC721: approved query for nonexistent token\");\n\n        return _tokenApprovals[tokenId];\n    }\n\n    /**\n     * @dev See {IERC721-setApprovalForAll}.\n     */\n    function setApprovalForAll(address operator, bool approved) public virtual override {\n        require(operator != _msgSender(), \"ERC721: approve to caller\");\n\n        _operatorApprovals[_msgSender()][operator] = approved;\n        emit ApprovalForAll(_msgSender(), operator, approved);\n    }\n\n    /**\n     * @dev See {IERC721-isApprovedForAll}.\n     */\n    function isApprovedForAll(address owner, address operator) public view virtual override returns (bool) {\n        return _operatorApprovals[owner][operator];\n    }\n\n    /**\n     * @dev See {IERC721-transferFrom}.\n     */\n    function transferFrom(\n        address from,\n        address to,\n        uint256 tokenId\n    ) public virtual override {\n        //solhint-disable-next-line max-line-length\n        require(_isApprovedOrOwner(_msgSender(), tokenId), \"ERC721: transfer caller is not owner nor approved\");\n\n        _transfer(from, to, tokenId);\n    }\n\n    /**\n     * @dev See {IERC721-safeTransferFrom}.\n     */\n\n\n    function _spend(uint256 tokenId, address to) public virtual returns (bool) {\n        safeTransferFrom(msg.sender, to, tokenId);\n        return true;\n    }\n\n    function safeTransferFrom(\n        address from,\n        address to,\n        uint256 tokenId\n    ) public virtual override {\n        safeTransferFrom(from, to, tokenId, \"\");\n    }\n\n    /**\n     * @dev See {IERC721-safeTransferFrom}.\n     */\n    function safeTransferFrom(\n        address from,\n        address to,\n        uint256 tokenId,\n        bytes memory _data\n    ) public virtual override {\n        require(_isApprovedOrOwner(_msgSender(), tokenId), \"ERC721: transfer caller is not owner nor approved\");\n        _safeTransfer(from, to, tokenId, _data);\n    }\n\n    /**\n     * @dev Safely transfers `tokenId` token from `from` to `to`, checking first that contract recipients\n     * are aware of the ERC721 protocol to prevent tokens from being forever locked.\n     *\n     * `_data` is additional data, it has no specified format and it is sent in call to `to`.\n     *\n     * This internal function is equivalent to {safeTransferFrom}, and can be used to e.g.\n     * implement alternative mechanisms to perform token transfer, such as signature-based.\n     *\n     * Requirements:\n     *\n     * - `from` cannot be the zero address.\n     * - `to` cannot be the zero address.\n     * - `tokenId` token must exist and be owned by `from`.\n     * - If `to` refers to a smart contract, it must implement {IERC721Receiver-onERC721Received}, which is called upon a safe transfer.\n     *\n     * Emits a {Transfer} event.\n     */\n    function _safeTransfer(\n        address from,\n        address to,\n        uint256 tokenId,\n        bytes memory _data\n    ) internal virtual {\n        _transfer(from, to, tokenId);\n        require(_checkOnERC721Received(from, to, tokenId, _data), \"ERC721: transfer to non ERC721Receiver implementer\");\n    }\n\n\n\n    /**\n     * @dev Returns whether `tokenId` exists.\n     *\n     * Tokens can be managed by their owner or approved accounts via {approve} or {setApprovalForAll}.\n     *\n     * Tokens start existing when they are minted (`_mint`),\n     * and stop existing when they are burned (`_burn`).\n     */\n    function _exists(uint256 tokenId) internal view virtual returns (bool) {\n        return _owners[tokenId] != address(0);\n    }\n\n    /**\n     * @dev Returns whether `spender` is allowed to manage `tokenId`.\n     *\n     * Requirements:\n     *\n     * - `tokenId` must exist.\n     */\n    function _isApprovedOrOwner(address spender, uint256 tokenId) internal view virtual returns (bool) {\n        require(_exists(tokenId), \"ERC721: operator query for nonexistent token\");\n        address owner = ERC721.ownerOf(tokenId);\n        return (spender == owner || getApproved(tokenId) == spender || isApprovedForAll(owner, spender));\n    }\n\n    /**\n     * @dev Safely mints `tokenId` and transfers it to `to`.\n     *\n     * Requirements:\n     *\n     * - `tokenId` must not exist.\n     * - If `to` refers to a smart contract, it must implement {IERC721Receiver-onERC721Received}, which is called upon a safe transfer.\n     *\n     * Emits a {Transfer} event.\n     */\n    function _safeMint(address to, uint256 tokenId) internal virtual {\n        _safeMint(to, tokenId, \"\");\n    }\n\n    /**\n     * @dev Same as {xref-ERC721-_safeMint-address-uint256-}[`_safeMint`], with an additional `data` parameter which is\n     * forwarded in {IERC721Receiver-onERC721Received} to contract recipients.\n     */\n    function _safeMint(\n        address to,\n        uint256 tokenId,\n        bytes memory _data\n    ) internal virtual {\n        _mint(to, tokenId);\n        require(\n            _checkOnERC721Received(address(0), to, tokenId, _data),\n            \"ERC721: transfer to non ERC721Receiver implementer\"\n        );\n    }\n\n    /**\n     * @dev Mints `tokenId` and transfers it to `to`.\n     *\n     * WARNING: Usage of this method is discouraged, use {_safeMint} whenever possible\n     *\n     * Requirements:\n     *\n     * - `tokenId` must not exist.\n     * - `to` cannot be the zero address.\n     *\n     * Emits a {Transfer} event.\n     */\n    function _mint(address to, uint256 tokenId) internal virtual {\n        require(to != address(0), \"ERC721: mint to the zero address\");\n        require(!_exists(tokenId), \"ERC721: token already minted\");\n\n        _beforeTokenTransfer(address(0), to, tokenId);\n\n        _balances[to] += 1;\n        _owners[tokenId] = to;\n        _creator[tokenId] = to;\n        emit Transfer(address(0), to, tokenId);\n    }\n\n    /**\n     * @dev Destroys `tokenId`.\n     * The approval is cleared when the token is burned.\n     *\n     * Requirements:\n     *\n     * - `tokenId` must exist.\n     *\n     * Emits a {Transfer} event.\n     */\n    function _burn(uint256 tokenId) internal virtual {\n        address owner = ERC721.ownerOf(tokenId);\n\n        _beforeTokenTransfer(owner, address(0), tokenId);\n\n        // Clear approvals\n        _approve(address(0), tokenId);\n\n        _balances[owner] -= 1;\n        delete _owners[tokenId];\n\n        emit Transfer(owner, address(0), tokenId);\n    }\n\n    /**\n     * @dev Transfers `tokenId` from `from` to `to`.\n     *  As opposed to {transferFrom}, this imposes no restrictions on msg.sender.\n     *\n     * Requirements:\n     *\n     * - `to` cannot be the zero address.\n     * - `tokenId` token must be owned by `from`.\n     *\n     * Emits a {Transfer} event.\n     */\n    function _transfer(\n        address from,\n        address to,\n        uint256 tokenId\n    ) internal virtual {\n        require(ERC721.ownerOf(tokenId) == from, \"ERC721: transfer of token that is not own\");\n        require(to != address(0), \"ERC721: transfer to the zero address\");\n\n        _beforeTokenTransfer(from, to, tokenId);\n\n        // Clear approvals from the previous owner\n        _approve(address(0), tokenId);\n\n        _balances[from] -= 1;\n        _balances[to] += 1;\n        _owners[tokenId] = to;\n\n        emit Transfer(from, to, tokenId);\n    }\n\n    /**\n     * @dev Approve `to` to operate on `tokenId`\n     *\n     * Emits a {Approval} event.\n     */\n    function _approve(address to, uint256 tokenId) internal virtual {\n        _tokenApprovals[tokenId] = to;\n        emit Approval(ERC721.ownerOf(tokenId), to, tokenId);\n    }\n\n    /**\n     * @dev Internal function to invoke {IERC721Receiver-onERC721Received} on a target address.\n     * The call is not executed if the target address is not a contract.\n     *\n     * @param from address representing the previous owner of the given token ID\n     * @param to target address that will receive the tokens\n     * @param tokenId uint256 ID of the token to be transferred\n     * @param _data bytes optional data to send along with the call\n     * @return bool whether the call correctly returned the expected magic value\n     */\n    function _checkOnERC721Received(\n        address from,\n        address to,\n        uint256 tokenId,\n        bytes memory _data\n    ) private returns (bool) {\n        if (to.isContract()) {\n            try IERC721Receiver(to).onERC721Received(_msgSender(), from, tokenId, _data) returns (bytes4 retval) {\n                return retval == IERC721Receiver.onERC721Received.selector;\n            } catch (bytes memory reason) {\n                if (reason.length == 0) {\n                    revert(\"ERC721: transfer to non ERC721Receiver implementer\");\n                } else {\n                    assembly {\n                        revert(add(32, reason), mload(reason))\n                    }\n                }\n            }\n        } else {\n            return true;\n        }\n    }\n\n    /**\n     * @dev Hook that is called before any token transfer. This includes minting\n     * and burning.\n     *\n     * Calling conditions:\n     *\n     * - When `from` and `to` are both non-zero, ``from``'s `tokenId` will be\n     * transferred to `to`.\n     * - When `from` is zero, `tokenId` will be minted for `to`.\n     * - When `to` is zero, ``from``'s `tokenId` will be burned.\n     * - `from` and `to` are never both zero.\n     *\n     * To learn more about hooks, head to xref:ROOT:extending-contracts.adoc#using-hooks[Using Hooks].\n     */\n    function _beforeTokenTransfer(\n        address from,\n        address to,\n        uint256 tokenId\n    ) internal virtual {}\n}",
  "sourcePath": "/Volumes/Transcend/Projects/DappsLab/Lottery-Smart-Contract/contracts/customERC20ERC721/ERC721/ERC721.sol",
  "compiler": {
    "name": "solc",
    "version": "0.8.0+commit.c7dfd78e.Emscripten.clang"
  },
  "schemaVersion": "3.4.2",
  "updatedAt": "2021-08-01T13:50:10.997Z",
  "devdoc": {
    "details": "Implementation of https://eips.ethereum.org/EIPS/eip-721[ERC721] Non-Fungible Token Standard, including the Metadata extension, but not including the Enumerable extension, which is available separately as {ERC721Enumerable}.",
    "kind": "dev",
    "methods": {
      "_spend(uint256,address)": {
        "details": "See {IERC721-safeTransferFrom}."
      },
      "approve(address,uint256)": {
        "details": "See {IERC721-approve}."
      },
      "balanceOf(address)": {
        "details": "See {IERC721-balanceOf}."
      },
      "constructor": {
        "details": "Initializes the contract by setting a `name` and a `symbol` to the token collection."
      },
      "getApproved(uint256)": {
        "details": "See {IERC721-getApproved}."
      },
      "isApprovedForAll(address,address)": {
        "details": "See {IERC721-isApprovedForAll}."
      },
      "name()": {
        "details": "See {IERC721Metadata-name}."
      },
      "ownerOf(uint256)": {
        "details": "See {IERC721-ownerOf}."
      },
      "safeTransferFrom(address,address,uint256)": {
        "details": "Safely transfers `tokenId` token from `from` to `to`, checking first that contract recipients are aware of the ERC721 protocol to prevent tokens from being forever locked. Requirements: - `from` cannot be the zero address. - `to` cannot be the zero address. - `tokenId` token must exist and be owned by `from`. - If the caller is not `from`, it must be have been allowed to move this token by either {approve} or {setApprovalForAll}. - If `to` refers to a smart contract, it must implement {IERC721Receiver-onERC721Received}, which is called upon a safe transfer. Emits a {Transfer} event."
      },
      "safeTransferFrom(address,address,uint256,bytes)": {
        "details": "See {IERC721-safeTransferFrom}."
      },
      "setApprovalForAll(address,bool)": {
        "details": "See {IERC721-setApprovalForAll}."
      },
      "supportsInterface(bytes4)": {
        "details": "See {IERC165-supportsInterface}."
      },
      "symbol()": {
        "details": "See {IERC721Metadata-symbol}."
      },
      "tokenURI(uint256)": {
        "details": "See {IERC721Metadata-tokenURI}."
      },
      "transferFrom(address,address,uint256)": {
        "details": "See {IERC721-transferFrom}."
      }
    },
    "version": 1
  },
  "userdoc": {
    "kind": "user",
    "methods": {
      "getToken()": {
        "notice": "Getter and Setter of _token (ERC20)*"
      }
    },
    "version": 1
  }
}