{
  "contractName": "ERC721PresetMinterPauserAutoId",
  "abi": [
    {
      "inputs": [
        {
          "internalType": "string",
          "name": "name",
          "type": "string"
        },
        {
          "internalType": "string",
          "name": "symbol",
          "type": "string"
        },
        {
          "internalType": "string",
          "name": "baseTokenURI",
          "type": "string"
        }
      ],
      "stateMutability": "nonpayable",
      "type": "constructor"
    },
    {
      "anonymous": false,
      "inputs": [
        {
          "indexed": true,
          "internalType": "address",
          "name": "owner",
          "type": "address"
        },
        {
          "indexed": true,
          "internalType": "address",
          "name": "approved",
          "type": "address"
        },
        {
          "indexed": true,
          "internalType": "uint256",
          "name": "tokenId",
          "type": "uint256"
        }
      ],
      "name": "Approval",
      "type": "event"
    },
    {
      "anonymous": false,
      "inputs": [
        {
          "indexed": true,
          "internalType": "address",
          "name": "owner",
          "type": "address"
        },
        {
          "indexed": true,
          "internalType": "address",
          "name": "operator",
          "type": "address"
        },
        {
          "indexed": false,
          "internalType": "bool",
          "name": "approved",
          "type": "bool"
        }
      ],
      "name": "ApprovalForAll",
      "type": "event"
    },
    {
      "anonymous": false,
      "inputs": [
        {
          "indexed": false,
          "internalType": "address",
          "name": "account",
          "type": "address"
        }
      ],
      "name": "Paused",
      "type": "event"
    },
    {
      "anonymous": false,
      "inputs": [
        {
          "indexed": true,
          "internalType": "bytes32",
          "name": "role",
          "type": "bytes32"
        },
        {
          "indexed": true,
          "internalType": "bytes32",
          "name": "previousAdminRole",
          "type": "bytes32"
        },
        {
          "indexed": true,
          "internalType": "bytes32",
          "name": "newAdminRole",
          "type": "bytes32"
        }
      ],
      "name": "RoleAdminChanged",
      "type": "event"
    },
    {
      "anonymous": false,
      "inputs": [
        {
          "indexed": true,
          "internalType": "bytes32",
          "name": "role",
          "type": "bytes32"
        },
        {
          "indexed": true,
          "internalType": "address",
          "name": "account",
          "type": "address"
        },
        {
          "indexed": true,
          "internalType": "address",
          "name": "sender",
          "type": "address"
        }
      ],
      "name": "RoleGranted",
      "type": "event"
    },
    {
      "anonymous": false,
      "inputs": [
        {
          "indexed": true,
          "internalType": "bytes32",
          "name": "role",
          "type": "bytes32"
        },
        {
          "indexed": true,
          "internalType": "address",
          "name": "account",
          "type": "address"
        },
        {
          "indexed": true,
          "internalType": "address",
          "name": "sender",
          "type": "address"
        }
      ],
      "name": "RoleRevoked",
      "type": "event"
    },
    {
      "anonymous": false,
      "inputs": [
        {
          "indexed": true,
          "internalType": "address",
          "name": "from",
          "type": "address"
        },
        {
          "indexed": true,
          "internalType": "address",
          "name": "to",
          "type": "address"
        },
        {
          "indexed": true,
          "internalType": "uint256",
          "name": "tokenId",
          "type": "uint256"
        }
      ],
      "name": "Transfer",
      "type": "event"
    },
    {
      "anonymous": false,
      "inputs": [
        {
          "indexed": false,
          "internalType": "address",
          "name": "account",
          "type": "address"
        }
      ],
      "name": "Unpaused",
      "type": "event"
    },
    {
      "inputs": [],
      "name": "DEFAULT_ADMIN_ROLE",
      "outputs": [
        {
          "internalType": "bytes32",
          "name": "",
          "type": "bytes32"
        }
      ],
      "stateMutability": "view",
      "type": "function"
    },
    {
      "inputs": [],
      "name": "MINTER_ROLE",
      "outputs": [
        {
          "internalType": "bytes32",
          "name": "",
          "type": "bytes32"
        }
      ],
      "stateMutability": "view",
      "type": "function"
    },
    {
      "inputs": [],
      "name": "PAUSER_ROLE",
      "outputs": [
        {
          "internalType": "bytes32",
          "name": "",
          "type": "bytes32"
        }
      ],
      "stateMutability": "view",
      "type": "function"
    },
    {
      "inputs": [
        {
          "internalType": "address",
          "name": "to",
          "type": "address"
        },
        {
          "internalType": "uint256",
          "name": "tokenId",
          "type": "uint256"
        },
        {
          "internalType": "uint256",
          "name": "tokenAmount",
          "type": "uint256"
        }
      ],
      "name": "_mint",
      "outputs": [],
      "stateMutability": "nonpayable",
      "type": "function"
    },
    {
      "inputs": [
        {
          "internalType": "uint256",
          "name": "tokenId",
          "type": "uint256"
        },
        {
          "internalType": "address",
          "name": "to",
          "type": "address"
        }
      ],
      "name": "_spend",
      "outputs": [
        {
          "internalType": "bool",
          "name": "",
          "type": "bool"
        }
      ],
      "stateMutability": "nonpayable",
      "type": "function"
    },
    {
      "inputs": [
        {
          "internalType": "address",
          "name": "to",
          "type": "address"
        },
        {
          "internalType": "uint256",
          "name": "tokenId",
          "type": "uint256"
        }
      ],
      "name": "approve",
      "outputs": [],
      "stateMutability": "nonpayable",
      "type": "function"
    },
    {
      "inputs": [
        {
          "internalType": "address",
          "name": "owner",
          "type": "address"
        }
      ],
      "name": "balanceOf",
      "outputs": [
        {
          "internalType": "uint256",
          "name": "",
          "type": "uint256"
        }
      ],
      "stateMutability": "view",
      "type": "function"
    },
    {
      "inputs": [
        {
          "internalType": "uint256",
          "name": "tokenId",
          "type": "uint256"
        }
      ],
      "name": "burn",
      "outputs": [],
      "stateMutability": "nonpayable",
      "type": "function"
    },
    {
      "inputs": [
        {
          "internalType": "uint256",
          "name": "tokenId",
          "type": "uint256"
        }
      ],
      "name": "getApproved",
      "outputs": [
        {
          "internalType": "address",
          "name": "",
          "type": "address"
        }
      ],
      "stateMutability": "view",
      "type": "function"
    },
    {
      "inputs": [
        {
          "internalType": "uint256",
          "name": "tokenId",
          "type": "uint256"
        }
      ],
      "name": "getAuctionContract",
      "outputs": [
        {
          "internalType": "address",
          "name": "",
          "type": "address"
        }
      ],
      "stateMutability": "view",
      "type": "function"
    },
    {
      "inputs": [
        {
          "internalType": "uint256",
          "name": "tokenId",
          "type": "uint256"
        }
      ],
      "name": "getCreator",
      "outputs": [
        {
          "internalType": "address",
          "name": "",
          "type": "address"
        }
      ],
      "stateMutability": "view",
      "type": "function"
    },
    {
      "inputs": [
        {
          "internalType": "bytes32",
          "name": "role",
          "type": "bytes32"
        }
      ],
      "name": "getRoleAdmin",
      "outputs": [
        {
          "internalType": "bytes32",
          "name": "",
          "type": "bytes32"
        }
      ],
      "stateMutability": "view",
      "type": "function"
    },
    {
      "inputs": [
        {
          "internalType": "bytes32",
          "name": "role",
          "type": "bytes32"
        },
        {
          "internalType": "uint256",
          "name": "index",
          "type": "uint256"
        }
      ],
      "name": "getRoleMember",
      "outputs": [
        {
          "internalType": "address",
          "name": "",
          "type": "address"
        }
      ],
      "stateMutability": "view",
      "type": "function"
    },
    {
      "inputs": [
        {
          "internalType": "bytes32",
          "name": "role",
          "type": "bytes32"
        }
      ],
      "name": "getRoleMemberCount",
      "outputs": [
        {
          "internalType": "uint256",
          "name": "",
          "type": "uint256"
        }
      ],
      "stateMutability": "view",
      "type": "function"
    },
    {
      "inputs": [],
      "name": "getToken",
      "outputs": [
        {
          "internalType": "contract ERC20",
          "name": "",
          "type": "address"
        }
      ],
      "stateMutability": "view",
      "type": "function"
    },
    {
      "inputs": [
        {
          "internalType": "bytes32",
          "name": "role",
          "type": "bytes32"
        },
        {
          "internalType": "address",
          "name": "account",
          "type": "address"
        }
      ],
      "name": "grantRole",
      "outputs": [],
      "stateMutability": "nonpayable",
      "type": "function"
    },
    {
      "inputs": [
        {
          "internalType": "bytes32",
          "name": "role",
          "type": "bytes32"
        },
        {
          "internalType": "address",
          "name": "account",
          "type": "address"
        }
      ],
      "name": "hasRole",
      "outputs": [
        {
          "internalType": "bool",
          "name": "",
          "type": "bool"
        }
      ],
      "stateMutability": "view",
      "type": "function"
    },
    {
      "inputs": [
        {
          "internalType": "address",
          "name": "owner",
          "type": "address"
        },
        {
          "internalType": "address",
          "name": "operator",
          "type": "address"
        }
      ],
      "name": "isApprovedForAll",
      "outputs": [
        {
          "internalType": "bool",
          "name": "",
          "type": "bool"
        }
      ],
      "stateMutability": "view",
      "type": "function"
    },
    {
      "inputs": [],
      "name": "name",
      "outputs": [
        {
          "internalType": "string",
          "name": "",
          "type": "string"
        }
      ],
      "stateMutability": "view",
      "type": "function"
    },
    {
      "inputs": [
        {
          "internalType": "uint256",
          "name": "tokenId",
          "type": "uint256"
        }
      ],
      "name": "ownerOf",
      "outputs": [
        {
          "internalType": "address",
          "name": "",
          "type": "address"
        }
      ],
      "stateMutability": "view",
      "type": "function"
    },
    {
      "inputs": [],
      "name": "paused",
      "outputs": [
        {
          "internalType": "bool",
          "name": "",
          "type": "bool"
        }
      ],
      "stateMutability": "view",
      "type": "function"
    },
    {
      "inputs": [
        {
          "internalType": "bytes32",
          "name": "role",
          "type": "bytes32"
        },
        {
          "internalType": "address",
          "name": "account",
          "type": "address"
        }
      ],
      "name": "renounceRole",
      "outputs": [],
      "stateMutability": "nonpayable",
      "type": "function"
    },
    {
      "inputs": [
        {
          "internalType": "bytes32",
          "name": "role",
          "type": "bytes32"
        },
        {
          "internalType": "address",
          "name": "account",
          "type": "address"
        }
      ],
      "name": "revokeRole",
      "outputs": [],
      "stateMutability": "nonpayable",
      "type": "function"
    },
    {
      "inputs": [
        {
          "internalType": "address",
          "name": "from",
          "type": "address"
        },
        {
          "internalType": "address",
          "name": "to",
          "type": "address"
        },
        {
          "internalType": "uint256",
          "name": "tokenId",
          "type": "uint256"
        }
      ],
      "name": "safeTransferFrom",
      "outputs": [],
      "stateMutability": "nonpayable",
      "type": "function"
    },
    {
      "inputs": [
        {
          "internalType": "address",
          "name": "from",
          "type": "address"
        },
        {
          "internalType": "address",
          "name": "to",
          "type": "address"
        },
        {
          "internalType": "uint256",
          "name": "tokenId",
          "type": "uint256"
        },
        {
          "internalType": "bytes",
          "name": "_data",
          "type": "bytes"
        }
      ],
      "name": "safeTransferFrom",
      "outputs": [],
      "stateMutability": "nonpayable",
      "type": "function"
    },
    {
      "inputs": [
        {
          "internalType": "address",
          "name": "operator",
          "type": "address"
        },
        {
          "internalType": "bool",
          "name": "approved",
          "type": "bool"
        }
      ],
      "name": "setApprovalForAll",
      "outputs": [],
      "stateMutability": "nonpayable",
      "type": "function"
    },
    {
      "inputs": [
        {
          "internalType": "uint256",
          "name": "tokenId",
          "type": "uint256"
        },
        {
          "internalType": "address",
          "name": "auctionAddress",
          "type": "address"
        }
      ],
      "name": "setAuctionContract",
      "outputs": [],
      "stateMutability": "nonpayable",
      "type": "function"
    },
    {
      "inputs": [
        {
          "internalType": "address",
          "name": "tokenAddress",
          "type": "address"
        }
      ],
      "name": "setToken",
      "outputs": [],
      "stateMutability": "nonpayable",
      "type": "function"
    },
    {
      "inputs": [
        {
          "internalType": "uint256",
          "name": "tokenId",
          "type": "uint256"
        },
        {
          "internalType": "uint256",
          "name": "time",
          "type": "uint256"
        }
      ],
      "name": "startAuction",
      "outputs": [],
      "stateMutability": "nonpayable",
      "type": "function"
    },
    {
      "inputs": [],
      "name": "symbol",
      "outputs": [
        {
          "internalType": "string",
          "name": "",
          "type": "string"
        }
      ],
      "stateMutability": "view",
      "type": "function"
    },
    {
      "inputs": [
        {
          "internalType": "uint256",
          "name": "index",
          "type": "uint256"
        }
      ],
      "name": "tokenByIndex",
      "outputs": [
        {
          "internalType": "uint256",
          "name": "",
          "type": "uint256"
        }
      ],
      "stateMutability": "view",
      "type": "function"
    },
    {
      "inputs": [
        {
          "internalType": "address",
          "name": "owner",
          "type": "address"
        },
        {
          "internalType": "uint256",
          "name": "index",
          "type": "uint256"
        }
      ],
      "name": "tokenOfOwnerByIndex",
      "outputs": [
        {
          "internalType": "uint256",
          "name": "",
          "type": "uint256"
        }
      ],
      "stateMutability": "view",
      "type": "function"
    },
    {
      "inputs": [
        {
          "internalType": "uint256",
          "name": "tokenId",
          "type": "uint256"
        }
      ],
      "name": "tokenURI",
      "outputs": [
        {
          "internalType": "string",
          "name": "",
          "type": "string"
        }
      ],
      "stateMutability": "view",
      "type": "function"
    },
    {
      "inputs": [],
      "name": "totalSupply",
      "outputs": [
        {
          "internalType": "uint256",
          "name": "",
          "type": "uint256"
        }
      ],
      "stateMutability": "view",
      "type": "function"
    },
    {
      "inputs": [
        {
          "internalType": "address",
          "name": "from",
          "type": "address"
        },
        {
          "internalType": "address",
          "name": "to",
          "type": "address"
        },
        {
          "internalType": "uint256",
          "name": "tokenId",
          "type": "uint256"
        }
      ],
      "name": "transferFrom",
      "outputs": [],
      "stateMutability": "nonpayable",
      "type": "function"
    },
    {
      "inputs": [
        {
          "internalType": "address",
          "name": "to",
          "type": "address"
        },
        {
          "internalType": "uint256",
          "name": "tokenAmount",
          "type": "uint256"
        }
      ],
      "name": "mint",
      "outputs": [],
      "stateMutability": "nonpayable",
      "type": "function"
    },
    {
      "inputs": [],
      "name": "pause",
      "outputs": [],
      "stateMutability": "nonpayable",
      "type": "function"
    },
    {
      "inputs": [],
      "name": "unpause",
      "outputs": [],
      "stateMutability": "nonpayable",
      "type": "function"
    },
    {
      "inputs": [
        {
          "internalType": "bytes4",
          "name": "interfaceId",
          "type": "bytes4"
        }
      ],
      "name": "supportsInterface",
      "outputs": [
        {
          "internalType": "bool",
          "name": "",
          "type": "bool"
        }
      ],
      "stateMutability": "view",
      "type": "function"
    }
  ],
  "bytecode": "0x60806040523480156200001157600080fd5b50604051620078703803806200787083398181016040528101906200003791906200057e565b82828160039080519060200190620000519291906200045c565b5080600490805190602001906200006a9291906200045c565b5050506000600f60006101000a81548160ff0219169083151502179055508060119080519060200190620000a09291906200045c565b50620000d86000600102620000c362000187640100000000026401000000009004565b6200018f640100000000026401000000009004565b6200012b7f9f2df0fed2c77648de5860a4cc508cd0818c85b8b8a1ab4ceeef8d981c8956a66200011662000187640100000000026401000000009004565b6200018f640100000000026401000000009004565b6200017e7f65d7a28e3265b37a6474929f336521b332c1681b933f6cb9f3376673440d862a6200016962000187640100000000026401000000009004565b6200018f640100000000026401000000009004565b50505062000750565b600033905090565b620001af8282620001e96401000000000262001dde176401000000009004565b620001e48160016000858152602001908152602001600020620002086401000000000262001dee179091906401000000009004565b505050565b62000204828262000249640100000000026401000000009004565b5050565b600062000241836000018373ffffffffffffffffffffffffffffffffffffffff166001026200034c640100000000026401000000009004565b905092915050565b620002648282620003cf640100000000026401000000009004565b6200034857600160008084815260200190815260200160002060000160008373ffffffffffffffffffffffffffffffffffffffff1673ffffffffffffffffffffffffffffffffffffffff16815260200190815260200160002060006101000a81548160ff021916908315150217905550620002ed62000187640100000000026401000000009004565b73ffffffffffffffffffffffffffffffffffffffff168173ffffffffffffffffffffffffffffffffffffffff16837f2f8788117e7eff1d82e926ec794901d17c78024a50270940304540a733656f0d60405160405180910390a45b5050565b600062000369838362000439640100000000026401000000009004565b620003c4578260000182908060018154018082558091505060019003906000526020600020016000909190919091505582600001805490508360010160008481526020019081526020016000208190555060019050620003c9565b600090505b92915050565b600080600084815260200190815260200160002060000160008373ffffffffffffffffffffffffffffffffffffffff1673ffffffffffffffffffffffffffffffffffffffff16815260200190815260200160002060009054906101000a900460ff16905092915050565b600080836001016000848152602001908152602001600020541415905092915050565b8280546200046a90620006bc565b90600052602060002090601f0160209004810192826200048e5760008555620004da565b82601f10620004a957805160ff1916838001178555620004da565b82800160010185558215620004da579182015b82811115620004d9578251825591602001919060010190620004bc565b5b509050620004e99190620004ed565b5090565b5b8082111562000508576000816000905550600101620004ee565b5090565b6000620005236200051d8462000653565b6200061f565b9050828152602081018484840111156200053c57600080fd5b6200054984828562000686565b509392505050565b600082601f8301126200056357600080fd5b8151620005758482602086016200050c565b91505092915050565b6000806000606084860312156200059457600080fd5b600084015167ffffffffffffffff811115620005af57600080fd5b620005bd8682870162000551565b935050602084015167ffffffffffffffff811115620005db57600080fd5b620005e98682870162000551565b925050604084015167ffffffffffffffff8111156200060757600080fd5b620006158682870162000551565b9150509250925092565b6000604051905081810181811067ffffffffffffffff8211171562000649576200064862000721565b5b8060405250919050565b600067ffffffffffffffff82111562000671576200067062000721565b5b601f19601f8301169050602081019050919050565b60005b83811015620006a657808201518184015260208101905062000689565b83811115620006b6576000848401525b50505050565b60006002820490506001821680620006d557607f821691505b60208210811415620006ec57620006eb620006f2565b5b50919050565b7f4e487b7100000000000000000000000000000000000000000000000000000000600052602260045260246000fd5b7f4e487b7100000000000000000000000000000000000000000000000000000000600052604160045260246000fd5b61711080620007606000396000f3fe60806040523480156200001157600080fd5b506004361062000291576000357c0100000000000000000000000000000000000000000000000000000000900480636352211e1162000176578063b88d4fde11620000e6578063d547741f11620000a4578063d547741f14620007da578063e506dfbe14620007fa578063e63ab1e91462000830578063e985e9c51462000852578063fc9b5fc814620008885762000291565b8063b88d4fde14620006f6578063c87b56dd1462000716578063ca15c873146200074c578063d48e638a1462000782578063d539139314620007b85762000291565b806391d14854116200013457806391d1485414620006265780639564470e146200065c57806395d89b411462000692578063a217fddf14620006b4578063a22cb46514620006d65762000291565b80636352211e146200055857806370a08231146200058e5780637776afa014620005c45780638456cb5914620005e45780639010d07c14620005f05762000291565b80632f2ff15d116200021257806342842e0e11620001d057806342842e0e14620004a057806342966c6814620004c05780634f6ccce714620004e05780634fee13fc14620005165780635c975abb14620005365762000291565b80632f2ff15d14620003fe5780632f745c59146200041e57806336568abe14620004545780633f4ba83a146200047457806340c10f1914620004805762000291565b8063144fa6d71162000260578063144fa6d7146200034457806318160ddd146200036457806321df0da7146200038657806323b872dd14620003a8578063248a9ca314620003c85762000291565b806301ffc9a7146200029657806306fdde0314620002cc578063081812fc14620002ee578063095ea7b31462000324575b600080fd5b620002b46004803603810190620002ae919062003f84565b620008a8565b604051620002c3919062004cd0565b60405180910390f35b620002d6620008bc565b604051620002e5919062004d27565b60405180910390f35b6200030c600480360381019062000306919062003fdc565b62000956565b6040516200031b919062004c32565b60405180910390f35b6200034260048036038101906200033c919062003e13565b620009e0565b005b6200036260048036038101906200035c919062003c8a565b62000b09565b005b6200036e62000b4d565b6040516200037d9190620050bf565b60405180910390f35b6200039062000b5a565b6040516200039f919062004d0a565b60405180910390f35b620003c66004803603810190620003c0919062003cf7565b62000b84565b005b620003e66004803603810190620003e0919062003ed6565b62000bed565b604051620003f5919062004ced565b60405180910390f35b6200041c600480360381019062000416919062003f02565b62000c0c565b005b6200043c600480360381019062000436919062003e13565b62000c44565b6040516200044b9190620050bf565b60405180910390f35b6200047260048036038101906200046c919062003f02565b62000cee565b005b6200047e62000d26565b005b6200049e600480360381019062000498919062003e13565b62000da9565b005b620004be6004803603810190620004b8919062003cf7565b62000e48565b005b620004de6004803603810190620004d8919062003fdc565b62000e6a565b005b620004fe6004803603810190620004f8919062003fdc565b62000ecf565b6040516200050d9190620050bf565b60405180910390f35b6200053460048036038101906200052e919062004049565b62000f6c565b005b620005406200121d565b6040516200054f919062004cd0565b60405180910390f35b62000576600480360381019062000570919062003fdc565b62001234565b60405162000585919062004c32565b60405180910390f35b620005ac6004803603810190620005a6919062003c8a565b620012e9565b604051620005bb9190620050bf565b60405180910390f35b620005e26004803603810190620005dc919062003e54565b620013a4565b005b620005ee620016ac565b005b6200060e600480360381019062000608919062003f43565b6200172f565b6040516200061d919062004c32565b60405180910390f35b6200064460048036038101906200063e919062003f02565b62001760565b60405162000653919062004cd0565b60405180910390f35b6200067a600480360381019062000674919062004008565b620017ca565b60405162000689919062004cd0565b60405180910390f35b6200069c620017e3565b604051620006ab919062004d27565b60405180910390f35b620006be6200187d565b604051620006cd919062004ced565b60405180910390f35b620006f46004803603810190620006ee919062003dd2565b62001885565b005b6200071460048036038101906200070e919062003d4d565b62001a11565b005b6200073460048036038101906200072e919062003fdc565b62001a7c565b60405162000743919062004d27565b60405180910390f35b6200076a600480360381019062000764919062003ed6565b62001b30565b604051620007799190620050bf565b60405180910390f35b620007a060048036038101906200079a919062003fdc565b62001b56565b604051620007af919062004c32565b60405180910390f35b620007c262001b93565b604051620007d1919062004ced565b60405180910390f35b620007f86004803603810190620007f2919062003f02565b62001bb7565b005b62000818600480360381019062000812919062003fdc565b62001bef565b60405162000827919062004c32565b60405180910390f35b6200083a62001c2c565b60405162000849919062004ced565b60405180910390f35b6200087060048036038101906200086a919062003cb6565b62001c50565b6040516200087f919062004cd0565b60405180910390f35b620008a66004803603810190620008a0919062004008565b62001ce4565b005b6000620008b58262001e20565b9050919050565b606060038054620008cd906200545d565b80601f0160208091040260200160405190810160405280929190818152602001828054620008fb906200545d565b80156200094c5780601f1062000920576101008083540402835291602001916200094c565b820191906000526020600020905b8154815290600101906020018083116200092e57829003601f168201915b5050505050905090565b6000620009638262001e9d565b620009a5576040517f08c379a00000000000000000000000000000000000000000000000000000000081526004016200099c9062004f49565b60405180910390fd5b6008600083815260200190815260200160002060009054906101000a900473ffffffffffffffffffffffffffffffffffffffff169050919050565b6000620009ed8262001234565b90508073ffffffffffffffffffffffffffffffffffffffff168373ffffffffffffffffffffffffffffffffffffffff16141562000a61576040517f08c379a000000000000000000000000000000000000000000000000000000000815260040162000a589062004fd1565b60405180910390fd5b8073ffffffffffffffffffffffffffffffffffffffff1662000a8262001f09565b73ffffffffffffffffffffffffffffffffffffffff16148062000ab6575062000ab58162000aaf62001f09565b62001c50565b5b62000af8576040517f08c379a000000000000000000000000000000000000000000000000000000000815260040162000aef9062004ec1565b60405180910390fd5b62000b04838362001f11565b505050565b80600260006101000a81548173ffffffffffffffffffffffffffffffffffffffff021916908373ffffffffffffffffffffffffffffffffffffffff16021790555050565b6000600d80549050905090565b6000600260009054906101000a900473ffffffffffffffffffffffffffffffffffffffff16905090565b62000b9962000b9262001f09565b8262001fcc565b62000bdb576040517f08c379a000000000000000000000000000000000000000000000000000000000815260040162000bd29062004ff3565b60405180910390fd5b62000be8838383620020b7565b505050565b6000806000838152602001908152602001600020600101549050919050565b62000c18828262002323565b62000c3f816001600085815260200190815260200160002062001dee90919063ffffffff16565b505050565b600062000c5183620012e9565b821062000c95576040517f08c379a000000000000000000000000000000000000000000000000000000000815260040162000c8c9062004db1565b60405180910390fd5b600b60008473ffffffffffffffffffffffffffffffffffffffff1673ffffffffffffffffffffffffffffffffffffffff168152602001908152602001600020600083815260200190815260200160002054905092915050565b62000cfa828262002354565b62000d218160016000858152602001908152602001600020620023de90919063ffffffff16565b505050565b62000d5b7f65d7a28e3265b37a6474929f336521b332c1681b933f6cb9f3376673440d862a62000d5562001f09565b62001760565b62000d9d576040517f08c379a000000000000000000000000000000000000000000000000000000000815260040162000d94906200507b565b60405180910390fd5b62000da762002410565b565b62000dde7f9f2df0fed2c77648de5860a4cc508cd0818c85b8b8a1ab4ceeef8d981c8956a662000dd862001f09565b62001760565b62000e20576040517f08c379a000000000000000000000000000000000000000000000000000000000815260040162000e179062005037565b60405180910390fd5b62000e388262000e316010620024bb565b83620013a4565b62000e446010620024c9565b5050565b62000e658383836040518060200160405280600081525062001a11565b505050565b62000e7f62000e7862001f09565b8262001fcc565b62000ec1576040517f08c379a000000000000000000000000000000000000000000000000000000000815260040162000eb89062005059565b60405180910390fd5b62000ecc81620024df565b50565b600062000edb62000b4d565b821062000f1f576040517f08c379a000000000000000000000000000000000000000000000000000000000815260040162000f169062005015565b60405180910390fd5b600d828154811062000f5a577f4e487b7100000000000000000000000000000000000000000000000000000000600052603260045260246000fd5b90600052602060002001549050919050565b6005600083815260200190815260200160002060009054906101000a900473ffffffffffffffffffffffffffffffffffffffff1673ffffffffffffffffffffffffffffffffffffffff163373ffffffffffffffffffffffffffffffffffffffff161462001010576040517f08c379a0000000000000000000000000000000000000000000000000000000008152600401620010079062004f6b565b60405180910390fd5b81816005600085815260200190815260200160002060009054906101000a900473ffffffffffffffffffffffffffffffffffffffff16600260009054906101000a900473ffffffffffffffffffffffffffffffffffffffff1630604051620010789062003b69565b6200108895949392919062005109565b604051809103906000f080158015620010a5573d6000803e3d6000fd5b50600a600084815260200190815260200160002060006101000a81548173ffffffffffffffffffffffffffffffffffffffff021916908373ffffffffffffffffffffffffffffffffffffffff1602179055506200113733600a600085815260200190815260200160002060009054906101000a900473ffffffffffffffffffffffffffffffffffffffff168462000e48565b600260009054906101000a900473ffffffffffffffffffffffffffffffffffffffff1673ffffffffffffffffffffffffffffffffffffffff1663746e8e7083600a600086815260200190815260200160002060009054906101000a900473ffffffffffffffffffffffffffffffffffffffff166040518363ffffffff167c0100000000000000000000000000000000000000000000000000000000028152600401620011e5929190620050dc565b600060405180830381600087803b1580156200120057600080fd5b505af115801562001215573d6000803e3d6000fd5b505050505050565b6000600f60009054906101000a900460ff16905090565b6000806005600084815260200190815260200160002060009054906101000a900473ffffffffffffffffffffffffffffffffffffffff169050600073ffffffffffffffffffffffffffffffffffffffff168173ffffffffffffffffffffffffffffffffffffffff161415620012e0576040517f08c379a0000000000000000000000000000000000000000000000000000000008152600401620012d79062004f05565b60405180910390fd5b80915050919050565b60008073ffffffffffffffffffffffffffffffffffffffff168273ffffffffffffffffffffffffffffffffffffffff1614156200135d576040517f08c379a0000000000000000000000000000000000000000000000000000000008152600401620013549062004ee3565b60405180910390fd5b600760008373ffffffffffffffffffffffffffffffffffffffff1673ffffffffffffffffffffffffffffffffffffffff168152602001908152602001600020549050919050565b600073ffffffffffffffffffffffffffffffffffffffff168373ffffffffffffffffffffffffffffffffffffffff16141562001417576040517f08c379a00000000000000000000000000000000000000000000000000000000081526004016200140e9062004f27565b60405180910390fd5b620014228262001e9d565b1562001465576040517f08c379a00000000000000000000000000000000000000000000000000000000081526004016200145c9062004df5565b60405180910390fd5b600081116200147357600080fd5b600260009054906101000a900473ffffffffffffffffffffffffffffffffffffffff1673ffffffffffffffffffffffffffffffffffffffff16636aade28884836040518363ffffffff167c0100000000000000000000000000000000000000000000000000000000028152600401620014ee92919062004ca3565b602060405180830381600087803b1580156200150957600080fd5b505af11580156200151e573d6000803e3d6000fd5b505050506040513d601f19601f8201168201806040525081019062001544919062003eaa565b6200154e57600080fd5b6001600760008573ffffffffffffffffffffffffffffffffffffffff1673ffffffffffffffffffffffffffffffffffffffff1681526020019081526020016000206000828254620015a0919062005210565b92505081905550826005600084815260200190815260200160002060006101000a81548173ffffffffffffffffffffffffffffffffffffffff021916908373ffffffffffffffffffffffffffffffffffffffff160217905550826006600084815260200190815260200160002060006101000a81548173ffffffffffffffffffffffffffffffffffffffff021916908373ffffffffffffffffffffffffffffffffffffffff160217905550818373ffffffffffffffffffffffffffffffffffffffff16600073ffffffffffffffffffffffffffffffffffffffff167fddf252ad1be2c89b69c2b068fc378daa952ba7f163c4a11628f55a4df523b3ef60405160405180910390a4505050565b620016e17f65d7a28e3265b37a6474929f336521b332c1681b933f6cb9f3376673440d862a620016db62001f09565b62001760565b62001723576040517f08c379a00000000000000000000000000000000000000000000000000000000081526004016200171a9062004e17565b60405180910390fd5b6200172d620025ea565b565b60006200175882600160008681526020019081526020016000206200269690919063ffffffff16565b905092915050565b600080600084815260200190815260200160002060000160008373ffffffffffffffffffffffffffffffffffffffff1673ffffffffffffffffffffffffffffffffffffffff16815260200190815260200160002060009054906101000a900460ff16905092915050565b6000620017d933838562000e48565b6001905092915050565b606060048054620017f4906200545d565b80601f016020809104026020016040519081016040528092919081815260200182805462001822906200545d565b8015620018735780601f10620018475761010080835404028352916020019162001873565b820191906000526020600020905b8154815290600101906020018083116200185557829003601f168201915b5050505050905090565b600060010281565b6200188f62001f09565b73ffffffffffffffffffffffffffffffffffffffff168273ffffffffffffffffffffffffffffffffffffffff16141562001900576040517f08c379a0000000000000000000000000000000000000000000000000000000008152600401620018f79062004e5b565b60405180910390fd5b80600960006200190f62001f09565b73ffffffffffffffffffffffffffffffffffffffff1673ffffffffffffffffffffffffffffffffffffffff16815260200190815260200160002060008473ffffffffffffffffffffffffffffffffffffffff1673ffffffffffffffffffffffffffffffffffffffff16815260200190815260200160002060006101000a81548160ff0219169083151502179055508173ffffffffffffffffffffffffffffffffffffffff16620019be62001f09565b73ffffffffffffffffffffffffffffffffffffffff167f17307eab39ab6107e8899845ad3d59bd9653f200f220920489ca2b5937696c318360405162001a05919062004cd0565b60405180910390a35050565b62001a2662001a1f62001f09565b8362001fcc565b62001a68576040517f08c379a000000000000000000000000000000000000000000000000000000000815260040162001a5f9062004ff3565b60405180910390fd5b62001a7684848484620026b3565b50505050565b606062001a898262001e9d565b62001acb576040517f08c379a000000000000000000000000000000000000000000000000000000000815260040162001ac29062004faf565b60405180910390fd5b600062001ad762002716565b9050600081511162001af9576040518060200160405280600081525062001b28565b8062001b0584620027b0565b60405160200162001b1892919062004bc8565b6040516020818303038152906040525b915050919050565b600062001b4f6001600084815260200190815260200160002062002991565b9050919050565b60006006600083815260200190815260200160002060009054906101000a900473ffffffffffffffffffffffffffffffffffffffff169050919050565b7f9f2df0fed2c77648de5860a4cc508cd0818c85b8b8a1ab4ceeef8d981c8956a681565b62001bc38282620029a8565b62001bea8160016000858152602001908152602001600020620023de90919063ffffffff16565b505050565b6000600a600083815260200190815260200160002060009054906101000a900473ffffffffffffffffffffffffffffffffffffffff169050919050565b7f65d7a28e3265b37a6474929f336521b332c1681b933f6cb9f3376673440d862a81565b6000600960008473ffffffffffffffffffffffffffffffffffffffff1673ffffffffffffffffffffffffffffffffffffffff16815260200190815260200160002060008373ffffffffffffffffffffffffffffffffffffffff1673ffffffffffffffffffffffffffffffffffffffff16815260200190815260200160002060009054906101000a900460ff16905092915050565b6005600083815260200190815260200160002060009054906101000a900473ffffffffffffffffffffffffffffffffffffffff1673ffffffffffffffffffffffffffffffffffffffff163373ffffffffffffffffffffffffffffffffffffffff161462001d88576040517f08c379a000000000000000000000000000000000000000000000000000000000815260040162001d7f9062004f6b565b60405180910390fd5b80600a600084815260200190815260200160002060006101000a81548173ffffffffffffffffffffffffffffffffffffffff021916908373ffffffffffffffffffffffffffffffffffffffff1602179055505050565b62001dea8282620029d9565b5050565b600062001e18836000018373ffffffffffffffffffffffffffffffffffffffff1660010262002abe565b905092915050565b60007f780e9d63000000000000000000000000000000000000000000000000000000007bffffffffffffffffffffffffffffffffffffffffffffffffffffffff1916827bffffffffffffffffffffffffffffffffffffffffffffffffffffffff1916148062001e96575062001e958262002b32565b5b9050919050565b60008073ffffffffffffffffffffffffffffffffffffffff166005600084815260200190815260200160002060009054906101000a900473ffffffffffffffffffffffffffffffffffffffff1673ffffffffffffffffffffffffffffffffffffffff1614159050919050565b600033905090565b816008600083815260200190815260200160002060006101000a81548173ffffffffffffffffffffffffffffffffffffffff021916908373ffffffffffffffffffffffffffffffffffffffff160217905550808273ffffffffffffffffffffffffffffffffffffffff1662001f868362001234565b73ffffffffffffffffffffffffffffffffffffffff167f8c5be1e5ebec7d5bd14f71427d1e84f3dd0314c0f7b2291e5b200ac8c7c3b92560405160405180910390a45050565b600062001fd98262001e9d565b6200201b576040517f08c379a0000000000000000000000000000000000000000000000000000000008152600401620020129062004e7d565b60405180910390fd5b6000620020288362001234565b90508073ffffffffffffffffffffffffffffffffffffffff168473ffffffffffffffffffffffffffffffffffffffff1614806200209a57508373ffffffffffffffffffffffffffffffffffffffff16620020828462000956565b73ffffffffffffffffffffffffffffffffffffffff16145b80620020ae5750620020ad818562001c50565b5b91505092915050565b8273ffffffffffffffffffffffffffffffffffffffff16620020d98262001234565b73ffffffffffffffffffffffffffffffffffffffff161462002132576040517f08c379a0000000000000000000000000000000000000000000000000000000008152600401620021299062004f8d565b60405180910390fd5b600073ffffffffffffffffffffffffffffffffffffffff168273ffffffffffffffffffffffffffffffffffffffff161415620021a5576040517f08c379a00000000000000000000000000000000000000000000000000000000081526004016200219c9062004e39565b60405180910390fd5b620021b283838362002c18565b620021bf60008262001f11565b6001600760008573ffffffffffffffffffffffffffffffffffffffff1673ffffffffffffffffffffffffffffffffffffffff168152602001908152602001600020600082825462002211919062005306565b925050819055506001600760008473ffffffffffffffffffffffffffffffffffffffff1673ffffffffffffffffffffffffffffffffffffffff16815260200190815260200160002060008282546200226a919062005210565b92505081905550816005600083815260200190815260200160002060006101000a81548173ffffffffffffffffffffffffffffffffffffffff021916908373ffffffffffffffffffffffffffffffffffffffff160217905550808273ffffffffffffffffffffffffffffffffffffffff168473ffffffffffffffffffffffffffffffffffffffff167fddf252ad1be2c89b69c2b068fc378daa952ba7f163c4a11628f55a4df523b3ef60405160405180910390a4505050565b6200232e8262000bed565b62002343816200233d62001f09565b62002c2a565b6200234f8383620029d9565b505050565b6200235e62001f09565b73ffffffffffffffffffffffffffffffffffffffff168173ffffffffffffffffffffffffffffffffffffffff1614620023ce576040517f08c379a0000000000000000000000000000000000000000000000000000000008152600401620023c5906200509d565b60405180910390fd5b620023da828262002cd3565b5050565b600062002408836000018373ffffffffffffffffffffffffffffffffffffffff1660010262002db9565b905092915050565b6200241a6200121d565b6200245c576040517f08c379a0000000000000000000000000000000000000000000000000000000008152600401620024539062004d8f565b60405180910390fd5b6000600f60006101000a81548160ff0219169083151502179055507f5db9ee0a495bf2e6ff9c91a7834c1ba4fdd244a5e8aa4e537bd38aeae4b073aa620024a262001f09565b604051620024b1919062004c32565b60405180910390a1565b600081600001549050919050565b6001816000016000828254019250508190555050565b6000620024ec8262001234565b9050620024fb60008362001f11565b6001600760008373ffffffffffffffffffffffffffffffffffffffff1673ffffffffffffffffffffffffffffffffffffffff16815260200190815260200160002060008282546200254d919062005306565b925050819055506005600083815260200190815260200160002060006101000a81549073ffffffffffffffffffffffffffffffffffffffff021916905581600073ffffffffffffffffffffffffffffffffffffffff168273ffffffffffffffffffffffffffffffffffffffff167fddf252ad1be2c89b69c2b068fc378daa952ba7f163c4a11628f55a4df523b3ef60405160405180910390a45050565b620025f46200121d565b1562002637576040517f08c379a00000000000000000000000000000000000000000000000000000000081526004016200262e9062004e9f565b60405180910390fd5b6001600f60006101000a81548160ff0219169083151502179055507f62e78cea01bee320cd4e420270b5ea74000d11b0c9f74754ebdbfc544b05a2586200267d62001f09565b6040516200268c919062004c32565b60405180910390a1565b6000620026a7836000018362002f49565b60019004905092915050565b620026c0848484620020b7565b620026ce8484848462002f9b565b62002710576040517f08c379a0000000000000000000000000000000000000000000000000000000008152600401620027079062004dd3565b60405180910390fd5b50505050565b60606011805462002727906200545d565b80601f016020809104026020016040519081016040528092919081815260200182805462002755906200545d565b8015620027a65780601f106200277a57610100808354040283529160200191620027a6565b820191906000526020600020905b8154815290600101906020018083116200278857829003601f168201915b5050505050905090565b60606000821415620027fa576040518060400160405280600181526020017f300000000000000000000000000000000000000000000000000000000000000081525090506200298c565b600082905060005b6000821462002832578080620028189062005493565b915050600a826200282a91906200526d565b915062002802565b60008167ffffffffffffffff81111562002875577f4e487b7100000000000000000000000000000000000000000000000000000000600052604160045260246000fd5b6040519080825280601f01601f191660200182016040528015620028a85781602001600182028036833780820191505090505b5090505b600085146200298557600182620028c4919062005306565b9150600a85620028d59190620054e1565b6030620028e3919062005210565b7f0100000000000000000000000000000000000000000000000000000000000000028183815181106200293f577f4e487b7100000000000000000000000000000000000000000000000000000000600052603260045260246000fd5b60200101907effffffffffffffffffffffffffffffffffffffffffffffffffffffffffffff1916908160001a905350600a856200297d91906200526d565b9450620028ac565b8093505050505b919050565b6000620029a1826000016200317c565b9050919050565b620029b38262000bed565b620029c881620029c262001f09565b62002c2a565b620029d4838362002cd3565b505050565b620029e5828262001760565b62002aba57600160008084815260200190815260200160002060000160008373ffffffffffffffffffffffffffffffffffffffff1673ffffffffffffffffffffffffffffffffffffffff16815260200190815260200160002060006101000a81548160ff02191690831515021790555062002a5f62001f09565b73ffffffffffffffffffffffffffffffffffffffff168173ffffffffffffffffffffffffffffffffffffffff16837f2f8788117e7eff1d82e926ec794901d17c78024a50270940304540a733656f0d60405160405180910390a45b5050565b600062002acc83836200318d565b62002b2757826000018290806001815401808255809150506001900390600052602060002001600090919091909150558260000180549050836001016000848152602001908152602001600020819055506001905062002b2c565b600090505b92915050565b60007f80ac58cd000000000000000000000000000000000000000000000000000000007bffffffffffffffffffffffffffffffffffffffffffffffffffffffff1916827bffffffffffffffffffffffffffffffffffffffffffffffffffffffff1916148062002bfe57507f5b5e139f000000000000000000000000000000000000000000000000000000007bffffffffffffffffffffffffffffffffffffffffffffffffffffffff1916827bffffffffffffffffffffffffffffffffffffffffffffffffffffffff1916145b8062002c11575062002c1082620031b0565b5b9050919050565b62002c258383836200322d565b505050565b62002c36828262001760565b62002ccf5762002c5e8173ffffffffffffffffffffffffffffffffffffffff1660146200328c565b62002c6f836001900460206200328c565b60405160200162002c8292919062004bf0565b6040516020818303038152906040526040517f08c379a000000000000000000000000000000000000000000000000000000000815260040162002cc6919062004d27565b60405180910390fd5b5050565b62002cdf828262001760565b1562002db557600080600084815260200190815260200160002060000160008373ffffffffffffffffffffffffffffffffffffffff1673ffffffffffffffffffffffffffffffffffffffff16815260200190815260200160002060006101000a81548160ff02191690831515021790555062002d5a62001f09565b73ffffffffffffffffffffffffffffffffffffffff168173ffffffffffffffffffffffffffffffffffffffff16837ff6391f5c32d9c69d2a47ea670b442974b53935d1edc7fd64eb21e047a839171b60405160405180910390a45b5050565b6000808360010160008481526020019081526020016000205490506000811462002f3d57600060018262002dee919062005306565b905060006001866000018054905062002e08919062005306565b905081811462002ec657600086600001828154811062002e51577f4e487b7100000000000000000000000000000000000000000000000000000000600052603260045260246000fd5b906000526020600020015490508087600001848154811062002e9c577f4e487b7100000000000000000000000000000000000000000000000000000000600052603260045260246000fd5b90600052602060002001819055508387600101600083815260200190815260200160002081905550505b8560000180548062002f01577f4e487b7100000000000000000000000000000000000000000000000000000000600052603160045260246000fd5b60019003818190600052602060002001600090559055856001016000868152602001908152602001600020600090556001935050505062002f43565b60009150505b92915050565b600082600001828154811062002f88577f4e487b7100000000000000000000000000000000000000000000000000000000600052603260045260246000fd5b9060005260206000200154905092915050565b600062002fbe8473ffffffffffffffffffffffffffffffffffffffff16620035c2565b156200316f578373ffffffffffffffffffffffffffffffffffffffff1663150b7a0262002fea62001f09565b8786866040518563ffffffff167c01000000000000000000000000000000000000000000000000000000000281526004016200302a949392919062004c4f565b602060405180830381600087803b1580156200304557600080fd5b505af19250505080156200307957506040513d601f19601f8201168201806040525081019062003076919062003fb0565b60015b62003102573d8060008114620030ac576040519150601f19603f3d011682016040523d82523d6000602084013e620030b1565b606091505b50600081511415620030fa576040517f08c379a0000000000000000000000000000000000000000000000000000000008152600401620030f19062004dd3565b60405180910390fd5b805181602001fd5b63150b7a027c0100000000000000000000000000000000000000000000000000000000027bffffffffffffffffffffffffffffffffffffffffffffffffffffffff1916817bffffffffffffffffffffffffffffffffffffffffffffffffffffffff19161491505062003174565b600190505b949350505050565b600081600001805490509050919050565b600080836001016000848152602001908152602001600020541415905092915050565b60007f5a05180f000000000000000000000000000000000000000000000000000000007bffffffffffffffffffffffffffffffffffffffffffffffffffffffff1916827bffffffffffffffffffffffffffffffffffffffffffffffffffffffff191614806200322657506200322582620035d5565b5b9050919050565b6200323a83838362003652565b620032446200121d565b1562003287576040517f08c379a00000000000000000000000000000000000000000000000000000000081526004016200327e9062004d6d565b60405180910390fd5b505050565b606060006002836002620032a19190620052a5565b620032ad919062005210565b67ffffffffffffffff811115620032ed577f4e487b7100000000000000000000000000000000000000000000000000000000600052604160045260246000fd5b6040519080825280601f01601f191660200182016040528015620033205781602001600182028036833780820191505090505b5090507f3000000000000000000000000000000000000000000000000000000000000000816000815181106200337f577f4e487b7100000000000000000000000000000000000000000000000000000000600052603260045260246000fd5b60200101907effffffffffffffffffffffffffffffffffffffffffffffffffffffffffffff1916908160001a9053507f7800000000000000000000000000000000000000000000000000000000000000816001815181106200340a577f4e487b7100000000000000000000000000000000000000000000000000000000600052603260045260246000fd5b60200101907effffffffffffffffffffffffffffffffffffffffffffffffffffffffffffff1916908160001a905350600060018460026200344c9190620052a5565b62003458919062005210565b90505b600181111562003571577f3031323334353637383961626364656600000000000000000000000000000000600f861660108110620034c2577f4e487b7100000000000000000000000000000000000000000000000000000000600052603260045260246000fd5b1a7f0100000000000000000000000000000000000000000000000000000000000000028282815181106200351f577f4e487b7100000000000000000000000000000000000000000000000000000000600052603260045260246000fd5b60200101907effffffffffffffffffffffffffffffffffffffffffffffffffffffffffffff1916908160001a905350600485908060020a820491505094508062003569906200542e565b90506200345b565b5060008414620035b8576040517f08c379a0000000000000000000000000000000000000000000000000000000008152600401620035af9062004d4b565b60405180910390fd5b8091505092915050565b600080823b905060008111915050919050565b60007f7965db0b000000000000000000000000000000000000000000000000000000007bffffffffffffffffffffffffffffffffffffffffffffffffffffffff1916827bffffffffffffffffffffffffffffffffffffffffffffffffffffffff191614806200364b57506200364a8262003776565b5b9050919050565b6200365f838383620037e0565b600073ffffffffffffffffffffffffffffffffffffffff168373ffffffffffffffffffffffffffffffffffffffff161415620036a657620036a081620037e5565b620036e8565b8173ffffffffffffffffffffffffffffffffffffffff168373ffffffffffffffffffffffffffffffffffffffff1614620036e757620036e683826200382e565b5b5b600073ffffffffffffffffffffffffffffffffffffffff168273ffffffffffffffffffffffffffffffffffffffff1614156200372f576200372981620039a0565b62003771565b8273ffffffffffffffffffffffffffffffffffffffff168273ffffffffffffffffffffffffffffffffffffffff161462003770576200376f828262003ae8565b5b5b505050565b60007f01ffc9a7000000000000000000000000000000000000000000000000000000007bffffffffffffffffffffffffffffffffffffffffffffffffffffffff1916827bffffffffffffffffffffffffffffffffffffffffffffffffffffffff1916149050919050565b505050565b600d80549050600e600083815260200190815260200160002081905550600d81908060018154018082558091505060019003906000526020600020016000909190919091505550565b600060016200383d84620012e9565b62003849919062005306565b90506000600c60008481526020019081526020016000205490508181146200392f576000600b60008673ffffffffffffffffffffffffffffffffffffffff1673ffffffffffffffffffffffffffffffffffffffff168152602001908152602001600020600084815260200190815260200160002054905080600b60008773ffffffffffffffffffffffffffffffffffffffff1673ffffffffffffffffffffffffffffffffffffffff16815260200190815260200160002060008481526020019081526020016000208190555081600c600083815260200190815260200160002081905550505b600c600084815260200190815260200160002060009055600b60008573ffffffffffffffffffffffffffffffffffffffff1673ffffffffffffffffffffffffffffffffffffffff16815260200190815260200160002060008381526020019081526020016000206000905550505050565b60006001600d80549050620039b6919062005306565b90506000600e60008481526020019081526020016000205490506000600d838154811062003a0d577f4e487b7100000000000000000000000000000000000000000000000000000000600052603260045260246000fd5b9060005260206000200154905080600d838154811062003a56577f4e487b7100000000000000000000000000000000000000000000000000000000600052603260045260246000fd5b906000526020600020018190555081600e600083815260200190815260200160002081905550600e600085815260200190815260200160002060009055600d80548062003acc577f4e487b7100000000000000000000000000000000000000000000000000000000600052603160045260246000fd5b6001900381819060005260206000200160009055905550505050565b600062003af583620012e9565b905081600b60008573ffffffffffffffffffffffffffffffffffffffff1673ffffffffffffffffffffffffffffffffffffffff16815260200190815260200160002060008381526020019081526020016000208190555080600c600084815260200190815260200160002081905550505050565b611a72806200566983390190565b600062003b8e62003b88846200519a565b62005166565b90508281526020810184848401111562003ba757600080fd5b62003bb4848285620053e9565b509392505050565b60008135905062003bcd81620055e6565b92915050565b60008135905062003be48162005600565b92915050565b60008151905062003bfb8162005600565b92915050565b60008135905062003c12816200561a565b92915050565b60008135905062003c298162005634565b92915050565b60008151905062003c408162005634565b92915050565b600082601f83011262003c5857600080fd5b813562003c6a84826020860162003b77565b91505092915050565b60008135905062003c84816200564e565b92915050565b60006020828403121562003c9d57600080fd5b600062003cad8482850162003bbc565b91505092915050565b6000806040838503121562003cca57600080fd5b600062003cda8582860162003bbc565b925050602062003ced8582860162003bbc565b9150509250929050565b60008060006060848603121562003d0d57600080fd5b600062003d1d8682870162003bbc565b935050602062003d308682870162003bbc565b925050604062003d438682870162003c73565b9150509250925092565b6000806000806080858703121562003d6457600080fd5b600062003d748782880162003bbc565b945050602062003d878782880162003bbc565b935050604062003d9a8782880162003c73565b925050606085013567ffffffffffffffff81111562003db857600080fd5b62003dc68782880162003c46565b91505092959194509250565b6000806040838503121562003de657600080fd5b600062003df68582860162003bbc565b925050602062003e098582860162003bd3565b9150509250929050565b6000806040838503121562003e2757600080fd5b600062003e378582860162003bbc565b925050602062003e4a8582860162003c73565b9150509250929050565b60008060006060848603121562003e6a57600080fd5b600062003e7a8682870162003bbc565b935050602062003e8d8682870162003c73565b925050604062003ea08682870162003c73565b9150509250925092565b60006020828403121562003ebd57600080fd5b600062003ecd8482850162003bea565b91505092915050565b60006020828403121562003ee957600080fd5b600062003ef98482850162003c01565b91505092915050565b6000806040838503121562003f1657600080fd5b600062003f268582860162003c01565b925050602062003f398582860162003bbc565b9150509250929050565b6000806040838503121562003f5757600080fd5b600062003f678582860162003c01565b925050602062003f7a8582860162003c73565b9150509250929050565b60006020828403121562003f9757600080fd5b600062003fa78482850162003c18565b91505092915050565b60006020828403121562003fc357600080fd5b600062003fd38482850162003c2f565b91505092915050565b60006020828403121562003fef57600080fd5b600062003fff8482850162003c73565b91505092915050565b600080604083850312156200401c57600080fd5b60006200402c8582860162003c73565b92505060206200403f8582860162003bbc565b9150509250929050565b600080604083850312156200405d57600080fd5b60006200406d8582860162003c73565b9250506020620040808582860162003c73565b9150509250929050565b620040958162005341565b82525050565b620040a68162005355565b82525050565b620040b78162005361565b82525050565b6000620040ca82620051cd565b620040d68185620051e3565b9350620040e8818560208601620053f8565b620040f381620055d5565b840191505092915050565b6200410981620053c1565b82525050565b60006200411c82620051d8565b620041288185620051f4565b93506200413a818560208601620053f8565b6200414581620055d5565b840191505092915050565b60006200415d82620051d8565b62004169818562005205565b93506200417b818560208601620053f8565b80840191505092915050565b600062004196602083620051f4565b91507f537472696e67733a20686578206c656e67746820696e73756666696369656e746000830152602082019050919050565b6000620041d8602b83620051f4565b91507f4552433732315061757361626c653a20746f6b656e207472616e73666572207760008301527f68696c65207061757365640000000000000000000000000000000000000000006020830152604082019050919050565b600062004240601483620051f4565b91507f5061757361626c653a206e6f74207061757365640000000000000000000000006000830152602082019050919050565b600062004282602b83620051f4565b91507f455243373231456e756d657261626c653a206f776e657220696e646578206f7560008301527f74206f6620626f756e64730000000000000000000000000000000000000000006020830152604082019050919050565b6000620042ea603283620051f4565b91507f4552433732313a207472616e7366657220746f206e6f6e20455243373231526560008301527f63656976657220696d706c656d656e74657200000000000000000000000000006020830152604082019050919050565b600062004352601c83620051f4565b91507f4552433732313a20746f6b656e20616c7265616479206d696e746564000000006000830152602082019050919050565b600062004394603e83620051f4565b91507f4552433732315072657365744d696e7465725061757365724175746f49643a2060008301527f6d75737420686176652070617573657220726f6c6520746f20706175736500006020830152604082019050919050565b6000620043fc602483620051f4565b91507f4552433732313a207472616e7366657220746f20746865207a65726f2061646460008301527f72657373000000000000000000000000000000000000000000000000000000006020830152604082019050919050565b600062004464601983620051f4565b91507f4552433732313a20617070726f766520746f2063616c6c6572000000000000006000830152602082019050919050565b6000620044a6602c83620051f4565b91507f4552433732313a206f70657261746f7220717565727920666f72206e6f6e657860008301527f697374656e7420746f6b656e00000000000000000000000000000000000000006020830152604082019050919050565b60006200450e601083620051f4565b91507f5061757361626c653a20706175736564000000000000000000000000000000006000830152602082019050919050565b600062004550603883620051f4565b91507f4552433732313a20617070726f76652063616c6c6572206973206e6f74206f7760008301527f6e6572206e6f7220617070726f76656420666f7220616c6c00000000000000006020830152604082019050919050565b6000620045b8602a83620051f4565b91507f4552433732313a2062616c616e636520717565727920666f7220746865207a6560008301527f726f2061646472657373000000000000000000000000000000000000000000006020830152604082019050919050565b600062004620602983620051f4565b91507f4552433732313a206f776e657220717565727920666f72206e6f6e657869737460008301527f656e7420746f6b656e00000000000000000000000000000000000000000000006020830152604082019050919050565b600062004688602083620051f4565b91507f4552433732313a206d696e7420746f20746865207a65726f20616464726573736000830152602082019050919050565b6000620046ca602c83620051f4565b91507f4552433732313a20617070726f76656420717565727920666f72206e6f6e657860008301527f697374656e7420746f6b656e00000000000000000000000000000000000000006020830152604082019050919050565b600062004732602483620051f4565b91507f73686f756c642062652063616c6c6564206279206f6e6c7920746f6b656e206f60008301527f776e6572000000000000000000000000000000000000000000000000000000006020830152604082019050919050565b60006200479a602983620051f4565b91507f4552433732313a207472616e73666572206f6620746f6b656e2074686174206960008301527f73206e6f74206f776e00000000000000000000000000000000000000000000006020830152604082019050919050565b600062004802602f83620051f4565b91507f4552433732314d657461646174613a2055524920717565727920666f72206e6f60008301527f6e6578697374656e7420746f6b656e00000000000000000000000000000000006020830152604082019050919050565b60006200486a602183620051f4565b91507f4552433732313a20617070726f76616c20746f2063757272656e74206f776e6560008301527f72000000000000000000000000000000000000000000000000000000000000006020830152604082019050919050565b6000620048d2603183620051f4565b91507f4552433732313a207472616e736665722063616c6c6572206973206e6f74206f60008301527f776e6572206e6f7220617070726f7665640000000000000000000000000000006020830152604082019050919050565b60006200493a602c83620051f4565b91507f455243373231456e756d657261626c653a20676c6f62616c20696e646578206f60008301527f7574206f6620626f756e647300000000000000000000000000000000000000006020830152604082019050919050565b6000620049a260178362005205565b91507f416363657373436f6e74726f6c3a206163636f756e74200000000000000000006000830152601782019050919050565b6000620049e4603d83620051f4565b91507f4552433732315072657365744d696e7465725061757365724175746f49643a2060008301527f6d7573742068617665206d696e74657220726f6c6520746f206d696e740000006020830152604082019050919050565b600062004a4c603083620051f4565b91507f4552433732314275726e61626c653a2063616c6c6572206973206e6f74206f7760008301527f6e6572206e6f7220617070726f766564000000000000000000000000000000006020830152604082019050919050565b600062004ab4604083620051f4565b91507f4552433732315072657365744d696e7465725061757365724175746f49643a2060008301527f6d75737420686176652070617573657220726f6c6520746f20756e70617573656020830152604082019050919050565b600062004b1c60118362005205565b91507f206973206d697373696e6720726f6c65200000000000000000000000000000006000830152601182019050919050565b600062004b5e602f83620051f4565b91507f416363657373436f6e74726f6c3a2063616e206f6e6c792072656e6f756e636560008301527f20726f6c657320666f722073656c6600000000000000000000000000000000006020830152604082019050919050565b62004bc281620053b7565b82525050565b600062004bd6828562004150565b915062004be4828462004150565b91508190509392505050565b600062004bfd8262004993565b915062004c0b828562004150565b915062004c188262004b0d565b915062004c26828462004150565b91508190509392505050565b600060208201905062004c4960008301846200408a565b92915050565b600060808201905062004c6660008301876200408a565b62004c7560208301866200408a565b62004c84604083018562004bb7565b818103606083015262004c988184620040bd565b905095945050505050565b600060408201905062004cba60008301856200408a565b62004cc9602083018462004bb7565b9392505050565b600060208201905062004ce760008301846200409b565b92915050565b600060208201905062004d046000830184620040ac565b92915050565b600060208201905062004d216000830184620040fe565b92915050565b6000602082019050818103600083015262004d4381846200410f565b905092915050565b6000602082019050818103600083015262004d668162004187565b9050919050565b6000602082019050818103600083015262004d8881620041c9565b9050919050565b6000602082019050818103600083015262004daa8162004231565b9050919050565b6000602082019050818103600083015262004dcc8162004273565b9050919050565b6000602082019050818103600083015262004dee81620042db565b9050919050565b6000602082019050818103600083015262004e108162004343565b9050919050565b6000602082019050818103600083015262004e328162004385565b9050919050565b6000602082019050818103600083015262004e5481620043ed565b9050919050565b6000602082019050818103600083015262004e768162004455565b9050919050565b6000602082019050818103600083015262004e988162004497565b9050919050565b6000602082019050818103600083015262004eba81620044ff565b9050919050565b6000602082019050818103600083015262004edc8162004541565b9050919050565b6000602082019050818103600083015262004efe81620045a9565b9050919050565b6000602082019050818103600083015262004f208162004611565b9050919050565b6000602082019050818103600083015262004f428162004679565b9050919050565b6000602082019050818103600083015262004f6481620046bb565b9050919050565b6000602082019050818103600083015262004f868162004723565b9050919050565b6000602082019050818103600083015262004fa8816200478b565b9050919050565b6000602082019050818103600083015262004fca81620047f3565b9050919050565b6000602082019050818103600083015262004fec816200485b565b9050919050565b600060208201905081810360008301526200500e81620048c3565b9050919050565b6000602082019050818103600083015262005030816200492b565b9050919050565b600060208201905081810360008301526200505281620049d5565b9050919050565b60006020820190508181036000830152620050748162004a3d565b9050919050565b60006020820190508181036000830152620050968162004aa5565b9050919050565b60006020820190508181036000830152620050b88162004b4f565b9050919050565b6000602082019050620050d6600083018462004bb7565b92915050565b6000604082019050620050f3600083018562004bb7565b6200510260208301846200408a565b9392505050565b600060a08201905062005120600083018862004bb7565b6200512f602083018762004bb7565b6200513e60408301866200408a565b6200514d60608301856200408a565b6200515c60808301846200408a565b9695505050505050565b6000604051905081810181811067ffffffffffffffff8211171562005190576200518f620055a6565b5b8060405250919050565b600067ffffffffffffffff821115620051b857620051b7620055a6565b5b601f19601f8301169050602081019050919050565b600081519050919050565b600081519050919050565b600082825260208201905092915050565b600082825260208201905092915050565b600081905092915050565b60006200521d82620053b7565b91506200522a83620053b7565b9250827fffffffffffffffffffffffffffffffffffffffffffffffffffffffffffffffff0382111562005262576200526162005519565b5b828201905092915050565b60006200527a82620053b7565b91506200528783620053b7565b9250826200529a576200529962005548565b5b828204905092915050565b6000620052b282620053b7565b9150620052bf83620053b7565b9250817fffffffffffffffffffffffffffffffffffffffffffffffffffffffffffffffff0483118215151615620052fb57620052fa62005519565b5b828202905092915050565b60006200531382620053b7565b91506200532083620053b7565b92508282101562005336576200533562005519565b5b828203905092915050565b60006200534e8262005397565b9050919050565b60008115159050919050565b6000819050919050565b60007fffffffff0000000000000000000000000000000000000000000000000000000082169050919050565b600073ffffffffffffffffffffffffffffffffffffffff82169050919050565b6000819050919050565b6000620053ce82620053d5565b9050919050565b6000620053e28262005397565b9050919050565b82818337600083830152505050565b60005b8381101562005418578082015181840152602081019050620053fb565b8381111562005428576000848401525b50505050565b60006200543b82620053b7565b9150600082141562005452576200545162005519565b5b600182039050919050565b600060028204905060018216806200547657607f821691505b602082108114156200548d576200548c62005577565b5b50919050565b6000620054a082620053b7565b91507fffffffffffffffffffffffffffffffffffffffffffffffffffffffffffffffff821415620054d657620054d562005519565b5b600182019050919050565b6000620054ee82620053b7565b9150620054fb83620053b7565b9250826200550e576200550d62005548565b5b828206905092915050565b7f4e487b7100000000000000000000000000000000000000000000000000000000600052601160045260246000fd5b7f4e487b7100000000000000000000000000000000000000000000000000000000600052601260045260246000fd5b7f4e487b7100000000000000000000000000000000000000000000000000000000600052602260045260246000fd5b7f4e487b7100000000000000000000000000000000000000000000000000000000600052604160045260246000fd5b6000601f19601f8301169050919050565b620055f18162005341565b8114620055fd57600080fd5b50565b6200560b8162005355565b81146200561757600080fd5b50565b620056258162005361565b81146200563157600080fd5b50565b6200563f816200536b565b81146200564b57600080fd5b50565b6200565981620053b7565b81146200566557600080fd5b5056fe60806040523480156200001157600080fd5b5060405162001a7238038062001a7283398181016040528101906200003791906200014d565b84600481905550826000806101000a81548173ffffffffffffffffffffffffffffffffffffffff021916908373ffffffffffffffffffffffffffffffffffffffff16021790555083426200008c9190620001cf565b60018190555081600260006101000a81548173ffffffffffffffffffffffffffffffffffffffff021916908373ffffffffffffffffffffffffffffffffffffffff16021790555080600360006101000a81548173ffffffffffffffffffffffffffffffffffffffff021916908373ffffffffffffffffffffffffffffffffffffffff1602179055505050505050620002cd565b600081519050620001308162000299565b92915050565b6000815190506200014781620002b3565b92915050565b600080600080600060a086880312156200016657600080fd5b6000620001768882890162000136565b9550506020620001898882890162000136565b94505060406200019c888289016200011f565b9350506060620001af888289016200011f565b9250506080620001c2888289016200011f565b9150509295509295909350565b6000620001dc8262000260565b9150620001e98362000260565b9250827fffffffffffffffffffffffffffffffffffffffffffffffffffffffffffffffff038211156200022157620002206200026a565b5b828201905092915050565b6000620002398262000240565b9050919050565b600073ffffffffffffffffffffffffffffffffffffffff82169050919050565b6000819050919050565b7f4e487b7100000000000000000000000000000000000000000000000000000000600052601160045260246000fd5b620002a4816200022c565b8114620002b057600080fd5b50565b620002be8162000260565b8114620002ca57600080fd5b50565b61179580620002dd6000396000f3fe608060405260043610610110576000357c010000000000000000000000000000000000000000000000000000000090048063454a2ab3116100a757806388a6360e1161007657806388a6360e146102e357806391f901571461030e578063d57bde7914610339578063f56e9c661461036457610110565b8063454a2ab3146102485780634b449cba1461026457806370bda8941461028f57806383ffda3b146102a657610110565b806321df0da7116100e357806321df0da7146101bd5780632a24f46c146101e857806338af3eed146101f25780633ccfd60b1461021d57610110565b806312fa6feb14610115578063144fa6d714610140578063150b7a02146101695780631e36d755146101a6575b600080fd5b34801561012157600080fd5b5061012a61038d565b6040516101379190611351565b60405180910390f35b34801561014c57600080fd5b5061016760048036038101906101629190611035565b6103a0565b005b34801561017557600080fd5b50610190600480360381019061018b919061105e565b6103e4565b60405161019d919061136c565b60405180910390f35b3480156101b257600080fd5b506101bb610414565b005b3480156101c957600080fd5b506101d2610504565b6040516101df9190611387565b60405180910390f35b6101f061052e565b005b3480156101fe57600080fd5b50610207610969565b60405161021491906112e4565b60405180910390f35b34801561022957600080fd5b5061023261098d565b60405161023f9190611351565b60405180910390f35b610262600480360381019061025d9190611102565b610b47565b005b34801561027057600080fd5b50610279610db5565b604051610286919061143d565b60405180910390f35b34801561029b57600080fd5b506102a4610dbb565b005b3480156102b257600080fd5b506102cd60048036038101906102c89190611035565b610eab565b6040516102da919061143d565b60405180910390f35b3480156102ef57600080fd5b506102f8610ef4565b60405161030591906113a2565b60405180910390f35b34801561031a57600080fd5b50610323610f1e565b60405161033091906112c9565b60405180910390f35b34801561034557600080fd5b5061034e610f44565b60405161035b919061143d565b60405180910390f35b34801561037057600080fd5b5061038b60048036038101906103869190611035565b610f4a565b005b600860009054906101000a900460ff1681565b80600260006101000a81548173ffffffffffffffffffffffffffffffffffffffff021916908373ffffffffffffffffffffffffffffffffffffffff16021790555050565b600063150b7a027c0100000000000000000000000000000000000000000000000000000000029050949350505050565b600360009054906101000a900473ffffffffffffffffffffffffffffffffffffffff1673ffffffffffffffffffffffffffffffffffffffff16639564470e60045460008054906101000a900473ffffffffffffffffffffffffffffffffffffffff166040518363ffffffff167c01000000000000000000000000000000000000000000000000000000000281526004016104af929190611481565b602060405180830381600087803b1580156104c957600080fd5b505af11580156104dd573d6000803e3d6000fd5b505050506040513d601f19601f8201168201806040525081019061050191906110d9565b50565b6000600260009054906101000a900473ffffffffffffffffffffffffffffffffffffffff16905090565b600154421015610573576040517f08c379a000000000000000000000000000000000000000000000000000000000815260040161056a906113fd565b60405180910390fd5b600860009054906101000a900460ff16156105c3576040517f08c379a00000000000000000000000000000000000000000000000000000000081526004016105ba9061141d565b60405180910390fd5b6001600860006101000a81548160ff0219169083151502179055507fd2aa34a4fdbbc6dff6a3e56f46e0f3ae2a31d7785ff3487aa5c95c642acea501600454600560009054906101000a900473ffffffffffffffffffffffffffffffffffffffff16600654604051610637939291906114aa565b60405180910390a1600073ffffffffffffffffffffffffffffffffffffffff16600560009054906101000a900473ffffffffffffffffffffffffffffffffffffffff1673ffffffffffffffffffffffffffffffffffffffff161461087857600360009054906101000a900473ffffffffffffffffffffffffffffffffffffffff1673ffffffffffffffffffffffffffffffffffffffff16639564470e600454600560009054906101000a900473ffffffffffffffffffffffffffffffffffffffff166040518363ffffffff167c0100000000000000000000000000000000000000000000000000000000028152600401610732929190611458565b602060405180830381600087803b15801561074c57600080fd5b505af1158015610760573d6000803e3d6000fd5b505050506040513d601f19601f8201168201806040525081019061078491906110d9565b50600260009054906101000a900473ffffffffffffffffffffffffffffffffffffffff1673ffffffffffffffffffffffffffffffffffffffff1663a9059cbb60008054906101000a900473ffffffffffffffffffffffffffffffffffffffff166006546040518363ffffffff167c01000000000000000000000000000000000000000000000000000000000281526004016108209291906112ff565b602060405180830381600087803b15801561083a57600080fd5b505af115801561084e573d6000803e3d6000fd5b505050506040513d601f19601f8201168201806040525081019061087291906110d9565b50610967565b600360009054906101000a900473ffffffffffffffffffffffffffffffffffffffff1673ffffffffffffffffffffffffffffffffffffffff16639564470e60045460008054906101000a900473ffffffffffffffffffffffffffffffffffffffff166040518363ffffffff167c0100000000000000000000000000000000000000000000000000000000028152600401610913929190611481565b602060405180830381600087803b15801561092d57600080fd5b505af1158015610941573d6000803e3d6000fd5b505050506040513d601f19601f8201168201806040525081019061096591906110d9565b505b565b60008054906101000a900473ffffffffffffffffffffffffffffffffffffffff1681565b600080600760003373ffffffffffffffffffffffffffffffffffffffff1673ffffffffffffffffffffffffffffffffffffffff1681526020019081526020016000205490506000811115610b3e576000600760003373ffffffffffffffffffffffffffffffffffffffff1673ffffffffffffffffffffffffffffffffffffffff16815260200190815260200160002081905550600260009054906101000a900473ffffffffffffffffffffffffffffffffffffffff1673ffffffffffffffffffffffffffffffffffffffff1663a9059cbb33836040518363ffffffff167c0100000000000000000000000000000000000000000000000000000000028152600401610a99929190611328565b602060405180830381600087803b158015610ab357600080fd5b505af1158015610ac7573d6000803e3d6000fd5b505050506040513d601f19601f82011682018060405250810190610aeb91906110d9565b610b3d5780600760003373ffffffffffffffffffffffffffffffffffffffff1673ffffffffffffffffffffffffffffffffffffffff168152602001908152602001600020819055506000915050610b44565b5b60019150505b90565b600154421115610b8c576040517f08c379a0000000000000000000000000000000000000000000000000000000008152600401610b83906113bd565b60405180910390fd5b6006548111610bd0576040517f08c379a0000000000000000000000000000000000000000000000000000000008152600401610bc7906113dd565b60405180910390fd5b600260009054906101000a900473ffffffffffffffffffffffffffffffffffffffff1673ffffffffffffffffffffffffffffffffffffffff166301f07a3b60045433846040518463ffffffff167c0100000000000000000000000000000000000000000000000000000000028152600401610c4d939291906114aa565b602060405180830381600087803b158015610c6757600080fd5b505af1158015610c7b573d6000803e3d6000fd5b505050506040513d601f19601f82011682018060405250810190610c9f91906110d9565b610ca857600080fd5b600060065414610d2d5760065460076000600560009054906101000a900473ffffffffffffffffffffffffffffffffffffffff1673ffffffffffffffffffffffffffffffffffffffff1673ffffffffffffffffffffffffffffffffffffffff1681526020019081526020016000206000828254610d259190611553565b925050819055505b33600560006101000a81548173ffffffffffffffffffffffffffffffffffffffff021916908373ffffffffffffffffffffffffffffffffffffffff160217905550806006819055507fda0a18da71d8ebd145966339a728fc0d8ccc07c22870d561890d823c515dda6b6004543383604051610daa939291906114aa565b60405180910390a150565b60015481565b600360009054906101000a900473ffffffffffffffffffffffffffffffffffffffff1673ffffffffffffffffffffffffffffffffffffffff16639564470e60045460008054906101000a900473ffffffffffffffffffffffffffffffffffffffff166040518363ffffffff167c0100000000000000000000000000000000000000000000000000000000028152600401610e56929190611481565b602060405180830381600087803b158015610e7057600080fd5b505af1158015610e84573d6000803e3d6000fd5b505050506040513d601f19601f82011682018060405250810190610ea891906110d9565b50565b6000600760008373ffffffffffffffffffffffffffffffffffffffff1673ffffffffffffffffffffffffffffffffffffffff168152602001908152602001600020549050919050565b6000600360009054906101000a900473ffffffffffffffffffffffffffffffffffffffff16905090565b600560009054906101000a900473ffffffffffffffffffffffffffffffffffffffff1681565b60065481565b80600360006101000a81548173ffffffffffffffffffffffffffffffffffffffff021916908373ffffffffffffffffffffffffffffffffffffffff16021790555050565b6000610fa1610f9c84611512565b6114e1565b905082815260208101848484011115610fb957600080fd5b610fc48482856116ad565b509392505050565b600081359050610fdb8161171a565b92915050565b600081519050610ff081611731565b92915050565b600082601f83011261100757600080fd5b8135611017848260208601610f8e565b91505092915050565b60008135905061102f81611748565b92915050565b60006020828403121561104757600080fd5b600061105584828501610fcc565b91505092915050565b6000806000806080858703121561107457600080fd5b600061108287828801610fcc565b945050602061109387828801610fcc565b93505060406110a487828801611020565b925050606085013567ffffffffffffffff8111156110c157600080fd5b6110cd87828801610ff6565b91505092959194509250565b6000602082840312156110eb57600080fd5b60006110f984828501610fe1565b91505092915050565b60006020828403121561111457600080fd5b600061112284828501611020565b91505092915050565b6111348161162f565b82525050565b611143816115bb565b82525050565b611152816115a9565b82525050565b611161816115cd565b82525050565b611170816115d9565b82525050565b61117f81611641565b82525050565b61118e81611665565b82525050565b60006111a1601683611542565b91507f41756374696f6e20616c726561647920656e6465642e000000000000000000006000830152602082019050919050565b60006111e1601e83611542565b91507f546865726520616c7265616479206973206120686967686572206269642e00006000830152602082019050919050565b6000611221601683611542565b91507f41756374696f6e206e6f742079657420656e6465642e000000000000000000006000830152602082019050919050565b6000611261602383611542565b91507f61756374696f6e456e642068617320616c7265616479206265656e2063616c6c60008301527f65642e00000000000000000000000000000000000000000000000000000000006020830152604082019050919050565b6112c381611625565b82525050565b60006020820190506112de6000830184611149565b92915050565b60006020820190506112f9600083018461113a565b92915050565b6000604082019050611314600083018561112b565b61132160208301846112ba565b9392505050565b600060408201905061133d6000830185611149565b61134a60208301846112ba565b9392505050565b60006020820190506113666000830184611158565b92915050565b60006020820190506113816000830184611167565b92915050565b600060208201905061139c6000830184611176565b92915050565b60006020820190506113b76000830184611185565b92915050565b600060208201905081810360008301526113d681611194565b9050919050565b600060208201905081810360008301526113f6816111d4565b9050919050565b6000602082019050818103600083015261141681611214565b9050919050565b6000602082019050818103600083015261143681611254565b9050919050565b600060208201905061145260008301846112ba565b92915050565b600060408201905061146d60008301856112ba565b61147a6020830184611149565b9392505050565b600060408201905061149660008301856112ba565b6114a3602083018461112b565b9392505050565b60006060820190506114bf60008301866112ba565b6114cc6020830185611149565b6114d960408301846112ba565b949350505050565b6000604051905081810181811067ffffffffffffffff82111715611508576115076116eb565b5b8060405250919050565b600067ffffffffffffffff82111561152d5761152c6116eb565b5b601f19601f8301169050602081019050919050565b600082825260208201905092915050565b600061155e82611625565b915061156983611625565b9250827fffffffffffffffffffffffffffffffffffffffffffffffffffffffffffffffff0382111561159e5761159d6116bc565b5b828201905092915050565b60006115b482611605565b9050919050565b60006115c682611605565b9050919050565b60008115159050919050565b60007fffffffff0000000000000000000000000000000000000000000000000000000082169050919050565b600073ffffffffffffffffffffffffffffffffffffffff82169050919050565b6000819050919050565b600061163a82611689565b9050919050565b600061164c82611653565b9050919050565b600061165e82611605565b9050919050565b600061167082611677565b9050919050565b600061168282611605565b9050919050565b60006116948261169b565b9050919050565b60006116a682611605565b9050919050565b82818337600083830152505050565b7f4e487b7100000000000000000000000000000000000000000000000000000000600052601160045260246000fd5b7f4e487b7100000000000000000000000000000000000000000000000000000000600052604160045260246000fd5b611723816115a9565b811461172e57600080fd5b50565b61173a816115cd565b811461174557600080fd5b50565b61175181611625565b811461175c57600080fd5b5056fea264697066735822122073c2317c4e0a16ccea3b6b462f77086cf05eccc53c5859243ebd42756689c42664736f6c63430008000033a2646970667358221220df3ad341adcab7ff812c1aa65c1e65a0049ee6ab4cdc691db0d62e90a4ebf75c64736f6c63430008000033",
  "immutableReferences": {},
  "source": "// SPDX-License-Identifier: MIT\n\npragma solidity ^0.8.0;\n\nimport \"../ERC721.sol\";\nimport \"../extensions/ERC721Enumerable.sol\";\nimport \"../extensions/ERC721Burnable.sol\";\nimport \"../extensions/ERC721Pausable.sol\";\nimport \"../../access/AccessControlEnumerable.sol\";\nimport \"../../utils/Context.sol\";\nimport \"../../utils/Counters.sol\";\n\n/**\n * @dev {ERC721} token, including:\n *\n *  - ability for holders to burn (destroy) their tokens\n *  - a minter role that allows for token minting (creation)\n *  - a pauser role that allows to stop all token transfers\n *  - token ID and URI autogeneration\n *\n * This contract uses {AccessControl} to lock permissioned functions using the\n * different roles - head to its documentation for details.\n *\n * The account that deploys the contract will be granted the minter and pauser\n * roles, as well as the default admin role, which will let it grant both minter\n * and pauser roles to other accounts.\n */\ncontract ERC721PresetMinterPauserAutoId is\nContext,\nAccessControlEnumerable,\nERC721Enumerable,\nERC721Burnable,\nERC721Pausable\n{\n    using Counters for Counters.Counter;\n\n    bytes32 public constant MINTER_ROLE = keccak256(\"MINTER_ROLE\");\n    bytes32 public constant PAUSER_ROLE = keccak256(\"PAUSER_ROLE\");\n\n    Counters.Counter private _tokenIdTracker;\n\n    string private _baseTokenURI;\n\n    /**\n     * @dev Grants `DEFAULT_ADMIN_ROLE`, `MINTER_ROLE` and `PAUSER_ROLE` to the\n     * account that deploys the contract.\n     *\n     * Token URIs will be autogenerated based on `baseURI` and their token IDs.\n     * See {ERC721-tokenURI}.\n     */\n    constructor(\n        string memory name,\n        string memory symbol,\n        string memory baseTokenURI\n    ) ERC721(name, symbol) {\n        _baseTokenURI = baseTokenURI;\n\n        _setupRole(DEFAULT_ADMIN_ROLE, _msgSender());\n\n        _setupRole(MINTER_ROLE, _msgSender());\n        _setupRole(PAUSER_ROLE, _msgSender());\n    }\n\n    function _baseURI() internal view virtual override returns (string memory) {\n        return _baseTokenURI;\n    }\n\n    /**\n     * @dev Creates a new token for `to`. Its token ID will be automatically\n     * assigned (and available on the emitted {IERC721-Transfer} event), and the token\n     * URI autogenerated based on the base URI passed at construction.\n     *\n     * See {ERC721-_mint}.\n     *\n     * Requirements:\n     *\n     * - the caller must have the `MINTER_ROLE`.\n     */\n    function mint(address to, uint256 tokenAmount) public virtual {\n        require(hasRole(MINTER_ROLE, _msgSender()), \"ERC721PresetMinterPauserAutoId: must have minter role to mint\");\n\n        // We cannot just use balanceOf to create the new tokenId because tokens\n        // can be burned (destroyed), so we need a separate counter.\n        _mint(to, _tokenIdTracker.current(), tokenAmount);\n        _tokenIdTracker.increment();\n    }\n\n    /**\n     * @dev Pauses all token transfers.\n     *\n     * See {ERC721Pausable} and {Pausable-_pause}.\n     *\n     * Requirements:\n     *\n     * - the caller must have the `PAUSER_ROLE`.\n     */\n    function pause() public virtual {\n        require(hasRole(PAUSER_ROLE, _msgSender()), \"ERC721PresetMinterPauserAutoId: must have pauser role to pause\");\n        _pause();\n    }\n\n    /**\n     * @dev Unpauses all token transfers.\n     *\n     * See {ERC721Pausable} and {Pausable-_unpause}.\n     *\n     * Requirements:\n     *\n     * - the caller must have the `PAUSER_ROLE`.\n     */\n    function unpause() public virtual {\n        require(hasRole(PAUSER_ROLE, _msgSender()), \"ERC721PresetMinterPauserAutoId: must have pauser role to unpause\");\n        _unpause();\n    }\n\n    function _beforeTokenTransfer(\n        address from,\n        address to,\n        uint256 tokenId\n    ) internal virtual override(ERC721, ERC721Enumerable, ERC721Pausable) {\n        super._beforeTokenTransfer(from, to, tokenId);\n    }\n\n    /**\n     * @dev See {IERC165-supportsInterface}.\n     */\n    function supportsInterface(bytes4 interfaceId)\n    public\n    view\n    virtual\n    override(AccessControlEnumerable, ERC721, ERC721Enumerable)\n    returns (bool)\n    {\n        return super.supportsInterface(interfaceId);\n    }\n}",
  "sourcePath": "/Volumes/Transcend/Projects/DappsLab/Lottery-Smart-Contract/contracts/customERC20ERC721/ERC721/presets/ERC721PresetMinterPauserAutoId.sol",
  "compiler": {
    "name": "solc",
    "version": "0.8.0+commit.c7dfd78e.Emscripten.clang"
  },
  "schemaVersion": "3.4.2",
  "updatedAt": "2021-07-27T11:42:39.310Z",
  "devdoc": {
    "details": "{ERC721} token, including:  - ability for holders to burn (destroy) their tokens  - a minter role that allows for token minting (creation)  - a pauser role that allows to stop all token transfers  - token ID and URI autogeneration This contract uses {AccessControl} to lock permissioned functions using the different roles - head to its documentation for details. The account that deploys the contract will be granted the minter and pauser roles, as well as the default admin role, which will let it grant both minter and pauser roles to other accounts.",
    "kind": "dev",
    "methods": {
      "_mint(address,uint256,uint256)": {
        "details": "Mints `tokenId` and transfers it to `to`. WARNING: Usage of this method is discouraged, use {_safeMint} whenever possible Requirements: - `tokenId` must not exist. - `to` cannot be the zero address. Emits a {Transfer} event."
      },
      "_spend(uint256,address)": {
        "details": "See {IERC721-safeTransferFrom}."
      },
      "approve(address,uint256)": {
        "details": "See {IERC721-approve}."
      },
      "balanceOf(address)": {
        "details": "See {IERC721-balanceOf}."
      },
      "burn(uint256)": {
        "details": "Burns `tokenId`. See {ERC721-_burn}. Requirements: - The caller must own `tokenId` or be an approved operator."
      },
      "constructor": {
        "details": "Grants `DEFAULT_ADMIN_ROLE`, `MINTER_ROLE` and `PAUSER_ROLE` to the account that deploys the contract. Token URIs will be autogenerated based on `baseURI` and their token IDs. See {ERC721-tokenURI}."
      },
      "getApproved(uint256)": {
        "details": "See {IERC721-getApproved}."
      },
      "getRoleAdmin(bytes32)": {
        "details": "Returns the admin role that controls `role`. See {grantRole} and {revokeRole}. To change a role's admin, use {_setRoleAdmin}."
      },
      "getRoleMember(bytes32,uint256)": {
        "details": "Returns one of the accounts that have `role`. `index` must be a value between 0 and {getRoleMemberCount}, non-inclusive. Role bearers are not sorted in any particular way, and their ordering may change at any point. WARNING: When using {getRoleMember} and {getRoleMemberCount}, make sure you perform all queries on the same block. See the following https://forum.openzeppelin.com/t/iterating-over-elements-on-enumerableset-in-openzeppelin-contracts/2296[forum post] for more information."
      },
      "getRoleMemberCount(bytes32)": {
        "details": "Returns the number of accounts that have `role`. Can be used together with {getRoleMember} to enumerate all bearers of a role."
      },
      "grantRole(bytes32,address)": {
        "details": "Overload {grantRole} to track enumerable memberships"
      },
      "hasRole(bytes32,address)": {
        "details": "Returns `true` if `account` has been granted `role`."
      },
      "isApprovedForAll(address,address)": {
        "details": "See {IERC721-isApprovedForAll}."
      },
      "mint(address,uint256)": {
        "details": "Creates a new token for `to`. Its token ID will be automatically assigned (and available on the emitted {IERC721-Transfer} event), and the token URI autogenerated based on the base URI passed at construction. See {ERC721-_mint}. Requirements: - the caller must have the `MINTER_ROLE`."
      },
      "name()": {
        "details": "See {IERC721Metadata-name}."
      },
      "ownerOf(uint256)": {
        "details": "See {IERC721-ownerOf}."
      },
      "pause()": {
        "details": "Pauses all token transfers. See {ERC721Pausable} and {Pausable-_pause}. Requirements: - the caller must have the `PAUSER_ROLE`."
      },
      "paused()": {
        "details": "Returns true if the contract is paused, and false otherwise."
      },
      "renounceRole(bytes32,address)": {
        "details": "Overload {renounceRole} to track enumerable memberships"
      },
      "revokeRole(bytes32,address)": {
        "details": "Overload {revokeRole} to track enumerable memberships"
      },
      "safeTransferFrom(address,address,uint256)": {
        "details": "Safely transfers `tokenId` token from `from` to `to`, checking first that contract recipients are aware of the ERC721 protocol to prevent tokens from being forever locked. Requirements: - `from` cannot be the zero address. - `to` cannot be the zero address. - `tokenId` token must exist and be owned by `from`. - If the caller is not `from`, it must be have been allowed to move this token by either {approve} or {setApprovalForAll}. - If `to` refers to a smart contract, it must implement {IERC721Receiver-onERC721Received}, which is called upon a safe transfer. Emits a {Transfer} event."
      },
      "safeTransferFrom(address,address,uint256,bytes)": {
        "details": "See {IERC721-safeTransferFrom}."
      },
      "setApprovalForAll(address,bool)": {
        "details": "See {IERC721-setApprovalForAll}."
      },
      "supportsInterface(bytes4)": {
        "details": "See {IERC165-supportsInterface}."
      },
      "symbol()": {
        "details": "See {IERC721Metadata-symbol}."
      },
      "tokenByIndex(uint256)": {
        "details": "See {IERC721Enumerable-tokenByIndex}."
      },
      "tokenOfOwnerByIndex(address,uint256)": {
        "details": "See {IERC721Enumerable-tokenOfOwnerByIndex}."
      },
      "tokenURI(uint256)": {
        "details": "See {IERC721Metadata-tokenURI}."
      },
      "totalSupply()": {
        "details": "See {IERC721Enumerable-totalSupply}."
      },
      "transferFrom(address,address,uint256)": {
        "details": "See {IERC721-transferFrom}."
      },
      "unpause()": {
        "details": "Unpauses all token transfers. See {ERC721Pausable} and {Pausable-_unpause}. Requirements: - the caller must have the `PAUSER_ROLE`."
      }
    },
    "version": 1
  },
  "userdoc": {
    "kind": "user",
    "methods": {
      "getToken()": {
        "notice": "Getter and Setter of _token (ERC20)*"
      }
    },
    "version": 1
  }
}