{
  "contractName": "ERC721",
  "abi": [
    {
      "inputs": [
        {
          "internalType": "string",
          "name": "name_",
          "type": "string"
        },
        {
          "internalType": "string",
          "name": "symbol_",
          "type": "string"
        }
      ],
      "stateMutability": "nonpayable",
      "type": "constructor"
    },
    {
      "anonymous": false,
      "inputs": [
        {
          "indexed": true,
          "internalType": "address",
          "name": "owner",
          "type": "address"
        },
        {
          "indexed": true,
          "internalType": "address",
          "name": "approved",
          "type": "address"
        },
        {
          "indexed": true,
          "internalType": "uint256",
          "name": "tokenId",
          "type": "uint256"
        }
      ],
      "name": "Approval",
      "type": "event"
    },
    {
      "anonymous": false,
      "inputs": [
        {
          "indexed": true,
          "internalType": "address",
          "name": "owner",
          "type": "address"
        },
        {
          "indexed": true,
          "internalType": "address",
          "name": "operator",
          "type": "address"
        },
        {
          "indexed": false,
          "internalType": "bool",
          "name": "approved",
          "type": "bool"
        }
      ],
      "name": "ApprovalForAll",
      "type": "event"
    },
    {
      "anonymous": false,
      "inputs": [
        {
          "indexed": true,
          "internalType": "address",
          "name": "from",
          "type": "address"
        },
        {
          "indexed": true,
          "internalType": "address",
          "name": "to",
          "type": "address"
        },
        {
          "indexed": true,
          "internalType": "uint256",
          "name": "tokenId",
          "type": "uint256"
        }
      ],
      "name": "Transfer",
      "type": "event"
    },
    {
      "inputs": [],
      "name": "_creatorComission",
      "outputs": [
        {
          "internalType": "uint8",
          "name": "",
          "type": "uint8"
        }
      ],
      "stateMutability": "view",
      "type": "function"
    },
    {
      "inputs": [
        {
          "internalType": "bytes4",
          "name": "interfaceId",
          "type": "bytes4"
        }
      ],
      "name": "supportsInterface",
      "outputs": [
        {
          "internalType": "bool",
          "name": "",
          "type": "bool"
        }
      ],
      "stateMutability": "view",
      "type": "function"
    },
    {
      "inputs": [],
      "name": "getToken",
      "outputs": [
        {
          "internalType": "contract ERC20",
          "name": "",
          "type": "address"
        }
      ],
      "stateMutability": "view",
      "type": "function"
    },
    {
      "inputs": [
        {
          "internalType": "address",
          "name": "tokenAddress",
          "type": "address"
        }
      ],
      "name": "setToken",
      "outputs": [],
      "stateMutability": "nonpayable",
      "type": "function"
    },
    {
      "inputs": [
        {
          "internalType": "address",
          "name": "owner",
          "type": "address"
        }
      ],
      "name": "balanceOf",
      "outputs": [
        {
          "internalType": "uint256",
          "name": "",
          "type": "uint256"
        }
      ],
      "stateMutability": "view",
      "type": "function"
    },
    {
      "inputs": [
        {
          "internalType": "uint256",
          "name": "tokenId",
          "type": "uint256"
        }
      ],
      "name": "ownerOf",
      "outputs": [
        {
          "internalType": "address",
          "name": "",
          "type": "address"
        }
      ],
      "stateMutability": "view",
      "type": "function"
    },
    {
      "inputs": [],
      "name": "name",
      "outputs": [
        {
          "internalType": "string",
          "name": "",
          "type": "string"
        }
      ],
      "stateMutability": "view",
      "type": "function"
    },
    {
      "inputs": [],
      "name": "symbol",
      "outputs": [
        {
          "internalType": "string",
          "name": "",
          "type": "string"
        }
      ],
      "stateMutability": "view",
      "type": "function"
    },
    {
      "inputs": [
        {
          "internalType": "uint256",
          "name": "tokenId",
          "type": "uint256"
        }
      ],
      "name": "tokenURI",
      "outputs": [
        {
          "internalType": "string",
          "name": "",
          "type": "string"
        }
      ],
      "stateMutability": "view",
      "type": "function"
    },
    {
      "inputs": [
        {
          "internalType": "address",
          "name": "to",
          "type": "address"
        },
        {
          "internalType": "uint256",
          "name": "tokenId",
          "type": "uint256"
        }
      ],
      "name": "approve",
      "outputs": [],
      "stateMutability": "nonpayable",
      "type": "function"
    },
    {
      "inputs": [
        {
          "internalType": "uint256",
          "name": "tokenId",
          "type": "uint256"
        }
      ],
      "name": "getApproved",
      "outputs": [
        {
          "internalType": "address",
          "name": "",
          "type": "address"
        }
      ],
      "stateMutability": "view",
      "type": "function"
    },
    {
      "inputs": [
        {
          "internalType": "address",
          "name": "operator",
          "type": "address"
        },
        {
          "internalType": "bool",
          "name": "approved",
          "type": "bool"
        }
      ],
      "name": "setApprovalForAll",
      "outputs": [],
      "stateMutability": "nonpayable",
      "type": "function"
    },
    {
      "inputs": [
        {
          "internalType": "address",
          "name": "owner",
          "type": "address"
        },
        {
          "internalType": "address",
          "name": "operator",
          "type": "address"
        }
      ],
      "name": "isApprovedForAll",
      "outputs": [
        {
          "internalType": "bool",
          "name": "",
          "type": "bool"
        }
      ],
      "stateMutability": "view",
      "type": "function"
    },
    {
      "inputs": [
        {
          "internalType": "address",
          "name": "from",
          "type": "address"
        },
        {
          "internalType": "address",
          "name": "to",
          "type": "address"
        },
        {
          "internalType": "uint256",
          "name": "tokenId",
          "type": "uint256"
        }
      ],
      "name": "transferFrom",
      "outputs": [],
      "stateMutability": "nonpayable",
      "type": "function"
    },
    {
      "inputs": [
        {
          "internalType": "address",
          "name": "from",
          "type": "address"
        },
        {
          "internalType": "address",
          "name": "to",
          "type": "address"
        },
        {
          "internalType": "uint256",
          "name": "tokenId",
          "type": "uint256"
        }
      ],
      "name": "safeTransferFrom",
      "outputs": [],
      "stateMutability": "nonpayable",
      "type": "function"
    },
    {
      "inputs": [
        {
          "internalType": "address",
          "name": "from",
          "type": "address"
        },
        {
          "internalType": "address",
          "name": "to",
          "type": "address"
        },
        {
          "internalType": "uint256",
          "name": "tokenId",
          "type": "uint256"
        },
        {
          "internalType": "bytes",
          "name": "_data",
          "type": "bytes"
        }
      ],
      "name": "safeTransferFrom",
      "outputs": [],
      "stateMutability": "nonpayable",
      "type": "function"
    },
    {
      "inputs": [
        {
          "internalType": "address",
          "name": "to",
          "type": "address"
        },
        {
          "internalType": "uint256",
          "name": "tokenId",
          "type": "uint256"
        },
        {
          "internalType": "uint256",
          "name": "tokenAmount",
          "type": "uint256"
        }
      ],
      "name": "_mint",
      "outputs": [],
      "stateMutability": "nonpayable",
      "type": "function"
    }
  ],
  "bytecode": "0x6080604052600a600360006101000a81548160ff021916908360ff1602179055503480156200002d57600080fd5b5060405162002ce438038062002ce48339818101604052810190620000539190620001af565b81600190805190602001906200006b9291906200008d565b508060029080519060200190620000849291906200008d565b50505062000353565b8280546200009b90620002bf565b90600052602060002090601f016020900481019282620000bf57600085556200010b565b82601f10620000da57805160ff19168380011785556200010b565b828001600101855582156200010b579182015b828111156200010a578251825591602001919060010190620000ed565b5b5090506200011a91906200011e565b5090565b5b80821115620001395760008160009055506001016200011f565b5090565b6000620001546200014e8462000256565b62000222565b9050828152602081018484840111156200016d57600080fd5b6200017a84828562000289565b509392505050565b600082601f8301126200019457600080fd5b8151620001a68482602086016200013d565b91505092915050565b60008060408385031215620001c357600080fd5b600083015167ffffffffffffffff811115620001de57600080fd5b620001ec8582860162000182565b925050602083015167ffffffffffffffff8111156200020a57600080fd5b620002188582860162000182565b9150509250929050565b6000604051905081810181811067ffffffffffffffff821117156200024c576200024b62000324565b5b8060405250919050565b600067ffffffffffffffff82111562000274576200027362000324565b5b601f19601f8301169050602081019050919050565b60005b83811015620002a95780820151818401526020810190506200028c565b83811115620002b9576000848401525b50505050565b60006002820490506001821680620002d857607f821691505b60208210811415620002ef57620002ee620002f5565b5b50919050565b7f4e487b7100000000000000000000000000000000000000000000000000000000600052602260045260246000fd5b7f4e487b7100000000000000000000000000000000000000000000000000000000600052604160045260246000fd5b61298180620003636000396000f3fe608060405234801561001057600080fd5b5060043610610128576000357c0100000000000000000000000000000000000000000000000000000000900480636352211e116100bf57806395d89b411161008e57806395d89b41146102d3578063a22cb465146102f1578063b88d4fde1461030d578063c87b56dd14610329578063e985e9c51461035957610128565b80636352211e146102395780636e8e78db1461026957806370a08231146102875780637776afa0146102b757610128565b8063144fa6d7116100fb578063144fa6d7146101c757806321df0da7146101e357806323b872dd1461020157806342842e0e1461021d57610128565b806301ffc9a71461012d57806306fdde031461015d578063081812fc1461017b578063095ea7b3146101ab575b600080fd5b61014760048036038101906101429190611ba3565b610389565b60405161015491906122e2565b60405180910390f35b61016561046b565b6040516101729190612318565b60405180910390f35b61019560048036038101906101909190611bf5565b6104fd565b6040516101a29190612252565b60405180910390f35b6101c560048036038101906101c09190611aef565b610582565b005b6101e160048036038101906101dc9190611984565b61069a565b005b6101eb6106dd565b6040516101f891906122fd565b60405180910390f35b61021b600480360381019061021691906119e9565b610706565b005b610237600480360381019061023291906119e9565b610766565b005b610253600480360381019061024e9190611bf5565b610786565b6040516102609190612252565b60405180910390f35b610271610838565b60405161027e9190612515565b60405180910390f35b6102a1600480360381019061029c9190611984565b61084b565b6040516102ae91906124fa565b60405180910390f35b6102d160048036038101906102cc9190611b2b565b610903565b005b6102db610bf7565b6040516102e89190612318565b60405180910390f35b61030b60048036038101906103069190611ab3565b610c89565b005b61032760048036038101906103229190611a38565b610e0a565b005b610343600480360381019061033e9190611bf5565b610e6c565b6040516103509190612318565b60405180910390f35b610373600480360381019061036e91906119ad565b610f13565b60405161038091906122e2565b60405180910390f35b60007f80ac58cd000000000000000000000000000000000000000000000000000000007bffffffffffffffffffffffffffffffffffffffffffffffffffffffff1916827bffffffffffffffffffffffffffffffffffffffffffffffffffffffff1916148061045457507f5b5e139f000000000000000000000000000000000000000000000000000000007bffffffffffffffffffffffffffffffffffffffffffffffffffffffff1916827bffffffffffffffffffffffffffffffffffffffffffffffffffffffff1916145b80610464575061046382610fa7565b5b9050919050565b60606001805461047a90612776565b80601f01602080910402602001604051908101604052809291908181526020018280546104a690612776565b80156104f35780601f106104c8576101008083540402835291602001916104f3565b820191906000526020600020905b8154815290600101906020018083116104d657829003601f168201915b5050505050905090565b600061050882611011565b610547576040517f08c379a000000000000000000000000000000000000000000000000000000000815260040161053e9061245a565b60405180910390fd5b6007600083815260200190815260200160002060009054906101000a900473ffffffffffffffffffffffffffffffffffffffff169050919050565b600061058d82610786565b90508073ffffffffffffffffffffffffffffffffffffffff168373ffffffffffffffffffffffffffffffffffffffff1614156105fe576040517f08c379a00000000000000000000000000000000000000000000000000000000081526004016105f5906124ba565b60405180910390fd5b8073ffffffffffffffffffffffffffffffffffffffff1661061d61107d565b73ffffffffffffffffffffffffffffffffffffffff16148061064c575061064b8161064661107d565b610f13565b5b61068b576040517f08c379a0000000000000000000000000000000000000000000000000000000008152600401610682906123da565b60405180910390fd5b6106958383611085565b505050565b806000806101000a81548173ffffffffffffffffffffffffffffffffffffffff021916908373ffffffffffffffffffffffffffffffffffffffff16021790555050565b60008060009054906101000a900473ffffffffffffffffffffffffffffffffffffffff16905090565b61071761071161107d565b8261113e565b610756576040517f08c379a000000000000000000000000000000000000000000000000000000000815260040161074d906124da565b60405180910390fd5b61076183838361121c565b505050565b61078183838360405180602001604052806000815250610e0a565b505050565b6000806004600084815260200190815260200160002060009054906101000a900473ffffffffffffffffffffffffffffffffffffffff169050600073ffffffffffffffffffffffffffffffffffffffff168173ffffffffffffffffffffffffffffffffffffffff16141561082f576040517f08c379a00000000000000000000000000000000000000000000000000000000081526004016108269061241a565b60405180910390fd5b80915050919050565b600360009054906101000a900460ff1681565b60008073ffffffffffffffffffffffffffffffffffffffff168273ffffffffffffffffffffffffffffffffffffffff1614156108bc576040517f08c379a00000000000000000000000000000000000000000000000000000000081526004016108b3906123fa565b60405180910390fd5b600660008373ffffffffffffffffffffffffffffffffffffffff1673ffffffffffffffffffffffffffffffffffffffff168152602001908152602001600020549050919050565b600073ffffffffffffffffffffffffffffffffffffffff168373ffffffffffffffffffffffffffffffffffffffff161415610973576040517f08c379a000000000000000000000000000000000000000000000000000000000815260040161096a9061243a565b60405180910390fd5b61097c82611011565b156109bc576040517f08c379a00000000000000000000000000000000000000000000000000000000081526004016109b39061235a565b60405180910390fd5b600081116109c957600080fd5b60008054906101000a900473ffffffffffffffffffffffffffffffffffffffff1673ffffffffffffffffffffffffffffffffffffffff1663af7d6ca384836040518363ffffffff167c0100000000000000000000000000000000000000000000000000000000028152600401610a409291906122b9565b602060405180830381600087803b158015610a5a57600080fd5b505af1158015610a6e573d6000803e3d6000fd5b505050506040513d601f19601f82011682018060405250810190610a929190611b7a565b610a9b57600080fd5b6001600660008573ffffffffffffffffffffffffffffffffffffffff1673ffffffffffffffffffffffffffffffffffffffff1681526020019081526020016000206000828254610aeb91906125d4565b92505081905550826004600084815260200190815260200160002060006101000a81548173ffffffffffffffffffffffffffffffffffffffff021916908373ffffffffffffffffffffffffffffffffffffffff160217905550826005600084815260200190815260200160002060006101000a81548173ffffffffffffffffffffffffffffffffffffffff021916908373ffffffffffffffffffffffffffffffffffffffff160217905550818373ffffffffffffffffffffffffffffffffffffffff16600073ffffffffffffffffffffffffffffffffffffffff167fddf252ad1be2c89b69c2b068fc378daa952ba7f163c4a11628f55a4df523b3ef60405160405180910390a4505050565b606060028054610c0690612776565b80601f0160208091040260200160405190810160405280929190818152602001828054610c3290612776565b8015610c7f5780601f10610c5457610100808354040283529160200191610c7f565b820191906000526020600020905b815481529060010190602001808311610c6257829003601f168201915b5050505050905090565b610c9161107d565b73ffffffffffffffffffffffffffffffffffffffff168273ffffffffffffffffffffffffffffffffffffffff161415610cff576040517f08c379a0000000000000000000000000000000000000000000000000000000008152600401610cf69061239a565b60405180910390fd5b8060086000610d0c61107d565b73ffffffffffffffffffffffffffffffffffffffff1673ffffffffffffffffffffffffffffffffffffffff16815260200190815260200160002060008473ffffffffffffffffffffffffffffffffffffffff1673ffffffffffffffffffffffffffffffffffffffff16815260200190815260200160002060006101000a81548160ff0219169083151502179055508173ffffffffffffffffffffffffffffffffffffffff16610db961107d565b73ffffffffffffffffffffffffffffffffffffffff167f17307eab39ab6107e8899845ad3d59bd9653f200f220920489ca2b5937696c3183604051610dfe91906122e2565b60405180910390a35050565b610e1b610e1561107d565b8361113e565b610e5a576040517f08c379a0000000000000000000000000000000000000000000000000000000008152600401610e51906124da565b60405180910390fd5b610e6684848484611478565b50505050565b6060610e7782611011565b610eb6576040517f08c379a0000000000000000000000000000000000000000000000000000000008152600401610ead9061249a565b60405180910390fd5b6000610ec06114d4565b90506000815111610ee05760405180602001604052806000815250610f0b565b80610eea846114eb565b604051602001610efb92919061222e565b6040516020818303038152906040525b915050919050565b6000600860008473ffffffffffffffffffffffffffffffffffffffff1673ffffffffffffffffffffffffffffffffffffffff16815260200190815260200160002060008373ffffffffffffffffffffffffffffffffffffffff1673ffffffffffffffffffffffffffffffffffffffff16815260200190815260200160002060009054906101000a900460ff16905092915050565b60007f01ffc9a7000000000000000000000000000000000000000000000000000000007bffffffffffffffffffffffffffffffffffffffffffffffffffffffff1916827bffffffffffffffffffffffffffffffffffffffffffffffffffffffff1916149050919050565b60008073ffffffffffffffffffffffffffffffffffffffff166004600084815260200190815260200160002060009054906101000a900473ffffffffffffffffffffffffffffffffffffffff1673ffffffffffffffffffffffffffffffffffffffff1614159050919050565b600033905090565b816007600083815260200190815260200160002060006101000a81548173ffffffffffffffffffffffffffffffffffffffff021916908373ffffffffffffffffffffffffffffffffffffffff160217905550808273ffffffffffffffffffffffffffffffffffffffff166110f883610786565b73ffffffffffffffffffffffffffffffffffffffff167f8c5be1e5ebec7d5bd14f71427d1e84f3dd0314c0f7b2291e5b200ac8c7c3b92560405160405180910390a45050565b600061114982611011565b611188576040517f08c379a000000000000000000000000000000000000000000000000000000000815260040161117f906123ba565b60405180910390fd5b600061119383610786565b90508073ffffffffffffffffffffffffffffffffffffffff168473ffffffffffffffffffffffffffffffffffffffff16148061120257508373ffffffffffffffffffffffffffffffffffffffff166111ea846104fd565b73ffffffffffffffffffffffffffffffffffffffff16145b8061121357506112128185610f13565b5b91505092915050565b8273ffffffffffffffffffffffffffffffffffffffff1661123c82610786565b73ffffffffffffffffffffffffffffffffffffffff1614611292576040517f08c379a00000000000000000000000000000000000000000000000000000000081526004016112899061247a565b60405180910390fd5b600073ffffffffffffffffffffffffffffffffffffffff168273ffffffffffffffffffffffffffffffffffffffff161415611302576040517f08c379a00000000000000000000000000000000000000000000000000000000081526004016112f99061237a565b60405180910390fd5b61130d8383836116b7565b611318600082611085565b6001600660008573ffffffffffffffffffffffffffffffffffffffff1673ffffffffffffffffffffffffffffffffffffffff1681526020019081526020016000206000828254611368919061265b565b925050819055506001600660008473ffffffffffffffffffffffffffffffffffffffff1673ffffffffffffffffffffffffffffffffffffffff16815260200190815260200160002060008282546113bf91906125d4565b92505081905550816004600083815260200190815260200160002060006101000a81548173ffffffffffffffffffffffffffffffffffffffff021916908373ffffffffffffffffffffffffffffffffffffffff160217905550808273ffffffffffffffffffffffffffffffffffffffff168473ffffffffffffffffffffffffffffffffffffffff167fddf252ad1be2c89b69c2b068fc378daa952ba7f163c4a11628f55a4df523b3ef60405160405180910390a4505050565b61148384848461121c565b61148f848484846116bc565b6114ce576040517f08c379a00000000000000000000000000000000000000000000000000000000081526004016114c59061233a565b60405180910390fd5b50505050565b606060405180602001604052806000815250905090565b60606000821415611533576040518060400160405280600181526020017f300000000000000000000000000000000000000000000000000000000000000081525090506116b2565b600082905060005b6000821461156557808061154e906127a8565b915050600a8261155e919061262a565b915061153b565b60008167ffffffffffffffff8111156115a7577f4e487b7100000000000000000000000000000000000000000000000000000000600052604160045260246000fd5b6040519080825280601f01601f1916602001820160405280156115d95781602001600182028036833780820191505090505b5090505b600085146116ab576001826115f2919061265b565b9150600a8561160191906127f1565b603061160d91906125d4565b7f010000000000000000000000000000000000000000000000000000000000000002818381518110611668577f4e487b7100000000000000000000000000000000000000000000000000000000600052603260045260246000fd5b60200101907effffffffffffffffffffffffffffffffffffffffffffffffffffffffffffff1916908160001a905350600a856116a4919061262a565b94506115dd565b8093505050505b919050565b505050565b60006116dd8473ffffffffffffffffffffffffffffffffffffffff1661188b565b1561187e578373ffffffffffffffffffffffffffffffffffffffff1663150b7a0261170661107d565b8786866040518563ffffffff167c0100000000000000000000000000000000000000000000000000000000028152600401611744949392919061226d565b602060405180830381600087803b15801561175e57600080fd5b505af192505050801561178f57506040513d601f19601f8201168201806040525081019061178c9190611bcc565b60015b611812573d80600081146117bf576040519150601f19603f3d011682016040523d82523d6000602084013e6117c4565b606091505b5060008151141561180a576040517f08c379a00000000000000000000000000000000000000000000000000000000081526004016118019061233a565b60405180910390fd5b805181602001fd5b63150b7a027c0100000000000000000000000000000000000000000000000000000000027bffffffffffffffffffffffffffffffffffffffffffffffffffffffff1916817bffffffffffffffffffffffffffffffffffffffffffffffffffffffff191614915050611883565b600190505b949350505050565b600080823b905060008111915050919050565b60006118b16118ac84612561565b612530565b9050828152602081018484840111156118c957600080fd5b6118d4848285612734565b509392505050565b6000813590506118eb816128ef565b92915050565b60008135905061190081612906565b92915050565b60008151905061191581612906565b92915050565b60008135905061192a8161291d565b92915050565b60008151905061193f8161291d565b92915050565b600082601f83011261195657600080fd5b813561196684826020860161189e565b91505092915050565b60008135905061197e81612934565b92915050565b60006020828403121561199657600080fd5b60006119a4848285016118dc565b91505092915050565b600080604083850312156119c057600080fd5b60006119ce858286016118dc565b92505060206119df858286016118dc565b9150509250929050565b6000806000606084860312156119fe57600080fd5b6000611a0c868287016118dc565b9350506020611a1d868287016118dc565b9250506040611a2e8682870161196f565b9150509250925092565b60008060008060808587031215611a4e57600080fd5b6000611a5c878288016118dc565b9450506020611a6d878288016118dc565b9350506040611a7e8782880161196f565b925050606085013567ffffffffffffffff811115611a9b57600080fd5b611aa787828801611945565b91505092959194509250565b60008060408385031215611ac657600080fd5b6000611ad4858286016118dc565b9250506020611ae5858286016118f1565b9150509250929050565b60008060408385031215611b0257600080fd5b6000611b10858286016118dc565b9250506020611b218582860161196f565b9150509250929050565b600080600060608486031215611b4057600080fd5b6000611b4e868287016118dc565b9350506020611b5f8682870161196f565b9250506040611b708682870161196f565b9150509250925092565b600060208284031215611b8c57600080fd5b6000611b9a84828501611906565b91505092915050565b600060208284031215611bb557600080fd5b6000611bc38482850161191b565b91505092915050565b600060208284031215611bde57600080fd5b6000611bec84828501611930565b91505092915050565b600060208284031215611c0757600080fd5b6000611c158482850161196f565b91505092915050565b611c278161268f565b82525050565b611c36816126a1565b82525050565b6000611c4782612591565b611c5181856125a7565b9350611c61818560208601612743565b611c6a816128de565b840191505092915050565b611c7e81612710565b82525050565b6000611c8f8261259c565b611c9981856125b8565b9350611ca9818560208601612743565b611cb2816128de565b840191505092915050565b6000611cc88261259c565b611cd281856125c9565b9350611ce2818560208601612743565b80840191505092915050565b6000611cfb6032836125b8565b91507f4552433732313a207472616e7366657220746f206e6f6e20455243373231526560008301527f63656976657220696d706c656d656e74657200000000000000000000000000006020830152604082019050919050565b6000611d61601c836125b8565b91507f4552433732313a20746f6b656e20616c7265616479206d696e746564000000006000830152602082019050919050565b6000611da16024836125b8565b91507f4552433732313a207472616e7366657220746f20746865207a65726f2061646460008301527f72657373000000000000000000000000000000000000000000000000000000006020830152604082019050919050565b6000611e076019836125b8565b91507f4552433732313a20617070726f766520746f2063616c6c6572000000000000006000830152602082019050919050565b6000611e47602c836125b8565b91507f4552433732313a206f70657261746f7220717565727920666f72206e6f6e657860008301527f697374656e7420746f6b656e00000000000000000000000000000000000000006020830152604082019050919050565b6000611ead6038836125b8565b91507f4552433732313a20617070726f76652063616c6c6572206973206e6f74206f7760008301527f6e6572206e6f7220617070726f76656420666f7220616c6c00000000000000006020830152604082019050919050565b6000611f13602a836125b8565b91507f4552433732313a2062616c616e636520717565727920666f7220746865207a6560008301527f726f2061646472657373000000000000000000000000000000000000000000006020830152604082019050919050565b6000611f796029836125b8565b91507f4552433732313a206f776e657220717565727920666f72206e6f6e657869737460008301527f656e7420746f6b656e00000000000000000000000000000000000000000000006020830152604082019050919050565b6000611fdf6020836125b8565b91507f4552433732313a206d696e7420746f20746865207a65726f20616464726573736000830152602082019050919050565b600061201f602c836125b8565b91507f4552433732313a20617070726f76656420717565727920666f72206e6f6e657860008301527f697374656e7420746f6b656e00000000000000000000000000000000000000006020830152604082019050919050565b60006120856029836125b8565b91507f4552433732313a207472616e73666572206f6620746f6b656e2074686174206960008301527f73206e6f74206f776e00000000000000000000000000000000000000000000006020830152604082019050919050565b60006120eb602f836125b8565b91507f4552433732314d657461646174613a2055524920717565727920666f72206e6f60008301527f6e6578697374656e7420746f6b656e00000000000000000000000000000000006020830152604082019050919050565b60006121516021836125b8565b91507f4552433732313a20617070726f76616c20746f2063757272656e74206f776e6560008301527f72000000000000000000000000000000000000000000000000000000000000006020830152604082019050919050565b60006121b76031836125b8565b91507f4552433732313a207472616e736665722063616c6c6572206973206e6f74206f60008301527f776e6572206e6f7220617070726f7665640000000000000000000000000000006020830152604082019050919050565b612219816126f9565b82525050565b61222881612703565b82525050565b600061223a8285611cbd565b91506122468284611cbd565b91508190509392505050565b60006020820190506122676000830184611c1e565b92915050565b60006080820190506122826000830187611c1e565b61228f6020830186611c1e565b61229c6040830185612210565b81810360608301526122ae8184611c3c565b905095945050505050565b60006040820190506122ce6000830185611c1e565b6122db6020830184612210565b9392505050565b60006020820190506122f76000830184611c2d565b92915050565b60006020820190506123126000830184611c75565b92915050565b600060208201905081810360008301526123328184611c84565b905092915050565b6000602082019050818103600083015261235381611cee565b9050919050565b6000602082019050818103600083015261237381611d54565b9050919050565b6000602082019050818103600083015261239381611d94565b9050919050565b600060208201905081810360008301526123b381611dfa565b9050919050565b600060208201905081810360008301526123d381611e3a565b9050919050565b600060208201905081810360008301526123f381611ea0565b9050919050565b6000602082019050818103600083015261241381611f06565b9050919050565b6000602082019050818103600083015261243381611f6c565b9050919050565b6000602082019050818103600083015261245381611fd2565b9050919050565b6000602082019050818103600083015261247381612012565b9050919050565b6000602082019050818103600083015261249381612078565b9050919050565b600060208201905081810360008301526124b3816120de565b9050919050565b600060208201905081810360008301526124d381612144565b9050919050565b600060208201905081810360008301526124f3816121aa565b9050919050565b600060208201905061250f6000830184612210565b92915050565b600060208201905061252a600083018461221f565b92915050565b6000604051905081810181811067ffffffffffffffff82111715612557576125566128af565b5b8060405250919050565b600067ffffffffffffffff82111561257c5761257b6128af565b5b601f19601f8301169050602081019050919050565b600081519050919050565b600081519050919050565b600082825260208201905092915050565b600082825260208201905092915050565b600081905092915050565b60006125df826126f9565b91506125ea836126f9565b9250827fffffffffffffffffffffffffffffffffffffffffffffffffffffffffffffffff0382111561261f5761261e612822565b5b828201905092915050565b6000612635826126f9565b9150612640836126f9565b9250826126505761264f612851565b5b828204905092915050565b6000612666826126f9565b9150612671836126f9565b92508282101561268457612683612822565b5b828203905092915050565b600061269a826126d9565b9050919050565b60008115159050919050565b60007fffffffff0000000000000000000000000000000000000000000000000000000082169050919050565b600073ffffffffffffffffffffffffffffffffffffffff82169050919050565b6000819050919050565b600060ff82169050919050565b600061271b82612722565b9050919050565b600061272d826126d9565b9050919050565b82818337600083830152505050565b60005b83811015612761578082015181840152602081019050612746565b83811115612770576000848401525b50505050565b6000600282049050600182168061278e57607f821691505b602082108114156127a2576127a1612880565b5b50919050565b60006127b3826126f9565b91507fffffffffffffffffffffffffffffffffffffffffffffffffffffffffffffffff8214156127e6576127e5612822565b5b600182019050919050565b60006127fc826126f9565b9150612807836126f9565b92508261281757612816612851565b5b828206905092915050565b7f4e487b7100000000000000000000000000000000000000000000000000000000600052601160045260246000fd5b7f4e487b7100000000000000000000000000000000000000000000000000000000600052601260045260246000fd5b7f4e487b7100000000000000000000000000000000000000000000000000000000600052602260045260246000fd5b7f4e487b7100000000000000000000000000000000000000000000000000000000600052604160045260246000fd5b6000601f19601f8301169050919050565b6128f88161268f565b811461290357600080fd5b50565b61290f816126a1565b811461291a57600080fd5b50565b612926816126ad565b811461293157600080fd5b50565b61293d816126f9565b811461294857600080fd5b5056fea264697066735822122026320e803d9dde30d3fd0f428e69e06ed56005c7362e8da329083732b1cb2f2464736f6c63430008000033",
  "immutableReferences": {},
  "source": "// SPDX-License-Identifier: MIT\n\npragma solidity ^0.8.0;\n\nimport \"./IERC721.sol\";\nimport \"./IERC721Receiver.sol\";\nimport \"./extensions/IERC721Metadata.sol\";\nimport \"../utils/Address.sol\";\nimport \"../utils/Context.sol\";\nimport \"../utils/Strings.sol\";\nimport \"../utils/introspection/ERC165.sol\";\nimport \"../ERC20/ERC20.sol\";\n\n/**\n * @dev Implementation of https://eips.ethereum.org/EIPS/eip-721[ERC721] Non-Fungible Token Standard, including\n * the Metadata extension, but not including the Enumerable extension, which is available separately as\n * {ERC721Enumerable}.\n */\n\ncontract ERC721 is Context, ERC165, IERC721, IERC721Metadata {\n    using Address for address;\n    using Strings for uint256;\n\n    //ERC20 Token\n    ERC20 private _token; // getters and setters\n\n    // Token name\n    string private _name;\n\n    // Token symbol\n    string private _symbol;\n\n\n    uint8 public _creatorComission = 10;\n    // Mapping from token ID to owner address\n    mapping(uint256 => address) private _owners;\n\n    mapping(uint256 => address) internal _creator;\n    // Mapping owner address to token count\n    mapping(address => uint256) private _balances;\n\n    // Mapping from token ID to approved address\n    mapping(uint256 => address) private _tokenApprovals;\n\n    // Mapping from owner to operator approvals\n    mapping(address => mapping(address => bool)) private _operatorApprovals;\n\n    /**\n     * @dev Initializes the contract by setting a `name` and a `symbol` to the token collection.\n     */\n    constructor(string memory name_, string memory symbol_) {\n        _name = name_;\n        _symbol = symbol_;\n    }\n\n    /**\n     * @dev See {IERC165-supportsInterface}.\n     */\n    function supportsInterface(bytes4 interfaceId) public view virtual override(ERC165, IERC165) returns (bool) {\n        return\n        interfaceId == type(IERC721).interfaceId ||\n        interfaceId == type(IERC721Metadata).interfaceId ||\n        super.supportsInterface(interfaceId);\n    }\n    /**\n     * Getter and Setter of _token (ERC20)\n     **/\n    function getToken() public view returns(ERC20){\n        return _token;\n    }\n\n    //  ERC20 private _token; // getters and setters\n    function setToken(address tokenAddress) public {\n        _token = ERC20(tokenAddress);\n    }\n\n    /**\n     * @dev See {IERC721-balanceOf}.\n     */\n    function balanceOf(address owner) public view virtual override returns (uint256) {\n        require(owner != address(0), \"ERC721: balance query for the zero address\");\n        return _balances[owner];\n    }\n\n    /**\n     * @dev See {IERC721-ownerOf}.\n     */\n    function ownerOf(uint256 tokenId) public view virtual override returns (address) {\n        address owner = _owners[tokenId];\n        require(owner != address(0), \"ERC721: owner query for nonexistent token\");\n        return owner;\n    }\n\n    /**\n     * @dev See {IERC721Metadata-name}.\n     */\n    function name() public view virtual override returns (string memory) {\n        return _name;\n    }\n\n    /**\n     * @dev See {IERC721Metadata-symbol}.\n     */\n    function symbol() public view virtual override returns (string memory) {\n        return _symbol;\n    }\n\n    /**\n     * @dev See {IERC721Metadata-tokenURI}.\n     */\n    function tokenURI(uint256 tokenId) public view virtual override returns (string memory) {\n        require(_exists(tokenId), \"ERC721Metadata: URI query for nonexistent token\");\n\n        string memory baseURI = _baseURI();\n        return bytes(baseURI).length > 0 ? string(abi.encodePacked(baseURI, tokenId.toString())) : \"\";\n    }\n\n    /**\n     * @dev Base URI for computing {tokenURI}. If set, the resulting URI for each\n     * token will be the concatenation of the `baseURI` and the `tokenId`. Empty\n     * by default, can be overriden in child contracts.\n     */\n    function _baseURI() internal view virtual returns (string memory) {\n        return \"\";\n    }\n\n    /**\n     * @dev See {IERC721-approve}.\n     */\n    function approve(address to, uint256 tokenId) public virtual override {\n        address owner = ERC721.ownerOf(tokenId);\n        require(to != owner, \"ERC721: approval to current owner\");\n\n        require(\n            _msgSender() == owner || isApprovedForAll(owner, _msgSender()),\n            \"ERC721: approve caller is not owner nor approved for all\"\n        );\n\n        _approve(to, tokenId);\n    }\n\n    /**\n     * @dev See {IERC721-getApproved}.\n     */\n    function getApproved(uint256 tokenId) public view virtual override returns (address) {\n        require(_exists(tokenId), \"ERC721: approved query for nonexistent token\");\n\n        return _tokenApprovals[tokenId];\n    }\n\n    /**\n     * @dev See {IERC721-setApprovalForAll}.\n     */\n    function setApprovalForAll(address operator, bool approved) public virtual override {\n        require(operator != _msgSender(), \"ERC721: approve to caller\");\n\n        _operatorApprovals[_msgSender()][operator] = approved;\n        emit ApprovalForAll(_msgSender(), operator, approved);\n    }\n\n    /**\n     * @dev See {IERC721-isApprovedForAll}.\n     */\n    function isApprovedForAll(address owner, address operator) public view virtual override returns (bool) {\n        return _operatorApprovals[owner][operator];\n    }\n\n    /**\n     * @dev See {IERC721-transferFrom}.\n     */\n    function transferFrom(\n        address from,\n        address to,\n        uint256 tokenId\n    ) public virtual override {\n        //solhint-disable-next-line max-line-length\n        require(_isApprovedOrOwner(_msgSender(), tokenId), \"ERC721: transfer caller is not owner nor approved\");\n\n        _transfer(from, to, tokenId);\n    }\n\n    /**\n     * @dev See {IERC721-safeTransferFrom}.\n     */\n    function safeTransferFrom(\n        address from,\n        address to,\n        uint256 tokenId\n    ) public virtual override {\n        safeTransferFrom(from, to, tokenId, \"\");\n    }\n\n    /**\n     * @dev See {IERC721-safeTransferFrom}.\n     */\n    function safeTransferFrom(\n        address from,\n        address to,\n        uint256 tokenId,\n        bytes memory _data\n    ) public virtual override {\n        require(_isApprovedOrOwner(_msgSender(), tokenId), \"ERC721: transfer caller is not owner nor approved\");\n        _safeTransfer(from, to, tokenId, _data);\n    }\n\n    /**\n     * @dev Safely transfers `tokenId` token from `from` to `to`, checking first that contract recipients\n     * are aware of the ERC721 protocol to prevent tokens from being forever locked.\n     *\n     * `_data` is additional data, it has no specified format and it is sent in call to `to`.\n     *\n     * This internal function is equivalent to {safeTransferFrom}, and can be used to e.g.\n     * implement alternative mechanisms to perform token transfer, such as signature-based.\n     *\n     * Requirements:\n     *\n     * - `from` cannot be the zero address.\n     * - `to` cannot be the zero address.\n     * - `tokenId` token must exist and be owned by `from`.\n     * - If `to` refers to a smart contract, it must implement {IERC721Receiver-onERC721Received}, which is called upon a safe transfer.\n     *\n     * Emits a {Transfer} event.\n     */\n    function _safeTransfer(\n        address from,\n        address to,\n        uint256 tokenId,\n        bytes memory _data\n    ) internal virtual {\n        _transfer(from, to, tokenId);\n        require(_checkOnERC721Received(from, to, tokenId, _data), \"ERC721: transfer to non ERC721Receiver implementer\");\n    }\n\n    /**\n     * @dev Returns whether `tokenId` exists.\n     *\n     * Tokens can be managed by their owner or approved accounts via {approve} or {setApprovalForAll}.\n     *\n     * Tokens start existing when they are minted (`_mint`),\n     * and stop existing when they are burned (`_burn`).\n     */\n    function _exists(uint256 tokenId) internal view virtual returns (bool) {\n        return _owners[tokenId] != address(0);\n    }\n\n    /**\n     * @dev Returns whether `spender` is allowed to manage `tokenId`.\n     *\n     * Requirements:\n     *\n     * - `tokenId` must exist.\n     */\n    function _isApprovedOrOwner(address spender, uint256 tokenId) internal view virtual returns (bool) {\n        require(_exists(tokenId), \"ERC721: operator query for nonexistent token\");\n        address owner = ERC721.ownerOf(tokenId);\n        return (spender == owner || getApproved(tokenId) == spender || isApprovedForAll(owner, spender));\n    }\n\n    /**\n     * @dev Safely mints `tokenId` and transfers it to `to`.\n     *\n     * Requirements:\n     *\n     * - `tokenId` must not exist.\n     * - If `to` refers to a smart contract, it must implement {IERC721Receiver-onERC721Received}, which is called upon a safe transfer.\n     *\n     * Emits a {Transfer} event.\n     */\n    function _safeMint(address to, uint256 tokenId, uint256 tokenAmount) internal virtual {\n        _safeMint(to, tokenId, tokenAmount, \"\");\n    }\n\n    /**\n     * @dev Same as {xref-ERC721-_safeMint-address-uint256-}[`_safeMint`], with an additional `data` parameter which is\n     * forwarded in {IERC721Receiver-onERC721Received} to contract recipients.\n     */\n    function _safeMint(\n        address to,\n        uint256 tokenId,\n        uint256 tokenAmount,\n        bytes memory _data\n    ) internal virtual {\n        _mint(to, tokenId, tokenAmount);\n        require(\n            _checkOnERC721Received(address(0), to, tokenId, _data),\n            \"ERC721: transfer to non ERC721Receiver implementer\"\n        );\n    }\n\n    /**\n     * @dev Mints `tokenId` and transfers it to `to`.\n     *\n     * WARNING: Usage of this method is discouraged, use {_safeMint} whenever possible\n     *\n     * Requirements:\n     *\n     * - `tokenId` must not exist.\n     * - `to` cannot be the zero address.\n     *\n     * Emits a {Transfer} event.\n     */\n    function _mint(address to, uint256 tokenId, uint256 tokenAmount) public virtual {\n        require(to != address(0), \"ERC721: mint to the zero address\");\n        require(!_exists(tokenId), \"ERC721: token already minted\");\n        require(tokenAmount > 0);\n\n        require(_token.spend(to, tokenAmount));\n\n        _balances[to] += 1;\n        _owners[tokenId] = to;\n        _creator[tokenId] = to;\n        emit Transfer(address(0), to, tokenId);\n    }\n\n    /**\n     * @dev Destroys `tokenId`.\n     * The approval is cleared when the token is burned.\n     *\n     * Requirements:\n     *\n     * - `tokenId` must exist.\n     *\n     * Emits a {Transfer} event.\n     */\n    function _burn(uint256 tokenId) internal virtual {\n        address owner = ERC721.ownerOf(tokenId);\n\n        // Clear approvals\n        _approve(address(0), tokenId);\n\n        _balances[owner] -= 1;\n        delete _owners[tokenId];\n\n        emit Transfer(owner, address(0), tokenId);\n    }\n\n    /**\n     * @dev Transfers `tokenId` from `from` to `to`.\n     *  As opposed to {transferFrom}, this imposes no restrictions on msg.sender.\n     *\n     * Requirements:\n     *\n     * - `to` cannot be the zero address.\n     * - `tokenId` token must be owned by `from`.\n     *\n     * Emits a {Transfer} event.\n     */\n    function _transfer(\n        address from,\n        address to,\n        uint256 tokenId\n    ) internal virtual {\n        require(ERC721.ownerOf(tokenId) == from, \"ERC721: transfer of token that is not own\");\n        require(to != address(0), \"ERC721: transfer to the zero address\");\n\n        _beforeTokenTransfer(from, to, tokenId);\n\n        // Clear approvals from the previous owner\n        _approve(address(0), tokenId);\n\n        _balances[from] -= 1;\n        _balances[to] += 1;\n        _owners[tokenId] = to;\n\n        emit Transfer(from, to, tokenId);\n    }\n\n    /**\n     * @dev Approve `to` to operate on `tokenId`\n     *\n     * Emits a {Approval} event.\n     */\n    function _approve(address to, uint256 tokenId) internal virtual {\n        _tokenApprovals[tokenId] = to;\n        emit Approval(ERC721.ownerOf(tokenId), to, tokenId);\n    }\n\n    /**\n     * @dev Internal function to invoke {IERC721Receiver-onERC721Received} on a target address.\n     * The call is not executed if the target address is not a contract.\n     *\n     * @param from address representing the previous owner of the given token ID\n     * @param to target address that will receive the tokens\n     * @param tokenId uint256 ID of the token to be transferred\n     * @param _data bytes optional data to send along with the call\n     * @return bool whether the call correctly returned the expected magic value\n     */\n    function _checkOnERC721Received(\n        address from,\n        address to,\n        uint256 tokenId,\n        bytes memory _data\n    ) private returns (bool) {\n        if (to.isContract()) {\n            try IERC721Receiver(to).onERC721Received(_msgSender(), from, tokenId, _data) returns (bytes4 retval) {\n                return retval == IERC721Receiver(to).onERC721Received.selector;\n            } catch (bytes memory reason) {\n                if (reason.length == 0) {\n                    revert(\"ERC721: transfer to non ERC721Receiver implementer\");\n                } else {\n                    assembly {\n                        revert(add(32, reason), mload(reason))\n                    }\n                }\n            }\n        } else {\n            return true;\n        }\n    }\n\n    /**\n     * @dev Hook that is called before any token transfer. This includes minting\n     * and burning.\n     *\n     * Calling conditions:\n     *\n     * - When `from` and `to` are both non-zero, ``from``'s `tokenId` will be\n     * transferred to `to`.\n     * - When `from` is zero, `tokenId` will be minted for `to`.\n     * - When `to` is zero, ``from``'s `tokenId` will be burned.\n     * - `from` and `to` are never both zero.\n     *\n     * To learn more about hooks, head to xref:ROOT:extending-contracts.adoc#using-hooks[Using Hooks].\n     */\n    function _beforeTokenTransfer(\n        address from,\n        address to,\n        uint256 tokenId\n    ) internal virtual {}\n}",
  "sourcePath": "/Volumes/Transcend/Projects/DappsLab/Lottery-Smart-Contract/contracts/customERC20ERC721/ERC721/ERC721.sol",
  "compiler": {
    "name": "solc",
    "version": "0.8.0+commit.c7dfd78e.Emscripten.clang"
  },
  "schemaVersion": "3.4.1",
  "updatedAt": "2021-06-27T14:51:43.025Z",
  "devdoc": {
    "details": "Implementation of https://eips.ethereum.org/EIPS/eip-721[ERC721] Non-Fungible Token Standard, including the Metadata extension, but not including the Enumerable extension, which is available separately as {ERC721Enumerable}.",
    "kind": "dev",
    "methods": {
      "_mint(address,uint256,uint256)": {
        "details": "Mints `tokenId` and transfers it to `to`. WARNING: Usage of this method is discouraged, use {_safeMint} whenever possible Requirements: - `tokenId` must not exist. - `to` cannot be the zero address. Emits a {Transfer} event."
      },
      "approve(address,uint256)": {
        "details": "See {IERC721-approve}."
      },
      "balanceOf(address)": {
        "details": "See {IERC721-balanceOf}."
      },
      "constructor": {
        "details": "Initializes the contract by setting a `name` and a `symbol` to the token collection."
      },
      "getApproved(uint256)": {
        "details": "See {IERC721-getApproved}."
      },
      "isApprovedForAll(address,address)": {
        "details": "See {IERC721-isApprovedForAll}."
      },
      "name()": {
        "details": "See {IERC721Metadata-name}."
      },
      "ownerOf(uint256)": {
        "details": "See {IERC721-ownerOf}."
      },
      "safeTransferFrom(address,address,uint256)": {
        "details": "See {IERC721-safeTransferFrom}."
      },
      "safeTransferFrom(address,address,uint256,bytes)": {
        "details": "See {IERC721-safeTransferFrom}."
      },
      "setApprovalForAll(address,bool)": {
        "details": "See {IERC721-setApprovalForAll}."
      },
      "supportsInterface(bytes4)": {
        "details": "See {IERC165-supportsInterface}."
      },
      "symbol()": {
        "details": "See {IERC721Metadata-symbol}."
      },
      "tokenURI(uint256)": {
        "details": "See {IERC721Metadata-tokenURI}."
      },
      "transferFrom(address,address,uint256)": {
        "details": "See {IERC721-transferFrom}."
      }
    },
    "version": 1
  },
  "userdoc": {
    "kind": "user",
    "methods": {
      "getToken()": {
        "notice": "Getter and Setter of _token (ERC20)*"
      }
    },
    "version": 1
  }
}