{
  "contractName": "ERC721",
  "abi": [
    {
      "inputs": [
        {
          "internalType": "string",
          "name": "name_",
          "type": "string"
        },
        {
          "internalType": "string",
          "name": "symbol_",
          "type": "string"
        }
      ],
      "stateMutability": "nonpayable",
      "type": "constructor"
    },
    {
      "anonymous": false,
      "inputs": [
        {
          "indexed": true,
          "internalType": "address",
          "name": "owner",
          "type": "address"
        },
        {
          "indexed": true,
          "internalType": "address",
          "name": "approved",
          "type": "address"
        },
        {
          "indexed": true,
          "internalType": "uint256",
          "name": "tokenId",
          "type": "uint256"
        }
      ],
      "name": "Approval",
      "type": "event"
    },
    {
      "anonymous": false,
      "inputs": [
        {
          "indexed": true,
          "internalType": "address",
          "name": "owner",
          "type": "address"
        },
        {
          "indexed": true,
          "internalType": "address",
          "name": "operator",
          "type": "address"
        },
        {
          "indexed": false,
          "internalType": "bool",
          "name": "approved",
          "type": "bool"
        }
      ],
      "name": "ApprovalForAll",
      "type": "event"
    },
    {
      "anonymous": false,
      "inputs": [
        {
          "indexed": true,
          "internalType": "address",
          "name": "from",
          "type": "address"
        },
        {
          "indexed": true,
          "internalType": "address",
          "name": "to",
          "type": "address"
        },
        {
          "indexed": true,
          "internalType": "uint256",
          "name": "tokenId",
          "type": "uint256"
        }
      ],
      "name": "Transfer",
      "type": "event"
    },
    {
      "inputs": [
        {
          "internalType": "uint256",
          "name": "",
          "type": "uint256"
        }
      ],
      "name": "_creator",
      "outputs": [
        {
          "internalType": "address",
          "name": "",
          "type": "address"
        }
      ],
      "stateMutability": "view",
      "type": "function"
    },
    {
      "inputs": [],
      "name": "_creatorCommission",
      "outputs": [
        {
          "internalType": "uint256",
          "name": "",
          "type": "uint256"
        }
      ],
      "stateMutability": "view",
      "type": "function"
    },
    {
      "inputs": [
        {
          "internalType": "uint256",
          "name": "",
          "type": "uint256"
        }
      ],
      "name": "_owners",
      "outputs": [
        {
          "internalType": "address",
          "name": "",
          "type": "address"
        }
      ],
      "stateMutability": "view",
      "type": "function"
    },
    {
      "inputs": [],
      "name": "_platformCommission",
      "outputs": [
        {
          "internalType": "uint256",
          "name": "",
          "type": "uint256"
        }
      ],
      "stateMutability": "view",
      "type": "function"
    },
    {
      "inputs": [
        {
          "internalType": "uint256",
          "name": "",
          "type": "uint256"
        }
      ],
      "name": "_sellPrice",
      "outputs": [
        {
          "internalType": "uint256",
          "name": "",
          "type": "uint256"
        }
      ],
      "stateMutability": "view",
      "type": "function"
    },
    {
      "inputs": [
        {
          "internalType": "uint256",
          "name": "",
          "type": "uint256"
        }
      ],
      "name": "_sellingNFTs",
      "outputs": [
        {
          "internalType": "uint256",
          "name": "",
          "type": "uint256"
        }
      ],
      "stateMutability": "view",
      "type": "function"
    },
    {
      "inputs": [
        {
          "internalType": "uint256",
          "name": "",
          "type": "uint256"
        }
      ],
      "name": "_sellingNFTsIndexes",
      "outputs": [
        {
          "internalType": "uint256",
          "name": "",
          "type": "uint256"
        }
      ],
      "stateMutability": "view",
      "type": "function"
    },
    {
      "inputs": [],
      "name": "platformAddress",
      "outputs": [
        {
          "internalType": "address",
          "name": "",
          "type": "address"
        }
      ],
      "stateMutability": "view",
      "type": "function"
    },
    {
      "inputs": [],
      "name": "getCreatorCommission",
      "outputs": [
        {
          "internalType": "uint256",
          "name": "",
          "type": "uint256"
        }
      ],
      "stateMutability": "view",
      "type": "function"
    },
    {
      "inputs": [],
      "name": "getSellingNFTs",
      "outputs": [
        {
          "internalType": "uint256[]",
          "name": "",
          "type": "uint256[]"
        }
      ],
      "stateMutability": "view",
      "type": "function"
    },
    {
      "inputs": [
        {
          "internalType": "uint256",
          "name": "tokenId",
          "type": "uint256"
        },
        {
          "internalType": "uint256",
          "name": "price",
          "type": "uint256"
        }
      ],
      "name": "startSellingNFT",
      "outputs": [
        {
          "internalType": "bool",
          "name": "",
          "type": "bool"
        }
      ],
      "stateMutability": "nonpayable",
      "type": "function"
    },
    {
      "inputs": [
        {
          "internalType": "uint256",
          "name": "tokenId",
          "type": "uint256"
        }
      ],
      "name": "cancelSellingNFT",
      "outputs": [
        {
          "internalType": "bool",
          "name": "",
          "type": "bool"
        }
      ],
      "stateMutability": "nonpayable",
      "type": "function"
    },
    {
      "inputs": [
        {
          "internalType": "uint256",
          "name": "tokenId",
          "type": "uint256"
        }
      ],
      "name": "buyNFT",
      "outputs": [
        {
          "internalType": "bool",
          "name": "",
          "type": "bool"
        }
      ],
      "stateMutability": "payable",
      "type": "function"
    },
    {
      "inputs": [
        {
          "internalType": "uint256",
          "name": "tokenId",
          "type": "uint256"
        }
      ],
      "name": "getCreator",
      "outputs": [
        {
          "internalType": "address",
          "name": "",
          "type": "address"
        }
      ],
      "stateMutability": "view",
      "type": "function"
    },
    {
      "inputs": [],
      "name": "getPlatformCommission",
      "outputs": [
        {
          "internalType": "uint256",
          "name": "",
          "type": "uint256"
        }
      ],
      "stateMutability": "view",
      "type": "function"
    },
    {
      "inputs": [
        {
          "internalType": "address",
          "name": "addr",
          "type": "address"
        }
      ],
      "name": "setPlatformAdddress",
      "outputs": [],
      "stateMutability": "nonpayable",
      "type": "function"
    },
    {
      "inputs": [
        {
          "internalType": "uint256",
          "name": "tokenId",
          "type": "uint256"
        }
      ],
      "name": "getSellPrice",
      "outputs": [
        {
          "internalType": "uint256",
          "name": "",
          "type": "uint256"
        }
      ],
      "stateMutability": "view",
      "type": "function"
    },
    {
      "inputs": [],
      "name": "getToken",
      "outputs": [
        {
          "internalType": "contract ERC20",
          "name": "",
          "type": "address"
        }
      ],
      "stateMutability": "view",
      "type": "function"
    },
    {
      "inputs": [
        {
          "internalType": "address",
          "name": "tokenAddress",
          "type": "address"
        }
      ],
      "name": "setToken",
      "outputs": [],
      "stateMutability": "nonpayable",
      "type": "function"
    },
    {
      "inputs": [
        {
          "internalType": "uint256",
          "name": "tokenId",
          "type": "uint256"
        },
        {
          "internalType": "uint256",
          "name": "time",
          "type": "uint256"
        },
        {
          "internalType": "uint256",
          "name": "minPrice",
          "type": "uint256"
        }
      ],
      "name": "startAuction",
      "outputs": [],
      "stateMutability": "nonpayable",
      "type": "function"
    },
    {
      "inputs": [
        {
          "internalType": "uint256",
          "name": "tokenId",
          "type": "uint256"
        }
      ],
      "name": "getAuctionContract",
      "outputs": [
        {
          "internalType": "contract Auction",
          "name": "",
          "type": "address"
        }
      ],
      "stateMutability": "view",
      "type": "function"
    },
    {
      "inputs": [
        {
          "internalType": "uint256",
          "name": "tokenId",
          "type": "uint256"
        }
      ],
      "name": "deleteAuctionContract",
      "outputs": [],
      "stateMutability": "nonpayable",
      "type": "function"
    },
    {
      "inputs": [
        {
          "internalType": "bytes4",
          "name": "interfaceId",
          "type": "bytes4"
        }
      ],
      "name": "supportsInterface",
      "outputs": [
        {
          "internalType": "bool",
          "name": "",
          "type": "bool"
        }
      ],
      "stateMutability": "view",
      "type": "function"
    },
    {
      "inputs": [
        {
          "internalType": "address",
          "name": "owner",
          "type": "address"
        }
      ],
      "name": "balanceOf",
      "outputs": [
        {
          "internalType": "uint256",
          "name": "",
          "type": "uint256"
        }
      ],
      "stateMutability": "view",
      "type": "function"
    },
    {
      "inputs": [
        {
          "internalType": "uint256",
          "name": "tokenId",
          "type": "uint256"
        }
      ],
      "name": "ownerOf",
      "outputs": [
        {
          "internalType": "address",
          "name": "",
          "type": "address"
        }
      ],
      "stateMutability": "view",
      "type": "function"
    },
    {
      "inputs": [],
      "name": "name",
      "outputs": [
        {
          "internalType": "string",
          "name": "",
          "type": "string"
        }
      ],
      "stateMutability": "view",
      "type": "function"
    },
    {
      "inputs": [],
      "name": "symbol",
      "outputs": [
        {
          "internalType": "string",
          "name": "",
          "type": "string"
        }
      ],
      "stateMutability": "view",
      "type": "function"
    },
    {
      "inputs": [
        {
          "internalType": "uint256",
          "name": "tokenId",
          "type": "uint256"
        }
      ],
      "name": "tokenURI",
      "outputs": [
        {
          "internalType": "string",
          "name": "",
          "type": "string"
        }
      ],
      "stateMutability": "view",
      "type": "function"
    },
    {
      "inputs": [
        {
          "internalType": "address",
          "name": "to",
          "type": "address"
        },
        {
          "internalType": "uint256",
          "name": "tokenId",
          "type": "uint256"
        }
      ],
      "name": "approve",
      "outputs": [],
      "stateMutability": "nonpayable",
      "type": "function"
    },
    {
      "inputs": [
        {
          "internalType": "uint256",
          "name": "tokenId",
          "type": "uint256"
        }
      ],
      "name": "getApproved",
      "outputs": [
        {
          "internalType": "address",
          "name": "",
          "type": "address"
        }
      ],
      "stateMutability": "view",
      "type": "function"
    },
    {
      "inputs": [
        {
          "internalType": "address",
          "name": "operator",
          "type": "address"
        },
        {
          "internalType": "bool",
          "name": "approved",
          "type": "bool"
        }
      ],
      "name": "setApprovalForAll",
      "outputs": [],
      "stateMutability": "nonpayable",
      "type": "function"
    },
    {
      "inputs": [
        {
          "internalType": "address",
          "name": "owner",
          "type": "address"
        },
        {
          "internalType": "address",
          "name": "operator",
          "type": "address"
        }
      ],
      "name": "isApprovedForAll",
      "outputs": [
        {
          "internalType": "bool",
          "name": "",
          "type": "bool"
        }
      ],
      "stateMutability": "view",
      "type": "function"
    },
    {
      "inputs": [
        {
          "internalType": "address",
          "name": "from",
          "type": "address"
        },
        {
          "internalType": "address",
          "name": "to",
          "type": "address"
        },
        {
          "internalType": "uint256",
          "name": "tokenId",
          "type": "uint256"
        }
      ],
      "name": "transferFrom",
      "outputs": [],
      "stateMutability": "nonpayable",
      "type": "function"
    },
    {
      "inputs": [
        {
          "internalType": "uint256",
          "name": "tokenId",
          "type": "uint256"
        },
        {
          "internalType": "address",
          "name": "to",
          "type": "address"
        }
      ],
      "name": "_spend",
      "outputs": [
        {
          "internalType": "bool",
          "name": "",
          "type": "bool"
        }
      ],
      "stateMutability": "nonpayable",
      "type": "function"
    },
    {
      "inputs": [
        {
          "internalType": "address",
          "name": "from",
          "type": "address"
        },
        {
          "internalType": "address",
          "name": "to",
          "type": "address"
        },
        {
          "internalType": "uint256",
          "name": "tokenId",
          "type": "uint256"
        }
      ],
      "name": "safeTransferFrom",
      "outputs": [],
      "stateMutability": "nonpayable",
      "type": "function"
    },
    {
      "inputs": [
        {
          "internalType": "address",
          "name": "from",
          "type": "address"
        },
        {
          "internalType": "address",
          "name": "to",
          "type": "address"
        },
        {
          "internalType": "uint256",
          "name": "tokenId",
          "type": "uint256"
        },
        {
          "internalType": "bytes",
          "name": "_data",
          "type": "bytes"
        }
      ],
      "name": "safeTransferFrom",
      "outputs": [],
      "stateMutability": "nonpayable",
      "type": "function"
    }
  ],
  "bytecode": "0x6080604052600560045560026005553480156200001b57600080fd5b5060405162004406380380620044068339810160408190526200003e91620001d5565b81516200005390600190602085019062000084565b5080516200006990600290602084019062000084565b505060038054600160a060020a0319163317905550620002c1565b82805462000092906200023c565b90600052602060002090601f016020900481019282620000b6576000855562000101565b82601f10620000d157805160ff191683800117855562000101565b8280016001018555821562000101579182015b8281111562000101578251825591602001919060010190620000e4565b506200010f92915062000113565b5090565b5b808211156200010f576000815560010162000114565b600082601f8301126200013b578081fd5b81516001604060020a038082111562000158576200015862000292565b6040516020601f8401601f191682018101838111838210171562000180576200018062000292565b604052838252858401810187101562000197578485fd5b8492505b83831015620001ba57858301810151828401820152918201916200019b565b83831115620001cb57848185840101525b5095945050505050565b60008060408385031215620001e8578182fd5b82516001604060020a0380821115620001ff578384fd5b6200020d868387016200012a565b9350602085015191508082111562000223578283fd5b5062000232858286016200012a565b9150509250929050565b6002810460018216806200025157607f821691505b602082108114156200028c577f4e487b7100000000000000000000000000000000000000000000000000000000600052602260045260246000fd5b50919050565b7f4e487b7100000000000000000000000000000000000000000000000000000000600052604160045260246000fd5b61413580620002d16000396000f3fe608060405260043610620002465760003560e060020a9004806380cf4dad1162000137578063c494b08211620000b3578063dbe55e56116200007d578063dbe55e5614620006c0578063e506dfbe14620006d8578063e985e9c514620006fd578063ef767a691462000722578063f4435366146200073a5762000246565b8063c494b0821462000639578063c87b56dd146200065e578063d48e638a1462000683578063d55a9fe414620006a85762000246565b806396e392d3116200010157806396e392d31462000580578063992924a614620005a5578063a22cb46514620005ca578063b88d4fde14620005ef578063ba730e5314620006145762000246565b806380cf4dad14620004f957806391e078bb146200051e5780639564470e146200054357806395d89b4114620005685762000246565b806329e02e7011620001c757806351ed8288116200019157806351ed8288146200044c5780636352211e14620004635780636d3d6028146200048857806370a0823114620004ad5780637211a20a14620004d25762000246565b806329e02e7014620003b8578063339d29a214620003dd57806341787197146200040257806342842e0e14620004275762000246565b8063144fa6d71162000215578063144fa6d7146200030a57806321df0da7146200032f57806323b872dd146200034757806325a902fb146200036c5780632838324b14620003935762000246565b806301ffc9a7146200024b57806306fdde031462000288578063081812fc14620002af578063095ea7b314620002e3575b600080fd5b3480156200025857600080fd5b50620002706200026a36600462002089565b62000752565b6040516200027f91906200227e565b60405180910390f35b3480156200029557600080fd5b50620002a0620007d0565b6040516200027f919062002289565b348015620002bc57600080fd5b50620002d4620002ce366004620020c7565b6200086a565b6040516200027f9190620021cd565b348015620002f057600080fd5b5062000308620003023660046200203e565b620008be565b005b3480156200031757600080fd5b50620003086200032936600462001e95565b6200096c565b3480156200033c57600080fd5b50620002d4620009be565b3480156200035457600080fd5b50620003086200036636600462001ee9565b620009cd565b3480156200037957600080fd5b506200038462000a11565b6040516200027f919062002955565b348015620003a057600080fd5b5062000384620003b2366004620020c7565b62000a17565b348015620003c557600080fd5b50620002d4620003d7366004620020c7565b62000a29565b348015620003ea57600080fd5b5062000308620003fc36600462001e95565b62000a44565b3480156200040f57600080fd5b506200038462000421366004620020c7565b62000a96565b3480156200043457600080fd5b50620003086200044636600462001ee9565b62000aa8565b620002706200045d366004620020c7565b62000ac5565b3480156200047057600080fd5b50620002d462000482366004620020c7565b62001027565b3480156200049557600080fd5b5062000270620004a73660046200211e565b62001062565b348015620004ba57600080fd5b5062000384620004cc36600462001e95565b62001160565b348015620004df57600080fd5b50620004ea620011aa565b6040516200027f919062002238565b3480156200050657600080fd5b506200038462000518366004620020c7565b62001203565b3480156200052b57600080fd5b50620003086200053d36600462002140565b62001225565b3480156200055057600080fd5b506200027062000562366004620020f9565b620013cc565b3480156200057557600080fd5b50620002a0620013e4565b3480156200058d57600080fd5b50620003086200059f366004620020c7565b620013f5565b348015620005b257600080fd5b50620002d4620005c4366004620020c7565b6200144f565b348015620005d757600080fd5b5062000308620005e936600462002003565b6200146a565b348015620005fc57600080fd5b50620003086200060e36600462001f29565b62001546565b3480156200062157600080fd5b506200038462000633366004620020c7565b62001591565b3480156200064657600080fd5b506200027062000658366004620020c7565b620015a3565b3480156200066b57600080fd5b50620002a06200067d366004620020c7565b6200164d565b3480156200069057600080fd5b50620002d4620006a2366004620020c7565b620016e0565b348015620006b557600080fd5b5062000384620016fb565b348015620006cd57600080fd5b50620002d462001701565b348015620006e557600080fd5b50620002d4620006f7366004620020c7565b62001710565b3480156200070a57600080fd5b50620002706200071c36600462001eb2565b6200172b565b3480156200072f57600080fd5b506200038462001759565b3480156200074757600080fd5b50620003846200175f565b6000600160e060020a031982167f80ac58cd000000000000000000000000000000000000000000000000000000001480620007b65750600160e060020a031982167f5b5e139f00000000000000000000000000000000000000000000000000000000145b80620007c85750620007c88262001765565b90505b919050565b606060018054620007e19062002a46565b80601f01602080910402602001604051908101604052809291908181526020018280546200080f9062002a46565b8015620008605780601f10620008345761010080835404028352916020019162000860565b820191906000526020600020905b8154815290600101906020018083116200084257829003601f168201915b5050505050905090565b6000620008778262001797565b620008a25760405160e560020a62461bcd0281526004016200089990620026b9565b60405180910390fd5b506000908152600a6020526040902054600160a060020a031690565b6000620008cb8262001027565b905080600160a060020a031683600160a060020a03161415620009055760405160e560020a62461bcd02815260040162000899906200283e565b80600160a060020a031662000919620017b4565b600160a060020a0316148062000939575062000939816200071c620017b4565b6200095b5760405160e560020a62461bcd02815260040162000899906200245a565b620009678383620017b8565b505050565b600354600160a060020a031633146200099c5760405160e560020a62461bcd0281526004016200089990620025df565b60008054600160a060020a031916600160a060020a0392909216919091179055565b600054600160a060020a031690565b620009e2620009db620017b4565b8262001828565b62000a045760405160e560020a62461bcd02815260040162000899906200289b565b62000967838383620018bd565b60045481565b600e6020526000908152604090205481565b600860205260009081526040902054600160a060020a031681565b600354600160a060020a0316331462000a745760405160e560020a62461bcd0281526004016200089990620025df565b60068054600160a060020a031916600160a060020a0392909216919091179055565b600d6020526000908152604090205481565b620009678383836040518060200160405280600081525062001546565b6000818152600d602052604081205462000af65760405160e560020a62461bcd0281526004016200089990620024b7565b600082815260076020526040902054600160a060020a031633141562000b335760405160e560020a62461bcd028152600401620008999062002682565b6000828152600d602052604080822054915490517f70a08231000000000000000000000000000000000000000000000000000000008152600160a060020a03909116906370a082319062000b8c903390600401620021cd565b60206040518083038186803b15801562000ba557600080fd5b505afa15801562000bba573d6000803e3d6000fd5b505050506040513d601f19601f8201168201806040525081019062000be09190620020e0565b101562000c045760405160e560020a62461bcd028152600401620008999062002332565b60008054838252600d6020526040918290205491517f6aade288000000000000000000000000000000000000000000000000000000008152600160a060020a0390911691636aade2889162000c5e9133916004016200221f565b602060405180830381600087803b15801562000c7957600080fd5b505af115801562000c8e573d6000803e3d6000fd5b505050506040513d601f19601f8201168201806040525081019062000cb491906200206a565b62000cd65760405160e560020a62461bcd028152600401620008999062002807565b6004546000838152600d6020526040812054909160649162000cf99190620029db565b62000d059190620029c4565b6000805485825260086020526040918290205491517fa9059cbb000000000000000000000000000000000000000000000000000000008152929350600160a060020a039081169263a9059cbb9262000d6492169085906004016200221f565b602060405180830381600087803b15801562000d7f57600080fd5b505af115801562000d94573d6000803e3d6000fd5b505050506040513d601f19601f8201168201806040525081019062000dba91906200206a565b506005546000848152600d6020526040812054909160649162000dde9190620029db565b62000dea9190620029c4565b6000805486825260086020526040918290205491517fa9059cbb000000000000000000000000000000000000000000000000000000008152929350600160a060020a039081169263a9059cbb9262000e4992169085906004016200221f565b602060405180830381600087803b15801562000e6457600080fd5b505af115801562000e79573d6000803e3d6000fd5b505050506040513d601f19601f8201168201806040525081019062000e9f91906200206a565b50600062000eae8284620029a9565b6000805487825260076020908152604080842054600d90925290922054929350600160a060020a039081169263a9059cbb929091169062000ef1908590620029fd565b6040518363ffffffff1660e060020a02815260040162000f139291906200221f565b602060405180830381600087803b15801562000f2e57600080fd5b505af115801562000f43573d6000803e3d6000fd5b505050506040513d601f19601f8201168201806040525081019062000f6991906200206a565b50600085815260076020908152604080832054600160a060020a031683526009909152812080546001929062000fa1908490620029fd565b909155505033600090815260096020526040812080546001929062000fc8908490620029a9565b909155505060008581526007602090815260408083208054600160a060020a03191633179055600e90915290205462001002908662001a00565b505050600091825250600e60209081526040808320839055600d909152812055600190565b600081815260076020526040812054600160a060020a031680620007c85760405160e560020a62461bcd02815260040162000899906200254b565b600082815260076020526040812054600160a060020a031633146200109e5760405160e560020a62461bcd0281526004016200089990620027d0565b60008211620010c45760405160e560020a62461bcd02815260040162000899906200229e565b6000838152600d602052604090205415620010f65760405160e560020a62461bcd028152600401620008999062002616565b6000838152600d60205260408120839055600f805460018181018355928290527f8d1108e10bcb7c27dddfc02ed9d693a074039d026cf4ea4240b40f7d581ac8020185905554620011489190620029fd565b6000848152600e602052604090205550600192915050565b6000600160a060020a0382166200118e5760405160e560020a62461bcd0281526004016200089990620024ee565b50600160a060020a031660009081526009602052604090205490565b6060600f8054806020026020016040519081016040528092919081815260200182805480156200086057602002820191906000526020600020905b815481526020019060010190808311620011e5575050505050905090565b600f81815481106200121457600080fd5b600091825260209091200154905081565b600083815260076020526040902054600160a060020a03163314620012615760405160e560020a62461bcd0281526004016200089990620025a8565b6000838152600d602052604090205415620012935760405160e560020a62461bcd0281526004016200089990620028f8565b6000838152600760205260408082205491549051309286928692600160a060020a03928316929091169085908790620012cc9062001e6f565b620012dd9695949392919062002975565b604051809103906000f080158015620012fa573d6000803e3d6000fd5b506000858152600c602052604090208054600160a060020a031916600160a060020a03928316179081905562001334913391168662000aa8565b60008054858252600c6020526040918290205491517f746e8e70000000000000000000000000000000000000000000000000000000008152600160a060020a039182169263746e8e709262001392928992909116906004016200295e565b600060405180830381600087803b158015620013ad57600080fd5b505af1158015620013c2573d6000803e3d6000fd5b5050505050505050565b6000620013db33838562000aa8565b50600192915050565b606060028054620007e19062002a46565b6000818152600c6020526040902054600160a060020a03163314620014315760405160e560020a62461bcd02815260040162000899906200264d565b6000908152600c602052604090208054600160a060020a0319169055565b600760205260009081526040902054600160a060020a031681565b62001474620017b4565b600160a060020a031682600160a060020a03161415620014ab5760405160e560020a62461bcd0281526004016200089990620023c6565b80600b6000620014ba620017b4565b600160a060020a03908116825260208083019390935260409182016000908120918716808252919093529120805460ff19169215159290921790915562001500620017b4565b600160a060020a03167f17307eab39ab6107e8899845ad3d59bd9653f200f220920489ca2b5937696c31836040516200153a91906200227e565b60405180910390a35050565b6200155b62001554620017b4565b8362001828565b6200157d5760405160e560020a62461bcd02815260040162000899906200289b565b6200158b8484848462001b45565b50505050565b6000908152600d602052604090205490565b600081815260076020526040812054600160a060020a03163314620015df5760405160e560020a62461bcd0281526004016200089990620027d0565b6000828152600d6020526040902054620016105760405160e560020a62461bcd0281526004016200089990620024b7565b6000828152600e60205260409020546200162b908362001a00565b506000908152600e60209081526040808320839055600d909152812055600190565b60606200165a8262001797565b6200167c5760405160e560020a62461bcd028152600401620008999062002773565b60006200168862001b82565b90506000815111620016aa5760405180602001604052806000815250620016d9565b80620016b68462001b94565b604051602001620016c99291906200219a565b6040516020818303038152906040525b9392505050565b600090815260086020526040902054600160a060020a031690565b60045490565b600654600160a060020a031681565b6000908152600c6020526040902054600160a060020a031690565b600160a060020a039182166000908152600b6020908152604080832093909416825291909152205460ff1690565b60055490565b60055481565b600160e060020a031981167f01ffc9a70000000000000000000000000000000000000000000000000000000014919050565b600090815260076020526040902054600160a060020a0316151590565b3390565b6000818152600a602052604090208054600160a060020a031916600160a060020a0384169081179091558190620017ef8262001027565b600160a060020a03167f8c5be1e5ebec7d5bd14f71427d1e84f3dd0314c0f7b2291e5b200ac8c7c3b92560405160405180910390a45050565b6000620018358262001797565b620018575760405160e560020a62461bcd0281526004016200089990620023fd565b6000620018648362001027565b905080600160a060020a031684600160a060020a03161480620018a2575083600160a060020a031662001897846200086a565b600160a060020a0316145b80620018b55750620018b581856200172b565b949350505050565b82600160a060020a0316620018d28262001027565b600160a060020a031614620018fe5760405160e560020a62461bcd028152600401620008999062002716565b600160a060020a0382166200192a5760405160e560020a62461bcd028152600401620008999062002369565b6200193783838362000967565b62001944600082620017b8565b600160a060020a03831660009081526009602052604081208054600192906200196f908490620029fd565b9091555050600160a060020a03821660009081526009602052604081208054600192906200199f908490620029a9565b90915550506000818152600760205260408082208054600160a060020a031916600160a060020a0386811691821790925591518493918716917fddf252ad1be2c89b69c2b068fc378daa952ba7f163c4a11628f55a4df523b3ef91a4505050565b600f54821062001a105762001b41565b6000818152600e6020526040812055815b600f5462001a3290600190620029fd565b81101562001b0657600f62001a49826001620029a9565b8154811062001a6b5760e060020a634e487b7102600052603260045260246000fd5b9060005260206000200154600f828154811062001a9b5760e060020a634e487b7102600052603260045260246000fd5b906000526020600020018190555080600e6000600f848154811062001ad35760e060020a634e487b7102600052603260045260246000fd5b9060005260206000200154815260200190815260200160002081905550808062001afd9062002a86565b91505062001a21565b50600f80548062001b2a5760e060020a634e487b7102600052603160045260246000fd5b600190038181906000526020600020016000905590555b5050565b62001b52848484620018bd565b62001b608484848462001d1d565b6200158b5760405160e560020a62461bcd0281526004016200089990620022d5565b60408051602081019091526000815290565b60608162001bd7575060408051808201909152600181527f30000000000000000000000000000000000000000000000000000000000000006020820152620007cb565b8160005b811562001c07578062001bee8162002a86565b915062001bff9050600a83620029c4565b915062001bdb565b60008167ffffffffffffffff81111562001c345760e060020a634e487b7102600052604160045260246000fd5b6040519080825280601f01601f19166020018201604052801562001c5f576020820181803683370190505b5090505b8415620018b55762001c77600183620029fd565b915062001c86600a8662002aa4565b62001c93906030620029a9565b7f01000000000000000000000000000000000000000000000000000000000000000281838151811062001cd95760e060020a634e487b7102600052603260045260246000fd5b60200101907effffffffffffffffffffffffffffffffffffffffffffffffffffffffffffff1916908160001a90535062001d15600a86620029c4565b945062001c63565b600062001d3384600160a060020a031662001e69565b1562001e5e5783600160a060020a031663150b7a0262001d52620017b4565b8786866040518563ffffffff1660e060020a02815260040162001d799493929190620021e1565b602060405180830381600087803b15801562001d9457600080fd5b505af192505050801562001dc7575060408051601f3d908101601f1916820190925262001dc491810190620020a8565b60015b62001e2a573d80801562001df8576040519150601f19603f3d011682016040523d82523d6000602084013e62001dfd565b606091505b50805162001e225760405160e560020a62461bcd0281526004016200089990620022d5565b805181602001fd5b600160e060020a0319167f150b7a0200000000000000000000000000000000000000000000000000000000149050620018b5565b506001949350505050565b3b151590565b6115d08062002b3083390190565b8035600160a060020a0381168114620007cb57600080fd5b60006020828403121562001ea7578081fd5b620016d98262001e7d565b6000806040838503121562001ec5578081fd5b62001ed08362001e7d565b915062001ee06020840162001e7d565b90509250929050565b60008060006060848603121562001efe578081fd5b62001f098462001e7d565b925062001f196020850162001e7d565b9150604084013590509250925092565b6000806000806080858703121562001f3f578081fd5b62001f4a8562001e7d565b9350602062001f5b81870162001e7d565b935060408601359250606086013567ffffffffffffffff8082111562001f7f578384fd5b818801915088601f83011262001f93578384fd5b81358181111562001fa85762001fa862002aed565b604051601f8201601f191681018501838111828210171562001fce5762001fce62002aed565b60405281815283820185018b101562001fe5578586fd5b81858501868301379081019093019390935250939692955090935050565b6000806040838503121562002016578182fd5b620020218362001e7d565b91506020830135620020338162002b06565b809150509250929050565b6000806040838503121562002051578182fd5b6200205c8362001e7d565b946020939093013593505050565b6000602082840312156200207c578081fd5b8151620016d98162002b06565b6000602082840312156200209b578081fd5b8135620016d98162002b18565b600060208284031215620020ba578081fd5b8151620016d98162002b18565b600060208284031215620020d9578081fd5b5035919050565b600060208284031215620020f2578081fd5b5051919050565b600080604083850312156200210c578182fd5b8235915062001ee06020840162001e7d565b6000806040838503121562002131578182fd5b50508035926020909101359150565b60008060006060848603121562002155578283fd5b505081359360208301359350604090920135919050565b600081518084526200218681602086016020860162002a17565b601f01601f19169290920160200192915050565b60008351620021ae81846020880162002a17565b835190830190620021c481836020880162002a17565b01949350505050565b600160a060020a0391909116815260200190565b6000600160a060020a038087168352808616602084015250836040830152608060608301526200221560808301846200216c565b9695505050505050565b600160a060020a03929092168252602082015260400190565b6020808252825182820181905260009190848201906040850190845b81811015620022725783518352928401929184019160010162002254565b50909695505050505050565b901515815260200190565b600060208252620016d960208301846200216c565b6020808252601e908201527f70726963652073686f756c642062652067726561746572207468616e20300000604082015260600190565b60208082526032908201527f4552433732313a207472616e7366657220746f206e6f6e20455243373231526560408201527f63656976657220696d706c656d656e7465720000000000000000000000000000606082015260800190565b6020808252600b908201527f4c6f772062616c616e6365000000000000000000000000000000000000000000604082015260600190565b60208082526024908201527f4552433732313a207472616e7366657220746f20746865207a65726f2061646460408201527f7265737300000000000000000000000000000000000000000000000000000000606082015260800190565b60208082526019908201527f4552433732313a20617070726f766520746f2063616c6c657200000000000000604082015260600190565b6020808252602c908201527f4552433732313a206f70657261746f7220717565727920666f72206e6f6e657860408201527f697374656e7420746f6b656e0000000000000000000000000000000000000000606082015260800190565b60208082526038908201527f4552433732313a20617070726f76652063616c6c6572206973206e6f74206f7760408201527f6e6572206e6f7220617070726f76656420666f7220616c6c0000000000000000606082015260800190565b60208082526016908201527f6e6f742053656c6c696e67207468697320746f6b656e00000000000000000000604082015260600190565b6020808252602a908201527f4552433732313a2062616c616e636520717565727920666f7220746865207a6560408201527f726f206164647265737300000000000000000000000000000000000000000000606082015260800190565b60208082526029908201527f4552433732313a206f776e657220717565727920666f72206e6f6e657869737460408201527f656e7420746f6b656e0000000000000000000000000000000000000000000000606082015260800190565b6020808252601b908201527f63616e206f6e6c792062652063616c6c6564206279204f776e65720000000000604082015260600190565b6020808252601f908201527f63616e2062652063616c6c656420627920436f6e7472616374204f776e657200604082015260600190565b6020808252600f908201527f416c72656164792053656c6c696e670000000000000000000000000000000000604082015260600190565b6020808252818101527f63616e206f6e6c792063616c6c65642062792041756374696f6e2f4f776e6572604082015260600190565b6020808252601d908201527f4f776e65722063616e6e6f74206275792069742773206f776e204e4654000000604082015260600190565b6020808252602c908201527f4552433732313a20617070726f76656420717565727920666f72206e6f6e657860408201527f697374656e7420746f6b656e0000000000000000000000000000000000000000606082015260800190565b60208082526029908201527f4552433732313a207472616e73666572206f6620746f6b656e2074686174206960408201527f73206e6f74206f776e0000000000000000000000000000000000000000000000606082015260800190565b6020808252602f908201527f4552433732314d657461646174613a2055524920717565727920666f72206e6f60408201527f6e6578697374656e7420746f6b656e0000000000000000000000000000000000606082015260800190565b60208082526018908201527f63616e20626520736574206279206f776e6572206f6e6c790000000000000000604082015260600190565b60208082526018908201527f546f6b656e205472616e73656374696f6e204661696c65640000000000000000604082015260600190565b60208082526021908201527f4552433732313a20617070726f76616c20746f2063757272656e74206f776e6560408201527f7200000000000000000000000000000000000000000000000000000000000000606082015260800190565b60208082526031908201527f4552433732313a207472616e736665722063616c6c6572206973206e6f74206f60408201527f776e6572206e6f7220617070726f766564000000000000000000000000000000606082015260800190565b60208082526029908201527f416c72656164792053656c6c696e672c2063616e63656c2053656c6c696e672060408201527f4e46542046697273740000000000000000000000000000000000000000000000606082015260800190565b90815260200190565b918252600160a060020a0316602082015260400190565b9586526020860194909452600160a060020a039283166040860152908216606085015216608083015260a082015260c00190565b60008219821115620029bf57620029bf62002abb565b500190565b600082620029d657620029d662002ad4565b500490565b6000816000190483118215151615620029f857620029f862002abb565b500290565b60008282101562002a125762002a1262002abb565b500390565b60005b8381101562002a3457818101518382015260200162002a1a565b838111156200158b5750506000910152565b60028104600182168062002a5b57607f821691505b6020821081141562002a805760e060020a634e487b7102600052602260045260246000fd5b50919050565b600060001982141562002a9d5762002a9d62002abb565b5060010190565b60008262002ab65762002ab662002ad4565b500690565b60e060020a634e487b7102600052601160045260246000fd5b60e060020a634e487b7102600052601260045260246000fd5b60e060020a634e487b7102600052604160045260246000fd5b801515811462002b1557600080fd5b50565b600160e060020a03198116811462002b1557600080fdfe60806040523480156200001157600080fd5b50604051620015d0380380620015d08339810160408190526200003491620000d9565b600486905560008054600160a060020a031916600160a060020a03861617905562000060854262000148565b600190815560028054600160a060020a0319908116600160a060020a03968716179091556003805482169490951693909317909355600955600a805492830181556000527fc65a7bb8d6351c1cf70c95a316cc6a92839c986682d98bc35f958f4883f9d2a890910180549091169055506200019f915050565b60008060008060008060c08789031215620000f2578182fd5b865195506020870151945060408701516200010d8162000186565b6060880151909450620001208162000186565b6080880151909350620001338162000186565b8092505060a087015190509295509295509295565b6000821982111562000181577f4e487b710000000000000000000000000000000000000000000000000000000081526011600452602481fd5b500190565b600160a060020a03811681146200019c57600080fd5b50565b61142180620001af6000396000f3fe6080604052600436106100f75760003560e060020a90048063454a2ab31161008e57806388a6360e1161005d57806388a6360e1461023457806391f9015714610249578063d57bde791461025e578063f56e9c6614610273576100f7565b8063454a2ab3146101df5780634b449cba146101f257806370bda8941461017657806383ffda3b14610214576100f7565b806321df0da7116100ca57806321df0da71461018b5780632a24f46c146101ad57806338af3eed146101b55780633ccfd60b146101ca576100f7565b806312fa6feb146100fc578063144fa6d714610127578063150b7a02146101495780631e36d75514610176575b600080fd5b34801561010857600080fd5b50610111610293565b60405161011e91906110e5565b60405180910390f35b34801561013357600080fd5b50610147610142366004610f59565b61029c565b005b34801561015557600080fd5b50610169610164366004610f98565b6102cb565b60405161011e91906110f0565b34801561018257600080fd5b506101476102f4565b34801561019757600080fd5b506101a061039a565b60405161011e91906110b8565b6101476103a9565b3480156101c157600080fd5b506101a0610b88565b3480156101d657600080fd5b50610111610b97565b6101476101ed366004611088565b610ba7565b3480156101fe57600080fd5b50610207610de1565b60405161011e91906112d9565b34801561022057600080fd5b5061020761022f366004610f59565b610de7565b34801561024057600080fd5b506101a0610e06565b34801561025557600080fd5b506101a0610e15565b34801561026a57600080fd5b50610207610e24565b34801561027f57600080fd5b5061014761028e366004610f59565b610e2a565b600b5460ff1681565b6002805473ffffffffffffffffffffffffffffffffffffffff1916600160a060020a0392909216919091179055565b7f150b7a0200000000000000000000000000000000000000000000000000000000949350505050565b600354600480546000546040517f9564470e000000000000000000000000000000000000000000000000000000008152600160a060020a0394851694639564470e94610345949390911691016112e2565b602060405180830381600087803b15801561035f57600080fd5b505af1158015610373573d6000803e3d6000fd5b505050506040513d601f19601f820116820180604052508101906103979190611068565b50565b600254600160a060020a031690565b600054600160a060020a03163314806103cc5750600554600160a060020a031633145b6103f45760405160e560020a62461bcd0281526004016103eb9061127c565b60405180910390fd5b6001544210156104195760405160e560020a62461bcd0281526004016103eb906111e8565b600b5460ff161561043f5760405160e560020a62461bcd0281526004016103eb9061121f565b600b805460ff191660011790556004546005546006546040517fd2aa34a4fdbbc6dff6a3e56f46e0f3ae2a31d7785ff3487aa5c95c642acea50193610491939092600160a060020a03909116916112f9565b60405180910390a1600554600160a060020a0316156109e857600354600480546005546040517f9564470e000000000000000000000000000000000000000000000000000000008152600160a060020a0394851694639564470e946104fb949390911691016112e2565b602060405180830381600087803b15801561051557600080fd5b505af1158015610529573d6000803e3d6000fd5b505050506040513d601f19601f8201168201806040525081019061054d9190611068565b5060006064600360009054906101000a9004600160a060020a0316600160a060020a031663d55a9fe46040518163ffffffff1660e060020a02815260040160206040518083038186803b1580156105a357600080fd5b505afa1580156105b7573d6000803e3d6000fd5b505050506040513d601f19601f820116820180604052508101906105db91906110a0565b6006546105e89190611353565b6105f29190611330565b600254600354600480546040517fd48e638a000000000000000000000000000000000000000000000000000000008152949550600160a060020a039384169463a9059cbb949093169263d48e638a9261064c9291016112d9565b60206040518083038186803b15801561066457600080fd5b505afa158015610678573d6000803e3d6000fd5b505050506040513d601f19601f8201168201806040525081019061069c9190610f7c565b836040518363ffffffff1660e060020a0281526004016106bd9291906110cc565b602060405180830381600087803b1580156106d757600080fd5b505af11580156106eb573d6000803e3d6000fd5b505050506040513d601f19601f8201168201806040525081019061070f9190611068565b5060006064600360009054906101000a9004600160a060020a0316600160a060020a031663ef767a696040518163ffffffff1660e060020a02815260040160206040518083038186803b15801561076557600080fd5b505afa158015610779573d6000803e3d6000fd5b505050506040513d601f19601f8201168201806040525081019061079d91906110a0565b6006546107aa9190611353565b6107b49190611330565b600254600354600480546040517fd48e638a000000000000000000000000000000000000000000000000000000008152949550600160a060020a039384169463a9059cbb949093169263d48e638a9261080e9291016112d9565b60206040518083038186803b15801561082657600080fd5b505afa15801561083a573d6000803e3d6000fd5b505050506040513d601f19601f8201168201806040525081019061085e9190610f7c565b836040518363ffffffff1660e060020a02815260040161087f9291906110cc565b602060405180830381600087803b15801561089957600080fd5b505af11580156108ad573d6000803e3d6000fd5b505050506040513d601f19601f820116820180604052508101906108d19190611068565b5060006108de8284611318565b600254600054600654929350600160a060020a039182169263a9059cbb929091169061090b908590611372565b6040518363ffffffff1660e060020a02815260040161092b9291906110cc565b602060405180830381600087803b15801561094557600080fd5b505af1158015610959573d6000803e3d6000fd5b505050506040513d601f19601f8201168201806040525081019061097d9190611068565b5060015b600a548110156109df576109cc600a82815481106109b25760e060020a634e487b7102600052603260045260246000fd5b600091825260209091200154600160a060020a0316610e59565b50806109d781611389565b915050610981565b50505050610a8d565b600354600480546000546040517f9564470e000000000000000000000000000000000000000000000000000000008152600160a060020a0394851694639564470e94610a39949390911691016112e2565b602060405180830381600087803b158015610a5357600080fd5b505af1158015610a67573d6000803e3d6000fd5b505050506040513d601f19601f82011682018060405250810190610a8b9190611068565b505b600354600480546040517f96e392d3000000000000000000000000000000000000000000000000000000008152600160a060020a03909316926396e392d392610ad79291016112d9565b600060405180830381600087803b158015610af157600080fd5b505af1158015610b05573d6000803e3d6000fd5b5050600254600480546040517f77df84a4000000000000000000000000000000000000000000000000000000008152600160a060020a0390931694506377df84a49350610b54929091016112d9565b600060405180830381600087803b158015610b6e57600080fd5b505af1158015610b82573d6000803e3d6000fd5b50505050565b600054600160a060020a031681565b6000610ba233610e59565b905090565b600154421115610bcc5760405160e560020a62461bcd0281526004016103eb9061111d565b600954811015610bf15760405160e560020a62461bcd0281526004016103eb9061118b565b6006548111610c155760405160e560020a62461bcd0281526004016103eb90611154565b600254600480546040517f01f07a3b000000000000000000000000000000000000000000000000000000008152600160a060020a03909316926301f07a3b92610c63929133918791016112f9565b602060405180830381600087803b158015610c7d57600080fd5b505af1158015610c91573d6000803e3d6000fd5b505050506040513d601f19601f82011682018060405250810190610cb59190611068565b610cbe57600080fd5b60065415610cf957600654600554600160a060020a031660009081526007602052604081208054909190610cf3908490611318565b90915550505b6005805473ffffffffffffffffffffffffffffffffffffffff1916339081179091556006829055600090815260086020526040902054610da157600a80546001818101835560008390527fc65a7bb8d6351c1cf70c95a316cc6a92839c986682d98bc35f958f4883f9d2a8909101805473ffffffffffffffffffffffffffffffffffffffff1916331790559054610d909190611372565b336000908152600860205260409020555b7fda0a18da71d8ebd145966339a728fc0d8ccc07c22870d561890d823c515dda6b6004543383604051610dd6939291906112f9565b60405180910390a150565b60015481565b600160a060020a0381166000908152600760205260409020545b919050565b600354600160a060020a031690565b600554600160a060020a031681565b60065481565b6003805473ffffffffffffffffffffffffffffffffffffffff1916600160a060020a0392909216919091179055565b600160a060020a0381166000908152600760205260408120548015610f5057600160a060020a038084166000908152600760205260408082209190915560025490517fa9059cbb00000000000000000000000000000000000000000000000000000000815291169063a9059cbb90610ed790869085906004016110cc565b602060405180830381600087803b158015610ef157600080fd5b505af1158015610f05573d6000803e3d6000fd5b505050506040513d601f19601f82011682018060405250810190610f299190611068565b610f5057600160a060020a0383166000908152600760205260408120919091559050610e01565b50600192915050565b600060208284031215610f6a578081fd5b8135610f75816113d6565b9392505050565b600060208284031215610f8d578081fd5b8151610f75816113d6565b60008060008060808587031215610fad578283fd5b8435610fb8816113d6565b9350602085810135610fc9816113d6565b935060408601359250606086013567ffffffffffffffff80821115610fec578384fd5b818801915088601f830112610fff578384fd5b813581811115611011576110116113bd565b604051601f8201601f1916810185018381118282101715611034576110346113bd565b60405281815283820185018b101561104a578586fd5b81858501868301379081019093019390935250939692955090935050565b600060208284031215611079578081fd5b81518015158114610f75578182fd5b600060208284031215611099578081fd5b5035919050565b6000602082840312156110b1578081fd5b5051919050565b600160a060020a0391909116815260200190565b600160a060020a03929092168252602082015260400190565b901515815260200190565b7fffffffff0000000000000000000000000000000000000000000000000000000091909116815260200190565b60208082526016908201527f41756374696f6e20616c726561647920656e6465642e00000000000000000000604082015260600190565b6020808252601e908201527f546865726520616c7265616479206973206120686967686572206269642e0000604082015260600190565b60208082526022908201527f416d6f756e74206973206c657373207468616e206d696e696d756d205072696360408201527f6521000000000000000000000000000000000000000000000000000000000000606082015260800190565b60208082526016908201527f41756374696f6e206e6f742079657420656e6465642e00000000000000000000604082015260600190565b60208082526023908201527f61756374696f6e456e642068617320616c7265616479206265656e2063616c6c60408201527f65642e0000000000000000000000000000000000000000000000000000000000606082015260800190565b6020808252602a908201527f6f6e6c79206f776e6572206f6620746f6b656e2063616e2063616c6c2074686960408201527f732066756e6374696f6e00000000000000000000000000000000000000000000606082015260800190565b90815260200190565b918252600160a060020a0316602082015260400190565b928352600160a060020a03919091166020830152604082015260600190565b6000821982111561132b5761132b6113a4565b500190565b60008261134e5760e060020a634e487b710281526012600452602481fd5b500490565b600081600019048311821515161561136d5761136d6113a4565b500290565b600082821015611384576113846113a4565b500390565b600060001982141561139d5761139d6113a4565b5060010190565b60e060020a634e487b7102600052601160045260246000fd5b60e060020a634e487b7102600052604160045260246000fd5b600160a060020a038116811461039757600080fdfea2646970667358221220baeabe3477d6d0ef559000af031e7388af423233e6f65199550818ecf2af14d264736f6c63430008000033a2646970667358221220198c1feb5e81125b64effa061097dfb312ac746becedc8f4c98acd3a58e653ef64736f6c63430008000033",
  "immutableReferences": {},
  "source": "// SPDX-License-Identifier: MIT\n\npragma solidity ^0.8.0;\n\nimport \"./IERC721.sol\";\nimport \"./IERC721Receiver.sol\";\nimport \"./extensions/IERC721Metadata.sol\";\nimport \"../utils/Address.sol\";\nimport \"../utils/Context.sol\";\nimport \"../utils/Strings.sol\";\nimport \"../utils/introspection/ERC165.sol\";\nimport \"../ERC20/ERC20.sol\";\nimport \"../Auction.sol\";\n/**\n * @dev Implementation of https://eips.ethereum.org/EIPS/eip-721[ERC721] Non-Fungible Token Standard, including\n * the Metadata extension, but not including the Enumerable extension, which is available separately as\n * {ERC721Enumerable}.\n */\n\ncontract ERC721 is Context, ERC165, IERC721, IERC721Metadata {\n    using Address for address;\n    using Strings for uint256;\n\n    //ERC20 Token\n    ERC20 private _token; // getters and setters\n\n    // Token name\n    string private _name;\n\n    // Token symbol\n    string private _symbol;\n    address private ownership;\n    uint256 public _creatorCommission = 5;\n    uint256 public _platformCommission = 2;\n    address public  platformAddress;\n    // Mapping from token ID to owner address\n    mapping(uint256 => address) public _owners;\n\n    // Mapping from token ID to creator address\n    mapping(uint256 => address) public _creator;\n    // Mapping owner address to token count\n    mapping(address => uint256) private _balances;\n\n    // Mapping from token ID to approved address\n    mapping(uint256 => address) private _tokenApprovals;\n\n    // Mapping from owner to operator approvals\n    mapping(address => mapping(address => bool)) private _operatorApprovals;\n\n    mapping(uint256 => Auction) private _auctionContracts;\n\n    //mapping of tokenId to sellPrices\n    mapping(uint256 => uint256) public _sellPrice;\n    mapping(uint256 => uint256) public _sellingNFTsIndexes;\n    uint256[] public _sellingNFTs;\n\n    // Auction public auction;\n    // Events that will be emitted on changes.\n\n    /**\n     * @dev Initializes the contract by setting a `name` and a `symbol` to the token collection.\n     */\n    constructor(string memory name_, string memory symbol_) {\n        _name = name_;\n        _symbol = symbol_;\n        ownership = msg.sender;\n    }\n    function getCreatorCommission() public view returns(uint256){\n        return _creatorCommission;\n    }\n    function getSellingNFTs() public view returns(uint256[] memory){\n        return _sellingNFTs;\n    }\n    function startSellingNFT(uint256 tokenId, uint256 price) public returns(bool){\n        require(msg.sender == _owners[tokenId], \"can be set by owner only\");\n        require(price > 0,\"price should be greater than 0\");\n        require(!(_sellPrice[tokenId] > 0), \"Already Selling\");\n        // require(price > _sellPrice[tokenId], \"new price should be higher than previous price\");\n        _sellPrice[tokenId] = price;\n        _sellingNFTs.push(tokenId);\n        _sellingNFTsIndexes[tokenId] = _sellingNFTs.length-1;\n        return true;\n    }\n    function cancelSellingNFT(uint256 tokenId) public returns(bool){\n        require(msg.sender == _owners[tokenId], \"can be set by owner only\");\n        require(_sellPrice[tokenId] > 0, \"not Selling this token\");\n        removeSellingNFTs(_sellingNFTsIndexes[tokenId], tokenId);\n        delete _sellingNFTsIndexes[tokenId];\n        delete _sellPrice[tokenId];\n        return true;\n    }\n\n    function buyNFT(uint256 tokenId) public payable returns(bool){\n        require(_sellPrice[tokenId] > 0, \"not Selling this token\");\n        require(msg.sender != _owners[tokenId],\"Owner cannot buy it's own NFT\");\n        require(_token.balanceOf(msg.sender) >= _sellPrice[tokenId],\"Low balance\");\n        require(_token.spendFrom(msg.sender, _sellPrice[tokenId]),\"Token Transection Failed\");\n        uint256 commission = (_sellPrice[tokenId] * _creatorCommission) / 100 ;\n        _token.transfer(_creator[tokenId], commission);\n        uint256 platform = (_sellPrice[tokenId] * _platformCommission) / 100 ;\n        _token.transfer(_creator[tokenId], platform);\n        uint256 total = commission + platform;\n        _token.transfer(_owners[tokenId], (_sellPrice[tokenId] - total));\n        _balances[_owners[tokenId]] -= 1;\n        _balances[msg.sender] += 1;\n        _owners[tokenId] = msg.sender;\n        removeSellingNFTs(_sellingNFTsIndexes[tokenId], tokenId);\n        delete _sellingNFTsIndexes[tokenId];\n        delete _sellPrice[tokenId];\n        return true;\n    }\n    function getCreator(uint256 tokenId) public view returns (address){\n        return _creator[tokenId];\n    }\n    function getPlatformCommission() public view returns (uint256){\n        return _platformCommission;\n    }\n    function setPlatformAdddress(address addr)public  {\n        require(msg.sender == ownership, \"can be called by Contract Owner\");\n        platformAddress  = addr;\n    }\n\n    function getSellPrice(uint256 tokenId) public view returns(uint256){\n        return _sellPrice[tokenId];\n    }\n    function removeSellingNFTs(uint256 index, uint256 tokenId) private /* returns(uint[]) */{\n        if (index >= _sellingNFTs.length) return;\n        delete _sellingNFTsIndexes[tokenId];\n        for (uint i = index; i<_sellingNFTs.length-1; i++){\n            _sellingNFTs[i] = _sellingNFTs[i+1];\n            _sellingNFTsIndexes[_sellingNFTs[i]] = i;\n        }\n        _sellingNFTs.pop();\n        // return _sellingNFTs;\n    }\n    /**\n     * Getter and Setter of _token (ERC20)\n     **/\n    function getToken() public view returns (ERC20){\n        return _token;\n    }\n\n    //  ERC20 private _token; // getters and setters\n    function setToken(address tokenAddress) public {\n        require(msg.sender == ownership, \"can be called by Contract Owner\");\n        _token = ERC20(tokenAddress);\n    }\n\n    function startAuction(uint256 tokenId, uint time, uint256 minPrice) public {\n        require(msg.sender == _owners[tokenId], 'can only be called by Owner');\n        require(!(_sellPrice[tokenId] > 0), \"Already Selling, cancel Selling NFT First\");\n        address nftaddress = address(this);\n        _auctionContracts[tokenId] = new Auction(tokenId, time, _owners[tokenId], _token, nftaddress, minPrice);\n        safeTransferFrom(msg.sender, address(_auctionContracts[tokenId]), tokenId);\n        _token.setAuctionsAddress(tokenId, address(_auctionContracts[tokenId]));\n    }\n\n    function getAuctionContract(uint256 tokenId) public view returns (Auction){\n        return _auctionContracts[tokenId];\n    }\n\n\n    function deleteAuctionContract(uint256 tokenId) public {\n        require(msg.sender == address(_auctionContracts[tokenId]), \"can only called by Auction/Owner\");\n        delete _auctionContracts[tokenId];\n    }\n    /**\n     * @dev See {IERC165-supportsInterface}.\n     */\n    function supportsInterface(bytes4 interfaceId) public view virtual override(ERC165, IERC165) returns (bool) {\n        return\n        interfaceId == type(IERC721).interfaceId ||\n        interfaceId == type(IERC721Metadata).interfaceId ||\n        super.supportsInterface(interfaceId);\n    }\n\n    /**\n     * @dev See {IERC721-balanceOf}.\n     */\n    function balanceOf(address owner) public view virtual override returns (uint256) {\n        require(owner != address(0), \"ERC721: balance query for the zero address\");\n        return _balances[owner];\n    }\n\n\n    /**\n     * @dev See {IERC721-ownerOf}.\n     */\n    function ownerOf(uint256 tokenId) public view virtual override returns (address) {\n        address owner = _owners[tokenId];\n        require(owner != address(0), \"ERC721: owner query for nonexistent token\");\n        return owner;\n    }\n\n    /**\n     * @dev See {IERC721Metadata-name}.\n     */\n    function name() public view virtual override returns (string memory) {\n        return _name;\n    }\n\n    /**\n     * @dev See {IERC721Metadata-symbol}.\n     */\n    function symbol() public view virtual override returns (string memory) {\n        return _symbol;\n    }\n\n    /**\n     * @dev See {IERC721Metadata-tokenURI}.\n     */\n    function tokenURI(uint256 tokenId) public view virtual override returns (string memory) {\n        require(_exists(tokenId), \"ERC721Metadata: URI query for nonexistent token\");\n\n        string memory baseURI = _baseURI();\n        return bytes(baseURI).length > 0 ? string(abi.encodePacked(baseURI, tokenId.toString())) : \"\";\n    }\n\n    /**\n     * @dev Base URI for computing {tokenURI}. If set, the resulting URI for each\n     * token will be the concatenation of the `baseURI` and the `tokenId`. Empty\n     * by default, can be overriden in child contracts.\n     */\n    function _baseURI() internal view virtual returns (string memory) {\n        return \"\";\n    }\n\n    /**\n     * @dev See {IERC721-approve}.\n     */\n    function approve(address to, uint256 tokenId) public virtual override {\n        address owner = ERC721.ownerOf(tokenId);\n        require(to != owner, \"ERC721: approval to current owner\");\n\n        require(\n            _msgSender() == owner || isApprovedForAll(owner, _msgSender()),\n            \"ERC721: approve caller is not owner nor approved for all\"\n        );\n\n        _approve(to, tokenId);\n    }\n\n    /**\n     * @dev See {IERC721-getApproved}.\n     */\n    function getApproved(uint256 tokenId) public view virtual override returns (address) {\n        require(_exists(tokenId), \"ERC721: approved query for nonexistent token\");\n\n        return _tokenApprovals[tokenId];\n    }\n\n    /**\n     * @dev See {IERC721-setApprovalForAll}.\n     */\n    function setApprovalForAll(address operator, bool approved) public virtual override {\n        require(operator != _msgSender(), \"ERC721: approve to caller\");\n\n        _operatorApprovals[_msgSender()][operator] = approved;\n        emit ApprovalForAll(_msgSender(), operator, approved);\n    }\n\n    /**\n     * @dev See {IERC721-isApprovedForAll}.\n     */\n    function isApprovedForAll(address owner, address operator) public view virtual override returns (bool) {\n        return _operatorApprovals[owner][operator];\n    }\n\n    /**\n     * @dev See {IERC721-transferFrom}.\n     */\n    function transferFrom(\n        address from,\n        address to,\n        uint256 tokenId\n    ) public virtual override {\n        //solhint-disable-next-line max-line-length\n        require(_isApprovedOrOwner(_msgSender(), tokenId), \"ERC721: transfer caller is not owner nor approved\");\n\n        _transfer(from, to, tokenId);\n    }\n\n    /**\n     * @dev See {IERC721-safeTransferFrom}.\n     */\n\n\n    function _spend(uint256 tokenId, address to) public virtual returns (bool) {\n        safeTransferFrom(msg.sender, to, tokenId);\n        return true;\n    }\n\n    function safeTransferFrom(\n        address from,\n        address to,\n        uint256 tokenId\n    ) public virtual override {\n        safeTransferFrom(from, to, tokenId, \"\");\n    }\n\n    /**\n     * @dev See {IERC721-safeTransferFrom}.\n     */\n    function safeTransferFrom(\n        address from,\n        address to,\n        uint256 tokenId,\n        bytes memory _data\n    ) public virtual override {\n        require(_isApprovedOrOwner(_msgSender(), tokenId), \"ERC721: transfer caller is not owner nor approved\");\n        _safeTransfer(from, to, tokenId, _data);\n    }\n\n    /**\n     * @dev Safely transfers `tokenId` token from `from` to `to`, checking first that contract recipients\n     * are aware of the ERC721 protocol to prevent tokens from being forever locked.\n     *\n     * `_data` is additional data, it has no specified format and it is sent in call to `to`.\n     *\n     * This internal function is equivalent to {safeTransferFrom}, and can be used to e.g.\n     * implement alternative mechanisms to perform token transfer, such as signature-based.\n     *\n     * Requirements:\n     *\n     * - `from` cannot be the zero address.\n     * - `to` cannot be the zero address.\n     * - `tokenId` token must exist and be owned by `from`.\n     * - If `to` refers to a smart contract, it must implement {IERC721Receiver-onERC721Received}, which is called upon a safe transfer.\n     *\n     * Emits a {Transfer} event.\n     */\n    function _safeTransfer(\n        address from,\n        address to,\n        uint256 tokenId,\n        bytes memory _data\n    ) internal virtual {\n        _transfer(from, to, tokenId);\n        require(_checkOnERC721Received(from, to, tokenId, _data), \"ERC721: transfer to non ERC721Receiver implementer\");\n    }\n\n\n\n    /**\n     * @dev Returns whether `tokenId` exists.\n     *\n     * Tokens can be managed by their owner or approved accounts via {approve} or {setApprovalForAll}.\n     *\n     * Tokens start existing when they are minted (`_mint`),\n     * and stop existing when they are burned (`_burn`).\n     */\n    function _exists(uint256 tokenId) internal view virtual returns (bool) {\n        return _owners[tokenId] != address(0);\n    }\n\n    /**\n     * @dev Returns whether `spender` is allowed to manage `tokenId`.\n     *\n     * Requirements:\n     *\n     * - `tokenId` must exist.\n     */\n    function _isApprovedOrOwner(address spender, uint256 tokenId) internal view virtual returns (bool) {\n        require(_exists(tokenId), \"ERC721: operator query for nonexistent token\");\n        address owner = ERC721.ownerOf(tokenId);\n        return (spender == owner || getApproved(tokenId) == spender || isApprovedForAll(owner, spender));\n    }\n\n    /**\n     * @dev Safely mints `tokenId` and transfers it to `to`.\n     *\n     * Requirements:\n     *\n     * - `tokenId` must not exist.\n     * - If `to` refers to a smart contract, it must implement {IERC721Receiver-onERC721Received}, which is called upon a safe transfer.\n     *\n     * Emits a {Transfer} event.\n     */\n    function _safeMint(address to, uint256 tokenId) internal virtual {\n        _safeMint(to, tokenId, \"\");\n    }\n\n    /**\n     * @dev Same as {xref-ERC721-_safeMint-address-uint256-}[`_safeMint`], with an additional `data` parameter which is\n     * forwarded in {IERC721Receiver-onERC721Received} to contract recipients.\n     */\n    function _safeMint(\n        address to,\n        uint256 tokenId,\n        bytes memory _data\n    ) internal virtual {\n        _mint(to, tokenId);\n        require(\n            _checkOnERC721Received(address(0), to, tokenId, _data),\n            \"ERC721: transfer to non ERC721Receiver implementer\"\n        );\n    }\n\n    /**\n     * @dev Mints `tokenId` and transfers it to `to`.\n     *\n     * WARNING: Usage of this method is discouraged, use {_safeMint} whenever possible\n     *\n     * Requirements:\n     *\n     * - `tokenId` must not exist.\n     * - `to` cannot be the zero address.\n     *\n     * Emits a {Transfer} event.\n     */\n    function _mint(address to, uint256 tokenId) internal virtual {\n        require(to != address(0), \"ERC721: mint to the zero address\");\n        require(!_exists(tokenId), \"ERC721: token already minted\");\n\n        _beforeTokenTransfer(address(0), to, tokenId);\n\n        _balances[to] += 1;\n        _owners[tokenId] = to;\n        _creator[tokenId] = to;\n        emit Transfer(address(0), to, tokenId);\n    }\n\n    /**\n     * @dev Destroys `tokenId`.\n     * The approval is cleared when the token is burned.\n     *\n     * Requirements:\n     *\n     * - `tokenId` must exist.\n     *\n     * Emits a {Transfer} event.\n     */\n    function _burn(uint256 tokenId) internal virtual {\n        address owner = ERC721.ownerOf(tokenId);\n\n        _beforeTokenTransfer(owner, address(0), tokenId);\n\n        // Clear approvals\n        _approve(address(0), tokenId);\n\n        _balances[owner] -= 1;\n        delete _owners[tokenId];\n\n        emit Transfer(owner, address(0), tokenId);\n    }\n\n    /**\n     * @dev Transfers `tokenId` from `from` to `to`.\n     *  As opposed to {transferFrom}, this imposes no restrictions on msg.sender.\n     *\n     * Requirements:\n     *\n     * - `to` cannot be the zero address.\n     * - `tokenId` token must be owned by `from`.\n     *\n     * Emits a {Transfer} event.\n     */\n    function _transfer(\n        address from,\n        address to,\n        uint256 tokenId\n    ) internal virtual {\n        require(ERC721.ownerOf(tokenId) == from, \"ERC721: transfer of token that is not own\");\n        require(to != address(0), \"ERC721: transfer to the zero address\");\n\n        _beforeTokenTransfer(from, to, tokenId);\n\n        // Clear approvals from the previous owner\n        _approve(address(0), tokenId);\n\n        _balances[from] -= 1;\n        _balances[to] += 1;\n        _owners[tokenId] = to;\n\n        emit Transfer(from, to, tokenId);\n    }\n\n    /**\n     * @dev Approve `to` to operate on `tokenId`\n     *\n     * Emits a {Approval} event.\n     */\n    function _approve(address to, uint256 tokenId) internal virtual {\n        _tokenApprovals[tokenId] = to;\n        emit Approval(ERC721.ownerOf(tokenId), to, tokenId);\n    }\n\n    /**\n     * @dev Internal function to invoke {IERC721Receiver-onERC721Received} on a target address.\n     * The call is not executed if the target address is not a contract.\n     *\n     * @param from address representing the previous owner of the given token ID\n     * @param to target address that will receive the tokens\n     * @param tokenId uint256 ID of the token to be transferred\n     * @param _data bytes optional data to send along with the call\n     * @return bool whether the call correctly returned the expected magic value\n     */\n    function _checkOnERC721Received(\n        address from,\n        address to,\n        uint256 tokenId,\n        bytes memory _data\n    ) private returns (bool) {\n        if (to.isContract()) {\n            try IERC721Receiver(to).onERC721Received(_msgSender(), from, tokenId, _data) returns (bytes4 retval) {\n                return retval == IERC721Receiver.onERC721Received.selector;\n            } catch (bytes memory reason) {\n                if (reason.length == 0) {\n                    revert(\"ERC721: transfer to non ERC721Receiver implementer\");\n                } else {\n                    assembly {\n                        revert(add(32, reason), mload(reason))\n                    }\n                }\n            }\n        } else {\n            return true;\n        }\n    }\n\n    /**\n     * @dev Hook that is called before any token transfer. This includes minting\n     * and burning.\n     *\n     * Calling conditions:\n     *\n     * - When `from` and `to` are both non-zero, ``from``'s `tokenId` will be\n     * transferred to `to`.\n     * - When `from` is zero, `tokenId` will be minted for `to`.\n     * - When `to` is zero, ``from``'s `tokenId` will be burned.\n     * - `from` and `to` are never both zero.\n     *\n     * To learn more about hooks, head to xref:ROOT:extending-contracts.adoc#using-hooks[Using Hooks].\n     */\n    function _beforeTokenTransfer(\n        address from,\n        address to,\n        uint256 tokenId\n    ) internal virtual {}\n}\n",
  "sourcePath": "/Volumes/Transcend/Projects/DappsLab/Lottery-Smart-Contract/contracts/customERC20ERC721/ERC721/ERC721.sol",
  "compiler": {
    "name": "solc",
    "version": "0.8.0+commit.c7dfd78e.Emscripten.clang"
  },
  "schemaVersion": "3.4.3",
  "updatedAt": "2021-11-18T07:59:15.527Z",
  "devdoc": {
    "details": "Implementation of https://eips.ethereum.org/EIPS/eip-721[ERC721] Non-Fungible Token Standard, including the Metadata extension, but not including the Enumerable extension, which is available separately as {ERC721Enumerable}.",
    "kind": "dev",
    "methods": {
      "_spend(uint256,address)": {
        "details": "See {IERC721-safeTransferFrom}."
      },
      "approve(address,uint256)": {
        "details": "See {IERC721-approve}."
      },
      "balanceOf(address)": {
        "details": "See {IERC721-balanceOf}."
      },
      "constructor": {
        "details": "Initializes the contract by setting a `name` and a `symbol` to the token collection."
      },
      "getApproved(uint256)": {
        "details": "See {IERC721-getApproved}."
      },
      "isApprovedForAll(address,address)": {
        "details": "See {IERC721-isApprovedForAll}."
      },
      "name()": {
        "details": "See {IERC721Metadata-name}."
      },
      "ownerOf(uint256)": {
        "details": "See {IERC721-ownerOf}."
      },
      "safeTransferFrom(address,address,uint256)": {
        "details": "Safely transfers `tokenId` token from `from` to `to`, checking first that contract recipients are aware of the ERC721 protocol to prevent tokens from being forever locked. Requirements: - `from` cannot be the zero address. - `to` cannot be the zero address. - `tokenId` token must exist and be owned by `from`. - If the caller is not `from`, it must be have been allowed to move this token by either {approve} or {setApprovalForAll}. - If `to` refers to a smart contract, it must implement {IERC721Receiver-onERC721Received}, which is called upon a safe transfer. Emits a {Transfer} event."
      },
      "safeTransferFrom(address,address,uint256,bytes)": {
        "details": "See {IERC721-safeTransferFrom}."
      },
      "setApprovalForAll(address,bool)": {
        "details": "See {IERC721-setApprovalForAll}."
      },
      "supportsInterface(bytes4)": {
        "details": "See {IERC165-supportsInterface}."
      },
      "symbol()": {
        "details": "See {IERC721Metadata-symbol}."
      },
      "tokenURI(uint256)": {
        "details": "See {IERC721Metadata-tokenURI}."
      },
      "transferFrom(address,address,uint256)": {
        "details": "See {IERC721-transferFrom}."
      }
    },
    "version": 1
  },
  "userdoc": {
    "kind": "user",
    "methods": {
      "getToken()": {
        "notice": "Getter and Setter of _token (ERC20)*"
      }
    },
    "version": 1
  }
}