{
  "contractName": "ERC721",
  "abi": [
    {
      "inputs": [
        {
          "internalType": "string",
          "name": "name_",
          "type": "string"
        },
        {
          "internalType": "string",
          "name": "symbol_",
          "type": "string"
        }
      ],
      "stateMutability": "nonpayable",
      "type": "constructor"
    },
    {
      "anonymous": false,
      "inputs": [
        {
          "indexed": true,
          "internalType": "address",
          "name": "owner",
          "type": "address"
        },
        {
          "indexed": true,
          "internalType": "address",
          "name": "approved",
          "type": "address"
        },
        {
          "indexed": true,
          "internalType": "uint256",
          "name": "tokenId",
          "type": "uint256"
        }
      ],
      "name": "Approval",
      "type": "event"
    },
    {
      "anonymous": false,
      "inputs": [
        {
          "indexed": true,
          "internalType": "address",
          "name": "owner",
          "type": "address"
        },
        {
          "indexed": true,
          "internalType": "address",
          "name": "operator",
          "type": "address"
        },
        {
          "indexed": false,
          "internalType": "bool",
          "name": "approved",
          "type": "bool"
        }
      ],
      "name": "ApprovalForAll",
      "type": "event"
    },
    {
      "anonymous": false,
      "inputs": [
        {
          "indexed": true,
          "internalType": "address",
          "name": "from",
          "type": "address"
        },
        {
          "indexed": true,
          "internalType": "address",
          "name": "to",
          "type": "address"
        },
        {
          "indexed": true,
          "internalType": "uint256",
          "name": "tokenId",
          "type": "uint256"
        }
      ],
      "name": "Transfer",
      "type": "event"
    },
    {
      "inputs": [],
      "name": "_creatorComission",
      "outputs": [
        {
          "internalType": "uint8",
          "name": "",
          "type": "uint8"
        }
      ],
      "stateMutability": "view",
      "type": "function"
    },
    {
      "inputs": [
        {
          "internalType": "uint256",
          "name": "tokenId",
          "type": "uint256"
        }
      ],
      "name": "getCreator",
      "outputs": [
        {
          "internalType": "address",
          "name": "",
          "type": "address"
        }
      ],
      "stateMutability": "view",
      "type": "function"
    },
    {
      "inputs": [],
      "name": "getToken",
      "outputs": [
        {
          "internalType": "contract ERC20",
          "name": "",
          "type": "address"
        }
      ],
      "stateMutability": "view",
      "type": "function"
    },
    {
      "inputs": [
        {
          "internalType": "address",
          "name": "tokenAddress",
          "type": "address"
        }
      ],
      "name": "setToken",
      "outputs": [],
      "stateMutability": "nonpayable",
      "type": "function"
    },
    {
      "inputs": [
        {
          "internalType": "uint256",
          "name": "tokenId",
          "type": "uint256"
        },
        {
          "internalType": "uint256",
          "name": "time",
          "type": "uint256"
        }
      ],
      "name": "startAuction",
      "outputs": [],
      "stateMutability": "nonpayable",
      "type": "function"
    },
    {
      "inputs": [
        {
          "internalType": "uint256",
          "name": "tokenId",
          "type": "uint256"
        }
      ],
      "name": "getAuctionContract",
      "outputs": [
        {
          "internalType": "address",
          "name": "",
          "type": "address"
        }
      ],
      "stateMutability": "view",
      "type": "function"
    },
    {
      "inputs": [
        {
          "internalType": "uint256",
          "name": "tokenId",
          "type": "uint256"
        },
        {
          "internalType": "address",
          "name": "auctionAddress",
          "type": "address"
        }
      ],
      "name": "setAuctionContract",
      "outputs": [],
      "stateMutability": "nonpayable",
      "type": "function"
    },
    {
      "inputs": [
        {
          "internalType": "bytes4",
          "name": "interfaceId",
          "type": "bytes4"
        }
      ],
      "name": "supportsInterface",
      "outputs": [
        {
          "internalType": "bool",
          "name": "",
          "type": "bool"
        }
      ],
      "stateMutability": "view",
      "type": "function"
    },
    {
      "inputs": [
        {
          "internalType": "address",
          "name": "owner",
          "type": "address"
        }
      ],
      "name": "balanceOf",
      "outputs": [
        {
          "internalType": "uint256",
          "name": "",
          "type": "uint256"
        }
      ],
      "stateMutability": "view",
      "type": "function"
    },
    {
      "inputs": [
        {
          "internalType": "uint256",
          "name": "tokenId",
          "type": "uint256"
        }
      ],
      "name": "ownerOf",
      "outputs": [
        {
          "internalType": "address",
          "name": "",
          "type": "address"
        }
      ],
      "stateMutability": "view",
      "type": "function"
    },
    {
      "inputs": [],
      "name": "name",
      "outputs": [
        {
          "internalType": "string",
          "name": "",
          "type": "string"
        }
      ],
      "stateMutability": "view",
      "type": "function"
    },
    {
      "inputs": [],
      "name": "symbol",
      "outputs": [
        {
          "internalType": "string",
          "name": "",
          "type": "string"
        }
      ],
      "stateMutability": "view",
      "type": "function"
    },
    {
      "inputs": [
        {
          "internalType": "uint256",
          "name": "tokenId",
          "type": "uint256"
        }
      ],
      "name": "tokenURI",
      "outputs": [
        {
          "internalType": "string",
          "name": "",
          "type": "string"
        }
      ],
      "stateMutability": "view",
      "type": "function"
    },
    {
      "inputs": [
        {
          "internalType": "address",
          "name": "to",
          "type": "address"
        },
        {
          "internalType": "uint256",
          "name": "tokenId",
          "type": "uint256"
        }
      ],
      "name": "approve",
      "outputs": [],
      "stateMutability": "nonpayable",
      "type": "function"
    },
    {
      "inputs": [
        {
          "internalType": "uint256",
          "name": "tokenId",
          "type": "uint256"
        }
      ],
      "name": "getApproved",
      "outputs": [
        {
          "internalType": "address",
          "name": "",
          "type": "address"
        }
      ],
      "stateMutability": "view",
      "type": "function"
    },
    {
      "inputs": [
        {
          "internalType": "address",
          "name": "operator",
          "type": "address"
        },
        {
          "internalType": "bool",
          "name": "approved",
          "type": "bool"
        }
      ],
      "name": "setApprovalForAll",
      "outputs": [],
      "stateMutability": "nonpayable",
      "type": "function"
    },
    {
      "inputs": [
        {
          "internalType": "address",
          "name": "owner",
          "type": "address"
        },
        {
          "internalType": "address",
          "name": "operator",
          "type": "address"
        }
      ],
      "name": "isApprovedForAll",
      "outputs": [
        {
          "internalType": "bool",
          "name": "",
          "type": "bool"
        }
      ],
      "stateMutability": "view",
      "type": "function"
    },
    {
      "inputs": [
        {
          "internalType": "address",
          "name": "from",
          "type": "address"
        },
        {
          "internalType": "address",
          "name": "to",
          "type": "address"
        },
        {
          "internalType": "uint256",
          "name": "tokenId",
          "type": "uint256"
        }
      ],
      "name": "transferFrom",
      "outputs": [],
      "stateMutability": "nonpayable",
      "type": "function"
    },
    {
      "inputs": [
        {
          "internalType": "uint256",
          "name": "tokenId",
          "type": "uint256"
        },
        {
          "internalType": "address",
          "name": "to",
          "type": "address"
        }
      ],
      "name": "_spend",
      "outputs": [
        {
          "internalType": "bool",
          "name": "",
          "type": "bool"
        }
      ],
      "stateMutability": "nonpayable",
      "type": "function"
    },
    {
      "inputs": [
        {
          "internalType": "address",
          "name": "from",
          "type": "address"
        },
        {
          "internalType": "address",
          "name": "to",
          "type": "address"
        },
        {
          "internalType": "uint256",
          "name": "tokenId",
          "type": "uint256"
        }
      ],
      "name": "safeTransferFrom",
      "outputs": [],
      "stateMutability": "nonpayable",
      "type": "function"
    },
    {
      "inputs": [
        {
          "internalType": "address",
          "name": "from",
          "type": "address"
        },
        {
          "internalType": "address",
          "name": "to",
          "type": "address"
        },
        {
          "internalType": "uint256",
          "name": "tokenId",
          "type": "uint256"
        },
        {
          "internalType": "bytes",
          "name": "_data",
          "type": "bytes"
        }
      ],
      "name": "safeTransferFrom",
      "outputs": [],
      "stateMutability": "nonpayable",
      "type": "function"
    },
    {
      "inputs": [
        {
          "internalType": "address",
          "name": "to",
          "type": "address"
        },
        {
          "internalType": "uint256",
          "name": "tokenId",
          "type": "uint256"
        },
        {
          "internalType": "uint256",
          "name": "tokenAmount",
          "type": "uint256"
        }
      ],
      "name": "_mint",
      "outputs": [],
      "stateMutability": "nonpayable",
      "type": "function"
    }
  ],
  "bytecode": "0x6080604052600a600360006101000a81548160ff021916908360ff1602179055503480156200002d57600080fd5b50604051620050bb380380620050bb8339818101604052810190620000539190620001af565b81600190805190602001906200006b9291906200008d565b508060029080519060200190620000849291906200008d565b50505062000353565b8280546200009b90620002bf565b90600052602060002090601f016020900481019282620000bf57600085556200010b565b82601f10620000da57805160ff19168380011785556200010b565b828001600101855582156200010b579182015b828111156200010a578251825591602001919060010190620000ed565b5b5090506200011a91906200011e565b5090565b5b80821115620001395760008160009055506001016200011f565b5090565b6000620001546200014e8462000256565b62000222565b9050828152602081018484840111156200016d57600080fd5b6200017a84828562000289565b509392505050565b600082601f8301126200019457600080fd5b8151620001a68482602086016200013d565b91505092915050565b60008060408385031215620001c357600080fd5b600083015167ffffffffffffffff811115620001de57600080fd5b620001ec8582860162000182565b925050602083015167ffffffffffffffff8111156200020a57600080fd5b620002188582860162000182565b9150509250929050565b6000604051905081810181811067ffffffffffffffff821117156200024c576200024b62000324565b5b8060405250919050565b600067ffffffffffffffff82111562000274576200027362000324565b5b601f19601f8301169050602081019050919050565b60005b83811015620002a95780820151818401526020810190506200028c565b83811115620002b9576000848401525b50505050565b60006002820490506001821680620002d857607f821691505b60208210811415620002ef57620002ee620002f5565b5b50919050565b7f4e487b7100000000000000000000000000000000000000000000000000000000600052602260045260246000fd5b7f4e487b7100000000000000000000000000000000000000000000000000000000600052604160045260246000fd5b614d5880620003636000396000f3fe60806040523480156200001157600080fd5b50600436106200017d576000357c01000000000000000000000000000000000000000000000000000000009004806370a0823111620000e6578063b88d4fde11620000a4578063b88d4fde14620003f8578063c87b56dd1462000418578063d48e638a146200044e578063e506dfbe1462000484578063e985e9c514620004ba578063fc9b5fc814620004f0576200017d565b806370a08231146200032a5780637776afa014620003605780639564470e146200038057806395d89b4114620003b6578063a22cb46514620003d8576200017d565b806321df0da7116200014057806321df0da7146200025057806323b872dd146200027257806342842e0e14620002925780634fee13fc14620002b25780636352211e14620002d25780636e8e78db1462000308576200017d565b806301ffc9a7146200018257806306fdde0314620001b8578063081812fc14620001da578063095ea7b31462000210578063144fa6d71462000230575b600080fd5b620001a060048036038101906200019a919062002270565b62000510565b604051620001af919062002af0565b60405180910390f35b620001c2620005f6565b604051620001d1919062002b2a565b60405180910390f35b620001f86004803603810190620001f29190620022c8565b62000690565b60405162000207919062002a52565b60405180910390f35b6200022e6004803603810190620002289190620021ad565b6200071a565b005b6200024e600480360381019062000248919062002024565b62000843565b005b6200025a62000886565b60405162000269919062002b0d565b60405180910390f35b6200029060048036038101906200028a919062002091565b620008af565b005b620002b06004803603810190620002aa919062002091565b62000918565b005b620002d06004803603810190620002ca919062002335565b6200093a565b005b620002f06004803603810190620002ea9190620022c8565b62000be7565b604051620002ff919062002a52565b60405180910390f35b6200031262000c9c565b60405162000321919062002df3565b60405180910390f35b62000348600480360381019062000342919062002024565b62000caf565b60405162000357919062002d4c565b60405180910390f35b6200037e6004803603810190620003789190620021ee565b62000d6a565b005b6200039e6004803603810190620003989190620022f4565b62001070565b604051620003ad919062002af0565b60405180910390f35b620003c062001089565b604051620003cf919062002b2a565b60405180910390f35b620003f66004803603810190620003f091906200216c565b62001123565b005b620004166004803603810190620004109190620020e7565b620012af565b005b620004366004803603810190620004309190620022c8565b6200131a565b60405162000445919062002b2a565b60405180910390f35b6200046c6004803603810190620004669190620022c8565b620013ce565b6040516200047b919062002a52565b60405180910390f35b620004a260048036038101906200049c9190620022c8565b6200140b565b604051620004b1919062002a52565b60405180910390f35b620004d86004803603810190620004d2919062002050565b62001448565b604051620004e7919062002af0565b60405180910390f35b6200050e6004803603810190620005089190620022f4565b620014dc565b005b60007f80ac58cd000000000000000000000000000000000000000000000000000000007bffffffffffffffffffffffffffffffffffffffffffffffffffffffff1916827bffffffffffffffffffffffffffffffffffffffffffffffffffffffff19161480620005dc57507f5b5e139f000000000000000000000000000000000000000000000000000000007bffffffffffffffffffffffffffffffffffffffffffffffffffffffff1916827bffffffffffffffffffffffffffffffffffffffffffffffffffffffff1916145b80620005ef5750620005ee82620015d6565b5b9050919050565b60606001805462000607906200307a565b80601f016020809104026020016040519081016040528092919081815260200182805462000635906200307a565b8015620006865780601f106200065a5761010080835404028352916020019162000686565b820191906000526020600020905b8154815290600101906020018083116200066857829003601f168201915b5050505050905090565b60006200069d8262001640565b620006df576040517f08c379a0000000000000000000000000000000000000000000000000000000008152600401620006d69062002c80565b60405180910390fd5b6007600083815260200190815260200160002060009054906101000a900473ffffffffffffffffffffffffffffffffffffffff169050919050565b6000620007278262000be7565b90508073ffffffffffffffffffffffffffffffffffffffff168373ffffffffffffffffffffffffffffffffffffffff1614156200079b576040517f08c379a0000000000000000000000000000000000000000000000000000000008152600401620007929062002d08565b60405180910390fd5b8073ffffffffffffffffffffffffffffffffffffffff16620007bc620016ac565b73ffffffffffffffffffffffffffffffffffffffff161480620007f05750620007ef81620007e9620016ac565b62001448565b5b62000832576040517f08c379a0000000000000000000000000000000000000000000000000000000008152600401620008299062002bf8565b60405180910390fd5b6200083e8383620016b4565b505050565b806000806101000a81548173ffffffffffffffffffffffffffffffffffffffff021916908373ffffffffffffffffffffffffffffffffffffffff16021790555050565b60008060009054906101000a900473ffffffffffffffffffffffffffffffffffffffff16905090565b620008c4620008bd620016ac565b826200176f565b62000906576040517f08c379a0000000000000000000000000000000000000000000000000000000008152600401620008fd9062002d2a565b60405180910390fd5b620009138383836200185a565b505050565b6200093583838360405180602001604052806000815250620012af565b505050565b6004600083815260200190815260200160002060009054906101000a900473ffffffffffffffffffffffffffffffffffffffff1673ffffffffffffffffffffffffffffffffffffffff163373ffffffffffffffffffffffffffffffffffffffff1614620009de576040517f08c379a0000000000000000000000000000000000000000000000000000000008152600401620009d59062002ca2565b60405180910390fd5b81816004600085815260200190815260200160002060009054906101000a900473ffffffffffffffffffffffffffffffffffffffff1660008054906101000a900473ffffffffffffffffffffffffffffffffffffffff163060405162000a449062001f1a565b62000a5495949392919062002d96565b604051809103906000f08015801562000a71573d6000803e3d6000fd5b506009600084815260200190815260200160002060006101000a81548173ffffffffffffffffffffffffffffffffffffffff021916908373ffffffffffffffffffffffffffffffffffffffff16021790555062000b03336009600085815260200190815260200160002060009054906101000a900473ffffffffffffffffffffffffffffffffffffffff168462000918565b60008054906101000a900473ffffffffffffffffffffffffffffffffffffffff1673ffffffffffffffffffffffffffffffffffffffff1663746e8e70836009600086815260200190815260200160002060009054906101000a900473ffffffffffffffffffffffffffffffffffffffff166040518363ffffffff167c010000000000000000000000000000000000000000000000000000000002815260040162000baf92919062002d69565b600060405180830381600087803b15801562000bca57600080fd5b505af115801562000bdf573d6000803e3d6000fd5b505050505050565b6000806004600084815260200190815260200160002060009054906101000a900473ffffffffffffffffffffffffffffffffffffffff169050600073ffffffffffffffffffffffffffffffffffffffff168173ffffffffffffffffffffffffffffffffffffffff16141562000c93576040517f08c379a000000000000000000000000000000000000000000000000000000000815260040162000c8a9062002c3c565b60405180910390fd5b80915050919050565b600360009054906101000a900460ff1681565b60008073ffffffffffffffffffffffffffffffffffffffff168273ffffffffffffffffffffffffffffffffffffffff16141562000d23576040517f08c379a000000000000000000000000000000000000000000000000000000000815260040162000d1a9062002c1a565b60405180910390fd5b600660008373ffffffffffffffffffffffffffffffffffffffff1673ffffffffffffffffffffffffffffffffffffffff168152602001908152602001600020549050919050565b600073ffffffffffffffffffffffffffffffffffffffff168373ffffffffffffffffffffffffffffffffffffffff16141562000ddd576040517f08c379a000000000000000000000000000000000000000000000000000000000815260040162000dd49062002c5e565b60405180910390fd5b62000de88262001640565b1562000e2b576040517f08c379a000000000000000000000000000000000000000000000000000000000815260040162000e229062002b70565b60405180910390fd5b6000811162000e3957600080fd5b60008054906101000a900473ffffffffffffffffffffffffffffffffffffffff1673ffffffffffffffffffffffffffffffffffffffff16636aade28884836040518363ffffffff167c010000000000000000000000000000000000000000000000000000000002815260040162000eb292919062002ac3565b602060405180830381600087803b15801562000ecd57600080fd5b505af115801562000ee2573d6000803e3d6000fd5b505050506040513d601f19601f8201168201806040525081019062000f08919062002244565b62000f1257600080fd5b6001600660008573ffffffffffffffffffffffffffffffffffffffff1673ffffffffffffffffffffffffffffffffffffffff168152602001908152602001600020600082825462000f64919062002eba565b92505081905550826004600084815260200190815260200160002060006101000a81548173ffffffffffffffffffffffffffffffffffffffff021916908373ffffffffffffffffffffffffffffffffffffffff160217905550826005600084815260200190815260200160002060006101000a81548173ffffffffffffffffffffffffffffffffffffffff021916908373ffffffffffffffffffffffffffffffffffffffff160217905550818373ffffffffffffffffffffffffffffffffffffffff16600073ffffffffffffffffffffffffffffffffffffffff167fddf252ad1be2c89b69c2b068fc378daa952ba7f163c4a11628f55a4df523b3ef60405160405180910390a4505050565b60006200107f33838562000918565b6001905092915050565b6060600280546200109a906200307a565b80601f0160208091040260200160405190810160405280929190818152602001828054620010c8906200307a565b8015620011195780601f10620010ed5761010080835404028352916020019162001119565b820191906000526020600020905b815481529060010190602001808311620010fb57829003601f168201915b5050505050905090565b6200112d620016ac565b73ffffffffffffffffffffffffffffffffffffffff168273ffffffffffffffffffffffffffffffffffffffff1614156200119e576040517f08c379a0000000000000000000000000000000000000000000000000000000008152600401620011959062002bb4565b60405180910390fd5b8060086000620011ad620016ac565b73ffffffffffffffffffffffffffffffffffffffff1673ffffffffffffffffffffffffffffffffffffffff16815260200190815260200160002060008473ffffffffffffffffffffffffffffffffffffffff1673ffffffffffffffffffffffffffffffffffffffff16815260200190815260200160002060006101000a81548160ff0219169083151502179055508173ffffffffffffffffffffffffffffffffffffffff166200125c620016ac565b73ffffffffffffffffffffffffffffffffffffffff167f17307eab39ab6107e8899845ad3d59bd9653f200f220920489ca2b5937696c3183604051620012a3919062002af0565b60405180910390a35050565b620012c4620012bd620016ac565b836200176f565b62001306576040517f08c379a0000000000000000000000000000000000000000000000000000000008152600401620012fd9062002d2a565b60405180910390fd5b620013148484848462001ac6565b50505050565b6060620013278262001640565b62001369576040517f08c379a0000000000000000000000000000000000000000000000000000000008152600401620013609062002ce6565b60405180910390fd5b60006200137562001b29565b90506000815111620013975760405180602001604052806000815250620013c6565b80620013a38462001b40565b604051602001620013b692919062002a2a565b6040516020818303038152906040525b915050919050565b60006005600083815260200190815260200160002060009054906101000a900473ffffffffffffffffffffffffffffffffffffffff169050919050565b60006009600083815260200190815260200160002060009054906101000a900473ffffffffffffffffffffffffffffffffffffffff169050919050565b6000600860008473ffffffffffffffffffffffffffffffffffffffff1673ffffffffffffffffffffffffffffffffffffffff16815260200190815260200160002060008373ffffffffffffffffffffffffffffffffffffffff1673ffffffffffffffffffffffffffffffffffffffff16815260200190815260200160002060009054906101000a900460ff16905092915050565b6004600083815260200190815260200160002060009054906101000a900473ffffffffffffffffffffffffffffffffffffffff1673ffffffffffffffffffffffffffffffffffffffff163373ffffffffffffffffffffffffffffffffffffffff161462001580576040517f08c379a0000000000000000000000000000000000000000000000000000000008152600401620015779062002ca2565b60405180910390fd5b806009600084815260200190815260200160002060006101000a81548173ffffffffffffffffffffffffffffffffffffffff021916908373ffffffffffffffffffffffffffffffffffffffff1602179055505050565b60007f01ffc9a7000000000000000000000000000000000000000000000000000000007bffffffffffffffffffffffffffffffffffffffffffffffffffffffff1916827bffffffffffffffffffffffffffffffffffffffffffffffffffffffff1916149050919050565b60008073ffffffffffffffffffffffffffffffffffffffff166004600084815260200190815260200160002060009054906101000a900473ffffffffffffffffffffffffffffffffffffffff1673ffffffffffffffffffffffffffffffffffffffff1614159050919050565b600033905090565b816007600083815260200190815260200160002060006101000a81548173ffffffffffffffffffffffffffffffffffffffff021916908373ffffffffffffffffffffffffffffffffffffffff160217905550808273ffffffffffffffffffffffffffffffffffffffff16620017298362000be7565b73ffffffffffffffffffffffffffffffffffffffff167f8c5be1e5ebec7d5bd14f71427d1e84f3dd0314c0f7b2291e5b200ac8c7c3b92560405160405180910390a45050565b60006200177c8262001640565b620017be576040517f08c379a0000000000000000000000000000000000000000000000000000000008152600401620017b59062002bd6565b60405180910390fd5b6000620017cb8362000be7565b90508073ffffffffffffffffffffffffffffffffffffffff168473ffffffffffffffffffffffffffffffffffffffff1614806200183d57508373ffffffffffffffffffffffffffffffffffffffff16620018258462000690565b73ffffffffffffffffffffffffffffffffffffffff16145b8062001851575062001850818562001448565b5b91505092915050565b8273ffffffffffffffffffffffffffffffffffffffff166200187c8262000be7565b73ffffffffffffffffffffffffffffffffffffffff1614620018d5576040517f08c379a0000000000000000000000000000000000000000000000000000000008152600401620018cc9062002cc4565b60405180910390fd5b600073ffffffffffffffffffffffffffffffffffffffff168273ffffffffffffffffffffffffffffffffffffffff16141562001948576040517f08c379a00000000000000000000000000000000000000000000000000000000081526004016200193f9062002b92565b60405180910390fd5b6200195583838362001d21565b62001962600082620016b4565b6001600660008573ffffffffffffffffffffffffffffffffffffffff1673ffffffffffffffffffffffffffffffffffffffff1681526020019081526020016000206000828254620019b4919062002f4f565b925050819055506001600660008473ffffffffffffffffffffffffffffffffffffffff1673ffffffffffffffffffffffffffffffffffffffff168152602001908152602001600020600082825462001a0d919062002eba565b92505081905550816004600083815260200190815260200160002060006101000a81548173ffffffffffffffffffffffffffffffffffffffff021916908373ffffffffffffffffffffffffffffffffffffffff160217905550808273ffffffffffffffffffffffffffffffffffffffff168473ffffffffffffffffffffffffffffffffffffffff167fddf252ad1be2c89b69c2b068fc378daa952ba7f163c4a11628f55a4df523b3ef60405160405180910390a4505050565b62001ad38484846200185a565b62001ae18484848462001d26565b62001b23576040517f08c379a000000000000000000000000000000000000000000000000000000000815260040162001b1a9062002b4e565b60405180910390fd5b50505050565b606060405180602001604052806000815250905090565b6060600082141562001b8a576040518060400160405280600181526020017f3000000000000000000000000000000000000000000000000000000000000000815250905062001d1c565b600082905060005b6000821462001bc257808062001ba890620030b0565b915050600a8262001bba919062002f17565b915062001b92565b60008167ffffffffffffffff81111562001c05577f4e487b7100000000000000000000000000000000000000000000000000000000600052604160045260246000fd5b6040519080825280601f01601f19166020018201604052801562001c385781602001600182028036833780820191505090505b5090505b6000851462001d155760018262001c54919062002f4f565b9150600a8562001c659190620030fe565b603062001c73919062002eba565b7f01000000000000000000000000000000000000000000000000000000000000000281838151811062001ccf577f4e487b7100000000000000000000000000000000000000000000000000000000600052603260045260246000fd5b60200101907effffffffffffffffffffffffffffffffffffffffffffffffffffffffffffff1916908160001a905350600a8562001d0d919062002f17565b945062001c3c565b8093505050505b919050565b505050565b600062001d498473ffffffffffffffffffffffffffffffffffffffff1662001f07565b1562001efa578373ffffffffffffffffffffffffffffffffffffffff1663150b7a0262001d75620016ac565b8786866040518563ffffffff167c010000000000000000000000000000000000000000000000000000000002815260040162001db5949392919062002a6f565b602060405180830381600087803b15801562001dd057600080fd5b505af192505050801562001e0457506040513d601f19601f8201168201806040525081019062001e0191906200229c565b60015b62001e8d573d806000811462001e37576040519150601f19603f3d011682016040523d82523d6000602084013e62001e3c565b606091505b5060008151141562001e85576040517f08c379a000000000000000000000000000000000000000000000000000000000815260040162001e7c9062002b4e565b60405180910390fd5b805181602001fd5b63150b7a027c0100000000000000000000000000000000000000000000000000000000027bffffffffffffffffffffffffffffffffffffffffffffffffffffffff1916817bffffffffffffffffffffffffffffffffffffffffffffffffffffffff19161491505062001eff565b600190505b949350505050565b600080823b905060008111915050919050565b611ab7806200326c83390190565b600062001f3f62001f398462002e44565b62002e10565b90508281526020810184848401111562001f5857600080fd5b62001f6584828562003035565b509392505050565b60008135905062001f7e8162003203565b92915050565b60008135905062001f95816200321d565b92915050565b60008151905062001fac816200321d565b92915050565b60008135905062001fc38162003237565b92915050565b60008151905062001fda8162003237565b92915050565b600082601f83011262001ff257600080fd5b81356200200484826020860162001f28565b91505092915050565b6000813590506200201e8162003251565b92915050565b6000602082840312156200203757600080fd5b6000620020478482850162001f6d565b91505092915050565b600080604083850312156200206457600080fd5b6000620020748582860162001f6d565b9250506020620020878582860162001f6d565b9150509250929050565b600080600060608486031215620020a757600080fd5b6000620020b78682870162001f6d565b9350506020620020ca8682870162001f6d565b9250506040620020dd868287016200200d565b9150509250925092565b60008060008060808587031215620020fe57600080fd5b60006200210e8782880162001f6d565b9450506020620021218782880162001f6d565b935050604062002134878288016200200d565b925050606085013567ffffffffffffffff8111156200215257600080fd5b620021608782880162001fe0565b91505092959194509250565b600080604083850312156200218057600080fd5b6000620021908582860162001f6d565b9250506020620021a38582860162001f84565b9150509250929050565b60008060408385031215620021c157600080fd5b6000620021d18582860162001f6d565b9250506020620021e4858286016200200d565b9150509250929050565b6000806000606084860312156200220457600080fd5b6000620022148682870162001f6d565b935050602062002227868287016200200d565b92505060406200223a868287016200200d565b9150509250925092565b6000602082840312156200225757600080fd5b6000620022678482850162001f9b565b91505092915050565b6000602082840312156200228357600080fd5b6000620022938482850162001fb2565b91505092915050565b600060208284031215620022af57600080fd5b6000620022bf8482850162001fc9565b91505092915050565b600060208284031215620022db57600080fd5b6000620022eb848285016200200d565b91505092915050565b600080604083850312156200230857600080fd5b600062002318858286016200200d565b92505060206200232b8582860162001f6d565b9150509250929050565b600080604083850312156200234957600080fd5b600062002359858286016200200d565b92505060206200236c858286016200200d565b9150509250929050565b620023818162002f8a565b82525050565b620023928162002f9e565b82525050565b6000620023a58262002e77565b620023b1818562002e8d565b9350620023c381856020860162003044565b620023ce81620031f2565b840191505092915050565b620023e4816200300d565b82525050565b6000620023f78262002e82565b62002403818562002e9e565b93506200241581856020860162003044565b6200242081620031f2565b840191505092915050565b6000620024388262002e82565b62002444818562002eaf565b93506200245681856020860162003044565b80840191505092915050565b60006200247160328362002e9e565b91507f4552433732313a207472616e7366657220746f206e6f6e20455243373231526560008301527f63656976657220696d706c656d656e74657200000000000000000000000000006020830152604082019050919050565b6000620024d9601c8362002e9e565b91507f4552433732313a20746f6b656e20616c7265616479206d696e746564000000006000830152602082019050919050565b60006200251b60248362002e9e565b91507f4552433732313a207472616e7366657220746f20746865207a65726f2061646460008301527f72657373000000000000000000000000000000000000000000000000000000006020830152604082019050919050565b60006200258360198362002e9e565b91507f4552433732313a20617070726f766520746f2063616c6c6572000000000000006000830152602082019050919050565b6000620025c5602c8362002e9e565b91507f4552433732313a206f70657261746f7220717565727920666f72206e6f6e657860008301527f697374656e7420746f6b656e00000000000000000000000000000000000000006020830152604082019050919050565b60006200262d60388362002e9e565b91507f4552433732313a20617070726f76652063616c6c6572206973206e6f74206f7760008301527f6e6572206e6f7220617070726f76656420666f7220616c6c00000000000000006020830152604082019050919050565b600062002695602a8362002e9e565b91507f4552433732313a2062616c616e636520717565727920666f7220746865207a6560008301527f726f2061646472657373000000000000000000000000000000000000000000006020830152604082019050919050565b6000620026fd60298362002e9e565b91507f4552433732313a206f776e657220717565727920666f72206e6f6e657869737460008301527f656e7420746f6b656e00000000000000000000000000000000000000000000006020830152604082019050919050565b60006200276560208362002e9e565b91507f4552433732313a206d696e7420746f20746865207a65726f20616464726573736000830152602082019050919050565b6000620027a7602c8362002e9e565b91507f4552433732313a20617070726f76656420717565727920666f72206e6f6e657860008301527f697374656e7420746f6b656e00000000000000000000000000000000000000006020830152604082019050919050565b60006200280f60248362002e9e565b91507f73686f756c642062652063616c6c6564206279206f6e6c7920746f6b656e206f60008301527f776e6572000000000000000000000000000000000000000000000000000000006020830152604082019050919050565b60006200287760298362002e9e565b91507f4552433732313a207472616e73666572206f6620746f6b656e2074686174206960008301527f73206e6f74206f776e00000000000000000000000000000000000000000000006020830152604082019050919050565b6000620028df602f8362002e9e565b91507f4552433732314d657461646174613a2055524920717565727920666f72206e6f60008301527f6e6578697374656e7420746f6b656e00000000000000000000000000000000006020830152604082019050919050565b60006200294760218362002e9e565b91507f4552433732313a20617070726f76616c20746f2063757272656e74206f776e6560008301527f72000000000000000000000000000000000000000000000000000000000000006020830152604082019050919050565b6000620029af60318362002e9e565b91507f4552433732313a207472616e736665722063616c6c6572206973206e6f74206f60008301527f776e6572206e6f7220617070726f7665640000000000000000000000000000006020830152604082019050919050565b62002a138162002ff6565b82525050565b62002a248162003000565b82525050565b600062002a3882856200242b565b915062002a4682846200242b565b91508190509392505050565b600060208201905062002a69600083018462002376565b92915050565b600060808201905062002a86600083018762002376565b62002a95602083018662002376565b62002aa4604083018562002a08565b818103606083015262002ab8818462002398565b905095945050505050565b600060408201905062002ada600083018562002376565b62002ae9602083018462002a08565b9392505050565b600060208201905062002b07600083018462002387565b92915050565b600060208201905062002b246000830184620023d9565b92915050565b6000602082019050818103600083015262002b468184620023ea565b905092915050565b6000602082019050818103600083015262002b698162002462565b9050919050565b6000602082019050818103600083015262002b8b81620024ca565b9050919050565b6000602082019050818103600083015262002bad816200250c565b9050919050565b6000602082019050818103600083015262002bcf8162002574565b9050919050565b6000602082019050818103600083015262002bf181620025b6565b9050919050565b6000602082019050818103600083015262002c13816200261e565b9050919050565b6000602082019050818103600083015262002c358162002686565b9050919050565b6000602082019050818103600083015262002c5781620026ee565b9050919050565b6000602082019050818103600083015262002c798162002756565b9050919050565b6000602082019050818103600083015262002c9b8162002798565b9050919050565b6000602082019050818103600083015262002cbd8162002800565b9050919050565b6000602082019050818103600083015262002cdf8162002868565b9050919050565b6000602082019050818103600083015262002d0181620028d0565b9050919050565b6000602082019050818103600083015262002d238162002938565b9050919050565b6000602082019050818103600083015262002d4581620029a0565b9050919050565b600060208201905062002d63600083018462002a08565b92915050565b600060408201905062002d80600083018562002a08565b62002d8f602083018462002376565b9392505050565b600060a08201905062002dad600083018862002a08565b62002dbc602083018762002a08565b62002dcb604083018662002376565b62002dda6060830185620023d9565b62002de9608083018462002376565b9695505050505050565b600060208201905062002e0a600083018462002a19565b92915050565b6000604051905081810181811067ffffffffffffffff8211171562002e3a5762002e39620031c3565b5b8060405250919050565b600067ffffffffffffffff82111562002e625762002e61620031c3565b5b601f19601f8301169050602081019050919050565b600081519050919050565b600081519050919050565b600082825260208201905092915050565b600082825260208201905092915050565b600081905092915050565b600062002ec78262002ff6565b915062002ed48362002ff6565b9250827fffffffffffffffffffffffffffffffffffffffffffffffffffffffffffffffff0382111562002f0c5762002f0b62003136565b5b828201905092915050565b600062002f248262002ff6565b915062002f318362002ff6565b92508262002f445762002f4362003165565b5b828204905092915050565b600062002f5c8262002ff6565b915062002f698362002ff6565b92508282101562002f7f5762002f7e62003136565b5b828203905092915050565b600062002f978262002fd6565b9050919050565b60008115159050919050565b60007fffffffff0000000000000000000000000000000000000000000000000000000082169050919050565b600073ffffffffffffffffffffffffffffffffffffffff82169050919050565b6000819050919050565b600060ff82169050919050565b60006200301a8262003021565b9050919050565b60006200302e8262002fd6565b9050919050565b82818337600083830152505050565b60005b838110156200306457808201518184015260208101905062003047565b8381111562003074576000848401525b50505050565b600060028204905060018216806200309357607f821691505b60208210811415620030aa57620030a962003194565b5b50919050565b6000620030bd8262002ff6565b91507fffffffffffffffffffffffffffffffffffffffffffffffffffffffffffffffff821415620030f357620030f262003136565b5b600182019050919050565b60006200310b8262002ff6565b9150620031188362002ff6565b9250826200312b576200312a62003165565b5b828206905092915050565b7f4e487b7100000000000000000000000000000000000000000000000000000000600052601160045260246000fd5b7f4e487b7100000000000000000000000000000000000000000000000000000000600052601260045260246000fd5b7f4e487b7100000000000000000000000000000000000000000000000000000000600052602260045260246000fd5b7f4e487b7100000000000000000000000000000000000000000000000000000000600052604160045260246000fd5b6000601f19601f8301169050919050565b6200320e8162002f8a565b81146200321a57600080fd5b50565b620032288162002f9e565b81146200323457600080fd5b50565b620032428162002faa565b81146200324e57600080fd5b50565b6200325c8162002ff6565b81146200326857600080fd5b5056fe60806040523480156200001157600080fd5b5060405162001ab738038062001ab7833981810160405281019062000037919062000164565b84600481905550826000806101000a81548173ffffffffffffffffffffffffffffffffffffffff021916908373ffffffffffffffffffffffffffffffffffffffff16021790555083426200008c9190620001e6565b60018190555081600260006101000a81548173ffffffffffffffffffffffffffffffffffffffff021916908373ffffffffffffffffffffffffffffffffffffffff16021790555080600360006101000a81548173ffffffffffffffffffffffffffffffffffffffff021916908373ffffffffffffffffffffffffffffffffffffffff160217905550505050505062000312565b6000815190506200013081620002c4565b92915050565b6000815190506200014781620002de565b92915050565b6000815190506200015e81620002f8565b92915050565b600080600080600060a086880312156200017d57600080fd5b60006200018d888289016200014d565b9550506020620001a0888289016200014d565b9450506040620001b3888289016200011f565b9350506060620001c68882890162000136565b9250506080620001d9888289016200011f565b9150509295509295909350565b6000620001f3826200028b565b915062000200836200028b565b9250827fffffffffffffffffffffffffffffffffffffffffffffffffffffffffffffffff0382111562000238576200023762000295565b5b828201905092915050565b600062000250826200026b565b9050919050565b6000620002648262000243565b9050919050565b600073ffffffffffffffffffffffffffffffffffffffff82169050919050565b6000819050919050565b7f4e487b7100000000000000000000000000000000000000000000000000000000600052601160045260246000fd5b620002cf8162000243565b8114620002db57600080fd5b50565b620002e98162000257565b8114620002f557600080fd5b50565b62000303816200028b565b81146200030f57600080fd5b50565b61179580620003226000396000f3fe608060405260043610610110576000357c010000000000000000000000000000000000000000000000000000000090048063454a2ab3116100a757806388a6360e1161007657806388a6360e146102e357806391f901571461030e578063d57bde7914610339578063f56e9c661461036457610110565b8063454a2ab3146102485780634b449cba1461026457806370bda8941461028f57806383ffda3b146102a657610110565b806321df0da7116100e357806321df0da7146101bd5780632a24f46c146101e857806338af3eed146101f25780633ccfd60b1461021d57610110565b806312fa6feb14610115578063144fa6d714610140578063150b7a02146101695780631e36d755146101a6575b600080fd5b34801561012157600080fd5b5061012a61038d565b6040516101379190611351565b60405180910390f35b34801561014c57600080fd5b5061016760048036038101906101629190611035565b6103a0565b005b34801561017557600080fd5b50610190600480360381019061018b919061105e565b6103e4565b60405161019d919061136c565b60405180910390f35b3480156101b257600080fd5b506101bb610414565b005b3480156101c957600080fd5b506101d2610504565b6040516101df9190611387565b60405180910390f35b6101f061052e565b005b3480156101fe57600080fd5b50610207610969565b60405161021491906112e4565b60405180910390f35b34801561022957600080fd5b5061023261098d565b60405161023f9190611351565b60405180910390f35b610262600480360381019061025d9190611102565b610b47565b005b34801561027057600080fd5b50610279610db5565b604051610286919061143d565b60405180910390f35b34801561029b57600080fd5b506102a4610dbb565b005b3480156102b257600080fd5b506102cd60048036038101906102c89190611035565b610eab565b6040516102da919061143d565b60405180910390f35b3480156102ef57600080fd5b506102f8610ef4565b60405161030591906113a2565b60405180910390f35b34801561031a57600080fd5b50610323610f1e565b60405161033091906112c9565b60405180910390f35b34801561034557600080fd5b5061034e610f44565b60405161035b919061143d565b60405180910390f35b34801561037057600080fd5b5061038b60048036038101906103869190611035565b610f4a565b005b600860009054906101000a900460ff1681565b80600260006101000a81548173ffffffffffffffffffffffffffffffffffffffff021916908373ffffffffffffffffffffffffffffffffffffffff16021790555050565b600063150b7a027c0100000000000000000000000000000000000000000000000000000000029050949350505050565b600360009054906101000a900473ffffffffffffffffffffffffffffffffffffffff1673ffffffffffffffffffffffffffffffffffffffff16639564470e60045460008054906101000a900473ffffffffffffffffffffffffffffffffffffffff166040518363ffffffff167c01000000000000000000000000000000000000000000000000000000000281526004016104af929190611481565b602060405180830381600087803b1580156104c957600080fd5b505af11580156104dd573d6000803e3d6000fd5b505050506040513d601f19601f8201168201806040525081019061050191906110d9565b50565b6000600260009054906101000a900473ffffffffffffffffffffffffffffffffffffffff16905090565b600154421015610573576040517f08c379a000000000000000000000000000000000000000000000000000000000815260040161056a906113fd565b60405180910390fd5b600860009054906101000a900460ff16156105c3576040517f08c379a00000000000000000000000000000000000000000000000000000000081526004016105ba9061141d565b60405180910390fd5b6001600860006101000a81548160ff0219169083151502179055507fd2aa34a4fdbbc6dff6a3e56f46e0f3ae2a31d7785ff3487aa5c95c642acea501600454600560009054906101000a900473ffffffffffffffffffffffffffffffffffffffff16600654604051610637939291906114aa565b60405180910390a1600073ffffffffffffffffffffffffffffffffffffffff16600560009054906101000a900473ffffffffffffffffffffffffffffffffffffffff1673ffffffffffffffffffffffffffffffffffffffff161461087857600360009054906101000a900473ffffffffffffffffffffffffffffffffffffffff1673ffffffffffffffffffffffffffffffffffffffff16639564470e600454600560009054906101000a900473ffffffffffffffffffffffffffffffffffffffff166040518363ffffffff167c0100000000000000000000000000000000000000000000000000000000028152600401610732929190611458565b602060405180830381600087803b15801561074c57600080fd5b505af1158015610760573d6000803e3d6000fd5b505050506040513d601f19601f8201168201806040525081019061078491906110d9565b50600260009054906101000a900473ffffffffffffffffffffffffffffffffffffffff1673ffffffffffffffffffffffffffffffffffffffff1663a9059cbb60008054906101000a900473ffffffffffffffffffffffffffffffffffffffff166006546040518363ffffffff167c01000000000000000000000000000000000000000000000000000000000281526004016108209291906112ff565b602060405180830381600087803b15801561083a57600080fd5b505af115801561084e573d6000803e3d6000fd5b505050506040513d601f19601f8201168201806040525081019061087291906110d9565b50610967565b600360009054906101000a900473ffffffffffffffffffffffffffffffffffffffff1673ffffffffffffffffffffffffffffffffffffffff16639564470e60045460008054906101000a900473ffffffffffffffffffffffffffffffffffffffff166040518363ffffffff167c0100000000000000000000000000000000000000000000000000000000028152600401610913929190611481565b602060405180830381600087803b15801561092d57600080fd5b505af1158015610941573d6000803e3d6000fd5b505050506040513d601f19601f8201168201806040525081019061096591906110d9565b505b565b60008054906101000a900473ffffffffffffffffffffffffffffffffffffffff1681565b600080600760003373ffffffffffffffffffffffffffffffffffffffff1673ffffffffffffffffffffffffffffffffffffffff1681526020019081526020016000205490506000811115610b3e576000600760003373ffffffffffffffffffffffffffffffffffffffff1673ffffffffffffffffffffffffffffffffffffffff16815260200190815260200160002081905550600260009054906101000a900473ffffffffffffffffffffffffffffffffffffffff1673ffffffffffffffffffffffffffffffffffffffff1663a9059cbb33836040518363ffffffff167c0100000000000000000000000000000000000000000000000000000000028152600401610a99929190611328565b602060405180830381600087803b158015610ab357600080fd5b505af1158015610ac7573d6000803e3d6000fd5b505050506040513d601f19601f82011682018060405250810190610aeb91906110d9565b610b3d5780600760003373ffffffffffffffffffffffffffffffffffffffff1673ffffffffffffffffffffffffffffffffffffffff168152602001908152602001600020819055506000915050610b44565b5b60019150505b90565b600154421115610b8c576040517f08c379a0000000000000000000000000000000000000000000000000000000008152600401610b83906113bd565b60405180910390fd5b6006548111610bd0576040517f08c379a0000000000000000000000000000000000000000000000000000000008152600401610bc7906113dd565b60405180910390fd5b600260009054906101000a900473ffffffffffffffffffffffffffffffffffffffff1673ffffffffffffffffffffffffffffffffffffffff166301f07a3b60045433846040518463ffffffff167c0100000000000000000000000000000000000000000000000000000000028152600401610c4d939291906114aa565b602060405180830381600087803b158015610c6757600080fd5b505af1158015610c7b573d6000803e3d6000fd5b505050506040513d601f19601f82011682018060405250810190610c9f91906110d9565b610ca857600080fd5b600060065414610d2d5760065460076000600560009054906101000a900473ffffffffffffffffffffffffffffffffffffffff1673ffffffffffffffffffffffffffffffffffffffff1673ffffffffffffffffffffffffffffffffffffffff1681526020019081526020016000206000828254610d259190611553565b925050819055505b33600560006101000a81548173ffffffffffffffffffffffffffffffffffffffff021916908373ffffffffffffffffffffffffffffffffffffffff160217905550806006819055507fda0a18da71d8ebd145966339a728fc0d8ccc07c22870d561890d823c515dda6b6004543383604051610daa939291906114aa565b60405180910390a150565b60015481565b600360009054906101000a900473ffffffffffffffffffffffffffffffffffffffff1673ffffffffffffffffffffffffffffffffffffffff16639564470e60045460008054906101000a900473ffffffffffffffffffffffffffffffffffffffff166040518363ffffffff167c0100000000000000000000000000000000000000000000000000000000028152600401610e56929190611481565b602060405180830381600087803b158015610e7057600080fd5b505af1158015610e84573d6000803e3d6000fd5b505050506040513d601f19601f82011682018060405250810190610ea891906110d9565b50565b6000600760008373ffffffffffffffffffffffffffffffffffffffff1673ffffffffffffffffffffffffffffffffffffffff168152602001908152602001600020549050919050565b6000600360009054906101000a900473ffffffffffffffffffffffffffffffffffffffff16905090565b600560009054906101000a900473ffffffffffffffffffffffffffffffffffffffff1681565b60065481565b80600360006101000a81548173ffffffffffffffffffffffffffffffffffffffff021916908373ffffffffffffffffffffffffffffffffffffffff16021790555050565b6000610fa1610f9c84611512565b6114e1565b905082815260208101848484011115610fb957600080fd5b610fc48482856116ad565b509392505050565b600081359050610fdb8161171a565b92915050565b600081519050610ff081611731565b92915050565b600082601f83011261100757600080fd5b8135611017848260208601610f8e565b91505092915050565b60008135905061102f81611748565b92915050565b60006020828403121561104757600080fd5b600061105584828501610fcc565b91505092915050565b6000806000806080858703121561107457600080fd5b600061108287828801610fcc565b945050602061109387828801610fcc565b93505060406110a487828801611020565b925050606085013567ffffffffffffffff8111156110c157600080fd5b6110cd87828801610ff6565b91505092959194509250565b6000602082840312156110eb57600080fd5b60006110f984828501610fe1565b91505092915050565b60006020828403121561111457600080fd5b600061112284828501611020565b91505092915050565b6111348161162f565b82525050565b611143816115bb565b82525050565b611152816115a9565b82525050565b611161816115cd565b82525050565b611170816115d9565b82525050565b61117f81611641565b82525050565b61118e81611665565b82525050565b60006111a1601683611542565b91507f41756374696f6e20616c726561647920656e6465642e000000000000000000006000830152602082019050919050565b60006111e1601e83611542565b91507f546865726520616c7265616479206973206120686967686572206269642e00006000830152602082019050919050565b6000611221601683611542565b91507f41756374696f6e206e6f742079657420656e6465642e000000000000000000006000830152602082019050919050565b6000611261602383611542565b91507f61756374696f6e456e642068617320616c7265616479206265656e2063616c6c60008301527f65642e00000000000000000000000000000000000000000000000000000000006020830152604082019050919050565b6112c381611625565b82525050565b60006020820190506112de6000830184611149565b92915050565b60006020820190506112f9600083018461113a565b92915050565b6000604082019050611314600083018561112b565b61132160208301846112ba565b9392505050565b600060408201905061133d6000830185611149565b61134a60208301846112ba565b9392505050565b60006020820190506113666000830184611158565b92915050565b60006020820190506113816000830184611167565b92915050565b600060208201905061139c6000830184611176565b92915050565b60006020820190506113b76000830184611185565b92915050565b600060208201905081810360008301526113d681611194565b9050919050565b600060208201905081810360008301526113f6816111d4565b9050919050565b6000602082019050818103600083015261141681611214565b9050919050565b6000602082019050818103600083015261143681611254565b9050919050565b600060208201905061145260008301846112ba565b92915050565b600060408201905061146d60008301856112ba565b61147a6020830184611149565b9392505050565b600060408201905061149660008301856112ba565b6114a3602083018461112b565b9392505050565b60006060820190506114bf60008301866112ba565b6114cc6020830185611149565b6114d960408301846112ba565b949350505050565b6000604051905081810181811067ffffffffffffffff82111715611508576115076116eb565b5b8060405250919050565b600067ffffffffffffffff82111561152d5761152c6116eb565b5b601f19601f8301169050602081019050919050565b600082825260208201905092915050565b600061155e82611625565b915061156983611625565b9250827fffffffffffffffffffffffffffffffffffffffffffffffffffffffffffffffff0382111561159e5761159d6116bc565b5b828201905092915050565b60006115b482611605565b9050919050565b60006115c682611605565b9050919050565b60008115159050919050565b60007fffffffff0000000000000000000000000000000000000000000000000000000082169050919050565b600073ffffffffffffffffffffffffffffffffffffffff82169050919050565b6000819050919050565b600061163a82611689565b9050919050565b600061164c82611653565b9050919050565b600061165e82611605565b9050919050565b600061167082611677565b9050919050565b600061168282611605565b9050919050565b60006116948261169b565b9050919050565b60006116a682611605565b9050919050565b82818337600083830152505050565b7f4e487b7100000000000000000000000000000000000000000000000000000000600052601160045260246000fd5b7f4e487b7100000000000000000000000000000000000000000000000000000000600052604160045260246000fd5b611723816115a9565b811461172e57600080fd5b50565b61173a816115cd565b811461174557600080fd5b50565b61175181611625565b811461175c57600080fd5b5056fea26469706673582212206dce54cfb456d8fcf3553238230e28458688008409a017fba850ea2884b7e3ac64736f6c63430008000033a2646970667358221220a74efce7bf7a9f75871b47d98440e0d2f317a7b2aa506a096008a9cf3d71322364736f6c63430008000033",
  "immutableReferences": {},
  "source": "// SPDX-License-Identifier: MIT\n\npragma solidity ^0.8.0;\n\nimport \"./IERC721.sol\";\nimport \"./IERC721Receiver.sol\";\nimport \"./extensions/IERC721Metadata.sol\";\nimport \"../utils/Address.sol\";\nimport \"../utils/Context.sol\";\nimport \"../utils/Strings.sol\";\nimport \"../utils/introspection/ERC165.sol\";\nimport \"../ERC20/ERC20.sol\";\nimport \"../Auction.sol\";\n/**\n * @dev Implementation of https://eips.ethereum.org/EIPS/eip-721[ERC721] Non-Fungible Token Standard, including\n * the Metadata extension, but not including the Enumerable extension, which is available separately as\n * {ERC721Enumerable}.\n */\n\ncontract ERC721 is Context, ERC165, IERC721, IERC721Metadata {\n    using Address for address;\n    using Strings for uint256;\n\n    //ERC20 Token\n    ERC20 private _token; // getters and setters\n\n    // Token name\n    string private _name;\n\n    // Token symbol\n    string private _symbol;\n\n\n    uint8 public _creatorComission = 10;\n    // Mapping from token ID to owner address\n    mapping(uint256 => address) private _owners;\n\n    // Mapping from token ID to creator address\n    mapping(uint256 => address) internal _creator;\n    // Mapping owner address to token count\n    mapping(address => uint256) private _balances;\n\n    // Mapping from token ID to approved address\n    mapping(uint256 => address) private _tokenApprovals;\n\n    // Mapping from owner to operator approvals\n    mapping(address => mapping(address => bool)) private _operatorApprovals;\n\n    mapping(uint256 => address) private _auctionContracts;\n\n    // Auction public auction;\n    // Events that will be emitted on changes.\n\n    /**\n     * @dev Initializes the contract by setting a `name` and a `symbol` to the token collection.\n     */\n    constructor(string memory name_, string memory symbol_) {\n        _name = name_;\n        _symbol = symbol_;\n    }\n\n    function getCreator(uint256 tokenId) public view returns(address){\n        return _creator[tokenId];\n    }\n    /**\n     * Getter and Setter of _token (ERC20)\n     **/\n    function getToken() public view returns(ERC20){\n        return _token;\n    }\n\n    //  ERC20 private _token; // getters and setters\n    function setToken(address tokenAddress) public {\n        _token = ERC20(tokenAddress);\n    }\n\n    function startAuction(uint256 tokenId, uint time) public {\n        require(msg.sender == _owners[tokenId], 'should be called by only token owner');\n        _auctionContracts[tokenId] = address(new Auction(tokenId, time, _owners[tokenId], _token, address(this)));\n        safeTransferFrom(msg.sender, _auctionContracts[tokenId], tokenId);\n        _token.setAuctionsAddress(tokenId, _auctionContracts[tokenId]);\n    }\n\n    function getAuctionContract(uint256 tokenId) public view returns(address){\n        return _auctionContracts[tokenId];\n    }\n    function setAuctionContract(uint256 tokenId, address auctionAddress) public {\n        require(msg.sender == _owners[tokenId], 'should be called by only token owner');\n        _auctionContracts[tokenId] = auctionAddress;\n    }\n    /**\n     * @dev See {IERC165-supportsInterface}.\n     */\n    function supportsInterface(bytes4 interfaceId) public view virtual override(ERC165, IERC165) returns (bool) {\n        return\n        interfaceId == type(IERC721).interfaceId ||\n        interfaceId == type(IERC721Metadata).interfaceId ||\n        super.supportsInterface(interfaceId);\n    }\n\n    /**\n     * @dev See {IERC721-balanceOf}.\n     */\n    function balanceOf(address owner) public view virtual override returns (uint256) {\n        require(owner != address(0), \"ERC721: balance query for the zero address\");\n        return _balances[owner];\n    }\n\n\n    /**\n     * @dev See {IERC721-ownerOf}.\n     */\n    function ownerOf(uint256 tokenId) public view virtual override returns (address) {\n        address owner = _owners[tokenId];\n        require(owner != address(0), \"ERC721: owner query for nonexistent token\");\n        return owner;\n    }\n\n    /**\n     * @dev See {IERC721Metadata-name}.\n     */\n    function name() public view virtual override returns (string memory) {\n        return _name;\n    }\n\n    /**\n     * @dev See {IERC721Metadata-symbol}.\n     */\n    function symbol() public view virtual override returns (string memory) {\n        return _symbol;\n    }\n\n    /**\n     * @dev See {IERC721Metadata-tokenURI}.\n     */\n    function tokenURI(uint256 tokenId) public view virtual override returns (string memory) {\n        require(_exists(tokenId), \"ERC721Metadata: URI query for nonexistent token\");\n\n        string memory baseURI = _baseURI();\n        return bytes(baseURI).length > 0 ? string(abi.encodePacked(baseURI, tokenId.toString())) : \"\";\n    }\n\n    /**\n     * @dev Base URI for computing {tokenURI}. If set, the resulting URI for each\n     * token will be the concatenation of the `baseURI` and the `tokenId`. Empty\n     * by default, can be overriden in child contracts.\n     */\n    function _baseURI() internal view virtual returns (string memory) {\n        return \"\";\n    }\n\n    /**\n     * @dev See {IERC721-approve}.\n     */\n    function approve(address to, uint256 tokenId) public virtual override {\n        address owner = ERC721.ownerOf(tokenId);\n        require(to != owner, \"ERC721: approval to current owner\");\n\n        require(\n            _msgSender() == owner || isApprovedForAll(owner, _msgSender()),\n            \"ERC721: approve caller is not owner nor approved for all\"\n        );\n\n        _approve(to, tokenId);\n    }\n\n    /**\n     * @dev See {IERC721-getApproved}.\n     */\n    function getApproved(uint256 tokenId) public view virtual override returns (address) {\n        require(_exists(tokenId), \"ERC721: approved query for nonexistent token\");\n\n        return _tokenApprovals[tokenId];\n    }\n\n    /**\n     * @dev See {IERC721-setApprovalForAll}.\n     */\n    function setApprovalForAll(address operator, bool approved) public virtual override {\n        require(operator != _msgSender(), \"ERC721: approve to caller\");\n\n        _operatorApprovals[_msgSender()][operator] = approved;\n        emit ApprovalForAll(_msgSender(), operator, approved);\n    }\n\n    /**\n     * @dev See {IERC721-isApprovedForAll}.\n     */\n    function isApprovedForAll(address owner, address operator) public view virtual override returns (bool) {\n        return _operatorApprovals[owner][operator];\n    }\n\n    /**\n     * @dev See {IERC721-transferFrom}.\n     */\n    function transferFrom(\n        address from,\n        address to,\n        uint256 tokenId\n    ) public virtual override {\n        //solhint-disable-next-line max-line-length\n        require(_isApprovedOrOwner(_msgSender(), tokenId), \"ERC721: transfer caller is not owner nor approved\");\n\n        _transfer(from, to, tokenId);\n    }\n\n    /**\n     * @dev See {IERC721-safeTransferFrom}.\n     */\n\n    function _spend(uint256 tokenId, address to) public virtual returns (bool) {\n        safeTransferFrom(msg.sender, to, tokenId);\n        return true;\n    }\n\n    function safeTransferFrom(\n        address from,\n        address to,\n        uint256 tokenId\n    ) public virtual override {\n        safeTransferFrom(from, to, tokenId, \"\");\n    }\n\n    /**\n     * @dev See {IERC721-safeTransferFrom}.\n     */\n    function safeTransferFrom(\n        address from,\n        address to,\n        uint256 tokenId,\n        bytes memory _data\n    ) public virtual override {\n        require(_isApprovedOrOwner(_msgSender(), tokenId), \"ERC721: transfer caller is not owner nor approved\");\n        _safeTransfer(from, to, tokenId, _data);\n    }\n\n    /**\n     * @dev Safely transfers `tokenId` token from `from` to `to`, checking first that contract recipients\n     * are aware of the ERC721 protocol to prevent tokens from being forever locked.\n     *\n     * `_data` is additional data, it has no specified format and it is sent in call to `to`.\n     *\n     * This internal function is equivalent to {safeTransferFrom}, and can be used to e.g.\n     * implement alternative mechanisms to perform token transfer, such as signature-based.\n     *\n     * Requirements:\n     *\n     * - `from` cannot be the zero address.\n     * - `to` cannot be the zero address.\n     * - `tokenId` token must exist and be owned by `from`.\n     * - If `to` refers to a smart contract, it must implement {IERC721Receiver-onERC721Received}, which is called upon a safe transfer.\n     *\n     * Emits a {Transfer} event.\n     */\n    function _safeTransfer(\n        address from,\n        address to,\n        uint256 tokenId,\n        bytes memory _data\n    ) internal virtual {\n        _transfer(from, to, tokenId);\n        require(_checkOnERC721Received(from, to, tokenId, _data), \"ERC721: transfer to non ERC721Receiver implementer\");\n    }\n\n\n\n    /**\n     * @dev Returns whether `tokenId` exists.\n     *\n     * Tokens can be managed by their owner or approved accounts via {approve} or {setApprovalForAll}.\n     *\n     * Tokens start existing when they are minted (`_mint`),\n     * and stop existing when they are burned (`_burn`).\n     */\n    function _exists(uint256 tokenId) internal view virtual returns (bool) {\n        return _owners[tokenId] != address(0);\n    }\n\n    /**\n     * @dev Returns whether `spender` is allowed to manage `tokenId`.\n     *\n     * Requirements:\n     *\n     * - `tokenId` must exist.\n     */\n    function _isApprovedOrOwner(address spender, uint256 tokenId) internal view virtual returns (bool) {\n        require(_exists(tokenId), \"ERC721: operator query for nonexistent token\");\n        address owner = ERC721.ownerOf(tokenId);\n        return (spender == owner || getApproved(tokenId) == spender || isApprovedForAll(owner, spender));\n    }\n\n    /**\n     * @dev Safely mints `tokenId` and transfers it to `to`.\n     *\n     * Requirements:\n     *\n     * - `tokenId` must not exist.\n     * - If `to` refers to a smart contract, it must implement {IERC721Receiver-onERC721Received}, which is called upon a safe transfer.\n     *\n     * Emits a {Transfer} event.\n     */\n    function _safeMint(address to, uint256 tokenId, uint256 tokenAmount) internal virtual {\n        _safeMint(to, tokenId, tokenAmount, \"\");\n    }\n\n    /**\n     * @dev Same as {xref-ERC721-_safeMint-address-uint256-}[`_safeMint`], with an additional `data` parameter which is\n     * forwarded in {IERC721Receiver-onERC721Received} to contract recipients.\n     */\n    function _safeMint(\n        address to,\n        uint256 tokenId,\n        uint256 tokenAmount,\n        bytes memory _data\n    ) internal virtual {\n        _mint(to, tokenId, tokenAmount);\n        require(\n            _checkOnERC721Received(address(0), to, tokenId, _data),\n            \"ERC721: transfer to non ERC721Receiver implementer\"\n        );\n    }\n\n    /**\n     * @dev Mints `tokenId` and transfers it to `to`.\n     *\n     * WARNING: Usage of this method is discouraged, use {_safeMint} whenever possible\n     *\n     * Requirements:\n     *\n     * - `tokenId` must not exist.\n     * - `to` cannot be the zero address.\n     *\n     * Emits a {Transfer} event.\n     */\n    function _mint(address to, uint256 tokenId, uint256 tokenAmount) public virtual {\n        require(to != address(0), \"ERC721: mint to the zero address\");\n        require(!_exists(tokenId), \"ERC721: token already minted\");\n        require(tokenAmount > 0);\n\n        require(_token.spendFrom(to, tokenAmount));\n\n        _balances[to] += 1;\n        _owners[tokenId] = to;\n        _creator[tokenId] = to;\n        emit Transfer(address(0), to, tokenId);\n    }\n\n    /**\n     * @dev Destroys `tokenId`.\n     * The approval is cleared when the token is burned.\n     *\n     * Requirements:\n     *\n     * - `tokenId` must exist.\n     *\n     * Emits a {Transfer} event.\n     */\n    function _burn(uint256 tokenId) internal virtual {\n        address owner = ERC721.ownerOf(tokenId);\n\n        // Clear approvals\n        _approve(address(0), tokenId);\n\n        _balances[owner] -= 1;\n        delete _owners[tokenId];\n\n        emit Transfer(owner, address(0), tokenId);\n    }\n\n    /**\n     * @dev Transfers `tokenId` from `from` to `to`.\n     *  As opposed to {transferFrom}, this imposes no restrictions on msg.sender.\n     *\n     * Requirements:\n     *\n     * - `to` cannot be the zero address.\n     * - `tokenId` token must be owned by `from`.\n     *\n     * Emits a {Transfer} event.\n     */\n    function _transfer(\n        address from,\n        address to,\n        uint256 tokenId\n    ) internal virtual {\n        require(ERC721.ownerOf(tokenId) == from, \"ERC721: transfer of token that is not own\");\n        require(to != address(0), \"ERC721: transfer to the zero address\");\n\n        _beforeTokenTransfer(from, to, tokenId);\n\n        // Clear approvals from the previous owner\n        _approve(address(0), tokenId);\n\n        _balances[from] -= 1;\n        _balances[to] += 1;\n        _owners[tokenId] = to;\n\n        emit Transfer(from, to, tokenId);\n    }\n\n    /**\n     * @dev Approve `to` to operate on `tokenId`\n     *\n     * Emits a {Approval} event.\n     */\n    function _approve(address to, uint256 tokenId) internal virtual {\n        _tokenApprovals[tokenId] = to;\n        emit Approval(ERC721.ownerOf(tokenId), to, tokenId);\n    }\n\n    /**\n     * @dev Internal function to invoke {IERC721Receiver-onERC721Received} on a target address.\n     * The call is not executed if the target address is not a contract.\n     *\n     * @param from address representing the previous owner of the given token ID\n     * @param to target address that will receive the tokens\n     * @param tokenId uint256 ID of the token to be transferred\n     * @param _data bytes optional data to send along with the call\n     * @return bool whether the call correctly returned the expected magic value\n     */\n    function _checkOnERC721Received(\n        address from,\n        address to,\n        uint256 tokenId,\n        bytes memory _data\n    ) private returns (bool) {\n        if (to.isContract()) {\n            try IERC721Receiver(to).onERC721Received(_msgSender(), from, tokenId, _data) returns (bytes4 retval) {\n                return retval == IERC721Receiver(to).onERC721Received.selector;\n            } catch (bytes memory reason) {\n                if (reason.length == 0) {\n                    revert(\"ERC721: transfer to non ERC721Receiver implementer\");\n                } else {\n                    assembly {\n                        revert(add(32, reason), mload(reason))\n                    }\n                }\n            }\n        } else {\n            return true;\n        }\n    }\n\n    /**\n     * @dev Hook that is called before any token transfer. This includes minting\n     * and burning.\n     *\n     * Calling conditions:\n     *\n     * - When `from` and `to` are both non-zero, ``from``'s `tokenId` will be\n     * transferred to `to`.\n     * - When `from` is zero, `tokenId` will be minted for `to`.\n     * - When `to` is zero, ``from``'s `tokenId` will be burned.\n     * - `from` and `to` are never both zero.\n     *\n     * To learn more about hooks, head to xref:ROOT:extending-contracts.adoc#using-hooks[Using Hooks].\n     */\n    function _beforeTokenTransfer(\n        address from,\n        address to,\n        uint256 tokenId\n    ) internal virtual {}\n}",
  "sourcePath": "/Volumes/Transcend/Projects/DappsLab/Lottery-Smart-Contract/contracts/customERC20ERC721/ERC721/ERC721.sol",
  "compiler": {
    "name": "solc",
    "version": "0.8.0+commit.c7dfd78e.Emscripten.clang"
  },
  "schemaVersion": "3.4.2",
  "updatedAt": "2021-07-27T10:47:27.632Z",
  "devdoc": {
    "details": "Implementation of https://eips.ethereum.org/EIPS/eip-721[ERC721] Non-Fungible Token Standard, including the Metadata extension, but not including the Enumerable extension, which is available separately as {ERC721Enumerable}.",
    "kind": "dev",
    "methods": {
      "_mint(address,uint256,uint256)": {
        "details": "Mints `tokenId` and transfers it to `to`. WARNING: Usage of this method is discouraged, use {_safeMint} whenever possible Requirements: - `tokenId` must not exist. - `to` cannot be the zero address. Emits a {Transfer} event."
      },
      "_spend(uint256,address)": {
        "details": "See {IERC721-safeTransferFrom}."
      },
      "approve(address,uint256)": {
        "details": "See {IERC721-approve}."
      },
      "balanceOf(address)": {
        "details": "See {IERC721-balanceOf}."
      },
      "constructor": {
        "details": "Initializes the contract by setting a `name` and a `symbol` to the token collection."
      },
      "getApproved(uint256)": {
        "details": "See {IERC721-getApproved}."
      },
      "isApprovedForAll(address,address)": {
        "details": "See {IERC721-isApprovedForAll}."
      },
      "name()": {
        "details": "See {IERC721Metadata-name}."
      },
      "ownerOf(uint256)": {
        "details": "See {IERC721-ownerOf}."
      },
      "safeTransferFrom(address,address,uint256)": {
        "details": "Safely transfers `tokenId` token from `from` to `to`, checking first that contract recipients are aware of the ERC721 protocol to prevent tokens from being forever locked. Requirements: - `from` cannot be the zero address. - `to` cannot be the zero address. - `tokenId` token must exist and be owned by `from`. - If the caller is not `from`, it must be have been allowed to move this token by either {approve} or {setApprovalForAll}. - If `to` refers to a smart contract, it must implement {IERC721Receiver-onERC721Received}, which is called upon a safe transfer. Emits a {Transfer} event."
      },
      "safeTransferFrom(address,address,uint256,bytes)": {
        "details": "See {IERC721-safeTransferFrom}."
      },
      "setApprovalForAll(address,bool)": {
        "details": "See {IERC721-setApprovalForAll}."
      },
      "supportsInterface(bytes4)": {
        "details": "See {IERC165-supportsInterface}."
      },
      "symbol()": {
        "details": "See {IERC721Metadata-symbol}."
      },
      "tokenURI(uint256)": {
        "details": "See {IERC721Metadata-tokenURI}."
      },
      "transferFrom(address,address,uint256)": {
        "details": "See {IERC721-transferFrom}."
      }
    },
    "version": 1
  },
  "userdoc": {
    "kind": "user",
    "methods": {
      "getToken()": {
        "notice": "Getter and Setter of _token (ERC20)*"
      }
    },
    "version": 1
  }
}