{
  "contractName": "ERC721",
  "abi": [
    {
      "inputs": [
        {
          "internalType": "string",
          "name": "name_",
          "type": "string"
        },
        {
          "internalType": "string",
          "name": "symbol_",
          "type": "string"
        }
      ],
      "stateMutability": "nonpayable",
      "type": "constructor"
    },
    {
      "anonymous": false,
      "inputs": [
        {
          "indexed": true,
          "internalType": "address",
          "name": "owner",
          "type": "address"
        },
        {
          "indexed": true,
          "internalType": "address",
          "name": "approved",
          "type": "address"
        },
        {
          "indexed": true,
          "internalType": "uint256",
          "name": "tokenId",
          "type": "uint256"
        }
      ],
      "name": "Approval",
      "type": "event"
    },
    {
      "anonymous": false,
      "inputs": [
        {
          "indexed": true,
          "internalType": "address",
          "name": "owner",
          "type": "address"
        },
        {
          "indexed": true,
          "internalType": "address",
          "name": "operator",
          "type": "address"
        },
        {
          "indexed": false,
          "internalType": "bool",
          "name": "approved",
          "type": "bool"
        }
      ],
      "name": "ApprovalForAll",
      "type": "event"
    },
    {
      "anonymous": false,
      "inputs": [
        {
          "indexed": true,
          "internalType": "address",
          "name": "from",
          "type": "address"
        },
        {
          "indexed": true,
          "internalType": "address",
          "name": "to",
          "type": "address"
        },
        {
          "indexed": true,
          "internalType": "uint256",
          "name": "tokenId",
          "type": "uint256"
        }
      ],
      "name": "Transfer",
      "type": "event"
    },
    {
      "inputs": [],
      "name": "_creatorComission",
      "outputs": [
        {
          "internalType": "uint8",
          "name": "",
          "type": "uint8"
        }
      ],
      "stateMutability": "view",
      "type": "function"
    },
    {
      "inputs": [
        {
          "internalType": "uint256",
          "name": "tokenId",
          "type": "uint256"
        }
      ],
      "name": "getCreator",
      "outputs": [
        {
          "internalType": "address",
          "name": "",
          "type": "address"
        }
      ],
      "stateMutability": "view",
      "type": "function"
    },
    {
      "inputs": [],
      "name": "getToken",
      "outputs": [
        {
          "internalType": "contract ERC20",
          "name": "",
          "type": "address"
        }
      ],
      "stateMutability": "view",
      "type": "function"
    },
    {
      "inputs": [
        {
          "internalType": "address",
          "name": "tokenAddress",
          "type": "address"
        }
      ],
      "name": "setToken",
      "outputs": [],
      "stateMutability": "nonpayable",
      "type": "function"
    },
    {
      "inputs": [
        {
          "internalType": "uint256",
          "name": "tokenId",
          "type": "uint256"
        },
        {
          "internalType": "uint256",
          "name": "time",
          "type": "uint256"
        }
      ],
      "name": "startAuction",
      "outputs": [],
      "stateMutability": "nonpayable",
      "type": "function"
    },
    {
      "inputs": [
        {
          "internalType": "uint256",
          "name": "tokenId",
          "type": "uint256"
        }
      ],
      "name": "getAuctionContract",
      "outputs": [
        {
          "internalType": "contract Auction",
          "name": "",
          "type": "address"
        }
      ],
      "stateMutability": "view",
      "type": "function"
    },
    {
      "inputs": [
        {
          "internalType": "uint256",
          "name": "tokenId",
          "type": "uint256"
        },
        {
          "internalType": "contract Auction",
          "name": "auctionAddress",
          "type": "address"
        }
      ],
      "name": "setAuctionContract",
      "outputs": [],
      "stateMutability": "nonpayable",
      "type": "function"
    },
    {
      "inputs": [
        {
          "internalType": "uint256",
          "name": "tokenId",
          "type": "uint256"
        }
      ],
      "name": "deleteAuctionContract",
      "outputs": [],
      "stateMutability": "nonpayable",
      "type": "function"
    },
    {
      "inputs": [
        {
          "internalType": "bytes4",
          "name": "interfaceId",
          "type": "bytes4"
        }
      ],
      "name": "supportsInterface",
      "outputs": [
        {
          "internalType": "bool",
          "name": "",
          "type": "bool"
        }
      ],
      "stateMutability": "view",
      "type": "function"
    },
    {
      "inputs": [
        {
          "internalType": "address",
          "name": "owner",
          "type": "address"
        }
      ],
      "name": "balanceOf",
      "outputs": [
        {
          "internalType": "uint256",
          "name": "",
          "type": "uint256"
        }
      ],
      "stateMutability": "view",
      "type": "function"
    },
    {
      "inputs": [
        {
          "internalType": "uint256",
          "name": "tokenId",
          "type": "uint256"
        }
      ],
      "name": "ownerOf",
      "outputs": [
        {
          "internalType": "address",
          "name": "",
          "type": "address"
        }
      ],
      "stateMutability": "view",
      "type": "function"
    },
    {
      "inputs": [],
      "name": "name",
      "outputs": [
        {
          "internalType": "string",
          "name": "",
          "type": "string"
        }
      ],
      "stateMutability": "view",
      "type": "function"
    },
    {
      "inputs": [],
      "name": "symbol",
      "outputs": [
        {
          "internalType": "string",
          "name": "",
          "type": "string"
        }
      ],
      "stateMutability": "view",
      "type": "function"
    },
    {
      "inputs": [
        {
          "internalType": "uint256",
          "name": "tokenId",
          "type": "uint256"
        }
      ],
      "name": "tokenURI",
      "outputs": [
        {
          "internalType": "string",
          "name": "",
          "type": "string"
        }
      ],
      "stateMutability": "view",
      "type": "function"
    },
    {
      "inputs": [
        {
          "internalType": "address",
          "name": "to",
          "type": "address"
        },
        {
          "internalType": "uint256",
          "name": "tokenId",
          "type": "uint256"
        }
      ],
      "name": "approve",
      "outputs": [],
      "stateMutability": "nonpayable",
      "type": "function"
    },
    {
      "inputs": [
        {
          "internalType": "uint256",
          "name": "tokenId",
          "type": "uint256"
        }
      ],
      "name": "getApproved",
      "outputs": [
        {
          "internalType": "address",
          "name": "",
          "type": "address"
        }
      ],
      "stateMutability": "view",
      "type": "function"
    },
    {
      "inputs": [
        {
          "internalType": "address",
          "name": "operator",
          "type": "address"
        },
        {
          "internalType": "bool",
          "name": "approved",
          "type": "bool"
        }
      ],
      "name": "setApprovalForAll",
      "outputs": [],
      "stateMutability": "nonpayable",
      "type": "function"
    },
    {
      "inputs": [
        {
          "internalType": "address",
          "name": "owner",
          "type": "address"
        },
        {
          "internalType": "address",
          "name": "operator",
          "type": "address"
        }
      ],
      "name": "isApprovedForAll",
      "outputs": [
        {
          "internalType": "bool",
          "name": "",
          "type": "bool"
        }
      ],
      "stateMutability": "view",
      "type": "function"
    },
    {
      "inputs": [
        {
          "internalType": "address",
          "name": "from",
          "type": "address"
        },
        {
          "internalType": "address",
          "name": "to",
          "type": "address"
        },
        {
          "internalType": "uint256",
          "name": "tokenId",
          "type": "uint256"
        }
      ],
      "name": "transferFrom",
      "outputs": [],
      "stateMutability": "nonpayable",
      "type": "function"
    },
    {
      "inputs": [
        {
          "internalType": "uint256",
          "name": "tokenId",
          "type": "uint256"
        },
        {
          "internalType": "address",
          "name": "to",
          "type": "address"
        }
      ],
      "name": "_spend",
      "outputs": [
        {
          "internalType": "bool",
          "name": "",
          "type": "bool"
        }
      ],
      "stateMutability": "nonpayable",
      "type": "function"
    },
    {
      "inputs": [
        {
          "internalType": "address",
          "name": "from",
          "type": "address"
        },
        {
          "internalType": "address",
          "name": "to",
          "type": "address"
        },
        {
          "internalType": "uint256",
          "name": "tokenId",
          "type": "uint256"
        }
      ],
      "name": "safeTransferFrom",
      "outputs": [],
      "stateMutability": "nonpayable",
      "type": "function"
    },
    {
      "inputs": [
        {
          "internalType": "address",
          "name": "from",
          "type": "address"
        },
        {
          "internalType": "address",
          "name": "to",
          "type": "address"
        },
        {
          "internalType": "uint256",
          "name": "tokenId",
          "type": "uint256"
        },
        {
          "internalType": "bytes",
          "name": "_data",
          "type": "bytes"
        }
      ],
      "name": "safeTransferFrom",
      "outputs": [],
      "stateMutability": "nonpayable",
      "type": "function"
    },
    {
      "inputs": [
        {
          "internalType": "address",
          "name": "to",
          "type": "address"
        },
        {
          "internalType": "uint256",
          "name": "tokenId",
          "type": "uint256"
        },
        {
          "internalType": "uint256",
          "name": "tokenAmount",
          "type": "uint256"
        }
      ],
      "name": "_mint",
      "outputs": [],
      "stateMutability": "nonpayable",
      "type": "function"
    }
  ],
  "bytecode": "0x60806040526003805460a060020a60ff021916740a00000000000000000000000000000000000000001790553480156200003857600080fd5b50604051620032ce380380620032ce8339810160408190526200005b91620001f2565b815162000070906001906020850190620000a1565b50805162000086906002906020840190620000a1565b505060038054600160a060020a0319163317905550620002de565b828054620000af9062000259565b90600052602060002090601f016020900481019282620000d357600085556200011e565b82601f10620000ee57805160ff19168380011785556200011e565b828001600101855582156200011e579182015b828111156200011e57825182559160200191906001019062000101565b506200012c92915062000130565b5090565b5b808211156200012c576000815560010162000131565b600082601f83011262000158578081fd5b81516001604060020a0380821115620001755762000175620002af565b6040516020601f8401601f19168201810183811183821017156200019d576200019d620002af565b6040528382528584018101871015620001b4578485fd5b8492505b83831015620001d75785830181015182840182015291820191620001b8565b83831115620001e857848185840101525b5095945050505050565b6000806040838503121562000205578182fd5b82516001604060020a03808211156200021c578384fd5b6200022a8683870162000147565b9350602085015191508082111562000240578283fd5b506200024f8582860162000147565b9150509250929050565b6002810460018216806200026e57607f821691505b60208210811415620002a9577f4e487b7100000000000000000000000000000000000000000000000000000000600052602260045260246000fd5b50919050565b7f4e487b7100000000000000000000000000000000000000000000000000000000600052604160045260246000fd5b612fe080620002ee6000396000f3fe60806040523480156200001157600080fd5b506004361062000189576000357c01000000000000000000000000000000000000000000000000000000009004806370a0823111620000f2578063b88d4fde11620000a4578063b88d4fde1462000337578063c87b56dd146200034e578063d48e638a1462000365578063e506dfbe146200037c578063e985e9c51462000393578063fc9b5fc814620003aa5762000189565b806370a0823114620002ab5780637776afa014620002d15780639564470e14620002e857806395d89b4114620002ff57806396e392d31462000309578063a22cb46514620003205762000189565b806321df0da7116200014c57806321df0da7146200022c57806323b872dd146200023657806342842e0e146200024d5780634fee13fc14620002645780636352211e146200027b5780636e8e78db14620002925762000189565b806301ffc9a7146200018e57806306fdde0314620001bd578063081812fc14620001d6578063095ea7b314620001fc578063144fa6d71462000215575b600080fd5b620001a56200019f36600462001593565b620003c1565b604051620001b49190620016ff565b60405180910390f35b620001c76200043f565b604051620001b491906200170a565b620001ed620001e7366004620015d1565b620004d9565b604051620001b4919062001694565b620002136200020d3660046200150f565b6200052d565b005b62000213620002263660046200135e565b620005db565b620001ed6200062d565b6200021362000247366004620013ba565b6200063c565b620002136200025e366004620013ba565b62000680565b620002136200027536600462001611565b6200069d565b620001ed6200028c366004620015d1565b6200080e565b6200029c62000849565b604051620001b4919062001cb2565b620002c2620002bc3660046200135e565b6200086a565b604051620001b4919062001c64565b62000213620002e23660046200153d565b620008b4565b620001a5620002f9366004620015ea565b62000a67565b620001c762000a7f565b620002136200031a366004620015d1565b62000a90565b6200021362000331366004620014dd565b62000aea565b6200021362000348366004620013ff565b62000bc6565b620001c76200035f366004620015d1565b62000c11565b620001ed62000376366004620015d1565b62000ca4565b620001ed6200038d366004620015d1565b62000cbf565b620001a5620003a43660046200137d565b62000cda565b62000213620003bb366004620015ea565b62000d08565b6000600160e060020a031982167f80ac58cd000000000000000000000000000000000000000000000000000000001480620004255750600160e060020a031982167f5b5e139f00000000000000000000000000000000000000000000000000000000145b80620004375750620004378262000d72565b90505b919050565b606060018054620004509062001d3b565b80601f01602080910402602001604051908101604052809291908181526020018280546200047e9062001d3b565b8015620004cf5780601f10620004a357610100808354040283529160200191620004cf565b820191906000526020600020905b815481529060010190602001808311620004b157829003601f168201915b5050505050905090565b6000620004e68262000da4565b620005115760405160e560020a62461bcd028152600401620005089062001a93565b60405180910390fd5b50600090815260076020526040902054600160a060020a031690565b60006200053a826200080e565b905080600160a060020a031683600160a060020a03161415620005745760405160e560020a62461bcd028152600401620005089062001baa565b80600160a060020a03166200058862000dc1565b600160a060020a03161480620005a85750620005a881620003a462000dc1565b620005ca5760405160e560020a62461bcd0281526004016200050890620018a4565b620005d6838362000dc5565b505050565b600354600160a060020a031633146200060b5760405160e560020a62461bcd0281526004016200050890620019f2565b60008054600160a060020a031916600160a060020a0392909216919091179055565b600054600160a060020a031690565b620006516200064a62000dc1565b8262000e35565b620006735760405160e560020a62461bcd028152600401620005089062001c07565b620005d683838362000eca565b620005d68383836040518060200160405280600081525062000bc6565b600082815260046020526040902054600160a060020a03163314620006d95760405160e560020a62461bcd0281526004016200050890620019bb565b6000828152600460205260408082205491549051309285928592600160a060020a0392831692909116908590620007109062001350565b6200072095949392919062001c84565b604051809103906000f0801580156200073d573d6000803e3d6000fd5b5060008481526009602052604090208054600160a060020a031916600160a060020a03928316179081905562000777913391168562000680565b6000805484825260096020526040918290205491517f746e8e70000000000000000000000000000000000000000000000000000000008152600160a060020a039182169263746e8e7092620007d59288929091169060040162001c6d565b600060405180830381600087803b158015620007f057600080fd5b505af115801562000805573d6000803e3d6000fd5b50505050505050565b600081815260046020526040812054600160a060020a031680620004375760405160e560020a62461bcd02815260040162000508906200195e565b60035474010000000000000000000000000000000000000000900460ff1681565b6000600160a060020a038216620008985760405160e560020a62461bcd028152600401620005089062001901565b50600160a060020a031660009081526006602052604090205490565b600160a060020a038316620008e05760405160e560020a62461bcd028152600401620005089062001a5e565b620008eb8262000da4565b156200090e5760405160e560020a62461bcd02815260040162000508906200177c565b600081116200091c57600080fd5b6000546040517f6aade288000000000000000000000000000000000000000000000000000000008152600160a060020a0390911690636aade28890620009699086908590600401620016e6565b602060405180830381600087803b1580156200098457600080fd5b505af115801562000999573d6000803e3d6000fd5b505050506040513d601f19601f82011682018060405250810190620009bf919062001574565b620009c957600080fd5b600160a060020a0383166000908152600660205260408120805460019290620009f490849062001cc0565b909155505060008281526004602090815260408083208054600160a060020a038816600160a060020a03199182168117909255600590935281842080549093168117909255518492907fddf252ad1be2c89b69c2b068fc378daa952ba7f163c4a11628f55a4df523b3ef908290a4505050565b600062000a7633838562000680565b50600192915050565b606060028054620004509062001d3b565b600081815260046020526040902054600160a060020a0316331462000acc5760405160e560020a62461bcd028152600401620005089062001a29565b60009081526009602052604090208054600160a060020a0319169055565b62000af462000dc1565b600160a060020a031682600160a060020a0316141562000b2b5760405160e560020a62461bcd028152600401620005089062001810565b806008600062000b3a62000dc1565b600160a060020a03908116825260208083019390935260409182016000908120918716808252919093529120805460ff19169215159290921790915562000b8062000dc1565b600160a060020a03167f17307eab39ab6107e8899845ad3d59bd9653f200f220920489ca2b5937696c318360405162000bba9190620016ff565b60405180910390a35050565b62000bdb62000bd462000dc1565b8362000e35565b62000bfd5760405160e560020a62461bcd028152600401620005089062001c07565b62000c0b848484846200100d565b50505050565b606062000c1e8262000da4565b62000c405760405160e560020a62461bcd028152600401620005089062001b4d565b600062000c4c6200104a565b9050600081511162000c6e576040518060200160405280600081525062000c9d565b8062000c7a846200105c565b60405160200162000c8d92919062001661565b6040516020818303038152906040525b9392505050565b600090815260056020526040902054600160a060020a031690565b600090815260096020526040902054600160a060020a031690565b600160a060020a03918216600090815260086020908152604080832093909416825291909152205460ff1690565b600082815260046020526040902054600160a060020a0316331462000d445760405160e560020a62461bcd0281526004016200050890620019bb565b6000918252600960205260409091208054600160a060020a031916600160a060020a03909216919091179055565b600160e060020a031981167f01ffc9a70000000000000000000000000000000000000000000000000000000014919050565b600090815260046020526040902054600160a060020a0316151590565b3390565b60008181526007602052604090208054600160a060020a031916600160a060020a038416908117909155819062000dfc826200080e565b600160a060020a03167f8c5be1e5ebec7d5bd14f71427d1e84f3dd0314c0f7b2291e5b200ac8c7c3b92560405160405180910390a45050565b600062000e428262000da4565b62000e645760405160e560020a62461bcd028152600401620005089062001847565b600062000e71836200080e565b905080600160a060020a031684600160a060020a0316148062000eaf575083600160a060020a031662000ea484620004d9565b600160a060020a0316145b8062000ec2575062000ec2818562000cda565b949350505050565b82600160a060020a031662000edf826200080e565b600160a060020a03161462000f0b5760405160e560020a62461bcd028152600401620005089062001af0565b600160a060020a03821662000f375760405160e560020a62461bcd0281526004016200050890620017b3565b62000f44838383620005d6565b62000f5160008262000dc5565b600160a060020a038316600090815260066020526040812080546001929062000f7c90849062001cf2565b9091555050600160a060020a038216600090815260066020526040812080546001929062000fac90849062001cc0565b90915550506000818152600460205260408082208054600160a060020a031916600160a060020a0386811691821790925591518493918716917fddf252ad1be2c89b69c2b068fc378daa952ba7f163c4a11628f55a4df523b3ef91a4505050565b6200101a84848462000eca565b6200102884848484620011e5565b62000c0b5760405160e560020a62461bcd02815260040162000508906200171f565b60408051602081019091526000815290565b6060816200109f575060408051808201909152600181527f300000000000000000000000000000000000000000000000000000000000000060208201526200043a565b8160005b8115620010cf5780620010b68162001d7b565b9150620010c79050600a8362001cdb565b9150620010a3565b60008167ffffffffffffffff811115620010fc5760e060020a634e487b7102600052604160045260246000fd5b6040519080825280601f01601f19166020018201604052801562001127576020820181803683370190505b5090505b841562000ec2576200113f60018362001cf2565b91506200114e600a8662001d99565b6200115b90603062001cc0565b7f010000000000000000000000000000000000000000000000000000000000000002818381518110620011a15760e060020a634e487b7102600052603260045260246000fd5b60200101907effffffffffffffffffffffffffffffffffffffffffffffffffffffffffffff1916908160001a905350620011dd600a8662001cdb565b94506200112b565b6000620011fb84600160a060020a03166200134a565b156200133f5783600160a060020a031663150b7a026200121a62000dc1565b8786866040518563ffffffff167c01000000000000000000000000000000000000000000000000000000000281526004016200125a9493929190620016a8565b602060405180830381600087803b1580156200127557600080fd5b505af1925050508015620012a8575060408051601f3d908101601f19168201909252620012a591810190620015b2565b60015b6200130b573d808015620012d9576040519150601f19603f3d011682016040523d82523d6000602084013e620012de565b606091505b508051620013035760405160e560020a62461bcd02815260040162000508906200171f565b805181602001fd5b600160e060020a0319167f150b7a020000000000000000000000000000000000000000000000000000000014905062000ec2565b506001949350505050565b3b151590565b6111708062001e3b83390190565b60006020828403121562001370578081fd5b813562000c9d8162001dfb565b6000806040838503121562001390578081fd5b82356200139d8162001dfb565b91506020830135620013af8162001dfb565b809150509250929050565b600080600060608486031215620013cf578081fd5b8335620013dc8162001dfb565b92506020840135620013ee8162001dfb565b929592945050506040919091013590565b6000806000806080858703121562001415578081fd5b8435620014228162001dfb565b9350602085810135620014358162001dfb565b935060408601359250606086013567ffffffffffffffff8082111562001459578384fd5b818801915088601f8301126200146d578384fd5b81358181111562001482576200148262001de2565b604051601f8201601f1916810185018381118282101715620014a857620014a862001de2565b60405281815283820185018b1015620014bf578586fd5b81858501868301379081019093019390935250939692955090935050565b60008060408385031215620014f0578182fd5b8235620014fd8162001dfb565b91506020830135620013af8162001e14565b6000806040838503121562001522578182fd5b82356200152f8162001dfb565b946020939093013593505050565b60008060006060848603121562001552578283fd5b83356200155f8162001dfb565b95602085013595506040909401359392505050565b60006020828403121562001586578081fd5b815162000c9d8162001e14565b600060208284031215620015a5578081fd5b813562000c9d8162001e23565b600060208284031215620015c4578081fd5b815162000c9d8162001e23565b600060208284031215620015e3578081fd5b5035919050565b60008060408385031215620015fd578182fd5b823591506020830135620013af8162001dfb565b6000806040838503121562001624578182fd5b50508035926020909101359150565b600081518084526200164d81602086016020860162001d0c565b601f01601f19169290920160200192915050565b600083516200167581846020880162001d0c565b8351908301906200168b81836020880162001d0c565b01949350505050565b600160a060020a0391909116815260200190565b6000600160a060020a03808716835280861660208401525083604083015260806060830152620016dc608083018462001633565b9695505050505050565b600160a060020a03929092168252602082015260400190565b901515815260200190565b60006020825262000c9d602083018462001633565b60208082526032908201527f4552433732313a207472616e7366657220746f206e6f6e20455243373231526560408201527f63656976657220696d706c656d656e7465720000000000000000000000000000606082015260800190565b6020808252601c908201527f4552433732313a20746f6b656e20616c7265616479206d696e74656400000000604082015260600190565b60208082526024908201527f4552433732313a207472616e7366657220746f20746865207a65726f2061646460408201527f7265737300000000000000000000000000000000000000000000000000000000606082015260800190565b60208082526019908201527f4552433732313a20617070726f766520746f2063616c6c657200000000000000604082015260600190565b6020808252602c908201527f4552433732313a206f70657261746f7220717565727920666f72206e6f6e657860408201527f697374656e7420746f6b656e0000000000000000000000000000000000000000606082015260800190565b60208082526038908201527f4552433732313a20617070726f76652063616c6c6572206973206e6f74206f7760408201527f6e6572206e6f7220617070726f76656420666f7220616c6c0000000000000000606082015260800190565b6020808252602a908201527f4552433732313a2062616c616e636520717565727920666f7220746865207a6560408201527f726f206164647265737300000000000000000000000000000000000000000000606082015260800190565b60208082526029908201527f4552433732313a206f776e657220717565727920666f72206e6f6e657869737460408201527f656e7420746f6b656e0000000000000000000000000000000000000000000000606082015260800190565b6020808252601b908201527f63616e206f6e6c792062652063616c6c6564206279204f776e65720000000000604082015260600190565b6020808252601f908201527f63616e2062652063616c6c656420627920436f6e7472616374204f776e657200604082015260600190565b6020808252818101527f63616e206f6e6c792063616c6c65642062792041756374696f6e2f4f776e6572604082015260600190565b6020808252818101527f4552433732313a206d696e7420746f20746865207a65726f2061646472657373604082015260600190565b6020808252602c908201527f4552433732313a20617070726f76656420717565727920666f72206e6f6e657860408201527f697374656e7420746f6b656e0000000000000000000000000000000000000000606082015260800190565b60208082526029908201527f4552433732313a207472616e73666572206f6620746f6b656e2074686174206960408201527f73206e6f74206f776e0000000000000000000000000000000000000000000000606082015260800190565b6020808252602f908201527f4552433732314d657461646174613a2055524920717565727920666f72206e6f60408201527f6e6578697374656e7420746f6b656e0000000000000000000000000000000000606082015260800190565b60208082526021908201527f4552433732313a20617070726f76616c20746f2063757272656e74206f776e6560408201527f7200000000000000000000000000000000000000000000000000000000000000606082015260800190565b60208082526031908201527f4552433732313a207472616e736665722063616c6c6572206973206e6f74206f60408201527f776e6572206e6f7220617070726f766564000000000000000000000000000000606082015260800190565b90815260200190565b918252600160a060020a0316602082015260400190565b9485526020850193909352600160a060020a0391821660408501528116606084015216608082015260a00190565b60ff91909116815260200190565b6000821982111562001cd65762001cd662001db0565b500190565b60008262001ced5762001ced62001dc9565b500490565b60008282101562001d075762001d0762001db0565b500390565b60005b8381101562001d2957818101518382015260200162001d0f565b8381111562000c0b5750506000910152565b60028104600182168062001d5057607f821691505b6020821081141562001d755760e060020a634e487b7102600052602260045260246000fd5b50919050565b600060001982141562001d925762001d9262001db0565b5060010190565b60008262001dab5762001dab62001dc9565b500690565b60e060020a634e487b7102600052601160045260246000fd5b60e060020a634e487b7102600052601260045260246000fd5b60e060020a634e487b7102600052604160045260246000fd5b600160a060020a038116811462001e1157600080fd5b50565b801515811462001e1157600080fd5b600160e060020a03198116811462001e1157600080fdfe608060405234801561001057600080fd5b506040516200117038038062001170833981016040819052610031916100d0565b600485905560008054600160a060020a031916600160a060020a03851617905561005b8442610130565b600190815560028054600160a060020a0319908116600160a060020a039586161790915560038054821693909416929092179092556009805492830181556000527f6e1540171b6c0c960b71a7020d9f60077f6af931a8bbf590da0223dacf75c7af9091018054909116905550610185915050565b600080600080600060a086880312156100e7578081fd5b855194506020860151935060408601516101008161016d565b60608701519093506101118161016d565b60808701519092506101228161016d565b809150509295509295909350565b60008219821115610168577f4e487b710000000000000000000000000000000000000000000000000000000081526011600452602481fd5b500190565b600160a060020a038116811461018257600080fd5b50565b610fdb80620001956000396000f3fe608060405260043610610110576000357c010000000000000000000000000000000000000000000000000000000090048063454a2ab3116100a757806388a6360e1161007657806388a6360e1461024d57806391f9015714610262578063d57bde7914610277578063f56e9c661461028c57610110565b8063454a2ab3146101f85780634b449cba1461020b57806370bda8941461018f57806383ffda3b1461022d57610110565b806321df0da7116100e357806321df0da7146101a45780632a24f46c146101c657806338af3eed146101ce5780633ccfd60b146101e357610110565b806312fa6feb14610115578063144fa6d714610140578063150b7a02146101625780631e36d7551461018f575b600080fd5b34801561012157600080fd5b5061012a6102ac565b6040516101379190610d27565b60405180910390f35b34801561014c57600080fd5b5061016061015b366004610bd5565b6102b5565b005b34801561016e57600080fd5b5061018261017d366004610bf6565b6102e4565b6040516101379190610d32565b34801561019b57600080fd5b5061016061030d565b3480156101b057600080fd5b506101b96103b3565b6040516101379190610cfa565b6101606103c2565b3480156101da57600080fd5b506101b9610812565b3480156101ef57600080fd5b5061012a610821565b610160610206366004610ce2565b610831565b34801561021757600080fd5b50610220610a46565b6040516101379190610ebe565b34801561023957600080fd5b50610220610248366004610bd5565b610a4c565b34801561025957600080fd5b506101b9610a6b565b34801561026e57600080fd5b506101b9610a7a565b34801561028357600080fd5b50610220610a89565b34801561029857600080fd5b506101606102a7366004610bd5565b610a8f565b600a5460ff1681565b6002805473ffffffffffffffffffffffffffffffffffffffff1916600160a060020a0392909216919091179055565b7f150b7a0200000000000000000000000000000000000000000000000000000000949350505050565b600354600480546000546040517f9564470e000000000000000000000000000000000000000000000000000000008152600160a060020a0394851694639564470e9461035e94939091169101610ec7565b602060405180830381600087803b15801561037857600080fd5b505af115801561038c573d6000803e3d6000fd5b505050506040513d601f19601f820116820180604052508101906103b09190610cc2565b50565b600254600160a060020a031690565b600054600160a060020a031633146103f85760405160e560020a62461bcd0281526004016103ef90610e61565b60405180910390fd5b60015442101561041d5760405160e560020a62461bcd0281526004016103ef90610dcd565b600a5460ff16156104435760405160e560020a62461bcd0281526004016103ef90610e04565b600a805460ff191660011790556004546005546006546040517fd2aa34a4fdbbc6dff6a3e56f46e0f3ae2a31d7785ff3487aa5c95c642acea50193610495939092600160a060020a0390911691610ede565b60405180910390a1600554600160a060020a03161561067257600354600480546005546040517f9564470e000000000000000000000000000000000000000000000000000000008152600160a060020a0394851694639564470e946104ff94939091169101610ec7565b602060405180830381600087803b15801561051957600080fd5b505af115801561052d573d6000803e3d6000fd5b505050506040513d601f19601f820116820180604052508101906105519190610cc2565b506002546000546006546040517fa9059cbb000000000000000000000000000000000000000000000000000000008152600160a060020a039384169363a9059cbb936105a293911691600401610d0e565b602060405180830381600087803b1580156105bc57600080fd5b505af11580156105d0573d6000803e3d6000fd5b505050506040513d601f19601f820116820180604052508101906105f49190610cc2565b5060015b60095481101561066c576106596009828154811061063f577f4e487b7100000000000000000000000000000000000000000000000000000000600052603260045260246000fd5b600091825260209091200154600160a060020a0316610abe565b508061066481610f2c565b9150506105f8565b50610717565b600354600480546000546040517f9564470e000000000000000000000000000000000000000000000000000000008152600160a060020a0394851694639564470e946106c394939091169101610ec7565b602060405180830381600087803b1580156106dd57600080fd5b505af11580156106f1573d6000803e3d6000fd5b505050506040513d601f19601f820116820180604052508101906107159190610cc2565b505b600354600480546040517f96e392d3000000000000000000000000000000000000000000000000000000008152600160a060020a03909316926396e392d392610761929101610ebe565b600060405180830381600087803b15801561077b57600080fd5b505af115801561078f573d6000803e3d6000fd5b5050600254600480546040517f77df84a4000000000000000000000000000000000000000000000000000000008152600160a060020a0390931694506377df84a493506107de92909101610ebe565b600060405180830381600087803b1580156107f857600080fd5b505af115801561080c573d6000803e3d6000fd5b50505050565b600054600160a060020a031681565b600061082c33610abe565b905090565b6001544211156108565760405160e560020a62461bcd0281526004016103ef90610d5f565b600654811161087a5760405160e560020a62461bcd0281526004016103ef90610d96565b600254600480546040517f01f07a3b000000000000000000000000000000000000000000000000000000008152600160a060020a03909316926301f07a3b926108c892913391879101610ede565b602060405180830381600087803b1580156108e257600080fd5b505af11580156108f6573d6000803e3d6000fd5b505050506040513d601f19601f8201168201806040525081019061091a9190610cc2565b61092357600080fd5b6006541561095e57600654600554600160a060020a031660009081526007602052604081208054909190610958908490610efd565b90915550505b6005805473ffffffffffffffffffffffffffffffffffffffff1916339081179091556006829055600090815260086020526040902054610a0657600980546001818101835560008390527f6e1540171b6c0c960b71a7020d9f60077f6af931a8bbf590da0223dacf75c7af909101805473ffffffffffffffffffffffffffffffffffffffff19163317905590546109f59190610f15565b336000908152600860205260409020555b7fda0a18da71d8ebd145966339a728fc0d8ccc07c22870d561890d823c515dda6b6004543383604051610a3b93929190610ede565b60405180910390a150565b60015481565b600160a060020a0381166000908152600760205260409020545b919050565b600354600160a060020a031690565b600554600160a060020a031681565b60065481565b6003805473ffffffffffffffffffffffffffffffffffffffff1916600160a060020a0392909216919091179055565b600160a060020a0381166000908152600760205260408120548015610bb557600160a060020a038084166000908152600760205260408082209190915560025490517fa9059cbb00000000000000000000000000000000000000000000000000000000815291169063a9059cbb90610b3c9086908590600401610d0e565b602060405180830381600087803b158015610b5657600080fd5b505af1158015610b6a573d6000803e3d6000fd5b505050506040513d601f19601f82011682018060405250810190610b8e9190610cc2565b610bb557600160a060020a0383166000908152600760205260408120919091559050610a66565b50600192915050565b8035600160a060020a0381168114610a6657600080fd5b600060208284031215610be6578081fd5b610bef82610bbe565b9392505050565b60008060008060808587031215610c0b578283fd5b610c1485610bbe565b93506020610c23818701610bbe565b935060408601359250606086013567ffffffffffffffff80821115610c46578384fd5b818801915088601f830112610c59578384fd5b813581811115610c6b57610c6b610f76565b604051601f8201601f1916810185018381118282101715610c8e57610c8e610f76565b60405281815283820185018b1015610ca4578586fd5b81858501868301379081019093019390935250939692955090935050565b600060208284031215610cd3578081fd5b81518015158114610bef578182fd5b600060208284031215610cf3578081fd5b5035919050565b600160a060020a0391909116815260200190565b600160a060020a03929092168252602082015260400190565b901515815260200190565b7fffffffff0000000000000000000000000000000000000000000000000000000091909116815260200190565b60208082526016908201527f41756374696f6e20616c726561647920656e6465642e00000000000000000000604082015260600190565b6020808252601e908201527f546865726520616c7265616479206973206120686967686572206269642e0000604082015260600190565b60208082526016908201527f41756374696f6e206e6f742079657420656e6465642e00000000000000000000604082015260600190565b60208082526023908201527f61756374696f6e456e642068617320616c7265616479206265656e2063616c6c60408201527f65642e0000000000000000000000000000000000000000000000000000000000606082015260800190565b6020808252602a908201527f6f6e6c79206f776e6572206f6620746f6b656e2063616e2063616c6c2074686960408201527f732066756e6374696f6e00000000000000000000000000000000000000000000606082015260800190565b90815260200190565b918252600160a060020a0316602082015260400190565b928352600160a060020a03919091166020830152604082015260600190565b60008219821115610f1057610f10610f47565b500190565b600082821015610f2757610f27610f47565b500390565b6000600019821415610f4057610f40610f47565b5060010190565b7f4e487b7100000000000000000000000000000000000000000000000000000000600052601160045260246000fd5b7f4e487b7100000000000000000000000000000000000000000000000000000000600052604160045260246000fdfea26469706673582212202af89f3ddb55643f01f7dc0f46a5a3a1311e016ce3dbdbb6d7c9c99103cc1a3c64736f6c63430008000033a264697066735822122056f2428fb8ee1d954743a877435a4322d849e8efc2cd7797d0c1df2a9b5eafcf64736f6c63430008000033",
  "immutableReferences": {},
  "source": "// SPDX-License-Identifier: MIT\n\npragma solidity ^0.8.0;\n\nimport \"./IERC721.sol\";\nimport \"./IERC721Receiver.sol\";\nimport \"./extensions/IERC721Metadata.sol\";\nimport \"../utils/Address.sol\";\nimport \"../utils/Context.sol\";\nimport \"../utils/Strings.sol\";\nimport \"../utils/introspection/ERC165.sol\";\nimport \"../ERC20/ERC20.sol\";\nimport \"../Auction.sol\";\n/**\n * @dev Implementation of https://eips.ethereum.org/EIPS/eip-721[ERC721] Non-Fungible Token Standard, including\n * the Metadata extension, but not including the Enumerable extension, which is available separately as\n * {ERC721Enumerable}.\n */\n\ncontract ERC721 is Context, ERC165, IERC721, IERC721Metadata {\n    using Address for address;\n    using Strings for uint256;\n\n    //ERC20 Token\n    ERC20 private _token; // getters and setters\n\n    // Token name\n    string private _name;\n\n    // Token symbol\n    string private _symbol;\n    address private ownership;\n    uint8 public _creatorComission = 10;\n    // Mapping from token ID to owner address\n    mapping(uint256 => address) private _owners;\n\n    // Mapping from token ID to creator address\n    mapping(uint256 => address) internal _creator;\n    // Mapping owner address to token count\n    mapping(address => uint256) private _balances;\n\n    // Mapping from token ID to approved address\n    mapping(uint256 => address) private _tokenApprovals;\n\n    // Mapping from owner to operator approvals\n    mapping(address => mapping(address => bool)) private _operatorApprovals;\n\n    mapping(uint256 => Auction) private _auctionContracts;\n\n    // Auction public auction;\n    // Events that will be emitted on changes.\n\n    /**\n     * @dev Initializes the contract by setting a `name` and a `symbol` to the token collection.\n     */\n    constructor(string memory name_, string memory symbol_) {\n        _name = name_;\n        _symbol = symbol_;\n        ownership = msg.sender;\n    }\n\n    function getCreator(uint256 tokenId) public view returns (address){\n        return _creator[tokenId];\n    }\n    /**\n     * Getter and Setter of _token (ERC20)\n     **/\n    function getToken() public view returns (ERC20){\n        return _token;\n    }\n\n    //  ERC20 private _token; // getters and setters\n    function setToken(address tokenAddress) public {\n        require(msg.sender == ownership, \"can be called by Contract Owner\");\n        _token = ERC20(tokenAddress);\n    }\n\n    function startAuction(uint256 tokenId, uint time) public {\n        require(msg.sender == _owners[tokenId], 'can only be called by Owner');\n        address nftaddress = address(this);\n        _auctionContracts[tokenId] = new Auction(tokenId, time, _owners[tokenId], _token, nftaddress);\n        safeTransferFrom(msg.sender, address(_auctionContracts[tokenId]), tokenId);\n        _token.setAuctionsAddress(tokenId, address(_auctionContracts[tokenId]));\n    }\n\n    function getAuctionContract(uint256 tokenId) public view returns (Auction){\n        return _auctionContracts[tokenId];\n    }\n\n    function setAuctionContract(uint256 tokenId, Auction auctionAddress) public {\n        require(msg.sender == _owners[tokenId], 'can only be called by Owner');\n        _auctionContracts[tokenId] = auctionAddress;\n    }\n\n    function deleteAuctionContract(uint256 tokenId) public {\n        require(msg.sender == _owners[tokenId], \"can only called by Auction/Owner\");\n        delete _auctionContracts[tokenId];\n    }\n    /**\n     * @dev See {IERC165-supportsInterface}.\n     */\n    function supportsInterface(bytes4 interfaceId) public view virtual override(ERC165, IERC165) returns (bool) {\n        return\n        interfaceId == type(IERC721).interfaceId ||\n        interfaceId == type(IERC721Metadata).interfaceId ||\n        super.supportsInterface(interfaceId);\n    }\n\n    /**\n     * @dev See {IERC721-balanceOf}.\n     */\n    function balanceOf(address owner) public view virtual override returns (uint256) {\n        require(owner != address(0), \"ERC721: balance query for the zero address\");\n        return _balances[owner];\n    }\n\n\n    /**\n     * @dev See {IERC721-ownerOf}.\n     */\n    function ownerOf(uint256 tokenId) public view virtual override returns (address) {\n        address owner = _owners[tokenId];\n        require(owner != address(0), \"ERC721: owner query for nonexistent token\");\n        return owner;\n    }\n\n    /**\n     * @dev See {IERC721Metadata-name}.\n     */\n    function name() public view virtual override returns (string memory) {\n        return _name;\n    }\n\n    /**\n     * @dev See {IERC721Metadata-symbol}.\n     */\n    function symbol() public view virtual override returns (string memory) {\n        return _symbol;\n    }\n\n    /**\n     * @dev See {IERC721Metadata-tokenURI}.\n     */\n    function tokenURI(uint256 tokenId) public view virtual override returns (string memory) {\n        require(_exists(tokenId), \"ERC721Metadata: URI query for nonexistent token\");\n\n        string memory baseURI = _baseURI();\n        return bytes(baseURI).length > 0 ? string(abi.encodePacked(baseURI, tokenId.toString())) : \"\";\n    }\n\n    /**\n     * @dev Base URI for computing {tokenURI}. If set, the resulting URI for each\n     * token will be the concatenation of the `baseURI` and the `tokenId`. Empty\n     * by default, can be overriden in child contracts.\n     */\n    function _baseURI() internal view virtual returns (string memory) {\n        return \"\";\n    }\n\n    /**\n     * @dev See {IERC721-approve}.\n     */\n    function approve(address to, uint256 tokenId) public virtual override {\n        address owner = ERC721.ownerOf(tokenId);\n        require(to != owner, \"ERC721: approval to current owner\");\n\n        require(\n            _msgSender() == owner || isApprovedForAll(owner, _msgSender()),\n            \"ERC721: approve caller is not owner nor approved for all\"\n        );\n\n        _approve(to, tokenId);\n    }\n\n    /**\n     * @dev See {IERC721-getApproved}.\n     */\n    function getApproved(uint256 tokenId) public view virtual override returns (address) {\n        require(_exists(tokenId), \"ERC721: approved query for nonexistent token\");\n\n        return _tokenApprovals[tokenId];\n    }\n\n    /**\n     * @dev See {IERC721-setApprovalForAll}.\n     */\n    function setApprovalForAll(address operator, bool approved) public virtual override {\n        require(operator != _msgSender(), \"ERC721: approve to caller\");\n\n        _operatorApprovals[_msgSender()][operator] = approved;\n        emit ApprovalForAll(_msgSender(), operator, approved);\n    }\n\n    /**\n     * @dev See {IERC721-isApprovedForAll}.\n     */\n    function isApprovedForAll(address owner, address operator) public view virtual override returns (bool) {\n        return _operatorApprovals[owner][operator];\n    }\n\n    /**\n     * @dev See {IERC721-transferFrom}.\n     */\n    function transferFrom(\n        address from,\n        address to,\n        uint256 tokenId\n    ) public virtual override {\n        //solhint-disable-next-line max-line-length\n        require(_isApprovedOrOwner(_msgSender(), tokenId), \"ERC721: transfer caller is not owner nor approved\");\n\n        _transfer(from, to, tokenId);\n    }\n\n    /**\n     * @dev See {IERC721-safeTransferFrom}.\n     */\n\n    function _spend(uint256 tokenId, address to) public virtual returns (bool) {\n        safeTransferFrom(msg.sender, to, tokenId);\n        return true;\n    }\n\n    function safeTransferFrom(\n        address from,\n        address to,\n        uint256 tokenId\n    ) public virtual override {\n        safeTransferFrom(from, to, tokenId, \"\");\n    }\n\n    /**\n     * @dev See {IERC721-safeTransferFrom}.\n     */\n    function safeTransferFrom(\n        address from,\n        address to,\n        uint256 tokenId,\n        bytes memory _data\n    ) public virtual override {\n        require(_isApprovedOrOwner(_msgSender(), tokenId), \"ERC721: transfer caller is not owner nor approved\");\n        _safeTransfer(from, to, tokenId, _data);\n    }\n\n    /**\n     * @dev Safely transfers `tokenId` token from `from` to `to`, checking first that contract recipients\n     * are aware of the ERC721 protocol to prevent tokens from being forever locked.\n     *\n     * `_data` is additional data, it has no specified format and it is sent in call to `to`.\n     *\n     * This internal function is equivalent to {safeTransferFrom}, and can be used to e.g.\n     * implement alternative mechanisms to perform token transfer, such as signature-based.\n     *\n     * Requirements:\n     *\n     * - `from` cannot be the zero address.\n     * - `to` cannot be the zero address.\n     * - `tokenId` token must exist and be owned by `from`.\n     * - If `to` refers to a smart contract, it must implement {IERC721Receiver-onERC721Received}, which is called upon a safe transfer.\n     *\n     * Emits a {Transfer} event.\n     */\n    function _safeTransfer(\n        address from,\n        address to,\n        uint256 tokenId,\n        bytes memory _data\n    ) internal virtual {\n        _transfer(from, to, tokenId);\n        require(_checkOnERC721Received(from, to, tokenId, _data), \"ERC721: transfer to non ERC721Receiver implementer\");\n    }\n\n\n\n    /**\n     * @dev Returns whether `tokenId` exists.\n     *\n     * Tokens can be managed by their owner or approved accounts via {approve} or {setApprovalForAll}.\n     *\n     * Tokens start existing when they are minted (`_mint`),\n     * and stop existing when they are burned (`_burn`).\n     */\n    function _exists(uint256 tokenId) internal view virtual returns (bool) {\n        return _owners[tokenId] != address(0);\n    }\n\n    /**\n     * @dev Returns whether `spender` is allowed to manage `tokenId`.\n     *\n     * Requirements:\n     *\n     * - `tokenId` must exist.\n     */\n    function _isApprovedOrOwner(address spender, uint256 tokenId) internal view virtual returns (bool) {\n        require(_exists(tokenId), \"ERC721: operator query for nonexistent token\");\n        address owner = ERC721.ownerOf(tokenId);\n        return (spender == owner || getApproved(tokenId) == spender || isApprovedForAll(owner, spender));\n    }\n\n    /**\n     * @dev Safely mints `tokenId` and transfers it to `to`.\n     *\n     * Requirements:\n     *\n     * - `tokenId` must not exist.\n     * - If `to` refers to a smart contract, it must implement {IERC721Receiver-onERC721Received}, which is called upon a safe transfer.\n     *\n     * Emits a {Transfer} event.\n     */\n    function _safeMint(address to, uint256 tokenId, uint256 tokenAmount) internal virtual {\n        _safeMint(to, tokenId, tokenAmount, \"\");\n    }\n\n    /**\n     * @dev Same as {xref-ERC721-_safeMint-address-uint256-}[`_safeMint`], with an additional `data` parameter which is\n     * forwarded in {IERC721Receiver-onERC721Received} to contract recipients.\n     */\n    function _safeMint(\n        address to,\n        uint256 tokenId,\n        uint256 tokenAmount,\n        bytes memory _data\n    ) internal virtual {\n        _mint(to, tokenId, tokenAmount);\n        require(\n            _checkOnERC721Received(address(0), to, tokenId, _data),\n            \"ERC721: transfer to non ERC721Receiver implementer\"\n        );\n    }\n\n    /**\n     * @dev Mints `tokenId` and transfers it to `to`.\n     *\n     * WARNING: Usage of this method is discouraged, use {_safeMint} whenever possible\n     *\n     * Requirements:\n     *\n     * - `tokenId` must not exist.\n     * - `to` cannot be the zero address.\n     *\n     * Emits a {Transfer} event.\n     */\n    function _mint(address to, uint256 tokenId, uint256 tokenAmount) public virtual {\n        require(to != address(0), \"ERC721: mint to the zero address\");\n        require(!_exists(tokenId), \"ERC721: token already minted\");\n        require(tokenAmount > 0);\n\n        require(_token.spendFrom(to, tokenAmount));\n\n        _balances[to] += 1;\n        _owners[tokenId] = to;\n        _creator[tokenId] = to;\n        emit Transfer(address(0), to, tokenId);\n    }\n\n    /**\n     * @dev Destroys `tokenId`.\n     * The approval is cleared when the token is burned.\n     *\n     * Requirements:\n     *\n     * - `tokenId` must exist.\n     *\n     * Emits a {Transfer} event.\n     */\n    function _burn(uint256 tokenId) internal virtual {\n        address owner = ERC721.ownerOf(tokenId);\n\n        // Clear approvals\n        _approve(address(0), tokenId);\n\n        _balances[owner] -= 1;\n        delete _owners[tokenId];\n\n        emit Transfer(owner, address(0), tokenId);\n    }\n\n    /**\n     * @dev Transfers `tokenId` from `from` to `to`.\n     *  As opposed to {transferFrom}, this imposes no restrictions on msg.sender.\n     *\n     * Requirements:\n     *\n     * - `to` cannot be the zero address.\n     * - `tokenId` token must be owned by `from`.\n     *\n     * Emits a {Transfer} event.\n     */\n    function _transfer(\n        address from,\n        address to,\n        uint256 tokenId\n    ) internal virtual {\n        require(ERC721.ownerOf(tokenId) == from, \"ERC721: transfer of token that is not own\");\n        require(to != address(0), \"ERC721: transfer to the zero address\");\n\n        _beforeTokenTransfer(from, to, tokenId);\n\n        // Clear approvals from the previous owner\n        _approve(address(0), tokenId);\n\n        _balances[from] -= 1;\n        _balances[to] += 1;\n        _owners[tokenId] = to;\n\n        emit Transfer(from, to, tokenId);\n    }\n\n    /**\n     * @dev Approve `to` to operate on `tokenId`\n     *\n     * Emits a {Approval} event.\n     */\n    function _approve(address to, uint256 tokenId) internal virtual {\n        _tokenApprovals[tokenId] = to;\n        emit Approval(ERC721.ownerOf(tokenId), to, tokenId);\n    }\n\n    /**\n     * @dev Internal function to invoke {IERC721Receiver-onERC721Received} on a target address.\n     * The call is not executed if the target address is not a contract.\n     *\n     * @param from address representing the previous owner of the given token ID\n     * @param to target address that will receive the tokens\n     * @param tokenId uint256 ID of the token to be transferred\n     * @param _data bytes optional data to send along with the call\n     * @return bool whether the call correctly returned the expected magic value\n     */\n    function _checkOnERC721Received(\n        address from,\n        address to,\n        uint256 tokenId,\n        bytes memory _data\n    ) private returns (bool) {\n        if (to.isContract()) {\n            try IERC721Receiver(to).onERC721Received(_msgSender(), from, tokenId, _data) returns (bytes4 retval) {\n                return retval == IERC721Receiver(to).onERC721Received.selector;\n            } catch (bytes memory reason) {\n                if (reason.length == 0) {\n                    revert(\"ERC721: transfer to non ERC721Receiver implementer\");\n                } else {\n                    assembly {\n                        revert(add(32, reason), mload(reason))\n                    }\n                }\n            }\n        } else {\n            return true;\n        }\n    }\n\n    /**\n     * @dev Hook that is called before any token transfer. This includes minting\n     * and burning.\n     *\n     * Calling conditions:\n     *\n     * - When `from` and `to` are both non-zero, ``from``'s `tokenId` will be\n     * transferred to `to`.\n     * - When `from` is zero, `tokenId` will be minted for `to`.\n     * - When `to` is zero, ``from``'s `tokenId` will be burned.\n     * - `from` and `to` are never both zero.\n     *\n     * To learn more about hooks, head to xref:ROOT:extending-contracts.adoc#using-hooks[Using Hooks].\n     */\n    function _beforeTokenTransfer(\n        address from,\n        address to,\n        uint256 tokenId\n    ) internal virtual {}\n}",
  "sourcePath": "/Volumes/Transcend/Projects/DappsLab/Lottery-Smart-Contract/contracts/customERC20ERC721/ERC721/ERC721.sol",
  "compiler": {
    "name": "solc",
    "version": "0.8.0+commit.c7dfd78e.Emscripten.clang"
  },
  "schemaVersion": "3.4.2",
  "updatedAt": "2021-07-27T17:00:56.533Z",
  "devdoc": {
    "details": "Implementation of https://eips.ethereum.org/EIPS/eip-721[ERC721] Non-Fungible Token Standard, including the Metadata extension, but not including the Enumerable extension, which is available separately as {ERC721Enumerable}.",
    "kind": "dev",
    "methods": {
      "_mint(address,uint256,uint256)": {
        "details": "Mints `tokenId` and transfers it to `to`. WARNING: Usage of this method is discouraged, use {_safeMint} whenever possible Requirements: - `tokenId` must not exist. - `to` cannot be the zero address. Emits a {Transfer} event."
      },
      "_spend(uint256,address)": {
        "details": "See {IERC721-safeTransferFrom}."
      },
      "approve(address,uint256)": {
        "details": "See {IERC721-approve}."
      },
      "balanceOf(address)": {
        "details": "See {IERC721-balanceOf}."
      },
      "constructor": {
        "details": "Initializes the contract by setting a `name` and a `symbol` to the token collection."
      },
      "getApproved(uint256)": {
        "details": "See {IERC721-getApproved}."
      },
      "isApprovedForAll(address,address)": {
        "details": "See {IERC721-isApprovedForAll}."
      },
      "name()": {
        "details": "See {IERC721Metadata-name}."
      },
      "ownerOf(uint256)": {
        "details": "See {IERC721-ownerOf}."
      },
      "safeTransferFrom(address,address,uint256)": {
        "details": "Safely transfers `tokenId` token from `from` to `to`, checking first that contract recipients are aware of the ERC721 protocol to prevent tokens from being forever locked. Requirements: - `from` cannot be the zero address. - `to` cannot be the zero address. - `tokenId` token must exist and be owned by `from`. - If the caller is not `from`, it must be have been allowed to move this token by either {approve} or {setApprovalForAll}. - If `to` refers to a smart contract, it must implement {IERC721Receiver-onERC721Received}, which is called upon a safe transfer. Emits a {Transfer} event."
      },
      "safeTransferFrom(address,address,uint256,bytes)": {
        "details": "See {IERC721-safeTransferFrom}."
      },
      "setApprovalForAll(address,bool)": {
        "details": "See {IERC721-setApprovalForAll}."
      },
      "supportsInterface(bytes4)": {
        "details": "See {IERC165-supportsInterface}."
      },
      "symbol()": {
        "details": "See {IERC721Metadata-symbol}."
      },
      "tokenURI(uint256)": {
        "details": "See {IERC721Metadata-tokenURI}."
      },
      "transferFrom(address,address,uint256)": {
        "details": "See {IERC721-transferFrom}."
      }
    },
    "version": 1
  },
  "userdoc": {
    "kind": "user",
    "methods": {
      "getToken()": {
        "notice": "Getter and Setter of _token (ERC20)*"
      }
    },
    "version": 1
  }
}