{
  "contractName": "ERC721PresetMinterPauserAutoId",
  "abi": [
    {
      "inputs": [
        {
          "internalType": "string",
          "name": "name",
          "type": "string"
        },
        {
          "internalType": "string",
          "name": "symbol",
          "type": "string"
        },
        {
          "internalType": "string",
          "name": "baseTokenURI",
          "type": "string"
        }
      ],
      "stateMutability": "nonpayable",
      "type": "constructor"
    },
    {
      "anonymous": false,
      "inputs": [
        {
          "indexed": true,
          "internalType": "address",
          "name": "owner",
          "type": "address"
        },
        {
          "indexed": true,
          "internalType": "address",
          "name": "approved",
          "type": "address"
        },
        {
          "indexed": true,
          "internalType": "uint256",
          "name": "tokenId",
          "type": "uint256"
        }
      ],
      "name": "Approval",
      "type": "event"
    },
    {
      "anonymous": false,
      "inputs": [
        {
          "indexed": true,
          "internalType": "address",
          "name": "owner",
          "type": "address"
        },
        {
          "indexed": true,
          "internalType": "address",
          "name": "operator",
          "type": "address"
        },
        {
          "indexed": false,
          "internalType": "bool",
          "name": "approved",
          "type": "bool"
        }
      ],
      "name": "ApprovalForAll",
      "type": "event"
    },
    {
      "anonymous": false,
      "inputs": [
        {
          "indexed": false,
          "internalType": "address",
          "name": "account",
          "type": "address"
        }
      ],
      "name": "Paused",
      "type": "event"
    },
    {
      "anonymous": false,
      "inputs": [
        {
          "indexed": true,
          "internalType": "bytes32",
          "name": "role",
          "type": "bytes32"
        },
        {
          "indexed": true,
          "internalType": "bytes32",
          "name": "previousAdminRole",
          "type": "bytes32"
        },
        {
          "indexed": true,
          "internalType": "bytes32",
          "name": "newAdminRole",
          "type": "bytes32"
        }
      ],
      "name": "RoleAdminChanged",
      "type": "event"
    },
    {
      "anonymous": false,
      "inputs": [
        {
          "indexed": true,
          "internalType": "bytes32",
          "name": "role",
          "type": "bytes32"
        },
        {
          "indexed": true,
          "internalType": "address",
          "name": "account",
          "type": "address"
        },
        {
          "indexed": true,
          "internalType": "address",
          "name": "sender",
          "type": "address"
        }
      ],
      "name": "RoleGranted",
      "type": "event"
    },
    {
      "anonymous": false,
      "inputs": [
        {
          "indexed": true,
          "internalType": "bytes32",
          "name": "role",
          "type": "bytes32"
        },
        {
          "indexed": true,
          "internalType": "address",
          "name": "account",
          "type": "address"
        },
        {
          "indexed": true,
          "internalType": "address",
          "name": "sender",
          "type": "address"
        }
      ],
      "name": "RoleRevoked",
      "type": "event"
    },
    {
      "anonymous": false,
      "inputs": [
        {
          "indexed": true,
          "internalType": "address",
          "name": "from",
          "type": "address"
        },
        {
          "indexed": true,
          "internalType": "address",
          "name": "to",
          "type": "address"
        },
        {
          "indexed": true,
          "internalType": "uint256",
          "name": "tokenId",
          "type": "uint256"
        }
      ],
      "name": "Transfer",
      "type": "event"
    },
    {
      "anonymous": false,
      "inputs": [
        {
          "indexed": false,
          "internalType": "address",
          "name": "account",
          "type": "address"
        }
      ],
      "name": "Unpaused",
      "type": "event"
    },
    {
      "inputs": [],
      "name": "DEFAULT_ADMIN_ROLE",
      "outputs": [
        {
          "internalType": "bytes32",
          "name": "",
          "type": "bytes32"
        }
      ],
      "stateMutability": "view",
      "type": "function"
    },
    {
      "inputs": [],
      "name": "MINTER_ROLE",
      "outputs": [
        {
          "internalType": "bytes32",
          "name": "",
          "type": "bytes32"
        }
      ],
      "stateMutability": "view",
      "type": "function"
    },
    {
      "inputs": [],
      "name": "PAUSER_ROLE",
      "outputs": [
        {
          "internalType": "bytes32",
          "name": "",
          "type": "bytes32"
        }
      ],
      "stateMutability": "view",
      "type": "function"
    },
    {
      "inputs": [
        {
          "internalType": "uint256",
          "name": "",
          "type": "uint256"
        }
      ],
      "name": "_creator",
      "outputs": [
        {
          "internalType": "address",
          "name": "",
          "type": "address"
        }
      ],
      "stateMutability": "view",
      "type": "function"
    },
    {
      "inputs": [
        {
          "internalType": "uint256",
          "name": "",
          "type": "uint256"
        }
      ],
      "name": "_owners",
      "outputs": [
        {
          "internalType": "address",
          "name": "",
          "type": "address"
        }
      ],
      "stateMutability": "view",
      "type": "function"
    },
    {
      "inputs": [
        {
          "internalType": "uint256",
          "name": "",
          "type": "uint256"
        }
      ],
      "name": "_sellPrice",
      "outputs": [
        {
          "internalType": "uint256",
          "name": "",
          "type": "uint256"
        }
      ],
      "stateMutability": "view",
      "type": "function"
    },
    {
      "inputs": [
        {
          "internalType": "uint256",
          "name": "",
          "type": "uint256"
        }
      ],
      "name": "_sellingNFTs",
      "outputs": [
        {
          "internalType": "uint256",
          "name": "",
          "type": "uint256"
        }
      ],
      "stateMutability": "view",
      "type": "function"
    },
    {
      "inputs": [
        {
          "internalType": "uint256",
          "name": "",
          "type": "uint256"
        }
      ],
      "name": "_sellingNFTsIndexes",
      "outputs": [
        {
          "internalType": "uint256",
          "name": "",
          "type": "uint256"
        }
      ],
      "stateMutability": "view",
      "type": "function"
    },
    {
      "inputs": [
        {
          "internalType": "uint256",
          "name": "tokenId",
          "type": "uint256"
        },
        {
          "internalType": "address",
          "name": "to",
          "type": "address"
        }
      ],
      "name": "_spend",
      "outputs": [
        {
          "internalType": "bool",
          "name": "",
          "type": "bool"
        }
      ],
      "stateMutability": "nonpayable",
      "type": "function"
    },
    {
      "inputs": [
        {
          "internalType": "address",
          "name": "to",
          "type": "address"
        },
        {
          "internalType": "uint256",
          "name": "tokenId",
          "type": "uint256"
        }
      ],
      "name": "approve",
      "outputs": [],
      "stateMutability": "nonpayable",
      "type": "function"
    },
    {
      "inputs": [
        {
          "internalType": "address",
          "name": "owner",
          "type": "address"
        }
      ],
      "name": "balanceOf",
      "outputs": [
        {
          "internalType": "uint256",
          "name": "",
          "type": "uint256"
        }
      ],
      "stateMutability": "view",
      "type": "function"
    },
    {
      "inputs": [
        {
          "internalType": "uint256",
          "name": "tokenId",
          "type": "uint256"
        }
      ],
      "name": "burn",
      "outputs": [],
      "stateMutability": "nonpayable",
      "type": "function"
    },
    {
      "inputs": [
        {
          "internalType": "uint256",
          "name": "tokenId",
          "type": "uint256"
        }
      ],
      "name": "buyNFT",
      "outputs": [
        {
          "internalType": "bool",
          "name": "",
          "type": "bool"
        }
      ],
      "stateMutability": "payable",
      "type": "function"
    },
    {
      "inputs": [
        {
          "internalType": "uint256",
          "name": "tokenId",
          "type": "uint256"
        }
      ],
      "name": "cancelSellingNFT",
      "outputs": [
        {
          "internalType": "bool",
          "name": "",
          "type": "bool"
        }
      ],
      "stateMutability": "nonpayable",
      "type": "function"
    },
    {
      "inputs": [
        {
          "internalType": "uint256",
          "name": "tokenId",
          "type": "uint256"
        }
      ],
      "name": "getApproved",
      "outputs": [
        {
          "internalType": "address",
          "name": "",
          "type": "address"
        }
      ],
      "stateMutability": "view",
      "type": "function"
    },
    {
      "inputs": [
        {
          "internalType": "bytes32",
          "name": "role",
          "type": "bytes32"
        }
      ],
      "name": "getRoleAdmin",
      "outputs": [
        {
          "internalType": "bytes32",
          "name": "",
          "type": "bytes32"
        }
      ],
      "stateMutability": "view",
      "type": "function"
    },
    {
      "inputs": [
        {
          "internalType": "bytes32",
          "name": "role",
          "type": "bytes32"
        },
        {
          "internalType": "uint256",
          "name": "index",
          "type": "uint256"
        }
      ],
      "name": "getRoleMember",
      "outputs": [
        {
          "internalType": "address",
          "name": "",
          "type": "address"
        }
      ],
      "stateMutability": "view",
      "type": "function"
    },
    {
      "inputs": [
        {
          "internalType": "bytes32",
          "name": "role",
          "type": "bytes32"
        }
      ],
      "name": "getRoleMemberCount",
      "outputs": [
        {
          "internalType": "uint256",
          "name": "",
          "type": "uint256"
        }
      ],
      "stateMutability": "view",
      "type": "function"
    },
    {
      "inputs": [
        {
          "internalType": "uint256",
          "name": "tokenId",
          "type": "uint256"
        }
      ],
      "name": "getSellPrice",
      "outputs": [
        {
          "internalType": "uint256",
          "name": "",
          "type": "uint256"
        }
      ],
      "stateMutability": "view",
      "type": "function"
    },
    {
      "inputs": [],
      "name": "getSellingNFTs",
      "outputs": [
        {
          "internalType": "uint256[]",
          "name": "",
          "type": "uint256[]"
        }
      ],
      "stateMutability": "view",
      "type": "function"
    },
    {
      "inputs": [],
      "name": "getToken",
      "outputs": [
        {
          "internalType": "contract ERC20",
          "name": "",
          "type": "address"
        }
      ],
      "stateMutability": "view",
      "type": "function"
    },
    {
      "inputs": [
        {
          "internalType": "bytes32",
          "name": "role",
          "type": "bytes32"
        },
        {
          "internalType": "address",
          "name": "account",
          "type": "address"
        }
      ],
      "name": "grantRole",
      "outputs": [],
      "stateMutability": "nonpayable",
      "type": "function"
    },
    {
      "inputs": [
        {
          "internalType": "bytes32",
          "name": "role",
          "type": "bytes32"
        },
        {
          "internalType": "address",
          "name": "account",
          "type": "address"
        }
      ],
      "name": "hasRole",
      "outputs": [
        {
          "internalType": "bool",
          "name": "",
          "type": "bool"
        }
      ],
      "stateMutability": "view",
      "type": "function"
    },
    {
      "inputs": [
        {
          "internalType": "address",
          "name": "owner",
          "type": "address"
        },
        {
          "internalType": "address",
          "name": "operator",
          "type": "address"
        }
      ],
      "name": "isApprovedForAll",
      "outputs": [
        {
          "internalType": "bool",
          "name": "",
          "type": "bool"
        }
      ],
      "stateMutability": "view",
      "type": "function"
    },
    {
      "inputs": [],
      "name": "name",
      "outputs": [
        {
          "internalType": "string",
          "name": "",
          "type": "string"
        }
      ],
      "stateMutability": "view",
      "type": "function"
    },
    {
      "inputs": [
        {
          "internalType": "uint256",
          "name": "tokenId",
          "type": "uint256"
        }
      ],
      "name": "ownerOf",
      "outputs": [
        {
          "internalType": "address",
          "name": "",
          "type": "address"
        }
      ],
      "stateMutability": "view",
      "type": "function"
    },
    {
      "inputs": [],
      "name": "paused",
      "outputs": [
        {
          "internalType": "bool",
          "name": "",
          "type": "bool"
        }
      ],
      "stateMutability": "view",
      "type": "function"
    },
    {
      "inputs": [
        {
          "internalType": "bytes32",
          "name": "role",
          "type": "bytes32"
        },
        {
          "internalType": "address",
          "name": "account",
          "type": "address"
        }
      ],
      "name": "renounceRole",
      "outputs": [],
      "stateMutability": "nonpayable",
      "type": "function"
    },
    {
      "inputs": [
        {
          "internalType": "bytes32",
          "name": "role",
          "type": "bytes32"
        },
        {
          "internalType": "address",
          "name": "account",
          "type": "address"
        }
      ],
      "name": "revokeRole",
      "outputs": [],
      "stateMutability": "nonpayable",
      "type": "function"
    },
    {
      "inputs": [
        {
          "internalType": "address",
          "name": "from",
          "type": "address"
        },
        {
          "internalType": "address",
          "name": "to",
          "type": "address"
        },
        {
          "internalType": "uint256",
          "name": "tokenId",
          "type": "uint256"
        }
      ],
      "name": "safeTransferFrom",
      "outputs": [],
      "stateMutability": "nonpayable",
      "type": "function"
    },
    {
      "inputs": [
        {
          "internalType": "address",
          "name": "from",
          "type": "address"
        },
        {
          "internalType": "address",
          "name": "to",
          "type": "address"
        },
        {
          "internalType": "uint256",
          "name": "tokenId",
          "type": "uint256"
        },
        {
          "internalType": "bytes",
          "name": "_data",
          "type": "bytes"
        }
      ],
      "name": "safeTransferFrom",
      "outputs": [],
      "stateMutability": "nonpayable",
      "type": "function"
    },
    {
      "inputs": [
        {
          "internalType": "address",
          "name": "operator",
          "type": "address"
        },
        {
          "internalType": "bool",
          "name": "approved",
          "type": "bool"
        }
      ],
      "name": "setApprovalForAll",
      "outputs": [],
      "stateMutability": "nonpayable",
      "type": "function"
    },
    {
      "inputs": [
        {
          "internalType": "address",
          "name": "tokenAddress",
          "type": "address"
        }
      ],
      "name": "setToken",
      "outputs": [],
      "stateMutability": "nonpayable",
      "type": "function"
    },
    {
      "inputs": [
        {
          "internalType": "uint256",
          "name": "tokenId",
          "type": "uint256"
        },
        {
          "internalType": "uint256",
          "name": "price",
          "type": "uint256"
        }
      ],
      "name": "startSellingNFT",
      "outputs": [
        {
          "internalType": "bool",
          "name": "",
          "type": "bool"
        }
      ],
      "stateMutability": "nonpayable",
      "type": "function"
    },
    {
      "inputs": [],
      "name": "symbol",
      "outputs": [
        {
          "internalType": "string",
          "name": "",
          "type": "string"
        }
      ],
      "stateMutability": "view",
      "type": "function"
    },
    {
      "inputs": [
        {
          "internalType": "uint256",
          "name": "index",
          "type": "uint256"
        }
      ],
      "name": "tokenByIndex",
      "outputs": [
        {
          "internalType": "uint256",
          "name": "",
          "type": "uint256"
        }
      ],
      "stateMutability": "view",
      "type": "function"
    },
    {
      "inputs": [
        {
          "internalType": "address",
          "name": "owner",
          "type": "address"
        },
        {
          "internalType": "uint256",
          "name": "index",
          "type": "uint256"
        }
      ],
      "name": "tokenOfOwnerByIndex",
      "outputs": [
        {
          "internalType": "uint256",
          "name": "",
          "type": "uint256"
        }
      ],
      "stateMutability": "view",
      "type": "function"
    },
    {
      "inputs": [
        {
          "internalType": "uint256",
          "name": "tokenId",
          "type": "uint256"
        }
      ],
      "name": "tokenURI",
      "outputs": [
        {
          "internalType": "string",
          "name": "",
          "type": "string"
        }
      ],
      "stateMutability": "view",
      "type": "function"
    },
    {
      "inputs": [],
      "name": "totalSupply",
      "outputs": [
        {
          "internalType": "uint256",
          "name": "",
          "type": "uint256"
        }
      ],
      "stateMutability": "view",
      "type": "function"
    },
    {
      "inputs": [
        {
          "internalType": "address",
          "name": "from",
          "type": "address"
        },
        {
          "internalType": "address",
          "name": "to",
          "type": "address"
        },
        {
          "internalType": "uint256",
          "name": "tokenId",
          "type": "uint256"
        }
      ],
      "name": "transferFrom",
      "outputs": [],
      "stateMutability": "nonpayable",
      "type": "function"
    },
    {
      "inputs": [
        {
          "internalType": "address",
          "name": "to",
          "type": "address"
        }
      ],
      "name": "mint",
      "outputs": [],
      "stateMutability": "nonpayable",
      "type": "function"
    },
    {
      "inputs": [
        {
          "internalType": "address",
          "name": "to",
          "type": "address"
        }
      ],
      "name": "safeMint",
      "outputs": [],
      "stateMutability": "nonpayable",
      "type": "function"
    },
    {
      "inputs": [
        {
          "internalType": "address",
          "name": "to",
          "type": "address"
        },
        {
          "internalType": "uint256",
          "name": "amount",
          "type": "uint256"
        }
      ],
      "name": "multiMint",
      "outputs": [],
      "stateMutability": "nonpayable",
      "type": "function"
    },
    {
      "inputs": [],
      "name": "pause",
      "outputs": [],
      "stateMutability": "nonpayable",
      "type": "function"
    },
    {
      "inputs": [],
      "name": "unpause",
      "outputs": [],
      "stateMutability": "nonpayable",
      "type": "function"
    },
    {
      "inputs": [
        {
          "internalType": "bytes4",
          "name": "interfaceId",
          "type": "bytes4"
        }
      ],
      "name": "supportsInterface",
      "outputs": [
        {
          "internalType": "bool",
          "name": "",
          "type": "bool"
        }
      ],
      "stateMutability": "view",
      "type": "function"
    }
  ],
  "bytecode": "0x60806040523480156200001157600080fd5b5060405162003ee538038062003ee583398101604081905262000034916200044c565b8251839083906200004d906003906020850190620002fb565b50805162000063906004906020840190620002fb565b505060058054600160a060020a03191633179055506012805460ff19169055805162000097906014906020840190620002fb565b50620000c06000620000b164010000000062000139810204565b6401000000006200013d810204565b620000f87f9f2df0fed2c77648de5860a4cc508cd0818c85b8b8a1ab4ceeef8d981c8956a6620000b164010000000062000139810204565b620001307f65d7a28e3265b37a6474929f336521b332c1681b933f6cb9f3376673440d862a620000b164010000000062000139810204565b5050506200055e565b3390565b620001578282640100000000620016026200018482021704565b60008281526001602052604090206200017f9082640100000000620016106200019d82021704565b505050565b620001998282640100000000620001c6810204565b5050565b6000620001bd83600160a060020a03841664010000000062000262810204565b90505b92915050565b620001db8282640100000000620002ba810204565b6200019957600082815260208181526040808320600160a060020a03851684529091529020805460ff191660011790556200021e64010000000062000139810204565b600160a060020a031681600160a060020a0316837f2f8788117e7eff1d82e926ec794901d17c78024a50270940304540a733656f0d60405160405180910390a45050565b6000620002798383640100000000620002e3810204565b620002b157508154600181810184556000848152602080822090930184905584548482528286019093526040902091909155620001c0565b506000620001c0565b600091825260208281526040808420600160a060020a0393909316845291905290205460ff1690565b60009081526001919091016020526040902054151590565b8280546200030990620004d9565b90600052602060002090601f0160209004810192826200032d576000855562000378565b82601f106200034857805160ff191683800117855562000378565b8280016001018555821562000378579182015b82811115620003785782518255916020019190600101906200035b565b50620003869291506200038a565b5090565b5b808211156200038657600081556001016200038b565b600082601f830112620003b2578081fd5b81516001604060020a0380821115620003cf57620003cf6200052f565b6040516020601f8401601f1916820181018381118382101715620003f757620003f76200052f565b60405283825285840181018710156200040e578485fd5b8492505b8383101562000431578583018101518284018201529182019162000412565b838311156200044257848185840101525b5095945050505050565b60008060006060848603121562000461578283fd5b83516001604060020a038082111562000478578485fd5b6200048687838801620003a1565b945060208601519150808211156200049c578384fd5b620004aa87838801620003a1565b93506040860151915080821115620004c0578283fd5b50620004cf86828701620003a1565b9150509250925092565b600281046001821680620004ee57607f821691505b6020821081141562000529577f4e487b7100000000000000000000000000000000000000000000000000000000600052602260045260246000fd5b50919050565b7f4e487b7100000000000000000000000000000000000000000000000000000000600052604160045260246000fd5b613977806200056e6000396000f3fe60806040526004361061029a576000357c0100000000000000000000000000000000000000000000000000000000900480636352211e1161016c578063992924a6116100de578063c87b56dd11610097578063c87b56dd1461077b578063ca15c8731461079b578063d5391393146107bb578063d547741f146107d0578063e63ab1e9146107f0578063e985e9c5146108055761029a565b8063992924a6146106c6578063a217fddf146106e6578063a22cb465146106fb578063b88d4fde1461071b578063ba730e531461073b578063c494b0821461075b5761029a565b806380cf4dad1161013057806380cf4dad1461061c5780638456cb591461063c5780639010d07c1461065157806391d14854146106715780639564470e1461069157806395d89b41146106b15761029a565b80636352211e1461057a5780636a6278421461059a5780636d3d6028146105ba57806370a08231146105da5780637211a20a146105fa5761029a565b806329e02e701161021057806341787197116101c957806341787197146104d257806342842e0e146104f257806342966c68146105125780634f6ccce71461053257806351ed8288146105525780635c975abb146105655761029a565b806329e02e701461041d5780632f2ff15d1461043d5780632f745c591461045d57806336568abe1461047d5780633f4ba83a1461049d57806340d097c3146104b25761029a565b806318160ddd1161026257806318160ddd1461036657806321df0da71461038857806323b872dd1461039d578063248a9ca3146103bd5780632649d62e146103dd5780632838324b146103fd5761029a565b806301ffc9a71461029f57806306fdde03146102d5578063081812fc146102f7578063095ea7b314610324578063144fa6d714610346575b600080fd5b3480156102ab57600080fd5b506102bf6102ba366004612bc8565b610825565b6040516102cc9190612db3565b60405180910390f35b3480156102e157600080fd5b506102ea610838565b6040516102cc9190612dc7565b34801561030357600080fd5b50610317610312366004612b6d565b6108ca565b6040516102cc9190612d06565b34801561033057600080fd5b5061034461033f366004612b28565b610919565b005b34801561035257600080fd5b5061034461036136600461299f565b6109b7565b34801561037257600080fd5b5061037b610a13565b6040516102cc9190612dbe565b34801561039457600080fd5b50610317610a19565b3480156103a957600080fd5b506103446103b83660046129eb565b610a28565b3480156103c957600080fd5b5061037b6103d8366004612b6d565b610a63565b3480156103e957600080fd5b506103446103f8366004612b28565b610a78565b34801561040957600080fd5b5061037b610418366004612b6d565b610ab2565b34801561042957600080fd5b50610317610438366004612b6d565b610ac4565b34801561044957600080fd5b50610344610458366004612b85565b610adf565b34801561046957600080fd5b5061037b610478366004612b28565b610b01565b34801561048957600080fd5b50610344610498366004612b85565b610b59565b3480156104a957600080fd5b50610344610b7b565b3480156104be57600080fd5b506103446104cd36600461299f565b610bd0565b3480156104de57600080fd5b5061037b6104ed366004612b6d565b610c36565b3480156104fe57600080fd5b5061034461050d3660046129eb565b610c48565b34801561051e57600080fd5b5061034461052d366004612b6d565b610c63565b34801561053e57600080fd5b5061037b61054d366004612b6d565b610c96565b6102bf610560366004612b6d565b610cf7565b34801561057157600080fd5b506102bf61106e565b34801561058657600080fd5b50610317610595366004612b6d565b611077565b3480156105a657600080fd5b506103446105b536600461299f565b610c1b565b3480156105c657600080fd5b506102bf6105d5366004612ba7565b6110af565b3480156105e657600080fd5b5061037b6105f536600461299f565b6111a2565b34801561060657600080fd5b5061060f6111e9565b6040516102cc9190612d6f565b34801561062857600080fd5b5061037b610637366004612b6d565b611240565b34801561064857600080fd5b50610344611261565b34801561065d57600080fd5b5061031761066c366004612ba7565b6112b4565b34801561067d57600080fd5b506102bf61068c366004612b85565b6112d3565b34801561069d57600080fd5b506102bf6106ac366004612c18565b6112fc565b3480156106bd57600080fd5b506102ea611312565b3480156106d257600080fd5b506103176106e1366004612b6d565b611321565b3480156106f257600080fd5b5061037b61133c565b34801561070757600080fd5b50610344610716366004612af2565b611341565b34801561072757600080fd5b50610344610736366004612a26565b611412565b34801561074757600080fd5b5061037b610756366004612b6d565b611454565b34801561076757600080fd5b506102bf610776366004612b6d565b611466565b34801561078757600080fd5b506102ea610796366004612b6d565b6114e6565b3480156107a757600080fd5b5061037b6107b6366004612b6d565b61156b565b3480156107c757600080fd5b5061037b611582565b3480156107dc57600080fd5b506103446107eb366004612b85565b6115a6565b3480156107fc57600080fd5b5061037b6115b0565b34801561081157600080fd5b506102bf6108203660046129b9565b6115d4565b600061083082611625565b90505b919050565b60606003805461084790613865565b80601f016020809104026020016040519081016040528092919081815260200182805461087390613865565b80156108c05780601f10610895576101008083540402835291602001916108c0565b820191906000526020600020905b8154815290600101906020018083116108a357829003601f168201915b5050505050905090565b60006108d582611663565b6108fd5760405160e560020a62461bcd0281526004016108f4906133af565b60405180910390fd5b50600090815260096020526040902054600160a060020a031690565b600061092482611077565b905080600160a060020a031683600160a060020a0316141561095b5760405160e560020a62461bcd0281526004016108f490613534565b80600160a060020a031661096d611680565b600160a060020a03161480610989575061098981610820611680565b6109a85760405160e560020a62461bcd0281526004016108f490613187565b6109b28383611684565b505050565b600554600160a060020a031633146109e45760405160e560020a62461bcd0281526004016108f4906132d5565b6002805473ffffffffffffffffffffffffffffffffffffffff1916600160a060020a0392909216919091179055565b60105490565b600254600160a060020a031690565b610a39610a33611680565b826116ff565b610a585760405160e560020a62461bcd0281526004016108f490613591565b6109b2838383611787565b60009081526020819052604090206001015490565b60005b818110156109b257610a9683610a9160136118c7565b6118cb565b610aa060136119d1565b80610aaa816138a3565b915050610a7b565b600c6020526000908152604090205481565b600760205260009081526040902054600160a060020a031681565b610ae982826119da565b60008281526001602052604090206109b29082611610565b6000610b0c836111a2565b8210610b2d5760405160e560020a62461bcd0281526004016108f490612eda565b50600160a060020a0382166000908152600e602090815260408083208484529091529020545b92915050565b610b6382826119fe565b60008281526001602052604090206109b29082611a43565b610ba77f65d7a28e3265b37a6474929f336521b332c1681b933f6cb9f3376673440d862a61068c611680565b610bc65760405160e560020a62461bcd0281526004016108f490613705565b610bce611a58565b565b610bfc7f9f2df0fed2c77648de5860a4cc508cd0818c85b8b8a1ab4ceeef8d981c8956a661068c611680565b610c1b5760405160e560020a62461bcd0281526004016108f49061364b565b610c2981610a9160136118c7565b610c3360136119d1565b50565b600b6020526000908152604090205481565b6109b283838360405180602001604052806000815250611412565b610c6e610a33611680565b610c8d5760405160e560020a62461bcd0281526004016108f4906136a8565b610c3381611ac9565b6000610ca0610a13565b8210610cc15760405160e560020a62461bcd0281526004016108f4906135ee565b60108281548110610ce55760e060020a634e487b7102600052603260045260246000fd5b90600052602060002001549050919050565b6000818152600b6020526040812054610d255760405160e560020a62461bcd0281526004016108f4906131e4565b600082815260066020526040902054600160a060020a0316331415610d5f5760405160e560020a62461bcd0281526004016108f490613378565b6000828152600b6020526040908190205460025491517f70a082310000000000000000000000000000000000000000000000000000000081529091600160a060020a0316906370a0823190610db8903390600401612d06565b60206040518083038186803b158015610dd057600080fd5b505afa158015610de4573d6000803e3d6000fd5b505050506040513d601f19601f82011682018060405250810190610e089190612c00565b1015610e295760405160e560020a62461bcd0281526004016108f490612fcb565b6002546000838152600b6020526040908190205490517f6aade288000000000000000000000000000000000000000000000000000000008152600160a060020a0390921691636aade28891610e8391339190600401612d56565b602060405180830381600087803b158015610e9d57600080fd5b505af1158015610eb1573d6000803e3d6000fd5b505050506040513d601f19601f82011682018060405250810190610ed59190612b51565b610ef45760405160e560020a62461bcd0281526004016108f4906134fd565b600254600083815260066020908152604080832054600b909252918290205491517fa9059cbb000000000000000000000000000000000000000000000000000000008152600160a060020a039384169363a9059cbb93610f5a9390911691600401612d56565b602060405180830381600087803b158015610f7457600080fd5b505af1158015610f88573d6000803e3d6000fd5b505050506040513d601f19601f82011682018060405250810190610fac9190612b51565b50600082815260066020908152604080832054600160a060020a0316835260089091528120805460019290610fe290849061380b565b90915550503360009081526008602052604081208054600192906110079084906137c0565b90915550506000828152600660209081526040808320805473ffffffffffffffffffffffffffffffffffffffff191633179055600c90915290205461104c9083611b7d565b506000908152600c60209081526040808320839055600b909152812055600190565b60125460ff1690565b600081815260066020526040812054600160a060020a0316806108305760405160e560020a62461bcd0281526004016108f490613278565b600082815260066020526040812054600160a060020a031633146110e85760405160e560020a62461bcd0281526004016108f4906134c6565b6000821161110b5760405160e560020a62461bcd0281526004016108f490612ea3565b6000838152600b60205260409020541561113a5760405160e560020a62461bcd0281526004016108f49061330c565b6000838152600b60205260408120839055600d805460018181018355928290527fd7b6990105719101dabeb77144f2a3385c8033acd3af97e9423a695e81ad1eb5018590555461118a919061380b565b6000848152600c602052604090205550600192915050565b6000600160a060020a0382166111cd5760405160e560020a62461bcd0281526004016108f49061321b565b50600160a060020a031660009081526008602052604090205490565b6060600d8054806020026020016040519081016040528092919081815260200182805480156108c057602002820191906000526020600020905b815481526020019060010190808311611223575050505050905090565b600d818154811061125057600080fd5b600091825260209091200154905081565b61128d7f65d7a28e3265b37a6474929f336521b332c1681b933f6cb9f3376673440d862a61068c611680565b6112ac5760405160e560020a62461bcd0281526004016108f490613002565b610bce611cb3565b60008281526001602052604081206112cc9083611d11565b9392505050565b600091825260208281526040808420600160a060020a0393909316845291905290205460ff1690565b6000611309338385610c48565b50600192915050565b60606004805461084790613865565b600660205260009081526040902054600160a060020a031681565b600081565b611349611680565b600160a060020a031682600160a060020a0316141561137d5760405160e560020a62461bcd0281526004016108f4906130bc565b80600a600061138a611680565b600160a060020a03908116825260208083019390935260409182016000908120918716808252919093529120805460ff1916921515929092179091556113ce611680565b600160a060020a03167f17307eab39ab6107e8899845ad3d59bd9653f200f220920489ca2b5937696c31836040516114069190612db3565b60405180910390a35050565b61142361141d611680565b836116ff565b6114425760405160e560020a62461bcd0281526004016108f490613591565b61144e84848484611d1d565b50505050565b6000908152600b602052604090205490565b600081815260066020526040812054600160a060020a0316331461149f5760405160e560020a62461bcd0281526004016108f4906134c6565b6000828152600b60205260409020546114cd5760405160e560020a62461bcd0281526004016108f4906131e4565b6000828152600c602052604090205461104c9083611b7d565b60606114f182611663565b6115105760405160e560020a62461bcd0281526004016108f490613469565b600061151a611d53565b9050600081511161153a57604051806020016040528060008152506112cc565b8061154484611d62565b604051602001611555929190612c56565b6040516020818303038152906040529392505050565b600081815260016020526040812061083090611ebe565b7f9f2df0fed2c77648de5860a4cc508cd0818c85b8b8a1ab4ceeef8d981c8956a681565b610b638282611ec9565b7f65d7a28e3265b37a6474929f336521b332c1681b933f6cb9f3376673440d862a81565b600160a060020a039182166000908152600a6020908152604080832093909416825291909152205460ff1690565b61160c8282611ee8565b5050565b60006112cc83600160a060020a038416611f6d565b6000600160e060020a031982167f780e9d63000000000000000000000000000000000000000000000000000000001480610830575061083082611fb7565b600090815260066020526040902054600160a060020a0316151590565b3390565b6000818152600960205260409020805473ffffffffffffffffffffffffffffffffffffffff1916600160a060020a03841690811790915581906116c682611077565b600160a060020a03167f8c5be1e5ebec7d5bd14f71427d1e84f3dd0314c0f7b2291e5b200ac8c7c3b92560405160405180910390a45050565b600061170a82611663565b6117295760405160e560020a62461bcd0281526004016108f4906130f3565b600061173483611077565b905080600160a060020a031684600160a060020a0316148061176f575083600160a060020a0316611764846108ca565b600160a060020a0316145b8061177f575061177f81856115d4565b949350505050565b82600160a060020a031661179a82611077565b600160a060020a0316146117c35760405160e560020a62461bcd0281526004016108f49061340c565b600160a060020a0382166117ec5760405160e560020a62461bcd0281526004016108f49061305f565b6117f7838383612029565b611802600082611684565b600160a060020a038316600090815260086020526040812080546001929061182b90849061380b565b9091555050600160a060020a03821660009081526008602052604081208054600192906118599084906137c0565b9091555050600081815260066020526040808220805473ffffffffffffffffffffffffffffffffffffffff1916600160a060020a0386811691821790925591518493918716917fddf252ad1be2c89b69c2b068fc378daa952ba7f163c4a11628f55a4df523b3ef91a4505050565b5490565b600160a060020a0382166118f45760405160e560020a62461bcd0281526004016108f490613343565b6118fd81611663565b1561191d5760405160e560020a62461bcd0281526004016108f490612f94565b61192960008383612029565b600160a060020a03821660009081526008602052604081208054600192906119529084906137c0565b909155505060008181526006602090815260408083208054600160a060020a03871673ffffffffffffffffffffffffffffffffffffffff199182168117909255600790935281842080549093168117909255518392907fddf252ad1be2c89b69c2b068fc378daa952ba7f163c4a11628f55a4df523b3ef908290a45050565b80546001019055565b6119e382610a63565b6119f4816119ef611680565b612034565b6109b28383611ee8565b611a06611680565b600160a060020a031681600160a060020a031614611a395760405160e560020a62461bcd0281526004016108f490613763565b61160c828261209b565b60006112cc83600160a060020a03841661211e565b611a6061106e565b611a7f5760405160e560020a62461bcd0281526004016108f490612e6c565b6012805460ff191690557f5db9ee0a495bf2e6ff9c91a7834c1ba4fdd244a5e8aa4e537bd38aeae4b073aa611ab2611680565b604051611abf9190612d06565b60405180910390a1565b6000611ad482611077565b9050611ae281600084612029565b611aed600083611684565b600160a060020a0381166000908152600860205260408120805460019290611b1690849061380b565b9091555050600082815260066020526040808220805473ffffffffffffffffffffffffffffffffffffffff1916905551839190600160a060020a038416907fddf252ad1be2c89b69c2b068fc378daa952ba7f163c4a11628f55a4df523b3ef908390a45050565b600d548210611b8b5761160c565b6000818152600c6020526040812055815b600d54611bab9060019061380b565b811015611c7657600d611bbf8260016137c0565b81548110611be05760e060020a634e487b7102600052603260045260246000fd5b9060005260206000200154600d8281548110611c0f5760e060020a634e487b7102600052603260045260246000fd5b906000526020600020018190555080600c6000600d8481548110611c465760e060020a634e487b7102600052603260045260246000fd5b90600052602060002001548152602001908152602001600020819055508080611c6e906138a3565b915050611b9c565b50600d805480611c995760e060020a634e487b7102600052603160045260246000fd5b600190038181906000526020600020016000905590555050565b611cbb61106e565b15611cdb5760405160e560020a62461bcd0281526004016108f490613150565b6012805460ff191660011790557f62e78cea01bee320cd4e420270b5ea74000d11b0c9f74754ebdbfc544b05a258611ab2611680565b60006112cc8383612244565b611d28848484611787565b611d348484848461227f565b61144e5760405160e560020a62461bcd0281526004016108f490612f37565b60606014805461084790613865565b606081611da3575060408051808201909152600181527f30000000000000000000000000000000000000000000000000000000000000006020820152610833565b8160005b8115611dcd5780611db7816138a3565b9150611dc69050600a836137d8565b9150611da7565b60008167ffffffffffffffff811115611df95760e060020a634e487b7102600052604160045260246000fd5b6040519080825280601f01601f191660200182016040528015611e23576020820181803683370190505b5090505b841561177f57611e3860018361380b565b9150611e45600a866138be565b611e509060306137c0565b7f010000000000000000000000000000000000000000000000000000000000000002818381518110611e955760e060020a634e487b7102600052603260045260246000fd5b6020010190600160f860020a031916908160001a905350611eb7600a866137d8565b9450611e27565b6000610830826118c7565b611ed282610a63565b611ede816119ef611680565b6109b2838361209b565b611ef282826112d3565b61160c57600082815260208181526040808320600160a060020a03851684529091529020805460ff19166001179055611f29611680565b600160a060020a031681600160a060020a0316837f2f8788117e7eff1d82e926ec794901d17c78024a50270940304540a733656f0d60405160405180910390a45050565b6000611f7983836123d2565b611faf57508154600181810184556000848152602080822090930184905584548482528286019093526040902091909155610b53565b506000610b53565b6000600160e060020a031982167f80ac58cd00000000000000000000000000000000000000000000000000000000148061201a5750600160e060020a031982167f5b5e139f00000000000000000000000000000000000000000000000000000000145b806108305750610830826123ea565b6109b2838383612428565b61203e82826112d3565b61160c5761205681600160a060020a0316601461245b565b61206183602061245b565b604051602001612072929190612c85565b60408051601f198184030181529082905260e560020a62461bcd0282526108f491600401612dc7565b6120a582826112d3565b1561160c57600082815260208181526040808320600160a060020a03851684529091529020805460ff191690556120da611680565b600160a060020a031681600160a060020a0316837ff6391f5c32d9c69d2a47ea670b442974b53935d1edc7fd64eb21e047a839171b60405160405180910390a45050565b6000818152600183016020526040812054801561223a57600061214260018361380b565b85549091506000906121569060019061380b565b90508181146121dd5760008660000182815481106121875760e060020a634e487b7102600052603260045260246000fd5b90600052602060002001549050808760000184815481106121bb5760e060020a634e487b7102600052603260045260246000fd5b6000918252602080832090910192909255918252600188019052604090208390555b85548690806121ff5760e060020a634e487b7102600052603160045260246000fd5b600190038181906000526020600020016000905590558560010160008681526020019081526020016000206000905560019350505050610b53565b6000915050610b53565b600082600001828154811061226c5760e060020a634e487b7102600052603260045260246000fd5b9060005260206000200154905092915050565b600061229384600160a060020a0316612682565b156123c75783600160a060020a031663150b7a026122af611680565b8786866040518563ffffffff167c01000000000000000000000000000000000000000000000000000000000281526004016122ed9493929190612d1a565b602060405180830381600087803b15801561230757600080fd5b505af1925050508015612337575060408051601f3d908101601f1916820190925261233491810190612be4565b60015b612394573d808015612365576040519150601f19603f3d011682016040523d82523d6000602084013e61236a565b606091505b50805161238c5760405160e560020a62461bcd0281526004016108f490612f37565b805181602001fd5b600160e060020a0319167f150b7a020000000000000000000000000000000000000000000000000000000014905061177f565b506001949350505050565b60009081526001919091016020526040902054151590565b6000600160e060020a031982167f5a05180f000000000000000000000000000000000000000000000000000000001480610830575061083082612688565b6124338383836126c6565b61243b61106e565b156109b25760405160e560020a62461bcd0281526004016108f490612e0f565b6060600061246a8360026137ec565b6124759060026137c0565b67ffffffffffffffff81111561249e5760e060020a634e487b7102600052604160045260246000fd5b6040519080825280601f01601f1916602001820160405280156124c8576020820181803683370190505b5090507f3000000000000000000000000000000000000000000000000000000000000000816000815181106125105760e060020a634e487b7102600052603260045260246000fd5b6020010190600160f860020a031916908160001a9053507f78000000000000000000000000000000000000000000000000000000000000008160018151811061256c5760e060020a634e487b7102600052603260045260246000fd5b6020010190600160f860020a031916908160001a90535060006125908460026137ec565b61259b9060016137c0565b90505b6001811115612660577f303132333435363738396162636465660000000000000000000000000000000085600f16601081106125ed5760e060020a634e487b7102600052603260045260246000fd5b1a7f0100000000000000000000000000000000000000000000000000000000000000028282815181106126335760e060020a634e487b7102600052603260045260246000fd5b6020010190600160f860020a031916908160001a9053506010909404936126598161384e565b905061259e565b5083156112cc5760405160e560020a62461bcd0281526004016108f490612dda565b3b151590565b6000600160e060020a031982167f7965db0b00000000000000000000000000000000000000000000000000000000148061083057506108308261274f565b6126d18383836109b2565b600160a060020a0383166126ed576126e881612781565b612710565b81600160a060020a031683600160a060020a0316146127105761271083826127c5565b600160a060020a03821661272c5761272781612862565b6109b2565b82600160a060020a031682600160a060020a0316146109b2576109b28282612944565b600160e060020a031981167f01ffc9a70000000000000000000000000000000000000000000000000000000014919050565b601080546000838152601160205260408120829055600182018355919091527f1b6847dc741a1b0cd08d278845f9d819d87b734759afb55fe2de5cb82a9ae6720155565b600060016127d2846111a2565b6127dc919061380b565b6000838152600f602052604090205490915080821461282f57600160a060020a0384166000908152600e602090815260408083208584528252808320548484528184208190558352600f90915290208190555b506000918252600f60209081526040808420849055600160a060020a039094168352600e81528383209183525290812055565b6010546000906128749060019061380b565b600083815260116020526040812054601080549394509092849081106128ad5760e060020a634e487b7102600052603260045260246000fd5b9060005260206000200154905080601083815481106128df5760e060020a634e487b7102600052603260045260246000fd5b60009182526020808320909101929092558281526011909152604080822084905585825281205560108054806129285760e060020a634e487b7102600052603160045260246000fd5b6001900381819060005260206000200160009055905550505050565b600061294f836111a2565b600160a060020a039093166000908152600e602090815260408083208684528252808320859055938252600f9052919091209190915550565b8035600160a060020a038116811461083357600080fd5b6000602082840312156129b0578081fd5b6112cc82612988565b600080604083850312156129cb578081fd5b6129d483612988565b91506129e260208401612988565b90509250929050565b6000806000606084860312156129ff578081fd5b612a0884612988565b9250612a1660208501612988565b9150604084013590509250925092565b60008060008060808587031215612a3b578081fd5b612a4485612988565b93506020612a53818701612988565b935060408601359250606086013567ffffffffffffffff80821115612a76578384fd5b818801915088601f830112612a89578384fd5b813581811115612a9b57612a9b613904565b604051601f8201601f1916810185018381118282101715612abe57612abe613904565b60405281815283820185018b1015612ad4578586fd5b81858501868301379081019093019390935250939692955090935050565b60008060408385031215612b04578182fd5b612b0d83612988565b91506020830135612b1d8161391d565b809150509250929050565b60008060408385031215612b3a578182fd5b612b4383612988565b946020939093013593505050565b600060208284031215612b62578081fd5b81516112cc8161391d565b600060208284031215612b7e578081fd5b5035919050565b60008060408385031215612b97578182fd5b823591506129e260208401612988565b60008060408385031215612bb9578182fd5b50508035926020909101359150565b600060208284031215612bd9578081fd5b81356112cc8161392b565b600060208284031215612bf5578081fd5b81516112cc8161392b565b600060208284031215612c11578081fd5b5051919050565b60008060408385031215612b97578081fd5b60008151808452612c42816020860160208601613822565b601f01601f19169290920160200192915050565b60008351612c68818460208801613822565b835190830190612c7c818360208801613822565b01949350505050565b60007f416363657373436f6e74726f6c3a206163636f756e742000000000000000000082528351612cbd816017850160208801613822565b7f206973206d697373696e6720726f6c65200000000000000000000000000000006017918401918201528351612cfa816028840160208801613822565b01602801949350505050565b600160a060020a0391909116815260200190565b6000600160a060020a03808716835280861660208401525083604083015260806060830152612d4c6080830184612c2a565b9695505050505050565b600160a060020a03929092168252602082015260400190565b6020808252825182820181905260009190848201906040850190845b81811015612da757835183529284019291840191600101612d8b565b50909695505050505050565b901515815260200190565b90815260200190565b6000602082526112cc6020830184612c2a565b6020808252818101527f537472696e67733a20686578206c656e67746820696e73756666696369656e74604082015260600190565b6020808252602b908201527f4552433732315061757361626c653a20746f6b656e207472616e73666572207760408201527f68696c6520706175736564000000000000000000000000000000000000000000606082015260800190565b60208082526014908201527f5061757361626c653a206e6f7420706175736564000000000000000000000000604082015260600190565b6020808252601e908201527f70726963652073686f756c642062652067726561746572207468616e20300000604082015260600190565b6020808252602b908201527f455243373231456e756d657261626c653a206f776e657220696e646578206f7560408201527f74206f6620626f756e6473000000000000000000000000000000000000000000606082015260800190565b60208082526032908201527f4552433732313a207472616e7366657220746f206e6f6e20455243373231526560408201527f63656976657220696d706c656d656e7465720000000000000000000000000000606082015260800190565b6020808252601c908201527f4552433732313a20746f6b656e20616c7265616479206d696e74656400000000604082015260600190565b6020808252600b908201527f4c6f772062616c616e6365000000000000000000000000000000000000000000604082015260600190565b6020808252603e908201527f4552433732315072657365744d696e7465725061757365724175746f49643a2060408201527f6d75737420686176652070617573657220726f6c6520746f2070617573650000606082015260800190565b60208082526024908201527f4552433732313a207472616e7366657220746f20746865207a65726f2061646460408201527f7265737300000000000000000000000000000000000000000000000000000000606082015260800190565b60208082526019908201527f4552433732313a20617070726f766520746f2063616c6c657200000000000000604082015260600190565b6020808252602c908201527f4552433732313a206f70657261746f7220717565727920666f72206e6f6e657860408201527f697374656e7420746f6b656e0000000000000000000000000000000000000000606082015260800190565b60208082526010908201527f5061757361626c653a2070617573656400000000000000000000000000000000604082015260600190565b60208082526038908201527f4552433732313a20617070726f76652063616c6c6572206973206e6f74206f7760408201527f6e6572206e6f7220617070726f76656420666f7220616c6c0000000000000000606082015260800190565b60208082526016908201527f6e6f742053656c6c696e67207468697320746f6b656e00000000000000000000604082015260600190565b6020808252602a908201527f4552433732313a2062616c616e636520717565727920666f7220746865207a6560408201527f726f206164647265737300000000000000000000000000000000000000000000606082015260800190565b60208082526029908201527f4552433732313a206f776e657220717565727920666f72206e6f6e657869737460408201527f656e7420746f6b656e0000000000000000000000000000000000000000000000606082015260800190565b6020808252601f908201527f63616e2062652063616c6c656420627920436f6e7472616374204f776e657200604082015260600190565b6020808252600f908201527f416c72656164792053656c6c696e670000000000000000000000000000000000604082015260600190565b6020808252818101527f4552433732313a206d696e7420746f20746865207a65726f2061646472657373604082015260600190565b6020808252601d908201527f4f776e65722063616e6e6f74206275792069742773206f776e204e4654000000604082015260600190565b6020808252602c908201527f4552433732313a20617070726f76656420717565727920666f72206e6f6e657860408201527f697374656e7420746f6b656e0000000000000000000000000000000000000000606082015260800190565b60208082526029908201527f4552433732313a207472616e73666572206f6620746f6b656e2074686174206960408201527f73206e6f74206f776e0000000000000000000000000000000000000000000000606082015260800190565b6020808252602f908201527f4552433732314d657461646174613a2055524920717565727920666f72206e6f60408201527f6e6578697374656e7420746f6b656e0000000000000000000000000000000000606082015260800190565b60208082526018908201527f63616e20626520736574206279206f776e6572206f6e6c790000000000000000604082015260600190565b60208082526018908201527f546f6b656e205472616e73656374696f6e204661696c65640000000000000000604082015260600190565b60208082526021908201527f4552433732313a20617070726f76616c20746f2063757272656e74206f776e6560408201527f7200000000000000000000000000000000000000000000000000000000000000606082015260800190565b60208082526031908201527f4552433732313a207472616e736665722063616c6c6572206973206e6f74206f60408201527f776e6572206e6f7220617070726f766564000000000000000000000000000000606082015260800190565b6020808252602c908201527f455243373231456e756d657261626c653a20676c6f62616c20696e646578206f60408201527f7574206f6620626f756e64730000000000000000000000000000000000000000606082015260800190565b6020808252603d908201527f4552433732315072657365744d696e7465725061757365724175746f49643a2060408201527f6d7573742068617665206d696e74657220726f6c6520746f206d696e74000000606082015260800190565b60208082526030908201527f4552433732314275726e61626c653a2063616c6c6572206973206e6f74206f7760408201527f6e6572206e6f7220617070726f76656400000000000000000000000000000000606082015260800190565b602080825260409082018190527f4552433732315072657365744d696e7465725061757365724175746f49643a20908201527f6d75737420686176652070617573657220726f6c6520746f20756e7061757365606082015260800190565b6020808252602f908201527f416363657373436f6e74726f6c3a2063616e206f6e6c792072656e6f756e636560408201527f20726f6c657320666f722073656c660000000000000000000000000000000000606082015260800190565b600082198211156137d3576137d36138d2565b500190565b6000826137e7576137e76138eb565b500490565b6000816000190483118215151615613806576138066138d2565b500290565b60008282101561381d5761381d6138d2565b500390565b60005b8381101561383d578181015183820152602001613825565b8381111561144e5750506000910152565b60008161385d5761385d6138d2565b506000190190565b60028104600182168061387957607f821691505b6020821081141561389d5760e060020a634e487b7102600052602260045260246000fd5b50919050565b60006000198214156138b7576138b76138d2565b5060010190565b6000826138cd576138cd6138eb565b500690565b60e060020a634e487b7102600052601160045260246000fd5b60e060020a634e487b7102600052601260045260246000fd5b60e060020a634e487b7102600052604160045260246000fd5b8015158114610c3357600080fd5b600160e060020a031981168114610c3357600080fdfea26469706673582212208b0834016cec9a267e5359e22f41e2e80d95fe0c6be4feb3506cdad30d0f6e7864736f6c63430008000033",
  "immutableReferences": {},
  "source": "// SPDX-License-Identifier: MIT\n\npragma solidity ^0.8.0;\n\nimport \"../ERC721.sol\";\nimport \"../extensions/ERC721Enumerable.sol\";\nimport \"../extensions/ERC721Burnable.sol\";\nimport \"../extensions/ERC721Pausable.sol\";\nimport \"../../access/AccessControlEnumerable.sol\";\nimport \"../../utils/Context.sol\";\nimport \"../../utils/Counters.sol\";\n\n/**\n * @dev {ERC721} token, including:\n *\n *  - ability for holders to burn (destroy) their tokens\n *  - a minter role that allows for token minting (creation)\n *  - a pauser role that allows to stop all token transfers\n *  - token ID and URI autogeneration\n *\n * This contract uses {AccessControl} to lock permissioned functions using the\n * different roles - head to its documentation for details.\n *\n * The account that deploys the contract will be granted the minter and pauser\n * roles, as well as the default admin role, which will let it grant both minter\n * and pauser roles to other accounts.\n */\ncontract ERC721PresetMinterPauserAutoId is\nContext,\nAccessControlEnumerable,\nERC721Enumerable,\nERC721Burnable,\nERC721Pausable\n{\n    using Counters for Counters.Counter;\n\n    bytes32 public constant MINTER_ROLE = keccak256(\"MINTER_ROLE\");\n    bytes32 public constant PAUSER_ROLE = keccak256(\"PAUSER_ROLE\");\n\n    Counters.Counter private _tokenIdTracker;\n\n    string private _baseTokenURI;\n\n    /**\n     * @dev Grants `DEFAULT_ADMIN_ROLE`, `MINTER_ROLE` and `PAUSER_ROLE` to the\n     * account that deploys the contract.\n     *\n     * Token URIs will be autogenerated based on `baseURI` and their token IDs.\n     * See {ERC721-tokenURI}.\n     */\n    constructor(\n        string memory name,\n        string memory symbol,\n        string memory baseTokenURI\n    ) ERC721(name, symbol) {\n        _baseTokenURI = baseTokenURI;\n\n        _setupRole(DEFAULT_ADMIN_ROLE, _msgSender());\n\n        _setupRole(MINTER_ROLE, _msgSender());\n        _setupRole(PAUSER_ROLE, _msgSender());\n    }\n\n    function _baseURI() internal view virtual override returns (string memory) {\n        return _baseTokenURI;\n    }\n\n    /**\n     * @dev Creates a new token for `to`. Its token ID will be automatically\n     * assigned (and available on the emitted {IERC721-Transfer} event), and the token\n     * URI autogenerated based on the base URI passed at construction.\n     *\n     * See {ERC721-_mint}.\n     *\n     * Requirements:\n     *\n     * - the caller must have the `MINTER_ROLE`.\n     */\n    function mint(address to) public virtual {\n        // We cannot just use balanceOf to create the new tokenId because tokens\n        // can be burned (destroyed), so we need a separate counter.\n        _mint(to, _tokenIdTracker.current());\n        _tokenIdTracker.increment();\n    }\n    function safeMint(address to) public virtual {\n        require(hasRole(MINTER_ROLE, _msgSender()), \"ERC721PresetMinterPauserAutoId: must have minter role to mint\");\n\n        // We cannot just use balanceOf to create the new tokenId because tokens\n        // can be burned (destroyed), so we need a separate counter.\n        _mint(to, _tokenIdTracker.current());\n        _tokenIdTracker.increment();\n    }\n    function multiMint(address to, uint256 amount) public virtual{\n         for(uint256 i=0; i<amount; i++){\n             _mint(to, _tokenIdTracker.current());\n             _tokenIdTracker.increment();\n         }\n    }\n\n    /**\n     * @dev Pauses all token transfers.\n     *\n     * See {ERC721Pausable} and {Pausable-_pause}.\n     *\n     * Requirements:\n     *\n     * - the caller must have the `PAUSER_ROLE`.\n     */\n    function pause() public virtual {\n        require(hasRole(PAUSER_ROLE, _msgSender()), \"ERC721PresetMinterPauserAutoId: must have pauser role to pause\");\n        _pause();\n    }\n\n    /**\n     * @dev Unpauses all token transfers.\n     *\n     * See {ERC721Pausable} and {Pausable-_unpause}.\n     *\n     * Requirements:\n     *\n     * - the caller must have the `PAUSER_ROLE`.\n     */\n    function unpause() public virtual {\n        require(hasRole(PAUSER_ROLE, _msgSender()), \"ERC721PresetMinterPauserAutoId: must have pauser role to unpause\");\n        _unpause();\n    }\n\n    function _beforeTokenTransfer(\n        address from,\n        address to,\n        uint256 tokenId\n    ) internal virtual override(ERC721, ERC721Enumerable, ERC721Pausable) {\n        super._beforeTokenTransfer(from, to, tokenId);\n    }\n\n    /**\n     * @dev See {IERC165-supportsInterface}.\n     */\n    function supportsInterface(bytes4 interfaceId)\n    public\n    view\n    virtual\n    override(AccessControlEnumerable, ERC721, ERC721Enumerable)\n    returns (bool)\n    {\n        return super.supportsInterface(interfaceId);\n    }\n}\n",
  "sourcePath": "/Volumes/Transcend/Projects/DappsLab/Lottery-Smart-Contract/contracts/customERC20ERC721/ERC721/presets/ERC721PresetMinterPauserAutoId.sol",
  "compiler": {
    "name": "solc",
    "version": "0.8.0+commit.c7dfd78e.Emscripten.clang"
  },
  "schemaVersion": "3.4.3",
  "updatedAt": "2022-01-03T11:03:02.549Z",
  "devdoc": {
    "details": "{ERC721} token, including:  - ability for holders to burn (destroy) their tokens  - a minter role that allows for token minting (creation)  - a pauser role that allows to stop all token transfers  - token ID and URI autogeneration This contract uses {AccessControl} to lock permissioned functions using the different roles - head to its documentation for details. The account that deploys the contract will be granted the minter and pauser roles, as well as the default admin role, which will let it grant both minter and pauser roles to other accounts.",
    "kind": "dev",
    "methods": {
      "_spend(uint256,address)": {
        "details": "See {IERC721-safeTransferFrom}."
      },
      "approve(address,uint256)": {
        "details": "See {IERC721-approve}."
      },
      "balanceOf(address)": {
        "details": "See {IERC721-balanceOf}."
      },
      "burn(uint256)": {
        "details": "Burns `tokenId`. See {ERC721-_burn}. Requirements: - The caller must own `tokenId` or be an approved operator."
      },
      "constructor": {
        "details": "Grants `DEFAULT_ADMIN_ROLE`, `MINTER_ROLE` and `PAUSER_ROLE` to the account that deploys the contract. Token URIs will be autogenerated based on `baseURI` and their token IDs. See {ERC721-tokenURI}."
      },
      "getApproved(uint256)": {
        "details": "See {IERC721-getApproved}."
      },
      "getRoleAdmin(bytes32)": {
        "details": "Returns the admin role that controls `role`. See {grantRole} and {revokeRole}. To change a role's admin, use {_setRoleAdmin}."
      },
      "getRoleMember(bytes32,uint256)": {
        "details": "Returns one of the accounts that have `role`. `index` must be a value between 0 and {getRoleMemberCount}, non-inclusive. Role bearers are not sorted in any particular way, and their ordering may change at any point. WARNING: When using {getRoleMember} and {getRoleMemberCount}, make sure you perform all queries on the same block. See the following https://forum.openzeppelin.com/t/iterating-over-elements-on-enumerableset-in-openzeppelin-contracts/2296[forum post] for more information."
      },
      "getRoleMemberCount(bytes32)": {
        "details": "Returns the number of accounts that have `role`. Can be used together with {getRoleMember} to enumerate all bearers of a role."
      },
      "grantRole(bytes32,address)": {
        "details": "Overload {grantRole} to track enumerable memberships"
      },
      "hasRole(bytes32,address)": {
        "details": "Returns `true` if `account` has been granted `role`."
      },
      "isApprovedForAll(address,address)": {
        "details": "See {IERC721-isApprovedForAll}."
      },
      "mint(address)": {
        "details": "Creates a new token for `to`. Its token ID will be automatically assigned (and available on the emitted {IERC721-Transfer} event), and the token URI autogenerated based on the base URI passed at construction. See {ERC721-_mint}. Requirements: - the caller must have the `MINTER_ROLE`."
      },
      "name()": {
        "details": "See {IERC721Metadata-name}."
      },
      "ownerOf(uint256)": {
        "details": "See {IERC721-ownerOf}."
      },
      "pause()": {
        "details": "Pauses all token transfers. See {ERC721Pausable} and {Pausable-_pause}. Requirements: - the caller must have the `PAUSER_ROLE`."
      },
      "paused()": {
        "details": "Returns true if the contract is paused, and false otherwise."
      },
      "renounceRole(bytes32,address)": {
        "details": "Overload {renounceRole} to track enumerable memberships"
      },
      "revokeRole(bytes32,address)": {
        "details": "Overload {revokeRole} to track enumerable memberships"
      },
      "safeTransferFrom(address,address,uint256)": {
        "details": "Safely transfers `tokenId` token from `from` to `to`, checking first that contract recipients are aware of the ERC721 protocol to prevent tokens from being forever locked. Requirements: - `from` cannot be the zero address. - `to` cannot be the zero address. - `tokenId` token must exist and be owned by `from`. - If the caller is not `from`, it must be have been allowed to move this token by either {approve} or {setApprovalForAll}. - If `to` refers to a smart contract, it must implement {IERC721Receiver-onERC721Received}, which is called upon a safe transfer. Emits a {Transfer} event."
      },
      "safeTransferFrom(address,address,uint256,bytes)": {
        "details": "See {IERC721-safeTransferFrom}."
      },
      "setApprovalForAll(address,bool)": {
        "details": "See {IERC721-setApprovalForAll}."
      },
      "supportsInterface(bytes4)": {
        "details": "See {IERC165-supportsInterface}."
      },
      "symbol()": {
        "details": "See {IERC721Metadata-symbol}."
      },
      "tokenByIndex(uint256)": {
        "details": "See {IERC721Enumerable-tokenByIndex}."
      },
      "tokenOfOwnerByIndex(address,uint256)": {
        "details": "See {IERC721Enumerable-tokenOfOwnerByIndex}."
      },
      "tokenURI(uint256)": {
        "details": "See {IERC721Metadata-tokenURI}."
      },
      "totalSupply()": {
        "details": "See {IERC721Enumerable-totalSupply}."
      },
      "transferFrom(address,address,uint256)": {
        "details": "See {IERC721-transferFrom}."
      },
      "unpause()": {
        "details": "Unpauses all token transfers. See {ERC721Pausable} and {Pausable-_unpause}. Requirements: - the caller must have the `PAUSER_ROLE`."
      }
    },
    "version": 1
  },
  "userdoc": {
    "kind": "user",
    "methods": {
      "getToken()": {
        "notice": "Getter and Setter of _token (ERC20)*"
      }
    },
    "version": 1
  }
}