{
  "contractName": "ERC721",
  "abi": [
    {
      "inputs": [
        {
          "internalType": "string",
          "name": "name_",
          "type": "string"
        },
        {
          "internalType": "string",
          "name": "symbol_",
          "type": "string"
        }
      ],
      "stateMutability": "nonpayable",
      "type": "constructor"
    },
    {
      "anonymous": false,
      "inputs": [
        {
          "indexed": true,
          "internalType": "address",
          "name": "owner",
          "type": "address"
        },
        {
          "indexed": true,
          "internalType": "address",
          "name": "approved",
          "type": "address"
        },
        {
          "indexed": true,
          "internalType": "uint256",
          "name": "tokenId",
          "type": "uint256"
        }
      ],
      "name": "Approval",
      "type": "event"
    },
    {
      "anonymous": false,
      "inputs": [
        {
          "indexed": true,
          "internalType": "address",
          "name": "owner",
          "type": "address"
        },
        {
          "indexed": true,
          "internalType": "address",
          "name": "operator",
          "type": "address"
        },
        {
          "indexed": false,
          "internalType": "bool",
          "name": "approved",
          "type": "bool"
        }
      ],
      "name": "ApprovalForAll",
      "type": "event"
    },
    {
      "anonymous": false,
      "inputs": [
        {
          "indexed": true,
          "internalType": "address",
          "name": "from",
          "type": "address"
        },
        {
          "indexed": true,
          "internalType": "address",
          "name": "to",
          "type": "address"
        },
        {
          "indexed": true,
          "internalType": "uint256",
          "name": "tokenId",
          "type": "uint256"
        }
      ],
      "name": "Transfer",
      "type": "event"
    },
    {
      "inputs": [
        {
          "internalType": "uint256",
          "name": "",
          "type": "uint256"
        }
      ],
      "name": "_creator",
      "outputs": [
        {
          "internalType": "address",
          "name": "",
          "type": "address"
        }
      ],
      "stateMutability": "view",
      "type": "function"
    },
    {
      "inputs": [
        {
          "internalType": "uint256",
          "name": "",
          "type": "uint256"
        }
      ],
      "name": "_owners",
      "outputs": [
        {
          "internalType": "address",
          "name": "",
          "type": "address"
        }
      ],
      "stateMutability": "view",
      "type": "function"
    },
    {
      "inputs": [
        {
          "internalType": "uint256",
          "name": "",
          "type": "uint256"
        }
      ],
      "name": "_sellPrice",
      "outputs": [
        {
          "internalType": "uint256",
          "name": "",
          "type": "uint256"
        }
      ],
      "stateMutability": "view",
      "type": "function"
    },
    {
      "inputs": [
        {
          "internalType": "uint256",
          "name": "",
          "type": "uint256"
        }
      ],
      "name": "_sellingNFTs",
      "outputs": [
        {
          "internalType": "uint256",
          "name": "",
          "type": "uint256"
        }
      ],
      "stateMutability": "view",
      "type": "function"
    },
    {
      "inputs": [
        {
          "internalType": "uint256",
          "name": "",
          "type": "uint256"
        }
      ],
      "name": "_sellingNFTsIndexes",
      "outputs": [
        {
          "internalType": "uint256",
          "name": "",
          "type": "uint256"
        }
      ],
      "stateMutability": "view",
      "type": "function"
    },
    {
      "inputs": [],
      "name": "getSellingNFTs",
      "outputs": [
        {
          "internalType": "uint256[]",
          "name": "",
          "type": "uint256[]"
        }
      ],
      "stateMutability": "view",
      "type": "function"
    },
    {
      "inputs": [
        {
          "internalType": "uint256",
          "name": "tokenId",
          "type": "uint256"
        },
        {
          "internalType": "uint256",
          "name": "price",
          "type": "uint256"
        }
      ],
      "name": "startSellingNFT",
      "outputs": [
        {
          "internalType": "bool",
          "name": "",
          "type": "bool"
        }
      ],
      "stateMutability": "nonpayable",
      "type": "function"
    },
    {
      "inputs": [
        {
          "internalType": "uint256",
          "name": "tokenId",
          "type": "uint256"
        }
      ],
      "name": "cancelSellingNFT",
      "outputs": [
        {
          "internalType": "bool",
          "name": "",
          "type": "bool"
        }
      ],
      "stateMutability": "nonpayable",
      "type": "function"
    },
    {
      "inputs": [
        {
          "internalType": "uint256",
          "name": "tokenId",
          "type": "uint256"
        }
      ],
      "name": "buyNFT",
      "outputs": [
        {
          "internalType": "bool",
          "name": "",
          "type": "bool"
        }
      ],
      "stateMutability": "payable",
      "type": "function"
    },
    {
      "inputs": [
        {
          "internalType": "uint256",
          "name": "tokenId",
          "type": "uint256"
        }
      ],
      "name": "getSellPrice",
      "outputs": [
        {
          "internalType": "uint256",
          "name": "",
          "type": "uint256"
        }
      ],
      "stateMutability": "view",
      "type": "function"
    },
    {
      "inputs": [],
      "name": "getToken",
      "outputs": [
        {
          "internalType": "contract ERC20",
          "name": "",
          "type": "address"
        }
      ],
      "stateMutability": "view",
      "type": "function"
    },
    {
      "inputs": [
        {
          "internalType": "address",
          "name": "tokenAddress",
          "type": "address"
        }
      ],
      "name": "setToken",
      "outputs": [],
      "stateMutability": "nonpayable",
      "type": "function"
    },
    {
      "inputs": [
        {
          "internalType": "bytes4",
          "name": "interfaceId",
          "type": "bytes4"
        }
      ],
      "name": "supportsInterface",
      "outputs": [
        {
          "internalType": "bool",
          "name": "",
          "type": "bool"
        }
      ],
      "stateMutability": "view",
      "type": "function"
    },
    {
      "inputs": [
        {
          "internalType": "address",
          "name": "owner",
          "type": "address"
        }
      ],
      "name": "balanceOf",
      "outputs": [
        {
          "internalType": "uint256",
          "name": "",
          "type": "uint256"
        }
      ],
      "stateMutability": "view",
      "type": "function"
    },
    {
      "inputs": [
        {
          "internalType": "uint256",
          "name": "tokenId",
          "type": "uint256"
        }
      ],
      "name": "ownerOf",
      "outputs": [
        {
          "internalType": "address",
          "name": "",
          "type": "address"
        }
      ],
      "stateMutability": "view",
      "type": "function"
    },
    {
      "inputs": [],
      "name": "name",
      "outputs": [
        {
          "internalType": "string",
          "name": "",
          "type": "string"
        }
      ],
      "stateMutability": "view",
      "type": "function"
    },
    {
      "inputs": [],
      "name": "symbol",
      "outputs": [
        {
          "internalType": "string",
          "name": "",
          "type": "string"
        }
      ],
      "stateMutability": "view",
      "type": "function"
    },
    {
      "inputs": [
        {
          "internalType": "uint256",
          "name": "tokenId",
          "type": "uint256"
        }
      ],
      "name": "tokenURI",
      "outputs": [
        {
          "internalType": "string",
          "name": "",
          "type": "string"
        }
      ],
      "stateMutability": "view",
      "type": "function"
    },
    {
      "inputs": [
        {
          "internalType": "address",
          "name": "to",
          "type": "address"
        },
        {
          "internalType": "uint256",
          "name": "tokenId",
          "type": "uint256"
        }
      ],
      "name": "approve",
      "outputs": [],
      "stateMutability": "nonpayable",
      "type": "function"
    },
    {
      "inputs": [
        {
          "internalType": "uint256",
          "name": "tokenId",
          "type": "uint256"
        }
      ],
      "name": "getApproved",
      "outputs": [
        {
          "internalType": "address",
          "name": "",
          "type": "address"
        }
      ],
      "stateMutability": "view",
      "type": "function"
    },
    {
      "inputs": [
        {
          "internalType": "address",
          "name": "operator",
          "type": "address"
        },
        {
          "internalType": "bool",
          "name": "approved",
          "type": "bool"
        }
      ],
      "name": "setApprovalForAll",
      "outputs": [],
      "stateMutability": "nonpayable",
      "type": "function"
    },
    {
      "inputs": [
        {
          "internalType": "address",
          "name": "owner",
          "type": "address"
        },
        {
          "internalType": "address",
          "name": "operator",
          "type": "address"
        }
      ],
      "name": "isApprovedForAll",
      "outputs": [
        {
          "internalType": "bool",
          "name": "",
          "type": "bool"
        }
      ],
      "stateMutability": "view",
      "type": "function"
    },
    {
      "inputs": [
        {
          "internalType": "address",
          "name": "from",
          "type": "address"
        },
        {
          "internalType": "address",
          "name": "to",
          "type": "address"
        },
        {
          "internalType": "uint256",
          "name": "tokenId",
          "type": "uint256"
        }
      ],
      "name": "transferFrom",
      "outputs": [],
      "stateMutability": "nonpayable",
      "type": "function"
    },
    {
      "inputs": [
        {
          "internalType": "uint256",
          "name": "tokenId",
          "type": "uint256"
        },
        {
          "internalType": "address",
          "name": "to",
          "type": "address"
        }
      ],
      "name": "_spend",
      "outputs": [
        {
          "internalType": "bool",
          "name": "",
          "type": "bool"
        }
      ],
      "stateMutability": "nonpayable",
      "type": "function"
    },
    {
      "inputs": [
        {
          "internalType": "address",
          "name": "from",
          "type": "address"
        },
        {
          "internalType": "address",
          "name": "to",
          "type": "address"
        },
        {
          "internalType": "uint256",
          "name": "tokenId",
          "type": "uint256"
        }
      ],
      "name": "safeTransferFrom",
      "outputs": [],
      "stateMutability": "nonpayable",
      "type": "function"
    },
    {
      "inputs": [
        {
          "internalType": "address",
          "name": "from",
          "type": "address"
        },
        {
          "internalType": "address",
          "name": "to",
          "type": "address"
        },
        {
          "internalType": "uint256",
          "name": "tokenId",
          "type": "uint256"
        },
        {
          "internalType": "bytes",
          "name": "_data",
          "type": "bytes"
        }
      ],
      "name": "safeTransferFrom",
      "outputs": [],
      "stateMutability": "nonpayable",
      "type": "function"
    }
  ],
  "bytecode": "0x60806040523480156200001157600080fd5b50604051620024bd380380620024bd8339810160408190526200003491620001cb565b8151620000499060019060208501906200007a565b5080516200005f9060029060208401906200007a565b505060038054600160a060020a0319163317905550620002b7565b828054620000889062000232565b90600052602060002090601f016020900481019282620000ac5760008555620000f7565b82601f10620000c757805160ff1916838001178555620000f7565b82800160010185558215620000f7579182015b82811115620000f7578251825591602001919060010190620000da565b506200010592915062000109565b5090565b5b808211156200010557600081556001016200010a565b600082601f83011262000131578081fd5b81516001604060020a03808211156200014e576200014e62000288565b6040516020601f8401601f191682018101838111838210171562000176576200017662000288565b60405283825285840181018710156200018d578485fd5b8492505b83831015620001b0578583018101518284018201529182019162000191565b83831115620001c157848185840101525b5095945050505050565b60008060408385031215620001de578182fd5b82516001604060020a0380821115620001f5578384fd5b620002038683870162000120565b9350602085015191508082111562000219578283fd5b50620002288582860162000120565b9150509250929050565b6002810460018216806200024757607f821691505b6020821081141562000282577f4e487b7100000000000000000000000000000000000000000000000000000000600052602260045260246000fd5b50919050565b7f4e487b7100000000000000000000000000000000000000000000000000000000600052604160045260246000fd5b6121f680620002c76000396000f3fe60806040526004361061019e576000357c0100000000000000000000000000000000000000000000000000000000900480636d3d6028116100ee578063992924a6116100a7578063ba730e5311610081578063ba730e5314610476578063c494b08214610496578063c87b56dd146104b6578063e985e9c5146104d65761019e565b8063992924a614610416578063a22cb46514610436578063b88d4fde146104565761019e565b80636d3d60281461035f57806370a082311461037f5780637211a20a1461039f57806380cf4dad146103c15780639564470e146103e157806395d89b41146104015761019e565b806323b872dd1161015b578063417871971161013557806341787197146102ec57806342842e0e1461030c57806351ed82881461032c5780636352211e1461033f5761019e565b806323b872dd1461027f5780632838324b1461029f57806329e02e70146102cc5761019e565b806301ffc9a7146101a357806306fdde03146101d9578063081812fc146101fb578063095ea7b314610228578063144fa6d71461024a57806321df0da71461026a575b600080fd5b3480156101af57600080fd5b506101c36101be3660046118aa565b6104f6565b6040516101d09190611a5d565b60405180910390f35b3480156101e557600080fd5b506101ee610570565b6040516101d09190611a68565b34801561020757600080fd5b5061021b6102163660046118e2565b610602565b6040516101d091906119b0565b34801561023457600080fd5b50610248610243366004611865565b610651565b005b34801561025657600080fd5b506102486102653660046116dc565b6106ef565b34801561027657600080fd5b5061021b61074b565b34801561028b57600080fd5b5061024861029a366004611728565b61075a565b3480156102ab57600080fd5b506102bf6102ba3660046118e2565b610795565b6040516101d09190612069565b3480156102d857600080fd5b5061021b6102e73660046118e2565b6107a7565b3480156102f857600080fd5b506102bf6103073660046118e2565b6107c2565b34801561031857600080fd5b50610248610327366004611728565b6107d4565b6101c361033a3660046118e2565b6107ef565b34801561034b57600080fd5b5061021b61035a3660046118e2565b610b60565b34801561036b57600080fd5b506101c361037a366004611934565b610b98565b34801561038b57600080fd5b506102bf61039a3660046116dc565b610c8b565b3480156103ab57600080fd5b506103b4610cd2565b6040516101d09190611a19565b3480156103cd57600080fd5b506102bf6103dc3660046118e2565b610d29565b3480156103ed57600080fd5b506101c36103fc366004611912565b610d4a565b34801561040d57600080fd5b506101ee610d60565b34801561042257600080fd5b5061021b6104313660046118e2565b610d6f565b34801561044257600080fd5b5061024861045136600461182f565b610d8a565b34801561046257600080fd5b50610248610471366004611763565b610e5b565b34801561048257600080fd5b506102bf6104913660046118e2565b610e9d565b3480156104a257600080fd5b506101c36104b13660046118e2565b610eaf565b3480156104c257600080fd5b506101ee6104d13660046118e2565b610f2f565b3480156104e257600080fd5b506101c36104f13660046116f6565b610fb5565b6000600160e060020a031982167f80ac58cd0000000000000000000000000000000000000000000000000000000014806105595750600160e060020a031982167f5b5e139f00000000000000000000000000000000000000000000000000000000145b80610568575061056882610fe3565b90505b919050565b60606001805461057f906120e1565b80601f01602080910402602001604051908101604052809291908181526020018280546105ab906120e1565b80156105f85780601f106105cd576101008083540402835291602001916105f8565b820191906000526020600020905b8154815290600101906020018083116105db57829003601f168201915b5050505050905090565b600061060d82611015565b6106355760405160e560020a62461bcd02815260040161062c90611e2a565b60405180910390fd5b50600090815260076020526040902054600160a060020a031690565b600061065c82610b60565b905080600160a060020a031683600160a060020a031614156106935760405160e560020a62461bcd02815260040161062c90611faf565b80600160a060020a03166106a5611032565b600160a060020a031614806106c157506106c1816104f1611032565b6106e05760405160e560020a62461bcd02815260040161062c90611c37565b6106ea8383611036565b505050565b600354600160a060020a0316331461071c5760405160e560020a62461bcd02815260040161062c90611d85565b6000805473ffffffffffffffffffffffffffffffffffffffff1916600160a060020a0392909216919091179055565b600054600160a060020a031690565b61076b610765611032565b826110b1565b61078a5760405160e560020a62461bcd02815260040161062c9061200c565b6106ea838383611139565b600a6020526000908152604090205481565b600560205260009081526040902054600160a060020a031681565b60096020526000908152604090205481565b6106ea83838360405180602001604052806000815250610e5b565b60008181526009602052604081205461081d5760405160e560020a62461bcd02815260040161062c90611c94565b600082815260046020526040902054600160a060020a03163314156108575760405160e560020a62461bcd02815260040161062c90611df3565b60008281526009602052604080822054915490517f70a08231000000000000000000000000000000000000000000000000000000008152600160a060020a03909116906370a08231906108ae9033906004016119b0565b60206040518083038186803b1580156108c657600080fd5b505afa1580156108da573d6000803e3d6000fd5b505050506040513d601f19601f820116820180604052508101906108fe91906118fa565b101561091f5760405160e560020a62461bcd02815260040161062c90611b0f565b6000805483825260096020526040918290205491517f6aade288000000000000000000000000000000000000000000000000000000008152600160a060020a0390911691636aade28891610977913391600401611a00565b602060405180830381600087803b15801561099157600080fd5b505af11580156109a5573d6000803e3d6000fd5b505050506040513d601f19601f820116820180604052508101906109c9919061188e565b6109e85760405160e560020a62461bcd02815260040161062c90611f78565b60008054838252600460208181526040808520546009909252938490205493517fa9059cbb000000000000000000000000000000000000000000000000000000008152600160a060020a039384169463a9059cbb94610a4c94931692909101611a00565b602060405180830381600087803b158015610a6657600080fd5b505af1158015610a7a573d6000803e3d6000fd5b505050506040513d601f19601f82011682018060405250810190610a9e919061188e565b50600082815260046020908152604080832054600160a060020a0316835260069091528120805460019290610ad490849061209e565b9091555050336000908152600660205260408120805460019290610af9908490612072565b90915550506000828152600460209081526040808320805473ffffffffffffffffffffffffffffffffffffffff191633179055600a909152902054610b3e9083611279565b506000908152600a602090815260408083208390556009909152812055600190565b600081815260046020526040812054600160a060020a0316806105685760405160e560020a62461bcd02815260040161062c90611d28565b600082815260046020526040812054600160a060020a03163314610bd15760405160e560020a62461bcd02815260040161062c90611f41565b60008211610bf45760405160e560020a62461bcd02815260040161062c90611a7b565b60008381526009602052604090205415610c235760405160e560020a62461bcd02815260040161062c90611dbc565b6000838152600960205260408120839055600b805460018181018355928290527f0175b7a638427703f0dbe7bb9bbf987a2551717b34e79f33b5b1008d1fa01db90185905554610c73919061209e565b6000848152600a602052604090205550600192915050565b6000600160a060020a038216610cb65760405160e560020a62461bcd02815260040161062c90611ccb565b50600160a060020a031660009081526006602052604090205490565b6060600b8054806020026020016040519081016040528092919081815260200182805480156105f857602002820191906000526020600020905b815481526020019060010190808311610d0c575050505050905090565b600b8181548110610d3957600080fd5b600091825260209091200154905081565b6000610d573383856107d4565b50600192915050565b60606002805461057f906120e1565b600460205260009081526040902054600160a060020a031681565b610d92611032565b600160a060020a031682600160a060020a03161415610dc65760405160e560020a62461bcd02815260040161062c90611ba3565b8060086000610dd3611032565b600160a060020a03908116825260208083019390935260409182016000908120918716808252919093529120805460ff191692151592909217909155610e17611032565b600160a060020a03167f17307eab39ab6107e8899845ad3d59bd9653f200f220920489ca2b5937696c3183604051610e4f9190611a5d565b60405180910390a35050565b610e6c610e66611032565b836110b1565b610e8b5760405160e560020a62461bcd02815260040161062c9061200c565b610e97848484846113b0565b50505050565b60009081526009602052604090205490565b600081815260046020526040812054600160a060020a03163314610ee85760405160e560020a62461bcd02815260040161062c90611f41565b600082815260096020526040902054610f165760405160e560020a62461bcd02815260040161062c90611c94565b6000828152600a6020526040902054610b3e9083611279565b6060610f3a82611015565b610f595760405160e560020a62461bcd02815260040161062c90611ee4565b6000610f636113e6565b90506000815111610f835760405180602001604052806000815250610fae565b80610f8d846113f8565b604051602001610f9e929190611981565b6040516020818303038152906040525b9392505050565b600160a060020a03918216600090815260086020908152604080832093909416825291909152205460ff1690565b600160e060020a031981167f01ffc9a70000000000000000000000000000000000000000000000000000000014919050565b600090815260046020526040902054600160a060020a0316151590565b3390565b6000818152600760205260409020805473ffffffffffffffffffffffffffffffffffffffff1916600160a060020a038416908117909155819061107882610b60565b600160a060020a03167f8c5be1e5ebec7d5bd14f71427d1e84f3dd0314c0f7b2291e5b200ac8c7c3b92560405160405180910390a45050565b60006110bc82611015565b6110db5760405160e560020a62461bcd02815260040161062c90611bda565b60006110e683610b60565b905080600160a060020a031684600160a060020a03161480611121575083600160a060020a031661111684610602565b600160a060020a0316145b8061113157506111318185610fb5565b949350505050565b82600160a060020a031661114c82610b60565b600160a060020a0316146111755760405160e560020a62461bcd02815260040161062c90611e87565b600160a060020a03821661119e5760405160e560020a62461bcd02815260040161062c90611b46565b6111a98383836106ea565b6111b4600082611036565b600160a060020a03831660009081526006602052604081208054600192906111dd90849061209e565b9091555050600160a060020a038216600090815260066020526040812080546001929061120b908490612072565b9091555050600081815260046020526040808220805473ffffffffffffffffffffffffffffffffffffffff1916600160a060020a0386811691821790925591518493918716917fddf252ad1be2c89b69c2b068fc378daa952ba7f163c4a11628f55a4df523b3ef91a4505050565b600b548210611287576113ac565b6000818152600a6020526040812055815b600b546112a79060019061209e565b81101561137257600b6112bb826001612072565b815481106112dc5760e060020a634e487b7102600052603260045260246000fd5b9060005260206000200154600b828154811061130b5760e060020a634e487b7102600052603260045260246000fd5b906000526020600020018190555080600a6000600b84815481106113425760e060020a634e487b7102600052603260045260246000fd5b9060005260206000200154815260200190815260200160002081905550808061136a9061211f565b915050611298565b50600b8054806113955760e060020a634e487b7102600052603160045260246000fd5b600190038181906000526020600020016000905590555b5050565b6113bb848484611139565b6113c78484848461156c565b610e975760405160e560020a62461bcd02815260040161062c90611ab2565b60408051602081019091526000815290565b606081611439575060408051808201909152600181527f3000000000000000000000000000000000000000000000000000000000000000602082015261056b565b8160005b8115611463578061144d8161211f565b915061145c9050600a8361208a565b915061143d565b60008167ffffffffffffffff81111561148f5760e060020a634e487b7102600052604160045260246000fd5b6040519080825280601f01601f1916602001820160405280156114b9576020820181803683370190505b5090505b8415611131576114ce60018361209e565b91506114db600a8661213a565b6114e6906030612072565b7f01000000000000000000000000000000000000000000000000000000000000000281838151811061152b5760e060020a634e487b7102600052603260045260246000fd5b60200101907effffffffffffffffffffffffffffffffffffffffffffffffffffffffffffff1916908160001a905350611565600a8661208a565b94506114bd565b600061158084600160a060020a03166116bf565b156116b45783600160a060020a031663150b7a0261159c611032565b8786866040518563ffffffff167c01000000000000000000000000000000000000000000000000000000000281526004016115da94939291906119c4565b602060405180830381600087803b1580156115f457600080fd5b505af1925050508015611624575060408051601f3d908101601f19168201909252611621918101906118c6565b60015b611681573d808015611652576040519150601f19603f3d011682016040523d82523d6000602084013e611657565b606091505b5080516116795760405160e560020a62461bcd02815260040161062c90611ab2565b805181602001fd5b600160e060020a0319167f150b7a0200000000000000000000000000000000000000000000000000000000149050611131565b506001949350505050565b3b151590565b8035600160a060020a038116811461056b57600080fd5b6000602082840312156116ed578081fd5b610fae826116c5565b60008060408385031215611708578081fd5b611711836116c5565b915061171f602084016116c5565b90509250929050565b60008060006060848603121561173c578081fd5b611745846116c5565b9250611753602085016116c5565b9150604084013590509250925092565b60008060008060808587031215611778578081fd5b611781856116c5565b935060206117908187016116c5565b935060408601359250606086013567ffffffffffffffff808211156117b3578384fd5b818801915088601f8301126117c6578384fd5b8135818111156117d8576117d8612180565b604051601f8201601f19168101850183811182821017156117fb576117fb612180565b60405281815283820185018b1015611811578586fd5b81858501868301379081019093019390935250939692955090935050565b60008060408385031215611841578182fd5b61184a836116c5565b9150602083013561185a81612199565b809150509250929050565b60008060408385031215611877578182fd5b611880836116c5565b946020939093013593505050565b60006020828403121561189f578081fd5b8151610fae81612199565b6000602082840312156118bb578081fd5b8135610fae816121aa565b6000602082840312156118d7578081fd5b8151610fae816121aa565b6000602082840312156118f3578081fd5b5035919050565b60006020828403121561190b578081fd5b5051919050565b60008060408385031215611924578182fd5b8235915061171f602084016116c5565b60008060408385031215611946578182fd5b50508035926020909101359150565b6000815180845261196d8160208601602086016120b5565b601f01601f19169290920160200192915050565b600083516119938184602088016120b5565b8351908301906119a78183602088016120b5565b01949350505050565b600160a060020a0391909116815260200190565b6000600160a060020a038087168352808616602084015250836040830152608060608301526119f66080830184611955565b9695505050505050565b600160a060020a03929092168252602082015260400190565b6020808252825182820181905260009190848201906040850190845b81811015611a5157835183529284019291840191600101611a35565b50909695505050505050565b901515815260200190565b600060208252610fae6020830184611955565b6020808252601e908201527f70726963652073686f756c642062652067726561746572207468616e20300000604082015260600190565b60208082526032908201527f4552433732313a207472616e7366657220746f206e6f6e20455243373231526560408201527f63656976657220696d706c656d656e7465720000000000000000000000000000606082015260800190565b6020808252600b908201527f4c6f772062616c616e6365000000000000000000000000000000000000000000604082015260600190565b60208082526024908201527f4552433732313a207472616e7366657220746f20746865207a65726f2061646460408201527f7265737300000000000000000000000000000000000000000000000000000000606082015260800190565b60208082526019908201527f4552433732313a20617070726f766520746f2063616c6c657200000000000000604082015260600190565b6020808252602c908201527f4552433732313a206f70657261746f7220717565727920666f72206e6f6e657860408201527f697374656e7420746f6b656e0000000000000000000000000000000000000000606082015260800190565b60208082526038908201527f4552433732313a20617070726f76652063616c6c6572206973206e6f74206f7760408201527f6e6572206e6f7220617070726f76656420666f7220616c6c0000000000000000606082015260800190565b60208082526016908201527f6e6f742053656c6c696e67207468697320746f6b656e00000000000000000000604082015260600190565b6020808252602a908201527f4552433732313a2062616c616e636520717565727920666f7220746865207a6560408201527f726f206164647265737300000000000000000000000000000000000000000000606082015260800190565b60208082526029908201527f4552433732313a206f776e657220717565727920666f72206e6f6e657869737460408201527f656e7420746f6b656e0000000000000000000000000000000000000000000000606082015260800190565b6020808252601f908201527f63616e2062652063616c6c656420627920436f6e7472616374204f776e657200604082015260600190565b6020808252600f908201527f416c72656164792053656c6c696e670000000000000000000000000000000000604082015260600190565b6020808252601d908201527f4f776e65722063616e6e6f74206275792069742773206f776e204e4654000000604082015260600190565b6020808252602c908201527f4552433732313a20617070726f76656420717565727920666f72206e6f6e657860408201527f697374656e7420746f6b656e0000000000000000000000000000000000000000606082015260800190565b60208082526029908201527f4552433732313a207472616e73666572206f6620746f6b656e2074686174206960408201527f73206e6f74206f776e0000000000000000000000000000000000000000000000606082015260800190565b6020808252602f908201527f4552433732314d657461646174613a2055524920717565727920666f72206e6f60408201527f6e6578697374656e7420746f6b656e0000000000000000000000000000000000606082015260800190565b60208082526018908201527f63616e20626520736574206279206f776e6572206f6e6c790000000000000000604082015260600190565b60208082526018908201527f546f6b656e205472616e73656374696f6e204661696c65640000000000000000604082015260600190565b60208082526021908201527f4552433732313a20617070726f76616c20746f2063757272656e74206f776e6560408201527f7200000000000000000000000000000000000000000000000000000000000000606082015260800190565b60208082526031908201527f4552433732313a207472616e736665722063616c6c6572206973206e6f74206f60408201527f776e6572206e6f7220617070726f766564000000000000000000000000000000606082015260800190565b90815260200190565b600082198211156120855761208561214e565b500190565b60008261209957612099612167565b500490565b6000828210156120b0576120b061214e565b500390565b60005b838110156120d05781810151838201526020016120b8565b83811115610e975750506000910152565b6002810460018216806120f557607f821691505b602082108114156121195760e060020a634e487b7102600052602260045260246000fd5b50919050565b60006000198214156121335761213361214e565b5060010190565b60008261214957612149612167565b500690565b60e060020a634e487b7102600052601160045260246000fd5b60e060020a634e487b7102600052601260045260246000fd5b60e060020a634e487b7102600052604160045260246000fd5b80151581146121a757600080fd5b50565b600160e060020a0319811681146121a757600080fdfea26469706673582212209cecce4d835c8c681254706b87db8784f1a7b03a29b6a4d5cd0c85dd06ac521d64736f6c63430008000033",
  "immutableReferences": {},
  "source": "// SPDX-License-Identifier: MIT\n\npragma solidity ^0.8.0;\n\nimport \"./IERC721.sol\";\nimport \"./IERC721Receiver.sol\";\nimport \"./extensions/IERC721Metadata.sol\";\nimport \"../utils/Address.sol\";\nimport \"../utils/Context.sol\";\nimport \"../utils/Strings.sol\";\nimport \"../utils/introspection/ERC165.sol\";\nimport \"../ERC20/ERC20.sol\";\n/**\n * @dev Implementation of https://eips.ethereum.org/EIPS/eip-721[ERC721] Non-Fungible Token Standard, including\n * the Metadata extension, but not including the Enumerable extension, which is available separately as\n * {ERC721Enumerable}.\n */\n\ncontract ERC721 is Context, ERC165, IERC721, IERC721Metadata {\n    using Address for address;\n    using Strings for uint256;\n\n    //ERC20 Token\n    ERC20 private _token; // getters and setters\n\n    // Token name\n    string private _name;\n\n    // Token symbol\n    string private _symbol;\n    address private ownership;\n    // Mapping from token ID to owner address\n    mapping(uint256 => address) public _owners;\n\n    // Mapping from token ID to creator address\n    mapping(uint256 => address) public _creator;\n    // Mapping owner address to token count\n    mapping(address => uint256) private _balances;\n\n    // Mapping from token ID to approved address\n    mapping(uint256 => address) private _tokenApprovals;\n\n    // Mapping from owner to operator approvals\n    mapping(address => mapping(address => bool)) private _operatorApprovals;\n\n\n    //mapping of tokenId to sellPrices\n    mapping(uint256 => uint256) public _sellPrice;\n    mapping(uint256 => uint256) public _sellingNFTsIndexes;\n    uint256[] public _sellingNFTs;\n\n    // Events that will be emitted on changes.\n\n    /**\n     * @dev Initializes the contract by setting a `name` and a `symbol` to the token collection.\n     */\n    constructor(string memory name_, string memory symbol_) {\n        _name = name_;\n        _symbol = symbol_;\n        ownership = msg.sender;\n    }\n\n    function getSellingNFTs() public view returns(uint256[] memory){\n        return _sellingNFTs;\n    }\n    function startSellingNFT(uint256 tokenId, uint256 price) public returns(bool){\n        require(msg.sender == _owners[tokenId], \"can be set by owner only\");\n        require(price > 0,\"price should be greater than 0\");\n        require(!(_sellPrice[tokenId] > 0), \"Already Selling\");\n        // require(price > _sellPrice[tokenId], \"new price should be higher than previous price\");\n        _sellPrice[tokenId] = price;\n        _sellingNFTs.push(tokenId);\n        _sellingNFTsIndexes[tokenId] = _sellingNFTs.length-1;\n        return true;\n    }\n    function cancelSellingNFT(uint256 tokenId) public returns(bool){\n        require(msg.sender == _owners[tokenId], \"can be set by owner only\");\n        require(_sellPrice[tokenId] > 0, \"not Selling this token\");\n        removeSellingNFTs(_sellingNFTsIndexes[tokenId], tokenId);\n        delete _sellingNFTsIndexes[tokenId];\n        delete _sellPrice[tokenId];\n        return true;\n    }\n\n    function buyNFT(uint256 tokenId) public payable returns(bool){\n        require(_sellPrice[tokenId] > 0, \"not Selling this token\");\n        require(msg.sender != _owners[tokenId],\"Owner cannot buy it's own NFT\");\n        require(_token.balanceOf(msg.sender) >= _sellPrice[tokenId],\"Low balance\");\n        require(_token.spendFrom(msg.sender, _sellPrice[tokenId]),\"Token Transection Failed\");\n\n        _token.transfer(_owners[tokenId], (_sellPrice[tokenId]));\n        _balances[_owners[tokenId]] -= 1;\n        _balances[msg.sender] += 1;\n        _owners[tokenId] = msg.sender;\n        removeSellingNFTs(_sellingNFTsIndexes[tokenId], tokenId);\n        delete _sellingNFTsIndexes[tokenId];\n        delete _sellPrice[tokenId];\n        return true;\n    }\n\n\n    function getSellPrice(uint256 tokenId) public view returns(uint256){\n        return _sellPrice[tokenId];\n    }\n    function removeSellingNFTs(uint256 index, uint256 tokenId) private /* returns(uint[]) */{\n        if (index >= _sellingNFTs.length) return;\n        delete _sellingNFTsIndexes[tokenId];\n        for (uint i = index; i<_sellingNFTs.length-1; i++){\n            _sellingNFTs[i] = _sellingNFTs[i+1];\n            _sellingNFTsIndexes[_sellingNFTs[i]] = i;\n        }\n        _sellingNFTs.pop();\n        // return _sellingNFTs;\n    }\n    /**\n     * Getter and Setter of _token (ERC20)\n     **/\n    function getToken() public view returns (ERC20){\n        return _token;\n    }\n\n    //  ERC20 private _token; // getters and setters\n    function setToken(address tokenAddress) public {\n        require(msg.sender == ownership, \"can be called by Contract Owner\");\n        _token = ERC20(tokenAddress);\n    }\n\n    /**\n     * @dev See {IERC165-supportsInterface}.\n     */\n    function supportsInterface(bytes4 interfaceId) public view virtual override(ERC165, IERC165) returns (bool) {\n        return\n        interfaceId == type(IERC721).interfaceId ||\n        interfaceId == type(IERC721Metadata).interfaceId ||\n        super.supportsInterface(interfaceId);\n    }\n\n    /**\n     * @dev See {IERC721-balanceOf}.\n     */\n    function balanceOf(address owner) public view virtual override returns (uint256) {\n        require(owner != address(0), \"ERC721: balance query for the zero address\");\n        return _balances[owner];\n    }\n\n\n    /**\n     * @dev See {IERC721-ownerOf}.\n     */\n    function ownerOf(uint256 tokenId) public view virtual override returns (address) {\n        address owner = _owners[tokenId];\n        require(owner != address(0), \"ERC721: owner query for nonexistent token\");\n        return owner;\n    }\n\n    /**\n     * @dev See {IERC721Metadata-name}.\n     */\n    function name() public view virtual override returns (string memory) {\n        return _name;\n    }\n\n    /**\n     * @dev See {IERC721Metadata-symbol}.\n     */\n    function symbol() public view virtual override returns (string memory) {\n        return _symbol;\n    }\n\n    /**\n     * @dev See {IERC721Metadata-tokenURI}.\n     */\n    function tokenURI(uint256 tokenId) public view virtual override returns (string memory) {\n        require(_exists(tokenId), \"ERC721Metadata: URI query for nonexistent token\");\n\n        string memory baseURI = _baseURI();\n        return bytes(baseURI).length > 0 ? string(abi.encodePacked(baseURI, tokenId.toString())) : \"\";\n    }\n\n    /**\n     * @dev Base URI for computing {tokenURI}. If set, the resulting URI for each\n     * token will be the concatenation of the `baseURI` and the `tokenId`. Empty\n     * by default, can be overriden in child contracts.\n     */\n    function _baseURI() internal view virtual returns (string memory) {\n        return \"\";\n    }\n\n    /**\n     * @dev See {IERC721-approve}.\n     */\n    function approve(address to, uint256 tokenId) public virtual override {\n        address owner = ERC721.ownerOf(tokenId);\n        require(to != owner, \"ERC721: approval to current owner\");\n\n        require(\n            _msgSender() == owner || isApprovedForAll(owner, _msgSender()),\n            \"ERC721: approve caller is not owner nor approved for all\"\n        );\n\n        _approve(to, tokenId);\n    }\n\n    /**\n     * @dev See {IERC721-getApproved}.\n     */\n    function getApproved(uint256 tokenId) public view virtual override returns (address) {\n        require(_exists(tokenId), \"ERC721: approved query for nonexistent token\");\n\n        return _tokenApprovals[tokenId];\n    }\n\n    /**\n     * @dev See {IERC721-setApprovalForAll}.\n     */\n    function setApprovalForAll(address operator, bool approved) public virtual override {\n        require(operator != _msgSender(), \"ERC721: approve to caller\");\n\n        _operatorApprovals[_msgSender()][operator] = approved;\n        emit ApprovalForAll(_msgSender(), operator, approved);\n    }\n\n    /**\n     * @dev See {IERC721-isApprovedForAll}.\n     */\n    function isApprovedForAll(address owner, address operator) public view virtual override returns (bool) {\n        return _operatorApprovals[owner][operator];\n    }\n\n    /**\n     * @dev See {IERC721-transferFrom}.\n     */\n    function transferFrom(\n        address from,\n        address to,\n        uint256 tokenId\n    ) public virtual override {\n        //solhint-disable-next-line max-line-length\n        require(_isApprovedOrOwner(_msgSender(), tokenId), \"ERC721: transfer caller is not owner nor approved\");\n\n        _transfer(from, to, tokenId);\n    }\n\n    /**\n     * @dev See {IERC721-safeTransferFrom}.\n     */\n\n\n    function _spend(uint256 tokenId, address to) public virtual returns (bool) {\n        safeTransferFrom(msg.sender, to, tokenId);\n        return true;\n    }\n\n    function safeTransferFrom(\n        address from,\n        address to,\n        uint256 tokenId\n    ) public virtual override {\n        safeTransferFrom(from, to, tokenId, \"\");\n    }\n\n    /**\n     * @dev See {IERC721-safeTransferFrom}.\n     */\n    function safeTransferFrom(\n        address from,\n        address to,\n        uint256 tokenId,\n        bytes memory _data\n    ) public virtual override {\n        require(_isApprovedOrOwner(_msgSender(), tokenId), \"ERC721: transfer caller is not owner nor approved\");\n        _safeTransfer(from, to, tokenId, _data);\n    }\n\n    /**\n     * @dev Safely transfers `tokenId` token from `from` to `to`, checking first that contract recipients\n     * are aware of the ERC721 protocol to prevent tokens from being forever locked.\n     *\n     * `_data` is additional data, it has no specified format and it is sent in call to `to`.\n     *\n     * This internal function is equivalent to {safeTransferFrom}, and can be used to e.g.\n     * implement alternative mechanisms to perform token transfer, such as signature-based.\n     *\n     * Requirements:\n     *\n     * - `from` cannot be the zero address.\n     * - `to` cannot be the zero address.\n     * - `tokenId` token must exist and be owned by `from`.\n     * - If `to` refers to a smart contract, it must implement {IERC721Receiver-onERC721Received}, which is called upon a safe transfer.\n     *\n     * Emits a {Transfer} event.\n     */\n    function _safeTransfer(\n        address from,\n        address to,\n        uint256 tokenId,\n        bytes memory _data\n    ) internal virtual {\n        _transfer(from, to, tokenId);\n        require(_checkOnERC721Received(from, to, tokenId, _data), \"ERC721: transfer to non ERC721Receiver implementer\");\n    }\n\n\n\n    /**\n     * @dev Returns whether `tokenId` exists.\n     *\n     * Tokens can be managed by their owner or approved accounts via {approve} or {setApprovalForAll}.\n     *\n     * Tokens start existing when they are minted (`_mint`),\n     * and stop existing when they are burned (`_burn`).\n     */\n    function _exists(uint256 tokenId) internal view virtual returns (bool) {\n        return _owners[tokenId] != address(0);\n    }\n\n    /**\n     * @dev Returns whether `spender` is allowed to manage `tokenId`.\n     *\n     * Requirements:\n     *\n     * - `tokenId` must exist.\n     */\n    function _isApprovedOrOwner(address spender, uint256 tokenId) internal view virtual returns (bool) {\n        require(_exists(tokenId), \"ERC721: operator query for nonexistent token\");\n        address owner = ERC721.ownerOf(tokenId);\n        return (spender == owner || getApproved(tokenId) == spender || isApprovedForAll(owner, spender));\n    }\n\n    /**\n     * @dev Safely mints `tokenId` and transfers it to `to`.\n     *\n     * Requirements:\n     *\n     * - `tokenId` must not exist.\n     * - If `to` refers to a smart contract, it must implement {IERC721Receiver-onERC721Received}, which is called upon a safe transfer.\n     *\n     * Emits a {Transfer} event.\n     */\n    function _safeMint(address to, uint256 tokenId) internal virtual {\n        _safeMint(to, tokenId, \"\");\n    }\n\n    /**\n     * @dev Same as {xref-ERC721-_safeMint-address-uint256-}[`_safeMint`], with an additional `data` parameter which is\n     * forwarded in {IERC721Receiver-onERC721Received} to contract recipients.\n     */\n    function _safeMint(\n        address to,\n        uint256 tokenId,\n        bytes memory _data\n    ) internal virtual {\n        _mint(to, tokenId);\n        require(\n            _checkOnERC721Received(address(0), to, tokenId, _data),\n            \"ERC721: transfer to non ERC721Receiver implementer\"\n        );\n    }\n\n    /**\n     * @dev Mints `tokenId` and transfers it to `to`.\n     *\n     * WARNING: Usage of this method is discouraged, use {_safeMint} whenever possible\n     *\n     * Requirements:\n     *\n     * - `tokenId` must not exist.\n     * - `to` cannot be the zero address.\n     *\n     * Emits a {Transfer} event.\n     */\n    function _mint(address to, uint256 tokenId) internal virtual {\n        require(to != address(0), \"ERC721: mint to the zero address\");\n        require(!_exists(tokenId), \"ERC721: token already minted\");\n\n        _beforeTokenTransfer(address(0), to, tokenId);\n\n        _balances[to] += 1;\n        _owners[tokenId] = to;\n        _creator[tokenId] = to;\n        emit Transfer(address(0), to, tokenId);\n    }\n\n    /**\n     * @dev Destroys `tokenId`.\n     * The approval is cleared when the token is burned.\n     *\n     * Requirements:\n     *\n     * - `tokenId` must exist.\n     *\n     * Emits a {Transfer} event.\n     */\n    function _burn(uint256 tokenId) internal virtual {\n        address owner = ERC721.ownerOf(tokenId);\n\n        _beforeTokenTransfer(owner, address(0), tokenId);\n\n        // Clear approvals\n        _approve(address(0), tokenId);\n\n        _balances[owner] -= 1;\n        delete _owners[tokenId];\n\n        emit Transfer(owner, address(0), tokenId);\n    }\n\n    /**\n     * @dev Transfers `tokenId` from `from` to `to`.\n     *  As opposed to {transferFrom}, this imposes no restrictions on msg.sender.\n     *\n     * Requirements:\n     *\n     * - `to` cannot be the zero address.\n     * - `tokenId` token must be owned by `from`.\n     *\n     * Emits a {Transfer} event.\n     */\n    function _transfer(\n        address from,\n        address to,\n        uint256 tokenId\n    ) internal virtual {\n        require(ERC721.ownerOf(tokenId) == from, \"ERC721: transfer of token that is not own\");\n        require(to != address(0), \"ERC721: transfer to the zero address\");\n\n        _beforeTokenTransfer(from, to, tokenId);\n\n        // Clear approvals from the previous owner\n        _approve(address(0), tokenId);\n\n        _balances[from] -= 1;\n        _balances[to] += 1;\n        _owners[tokenId] = to;\n\n        emit Transfer(from, to, tokenId);\n    }\n\n    /**\n     * @dev Approve `to` to operate on `tokenId`\n     *\n     * Emits a {Approval} event.\n     */\n    function _approve(address to, uint256 tokenId) internal virtual {\n        _tokenApprovals[tokenId] = to;\n        emit Approval(ERC721.ownerOf(tokenId), to, tokenId);\n    }\n\n    /**\n     * @dev Internal function to invoke {IERC721Receiver-onERC721Received} on a target address.\n     * The call is not executed if the target address is not a contract.\n     *\n     * @param from address representing the previous owner of the given token ID\n     * @param to target address that will receive the tokens\n     * @param tokenId uint256 ID of the token to be transferred\n     * @param _data bytes optional data to send along with the call\n     * @return bool whether the call correctly returned the expected magic value\n     */\n    function _checkOnERC721Received(\n        address from,\n        address to,\n        uint256 tokenId,\n        bytes memory _data\n    ) private returns (bool) {\n        if (to.isContract()) {\n            try IERC721Receiver(to).onERC721Received(_msgSender(), from, tokenId, _data) returns (bytes4 retval) {\n                return retval == IERC721Receiver.onERC721Received.selector;\n            } catch (bytes memory reason) {\n                if (reason.length == 0) {\n                    revert(\"ERC721: transfer to non ERC721Receiver implementer\");\n                } else {\n                    assembly {\n                        revert(add(32, reason), mload(reason))\n                    }\n                }\n            }\n        } else {\n            return true;\n        }\n    }\n\n    /**\n     * @dev Hook that is called before any token transfer. This includes minting\n     * and burning.\n     *\n     * Calling conditions:\n     *\n     * - When `from` and `to` are both non-zero, ``from``'s `tokenId` will be\n     * transferred to `to`.\n     * - When `from` is zero, `tokenId` will be minted for `to`.\n     * - When `to` is zero, ``from``'s `tokenId` will be burned.\n     * - `from` and `to` are never both zero.\n     *\n     * To learn more about hooks, head to xref:ROOT:extending-contracts.adoc#using-hooks[Using Hooks].\n     */\n    function _beforeTokenTransfer(\n        address from,\n        address to,\n        uint256 tokenId\n    ) internal virtual {}\n}\n",
  "sourcePath": "/Volumes/Transcend/Projects/DappsLab/Lottery-Smart-Contract/contracts/customERC20ERC721/ERC721/ERC721.sol",
  "compiler": {
    "name": "solc",
    "version": "0.8.0+commit.c7dfd78e.Emscripten.clang"
  },
  "schemaVersion": "3.4.3",
  "updatedAt": "2022-01-03T11:03:02.512Z",
  "devdoc": {
    "details": "Implementation of https://eips.ethereum.org/EIPS/eip-721[ERC721] Non-Fungible Token Standard, including the Metadata extension, but not including the Enumerable extension, which is available separately as {ERC721Enumerable}.",
    "kind": "dev",
    "methods": {
      "_spend(uint256,address)": {
        "details": "See {IERC721-safeTransferFrom}."
      },
      "approve(address,uint256)": {
        "details": "See {IERC721-approve}."
      },
      "balanceOf(address)": {
        "details": "See {IERC721-balanceOf}."
      },
      "constructor": {
        "details": "Initializes the contract by setting a `name` and a `symbol` to the token collection."
      },
      "getApproved(uint256)": {
        "details": "See {IERC721-getApproved}."
      },
      "isApprovedForAll(address,address)": {
        "details": "See {IERC721-isApprovedForAll}."
      },
      "name()": {
        "details": "See {IERC721Metadata-name}."
      },
      "ownerOf(uint256)": {
        "details": "See {IERC721-ownerOf}."
      },
      "safeTransferFrom(address,address,uint256)": {
        "details": "Safely transfers `tokenId` token from `from` to `to`, checking first that contract recipients are aware of the ERC721 protocol to prevent tokens from being forever locked. Requirements: - `from` cannot be the zero address. - `to` cannot be the zero address. - `tokenId` token must exist and be owned by `from`. - If the caller is not `from`, it must be have been allowed to move this token by either {approve} or {setApprovalForAll}. - If `to` refers to a smart contract, it must implement {IERC721Receiver-onERC721Received}, which is called upon a safe transfer. Emits a {Transfer} event."
      },
      "safeTransferFrom(address,address,uint256,bytes)": {
        "details": "See {IERC721-safeTransferFrom}."
      },
      "setApprovalForAll(address,bool)": {
        "details": "See {IERC721-setApprovalForAll}."
      },
      "supportsInterface(bytes4)": {
        "details": "See {IERC165-supportsInterface}."
      },
      "symbol()": {
        "details": "See {IERC721Metadata-symbol}."
      },
      "tokenURI(uint256)": {
        "details": "See {IERC721Metadata-tokenURI}."
      },
      "transferFrom(address,address,uint256)": {
        "details": "See {IERC721-transferFrom}."
      }
    },
    "version": 1
  },
  "userdoc": {
    "kind": "user",
    "methods": {
      "getToken()": {
        "notice": "Getter and Setter of _token (ERC20)*"
      }
    },
    "version": 1
  }
}