{
  "contractName": "ERC721PresetMinterPauserAutoIdTest",
  "abi": [
    {
      "inputs": [],
      "stateMutability": "nonpayable",
      "type": "constructor"
    },
    {
      "anonymous": false,
      "inputs": [
        {
          "indexed": true,
          "internalType": "address",
          "name": "owner",
          "type": "address"
        },
        {
          "indexed": true,
          "internalType": "address",
          "name": "approved",
          "type": "address"
        },
        {
          "indexed": true,
          "internalType": "uint256",
          "name": "tokenId",
          "type": "uint256"
        }
      ],
      "name": "Approval",
      "type": "event"
    },
    {
      "anonymous": false,
      "inputs": [
        {
          "indexed": true,
          "internalType": "address",
          "name": "owner",
          "type": "address"
        },
        {
          "indexed": true,
          "internalType": "address",
          "name": "operator",
          "type": "address"
        },
        {
          "indexed": false,
          "internalType": "bool",
          "name": "approved",
          "type": "bool"
        }
      ],
      "name": "ApprovalForAll",
      "type": "event"
    },
    {
      "anonymous": false,
      "inputs": [
        {
          "indexed": false,
          "internalType": "address",
          "name": "account",
          "type": "address"
        }
      ],
      "name": "Paused",
      "type": "event"
    },
    {
      "anonymous": false,
      "inputs": [
        {
          "indexed": true,
          "internalType": "bytes32",
          "name": "role",
          "type": "bytes32"
        },
        {
          "indexed": true,
          "internalType": "bytes32",
          "name": "previousAdminRole",
          "type": "bytes32"
        },
        {
          "indexed": true,
          "internalType": "bytes32",
          "name": "newAdminRole",
          "type": "bytes32"
        }
      ],
      "name": "RoleAdminChanged",
      "type": "event"
    },
    {
      "anonymous": false,
      "inputs": [
        {
          "indexed": true,
          "internalType": "bytes32",
          "name": "role",
          "type": "bytes32"
        },
        {
          "indexed": true,
          "internalType": "address",
          "name": "account",
          "type": "address"
        },
        {
          "indexed": true,
          "internalType": "address",
          "name": "sender",
          "type": "address"
        }
      ],
      "name": "RoleGranted",
      "type": "event"
    },
    {
      "anonymous": false,
      "inputs": [
        {
          "indexed": true,
          "internalType": "bytes32",
          "name": "role",
          "type": "bytes32"
        },
        {
          "indexed": true,
          "internalType": "address",
          "name": "account",
          "type": "address"
        },
        {
          "indexed": true,
          "internalType": "address",
          "name": "sender",
          "type": "address"
        }
      ],
      "name": "RoleRevoked",
      "type": "event"
    },
    {
      "anonymous": false,
      "inputs": [
        {
          "indexed": true,
          "internalType": "address",
          "name": "from",
          "type": "address"
        },
        {
          "indexed": true,
          "internalType": "address",
          "name": "to",
          "type": "address"
        },
        {
          "indexed": true,
          "internalType": "uint256",
          "name": "tokenId",
          "type": "uint256"
        }
      ],
      "name": "Transfer",
      "type": "event"
    },
    {
      "anonymous": false,
      "inputs": [
        {
          "indexed": false,
          "internalType": "address",
          "name": "account",
          "type": "address"
        }
      ],
      "name": "Unpaused",
      "type": "event"
    },
    {
      "inputs": [],
      "name": "DEFAULT_ADMIN_ROLE",
      "outputs": [
        {
          "internalType": "bytes32",
          "name": "",
          "type": "bytes32"
        }
      ],
      "stateMutability": "view",
      "type": "function"
    },
    {
      "inputs": [],
      "name": "MINTER_ROLE",
      "outputs": [
        {
          "internalType": "bytes32",
          "name": "",
          "type": "bytes32"
        }
      ],
      "stateMutability": "view",
      "type": "function"
    },
    {
      "inputs": [],
      "name": "PAUSER_ROLE",
      "outputs": [
        {
          "internalType": "bytes32",
          "name": "",
          "type": "bytes32"
        }
      ],
      "stateMutability": "view",
      "type": "function"
    },
    {
      "inputs": [],
      "name": "_creatorComission",
      "outputs": [
        {
          "internalType": "uint8",
          "name": "",
          "type": "uint8"
        }
      ],
      "stateMutability": "view",
      "type": "function"
    },
    {
      "inputs": [
        {
          "internalType": "address",
          "name": "to",
          "type": "address"
        },
        {
          "internalType": "uint256",
          "name": "tokenId",
          "type": "uint256"
        },
        {
          "internalType": "uint256",
          "name": "tokenAmount",
          "type": "uint256"
        }
      ],
      "name": "_mint",
      "outputs": [],
      "stateMutability": "nonpayable",
      "type": "function"
    },
    {
      "inputs": [
        {
          "internalType": "address",
          "name": "to",
          "type": "address"
        },
        {
          "internalType": "uint256",
          "name": "tokenId",
          "type": "uint256"
        }
      ],
      "name": "approve",
      "outputs": [],
      "stateMutability": "nonpayable",
      "type": "function"
    },
    {
      "inputs": [
        {
          "internalType": "address",
          "name": "owner",
          "type": "address"
        }
      ],
      "name": "balanceOf",
      "outputs": [
        {
          "internalType": "uint256",
          "name": "",
          "type": "uint256"
        }
      ],
      "stateMutability": "view",
      "type": "function"
    },
    {
      "inputs": [
        {
          "internalType": "uint256",
          "name": "tokenId",
          "type": "uint256"
        }
      ],
      "name": "burn",
      "outputs": [],
      "stateMutability": "nonpayable",
      "type": "function"
    },
    {
      "inputs": [
        {
          "internalType": "uint256",
          "name": "tokenId",
          "type": "uint256"
        }
      ],
      "name": "getApproved",
      "outputs": [
        {
          "internalType": "address",
          "name": "",
          "type": "address"
        }
      ],
      "stateMutability": "view",
      "type": "function"
    },
    {
      "inputs": [
        {
          "internalType": "bytes32",
          "name": "role",
          "type": "bytes32"
        }
      ],
      "name": "getRoleAdmin",
      "outputs": [
        {
          "internalType": "bytes32",
          "name": "",
          "type": "bytes32"
        }
      ],
      "stateMutability": "view",
      "type": "function"
    },
    {
      "inputs": [
        {
          "internalType": "bytes32",
          "name": "role",
          "type": "bytes32"
        },
        {
          "internalType": "uint256",
          "name": "index",
          "type": "uint256"
        }
      ],
      "name": "getRoleMember",
      "outputs": [
        {
          "internalType": "address",
          "name": "",
          "type": "address"
        }
      ],
      "stateMutability": "view",
      "type": "function"
    },
    {
      "inputs": [
        {
          "internalType": "bytes32",
          "name": "role",
          "type": "bytes32"
        }
      ],
      "name": "getRoleMemberCount",
      "outputs": [
        {
          "internalType": "uint256",
          "name": "",
          "type": "uint256"
        }
      ],
      "stateMutability": "view",
      "type": "function"
    },
    {
      "inputs": [],
      "name": "getToken",
      "outputs": [
        {
          "internalType": "contract ERC20",
          "name": "",
          "type": "address"
        }
      ],
      "stateMutability": "view",
      "type": "function"
    },
    {
      "inputs": [
        {
          "internalType": "bytes32",
          "name": "role",
          "type": "bytes32"
        },
        {
          "internalType": "address",
          "name": "account",
          "type": "address"
        }
      ],
      "name": "grantRole",
      "outputs": [],
      "stateMutability": "nonpayable",
      "type": "function"
    },
    {
      "inputs": [
        {
          "internalType": "bytes32",
          "name": "role",
          "type": "bytes32"
        },
        {
          "internalType": "address",
          "name": "account",
          "type": "address"
        }
      ],
      "name": "hasRole",
      "outputs": [
        {
          "internalType": "bool",
          "name": "",
          "type": "bool"
        }
      ],
      "stateMutability": "view",
      "type": "function"
    },
    {
      "inputs": [
        {
          "internalType": "address",
          "name": "owner",
          "type": "address"
        },
        {
          "internalType": "address",
          "name": "operator",
          "type": "address"
        }
      ],
      "name": "isApprovedForAll",
      "outputs": [
        {
          "internalType": "bool",
          "name": "",
          "type": "bool"
        }
      ],
      "stateMutability": "view",
      "type": "function"
    },
    {
      "inputs": [
        {
          "internalType": "address",
          "name": "to",
          "type": "address"
        },
        {
          "internalType": "uint256",
          "name": "tokenAmount",
          "type": "uint256"
        }
      ],
      "name": "mint",
      "outputs": [],
      "stateMutability": "nonpayable",
      "type": "function"
    },
    {
      "inputs": [],
      "name": "name",
      "outputs": [
        {
          "internalType": "string",
          "name": "",
          "type": "string"
        }
      ],
      "stateMutability": "view",
      "type": "function"
    },
    {
      "inputs": [
        {
          "internalType": "uint256",
          "name": "tokenId",
          "type": "uint256"
        }
      ],
      "name": "ownerOf",
      "outputs": [
        {
          "internalType": "address",
          "name": "",
          "type": "address"
        }
      ],
      "stateMutability": "view",
      "type": "function"
    },
    {
      "inputs": [],
      "name": "pause",
      "outputs": [],
      "stateMutability": "nonpayable",
      "type": "function"
    },
    {
      "inputs": [],
      "name": "paused",
      "outputs": [
        {
          "internalType": "bool",
          "name": "",
          "type": "bool"
        }
      ],
      "stateMutability": "view",
      "type": "function"
    },
    {
      "inputs": [
        {
          "internalType": "bytes32",
          "name": "role",
          "type": "bytes32"
        },
        {
          "internalType": "address",
          "name": "account",
          "type": "address"
        }
      ],
      "name": "renounceRole",
      "outputs": [],
      "stateMutability": "nonpayable",
      "type": "function"
    },
    {
      "inputs": [
        {
          "internalType": "bytes32",
          "name": "role",
          "type": "bytes32"
        },
        {
          "internalType": "address",
          "name": "account",
          "type": "address"
        }
      ],
      "name": "revokeRole",
      "outputs": [],
      "stateMutability": "nonpayable",
      "type": "function"
    },
    {
      "inputs": [
        {
          "internalType": "address",
          "name": "from",
          "type": "address"
        },
        {
          "internalType": "address",
          "name": "to",
          "type": "address"
        },
        {
          "internalType": "uint256",
          "name": "tokenId",
          "type": "uint256"
        }
      ],
      "name": "safeTransferFrom",
      "outputs": [],
      "stateMutability": "nonpayable",
      "type": "function"
    },
    {
      "inputs": [
        {
          "internalType": "address",
          "name": "from",
          "type": "address"
        },
        {
          "internalType": "address",
          "name": "to",
          "type": "address"
        },
        {
          "internalType": "uint256",
          "name": "tokenId",
          "type": "uint256"
        },
        {
          "internalType": "bytes",
          "name": "_data",
          "type": "bytes"
        }
      ],
      "name": "safeTransferFrom",
      "outputs": [],
      "stateMutability": "nonpayable",
      "type": "function"
    },
    {
      "inputs": [
        {
          "internalType": "address",
          "name": "operator",
          "type": "address"
        },
        {
          "internalType": "bool",
          "name": "approved",
          "type": "bool"
        }
      ],
      "name": "setApprovalForAll",
      "outputs": [],
      "stateMutability": "nonpayable",
      "type": "function"
    },
    {
      "inputs": [
        {
          "internalType": "address",
          "name": "tokenAddress",
          "type": "address"
        }
      ],
      "name": "setToken",
      "outputs": [],
      "stateMutability": "nonpayable",
      "type": "function"
    },
    {
      "inputs": [
        {
          "internalType": "bytes4",
          "name": "interfaceId",
          "type": "bytes4"
        }
      ],
      "name": "supportsInterface",
      "outputs": [
        {
          "internalType": "bool",
          "name": "",
          "type": "bool"
        }
      ],
      "stateMutability": "view",
      "type": "function"
    },
    {
      "inputs": [],
      "name": "symbol",
      "outputs": [
        {
          "internalType": "string",
          "name": "",
          "type": "string"
        }
      ],
      "stateMutability": "view",
      "type": "function"
    },
    {
      "inputs": [
        {
          "internalType": "uint256",
          "name": "index",
          "type": "uint256"
        }
      ],
      "name": "tokenByIndex",
      "outputs": [
        {
          "internalType": "uint256",
          "name": "",
          "type": "uint256"
        }
      ],
      "stateMutability": "view",
      "type": "function"
    },
    {
      "inputs": [
        {
          "internalType": "address",
          "name": "owner",
          "type": "address"
        },
        {
          "internalType": "uint256",
          "name": "index",
          "type": "uint256"
        }
      ],
      "name": "tokenOfOwnerByIndex",
      "outputs": [
        {
          "internalType": "uint256",
          "name": "",
          "type": "uint256"
        }
      ],
      "stateMutability": "view",
      "type": "function"
    },
    {
      "inputs": [
        {
          "internalType": "uint256",
          "name": "tokenId",
          "type": "uint256"
        }
      ],
      "name": "tokenURI",
      "outputs": [
        {
          "internalType": "string",
          "name": "",
          "type": "string"
        }
      ],
      "stateMutability": "view",
      "type": "function"
    },
    {
      "inputs": [],
      "name": "totalSupply",
      "outputs": [
        {
          "internalType": "uint256",
          "name": "",
          "type": "uint256"
        }
      ],
      "stateMutability": "view",
      "type": "function"
    },
    {
      "inputs": [
        {
          "internalType": "address",
          "name": "from",
          "type": "address"
        },
        {
          "internalType": "address",
          "name": "to",
          "type": "address"
        },
        {
          "internalType": "uint256",
          "name": "tokenId",
          "type": "uint256"
        }
      ],
      "name": "transferFrom",
      "outputs": [],
      "stateMutability": "nonpayable",
      "type": "function"
    },
    {
      "inputs": [],
      "name": "unpause",
      "outputs": [],
      "stateMutability": "nonpayable",
      "type": "function"
    }
  ],
  "bytecode": "0x6080604052600a600560006101000a81548160ff021916908360ff1602179055503480156200002d57600080fd5b506040518060400160405280600881526020017f4d7920546f6b656e0000000000000000000000000000000000000000000000008152506040518060400160405280600381526020017f544b4e00000000000000000000000000000000000000000000000000000000008152506040518060400160405280601e81526020017f68747470733a2f2f6578616d706c652e636f6d2f6170692f746f6b656e2f000081525082828160039080519060200190620000ea929190620004f5565b50806004908051906020019062000103929190620004f5565b5050506000600f60006101000a81548160ff021916908315150217905550806011908051906020019062000139929190620004f5565b506200017160006001026200015c62000220640100000000026401000000009004565b62000228640100000000026401000000009004565b620001c47f9f2df0fed2c77648de5860a4cc508cd0818c85b8b8a1ab4ceeef8d981c8956a6620001af62000220640100000000026401000000009004565b62000228640100000000026401000000009004565b620002177f65d7a28e3265b37a6474929f336521b332c1681b933f6cb9f3376673440d862a6200020262000220640100000000026401000000009004565b62000228640100000000026401000000009004565b5050506200060a565b600033905090565b620002488282620002826401000000000262001741176401000000009004565b6200027d8160016000858152602001908152602001600020620002a1640100000000026200174f179091906401000000009004565b505050565b6200029d8282620002e2640100000000026401000000009004565b5050565b6000620002da836000018373ffffffffffffffffffffffffffffffffffffffff16600102620003e5640100000000026401000000009004565b905092915050565b620002fd828262000468640100000000026401000000009004565b620003e157600160008084815260200190815260200160002060000160008373ffffffffffffffffffffffffffffffffffffffff1673ffffffffffffffffffffffffffffffffffffffff16815260200190815260200160002060006101000a81548160ff0219169083151502179055506200038662000220640100000000026401000000009004565b73ffffffffffffffffffffffffffffffffffffffff168173ffffffffffffffffffffffffffffffffffffffff16837f2f8788117e7eff1d82e926ec794901d17c78024a50270940304540a733656f0d60405160405180910390a45b5050565b6000620004028383620004d2640100000000026401000000009004565b6200045d57826000018290806001815401808255809150506001900390600052602060002001600090919091909150558260000180549050836001016000848152602001908152602001600020819055506001905062000462565b600090505b92915050565b600080600084815260200190815260200160002060000160008373ffffffffffffffffffffffffffffffffffffffff1673ffffffffffffffffffffffffffffffffffffffff16815260200190815260200160002060009054906101000a900460ff16905092915050565b600080836001016000848152602001908152602001600020541415905092915050565b8280546200050390620005a5565b90600052602060002090601f01602090048101928262000527576000855562000573565b82601f106200054257805160ff191683800117855562000573565b8280016001018555821562000573579182015b828111156200057257825182559160200191906001019062000555565b5b50905062000582919062000586565b5090565b5b80821115620005a157600081600090555060010162000587565b5090565b60006002820490506001821680620005be57607f821691505b60208210811415620005d557620005d4620005db565b5b50919050565b7f4e487b7100000000000000000000000000000000000000000000000000000000600052602260045260246000fd5b614c45806200061a6000396000f3fe608060405234801561001057600080fd5b506004361061022e576000357c0100000000000000000000000000000000000000000000000000000000900480635c975abb11610142578063a217fddf116100ca578063ca15c87311610099578063ca15c8731461062d578063d53913931461065d578063d547741f1461067b578063e63ab1e914610697578063e985e9c5146106b55761022e565b8063a217fddf146105a7578063a22cb465146105c5578063b88d4fde146105e1578063c87b56dd146105fd5761022e565b80637776afa0116101115780637776afa0146105035780638456cb591461051f5780639010d07c1461052957806391d148541461055957806395d89b41146105895761022e565b80635c975abb146104675780636352211e146104855780636e8e78db146104b557806370a08231146104d35761022e565b8063248a9ca3116101c55780633f4ba83a116101945780633f4ba83a146103d957806340c10f19146103e357806342842e0e146103ff57806342966c681461041b5780634f6ccce7146104375761022e565b8063248a9ca3146103415780632f2ff15d146103715780632f745c591461038d57806336568abe146103bd5761022e565b8063144fa6d711610201578063144fa6d7146102cd57806318160ddd146102e957806321df0da71461030757806323b872dd146103255761022e565b806301ffc9a71461023357806306fdde0314610263578063081812fc14610281578063095ea7b3146102b1575b600080fd5b61024d6004803603810190610248919061378e565b6106e5565b60405161025a9190614386565b60405180910390f35b61026b6106f7565b60405161027891906143d7565b60405180910390f35b61029b600480360381019061029691906137e0565b610789565b6040516102a891906142f6565b60405180910390f35b6102cb60048036038101906102c69190613639565b61080e565b005b6102e760048036038101906102e291906134ce565b610926565b005b6102f161096a565b6040516102fe9190614719565b60405180910390f35b61030f610977565b60405161031c91906143bc565b60405180910390f35b61033f600480360381019061033a9190613533565b6109a1565b005b61035b600480360381019061035691906136ed565b610a01565b60405161036891906143a1565b60405180910390f35b61038b60048036038101906103869190613716565b610a20565b005b6103a760048036038101906103a29190613639565b610a54565b6040516103b49190614719565b60405180910390f35b6103d760048036038101906103d29190613716565b610af9565b005b6103e1610b2d565b005b6103fd60048036038101906103f89190613639565b610ba7565b005b61041960048036038101906104149190613533565b610c39565b005b610435600480360381019061043091906137e0565b610c59565b005b610451600480360381019061044c91906137e0565b610cb5565b60405161045e9190614719565b60405180910390f35b61046f610d4c565b60405161047c9190614386565b60405180910390f35b61049f600480360381019061049a91906137e0565b610d63565b6040516104ac91906142f6565b60405180910390f35b6104bd610e15565b6040516104ca9190614734565b60405180910390f35b6104ed60048036038101906104e891906134ce565b610e28565b6040516104fa9190614719565b60405180910390f35b61051d60048036038101906105189190613675565b610ee0565b005b6105276111d6565b005b610543600480360381019061053e9190613752565b611250565b60405161055091906142f6565b60405180910390f35b610573600480360381019061056e9190613716565b61127f565b6040516105809190614386565b60405180910390f35b6105916112e9565b60405161059e91906143d7565b60405180910390f35b6105af61137b565b6040516105bc91906143a1565b60405180910390f35b6105df60048036038101906105da91906135fd565b611383565b005b6105fb60048036038101906105f69190613582565b611504565b005b610617600480360381019061061291906137e0565b611566565b60405161062491906143d7565b60405180910390f35b610647600480360381019061064291906136ed565b61160d565b6040516106549190614719565b60405180910390f35b610665611631565b60405161067291906143a1565b60405180910390f35b61069560048036038101906106909190613716565b611655565b005b61069f611689565b6040516106ac91906143a1565b60405180910390f35b6106cf60048036038101906106ca91906134f7565b6116ad565b6040516106dc9190614386565b60405180910390f35b60006106f08261177f565b9050919050565b60606003805461070690614a23565b80601f016020809104026020016040519081016040528092919081815260200182805461073290614a23565b801561077f5780601f106107545761010080835404028352916020019161077f565b820191906000526020600020905b81548152906001019060200180831161076257829003601f168201915b5050505050905090565b6000610794826117f9565b6107d3576040517f08c379a00000000000000000000000000000000000000000000000000000000081526004016107ca906145d9565b60405180910390fd5b6009600083815260200190815260200160002060009054906101000a900473ffffffffffffffffffffffffffffffffffffffff169050919050565b600061081982610d63565b90508073ffffffffffffffffffffffffffffffffffffffff168373ffffffffffffffffffffffffffffffffffffffff16141561088a576040517f08c379a000000000000000000000000000000000000000000000000000000000815260040161088190614639565b60405180910390fd5b8073ffffffffffffffffffffffffffffffffffffffff166108a9611865565b73ffffffffffffffffffffffffffffffffffffffff1614806108d857506108d7816108d2611865565b6116ad565b5b610917576040517f08c379a000000000000000000000000000000000000000000000000000000000815260040161090e90614559565b60405180910390fd5b610921838361186d565b505050565b80600260006101000a81548173ffffffffffffffffffffffffffffffffffffffff021916908373ffffffffffffffffffffffffffffffffffffffff16021790555050565b6000600d80549050905090565b6000600260009054906101000a900473ffffffffffffffffffffffffffffffffffffffff16905090565b6109b26109ac611865565b82611926565b6109f1576040517f08c379a00000000000000000000000000000000000000000000000000000000081526004016109e890614659565b60405180910390fd5b6109fc838383611a04565b505050565b6000806000838152602001908152602001600020600101549050919050565b610a2a8282611c60565b610a4f816001600085815260200190815260200160002061174f90919063ffffffff16565b505050565b6000610a5f83610e28565b8210610aa0576040517f08c379a0000000000000000000000000000000000000000000000000000000008152600401610a9790614459565b60405180910390fd5b600b60008473ffffffffffffffffffffffffffffffffffffffff1673ffffffffffffffffffffffffffffffffffffffff168152602001908152602001600020600083815260200190815260200160002054905092915050565b610b038282611c89565b610b288160016000858152602001908152602001600020611d0c90919063ffffffff16565b505050565b610b5e7f65d7a28e3265b37a6474929f336521b332c1681b933f6cb9f3376673440d862a610b59611865565b61127f565b610b9d576040517f08c379a0000000000000000000000000000000000000000000000000000000008152600401610b94906146d9565b60405180910390fd5b610ba5611d3c565b565b610bd87f9f2df0fed2c77648de5860a4cc508cd0818c85b8b8a1ab4ceeef8d981c8956a6610bd3611865565b61127f565b610c17576040517f08c379a0000000000000000000000000000000000000000000000000000000008152600401610c0e90614699565b60405180910390fd5b610c2b82610c256010611dde565b83610ee0565b610c356010611dec565b5050565b610c5483838360405180602001604052806000815250611504565b505050565b610c6a610c64611865565b82611926565b610ca9576040517f08c379a0000000000000000000000000000000000000000000000000000000008152600401610ca0906146b9565b60405180910390fd5b610cb281611e02565b50565b6000610cbf61096a565b8210610d00576040517f08c379a0000000000000000000000000000000000000000000000000000000008152600401610cf790614679565b60405180910390fd5b600d8281548110610d3a577f4e487b7100000000000000000000000000000000000000000000000000000000600052603260045260246000fd5b90600052602060002001549050919050565b6000600f60009054906101000a900460ff16905090565b6000806006600084815260200190815260200160002060009054906101000a900473ffffffffffffffffffffffffffffffffffffffff169050600073ffffffffffffffffffffffffffffffffffffffff168173ffffffffffffffffffffffffffffffffffffffff161415610e0c576040517f08c379a0000000000000000000000000000000000000000000000000000000008152600401610e0390614599565b60405180910390fd5b80915050919050565b600560009054906101000a900460ff1681565b60008073ffffffffffffffffffffffffffffffffffffffff168273ffffffffffffffffffffffffffffffffffffffff161415610e99576040517f08c379a0000000000000000000000000000000000000000000000000000000008152600401610e9090614579565b60405180910390fd5b600860008373ffffffffffffffffffffffffffffffffffffffff1673ffffffffffffffffffffffffffffffffffffffff168152602001908152602001600020549050919050565b600073ffffffffffffffffffffffffffffffffffffffff168373ffffffffffffffffffffffffffffffffffffffff161415610f50576040517f08c379a0000000000000000000000000000000000000000000000000000000008152600401610f47906145b9565b60405180910390fd5b610f59826117f9565b15610f99576040517f08c379a0000000000000000000000000000000000000000000000000000000008152600401610f9090614499565b60405180910390fd5b60008111610fa657600080fd5b600260009054906101000a900473ffffffffffffffffffffffffffffffffffffffff1673ffffffffffffffffffffffffffffffffffffffff1663af7d6ca384836040518363ffffffff167c010000000000000000000000000000000000000000000000000000000002815260040161101f92919061435d565b602060405180830381600087803b15801561103957600080fd5b505af115801561104d573d6000803e3d6000fd5b505050506040513d601f19601f8201168201806040525081019061107191906136c4565b61107a57600080fd5b6001600860008573ffffffffffffffffffffffffffffffffffffffff1673ffffffffffffffffffffffffffffffffffffffff16815260200190815260200160002060008282546110ca91906147f3565b92505081905550826006600084815260200190815260200160002060006101000a81548173ffffffffffffffffffffffffffffffffffffffff021916908373ffffffffffffffffffffffffffffffffffffffff160217905550826007600084815260200190815260200160002060006101000a81548173ffffffffffffffffffffffffffffffffffffffff021916908373ffffffffffffffffffffffffffffffffffffffff160217905550818373ffffffffffffffffffffffffffffffffffffffff16600073ffffffffffffffffffffffffffffffffffffffff167fddf252ad1be2c89b69c2b068fc378daa952ba7f163c4a11628f55a4df523b3ef60405160405180910390a4505050565b6112077f65d7a28e3265b37a6474929f336521b332c1681b933f6cb9f3376673440d862a611202611865565b61127f565b611246576040517f08c379a000000000000000000000000000000000000000000000000000000000815260040161123d906144b9565b60405180910390fd5b61124e611f07565b565b60006112778260016000868152602001908152602001600020611faa90919063ffffffff16565b905092915050565b600080600084815260200190815260200160002060000160008373ffffffffffffffffffffffffffffffffffffffff1673ffffffffffffffffffffffffffffffffffffffff16815260200190815260200160002060009054906101000a900460ff16905092915050565b6060600480546112f890614a23565b80601f016020809104026020016040519081016040528092919081815260200182805461132490614a23565b80156113715780601f1061134657610100808354040283529160200191611371565b820191906000526020600020905b81548152906001019060200180831161135457829003601f168201915b5050505050905090565b600060010281565b61138b611865565b73ffffffffffffffffffffffffffffffffffffffff168273ffffffffffffffffffffffffffffffffffffffff1614156113f9576040517f08c379a00000000000000000000000000000000000000000000000000000000081526004016113f0906144f9565b60405180910390fd5b80600a6000611406611865565b73ffffffffffffffffffffffffffffffffffffffff1673ffffffffffffffffffffffffffffffffffffffff16815260200190815260200160002060008473ffffffffffffffffffffffffffffffffffffffff1673ffffffffffffffffffffffffffffffffffffffff16815260200190815260200160002060006101000a81548160ff0219169083151502179055508173ffffffffffffffffffffffffffffffffffffffff166114b3611865565b73ffffffffffffffffffffffffffffffffffffffff167f17307eab39ab6107e8899845ad3d59bd9653f200f220920489ca2b5937696c31836040516114f89190614386565b60405180910390a35050565b61151561150f611865565b83611926565b611554576040517f08c379a000000000000000000000000000000000000000000000000000000000815260040161154b90614659565b60405180910390fd5b61156084848484611fc5565b50505050565b6060611571826117f9565b6115b0576040517f08c379a00000000000000000000000000000000000000000000000000000000081526004016115a790614619565b60405180910390fd5b60006115ba612021565b905060008151116115da5760405180602001604052806000815250611605565b806115e4846120b3565b6040516020016115f5929190614298565b6040516020818303038152906040525b915050919050565b600061162a6001600084815260200190815260200160002061227f565b9050919050565b7f9f2df0fed2c77648de5860a4cc508cd0818c85b8b8a1ab4ceeef8d981c8956a681565b61165f8282612294565b6116848160016000858152602001908152602001600020611d0c90919063ffffffff16565b505050565b7f65d7a28e3265b37a6474929f336521b332c1681b933f6cb9f3376673440d862a81565b6000600a60008473ffffffffffffffffffffffffffffffffffffffff1673ffffffffffffffffffffffffffffffffffffffff16815260200190815260200160002060008373ffffffffffffffffffffffffffffffffffffffff1673ffffffffffffffffffffffffffffffffffffffff16815260200190815260200160002060009054906101000a900460ff16905092915050565b61174b82826122bd565b5050565b6000611777836000018373ffffffffffffffffffffffffffffffffffffffff1660010261239d565b905092915050565b60007f780e9d63000000000000000000000000000000000000000000000000000000007bffffffffffffffffffffffffffffffffffffffffffffffffffffffff1916827bffffffffffffffffffffffffffffffffffffffffffffffffffffffff191614806117f257506117f18261240d565b5b9050919050565b60008073ffffffffffffffffffffffffffffffffffffffff166006600084815260200190815260200160002060009054906101000a900473ffffffffffffffffffffffffffffffffffffffff1673ffffffffffffffffffffffffffffffffffffffff1614159050919050565b600033905090565b816009600083815260200190815260200160002060006101000a81548173ffffffffffffffffffffffffffffffffffffffff021916908373ffffffffffffffffffffffffffffffffffffffff160217905550808273ffffffffffffffffffffffffffffffffffffffff166118e083610d63565b73ffffffffffffffffffffffffffffffffffffffff167f8c5be1e5ebec7d5bd14f71427d1e84f3dd0314c0f7b2291e5b200ac8c7c3b92560405160405180910390a45050565b6000611931826117f9565b611970576040517f08c379a000000000000000000000000000000000000000000000000000000000815260040161196790614519565b60405180910390fd5b600061197b83610d63565b90508073ffffffffffffffffffffffffffffffffffffffff168473ffffffffffffffffffffffffffffffffffffffff1614806119ea57508373ffffffffffffffffffffffffffffffffffffffff166119d284610789565b73ffffffffffffffffffffffffffffffffffffffff16145b806119fb57506119fa81856116ad565b5b91505092915050565b8273ffffffffffffffffffffffffffffffffffffffff16611a2482610d63565b73ffffffffffffffffffffffffffffffffffffffff1614611a7a576040517f08c379a0000000000000000000000000000000000000000000000000000000008152600401611a71906145f9565b60405180910390fd5b600073ffffffffffffffffffffffffffffffffffffffff168273ffffffffffffffffffffffffffffffffffffffff161415611aea576040517f08c379a0000000000000000000000000000000000000000000000000000000008152600401611ae1906144d9565b60405180910390fd5b611af58383836124ef565b611b0060008261186d565b6001600860008573ffffffffffffffffffffffffffffffffffffffff1673ffffffffffffffffffffffffffffffffffffffff1681526020019081526020016000206000828254611b5091906148d4565b925050819055506001600860008473ffffffffffffffffffffffffffffffffffffffff1673ffffffffffffffffffffffffffffffffffffffff1681526020019081526020016000206000828254611ba791906147f3565b92505081905550816006600083815260200190815260200160002060006101000a81548173ffffffffffffffffffffffffffffffffffffffff021916908373ffffffffffffffffffffffffffffffffffffffff160217905550808273ffffffffffffffffffffffffffffffffffffffff168473ffffffffffffffffffffffffffffffffffffffff167fddf252ad1be2c89b69c2b068fc378daa952ba7f163c4a11628f55a4df523b3ef60405160405180910390a4505050565b611c6982610a01565b611c7a81611c75611865565b6124ff565b611c8483836122bd565b505050565b611c91611865565b73ffffffffffffffffffffffffffffffffffffffff168173ffffffffffffffffffffffffffffffffffffffff1614611cfe576040517f08c379a0000000000000000000000000000000000000000000000000000000008152600401611cf5906146f9565b60405180910390fd5b611d08828261259d565b5050565b6000611d34836000018373ffffffffffffffffffffffffffffffffffffffff1660010261267e565b905092915050565b611d44610d4c565b611d83576040517f08c379a0000000000000000000000000000000000000000000000000000000008152600401611d7a90614439565b60405180910390fd5b6000600f60006101000a81548160ff0219169083151502179055507f5db9ee0a495bf2e6ff9c91a7834c1ba4fdd244a5e8aa4e537bd38aeae4b073aa611dc7611865565b604051611dd491906142f6565b60405180910390a1565b600081600001549050919050565b6001816000016000828254019250508190555050565b6000611e0d82610d63565b9050611e1a60008361186d565b6001600860008373ffffffffffffffffffffffffffffffffffffffff1673ffffffffffffffffffffffffffffffffffffffff1681526020019081526020016000206000828254611e6a91906148d4565b925050819055506006600083815260200190815260200160002060006101000a81549073ffffffffffffffffffffffffffffffffffffffff021916905581600073ffffffffffffffffffffffffffffffffffffffff168273ffffffffffffffffffffffffffffffffffffffff167fddf252ad1be2c89b69c2b068fc378daa952ba7f163c4a11628f55a4df523b3ef60405160405180910390a45050565b611f0f610d4c565b15611f4f576040517f08c379a0000000000000000000000000000000000000000000000000000000008152600401611f4690614539565b60405180910390fd5b6001600f60006101000a81548160ff0219169083151502179055507f62e78cea01bee320cd4e420270b5ea74000d11b0c9f74754ebdbfc544b05a258611f93611865565b604051611fa091906142f6565b60405180910390a1565b6000611fb98360000183612804565b60019004905092915050565b611fd0848484611a04565b611fdc84848484612855565b61201b576040517f08c379a000000000000000000000000000000000000000000000000000000000815260040161201290614479565b60405180910390fd5b50505050565b60606011805461203090614a23565b80601f016020809104026020016040519081016040528092919081815260200182805461205c90614a23565b80156120a95780601f1061207e576101008083540402835291602001916120a9565b820191906000526020600020905b81548152906001019060200180831161208c57829003601f168201915b5050505050905090565b606060008214156120fb576040518060400160405280600181526020017f3000000000000000000000000000000000000000000000000000000000000000815250905061227a565b600082905060005b6000821461212d57808061211690614a55565b915050600a826121269190614849565b9150612103565b60008167ffffffffffffffff81111561216f577f4e487b7100000000000000000000000000000000000000000000000000000000600052604160045260246000fd5b6040519080825280601f01601f1916602001820160405280156121a15781602001600182028036833780820191505090505b5090505b60008514612273576001826121ba91906148d4565b9150600a856121c99190614a9e565b60306121d591906147f3565b7f010000000000000000000000000000000000000000000000000000000000000002818381518110612230577f4e487b7100000000000000000000000000000000000000000000000000000000600052603260045260246000fd5b60200101907effffffffffffffffffffffffffffffffffffffffffffffffffffffffffffff1916908160001a905350600a8561226c9190614849565b94506121a5565b8093505050505b919050565b600061228d82600001612a24565b9050919050565b61229d82610a01565b6122ae816122a9611865565b6124ff565b6122b8838361259d565b505050565b6122c7828261127f565b61239957600160008084815260200190815260200160002060000160008373ffffffffffffffffffffffffffffffffffffffff1673ffffffffffffffffffffffffffffffffffffffff16815260200190815260200160002060006101000a81548160ff02191690831515021790555061233e611865565b73ffffffffffffffffffffffffffffffffffffffff168173ffffffffffffffffffffffffffffffffffffffff16837f2f8788117e7eff1d82e926ec794901d17c78024a50270940304540a733656f0d60405160405180910390a45b5050565b60006123a98383612a35565b612402578260000182908060018154018082558091505060019003906000526020600020016000909190919091505582600001805490508360010160008481526020019081526020016000208190555060019050612407565b600090505b92915050565b60007f80ac58cd000000000000000000000000000000000000000000000000000000007bffffffffffffffffffffffffffffffffffffffffffffffffffffffff1916827bffffffffffffffffffffffffffffffffffffffffffffffffffffffff191614806124d857507f5b5e139f000000000000000000000000000000000000000000000000000000007bffffffffffffffffffffffffffffffffffffffffffffffffffffffff1916827bffffffffffffffffffffffffffffffffffffffffffffffffffffffff1916145b806124e857506124e782612a58565b5b9050919050565b6124fa838383612ad2565b505050565b612509828261127f565b6125995761252e8173ffffffffffffffffffffffffffffffffffffffff166014612b2a565b61253d83600190046020612b2a565b60405160200161254e9291906142bc565b6040516020818303038152906040526040517f08c379a000000000000000000000000000000000000000000000000000000000815260040161259091906143d7565b60405180910390fd5b5050565b6125a7828261127f565b1561267a57600080600084815260200190815260200160002060000160008373ffffffffffffffffffffffffffffffffffffffff1673ffffffffffffffffffffffffffffffffffffffff16815260200190815260200160002060006101000a81548160ff02191690831515021790555061261f611865565b73ffffffffffffffffffffffffffffffffffffffff168173ffffffffffffffffffffffffffffffffffffffff16837ff6391f5c32d9c69d2a47ea670b442974b53935d1edc7fd64eb21e047a839171b60405160405180910390a45b5050565b600080836001016000848152602001908152602001600020549050600081146127f85760006001826126b091906148d4565b90506000600186600001805490506126c891906148d4565b905081811461278357600086600001828154811061270f577f4e487b7100000000000000000000000000000000000000000000000000000000600052603260045260246000fd5b9060005260206000200154905080876000018481548110612759577f4e487b7100000000000000000000000000000000000000000000000000000000600052603260045260246000fd5b90600052602060002001819055508387600101600083815260200190815260200160002081905550505b856000018054806127bd577f4e487b7100000000000000000000000000000000000000000000000000000000600052603160045260246000fd5b6001900381819060005260206000200160009055905585600101600086815260200190815260200160002060009055600193505050506127fe565b60009150505b92915050565b6000826000018281548110612842577f4e487b7100000000000000000000000000000000000000000000000000000000600052603260045260246000fd5b9060005260206000200154905092915050565b60006128768473ffffffffffffffffffffffffffffffffffffffff16612e4b565b15612a17578373ffffffffffffffffffffffffffffffffffffffff1663150b7a0261289f611865565b8786866040518563ffffffff167c01000000000000000000000000000000000000000000000000000000000281526004016128dd9493929190614311565b602060405180830381600087803b1580156128f757600080fd5b505af192505050801561292857506040513d601f19601f8201168201806040525081019061292591906137b7565b60015b6129ab573d8060008114612958576040519150601f19603f3d011682016040523d82523d6000602084013e61295d565b606091505b506000815114156129a3576040517f08c379a000000000000000000000000000000000000000000000000000000000815260040161299a90614479565b60405180910390fd5b805181602001fd5b63150b7a027c0100000000000000000000000000000000000000000000000000000000027bffffffffffffffffffffffffffffffffffffffffffffffffffffffff1916817bffffffffffffffffffffffffffffffffffffffffffffffffffffffff191614915050612a1c565b600190505b949350505050565b600081600001805490509050919050565b600080836001016000848152602001908152602001600020541415905092915050565b60007f5a05180f000000000000000000000000000000000000000000000000000000007bffffffffffffffffffffffffffffffffffffffffffffffffffffffff1916827bffffffffffffffffffffffffffffffffffffffffffffffffffffffff19161480612acb5750612aca82612e5e565b5b9050919050565b612add838383612ed8565b612ae5610d4c565b15612b25576040517f08c379a0000000000000000000000000000000000000000000000000000000008152600401612b1c90614419565b60405180910390fd5b505050565b606060006002836002612b3d919061487a565b612b4791906147f3565b67ffffffffffffffff811115612b86577f4e487b7100000000000000000000000000000000000000000000000000000000600052604160045260246000fd5b6040519080825280601f01601f191660200182016040528015612bb85781602001600182028036833780820191505090505b5090507f300000000000000000000000000000000000000000000000000000000000000081600081518110612c16577f4e487b7100000000000000000000000000000000000000000000000000000000600052603260045260246000fd5b60200101907effffffffffffffffffffffffffffffffffffffffffffffffffffffffffffff1916908160001a9053507f780000000000000000000000000000000000000000000000000000000000000081600181518110612ca0577f4e487b7100000000000000000000000000000000000000000000000000000000600052603260045260246000fd5b60200101907effffffffffffffffffffffffffffffffffffffffffffffffffffffffffffff1916908160001a90535060006001846002612ce0919061487a565b612cea91906147f3565b90505b6001811115612dfd577f3031323334353637383961626364656600000000000000000000000000000000600f861660108110612d52577f4e487b7100000000000000000000000000000000000000000000000000000000600052603260045260246000fd5b1a7f010000000000000000000000000000000000000000000000000000000000000002828281518110612dae577f4e487b7100000000000000000000000000000000000000000000000000000000600052603260045260246000fd5b60200101907effffffffffffffffffffffffffffffffffffffffffffffffffffffffffffff1916908160001a905350600485908060020a8204915050945080612df6906149f9565b9050612ced565b5060008414612e41576040517f08c379a0000000000000000000000000000000000000000000000000000000008152600401612e38906143f9565b60405180910390fd5b8091505092915050565b600080823b905060008111915050919050565b60007f7965db0b000000000000000000000000000000000000000000000000000000007bffffffffffffffffffffffffffffffffffffffffffffffffffffffff1916827bffffffffffffffffffffffffffffffffffffffffffffffffffffffff19161480612ed15750612ed082612fec565b5b9050919050565b612ee3838383613056565b600073ffffffffffffffffffffffffffffffffffffffff168373ffffffffffffffffffffffffffffffffffffffff161415612f2657612f218161305b565b612f65565b8173ffffffffffffffffffffffffffffffffffffffff168373ffffffffffffffffffffffffffffffffffffffff1614612f6457612f6383826130a4565b5b5b600073ffffffffffffffffffffffffffffffffffffffff168273ffffffffffffffffffffffffffffffffffffffff161415612fa857612fa381613211565b612fe7565b8273ffffffffffffffffffffffffffffffffffffffff168273ffffffffffffffffffffffffffffffffffffffff1614612fe657612fe58282613354565b5b5b505050565b60007f01ffc9a7000000000000000000000000000000000000000000000000000000007bffffffffffffffffffffffffffffffffffffffffffffffffffffffff1916827bffffffffffffffffffffffffffffffffffffffffffffffffffffffff1916149050919050565b505050565b600d80549050600e600083815260200190815260200160002081905550600d81908060018154018082558091505060019003906000526020600020016000909190919091505550565b600060016130b184610e28565b6130bb91906148d4565b90506000600c60008481526020019081526020016000205490508181146131a0576000600b60008673ffffffffffffffffffffffffffffffffffffffff1673ffffffffffffffffffffffffffffffffffffffff168152602001908152602001600020600084815260200190815260200160002054905080600b60008773ffffffffffffffffffffffffffffffffffffffff1673ffffffffffffffffffffffffffffffffffffffff16815260200190815260200160002060008481526020019081526020016000208190555081600c600083815260200190815260200160002081905550505b600c600084815260200190815260200160002060009055600b60008573ffffffffffffffffffffffffffffffffffffffff1673ffffffffffffffffffffffffffffffffffffffff16815260200190815260200160002060008381526020019081526020016000206000905550505050565b60006001600d8054905061322591906148d4565b90506000600e60008481526020019081526020016000205490506000600d838154811061327b577f4e487b7100000000000000000000000000000000000000000000000000000000600052603260045260246000fd5b9060005260206000200154905080600d83815481106132c3577f4e487b7100000000000000000000000000000000000000000000000000000000600052603260045260246000fd5b906000526020600020018190555081600e600083815260200190815260200160002081905550600e600085815260200190815260200160002060009055600d805480613338577f4e487b7100000000000000000000000000000000000000000000000000000000600052603160045260246000fd5b6001900381819060005260206000200160009055905550505050565b600061335f83610e28565b905081600b60008573ffffffffffffffffffffffffffffffffffffffff1673ffffffffffffffffffffffffffffffffffffffff16815260200190815260200160002060008381526020019081526020016000208190555080600c600084815260200190815260200160002081905550505050565b60006133e66133e184614780565b61474f565b9050828152602081018484840111156133fe57600080fd5b6134098482856149b7565b509392505050565b60008135905061342081614b9c565b92915050565b60008135905061343581614bb3565b92915050565b60008151905061344a81614bb3565b92915050565b60008135905061345f81614bca565b92915050565b60008135905061347481614be1565b92915050565b60008151905061348981614be1565b92915050565b600082601f8301126134a057600080fd5b81356134b08482602086016133d3565b91505092915050565b6000813590506134c881614bf8565b92915050565b6000602082840312156134e057600080fd5b60006134ee84828501613411565b91505092915050565b6000806040838503121561350a57600080fd5b600061351885828601613411565b925050602061352985828601613411565b9150509250929050565b60008060006060848603121561354857600080fd5b600061355686828701613411565b935050602061356786828701613411565b9250506040613578868287016134b9565b9150509250925092565b6000806000806080858703121561359857600080fd5b60006135a687828801613411565b94505060206135b787828801613411565b93505060406135c8878288016134b9565b925050606085013567ffffffffffffffff8111156135e557600080fd5b6135f18782880161348f565b91505092959194509250565b6000806040838503121561361057600080fd5b600061361e85828601613411565b925050602061362f85828601613426565b9150509250929050565b6000806040838503121561364c57600080fd5b600061365a85828601613411565b925050602061366b858286016134b9565b9150509250929050565b60008060006060848603121561368a57600080fd5b600061369886828701613411565b93505060206136a9868287016134b9565b92505060406136ba868287016134b9565b9150509250925092565b6000602082840312156136d657600080fd5b60006136e48482850161343b565b91505092915050565b6000602082840312156136ff57600080fd5b600061370d84828501613450565b91505092915050565b6000806040838503121561372957600080fd5b600061373785828601613450565b925050602061374885828601613411565b9150509250929050565b6000806040838503121561376557600080fd5b600061377385828601613450565b9250506020613784858286016134b9565b9150509250929050565b6000602082840312156137a057600080fd5b60006137ae84828501613465565b91505092915050565b6000602082840312156137c957600080fd5b60006137d78482850161347a565b91505092915050565b6000602082840312156137f257600080fd5b6000613800848285016134b9565b91505092915050565b61381281614908565b82525050565b6138218161491a565b82525050565b61383081614926565b82525050565b6000613841826147b0565b61384b81856147c6565b935061385b8185602086016149c6565b61386481614b8b565b840191505092915050565b61387881614993565b82525050565b6000613889826147bb565b61389381856147d7565b93506138a38185602086016149c6565b6138ac81614b8b565b840191505092915050565b60006138c2826147bb565b6138cc81856147e8565b93506138dc8185602086016149c6565b80840191505092915050565b60006138f56020836147d7565b91507f537472696e67733a20686578206c656e67746820696e73756666696369656e746000830152602082019050919050565b6000613935602b836147d7565b91507f4552433732315061757361626c653a20746f6b656e207472616e73666572207760008301527f68696c65207061757365640000000000000000000000000000000000000000006020830152604082019050919050565b600061399b6014836147d7565b91507f5061757361626c653a206e6f74207061757365640000000000000000000000006000830152602082019050919050565b60006139db602b836147d7565b91507f455243373231456e756d657261626c653a206f776e657220696e646578206f7560008301527f74206f6620626f756e64730000000000000000000000000000000000000000006020830152604082019050919050565b6000613a416032836147d7565b91507f4552433732313a207472616e7366657220746f206e6f6e20455243373231526560008301527f63656976657220696d706c656d656e74657200000000000000000000000000006020830152604082019050919050565b6000613aa7601c836147d7565b91507f4552433732313a20746f6b656e20616c7265616479206d696e746564000000006000830152602082019050919050565b6000613ae7603e836147d7565b91507f4552433732315072657365744d696e7465725061757365724175746f49643a2060008301527f6d75737420686176652070617573657220726f6c6520746f20706175736500006020830152604082019050919050565b6000613b4d6024836147d7565b91507f4552433732313a207472616e7366657220746f20746865207a65726f2061646460008301527f72657373000000000000000000000000000000000000000000000000000000006020830152604082019050919050565b6000613bb36019836147d7565b91507f4552433732313a20617070726f766520746f2063616c6c6572000000000000006000830152602082019050919050565b6000613bf3602c836147d7565b91507f4552433732313a206f70657261746f7220717565727920666f72206e6f6e657860008301527f697374656e7420746f6b656e00000000000000000000000000000000000000006020830152604082019050919050565b6000613c596010836147d7565b91507f5061757361626c653a20706175736564000000000000000000000000000000006000830152602082019050919050565b6000613c996038836147d7565b91507f4552433732313a20617070726f76652063616c6c6572206973206e6f74206f7760008301527f6e6572206e6f7220617070726f76656420666f7220616c6c00000000000000006020830152604082019050919050565b6000613cff602a836147d7565b91507f4552433732313a2062616c616e636520717565727920666f7220746865207a6560008301527f726f2061646472657373000000000000000000000000000000000000000000006020830152604082019050919050565b6000613d656029836147d7565b91507f4552433732313a206f776e657220717565727920666f72206e6f6e657869737460008301527f656e7420746f6b656e00000000000000000000000000000000000000000000006020830152604082019050919050565b6000613dcb6020836147d7565b91507f4552433732313a206d696e7420746f20746865207a65726f20616464726573736000830152602082019050919050565b6000613e0b602c836147d7565b91507f4552433732313a20617070726f76656420717565727920666f72206e6f6e657860008301527f697374656e7420746f6b656e00000000000000000000000000000000000000006020830152604082019050919050565b6000613e716029836147d7565b91507f4552433732313a207472616e73666572206f6620746f6b656e2074686174206960008301527f73206e6f74206f776e00000000000000000000000000000000000000000000006020830152604082019050919050565b6000613ed7602f836147d7565b91507f4552433732314d657461646174613a2055524920717565727920666f72206e6f60008301527f6e6578697374656e7420746f6b656e00000000000000000000000000000000006020830152604082019050919050565b6000613f3d6021836147d7565b91507f4552433732313a20617070726f76616c20746f2063757272656e74206f776e6560008301527f72000000000000000000000000000000000000000000000000000000000000006020830152604082019050919050565b6000613fa36031836147d7565b91507f4552433732313a207472616e736665722063616c6c6572206973206e6f74206f60008301527f776e6572206e6f7220617070726f7665640000000000000000000000000000006020830152604082019050919050565b6000614009602c836147d7565b91507f455243373231456e756d657261626c653a20676c6f62616c20696e646578206f60008301527f7574206f6620626f756e647300000000000000000000000000000000000000006020830152604082019050919050565b600061406f6017836147e8565b91507f416363657373436f6e74726f6c3a206163636f756e74200000000000000000006000830152601782019050919050565b60006140af603d836147d7565b91507f4552433732315072657365744d696e7465725061757365724175746f49643a2060008301527f6d7573742068617665206d696e74657220726f6c6520746f206d696e740000006020830152604082019050919050565b60006141156030836147d7565b91507f4552433732314275726e61626c653a2063616c6c6572206973206e6f74206f7760008301527f6e6572206e6f7220617070726f766564000000000000000000000000000000006020830152604082019050919050565b600061417b6040836147d7565b91507f4552433732315072657365744d696e7465725061757365724175746f49643a2060008301527f6d75737420686176652070617573657220726f6c6520746f20756e70617573656020830152604082019050919050565b60006141e16011836147e8565b91507f206973206d697373696e6720726f6c65200000000000000000000000000000006000830152601182019050919050565b6000614221602f836147d7565b91507f416363657373436f6e74726f6c3a2063616e206f6e6c792072656e6f756e636560008301527f20726f6c657320666f722073656c6600000000000000000000000000000000006020830152604082019050919050565b6142838161497c565b82525050565b61429281614986565b82525050565b60006142a482856138b7565b91506142b082846138b7565b91508190509392505050565b60006142c782614062565b91506142d382856138b7565b91506142de826141d4565b91506142ea82846138b7565b91508190509392505050565b600060208201905061430b6000830184613809565b92915050565b60006080820190506143266000830187613809565b6143336020830186613809565b614340604083018561427a565b81810360608301526143528184613836565b905095945050505050565b60006040820190506143726000830185613809565b61437f602083018461427a565b9392505050565b600060208201905061439b6000830184613818565b92915050565b60006020820190506143b66000830184613827565b92915050565b60006020820190506143d1600083018461386f565b92915050565b600060208201905081810360008301526143f1818461387e565b905092915050565b60006020820190508181036000830152614412816138e8565b9050919050565b6000602082019050818103600083015261443281613928565b9050919050565b600060208201905081810360008301526144528161398e565b9050919050565b60006020820190508181036000830152614472816139ce565b9050919050565b6000602082019050818103600083015261449281613a34565b9050919050565b600060208201905081810360008301526144b281613a9a565b9050919050565b600060208201905081810360008301526144d281613ada565b9050919050565b600060208201905081810360008301526144f281613b40565b9050919050565b6000602082019050818103600083015261451281613ba6565b9050919050565b6000602082019050818103600083015261453281613be6565b9050919050565b6000602082019050818103600083015261455281613c4c565b9050919050565b6000602082019050818103600083015261457281613c8c565b9050919050565b6000602082019050818103600083015261459281613cf2565b9050919050565b600060208201905081810360008301526145b281613d58565b9050919050565b600060208201905081810360008301526145d281613dbe565b9050919050565b600060208201905081810360008301526145f281613dfe565b9050919050565b6000602082019050818103600083015261461281613e64565b9050919050565b6000602082019050818103600083015261463281613eca565b9050919050565b6000602082019050818103600083015261465281613f30565b9050919050565b6000602082019050818103600083015261467281613f96565b9050919050565b6000602082019050818103600083015261469281613ffc565b9050919050565b600060208201905081810360008301526146b2816140a2565b9050919050565b600060208201905081810360008301526146d281614108565b9050919050565b600060208201905081810360008301526146f28161416e565b9050919050565b6000602082019050818103600083015261471281614214565b9050919050565b600060208201905061472e600083018461427a565b92915050565b60006020820190506147496000830184614289565b92915050565b6000604051905081810181811067ffffffffffffffff8211171561477657614775614b5c565b5b8060405250919050565b600067ffffffffffffffff82111561479b5761479a614b5c565b5b601f19601f8301169050602081019050919050565b600081519050919050565b600081519050919050565b600082825260208201905092915050565b600082825260208201905092915050565b600081905092915050565b60006147fe8261497c565b91506148098361497c565b9250827fffffffffffffffffffffffffffffffffffffffffffffffffffffffffffffffff0382111561483e5761483d614acf565b5b828201905092915050565b60006148548261497c565b915061485f8361497c565b92508261486f5761486e614afe565b5b828204905092915050565b60006148858261497c565b91506148908361497c565b9250817fffffffffffffffffffffffffffffffffffffffffffffffffffffffffffffffff04831182151516156148c9576148c8614acf565b5b828202905092915050565b60006148df8261497c565b91506148ea8361497c565b9250828210156148fd576148fc614acf565b5b828203905092915050565b60006149138261495c565b9050919050565b60008115159050919050565b6000819050919050565b60007fffffffff0000000000000000000000000000000000000000000000000000000082169050919050565b600073ffffffffffffffffffffffffffffffffffffffff82169050919050565b6000819050919050565b600060ff82169050919050565b600061499e826149a5565b9050919050565b60006149b08261495c565b9050919050565b82818337600083830152505050565b60005b838110156149e45780820151818401526020810190506149c9565b838111156149f3576000848401525b50505050565b6000614a048261497c565b91506000821415614a1857614a17614acf565b5b600182039050919050565b60006002820490506001821680614a3b57607f821691505b60208210811415614a4f57614a4e614b2d565b5b50919050565b6000614a608261497c565b91507fffffffffffffffffffffffffffffffffffffffffffffffffffffffffffffffff821415614a9357614a92614acf565b5b600182019050919050565b6000614aa98261497c565b9150614ab48361497c565b925082614ac457614ac3614afe565b5b828206905092915050565b7f4e487b7100000000000000000000000000000000000000000000000000000000600052601160045260246000fd5b7f4e487b7100000000000000000000000000000000000000000000000000000000600052601260045260246000fd5b7f4e487b7100000000000000000000000000000000000000000000000000000000600052602260045260246000fd5b7f4e487b7100000000000000000000000000000000000000000000000000000000600052604160045260246000fd5b6000601f19601f8301169050919050565b614ba581614908565b8114614bb057600080fd5b50565b614bbc8161491a565b8114614bc757600080fd5b50565b614bd381614926565b8114614bde57600080fd5b50565b614bea81614930565b8114614bf557600080fd5b50565b614c018161497c565b8114614c0c57600080fd5b5056fea26469706673582212206b9237ce5bf1730037df934328756306670562829e841ccccf6208b50d9d73dd64736f6c63430008000033",
  "immutableReferences": {},
  "source": "// SPDX-License-Identifier: MIT\npragma solidity ^0.8.0;\n\nimport \"./presets/ERC721PresetMinterPauserAutoId.sol\";\nimport \"./extensions/ERC721Pausable.sol\";\n\ncontract ERC721PresetMinterPauserAutoIdTest is ERC721PresetMinterPauserAutoId {\n    constructor()\n    ERC721PresetMinterPauserAutoId(\n        \"My Token\",\n        \"TKN\",\n        \"https://example.com/api/token/\"\n    )\n    {}\n\n    // function _beforeTokenTransfer(\n    //     address from,\n    //     address to,\n    //     uint256 tokenId\n    // ) internal virtual override(ERC721) {\n    //     super._beforeTokenTransfer(from, to, tokenId);\n    //     uint256 secondaryShare = msg.value / 100 * 10;\n    //     payable(_creatorOf(tokenId)).transfer(secondaryShare);\n    // }\n}",
  "sourcePath": "/Volumes/Transcend/Projects/DappsLab/Lottery-Smart-Contract/contracts/customERC20ERC721/ERC721/ERC721PresetMinterPauserAutoIdTest.sol",
  "compiler": {
    "name": "solc",
    "version": "0.8.0+commit.c7dfd78e.Emscripten.clang"
  },
  "schemaVersion": "3.4.1",
  "updatedAt": "2021-06-27T14:51:43.055Z",
  "devdoc": {
    "kind": "dev",
    "methods": {
      "_mint(address,uint256,uint256)": {
        "details": "Mints `tokenId` and transfers it to `to`. WARNING: Usage of this method is discouraged, use {_safeMint} whenever possible Requirements: - `tokenId` must not exist. - `to` cannot be the zero address. Emits a {Transfer} event."
      },
      "approve(address,uint256)": {
        "details": "See {IERC721-approve}."
      },
      "balanceOf(address)": {
        "details": "See {IERC721-balanceOf}."
      },
      "burn(uint256)": {
        "details": "Burns `tokenId`. See {ERC721-_burn}. Requirements: - The caller must own `tokenId` or be an approved operator."
      },
      "getApproved(uint256)": {
        "details": "See {IERC721-getApproved}."
      },
      "getRoleAdmin(bytes32)": {
        "details": "Returns the admin role that controls `role`. See {grantRole} and {revokeRole}. To change a role's admin, use {_setRoleAdmin}."
      },
      "getRoleMember(bytes32,uint256)": {
        "details": "Returns one of the accounts that have `role`. `index` must be a value between 0 and {getRoleMemberCount}, non-inclusive. Role bearers are not sorted in any particular way, and their ordering may change at any point. WARNING: When using {getRoleMember} and {getRoleMemberCount}, make sure you perform all queries on the same block. See the following https://forum.openzeppelin.com/t/iterating-over-elements-on-enumerableset-in-openzeppelin-contracts/2296[forum post] for more information."
      },
      "getRoleMemberCount(bytes32)": {
        "details": "Returns the number of accounts that have `role`. Can be used together with {getRoleMember} to enumerate all bearers of a role."
      },
      "grantRole(bytes32,address)": {
        "details": "Overload {grantRole} to track enumerable memberships"
      },
      "hasRole(bytes32,address)": {
        "details": "Returns `true` if `account` has been granted `role`."
      },
      "isApprovedForAll(address,address)": {
        "details": "See {IERC721-isApprovedForAll}."
      },
      "mint(address,uint256)": {
        "details": "Creates a new token for `to`. Its token ID will be automatically assigned (and available on the emitted {IERC721-Transfer} event), and the token URI autogenerated based on the base URI passed at construction. See {ERC721-_mint}. Requirements: - the caller must have the `MINTER_ROLE`."
      },
      "name()": {
        "details": "See {IERC721Metadata-name}."
      },
      "ownerOf(uint256)": {
        "details": "See {IERC721-ownerOf}."
      },
      "pause()": {
        "details": "Pauses all token transfers. See {ERC721Pausable} and {Pausable-_pause}. Requirements: - the caller must have the `PAUSER_ROLE`."
      },
      "paused()": {
        "details": "Returns true if the contract is paused, and false otherwise."
      },
      "renounceRole(bytes32,address)": {
        "details": "Overload {renounceRole} to track enumerable memberships"
      },
      "revokeRole(bytes32,address)": {
        "details": "Overload {revokeRole} to track enumerable memberships"
      },
      "safeTransferFrom(address,address,uint256)": {
        "details": "See {IERC721-safeTransferFrom}."
      },
      "safeTransferFrom(address,address,uint256,bytes)": {
        "details": "See {IERC721-safeTransferFrom}."
      },
      "setApprovalForAll(address,bool)": {
        "details": "See {IERC721-setApprovalForAll}."
      },
      "supportsInterface(bytes4)": {
        "details": "See {IERC165-supportsInterface}."
      },
      "symbol()": {
        "details": "See {IERC721Metadata-symbol}."
      },
      "tokenByIndex(uint256)": {
        "details": "See {IERC721Enumerable-tokenByIndex}."
      },
      "tokenOfOwnerByIndex(address,uint256)": {
        "details": "See {IERC721Enumerable-tokenOfOwnerByIndex}."
      },
      "tokenURI(uint256)": {
        "details": "See {IERC721Metadata-tokenURI}."
      },
      "totalSupply()": {
        "details": "See {IERC721Enumerable-totalSupply}."
      },
      "transferFrom(address,address,uint256)": {
        "details": "See {IERC721-transferFrom}."
      },
      "unpause()": {
        "details": "Unpauses all token transfers. See {ERC721Pausable} and {Pausable-_unpause}. Requirements: - the caller must have the `PAUSER_ROLE`."
      }
    },
    "version": 1
  },
  "userdoc": {
    "kind": "user",
    "methods": {
      "getToken()": {
        "notice": "Getter and Setter of _token (ERC20)*"
      }
    },
    "version": 1
  }
}