{
  "contractName": "Inbox",
  "abi": [
    {
      "inputs": [],
      "stateMutability": "nonpayable",
      "type": "constructor"
    },
    {
      "inputs": [],
      "name": "value",
      "outputs": [
        {
          "internalType": "uint256",
          "name": "",
          "type": "uint256"
        }
      ],
      "stateMutability": "view",
      "type": "function"
    },
    {
      "inputs": [
        {
          "internalType": "uint256",
          "name": "player",
          "type": "uint256"
        }
      ],
      "name": "set",
      "outputs": [],
      "stateMutability": "nonpayable",
      "type": "function"
    },
    {
      "inputs": [],
      "name": "get",
      "outputs": [
        {
          "internalType": "uint256",
          "name": "",
          "type": "uint256"
        }
      ],
      "stateMutability": "view",
      "type": "function"
    }
  ],
  "bytecode": "0x608060405234801561001057600080fd5b5060f58061001f6000396000f3fe6080604052348015600f57600080fd5b50600436106058577c010000000000000000000000000000000000000000000000000000000060003504633fa4f2458114605d57806360fe47b11460775780636d4ce63c146088575b600080fd5b6063608e565b604051606e919060b6565b60405180910390f35b60866082366004609f565b6094565b005b60636099565b60005481565b600055565b60005490565b60006020828403121560af578081fd5b5035919050565b9081526020019056fea264697066735822122057f79d0362f2603552630e15a84a82c2f56d03a279311fbeb963e21f98e5fe4064736f6c63430008000033",
  "immutableReferences": {},
  "source": "pragma solidity ^0.8.0;\n\ncontract Inbox {\n    uint256 public value;\n    constructor(){\n\n    }\n    function set(uint256 player) public{\n        value = player;\n    }\n    function get() public view returns(uint256){\n        return value;\n    }\n}\n",
  "sourcePath": "/Users/rakoon/Documents/Projects/DappsLab/Lottery-Smart-Contract/contracts/Inbox.sol",
  "compiler": {
    "name": "solc",
    "version": "0.8.0+commit.c7dfd78e.Emscripten.clang"
  },
  "schemaVersion": "3.4.6",
  "updatedAt": "2022-06-17T07:23:19.435Z",
  "devdoc": {
    "kind": "dev",
    "methods": {},
    "version": 1
  },
  "userdoc": {
    "kind": "user",
    "methods": {},
    "version": 1
  }
}