{
  "contractName": "IOT",
  "abi": [
    {
      "inputs": [],
      "stateMutability": "nonpayable",
      "type": "constructor"
    },
    {
      "inputs": [
        {
          "internalType": "address",
          "name": "",
          "type": "address"
        }
      ],
      "name": "distributerBalance",
      "outputs": [
        {
          "internalType": "uint256",
          "name": "",
          "type": "uint256"
        }
      ],
      "stateMutability": "view",
      "type": "function"
    },
    {
      "inputs": [
        {
          "internalType": "address",
          "name": "",
          "type": "address"
        }
      ],
      "name": "distributerIP",
      "outputs": [
        {
          "internalType": "string",
          "name": "",
          "type": "string"
        }
      ],
      "stateMutability": "view",
      "type": "function"
    },
    {
      "inputs": [
        {
          "internalType": "string",
          "name": "",
          "type": "string"
        }
      ],
      "name": "modelVendors",
      "outputs": [
        {
          "internalType": "address",
          "name": "",
          "type": "address"
        }
      ],
      "stateMutability": "view",
      "type": "function"
    },
    {
      "inputs": [
        {
          "internalType": "address",
          "name": "",
          "type": "address"
        }
      ],
      "name": "vendorIP",
      "outputs": [
        {
          "internalType": "string",
          "name": "",
          "type": "string"
        }
      ],
      "stateMutability": "view",
      "type": "function"
    },
    {
      "inputs": [
        {
          "internalType": "address",
          "name": "vendorAddress",
          "type": "address"
        },
        {
          "internalType": "string",
          "name": "model",
          "type": "string"
        }
      ],
      "name": "registerVendor",
      "outputs": [],
      "stateMutability": "nonpayable",
      "type": "function"
    },
    {
      "inputs": [
        {
          "internalType": "string",
          "name": "model",
          "type": "string"
        }
      ],
      "name": "getModelVendor",
      "outputs": [
        {
          "internalType": "address",
          "name": "",
          "type": "address"
        }
      ],
      "stateMutability": "view",
      "type": "function"
    },
    {
      "inputs": [
        {
          "internalType": "string",
          "name": "model",
          "type": "string"
        },
        {
          "internalType": "address[]",
          "name": "devicesAddresses",
          "type": "address[]"
        },
        {
          "internalType": "uint256",
          "name": "count",
          "type": "uint256"
        }
      ],
      "name": "registerDevices",
      "outputs": [
        {
          "internalType": "bool",
          "name": "",
          "type": "bool"
        }
      ],
      "stateMutability": "nonpayable",
      "type": "function"
    },
    {
      "inputs": [
        {
          "internalType": "string",
          "name": "model",
          "type": "string"
        }
      ],
      "name": "getDevices",
      "outputs": [
        {
          "components": [
            {
              "internalType": "string",
              "name": "model",
              "type": "string"
            },
            {
              "internalType": "address",
              "name": "deviveAddress",
              "type": "address"
            },
            {
              "internalType": "address",
              "name": "distributer",
              "type": "address"
            },
            {
              "internalType": "string",
              "name": "version",
              "type": "string"
            },
            {
              "internalType": "bytes32",
              "name": "hash",
              "type": "bytes32"
            }
          ],
          "internalType": "struct IOT.Device[]",
          "name": "",
          "type": "tuple[]"
        }
      ],
      "stateMutability": "view",
      "type": "function"
    },
    {
      "inputs": [
        {
          "internalType": "string",
          "name": "model",
          "type": "string"
        },
        {
          "internalType": "string",
          "name": "version",
          "type": "string"
        },
        {
          "internalType": "bytes32",
          "name": "hash",
          "type": "bytes32"
        },
        {
          "internalType": "string",
          "name": "ip",
          "type": "string"
        },
        {
          "internalType": "uint256",
          "name": "reward",
          "type": "uint256"
        },
        {
          "internalType": "uint256",
          "name": "time",
          "type": "uint256"
        }
      ],
      "name": "updateVendor",
      "outputs": [
        {
          "internalType": "bool",
          "name": "",
          "type": "bool"
        }
      ],
      "stateMutability": "nonpayable",
      "type": "function"
    },
    {
      "inputs": [
        {
          "internalType": "string",
          "name": "moddel",
          "type": "string"
        },
        {
          "internalType": "string",
          "name": "version",
          "type": "string"
        },
        {
          "internalType": "string",
          "name": "ip",
          "type": "string"
        },
        {
          "internalType": "bytes",
          "name": "sign",
          "type": "bytes"
        }
      ],
      "name": "registURL",
      "outputs": [
        {
          "internalType": "bool",
          "name": "",
          "type": "bool"
        }
      ],
      "stateMutability": "nonpayable",
      "type": "function"
    },
    {
      "inputs": [],
      "name": "verify",
      "outputs": [
        {
          "internalType": "bool",
          "name": "",
          "type": "bool"
        }
      ],
      "stateMutability": "pure",
      "type": "function"
    },
    {
      "inputs": [
        {
          "internalType": "string",
          "name": "message",
          "type": "string"
        }
      ],
      "name": "ethMessageHash",
      "outputs": [
        {
          "internalType": "bytes32",
          "name": "",
          "type": "bytes32"
        }
      ],
      "stateMutability": "pure",
      "type": "function"
    }
  ],
  "bytecode": "0x608060405234801561001057600080fd5b506112d4806100206000396000f3fe608060405234801561001057600080fd5b50600436106100d1576000357c010000000000000000000000000000000000000000000000000000000090048063acfa768d1161008e578063acfa768d14610192578063adf8ff9b146101a7578063c4a72160146101ba578063dfb4c140146101cd578063fc735e99146101e0578063ff7d325f146101e8576100d1565b80632a7fadac146100d657806331868878146100ff57806339e57c181461011f5780634111949c1461013f57806353ae18111461015f5780639729de2d1461017f575b600080fd5b6100e96100e4366004610c98565b6101fb565b6040516100f69190610f80565b60405180910390f35b61011261010d366004610c32565b61022d565b6040516100f69190611078565b61013261012d366004610cd3565b6102c7565b6040516100f69190611046565b61015261014d366004610c98565b6104cd565b6040516100f69190610f94565b61017261016d366004610c32565b61069f565b6040516100f69190611051565b61013261018d366004610e4c565b6106b1565b6101a56101a0366004610c4c565b6106bb565b005b6101726101b5366004610c98565b61070c565b6101326101c8366004610dac565b610767565b6101126101db366004610c32565b6108d0565b6101326108e9565b6100e96101f6366004610c98565b61095e565b6000808260405161020c9190610f33565b90815260405190819003602001902054600160a060020a031690505b919050565b6001602052600090815260409020805461024690611167565b80601f016020809104026020016040519081016040528092919081815260200182805461027290611167565b80156102bf5780601f10610294576101008083540402835291602001916102bf565b820191906000526020600020905b8154815290600101906020018083116102a257829003601f168201915b505050505081565b600080846040516102d89190610f33565b9081526040519081900360200190205433600160a060020a0390911614610334576040517f08c379a000000000000000000000000000000000000000000000000000000000815260040161032b9061108b565b60405180910390fd5b60005b828110156104c257835160009081908690849081106103695760e060020a634e487b7102600052603260045260246000fd5b602002602001015190506000806040518060a001604052808a815260200184600160a060020a0316815260200183600160a060020a031681526020016040518060400160405280600181526020017f300000000000000000000000000000000000000000000000000000000000000081525081526020018581525090508881600001819052506004896040516103ff9190610f33565b90815260405160209181900382019020805460018101825560009182529082902083518051859460059094029092019261043e92849290910190610a4f565b50602082810151600183018054600160a060020a0392831673ffffffffffffffffffffffffffffffffffffffff199182161790915560408501516002850180549190931691161790556060830151805161049e9260038501920190610a4f565b506080820151816004015550505050505080806104ba906111a5565b915050610337565b506001949350505050565b606060006004836040516104e19190610f33565b9081526020016040518091039020805480602002602001604051908101604052809291908181526020016000905b8282101561069357838290600052602060002090600502016040518060a001604052908160008201805461054290611167565b80601f016020809104026020016040519081016040528092919081815260200182805461056e90611167565b80156105bb5780601f10610590576101008083540402835291602001916105bb565b820191906000526020600020905b81548152906001019060200180831161059e57829003601f168201915b50505091835250506001820154600160a060020a03908116602083015260028301541660408201526003820180546060909201916105f890611167565b80601f016020809104026020016040519081016040528092919081815260200182805461062490611167565b80156106715780601f1061064657610100808354040283529160200191610671565b820191906000526020600020905b81548152906001019060200180831161065457829003601f168201915b505050505081526020016004820154815250508152602001906001019061050f565b50929695505050505050565b60036020526000908152604090205481565b6000949350505050565b816000826040516106cc9190610f33565b9081526040519081900360200190208054600160a060020a039290921673ffffffffffffffffffffffffffffffffffffffff199092169190911790555050565b600080826040516020016107209190610f33565b604051602081830303815290604052805190602001209050806040516020016107499190610f4f565b60405160208183030381529060405280519060200120915050919050565b600080876040516107789190610f33565b9081526040519081900360200190205433600160a060020a03909116146107cb576040517f08c379a000000000000000000000000000000000000000000000000000000000815260040161032b9061108b565b6040805160c0810182528881526020810188905280820187905260608181018190526080820186905260a08201859052915160059061080b908b90610f33565b90815260405160209181900382019020805460018101825560009182529082902083518051859460069094029092019261084a92849290910190610a4f565b5060208281015180516108639260018501920190610a4f565b506040820151600282015560608201518051610889916003840191602090910190610ad3565b506080820151600482015560a09091015160059091015533600090815260016020908152604090912087516108c092890190610a4f565b5060019998505050505050505050565b6002602052600090815260409020805461024690611167565b60008061090d6040518060a00160405280606b81526020016111f3606b913961070c565b9050600060405180608001604052806041815260200161125e60419139905073dd23780b150eee40c35edc223f495c91920643398061094c8484610984565b600160a060020a031614935050505090565b8051602081830181018051600082529282019190930120915254600160a060020a031681565b600080600080845160411461099f5760009350505050610a49565b50505060208201516040830151606084015160001a601b8110156109cb576109c8601b82611112565b90505b8060ff16601b141580156109e357508060ff16601c14155b156109f45760009350505050610a49565b60018682858560405160008152602001604052604051610a17949392919061105a565b6020604051602081039080840390855afa158015610a39573d6000803e3d6000fd5b5050506020604051035193505050505b92915050565b828054610a5b90611167565b90600052602060002090601f016020900481019282610a7d5760008555610ac3565b82601f10610a9657805160ff1916838001178555610ac3565b82800160010185558215610ac3579182015b82811115610ac3578251825591602001919060010190610aa8565b50610acf929150610b2c565b5090565b828054828255906000526020600020908101928215610b20579160200282015b82811115610b205782518051610b10918491602090910190610a4f565b5091602001919060010190610af3565b50610acf929150610b41565b5b80821115610acf5760008155600101610b2d565b80821115610acf576000610b558282610b5e565b50600101610b41565b508054610b6a90611167565b6000825580601f10610b7c5750610b9a565b601f016020900490600052602060002090810190610b9a9190610b2c565b50565b600067ffffffffffffffff831115610bb757610bb76111d9565b610bca601f8401601f19166020016110e8565b9050828152838383011115610bde57600080fd5b828260208301376000602084830101529392505050565b8035600160a060020a038116811461022857600080fd5b600082601f830112610c1c578081fd5b610c2b83833560208501610b9d565b9392505050565b600060208284031215610c43578081fd5b610c2b82610bf5565b60008060408385031215610c5e578081fd5b610c6783610bf5565b9150602083013567ffffffffffffffff811115610c82578182fd5b610c8e85828601610c0c565b9150509250929050565b600060208284031215610ca9578081fd5b813567ffffffffffffffff811115610cbf578182fd5b610ccb84828501610c0c565b949350505050565b600080600060608486031215610ce7578081fd5b833567ffffffffffffffff80821115610cfe578283fd5b610d0a87838801610c0c565b9450602091508186013581811115610d20578384fd5b8601601f81018813610d30578384fd5b803582811115610d4257610d426111d9565b8381029250610d528484016110e8565b8181528481019083860185850187018c1015610d6c578788fd5b8795505b83861015610d9557610d8181610bf5565b835260019590950194918601918601610d70565b50979a979950505050604095909501359450505050565b60008060008060008060c08789031215610dc4578182fd5b863567ffffffffffffffff80821115610ddb578384fd5b610de78a838b01610c0c565b97506020890135915080821115610dfc578384fd5b610e088a838b01610c0c565b9650604089013595506060890135915080821115610e24578384fd5b50610e3189828a01610c0c565b9350506080870135915060a087013590509295509295509295565b60008060008060808587031215610e61578384fd5b843567ffffffffffffffff80821115610e78578586fd5b610e8488838901610c0c565b95506020870135915080821115610e99578485fd5b610ea588838901610c0c565b94506040870135915080821115610eba578384fd5b610ec688838901610c0c565b93506060870135915080821115610edb578283fd5b508501601f81018713610eec578182fd5b610efb87823560208401610b9d565b91505092959194509250565b60008151808452610f1f816020860160208601611137565b601f01601f19169290920160200192915050565b60008251610f45818460208701611137565b9190910192915050565b7f19457468657265756d205369676e6564204d6573736167653a0a3332000000008152601c810191909152603c0190565b600160a060020a0391909116815260200190565b60208082528251828201819052600091906040908185019080840286018301878501865b8381101561103857603f19898403018552815160a08151818652610fde82870182610f07565b838b0151600160a060020a03908116888d01528a850151168a880152606080850151888303828a015291935091506110168382610f07565b6080948501519790940196909652505094870194925090860190600101610fb8565b509098975050505050505050565b901515815260200190565b90815260200190565b93845260ff9290921660208401526040830152606082015260800190565b600060208252610c2b6020830184610f07565b60208082526032908201527f73656e646572206973206e6f7420612076656e646f72206f72206e6f7420726560408201527f67697374657265642061732076656e646f720000000000000000000000000000606082015260800190565b60405181810167ffffffffffffffff8111828210171561110a5761110a6111d9565b604052919050565b600060ff821660ff84168060ff0382111561112f5761112f6111c0565b019392505050565b60005b8381101561115257818101518382015260200161113a565b83811115611161576000848401525b50505050565b60028104600182168061117b57607f821691505b6020821081141561119f5760e060020a634e487b7102600052602260045260246000fd5b50919050565b60006000198214156111b9576111b96111c0565b5060010190565b60e060020a634e487b7102600052601160045260246000fd5b60e060020a634e487b7102600052604160045260246000fdfe336366383631313866343466393138373332303561326665646139386139633334306533316362626434326630633664376330623165626539303438613136652c3078354233384461366137303163353638353435644366634230334663423837356635366265646443347ef2abfa6056a7fd0a008366fa5a612ab50a1003d3063b6aa3ec9afba2ea4bfb6b616620b068f2bd7e09661dbb7ce0dbeb8d0f9ed9b91c403c68ebfd0c3b2a5800a26469706673582212206944b77210586b4d3d6dd90cdae8750d596b6a46f1902f9fb329d8587b119e1764736f6c63430008000033",
  "immutableReferences": {},
  "source": "// SPDX-License-Identifier: MIT\npragma solidity ^0.8.0;\n\ncontract IOT {\n\n    mapping(string => address) public modelVendors;\n    mapping (address  => string) public vendorIP;\n    mapping (address  => string) public distributerIP;\n    mapping(address  => uint256) public distributerBalance;\n\n\n    struct Firmware{\n        string model;\n        string version;\n        bytes32 hash;\n        string[] urls;\n        uint256 reward;\n        uint256 time;\n    }\n    struct Device{\n        string model;\n        address deviveAddress;\n        address distributer;\n        string version;\n        bytes32 hash;\n    }\n\n    mapping(string =>Device[]) modelDevices;\n    mapping(string =>Firmware[]) modelFirmware;\n\n    constructor(){\n\n    }\n    function registerVendor(address vendorAddress, string memory model) public {\n        modelVendors[model] = vendorAddress;\n    }\n    function getModelVendor(string memory model) public view returns(address){\n        return modelVendors[model];\n    }\n    function registerDevices(string memory model,address[] memory devicesAddresses, uint256 count) public returns(bool){\n        require(msg.sender == modelVendors[model],\"sender is not a vendor or not registered as vendor\");\n        for(uint256 i=0; i < count; i++){\n            bytes32 hash = bytes32(0);\n            address devAddr = devicesAddresses[i];\n            address zeroAddr = address(0);\n            Device memory device = Device(model, devAddr, zeroAddr, \"0\", hash);\n            device.model = model;\n            modelDevices[model].push(device);\n        }\n        // emit event\n        return true;\n    }\n\n    function getDevices(string memory model)public view returns(Device[] memory) {\n        Device[] memory device = modelDevices[model];\n        return device;\n    }\n\n    function updateVendor(string memory model, string memory version, bytes32 hash, string memory ip, uint256 reward, uint256 time) public returns(bool){\n        require(msg.sender == modelVendors[model],\"sender is not a vendor or not registered as vendor\");\n        string[] memory tempurls;\n        Firmware memory firmware = Firmware(model, version, hash, tempurls, reward, time);\n        firmware.model = model;\n        firmware.version = version;\n        firmware.hash = hash;\n        firmware.reward = reward;\n        firmware.time = time;\n        modelFirmware[model].push(firmware);\n\n        vendorIP[msg.sender] = ip;\n        // emit Event\n        return true;\n    }\n\n    function registURL(string memory moddel, string memory version, string memory ip, bytes memory sign) public returns(bool){\n\n    }\n\n\n    function verify() public pure returns (bool) {\n        bytes32 message = ethMessageHash(\"3cf86118f44f91873205a2feda98a9c340e31cbbd42f0c6d7c0b1ebe9048a16e,0x5B38Da6a701c568545dCfcB03FcB875f56beddC4\");\n\n        bytes memory sig = hex\"7ef2abfa6056a7fd0a008366fa5a612ab50a1003d3063b6aa3ec9afba2ea4bfb6b616620b068f2bd7e09661dbb7ce0dbeb8d0f9ed9b91c403c68ebfd0c3b2a5800\";\n        address addr = 0xDd23780B150eEe40C35EDc223F495C9192064339;\n\n        return recover(message, sig) == addr;\n    }\n\n    /**\n     * @dev Recover signer address from a message by using their signature\n     * @param hash bytes32 message, the hash is the signed message. What is recovered is the signer address.\n     * @param sig bytes signature, the signature is generated using web3.eth.sign()\n     */\n    function recover(bytes32 hash, bytes memory sig) internal pure returns (address) {\n        bytes32 r;\n        bytes32 s;\n        uint8 v;\n\n        // Check the signature length\n        if (sig.length != 65) {\n            return (address(0));\n        }\n\n        // Divide the signature in r, s and v variables\n        // ecrecover takes the signature parameters, and the only way to get them\n        // currently is to use assembly.\n        // solium-disable-next-line security/no-inline-assembly\n        assembly {\n            r := mload(add(sig, 32))\n            s := mload(add(sig, 64))\n            v := byte(0, mload(add(sig, 96)))\n        }\n\n        // Version of signature should be 27 or 28, but 0 and 1 are also possible versions\n        if (v < 27) {\n            v += 27;\n        }\n\n        // If the version is correct return the signer address\n        if (v != 27 && v != 28) {\n            return (address(0));\n        } else {\n            // solium-disable-next-line arg-overflow\n            return ecrecover(hash, v, r, s);\n        }\n    }\n\n    /**\n    * @dev prefix a bytes32 value with \"\\x19Ethereum Signed Message:\" and hash the result\n    */\n    function ethMessageHash(string memory message) public pure returns (bytes32) {\n        bytes32 hash = keccak256(abi.encodePacked(message));\n        return keccak256(\n            abi.encodePacked(\"\\x19Ethereum Signed Message:\\n32\", hash)\n        );\n    }\n\n\n\n}",
  "sourcePath": "/Volumes/Transcend/Projects/DappsLab/Lottery-Smart-Contract/contracts/IotFirmwareUpdate.sol",
  "compiler": {
    "name": "solc",
    "version": "0.8.0+commit.c7dfd78e.Emscripten.clang"
  },
  "schemaVersion": "3.4.3",
  "updatedAt": "2021-10-28T09:05:59.249Z",
  "devdoc": {
    "kind": "dev",
    "methods": {
      "ethMessageHash(string)": {
        "details": "prefix a bytes32 value with \"\\x19Ethereum Signed Message:\" and hash the result"
      }
    },
    "version": 1
  },
  "userdoc": {
    "kind": "user",
    "methods": {},
    "version": 1
  }
}