{
  "contractName": "MyToken2",
  "abi": [
    {
      "inputs": [],
      "stateMutability": "nonpayable",
      "type": "constructor"
    },
    {
      "anonymous": false,
      "inputs": [
        {
          "indexed": true,
          "internalType": "address",
          "name": "owner",
          "type": "address"
        },
        {
          "indexed": true,
          "internalType": "address",
          "name": "approved",
          "type": "address"
        },
        {
          "indexed": true,
          "internalType": "uint256",
          "name": "tokenId",
          "type": "uint256"
        }
      ],
      "name": "Approval",
      "type": "event"
    },
    {
      "anonymous": false,
      "inputs": [
        {
          "indexed": true,
          "internalType": "address",
          "name": "owner",
          "type": "address"
        },
        {
          "indexed": true,
          "internalType": "address",
          "name": "operator",
          "type": "address"
        },
        {
          "indexed": false,
          "internalType": "bool",
          "name": "approved",
          "type": "bool"
        }
      ],
      "name": "ApprovalForAll",
      "type": "event"
    },
    {
      "anonymous": false,
      "inputs": [
        {
          "indexed": false,
          "internalType": "uint256",
          "name": "tokenId",
          "type": "uint256"
        },
        {
          "indexed": false,
          "internalType": "address",
          "name": "winner",
          "type": "address"
        },
        {
          "indexed": false,
          "internalType": "uint256",
          "name": "tokenAmount",
          "type": "uint256"
        }
      ],
      "name": "AuctionEnded",
      "type": "event"
    },
    {
      "anonymous": false,
      "inputs": [
        {
          "indexed": false,
          "internalType": "uint256",
          "name": "tokenId",
          "type": "uint256"
        },
        {
          "indexed": false,
          "internalType": "address",
          "name": "bidder",
          "type": "address"
        },
        {
          "indexed": false,
          "internalType": "uint256",
          "name": "tokenAmount",
          "type": "uint256"
        }
      ],
      "name": "HighestBidIncreased",
      "type": "event"
    },
    {
      "anonymous": false,
      "inputs": [
        {
          "indexed": true,
          "internalType": "address",
          "name": "from",
          "type": "address"
        },
        {
          "indexed": true,
          "internalType": "address",
          "name": "to",
          "type": "address"
        },
        {
          "indexed": true,
          "internalType": "uint256",
          "name": "tokenId",
          "type": "uint256"
        }
      ],
      "name": "Transfer",
      "type": "event"
    },
    {
      "inputs": [
        {
          "internalType": "uint256",
          "name": "",
          "type": "uint256"
        }
      ],
      "name": "_auctionEndTime",
      "outputs": [
        {
          "internalType": "uint256",
          "name": "",
          "type": "uint256"
        }
      ],
      "stateMutability": "view",
      "type": "function"
    },
    {
      "inputs": [],
      "name": "_creatorComission",
      "outputs": [
        {
          "internalType": "uint8",
          "name": "",
          "type": "uint8"
        }
      ],
      "stateMutability": "view",
      "type": "function"
    },
    {
      "inputs": [
        {
          "internalType": "uint256",
          "name": "",
          "type": "uint256"
        }
      ],
      "name": "_ended",
      "outputs": [
        {
          "internalType": "bool",
          "name": "",
          "type": "bool"
        }
      ],
      "stateMutability": "view",
      "type": "function"
    },
    {
      "inputs": [
        {
          "internalType": "uint256",
          "name": "",
          "type": "uint256"
        }
      ],
      "name": "_highestBid",
      "outputs": [
        {
          "internalType": "uint256",
          "name": "",
          "type": "uint256"
        }
      ],
      "stateMutability": "view",
      "type": "function"
    },
    {
      "inputs": [
        {
          "internalType": "uint256",
          "name": "",
          "type": "uint256"
        }
      ],
      "name": "_highestBidder",
      "outputs": [
        {
          "internalType": "address",
          "name": "",
          "type": "address"
        }
      ],
      "stateMutability": "view",
      "type": "function"
    },
    {
      "inputs": [
        {
          "internalType": "address",
          "name": "to",
          "type": "address"
        },
        {
          "internalType": "uint256",
          "name": "tokenId",
          "type": "uint256"
        },
        {
          "internalType": "uint256",
          "name": "tokenAmount",
          "type": "uint256"
        }
      ],
      "name": "_mint",
      "outputs": [],
      "stateMutability": "nonpayable",
      "type": "function"
    },
    {
      "inputs": [
        {
          "internalType": "uint256",
          "name": "",
          "type": "uint256"
        },
        {
          "internalType": "address",
          "name": "",
          "type": "address"
        }
      ],
      "name": "_pendingReturns",
      "outputs": [
        {
          "internalType": "uint256",
          "name": "",
          "type": "uint256"
        }
      ],
      "stateMutability": "view",
      "type": "function"
    },
    {
      "inputs": [
        {
          "internalType": "address",
          "name": "to",
          "type": "address"
        },
        {
          "internalType": "uint256",
          "name": "tokenId",
          "type": "uint256"
        }
      ],
      "name": "approve",
      "outputs": [],
      "stateMutability": "nonpayable",
      "type": "function"
    },
    {
      "inputs": [
        {
          "internalType": "uint256",
          "name": "tokenId",
          "type": "uint256"
        }
      ],
      "name": "auctionEnd",
      "outputs": [],
      "stateMutability": "nonpayable",
      "type": "function"
    },
    {
      "inputs": [
        {
          "internalType": "address",
          "name": "owner",
          "type": "address"
        }
      ],
      "name": "balanceOf",
      "outputs": [
        {
          "internalType": "uint256",
          "name": "",
          "type": "uint256"
        }
      ],
      "stateMutability": "view",
      "type": "function"
    },
    {
      "inputs": [
        {
          "internalType": "uint256",
          "name": "tokenId",
          "type": "uint256"
        },
        {
          "internalType": "uint256",
          "name": "tokenAmount",
          "type": "uint256"
        }
      ],
      "name": "bid",
      "outputs": [],
      "stateMutability": "payable",
      "type": "function"
    },
    {
      "inputs": [
        {
          "internalType": "uint256",
          "name": "tokenId",
          "type": "uint256"
        }
      ],
      "name": "getApproved",
      "outputs": [
        {
          "internalType": "address",
          "name": "",
          "type": "address"
        }
      ],
      "stateMutability": "view",
      "type": "function"
    },
    {
      "inputs": [],
      "name": "getToken",
      "outputs": [
        {
          "internalType": "contract ERC20",
          "name": "",
          "type": "address"
        }
      ],
      "stateMutability": "view",
      "type": "function"
    },
    {
      "inputs": [
        {
          "internalType": "address",
          "name": "owner",
          "type": "address"
        },
        {
          "internalType": "address",
          "name": "operator",
          "type": "address"
        }
      ],
      "name": "isApprovedForAll",
      "outputs": [
        {
          "internalType": "bool",
          "name": "",
          "type": "bool"
        }
      ],
      "stateMutability": "view",
      "type": "function"
    },
    {
      "inputs": [],
      "name": "name",
      "outputs": [
        {
          "internalType": "string",
          "name": "",
          "type": "string"
        }
      ],
      "stateMutability": "view",
      "type": "function"
    },
    {
      "inputs": [
        {
          "internalType": "uint256",
          "name": "tokenId",
          "type": "uint256"
        }
      ],
      "name": "ownerOf",
      "outputs": [
        {
          "internalType": "address",
          "name": "",
          "type": "address"
        }
      ],
      "stateMutability": "view",
      "type": "function"
    },
    {
      "inputs": [
        {
          "internalType": "address",
          "name": "from",
          "type": "address"
        },
        {
          "internalType": "address",
          "name": "to",
          "type": "address"
        },
        {
          "internalType": "uint256",
          "name": "tokenId",
          "type": "uint256"
        }
      ],
      "name": "safeTransferFrom",
      "outputs": [],
      "stateMutability": "nonpayable",
      "type": "function"
    },
    {
      "inputs": [
        {
          "internalType": "address",
          "name": "from",
          "type": "address"
        },
        {
          "internalType": "address",
          "name": "to",
          "type": "address"
        },
        {
          "internalType": "uint256",
          "name": "tokenId",
          "type": "uint256"
        },
        {
          "internalType": "bytes",
          "name": "_data",
          "type": "bytes"
        }
      ],
      "name": "safeTransferFrom",
      "outputs": [],
      "stateMutability": "nonpayable",
      "type": "function"
    },
    {
      "inputs": [
        {
          "internalType": "address",
          "name": "operator",
          "type": "address"
        },
        {
          "internalType": "bool",
          "name": "approved",
          "type": "bool"
        }
      ],
      "name": "setApprovalForAll",
      "outputs": [],
      "stateMutability": "nonpayable",
      "type": "function"
    },
    {
      "inputs": [
        {
          "internalType": "address",
          "name": "tokenAddress",
          "type": "address"
        }
      ],
      "name": "setToken",
      "outputs": [],
      "stateMutability": "nonpayable",
      "type": "function"
    },
    {
      "inputs": [
        {
          "internalType": "bytes4",
          "name": "interfaceId",
          "type": "bytes4"
        }
      ],
      "name": "supportsInterface",
      "outputs": [
        {
          "internalType": "bool",
          "name": "",
          "type": "bool"
        }
      ],
      "stateMutability": "view",
      "type": "function"
    },
    {
      "inputs": [],
      "name": "symbol",
      "outputs": [
        {
          "internalType": "string",
          "name": "",
          "type": "string"
        }
      ],
      "stateMutability": "view",
      "type": "function"
    },
    {
      "inputs": [
        {
          "internalType": "uint256",
          "name": "tokenId",
          "type": "uint256"
        }
      ],
      "name": "tokenURI",
      "outputs": [
        {
          "internalType": "string",
          "name": "",
          "type": "string"
        }
      ],
      "stateMutability": "view",
      "type": "function"
    },
    {
      "inputs": [
        {
          "internalType": "address",
          "name": "from",
          "type": "address"
        },
        {
          "internalType": "address",
          "name": "to",
          "type": "address"
        },
        {
          "internalType": "uint256",
          "name": "tokenId",
          "type": "uint256"
        }
      ],
      "name": "transferFrom",
      "outputs": [],
      "stateMutability": "nonpayable",
      "type": "function"
    },
    {
      "inputs": [
        {
          "internalType": "uint256",
          "name": "tokenId",
          "type": "uint256"
        }
      ],
      "name": "withdraw",
      "outputs": [
        {
          "internalType": "bool",
          "name": "",
          "type": "bool"
        }
      ],
      "stateMutability": "nonpayable",
      "type": "function"
    },
    {
      "inputs": [
        {
          "internalType": "uint256",
          "name": "tokenId",
          "type": "uint256"
        }
      ],
      "name": "_creatorOf",
      "outputs": [
        {
          "internalType": "address",
          "name": "",
          "type": "address"
        }
      ],
      "stateMutability": "view",
      "type": "function"
    },
    {
      "inputs": [
        {
          "internalType": "string",
          "name": "URI",
          "type": "string"
        },
        {
          "internalType": "uint256",
          "name": "tokenAmount",
          "type": "uint256"
        }
      ],
      "name": "MintNFT",
      "outputs": [
        {
          "internalType": "uint256",
          "name": "",
          "type": "uint256"
        }
      ],
      "stateMutability": "nonpayable",
      "type": "function"
    }
  ],
  "bytecode": "0x6080604052600a600360006101000a81548160ff021916908360ff1602179055503480156200002d57600080fd5b506040518060400160405280600981526020017f4d7920546f6b656e3200000000000000000000000000000000000000000000008152506040518060400160405280600481526020017f544b4e32000000000000000000000000000000000000000000000000000000008152508160019080519060200190620000b2929190620000d4565b508060029080519060200190620000cb929190620000d4565b505050620001e9565b828054620000e29062000184565b90600052602060002090601f01602090048101928262000106576000855562000152565b82601f106200012157805160ff191683800117855562000152565b8280016001018555821562000152579182015b828111156200015157825182559160200191906001019062000134565b5b50905062000161919062000165565b5090565b5b808211156200018057600081600090555060010162000166565b5090565b600060028204905060018216806200019d57607f821691505b60208210811415620001b457620001b3620001ba565b5b50919050565b7f4e487b7100000000000000000000000000000000000000000000000000000000600052602260045260246000fd5b613aba80620001f96000396000f3fe6080604052600436106101b9576000357c0100000000000000000000000000000000000000000000000000000000900480636e8e78db11610109578063c13423e5116100a7578063d61f0dd211610081578063d61f0dd214610630578063e985e9c51461066d578063ed052632146106aa578063ffc17467146106e7576101b9565b8063c13423e514610579578063c5ca1691146105b6578063c87b56dd146105f3576101b9565b806395d89b41116100e357806395d89b41146104bf578063a22cb465146104ea578063b7ffcb8414610513578063b88d4fde14610550576101b9565b80636e8e78db1461042e57806370a08231146104595780637776afa014610496576101b9565b806321df0da71161017657806332246e9f1161015057806332246e9f1461038357806342842e0e146103ac578063598647f8146103d55780636352211e146103f1576101b9565b806321df0da7146102f257806323b872dd1461031d5780632e1a7d4d14610346576101b9565b806301ffc9a7146101be57806306fdde03146101fb578063081812fc14610226578063095ea7b314610263578063131229d61461028c578063144fa6d7146102c9575b600080fd5b3480156101ca57600080fd5b506101e560048036038101906101e091906129a9565b610724565b6040516101f291906132da565b60405180910390f35b34801561020757600080fd5b50610210610806565b60405161021d9190613310565b60405180910390f35b34801561023257600080fd5b5061024d60048036038101906102489190612a4f565b610898565b60405161025a919061324a565b60405180910390f35b34801561026f57600080fd5b5061028a600480360381019061028591906128f5565b61091d565b005b34801561029857600080fd5b506102b360048036038101906102ae9190612a4f565b610a35565b6040516102c091906132da565b60405180910390f35b3480156102d557600080fd5b506102f060048036038101906102eb919061278a565b610a55565b005b3480156102fe57600080fd5b50610307610a98565b60405161031491906132f5565b60405180910390f35b34801561032957600080fd5b50610344600480360381019061033f91906127ef565b610ac1565b005b34801561035257600080fd5b5061036d60048036038101906103689190612a4f565b610b21565b60405161037a91906132da565b60405180910390f35b34801561038f57600080fd5b506103aa60048036038101906103a59190612a4f565b610d98565b005b3480156103b857600080fd5b506103d360048036038101906103ce91906127ef565b61100f565b005b6103ef60048036038101906103ea9190612ab4565b61102f565b005b3480156103fd57600080fd5b5061041860048036038101906104139190612a4f565b611259565b604051610425919061324a565b60405180910390f35b34801561043a57600080fd5b5061044361130b565b60405161045091906135c4565b60405180910390f35b34801561046557600080fd5b50610480600480360381019061047b919061278a565b61131e565b60405161048d9190613572565b60405180910390f35b3480156104a257600080fd5b506104bd60048036038101906104b89190612931565b6113d6565b005b3480156104cb57600080fd5b506104d46116ca565b6040516104e19190613310565b60405180910390f35b3480156104f657600080fd5b50610511600480360381019061050c91906128b9565b61175c565b005b34801561051f57600080fd5b5061053a60048036038101906105359190612a4f565b6118dd565b604051610547919061324a565b60405180910390f35b34801561055c57600080fd5b506105776004803603810190610572919061283e565b61191a565b005b34801561058557600080fd5b506105a0600480360381019061059b9190612a78565b61197c565b6040516105ad9190613572565b60405180910390f35b3480156105c257600080fd5b506105dd60048036038101906105d89190612a4f565b6119a1565b6040516105ea9190613572565b60405180910390f35b3480156105ff57600080fd5b5061061a60048036038101906106159190612a4f565b6119b9565b6040516106279190613310565b60405180910390f35b34801561063c57600080fd5b5061065760048036038101906106529190612a4f565b611a60565b6040516106649190613572565b60405180910390f35b34801561067957600080fd5b50610694600480360381019061068f91906127b3565b611a78565b6040516106a191906132da565b60405180910390f35b3480156106b657600080fd5b506106d160048036038101906106cc9190612a4f565b611b0c565b6040516106de919061324a565b60405180910390f35b3480156106f357600080fd5b5061070e600480360381019061070991906129fb565b611b3f565b60405161071b9190613572565b60405180910390f35b60007f80ac58cd000000000000000000000000000000000000000000000000000000007bffffffffffffffffffffffffffffffffffffffffffffffffffffffff1916827bffffffffffffffffffffffffffffffffffffffffffffffffffffffff191614806107ef57507f5b5e139f000000000000000000000000000000000000000000000000000000007bffffffffffffffffffffffffffffffffffffffffffffffffffffffff1916827bffffffffffffffffffffffffffffffffffffffffffffffffffffffff1916145b806107ff57506107fe82611ba8565b5b9050919050565b606060018054610815906138af565b80601f0160208091040260200160405190810160405280929190818152602001828054610841906138af565b801561088e5780601f106108635761010080835404028352916020019161088e565b820191906000526020600020905b81548152906001019060200180831161087157829003601f168201915b5050505050905090565b60006108a382611c12565b6108e2576040517f08c379a00000000000000000000000000000000000000000000000000000000081526004016108d9906134d2565b60405180910390fd5b600c600083815260200190815260200160002060009054906101000a900473ffffffffffffffffffffffffffffffffffffffff169050919050565b600061092882611259565b90508073ffffffffffffffffffffffffffffffffffffffff168373ffffffffffffffffffffffffffffffffffffffff161415610999576040517f08c379a000000000000000000000000000000000000000000000000000000000815260040161099090613532565b60405180910390fd5b8073ffffffffffffffffffffffffffffffffffffffff166109b8611c7e565b73ffffffffffffffffffffffffffffffffffffffff1614806109e757506109e6816109e1611c7e565b611a78565b5b610a26576040517f08c379a0000000000000000000000000000000000000000000000000000000008152600401610a1d90613452565b60405180910390fd5b610a308383611c86565b505050565b60096020528060005260406000206000915054906101000a900460ff1681565b806000806101000a81548173ffffffffffffffffffffffffffffffffffffffff021916908373ffffffffffffffffffffffffffffffffffffffff16021790555050565b60008060009054906101000a900473ffffffffffffffffffffffffffffffffffffffff16905090565b610ad2610acc611c7e565b82611d3f565b610b11576040517f08c379a0000000000000000000000000000000000000000000000000000000008152600401610b0890613552565b60405180910390fd5b610b1c838383611e1d565b505050565b6000806008600084815260200190815260200160002060003373ffffffffffffffffffffffffffffffffffffffff1673ffffffffffffffffffffffffffffffffffffffff1681526020019081526020016000205490506000811115610d8d5760006008600085815260200190815260200160002060003373ffffffffffffffffffffffffffffffffffffffff1673ffffffffffffffffffffffffffffffffffffffff1681526020019081526020016000208190555060008054906101000a900473ffffffffffffffffffffffffffffffffffffffff1673ffffffffffffffffffffffffffffffffffffffff1663af7d6ca36004600086815260200190815260200160002060009054906101000a900473ffffffffffffffffffffffffffffffffffffffff1660076000878152602001908152602001600020546040518363ffffffff167c0100000000000000000000000000000000000000000000000000000000028152600401610c939291906132b1565b602060405180830381600087803b158015610cad57600080fd5b505af1158015610cc1573d6000803e3d6000fd5b505050506040513d601f19601f82011682018060405250810190610ce59190612980565b15610d2d57610d286004600085815260200190815260200160002060009054906101000a900473ffffffffffffffffffffffffffffffffffffffff163385611e1d565b610d8c565b806008600085815260200190815260200160002060003373ffffffffffffffffffffffffffffffffffffffff1673ffffffffffffffffffffffffffffffffffffffff168152602001908152602001600020819055506000915050610d93565b5b60019150505b919050565b6005600082815260200190815260200160002054421015610dee576040517f08c379a0000000000000000000000000000000000000000000000000000000008152600401610de590613412565b60405180910390fd5b6009600082815260200190815260200160002060009054906101000a900460ff1615610e4f576040517f08c379a0000000000000000000000000000000000000000000000000000000008152600401610e4690613432565b60405180910390fd5b60016009600083815260200190815260200160002060006101000a81548160ff0219169083151502179055507fd2aa34a4fdbbc6dff6a3e56f46e0f3ae2a31d7785ff3487aa5c95c642acea501816006600084815260200190815260200160002060009054906101000a900473ffffffffffffffffffffffffffffffffffffffff166007600085815260200190815260200160002054604051610ef49392919061358d565b60405180910390a160008054906101000a900473ffffffffffffffffffffffffffffffffffffffff1673ffffffffffffffffffffffffffffffffffffffff1663af7d6ca36006600084815260200190815260200160002060009054906101000a900473ffffffffffffffffffffffffffffffffffffffff1660076000858152602001908152602001600020546040518363ffffffff167c0100000000000000000000000000000000000000000000000000000000028152600401610fb99291906132b1565b602060405180830381600087803b158015610fd357600080fd5b505af1158015610fe7573d6000803e3d6000fd5b505050506040513d601f19601f8201168201806040525081019061100b9190612980565b5050565b61102a8383836040518060200160405280600081525061191a565b505050565b6000811161103c57600080fd5b6005600083815260200190815260200160002054421115611092576040517f08c379a0000000000000000000000000000000000000000000000000000000008152600401611089906133b2565b60405180910390fd5b600760008381526020019081526020016000205481116110e7576040517f08c379a00000000000000000000000000000000000000000000000000000000081526004016110de906133f2565b60405180910390fd5b60006007600084815260200190815260200160002054146111b05760076000838152602001908152602001600020546008600084815260200190815260200160002060006006600086815260200190815260200160002060009054906101000a900473ffffffffffffffffffffffffffffffffffffffff1673ffffffffffffffffffffffffffffffffffffffff1673ffffffffffffffffffffffffffffffffffffffff16815260200190815260200160002060008282546111a891906136b3565b925050819055505b336006600084815260200190815260200160002060006101000a81548173ffffffffffffffffffffffffffffffffffffffff021916908373ffffffffffffffffffffffffffffffffffffffff1602179055508060076000848152602001908152602001600020819055507fda0a18da71d8ebd145966339a728fc0d8ccc07c22870d561890d823c515dda6b82338360405161124d9392919061358d565b60405180910390a15050565b6000806004600084815260200190815260200160002060009054906101000a900473ffffffffffffffffffffffffffffffffffffffff169050600073ffffffffffffffffffffffffffffffffffffffff168173ffffffffffffffffffffffffffffffffffffffff161415611302576040517f08c379a00000000000000000000000000000000000000000000000000000000081526004016112f990613492565b60405180910390fd5b80915050919050565b600360009054906101000a900460ff1681565b60008073ffffffffffffffffffffffffffffffffffffffff168273ffffffffffffffffffffffffffffffffffffffff16141561138f576040517f08c379a000000000000000000000000000000000000000000000000000000000815260040161138690613472565b60405180910390fd5b600b60008373ffffffffffffffffffffffffffffffffffffffff1673ffffffffffffffffffffffffffffffffffffffff168152602001908152602001600020549050919050565b600073ffffffffffffffffffffffffffffffffffffffff168373ffffffffffffffffffffffffffffffffffffffff161415611446576040517f08c379a000000000000000000000000000000000000000000000000000000000815260040161143d906134b2565b60405180910390fd5b61144f82611c12565b1561148f576040517f08c379a000000000000000000000000000000000000000000000000000000000815260040161148690613352565b60405180910390fd5b6000811161149c57600080fd5b60008054906101000a900473ffffffffffffffffffffffffffffffffffffffff1673ffffffffffffffffffffffffffffffffffffffff1663af7d6ca384836040518363ffffffff167c01000000000000000000000000000000000000000000000000000000000281526004016115139291906132b1565b602060405180830381600087803b15801561152d57600080fd5b505af1158015611541573d6000803e3d6000fd5b505050506040513d601f19601f820116820180604052508101906115659190612980565b61156e57600080fd5b6001600b60008573ffffffffffffffffffffffffffffffffffffffff1673ffffffffffffffffffffffffffffffffffffffff16815260200190815260200160002060008282546115be91906136b3565b92505081905550826004600084815260200190815260200160002060006101000a81548173ffffffffffffffffffffffffffffffffffffffff021916908373ffffffffffffffffffffffffffffffffffffffff16021790555082600a600084815260200190815260200160002060006101000a81548173ffffffffffffffffffffffffffffffffffffffff021916908373ffffffffffffffffffffffffffffffffffffffff160217905550818373ffffffffffffffffffffffffffffffffffffffff16600073ffffffffffffffffffffffffffffffffffffffff167fddf252ad1be2c89b69c2b068fc378daa952ba7f163c4a11628f55a4df523b3ef60405160405180910390a4505050565b6060600280546116d9906138af565b80601f0160208091040260200160405190810160405280929190818152602001828054611705906138af565b80156117525780601f1061172757610100808354040283529160200191611752565b820191906000526020600020905b81548152906001019060200180831161173557829003601f168201915b5050505050905090565b611764611c7e565b73ffffffffffffffffffffffffffffffffffffffff168273ffffffffffffffffffffffffffffffffffffffff1614156117d2576040517f08c379a00000000000000000000000000000000000000000000000000000000081526004016117c990613392565b60405180910390fd5b80600d60006117df611c7e565b73ffffffffffffffffffffffffffffffffffffffff1673ffffffffffffffffffffffffffffffffffffffff16815260200190815260200160002060008473ffffffffffffffffffffffffffffffffffffffff1673ffffffffffffffffffffffffffffffffffffffff16815260200190815260200160002060006101000a81548160ff0219169083151502179055508173ffffffffffffffffffffffffffffffffffffffff1661188c611c7e565b73ffffffffffffffffffffffffffffffffffffffff167f17307eab39ab6107e8899845ad3d59bd9653f200f220920489ca2b5937696c31836040516118d191906132da565b60405180910390a35050565b6000600a600083815260200190815260200160002060009054906101000a900473ffffffffffffffffffffffffffffffffffffffff169050919050565b61192b611925611c7e565b83611d3f565b61196a576040517f08c379a000000000000000000000000000000000000000000000000000000000815260040161196190613552565b60405180910390fd5b61197684848484612079565b50505050565b6008602052816000526040600020602052806000526040600020600091509150505481565b60076020528060005260406000206000915090505481565b60606119c482611c12565b611a03576040517f08c379a00000000000000000000000000000000000000000000000000000000081526004016119fa90613512565b60405180910390fd5b6000611a0d6120d5565b90506000815111611a2d5760405180602001604052806000815250611a58565b80611a37846120ec565b604051602001611a48929190613226565b6040516020818303038152906040525b915050919050565b60056020528060005260406000206000915090505481565b6000600d60008473ffffffffffffffffffffffffffffffffffffffff1673ffffffffffffffffffffffffffffffffffffffff16815260200190815260200160002060008373ffffffffffffffffffffffffffffffffffffffff1673ffffffffffffffffffffffffffffffffffffffff16815260200190815260200160002060009054906101000a900460ff16905092915050565b60066020528060005260406000206000915054906101000a900473ffffffffffffffffffffffffffffffffffffffff1681565b6000600e83908060018154018082558091505060019003906000526020600020016000909190919091509080519060200190611b7c929190612599565b5060006001600e80549050611b919190613794565b9050611b9e3382856122b8565b8091505092915050565b60007f01ffc9a7000000000000000000000000000000000000000000000000000000007bffffffffffffffffffffffffffffffffffffffffffffffffffffffff1916827bffffffffffffffffffffffffffffffffffffffffffffffffffffffff1916149050919050565b60008073ffffffffffffffffffffffffffffffffffffffff166004600084815260200190815260200160002060009054906101000a900473ffffffffffffffffffffffffffffffffffffffff1673ffffffffffffffffffffffffffffffffffffffff1614159050919050565b600033905090565b81600c600083815260200190815260200160002060006101000a81548173ffffffffffffffffffffffffffffffffffffffff021916908373ffffffffffffffffffffffffffffffffffffffff160217905550808273ffffffffffffffffffffffffffffffffffffffff16611cf983611259565b73ffffffffffffffffffffffffffffffffffffffff167f8c5be1e5ebec7d5bd14f71427d1e84f3dd0314c0f7b2291e5b200ac8c7c3b92560405160405180910390a45050565b6000611d4a82611c12565b611d89576040517f08c379a0000000000000000000000000000000000000000000000000000000008152600401611d80906133d2565b60405180910390fd5b6000611d9483611259565b90508073ffffffffffffffffffffffffffffffffffffffff168473ffffffffffffffffffffffffffffffffffffffff161480611e0357508373ffffffffffffffffffffffffffffffffffffffff16611deb84610898565b73ffffffffffffffffffffffffffffffffffffffff16145b80611e145750611e138185611a78565b5b91505092915050565b8273ffffffffffffffffffffffffffffffffffffffff16611e3d82611259565b73ffffffffffffffffffffffffffffffffffffffff1614611e93576040517f08c379a0000000000000000000000000000000000000000000000000000000008152600401611e8a906134f2565b60405180910390fd5b600073ffffffffffffffffffffffffffffffffffffffff168273ffffffffffffffffffffffffffffffffffffffff161415611f03576040517f08c379a0000000000000000000000000000000000000000000000000000000008152600401611efa90613372565b60405180910390fd5b611f0e8383836122d8565b611f19600082611c86565b6001600b60008573ffffffffffffffffffffffffffffffffffffffff1673ffffffffffffffffffffffffffffffffffffffff1681526020019081526020016000206000828254611f699190613794565b925050819055506001600b60008473ffffffffffffffffffffffffffffffffffffffff1673ffffffffffffffffffffffffffffffffffffffff1681526020019081526020016000206000828254611fc091906136b3565b92505081905550816004600083815260200190815260200160002060006101000a81548173ffffffffffffffffffffffffffffffffffffffff021916908373ffffffffffffffffffffffffffffffffffffffff160217905550808273ffffffffffffffffffffffffffffffffffffffff168473ffffffffffffffffffffffffffffffffffffffff167fddf252ad1be2c89b69c2b068fc378daa952ba7f163c4a11628f55a4df523b3ef60405160405180910390a4505050565b612084848484611e1d565b61209084848484612355565b6120cf576040517f08c379a00000000000000000000000000000000000000000000000000000000081526004016120c690613332565b60405180910390fd5b50505050565b606060405180602001604052806000815250905090565b60606000821415612134576040518060400160405280600181526020017f300000000000000000000000000000000000000000000000000000000000000081525090506122b3565b600082905060005b6000821461216657808061214f906138e1565b915050600a8261215f9190613709565b915061213c565b60008167ffffffffffffffff8111156121a8577f4e487b7100000000000000000000000000000000000000000000000000000000600052604160045260246000fd5b6040519080825280601f01601f1916602001820160405280156121da5781602001600182028036833780820191505090505b5090505b600085146122ac576001826121f39190613794565b9150600a85612202919061392a565b603061220e91906136b3565b7f010000000000000000000000000000000000000000000000000000000000000002818381518110612269577f4e487b7100000000000000000000000000000000000000000000000000000000600052603260045260246000fd5b60200101907effffffffffffffffffffffffffffffffffffffffffffffffffffffffffffff1916908160001a905350600a856122a59190613709565b94506121de565b8093505050505b919050565b6122d383838360405180602001604052806000815250612524565b505050565b6122e3838383612581565b6000600a6064346122f49190613709565b6122fe919061373a565b9050612309826118dd565b73ffffffffffffffffffffffffffffffffffffffff166108fc829081150290604051600060405180830381858888f1935050505015801561234e573d6000803e3d6000fd5b5050505050565b60006123768473ffffffffffffffffffffffffffffffffffffffff16612586565b15612517578373ffffffffffffffffffffffffffffffffffffffff1663150b7a0261239f611c7e565b8786866040518563ffffffff167c01000000000000000000000000000000000000000000000000000000000281526004016123dd9493929190613265565b602060405180830381600087803b1580156123f757600080fd5b505af192505050801561242857506040513d601f19601f8201168201806040525081019061242591906129d2565b60015b6124ab573d8060008114612458576040519150601f19603f3d011682016040523d82523d6000602084013e61245d565b606091505b506000815114156124a3576040517f08c379a000000000000000000000000000000000000000000000000000000000815260040161249a90613332565b60405180910390fd5b805181602001fd5b63150b7a027c0100000000000000000000000000000000000000000000000000000000027bffffffffffffffffffffffffffffffffffffffffffffffffffffffff1916817bffffffffffffffffffffffffffffffffffffffffffffffffffffffff19161491505061251c565b600190505b949350505050565b61252f8484846113d6565b61253c6000858584612355565b61257b576040517f08c379a000000000000000000000000000000000000000000000000000000000815260040161257290613332565b60405180910390fd5b50505050565b505050565b600080823b905060008111915050919050565b8280546125a5906138af565b90600052602060002090601f0160209004810192826125c7576000855561260e565b82601f106125e057805160ff191683800117855561260e565b8280016001018555821561260e579182015b8281111561260d5782518255916020019190600101906125f2565b5b50905061261b919061261f565b5090565b5b80821115612638576000816000905550600101612620565b5090565b600061264f61264a84613610565b6135df565b90508281526020810184848401111561266757600080fd5b61267284828561386d565b509392505050565b600061268d61268884613640565b6135df565b9050828152602081018484840111156126a557600080fd5b6126b084828561386d565b509392505050565b6000813590506126c781613a28565b92915050565b6000813590506126dc81613a3f565b92915050565b6000815190506126f181613a3f565b92915050565b60008135905061270681613a56565b92915050565b60008151905061271b81613a56565b92915050565b600082601f83011261273257600080fd5b813561274284826020860161263c565b91505092915050565b600082601f83011261275c57600080fd5b813561276c84826020860161267a565b91505092915050565b60008135905061278481613a6d565b92915050565b60006020828403121561279c57600080fd5b60006127aa848285016126b8565b91505092915050565b600080604083850312156127c657600080fd5b60006127d4858286016126b8565b92505060206127e5858286016126b8565b9150509250929050565b60008060006060848603121561280457600080fd5b6000612812868287016126b8565b9350506020612823868287016126b8565b925050604061283486828701612775565b9150509250925092565b6000806000806080858703121561285457600080fd5b6000612862878288016126b8565b9450506020612873878288016126b8565b935050604061288487828801612775565b925050606085013567ffffffffffffffff8111156128a157600080fd5b6128ad87828801612721565b91505092959194509250565b600080604083850312156128cc57600080fd5b60006128da858286016126b8565b92505060206128eb858286016126cd565b9150509250929050565b6000806040838503121561290857600080fd5b6000612916858286016126b8565b925050602061292785828601612775565b9150509250929050565b60008060006060848603121561294657600080fd5b6000612954868287016126b8565b935050602061296586828701612775565b925050604061297686828701612775565b9150509250925092565b60006020828403121561299257600080fd5b60006129a0848285016126e2565b91505092915050565b6000602082840312156129bb57600080fd5b60006129c9848285016126f7565b91505092915050565b6000602082840312156129e457600080fd5b60006129f28482850161270c565b91505092915050565b60008060408385031215612a0e57600080fd5b600083013567ffffffffffffffff811115612a2857600080fd5b612a348582860161274b565b9250506020612a4585828601612775565b9150509250929050565b600060208284031215612a6157600080fd5b6000612a6f84828501612775565b91505092915050565b60008060408385031215612a8b57600080fd5b6000612a9985828601612775565b9250506020612aaa858286016126b8565b9150509250929050565b60008060408385031215612ac757600080fd5b6000612ad585828601612775565b9250506020612ae685828601612775565b9150509250929050565b612af9816137c8565b82525050565b612b08816137da565b82525050565b6000612b1982613670565b612b238185613686565b9350612b3381856020860161387c565b612b3c81613a17565b840191505092915050565b612b5081613849565b82525050565b6000612b618261367b565b612b6b8185613697565b9350612b7b81856020860161387c565b612b8481613a17565b840191505092915050565b6000612b9a8261367b565b612ba481856136a8565b9350612bb481856020860161387c565b80840191505092915050565b6000612bcd603283613697565b91507f4552433732313a207472616e7366657220746f206e6f6e20455243373231526560008301527f63656976657220696d706c656d656e74657200000000000000000000000000006020830152604082019050919050565b6000612c33601c83613697565b91507f4552433732313a20746f6b656e20616c7265616479206d696e746564000000006000830152602082019050919050565b6000612c73602483613697565b91507f4552433732313a207472616e7366657220746f20746865207a65726f2061646460008301527f72657373000000000000000000000000000000000000000000000000000000006020830152604082019050919050565b6000612cd9601983613697565b91507f4552433732313a20617070726f766520746f2063616c6c6572000000000000006000830152602082019050919050565b6000612d19601683613697565b91507f41756374696f6e20616c726561647920656e6465642e000000000000000000006000830152602082019050919050565b6000612d59602c83613697565b91507f4552433732313a206f70657261746f7220717565727920666f72206e6f6e657860008301527f697374656e7420746f6b656e00000000000000000000000000000000000000006020830152604082019050919050565b6000612dbf601e83613697565b91507f546865726520616c7265616479206973206120686967686572206269642e00006000830152602082019050919050565b6000612dff601683613697565b91507f41756374696f6e206e6f742079657420656e6465642e000000000000000000006000830152602082019050919050565b6000612e3f602383613697565b91507f61756374696f6e456e642068617320616c7265616479206265656e2063616c6c60008301527f65642e00000000000000000000000000000000000000000000000000000000006020830152604082019050919050565b6000612ea5603883613697565b91507f4552433732313a20617070726f76652063616c6c6572206973206e6f74206f7760008301527f6e6572206e6f7220617070726f76656420666f7220616c6c00000000000000006020830152604082019050919050565b6000612f0b602a83613697565b91507f4552433732313a2062616c616e636520717565727920666f7220746865207a6560008301527f726f2061646472657373000000000000000000000000000000000000000000006020830152604082019050919050565b6000612f71602983613697565b91507f4552433732313a206f776e657220717565727920666f72206e6f6e657869737460008301527f656e7420746f6b656e00000000000000000000000000000000000000000000006020830152604082019050919050565b6000612fd7602083613697565b91507f4552433732313a206d696e7420746f20746865207a65726f20616464726573736000830152602082019050919050565b6000613017602c83613697565b91507f4552433732313a20617070726f76656420717565727920666f72206e6f6e657860008301527f697374656e7420746f6b656e00000000000000000000000000000000000000006020830152604082019050919050565b600061307d602983613697565b91507f4552433732313a207472616e73666572206f6620746f6b656e2074686174206960008301527f73206e6f74206f776e00000000000000000000000000000000000000000000006020830152604082019050919050565b60006130e3602f83613697565b91507f4552433732314d657461646174613a2055524920717565727920666f72206e6f60008301527f6e6578697374656e7420746f6b656e00000000000000000000000000000000006020830152604082019050919050565b6000613149602183613697565b91507f4552433732313a20617070726f76616c20746f2063757272656e74206f776e6560008301527f72000000000000000000000000000000000000000000000000000000000000006020830152604082019050919050565b60006131af603183613697565b91507f4552433732313a207472616e736665722063616c6c6572206973206e6f74206f60008301527f776e6572206e6f7220617070726f7665640000000000000000000000000000006020830152604082019050919050565b61321181613832565b82525050565b6132208161383c565b82525050565b60006132328285612b8f565b915061323e8284612b8f565b91508190509392505050565b600060208201905061325f6000830184612af0565b92915050565b600060808201905061327a6000830187612af0565b6132876020830186612af0565b6132946040830185613208565b81810360608301526132a68184612b0e565b905095945050505050565b60006040820190506132c66000830185612af0565b6132d36020830184613208565b9392505050565b60006020820190506132ef6000830184612aff565b92915050565b600060208201905061330a6000830184612b47565b92915050565b6000602082019050818103600083015261332a8184612b56565b905092915050565b6000602082019050818103600083015261334b81612bc0565b9050919050565b6000602082019050818103600083015261336b81612c26565b9050919050565b6000602082019050818103600083015261338b81612c66565b9050919050565b600060208201905081810360008301526133ab81612ccc565b9050919050565b600060208201905081810360008301526133cb81612d0c565b9050919050565b600060208201905081810360008301526133eb81612d4c565b9050919050565b6000602082019050818103600083015261340b81612db2565b9050919050565b6000602082019050818103600083015261342b81612df2565b9050919050565b6000602082019050818103600083015261344b81612e32565b9050919050565b6000602082019050818103600083015261346b81612e98565b9050919050565b6000602082019050818103600083015261348b81612efe565b9050919050565b600060208201905081810360008301526134ab81612f64565b9050919050565b600060208201905081810360008301526134cb81612fca565b9050919050565b600060208201905081810360008301526134eb8161300a565b9050919050565b6000602082019050818103600083015261350b81613070565b9050919050565b6000602082019050818103600083015261352b816130d6565b9050919050565b6000602082019050818103600083015261354b8161313c565b9050919050565b6000602082019050818103600083015261356b816131a2565b9050919050565b60006020820190506135876000830184613208565b92915050565b60006060820190506135a26000830186613208565b6135af6020830185612af0565b6135bc6040830184613208565b949350505050565b60006020820190506135d96000830184613217565b92915050565b6000604051905081810181811067ffffffffffffffff82111715613606576136056139e8565b5b8060405250919050565b600067ffffffffffffffff82111561362b5761362a6139e8565b5b601f19601f8301169050602081019050919050565b600067ffffffffffffffff82111561365b5761365a6139e8565b5b601f19601f8301169050602081019050919050565b600081519050919050565b600081519050919050565b600082825260208201905092915050565b600082825260208201905092915050565b600081905092915050565b60006136be82613832565b91506136c983613832565b9250827fffffffffffffffffffffffffffffffffffffffffffffffffffffffffffffffff038211156136fe576136fd61395b565b5b828201905092915050565b600061371482613832565b915061371f83613832565b92508261372f5761372e61398a565b5b828204905092915050565b600061374582613832565b915061375083613832565b9250817fffffffffffffffffffffffffffffffffffffffffffffffffffffffffffffffff04831182151516156137895761378861395b565b5b828202905092915050565b600061379f82613832565b91506137aa83613832565b9250828210156137bd576137bc61395b565b5b828203905092915050565b60006137d382613812565b9050919050565b60008115159050919050565b60007fffffffff0000000000000000000000000000000000000000000000000000000082169050919050565b600073ffffffffffffffffffffffffffffffffffffffff82169050919050565b6000819050919050565b600060ff82169050919050565b60006138548261385b565b9050919050565b600061386682613812565b9050919050565b82818337600083830152505050565b60005b8381101561389a57808201518184015260208101905061387f565b838111156138a9576000848401525b50505050565b600060028204905060018216806138c757607f821691505b602082108114156138db576138da6139b9565b5b50919050565b60006138ec82613832565b91507fffffffffffffffffffffffffffffffffffffffffffffffffffffffffffffffff82141561391f5761391e61395b565b5b600182019050919050565b600061393582613832565b915061394083613832565b9250826139505761394f61398a565b5b828206905092915050565b7f4e487b7100000000000000000000000000000000000000000000000000000000600052601160045260246000fd5b7f4e487b7100000000000000000000000000000000000000000000000000000000600052601260045260246000fd5b7f4e487b7100000000000000000000000000000000000000000000000000000000600052602260045260246000fd5b7f4e487b7100000000000000000000000000000000000000000000000000000000600052604160045260246000fd5b6000601f19601f8301169050919050565b613a31816137c8565b8114613a3c57600080fd5b50565b613a48816137da565b8114613a5357600080fd5b50565b613a5f816137e6565b8114613a6a57600080fd5b50565b613a7681613832565b8114613a8157600080fd5b5056fea264697066735822122076e725085c0cfd0b772c4f2d2a62c657620b4cfe47a45e0b4557c019c0c63a1564736f6c63430008000033",
  "immutableReferences": {},
  "source": "// SPDX-License-Identifier: MIT\npragma solidity ^0.8.0;\n\nimport \"./ERC721.sol\";\n\ncontract MyToken2 is ERC721 {\n    string[] internal tokens;\n\n    constructor()\n    ERC721(\n        \"My Token2\",\n        \"TKN2\"\n    ){}\n\n    function _creatorOf(uint256 tokenId) public view returns(address){\n        return _creator[tokenId];\n    }\n\n    function MintNFT(string memory URI, uint256 tokenAmount) public returns(uint256) {\n        tokens.push(URI);\n        uint256 tokenId = tokens.length - 1;\n        _safeMint(msg.sender, tokenId, tokenAmount);\n        return tokenId;\n    }\n    function _beforeTokenTransfer(\n        address from,\n        address to,\n        uint256 tokenId\n    ) internal virtual override(ERC721) {\n        super._beforeTokenTransfer(from, to, tokenId);\n        uint256 secondaryShare = msg.value / 100 * 10;\n        payable(_creatorOf(tokenId)).transfer(secondaryShare);\n    }\n}",
  "sourcePath": "/Volumes/Transcend/Projects/DappsLab/Lottery-Smart-Contract/contracts/customERC20ERC721/ERC721/MyToken2.sol",
  "compiler": {
    "name": "solc",
    "version": "0.8.0+commit.c7dfd78e.Emscripten.clang"
  },
  "schemaVersion": "3.4.1",
  "updatedAt": "2021-06-28T20:35:59.787Z",
  "devdoc": {
    "kind": "dev",
    "methods": {
      "_mint(address,uint256,uint256)": {
        "details": "Mints `tokenId` and transfers it to `to`. WARNING: Usage of this method is discouraged, use {_safeMint} whenever possible Requirements: - `tokenId` must not exist. - `to` cannot be the zero address. Emits a {Transfer} event."
      },
      "approve(address,uint256)": {
        "details": "See {IERC721-approve}."
      },
      "balanceOf(address)": {
        "details": "See {IERC721-balanceOf}."
      },
      "getApproved(uint256)": {
        "details": "See {IERC721-getApproved}."
      },
      "isApprovedForAll(address,address)": {
        "details": "See {IERC721-isApprovedForAll}."
      },
      "name()": {
        "details": "See {IERC721Metadata-name}."
      },
      "ownerOf(uint256)": {
        "details": "See {IERC721-ownerOf}."
      },
      "safeTransferFrom(address,address,uint256)": {
        "details": "See {IERC721-safeTransferFrom}."
      },
      "safeTransferFrom(address,address,uint256,bytes)": {
        "details": "See {IERC721-safeTransferFrom}."
      },
      "setApprovalForAll(address,bool)": {
        "details": "See {IERC721-setApprovalForAll}."
      },
      "supportsInterface(bytes4)": {
        "details": "See {IERC165-supportsInterface}."
      },
      "symbol()": {
        "details": "See {IERC721Metadata-symbol}."
      },
      "tokenURI(uint256)": {
        "details": "See {IERC721Metadata-tokenURI}."
      },
      "transferFrom(address,address,uint256)": {
        "details": "See {IERC721-transferFrom}."
      }
    },
    "version": 1
  },
  "userdoc": {
    "kind": "user",
    "methods": {
      "auctionEnd(uint256)": {
        "notice": "End the auction and send the highest bid to the beneficiary."
      },
      "getToken()": {
        "notice": "Getter and Setter of _token (ERC20)*"
      },
      "withdraw(uint256)": {
        "notice": "Withdraw a bid that was overbid."
      }
    },
    "version": 1
  }
}