{
  "contractName": "MyToken2",
  "abi": [
    {
      "inputs": [],
      "stateMutability": "nonpayable",
      "type": "constructor"
    },
    {
      "anonymous": false,
      "inputs": [
        {
          "indexed": true,
          "internalType": "address",
          "name": "owner",
          "type": "address"
        },
        {
          "indexed": true,
          "internalType": "address",
          "name": "approved",
          "type": "address"
        },
        {
          "indexed": true,
          "internalType": "uint256",
          "name": "tokenId",
          "type": "uint256"
        }
      ],
      "name": "Approval",
      "type": "event"
    },
    {
      "anonymous": false,
      "inputs": [
        {
          "indexed": true,
          "internalType": "address",
          "name": "owner",
          "type": "address"
        },
        {
          "indexed": true,
          "internalType": "address",
          "name": "operator",
          "type": "address"
        },
        {
          "indexed": false,
          "internalType": "bool",
          "name": "approved",
          "type": "bool"
        }
      ],
      "name": "ApprovalForAll",
      "type": "event"
    },
    {
      "anonymous": false,
      "inputs": [
        {
          "indexed": true,
          "internalType": "address",
          "name": "from",
          "type": "address"
        },
        {
          "indexed": true,
          "internalType": "address",
          "name": "to",
          "type": "address"
        },
        {
          "indexed": true,
          "internalType": "uint256",
          "name": "tokenId",
          "type": "uint256"
        }
      ],
      "name": "Transfer",
      "type": "event"
    },
    {
      "inputs": [],
      "name": "_creatorComission",
      "outputs": [
        {
          "internalType": "uint8",
          "name": "",
          "type": "uint8"
        }
      ],
      "stateMutability": "view",
      "type": "function"
    },
    {
      "inputs": [
        {
          "internalType": "address",
          "name": "to",
          "type": "address"
        },
        {
          "internalType": "uint256",
          "name": "tokenId",
          "type": "uint256"
        },
        {
          "internalType": "uint256",
          "name": "tokenAmount",
          "type": "uint256"
        }
      ],
      "name": "_mint",
      "outputs": [],
      "stateMutability": "nonpayable",
      "type": "function"
    },
    {
      "inputs": [
        {
          "internalType": "address",
          "name": "to",
          "type": "address"
        },
        {
          "internalType": "uint256",
          "name": "tokenId",
          "type": "uint256"
        }
      ],
      "name": "approve",
      "outputs": [],
      "stateMutability": "nonpayable",
      "type": "function"
    },
    {
      "inputs": [
        {
          "internalType": "address",
          "name": "owner",
          "type": "address"
        }
      ],
      "name": "balanceOf",
      "outputs": [
        {
          "internalType": "uint256",
          "name": "",
          "type": "uint256"
        }
      ],
      "stateMutability": "view",
      "type": "function"
    },
    {
      "inputs": [
        {
          "internalType": "uint256",
          "name": "tokenId",
          "type": "uint256"
        }
      ],
      "name": "getApproved",
      "outputs": [
        {
          "internalType": "address",
          "name": "",
          "type": "address"
        }
      ],
      "stateMutability": "view",
      "type": "function"
    },
    {
      "inputs": [],
      "name": "getToken",
      "outputs": [
        {
          "internalType": "contract ERC20",
          "name": "",
          "type": "address"
        }
      ],
      "stateMutability": "view",
      "type": "function"
    },
    {
      "inputs": [
        {
          "internalType": "address",
          "name": "owner",
          "type": "address"
        },
        {
          "internalType": "address",
          "name": "operator",
          "type": "address"
        }
      ],
      "name": "isApprovedForAll",
      "outputs": [
        {
          "internalType": "bool",
          "name": "",
          "type": "bool"
        }
      ],
      "stateMutability": "view",
      "type": "function"
    },
    {
      "inputs": [],
      "name": "name",
      "outputs": [
        {
          "internalType": "string",
          "name": "",
          "type": "string"
        }
      ],
      "stateMutability": "view",
      "type": "function"
    },
    {
      "inputs": [
        {
          "internalType": "uint256",
          "name": "tokenId",
          "type": "uint256"
        }
      ],
      "name": "ownerOf",
      "outputs": [
        {
          "internalType": "address",
          "name": "",
          "type": "address"
        }
      ],
      "stateMutability": "view",
      "type": "function"
    },
    {
      "inputs": [
        {
          "internalType": "address",
          "name": "from",
          "type": "address"
        },
        {
          "internalType": "address",
          "name": "to",
          "type": "address"
        },
        {
          "internalType": "uint256",
          "name": "tokenId",
          "type": "uint256"
        }
      ],
      "name": "safeTransferFrom",
      "outputs": [],
      "stateMutability": "nonpayable",
      "type": "function"
    },
    {
      "inputs": [
        {
          "internalType": "address",
          "name": "from",
          "type": "address"
        },
        {
          "internalType": "address",
          "name": "to",
          "type": "address"
        },
        {
          "internalType": "uint256",
          "name": "tokenId",
          "type": "uint256"
        },
        {
          "internalType": "bytes",
          "name": "_data",
          "type": "bytes"
        }
      ],
      "name": "safeTransferFrom",
      "outputs": [],
      "stateMutability": "nonpayable",
      "type": "function"
    },
    {
      "inputs": [
        {
          "internalType": "address",
          "name": "operator",
          "type": "address"
        },
        {
          "internalType": "bool",
          "name": "approved",
          "type": "bool"
        }
      ],
      "name": "setApprovalForAll",
      "outputs": [],
      "stateMutability": "nonpayable",
      "type": "function"
    },
    {
      "inputs": [
        {
          "internalType": "address",
          "name": "tokenAddress",
          "type": "address"
        }
      ],
      "name": "setToken",
      "outputs": [],
      "stateMutability": "nonpayable",
      "type": "function"
    },
    {
      "inputs": [
        {
          "internalType": "bytes4",
          "name": "interfaceId",
          "type": "bytes4"
        }
      ],
      "name": "supportsInterface",
      "outputs": [
        {
          "internalType": "bool",
          "name": "",
          "type": "bool"
        }
      ],
      "stateMutability": "view",
      "type": "function"
    },
    {
      "inputs": [],
      "name": "symbol",
      "outputs": [
        {
          "internalType": "string",
          "name": "",
          "type": "string"
        }
      ],
      "stateMutability": "view",
      "type": "function"
    },
    {
      "inputs": [
        {
          "internalType": "uint256",
          "name": "tokenId",
          "type": "uint256"
        }
      ],
      "name": "tokenURI",
      "outputs": [
        {
          "internalType": "string",
          "name": "",
          "type": "string"
        }
      ],
      "stateMutability": "view",
      "type": "function"
    },
    {
      "inputs": [
        {
          "internalType": "address",
          "name": "from",
          "type": "address"
        },
        {
          "internalType": "address",
          "name": "to",
          "type": "address"
        },
        {
          "internalType": "uint256",
          "name": "tokenId",
          "type": "uint256"
        }
      ],
      "name": "transferFrom",
      "outputs": [],
      "stateMutability": "nonpayable",
      "type": "function"
    },
    {
      "inputs": [
        {
          "internalType": "uint256",
          "name": "tokenId",
          "type": "uint256"
        }
      ],
      "name": "_creatorOf",
      "outputs": [
        {
          "internalType": "address",
          "name": "",
          "type": "address"
        }
      ],
      "stateMutability": "view",
      "type": "function"
    },
    {
      "inputs": [
        {
          "internalType": "string",
          "name": "URI",
          "type": "string"
        },
        {
          "internalType": "uint256",
          "name": "tokenAmount",
          "type": "uint256"
        }
      ],
      "name": "MintNFT",
      "outputs": [
        {
          "internalType": "uint256",
          "name": "",
          "type": "uint256"
        }
      ],
      "stateMutability": "nonpayable",
      "type": "function"
    }
  ],
  "bytecode": "0x6080604052600a600360006101000a81548160ff021916908360ff1602179055503480156200002d57600080fd5b506040518060400160405280600981526020017f4d7920546f6b656e3200000000000000000000000000000000000000000000008152506040518060400160405280600481526020017f544b4e32000000000000000000000000000000000000000000000000000000008152508160019080519060200190620000b2929190620000d4565b508060029080519060200190620000cb929190620000d4565b505050620001e9565b828054620000e29062000184565b90600052602060002090601f01602090048101928262000106576000855562000152565b82601f106200012157805160ff191683800117855562000152565b8280016001018555821562000152579182015b828111156200015157825182559160200191906001019062000134565b5b50905062000161919062000165565b5090565b5b808211156200018057600081600090555060010162000166565b5090565b600060028204905060018216806200019d57607f821691505b60208210811415620001b457620001b3620001ba565b5b50919050565b7f4e487b7100000000000000000000000000000000000000000000000000000000600052602260045260246000fd5b612d8080620001f96000396000f3fe608060405234801561001057600080fd5b506004361061013e576000357c0100000000000000000000000000000000000000000000000000000000900480636e8e78db116100ca578063b7ffcb841161008e578063b7ffcb8414610323578063b88d4fde14610353578063c87b56dd1461036f578063e985e9c51461039f578063ffc17467146103cf5761013e565b80636e8e78db1461027f57806370a082311461029d5780637776afa0146102cd57806395d89b41146102e9578063a22cb465146103075761013e565b8063144fa6d711610111578063144fa6d7146101dd57806321df0da7146101f957806323b872dd1461021757806342842e0e146102335780636352211e1461024f5761013e565b806301ffc9a71461014357806306fdde0314610173578063081812fc14610191578063095ea7b3146101c1575b600080fd5b61015d60048036038101906101589190611ec4565b6103ff565b60405161016a9190612657565b60405180910390f35b61017b6104e1565b604051610188919061268d565b60405180910390f35b6101ab60048036038101906101a69190611f6a565b610573565b6040516101b891906125c7565b60405180910390f35b6101db60048036038101906101d69190611e10565b6105f8565b005b6101f760048036038101906101f29190611ca5565b610710565b005b610201610753565b60405161020e9190612672565b60405180910390f35b610231600480360381019061022c9190611d0a565b61077c565b005b61024d60048036038101906102489190611d0a565b6107dc565b005b61026960048036038101906102649190611f6a565b6107fc565b60405161027691906125c7565b60405180910390f35b6102876108ae565b604051610294919061288a565b60405180910390f35b6102b760048036038101906102b29190611ca5565b6108c1565b6040516102c4919061286f565b60405180910390f35b6102e760048036038101906102e29190611e4c565b610979565b005b6102f1610c6d565b6040516102fe919061268d565b60405180910390f35b610321600480360381019061031c9190611dd4565b610cff565b005b61033d60048036038101906103389190611f6a565b610e80565b60405161034a91906125c7565b60405180910390f35b61036d60048036038101906103689190611d59565b610ebd565b005b61038960048036038101906103849190611f6a565b610f1f565b604051610396919061268d565b60405180910390f35b6103b960048036038101906103b49190611cce565b610fc6565b6040516103c69190612657565b60405180910390f35b6103e960048036038101906103e49190611f16565b61105a565b6040516103f6919061286f565b60405180910390f35b60007f80ac58cd000000000000000000000000000000000000000000000000000000007bffffffffffffffffffffffffffffffffffffffffffffffffffffffff1916827bffffffffffffffffffffffffffffffffffffffffffffffffffffffff191614806104ca57507f5b5e139f000000000000000000000000000000000000000000000000000000007bffffffffffffffffffffffffffffffffffffffffffffffffffffffff1916827bffffffffffffffffffffffffffffffffffffffffffffffffffffffff1916145b806104da57506104d9826110c3565b5b9050919050565b6060600180546104f090612b75565b80601f016020809104026020016040519081016040528092919081815260200182805461051c90612b75565b80156105695780601f1061053e57610100808354040283529160200191610569565b820191906000526020600020905b81548152906001019060200180831161054c57829003601f168201915b5050505050905090565b600061057e8261112d565b6105bd576040517f08c379a00000000000000000000000000000000000000000000000000000000081526004016105b4906127cf565b60405180910390fd5b6007600083815260200190815260200160002060009054906101000a900473ffffffffffffffffffffffffffffffffffffffff169050919050565b6000610603826107fc565b90508073ffffffffffffffffffffffffffffffffffffffff168373ffffffffffffffffffffffffffffffffffffffff161415610674576040517f08c379a000000000000000000000000000000000000000000000000000000000815260040161066b9061282f565b60405180910390fd5b8073ffffffffffffffffffffffffffffffffffffffff16610693611199565b73ffffffffffffffffffffffffffffffffffffffff1614806106c257506106c1816106bc611199565b610fc6565b5b610701576040517f08c379a00000000000000000000000000000000000000000000000000000000081526004016106f89061274f565b60405180910390fd5b61070b83836111a1565b505050565b806000806101000a81548173ffffffffffffffffffffffffffffffffffffffff021916908373ffffffffffffffffffffffffffffffffffffffff16021790555050565b60008060009054906101000a900473ffffffffffffffffffffffffffffffffffffffff16905090565b61078d610787611199565b8261125a565b6107cc576040517f08c379a00000000000000000000000000000000000000000000000000000000081526004016107c39061284f565b60405180910390fd5b6107d7838383611338565b505050565b6107f783838360405180602001604052806000815250610ebd565b505050565b6000806004600084815260200190815260200160002060009054906101000a900473ffffffffffffffffffffffffffffffffffffffff169050600073ffffffffffffffffffffffffffffffffffffffff168173ffffffffffffffffffffffffffffffffffffffff1614156108a5576040517f08c379a000000000000000000000000000000000000000000000000000000000815260040161089c9061278f565b60405180910390fd5b80915050919050565b600360009054906101000a900460ff1681565b60008073ffffffffffffffffffffffffffffffffffffffff168273ffffffffffffffffffffffffffffffffffffffff161415610932576040517f08c379a00000000000000000000000000000000000000000000000000000000081526004016109299061276f565b60405180910390fd5b600660008373ffffffffffffffffffffffffffffffffffffffff1673ffffffffffffffffffffffffffffffffffffffff168152602001908152602001600020549050919050565b600073ffffffffffffffffffffffffffffffffffffffff168373ffffffffffffffffffffffffffffffffffffffff1614156109e9576040517f08c379a00000000000000000000000000000000000000000000000000000000081526004016109e0906127af565b60405180910390fd5b6109f28261112d565b15610a32576040517f08c379a0000000000000000000000000000000000000000000000000000000008152600401610a29906126cf565b60405180910390fd5b60008111610a3f57600080fd5b60008054906101000a900473ffffffffffffffffffffffffffffffffffffffff1673ffffffffffffffffffffffffffffffffffffffff1663af7d6ca384836040518363ffffffff167c0100000000000000000000000000000000000000000000000000000000028152600401610ab692919061262e565b602060405180830381600087803b158015610ad057600080fd5b505af1158015610ae4573d6000803e3d6000fd5b505050506040513d601f19601f82011682018060405250810190610b089190611e9b565b610b1157600080fd5b6001600660008573ffffffffffffffffffffffffffffffffffffffff1673ffffffffffffffffffffffffffffffffffffffff1681526020019081526020016000206000828254610b619190612979565b92505081905550826004600084815260200190815260200160002060006101000a81548173ffffffffffffffffffffffffffffffffffffffff021916908373ffffffffffffffffffffffffffffffffffffffff160217905550826005600084815260200190815260200160002060006101000a81548173ffffffffffffffffffffffffffffffffffffffff021916908373ffffffffffffffffffffffffffffffffffffffff160217905550818373ffffffffffffffffffffffffffffffffffffffff16600073ffffffffffffffffffffffffffffffffffffffff167fddf252ad1be2c89b69c2b068fc378daa952ba7f163c4a11628f55a4df523b3ef60405160405180910390a4505050565b606060028054610c7c90612b75565b80601f0160208091040260200160405190810160405280929190818152602001828054610ca890612b75565b8015610cf55780601f10610cca57610100808354040283529160200191610cf5565b820191906000526020600020905b815481529060010190602001808311610cd857829003601f168201915b5050505050905090565b610d07611199565b73ffffffffffffffffffffffffffffffffffffffff168273ffffffffffffffffffffffffffffffffffffffff161415610d75576040517f08c379a0000000000000000000000000000000000000000000000000000000008152600401610d6c9061270f565b60405180910390fd5b8060086000610d82611199565b73ffffffffffffffffffffffffffffffffffffffff1673ffffffffffffffffffffffffffffffffffffffff16815260200190815260200160002060008473ffffffffffffffffffffffffffffffffffffffff1673ffffffffffffffffffffffffffffffffffffffff16815260200190815260200160002060006101000a81548160ff0219169083151502179055508173ffffffffffffffffffffffffffffffffffffffff16610e2f611199565b73ffffffffffffffffffffffffffffffffffffffff167f17307eab39ab6107e8899845ad3d59bd9653f200f220920489ca2b5937696c3183604051610e749190612657565b60405180910390a35050565b60006005600083815260200190815260200160002060009054906101000a900473ffffffffffffffffffffffffffffffffffffffff169050919050565b610ece610ec8611199565b8361125a565b610f0d576040517f08c379a0000000000000000000000000000000000000000000000000000000008152600401610f049061284f565b60405180910390fd5b610f1984848484611594565b50505050565b6060610f2a8261112d565b610f69576040517f08c379a0000000000000000000000000000000000000000000000000000000008152600401610f609061280f565b60405180910390fd5b6000610f736115f0565b90506000815111610f935760405180602001604052806000815250610fbe565b80610f9d84611607565b604051602001610fae9291906125a3565b6040516020818303038152906040525b915050919050565b6000600860008473ffffffffffffffffffffffffffffffffffffffff1673ffffffffffffffffffffffffffffffffffffffff16815260200190815260200160002060008373ffffffffffffffffffffffffffffffffffffffff1673ffffffffffffffffffffffffffffffffffffffff16815260200190815260200160002060009054906101000a900460ff16905092915050565b6000600983908060018154018082558091505060019003906000526020600020016000909190919091509080519060200190611097929190611ab4565b50600060016009805490506110ac9190612a5a565b90506110b93382856117d3565b8091505092915050565b60007f01ffc9a7000000000000000000000000000000000000000000000000000000007bffffffffffffffffffffffffffffffffffffffffffffffffffffffff1916827bffffffffffffffffffffffffffffffffffffffffffffffffffffffff1916149050919050565b60008073ffffffffffffffffffffffffffffffffffffffff166004600084815260200190815260200160002060009054906101000a900473ffffffffffffffffffffffffffffffffffffffff1673ffffffffffffffffffffffffffffffffffffffff1614159050919050565b600033905090565b816007600083815260200190815260200160002060006101000a81548173ffffffffffffffffffffffffffffffffffffffff021916908373ffffffffffffffffffffffffffffffffffffffff160217905550808273ffffffffffffffffffffffffffffffffffffffff16611214836107fc565b73ffffffffffffffffffffffffffffffffffffffff167f8c5be1e5ebec7d5bd14f71427d1e84f3dd0314c0f7b2291e5b200ac8c7c3b92560405160405180910390a45050565b60006112658261112d565b6112a4576040517f08c379a000000000000000000000000000000000000000000000000000000000815260040161129b9061272f565b60405180910390fd5b60006112af836107fc565b90508073ffffffffffffffffffffffffffffffffffffffff168473ffffffffffffffffffffffffffffffffffffffff16148061131e57508373ffffffffffffffffffffffffffffffffffffffff1661130684610573565b73ffffffffffffffffffffffffffffffffffffffff16145b8061132f575061132e8185610fc6565b5b91505092915050565b8273ffffffffffffffffffffffffffffffffffffffff16611358826107fc565b73ffffffffffffffffffffffffffffffffffffffff16146113ae576040517f08c379a00000000000000000000000000000000000000000000000000000000081526004016113a5906127ef565b60405180910390fd5b600073ffffffffffffffffffffffffffffffffffffffff168273ffffffffffffffffffffffffffffffffffffffff16141561141e576040517f08c379a0000000000000000000000000000000000000000000000000000000008152600401611415906126ef565b60405180910390fd5b6114298383836117f3565b6114346000826111a1565b6001600660008573ffffffffffffffffffffffffffffffffffffffff1673ffffffffffffffffffffffffffffffffffffffff16815260200190815260200160002060008282546114849190612a5a565b925050819055506001600660008473ffffffffffffffffffffffffffffffffffffffff1673ffffffffffffffffffffffffffffffffffffffff16815260200190815260200160002060008282546114db9190612979565b92505081905550816004600083815260200190815260200160002060006101000a81548173ffffffffffffffffffffffffffffffffffffffff021916908373ffffffffffffffffffffffffffffffffffffffff160217905550808273ffffffffffffffffffffffffffffffffffffffff168473ffffffffffffffffffffffffffffffffffffffff167fddf252ad1be2c89b69c2b068fc378daa952ba7f163c4a11628f55a4df523b3ef60405160405180910390a4505050565b61159f848484611338565b6115ab84848484611870565b6115ea576040517f08c379a00000000000000000000000000000000000000000000000000000000081526004016115e1906126af565b60405180910390fd5b50505050565b606060405180602001604052806000815250905090565b6060600082141561164f576040518060400160405280600181526020017f300000000000000000000000000000000000000000000000000000000000000081525090506117ce565b600082905060005b6000821461168157808061166a90612ba7565b915050600a8261167a91906129cf565b9150611657565b60008167ffffffffffffffff8111156116c3577f4e487b7100000000000000000000000000000000000000000000000000000000600052604160045260246000fd5b6040519080825280601f01601f1916602001820160405280156116f55781602001600182028036833780820191505090505b5090505b600085146117c75760018261170e9190612a5a565b9150600a8561171d9190612bf0565b60306117299190612979565b7f010000000000000000000000000000000000000000000000000000000000000002818381518110611784577f4e487b7100000000000000000000000000000000000000000000000000000000600052603260045260246000fd5b60200101907effffffffffffffffffffffffffffffffffffffffffffffffffffffffffffff1916908160001a905350600a856117c091906129cf565b94506116f9565b8093505050505b919050565b6117ee83838360405180602001604052806000815250611a3f565b505050565b6117fe838383611a9c565b6000600a60643461180f91906129cf565b6118199190612a00565b905061182482610e80565b73ffffffffffffffffffffffffffffffffffffffff166108fc829081150290604051600060405180830381858888f19350505050158015611869573d6000803e3d6000fd5b5050505050565b60006118918473ffffffffffffffffffffffffffffffffffffffff16611aa1565b15611a32578373ffffffffffffffffffffffffffffffffffffffff1663150b7a026118ba611199565b8786866040518563ffffffff167c01000000000000000000000000000000000000000000000000000000000281526004016118f894939291906125e2565b602060405180830381600087803b15801561191257600080fd5b505af192505050801561194357506040513d601f19601f820116820180604052508101906119409190611eed565b60015b6119c6573d8060008114611973576040519150601f19603f3d011682016040523d82523d6000602084013e611978565b606091505b506000815114156119be576040517f08c379a00000000000000000000000000000000000000000000000000000000081526004016119b5906126af565b60405180910390fd5b805181602001fd5b63150b7a027c0100000000000000000000000000000000000000000000000000000000027bffffffffffffffffffffffffffffffffffffffffffffffffffffffff1916817bffffffffffffffffffffffffffffffffffffffffffffffffffffffff191614915050611a37565b600190505b949350505050565b611a4a848484610979565b611a576000858584611870565b611a96576040517f08c379a0000000000000000000000000000000000000000000000000000000008152600401611a8d906126af565b60405180910390fd5b50505050565b505050565b600080823b905060008111915050919050565b828054611ac090612b75565b90600052602060002090601f016020900481019282611ae25760008555611b29565b82601f10611afb57805160ff1916838001178555611b29565b82800160010185558215611b29579182015b82811115611b28578251825591602001919060010190611b0d565b5b509050611b369190611b3a565b5090565b5b80821115611b53576000816000905550600101611b3b565b5090565b6000611b6a611b65846128d6565b6128a5565b905082815260208101848484011115611b8257600080fd5b611b8d848285612b33565b509392505050565b6000611ba8611ba384612906565b6128a5565b905082815260208101848484011115611bc057600080fd5b611bcb848285612b33565b509392505050565b600081359050611be281612cee565b92915050565b600081359050611bf781612d05565b92915050565b600081519050611c0c81612d05565b92915050565b600081359050611c2181612d1c565b92915050565b600081519050611c3681612d1c565b92915050565b600082601f830112611c4d57600080fd5b8135611c5d848260208601611b57565b91505092915050565b600082601f830112611c7757600080fd5b8135611c87848260208601611b95565b91505092915050565b600081359050611c9f81612d33565b92915050565b600060208284031215611cb757600080fd5b6000611cc584828501611bd3565b91505092915050565b60008060408385031215611ce157600080fd5b6000611cef85828601611bd3565b9250506020611d0085828601611bd3565b9150509250929050565b600080600060608486031215611d1f57600080fd5b6000611d2d86828701611bd3565b9350506020611d3e86828701611bd3565b9250506040611d4f86828701611c90565b9150509250925092565b60008060008060808587031215611d6f57600080fd5b6000611d7d87828801611bd3565b9450506020611d8e87828801611bd3565b9350506040611d9f87828801611c90565b925050606085013567ffffffffffffffff811115611dbc57600080fd5b611dc887828801611c3c565b91505092959194509250565b60008060408385031215611de757600080fd5b6000611df585828601611bd3565b9250506020611e0685828601611be8565b9150509250929050565b60008060408385031215611e2357600080fd5b6000611e3185828601611bd3565b9250506020611e4285828601611c90565b9150509250929050565b600080600060608486031215611e6157600080fd5b6000611e6f86828701611bd3565b9350506020611e8086828701611c90565b9250506040611e9186828701611c90565b9150509250925092565b600060208284031215611ead57600080fd5b6000611ebb84828501611bfd565b91505092915050565b600060208284031215611ed657600080fd5b6000611ee484828501611c12565b91505092915050565b600060208284031215611eff57600080fd5b6000611f0d84828501611c27565b91505092915050565b60008060408385031215611f2957600080fd5b600083013567ffffffffffffffff811115611f4357600080fd5b611f4f85828601611c66565b9250506020611f6085828601611c90565b9150509250929050565b600060208284031215611f7c57600080fd5b6000611f8a84828501611c90565b91505092915050565b611f9c81612a8e565b82525050565b611fab81612aa0565b82525050565b6000611fbc82612936565b611fc6818561294c565b9350611fd6818560208601612b42565b611fdf81612cdd565b840191505092915050565b611ff381612b0f565b82525050565b600061200482612941565b61200e818561295d565b935061201e818560208601612b42565b61202781612cdd565b840191505092915050565b600061203d82612941565b612047818561296e565b9350612057818560208601612b42565b80840191505092915050565b600061207060328361295d565b91507f4552433732313a207472616e7366657220746f206e6f6e20455243373231526560008301527f63656976657220696d706c656d656e74657200000000000000000000000000006020830152604082019050919050565b60006120d6601c8361295d565b91507f4552433732313a20746f6b656e20616c7265616479206d696e746564000000006000830152602082019050919050565b600061211660248361295d565b91507f4552433732313a207472616e7366657220746f20746865207a65726f2061646460008301527f72657373000000000000000000000000000000000000000000000000000000006020830152604082019050919050565b600061217c60198361295d565b91507f4552433732313a20617070726f766520746f2063616c6c6572000000000000006000830152602082019050919050565b60006121bc602c8361295d565b91507f4552433732313a206f70657261746f7220717565727920666f72206e6f6e657860008301527f697374656e7420746f6b656e00000000000000000000000000000000000000006020830152604082019050919050565b600061222260388361295d565b91507f4552433732313a20617070726f76652063616c6c6572206973206e6f74206f7760008301527f6e6572206e6f7220617070726f76656420666f7220616c6c00000000000000006020830152604082019050919050565b6000612288602a8361295d565b91507f4552433732313a2062616c616e636520717565727920666f7220746865207a6560008301527f726f2061646472657373000000000000000000000000000000000000000000006020830152604082019050919050565b60006122ee60298361295d565b91507f4552433732313a206f776e657220717565727920666f72206e6f6e657869737460008301527f656e7420746f6b656e00000000000000000000000000000000000000000000006020830152604082019050919050565b600061235460208361295d565b91507f4552433732313a206d696e7420746f20746865207a65726f20616464726573736000830152602082019050919050565b6000612394602c8361295d565b91507f4552433732313a20617070726f76656420717565727920666f72206e6f6e657860008301527f697374656e7420746f6b656e00000000000000000000000000000000000000006020830152604082019050919050565b60006123fa60298361295d565b91507f4552433732313a207472616e73666572206f6620746f6b656e2074686174206960008301527f73206e6f74206f776e00000000000000000000000000000000000000000000006020830152604082019050919050565b6000612460602f8361295d565b91507f4552433732314d657461646174613a2055524920717565727920666f72206e6f60008301527f6e6578697374656e7420746f6b656e00000000000000000000000000000000006020830152604082019050919050565b60006124c660218361295d565b91507f4552433732313a20617070726f76616c20746f2063757272656e74206f776e6560008301527f72000000000000000000000000000000000000000000000000000000000000006020830152604082019050919050565b600061252c60318361295d565b91507f4552433732313a207472616e736665722063616c6c6572206973206e6f74206f60008301527f776e6572206e6f7220617070726f7665640000000000000000000000000000006020830152604082019050919050565b61258e81612af8565b82525050565b61259d81612b02565b82525050565b60006125af8285612032565b91506125bb8284612032565b91508190509392505050565b60006020820190506125dc6000830184611f93565b92915050565b60006080820190506125f76000830187611f93565b6126046020830186611f93565b6126116040830185612585565b81810360608301526126238184611fb1565b905095945050505050565b60006040820190506126436000830185611f93565b6126506020830184612585565b9392505050565b600060208201905061266c6000830184611fa2565b92915050565b60006020820190506126876000830184611fea565b92915050565b600060208201905081810360008301526126a78184611ff9565b905092915050565b600060208201905081810360008301526126c881612063565b9050919050565b600060208201905081810360008301526126e8816120c9565b9050919050565b6000602082019050818103600083015261270881612109565b9050919050565b600060208201905081810360008301526127288161216f565b9050919050565b60006020820190508181036000830152612748816121af565b9050919050565b6000602082019050818103600083015261276881612215565b9050919050565b600060208201905081810360008301526127888161227b565b9050919050565b600060208201905081810360008301526127a8816122e1565b9050919050565b600060208201905081810360008301526127c881612347565b9050919050565b600060208201905081810360008301526127e881612387565b9050919050565b60006020820190508181036000830152612808816123ed565b9050919050565b6000602082019050818103600083015261282881612453565b9050919050565b60006020820190508181036000830152612848816124b9565b9050919050565b600060208201905081810360008301526128688161251f565b9050919050565b60006020820190506128846000830184612585565b92915050565b600060208201905061289f6000830184612594565b92915050565b6000604051905081810181811067ffffffffffffffff821117156128cc576128cb612cae565b5b8060405250919050565b600067ffffffffffffffff8211156128f1576128f0612cae565b5b601f19601f8301169050602081019050919050565b600067ffffffffffffffff82111561292157612920612cae565b5b601f19601f8301169050602081019050919050565b600081519050919050565b600081519050919050565b600082825260208201905092915050565b600082825260208201905092915050565b600081905092915050565b600061298482612af8565b915061298f83612af8565b9250827fffffffffffffffffffffffffffffffffffffffffffffffffffffffffffffffff038211156129c4576129c3612c21565b5b828201905092915050565b60006129da82612af8565b91506129e583612af8565b9250826129f5576129f4612c50565b5b828204905092915050565b6000612a0b82612af8565b9150612a1683612af8565b9250817fffffffffffffffffffffffffffffffffffffffffffffffffffffffffffffffff0483118215151615612a4f57612a4e612c21565b5b828202905092915050565b6000612a6582612af8565b9150612a7083612af8565b925082821015612a8357612a82612c21565b5b828203905092915050565b6000612a9982612ad8565b9050919050565b60008115159050919050565b60007fffffffff0000000000000000000000000000000000000000000000000000000082169050919050565b600073ffffffffffffffffffffffffffffffffffffffff82169050919050565b6000819050919050565b600060ff82169050919050565b6000612b1a82612b21565b9050919050565b6000612b2c82612ad8565b9050919050565b82818337600083830152505050565b60005b83811015612b60578082015181840152602081019050612b45565b83811115612b6f576000848401525b50505050565b60006002820490506001821680612b8d57607f821691505b60208210811415612ba157612ba0612c7f565b5b50919050565b6000612bb282612af8565b91507fffffffffffffffffffffffffffffffffffffffffffffffffffffffffffffffff821415612be557612be4612c21565b5b600182019050919050565b6000612bfb82612af8565b9150612c0683612af8565b925082612c1657612c15612c50565b5b828206905092915050565b7f4e487b7100000000000000000000000000000000000000000000000000000000600052601160045260246000fd5b7f4e487b7100000000000000000000000000000000000000000000000000000000600052601260045260246000fd5b7f4e487b7100000000000000000000000000000000000000000000000000000000600052602260045260246000fd5b7f4e487b7100000000000000000000000000000000000000000000000000000000600052604160045260246000fd5b6000601f19601f8301169050919050565b612cf781612a8e565b8114612d0257600080fd5b50565b612d0e81612aa0565b8114612d1957600080fd5b50565b612d2581612aac565b8114612d3057600080fd5b50565b612d3c81612af8565b8114612d4757600080fd5b5056fea2646970667358221220eaff5ed74db738d8daf4016b5abf3e4d8e06d066c46505161914e52c3ff0a06364736f6c63430008000033",
  "immutableReferences": {},
  "source": "// SPDX-License-Identifier: MIT\npragma solidity ^0.8.0;\n\nimport \"./ERC721.sol\";\n\ncontract MyToken2 is ERC721 {\n    string[] internal tokens;\n\n    constructor()\n    ERC721(\n        \"My Token2\",\n        \"TKN2\"\n    ){}\n\n    function _creatorOf(uint256 tokenId) public view returns(address){\n        return _creator[tokenId];\n    }\n\n    function MintNFT(string memory URI, uint256 tokenAmount) public returns(uint256) {\n        tokens.push(URI);\n        uint256 tokenId = tokens.length - 1;\n        _safeMint(msg.sender, tokenId, tokenAmount);\n        return tokenId;\n    }\n    function _beforeTokenTransfer(\n        address from,\n        address to,\n        uint256 tokenId\n    ) internal virtual override(ERC721) {\n        super._beforeTokenTransfer(from, to, tokenId);\n        uint256 secondaryShare = msg.value / 100 * 10;\n        payable(_creatorOf(tokenId)).transfer(secondaryShare);\n    }\n}",
  "sourcePath": "/Volumes/Transcend/Projects/DappsLab/Lottery-Smart-Contract/contracts/customERC20ERC721/ERC721/MyToken2.sol",
  "compiler": {
    "name": "solc",
    "version": "0.8.0+commit.c7dfd78e.Emscripten.clang"
  },
  "schemaVersion": "3.4.1",
  "updatedAt": "2021-06-27T14:51:43.076Z",
  "devdoc": {
    "kind": "dev",
    "methods": {
      "_mint(address,uint256,uint256)": {
        "details": "Mints `tokenId` and transfers it to `to`. WARNING: Usage of this method is discouraged, use {_safeMint} whenever possible Requirements: - `tokenId` must not exist. - `to` cannot be the zero address. Emits a {Transfer} event."
      },
      "approve(address,uint256)": {
        "details": "See {IERC721-approve}."
      },
      "balanceOf(address)": {
        "details": "See {IERC721-balanceOf}."
      },
      "getApproved(uint256)": {
        "details": "See {IERC721-getApproved}."
      },
      "isApprovedForAll(address,address)": {
        "details": "See {IERC721-isApprovedForAll}."
      },
      "name()": {
        "details": "See {IERC721Metadata-name}."
      },
      "ownerOf(uint256)": {
        "details": "See {IERC721-ownerOf}."
      },
      "safeTransferFrom(address,address,uint256)": {
        "details": "See {IERC721-safeTransferFrom}."
      },
      "safeTransferFrom(address,address,uint256,bytes)": {
        "details": "See {IERC721-safeTransferFrom}."
      },
      "setApprovalForAll(address,bool)": {
        "details": "See {IERC721-setApprovalForAll}."
      },
      "supportsInterface(bytes4)": {
        "details": "See {IERC165-supportsInterface}."
      },
      "symbol()": {
        "details": "See {IERC721Metadata-symbol}."
      },
      "tokenURI(uint256)": {
        "details": "See {IERC721Metadata-tokenURI}."
      },
      "transferFrom(address,address,uint256)": {
        "details": "See {IERC721-transferFrom}."
      }
    },
    "version": 1
  },
  "userdoc": {
    "kind": "user",
    "methods": {
      "getToken()": {
        "notice": "Getter and Setter of _token (ERC20)*"
      }
    },
    "version": 1
  }
}