{
  "contractName": "MyToken",
  "abi": [
    {
      "inputs": [],
      "stateMutability": "nonpayable",
      "type": "constructor"
    },
    {
      "anonymous": false,
      "inputs": [
        {
          "indexed": true,
          "internalType": "address",
          "name": "owner",
          "type": "address"
        },
        {
          "indexed": true,
          "internalType": "address",
          "name": "approved",
          "type": "address"
        },
        {
          "indexed": true,
          "internalType": "uint256",
          "name": "tokenId",
          "type": "uint256"
        }
      ],
      "name": "Approval",
      "type": "event"
    },
    {
      "anonymous": false,
      "inputs": [
        {
          "indexed": true,
          "internalType": "address",
          "name": "owner",
          "type": "address"
        },
        {
          "indexed": true,
          "internalType": "address",
          "name": "operator",
          "type": "address"
        },
        {
          "indexed": false,
          "internalType": "bool",
          "name": "approved",
          "type": "bool"
        }
      ],
      "name": "ApprovalForAll",
      "type": "event"
    },
    {
      "anonymous": false,
      "inputs": [
        {
          "indexed": false,
          "internalType": "uint256",
          "name": "tokenId",
          "type": "uint256"
        },
        {
          "indexed": false,
          "internalType": "address",
          "name": "winner",
          "type": "address"
        },
        {
          "indexed": false,
          "internalType": "uint256",
          "name": "tokenAmount",
          "type": "uint256"
        }
      ],
      "name": "AuctionEnded",
      "type": "event"
    },
    {
      "anonymous": false,
      "inputs": [
        {
          "indexed": false,
          "internalType": "uint256",
          "name": "tokenId",
          "type": "uint256"
        },
        {
          "indexed": false,
          "internalType": "address",
          "name": "bidder",
          "type": "address"
        },
        {
          "indexed": false,
          "internalType": "uint256",
          "name": "tokenAmount",
          "type": "uint256"
        }
      ],
      "name": "HighestBidIncreased",
      "type": "event"
    },
    {
      "anonymous": false,
      "inputs": [
        {
          "indexed": false,
          "internalType": "address",
          "name": "account",
          "type": "address"
        }
      ],
      "name": "Paused",
      "type": "event"
    },
    {
      "anonymous": false,
      "inputs": [
        {
          "indexed": true,
          "internalType": "bytes32",
          "name": "role",
          "type": "bytes32"
        },
        {
          "indexed": true,
          "internalType": "bytes32",
          "name": "previousAdminRole",
          "type": "bytes32"
        },
        {
          "indexed": true,
          "internalType": "bytes32",
          "name": "newAdminRole",
          "type": "bytes32"
        }
      ],
      "name": "RoleAdminChanged",
      "type": "event"
    },
    {
      "anonymous": false,
      "inputs": [
        {
          "indexed": true,
          "internalType": "bytes32",
          "name": "role",
          "type": "bytes32"
        },
        {
          "indexed": true,
          "internalType": "address",
          "name": "account",
          "type": "address"
        },
        {
          "indexed": true,
          "internalType": "address",
          "name": "sender",
          "type": "address"
        }
      ],
      "name": "RoleGranted",
      "type": "event"
    },
    {
      "anonymous": false,
      "inputs": [
        {
          "indexed": true,
          "internalType": "bytes32",
          "name": "role",
          "type": "bytes32"
        },
        {
          "indexed": true,
          "internalType": "address",
          "name": "account",
          "type": "address"
        },
        {
          "indexed": true,
          "internalType": "address",
          "name": "sender",
          "type": "address"
        }
      ],
      "name": "RoleRevoked",
      "type": "event"
    },
    {
      "anonymous": false,
      "inputs": [
        {
          "indexed": true,
          "internalType": "address",
          "name": "from",
          "type": "address"
        },
        {
          "indexed": true,
          "internalType": "address",
          "name": "to",
          "type": "address"
        },
        {
          "indexed": true,
          "internalType": "uint256",
          "name": "tokenId",
          "type": "uint256"
        }
      ],
      "name": "Transfer",
      "type": "event"
    },
    {
      "anonymous": false,
      "inputs": [
        {
          "indexed": false,
          "internalType": "address",
          "name": "account",
          "type": "address"
        }
      ],
      "name": "Unpaused",
      "type": "event"
    },
    {
      "inputs": [],
      "name": "DEFAULT_ADMIN_ROLE",
      "outputs": [
        {
          "internalType": "bytes32",
          "name": "",
          "type": "bytes32"
        }
      ],
      "stateMutability": "view",
      "type": "function"
    },
    {
      "inputs": [],
      "name": "MINTER_ROLE",
      "outputs": [
        {
          "internalType": "bytes32",
          "name": "",
          "type": "bytes32"
        }
      ],
      "stateMutability": "view",
      "type": "function"
    },
    {
      "inputs": [],
      "name": "PAUSER_ROLE",
      "outputs": [
        {
          "internalType": "bytes32",
          "name": "",
          "type": "bytes32"
        }
      ],
      "stateMutability": "view",
      "type": "function"
    },
    {
      "inputs": [
        {
          "internalType": "uint256",
          "name": "",
          "type": "uint256"
        }
      ],
      "name": "_auctionEndTime",
      "outputs": [
        {
          "internalType": "uint256",
          "name": "",
          "type": "uint256"
        }
      ],
      "stateMutability": "view",
      "type": "function"
    },
    {
      "inputs": [],
      "name": "_creatorComission",
      "outputs": [
        {
          "internalType": "uint8",
          "name": "",
          "type": "uint8"
        }
      ],
      "stateMutability": "view",
      "type": "function"
    },
    {
      "inputs": [
        {
          "internalType": "uint256",
          "name": "",
          "type": "uint256"
        }
      ],
      "name": "_ended",
      "outputs": [
        {
          "internalType": "bool",
          "name": "",
          "type": "bool"
        }
      ],
      "stateMutability": "view",
      "type": "function"
    },
    {
      "inputs": [
        {
          "internalType": "uint256",
          "name": "",
          "type": "uint256"
        }
      ],
      "name": "_highestBid",
      "outputs": [
        {
          "internalType": "uint256",
          "name": "",
          "type": "uint256"
        }
      ],
      "stateMutability": "view",
      "type": "function"
    },
    {
      "inputs": [
        {
          "internalType": "uint256",
          "name": "",
          "type": "uint256"
        }
      ],
      "name": "_highestBidder",
      "outputs": [
        {
          "internalType": "address",
          "name": "",
          "type": "address"
        }
      ],
      "stateMutability": "view",
      "type": "function"
    },
    {
      "inputs": [
        {
          "internalType": "address",
          "name": "to",
          "type": "address"
        },
        {
          "internalType": "uint256",
          "name": "tokenId",
          "type": "uint256"
        },
        {
          "internalType": "uint256",
          "name": "tokenAmount",
          "type": "uint256"
        }
      ],
      "name": "_mint",
      "outputs": [],
      "stateMutability": "nonpayable",
      "type": "function"
    },
    {
      "inputs": [
        {
          "internalType": "uint256",
          "name": "",
          "type": "uint256"
        },
        {
          "internalType": "address",
          "name": "",
          "type": "address"
        }
      ],
      "name": "_pendingReturns",
      "outputs": [
        {
          "internalType": "uint256",
          "name": "",
          "type": "uint256"
        }
      ],
      "stateMutability": "view",
      "type": "function"
    },
    {
      "inputs": [
        {
          "internalType": "address",
          "name": "to",
          "type": "address"
        },
        {
          "internalType": "uint256",
          "name": "tokenId",
          "type": "uint256"
        }
      ],
      "name": "approve",
      "outputs": [],
      "stateMutability": "nonpayable",
      "type": "function"
    },
    {
      "inputs": [
        {
          "internalType": "uint256",
          "name": "tokenId",
          "type": "uint256"
        }
      ],
      "name": "auctionEnd",
      "outputs": [],
      "stateMutability": "nonpayable",
      "type": "function"
    },
    {
      "inputs": [
        {
          "internalType": "address",
          "name": "owner",
          "type": "address"
        }
      ],
      "name": "balanceOf",
      "outputs": [
        {
          "internalType": "uint256",
          "name": "",
          "type": "uint256"
        }
      ],
      "stateMutability": "view",
      "type": "function"
    },
    {
      "inputs": [
        {
          "internalType": "uint256",
          "name": "tokenId",
          "type": "uint256"
        },
        {
          "internalType": "uint256",
          "name": "tokenAmount",
          "type": "uint256"
        }
      ],
      "name": "bid",
      "outputs": [],
      "stateMutability": "payable",
      "type": "function"
    },
    {
      "inputs": [
        {
          "internalType": "uint256",
          "name": "tokenId",
          "type": "uint256"
        }
      ],
      "name": "burn",
      "outputs": [],
      "stateMutability": "nonpayable",
      "type": "function"
    },
    {
      "inputs": [
        {
          "internalType": "uint256",
          "name": "tokenId",
          "type": "uint256"
        }
      ],
      "name": "getApproved",
      "outputs": [
        {
          "internalType": "address",
          "name": "",
          "type": "address"
        }
      ],
      "stateMutability": "view",
      "type": "function"
    },
    {
      "inputs": [
        {
          "internalType": "bytes32",
          "name": "role",
          "type": "bytes32"
        }
      ],
      "name": "getRoleAdmin",
      "outputs": [
        {
          "internalType": "bytes32",
          "name": "",
          "type": "bytes32"
        }
      ],
      "stateMutability": "view",
      "type": "function"
    },
    {
      "inputs": [
        {
          "internalType": "bytes32",
          "name": "role",
          "type": "bytes32"
        },
        {
          "internalType": "uint256",
          "name": "index",
          "type": "uint256"
        }
      ],
      "name": "getRoleMember",
      "outputs": [
        {
          "internalType": "address",
          "name": "",
          "type": "address"
        }
      ],
      "stateMutability": "view",
      "type": "function"
    },
    {
      "inputs": [
        {
          "internalType": "bytes32",
          "name": "role",
          "type": "bytes32"
        }
      ],
      "name": "getRoleMemberCount",
      "outputs": [
        {
          "internalType": "uint256",
          "name": "",
          "type": "uint256"
        }
      ],
      "stateMutability": "view",
      "type": "function"
    },
    {
      "inputs": [],
      "name": "getToken",
      "outputs": [
        {
          "internalType": "contract ERC20",
          "name": "",
          "type": "address"
        }
      ],
      "stateMutability": "view",
      "type": "function"
    },
    {
      "inputs": [
        {
          "internalType": "bytes32",
          "name": "role",
          "type": "bytes32"
        },
        {
          "internalType": "address",
          "name": "account",
          "type": "address"
        }
      ],
      "name": "grantRole",
      "outputs": [],
      "stateMutability": "nonpayable",
      "type": "function"
    },
    {
      "inputs": [
        {
          "internalType": "bytes32",
          "name": "role",
          "type": "bytes32"
        },
        {
          "internalType": "address",
          "name": "account",
          "type": "address"
        }
      ],
      "name": "hasRole",
      "outputs": [
        {
          "internalType": "bool",
          "name": "",
          "type": "bool"
        }
      ],
      "stateMutability": "view",
      "type": "function"
    },
    {
      "inputs": [
        {
          "internalType": "address",
          "name": "owner",
          "type": "address"
        },
        {
          "internalType": "address",
          "name": "operator",
          "type": "address"
        }
      ],
      "name": "isApprovedForAll",
      "outputs": [
        {
          "internalType": "bool",
          "name": "",
          "type": "bool"
        }
      ],
      "stateMutability": "view",
      "type": "function"
    },
    {
      "inputs": [
        {
          "internalType": "address",
          "name": "to",
          "type": "address"
        },
        {
          "internalType": "uint256",
          "name": "tokenAmount",
          "type": "uint256"
        }
      ],
      "name": "mint",
      "outputs": [],
      "stateMutability": "nonpayable",
      "type": "function"
    },
    {
      "inputs": [],
      "name": "name",
      "outputs": [
        {
          "internalType": "string",
          "name": "",
          "type": "string"
        }
      ],
      "stateMutability": "view",
      "type": "function"
    },
    {
      "inputs": [
        {
          "internalType": "uint256",
          "name": "tokenId",
          "type": "uint256"
        }
      ],
      "name": "ownerOf",
      "outputs": [
        {
          "internalType": "address",
          "name": "",
          "type": "address"
        }
      ],
      "stateMutability": "view",
      "type": "function"
    },
    {
      "inputs": [],
      "name": "pause",
      "outputs": [],
      "stateMutability": "nonpayable",
      "type": "function"
    },
    {
      "inputs": [],
      "name": "paused",
      "outputs": [
        {
          "internalType": "bool",
          "name": "",
          "type": "bool"
        }
      ],
      "stateMutability": "view",
      "type": "function"
    },
    {
      "inputs": [
        {
          "internalType": "bytes32",
          "name": "role",
          "type": "bytes32"
        },
        {
          "internalType": "address",
          "name": "account",
          "type": "address"
        }
      ],
      "name": "renounceRole",
      "outputs": [],
      "stateMutability": "nonpayable",
      "type": "function"
    },
    {
      "inputs": [
        {
          "internalType": "bytes32",
          "name": "role",
          "type": "bytes32"
        },
        {
          "internalType": "address",
          "name": "account",
          "type": "address"
        }
      ],
      "name": "revokeRole",
      "outputs": [],
      "stateMutability": "nonpayable",
      "type": "function"
    },
    {
      "inputs": [
        {
          "internalType": "address",
          "name": "from",
          "type": "address"
        },
        {
          "internalType": "address",
          "name": "to",
          "type": "address"
        },
        {
          "internalType": "uint256",
          "name": "tokenId",
          "type": "uint256"
        }
      ],
      "name": "safeTransferFrom",
      "outputs": [],
      "stateMutability": "nonpayable",
      "type": "function"
    },
    {
      "inputs": [
        {
          "internalType": "address",
          "name": "from",
          "type": "address"
        },
        {
          "internalType": "address",
          "name": "to",
          "type": "address"
        },
        {
          "internalType": "uint256",
          "name": "tokenId",
          "type": "uint256"
        },
        {
          "internalType": "bytes",
          "name": "_data",
          "type": "bytes"
        }
      ],
      "name": "safeTransferFrom",
      "outputs": [],
      "stateMutability": "nonpayable",
      "type": "function"
    },
    {
      "inputs": [
        {
          "internalType": "address",
          "name": "operator",
          "type": "address"
        },
        {
          "internalType": "bool",
          "name": "approved",
          "type": "bool"
        }
      ],
      "name": "setApprovalForAll",
      "outputs": [],
      "stateMutability": "nonpayable",
      "type": "function"
    },
    {
      "inputs": [
        {
          "internalType": "address",
          "name": "tokenAddress",
          "type": "address"
        }
      ],
      "name": "setToken",
      "outputs": [],
      "stateMutability": "nonpayable",
      "type": "function"
    },
    {
      "inputs": [
        {
          "internalType": "bytes4",
          "name": "interfaceId",
          "type": "bytes4"
        }
      ],
      "name": "supportsInterface",
      "outputs": [
        {
          "internalType": "bool",
          "name": "",
          "type": "bool"
        }
      ],
      "stateMutability": "view",
      "type": "function"
    },
    {
      "inputs": [],
      "name": "symbol",
      "outputs": [
        {
          "internalType": "string",
          "name": "",
          "type": "string"
        }
      ],
      "stateMutability": "view",
      "type": "function"
    },
    {
      "inputs": [
        {
          "internalType": "uint256",
          "name": "index",
          "type": "uint256"
        }
      ],
      "name": "tokenByIndex",
      "outputs": [
        {
          "internalType": "uint256",
          "name": "",
          "type": "uint256"
        }
      ],
      "stateMutability": "view",
      "type": "function"
    },
    {
      "inputs": [
        {
          "internalType": "address",
          "name": "owner",
          "type": "address"
        },
        {
          "internalType": "uint256",
          "name": "index",
          "type": "uint256"
        }
      ],
      "name": "tokenOfOwnerByIndex",
      "outputs": [
        {
          "internalType": "uint256",
          "name": "",
          "type": "uint256"
        }
      ],
      "stateMutability": "view",
      "type": "function"
    },
    {
      "inputs": [
        {
          "internalType": "uint256",
          "name": "tokenId",
          "type": "uint256"
        }
      ],
      "name": "tokenURI",
      "outputs": [
        {
          "internalType": "string",
          "name": "",
          "type": "string"
        }
      ],
      "stateMutability": "view",
      "type": "function"
    },
    {
      "inputs": [],
      "name": "totalSupply",
      "outputs": [
        {
          "internalType": "uint256",
          "name": "",
          "type": "uint256"
        }
      ],
      "stateMutability": "view",
      "type": "function"
    },
    {
      "inputs": [
        {
          "internalType": "address",
          "name": "from",
          "type": "address"
        },
        {
          "internalType": "address",
          "name": "to",
          "type": "address"
        },
        {
          "internalType": "uint256",
          "name": "tokenId",
          "type": "uint256"
        }
      ],
      "name": "transferFrom",
      "outputs": [],
      "stateMutability": "nonpayable",
      "type": "function"
    },
    {
      "inputs": [],
      "name": "unpause",
      "outputs": [],
      "stateMutability": "nonpayable",
      "type": "function"
    },
    {
      "inputs": [
        {
          "internalType": "uint256",
          "name": "tokenId",
          "type": "uint256"
        }
      ],
      "name": "withdraw",
      "outputs": [
        {
          "internalType": "bool",
          "name": "",
          "type": "bool"
        }
      ],
      "stateMutability": "nonpayable",
      "type": "function"
    }
  ],
  "bytecode": "0x6080604052600a600560006101000a81548160ff021916908360ff1602179055503480156200002d57600080fd5b506040518060400160405280600881526020017f4d7920546f6b656e0000000000000000000000000000000000000000000000008152506040518060400160405280600381526020017f544b4e00000000000000000000000000000000000000000000000000000000008152506040518060400160405280601e81526020017f68747470733a2f2f6578616d706c652e636f6d2f6170692f746f6b656e2f000081525082828160039080519060200190620000ea929190620004f5565b50806004908051906020019062000103929190620004f5565b5050506000601460006101000a81548160ff021916908315150217905550806016908051906020019062000139929190620004f5565b506200017160006001026200015c62000220640100000000026401000000009004565b62000228640100000000026401000000009004565b620001c47f9f2df0fed2c77648de5860a4cc508cd0818c85b8b8a1ab4ceeef8d981c8956a6620001af62000220640100000000026401000000009004565b62000228640100000000026401000000009004565b620002177f65d7a28e3265b37a6474929f336521b332c1681b933f6cb9f3376673440d862a6200020262000220640100000000026401000000009004565b62000228640100000000026401000000009004565b5050506200060a565b600033905090565b6200024882826200028264010000000002620022ca176401000000009004565b6200027d8160016000858152602001908152602001600020620002a164010000000002620022d8179091906401000000009004565b505050565b6200029d8282620002e2640100000000026401000000009004565b5050565b6000620002da836000018373ffffffffffffffffffffffffffffffffffffffff16600102620003e5640100000000026401000000009004565b905092915050565b620002fd828262000468640100000000026401000000009004565b620003e157600160008084815260200190815260200160002060000160008373ffffffffffffffffffffffffffffffffffffffff1673ffffffffffffffffffffffffffffffffffffffff16815260200190815260200160002060006101000a81548160ff0219169083151502179055506200038662000220640100000000026401000000009004565b73ffffffffffffffffffffffffffffffffffffffff168173ffffffffffffffffffffffffffffffffffffffff16837f2f8788117e7eff1d82e926ec794901d17c78024a50270940304540a733656f0d60405160405180910390a45b5050565b6000620004028383620004d2640100000000026401000000009004565b6200045d57826000018290806001815401808255809150506001900390600052602060002001600090919091909150558260000180549050836001016000848152602001908152602001600020819055506001905062000462565b600090505b92915050565b600080600084815260200190815260200160002060000160008373ffffffffffffffffffffffffffffffffffffffff1673ffffffffffffffffffffffffffffffffffffffff16815260200190815260200160002060009054906101000a900460ff16905092915050565b600080836001016000848152602001908152602001600020541415905092915050565b8280546200050390620005a5565b90600052602060002090601f01602090048101928262000527576000855562000573565b82601f106200054257805160ff191683800117855562000573565b8280016001018555821562000573579182015b828111156200057257825182559160200191906001019062000555565b5b50905062000582919062000586565b5090565b5b80821115620005a157600081600090555060010162000587565b5090565b60006002820490506001821680620005be57607f821691505b60208210811415620005d557620005d4620005db565b5b50919050565b7f4e487b7100000000000000000000000000000000000000000000000000000000600052602260045260246000fd5b615a23806200061a6000396000f3fe608060405260043610610279576000357c0100000000000000000000000000000000000000000000000000000000900480635c975abb11610161578063b88d4fde116100d3578063d539139311610097578063d539139314610974578063d547741f1461099f578063d61f0dd2146109c8578063e63ab1e914610a05578063e985e9c514610a30578063ed05263214610a6d57610279565b8063b88d4fde14610857578063c13423e514610880578063c5ca1691146108bd578063c87b56dd146108fa578063ca15c8731461093757610279565b80638456cb59116101255780638456cb59146107475780639010d07c1461075e57806391d148541461079b57806395d89b41146107d8578063a217fddf14610803578063a22cb4651461082e57610279565b80635c975abb1461064e5780636352211e146106795780636e8e78db146106b657806370a08231146106e15780637776afa01461071e57610279565b80632e1a7d4d116101fa5780633f4ba83a116101be5780633f4ba83a1461056357806340c10f191461057a57806342842e0e146105a357806342966c68146105cc5780634f6ccce7146105f5578063598647f81461063257610279565b80632e1a7d4d1461046e5780632f2ff15d146104ab5780632f745c59146104d457806332246e9f1461051157806336568abe1461053a57610279565b8063144fa6d711610241578063144fa6d71461038957806318160ddd146103b257806321df0da7146103dd57806323b872dd14610408578063248a9ca31461043157610279565b806301ffc9a71461027e57806306fdde03146102bb578063081812fc146102e6578063095ea7b314610323578063131229d61461034c575b600080fd5b34801561028a57600080fd5b506102a560048036038101906102a09190614317565b610aaa565b6040516102b291906150ad565b60405180910390f35b3480156102c757600080fd5b506102d0610abc565b6040516102dd91906150fe565b60405180910390f35b3480156102f257600080fd5b5061030d60048036038101906103089190614369565b610b4e565b60405161031a919061501d565b60405180910390f35b34801561032f57600080fd5b5061034a600480360381019061034591906141c2565b610bd3565b005b34801561035857600080fd5b50610373600480360381019061036e9190614369565b610ceb565b60405161038091906150ad565b60405180910390f35b34801561039557600080fd5b506103b060048036038101906103ab9190614057565b610d0b565b005b3480156103be57600080fd5b506103c7610d4f565b6040516103d491906154c0565b60405180910390f35b3480156103e957600080fd5b506103f2610d5c565b6040516103ff91906150e3565b60405180910390f35b34801561041457600080fd5b5061042f600480360381019061042a91906140bc565b610d86565b005b34801561043d57600080fd5b5061045860048036038101906104539190614276565b610de6565b60405161046591906150c8565b60405180910390f35b34801561047a57600080fd5b5061049560048036038101906104909190614369565b610e05565b6040516104a291906150ad565b60405180910390f35b3480156104b757600080fd5b506104d260048036038101906104cd919061429f565b61107e565b005b3480156104e057600080fd5b506104fb60048036038101906104f691906141c2565b6110b2565b60405161050891906154c0565b60405180910390f35b34801561051d57600080fd5b5061053860048036038101906105339190614369565b611157565b005b34801561054657600080fd5b50610561600480360381019061055c919061429f565b6113d0565b005b34801561056f57600080fd5b50610578611404565b005b34801561058657600080fd5b506105a1600480360381019061059c91906141c2565b61147e565b005b3480156105af57600080fd5b506105ca60048036038101906105c591906140bc565b611510565b005b3480156105d857600080fd5b506105f360048036038101906105ee9190614369565b611530565b005b34801561060157600080fd5b5061061c60048036038101906106179190614369565b61158c565b60405161062991906154c0565b60405180910390f35b61064c600480360381019061064791906143ce565b611623565b005b34801561065a57600080fd5b5061066361184d565b60405161067091906150ad565b60405180910390f35b34801561068557600080fd5b506106a0600480360381019061069b9190614369565b611864565b6040516106ad919061501d565b60405180910390f35b3480156106c257600080fd5b506106cb611916565b6040516106d89190615512565b60405180910390f35b3480156106ed57600080fd5b5061070860048036038101906107039190614057565b611929565b60405161071591906154c0565b60405180910390f35b34801561072a57600080fd5b50610745600480360381019061074091906141fe565b6119e1565b005b34801561075357600080fd5b5061075c611cd7565b005b34801561076a57600080fd5b50610785600480360381019061078091906142db565b611d51565b604051610792919061501d565b60405180910390f35b3480156107a757600080fd5b506107c260048036038101906107bd919061429f565b611d80565b6040516107cf91906150ad565b60405180910390f35b3480156107e457600080fd5b506107ed611dea565b6040516107fa91906150fe565b60405180910390f35b34801561080f57600080fd5b50610818611e7c565b60405161082591906150c8565b60405180910390f35b34801561083a57600080fd5b5061085560048036038101906108509190614186565b611e84565b005b34801561086357600080fd5b5061087e6004803603810190610879919061410b565b612005565b005b34801561088c57600080fd5b506108a760048036038101906108a29190614392565b612067565b6040516108b491906154c0565b60405180910390f35b3480156108c957600080fd5b506108e460048036038101906108df9190614369565b61208c565b6040516108f191906154c0565b60405180910390f35b34801561090657600080fd5b50610921600480360381019061091c9190614369565b6120a4565b60405161092e91906150fe565b60405180910390f35b34801561094357600080fd5b5061095e60048036038101906109599190614276565b61214b565b60405161096b91906154c0565b60405180910390f35b34801561098057600080fd5b5061098961216f565b60405161099691906150c8565b60405180910390f35b3480156109ab57600080fd5b506109c660048036038101906109c1919061429f565b612193565b005b3480156109d457600080fd5b506109ef60048036038101906109ea9190614369565b6121c7565b6040516109fc91906154c0565b60405180910390f35b348015610a1157600080fd5b50610a1a6121df565b604051610a2791906150c8565b60405180910390f35b348015610a3c57600080fd5b50610a576004803603810190610a529190614080565b612203565b604051610a6491906150ad565b60405180910390f35b348015610a7957600080fd5b50610a946004803603810190610a8f9190614369565b612297565b604051610aa1919061501d565b60405180910390f35b6000610ab582612308565b9050919050565b606060038054610acb90615801565b80601f0160208091040260200160405190810160405280929190818152602001828054610af790615801565b8015610b445780601f10610b1957610100808354040283529160200191610b44565b820191906000526020600020905b815481529060010190602001808311610b2757829003601f168201915b5050505050905090565b6000610b5982612382565b610b98576040517f08c379a0000000000000000000000000000000000000000000000000000000008152600401610b8f90615380565b60405180910390fd5b600e600083815260200190815260200160002060009054906101000a900473ffffffffffffffffffffffffffffffffffffffff169050919050565b6000610bde82611864565b90508073ffffffffffffffffffffffffffffffffffffffff168373ffffffffffffffffffffffffffffffffffffffff161415610c4f576040517f08c379a0000000000000000000000000000000000000000000000000000000008152600401610c46906153e0565b60405180910390fd5b8073ffffffffffffffffffffffffffffffffffffffff16610c6e6123ee565b73ffffffffffffffffffffffffffffffffffffffff161480610c9d5750610c9c81610c976123ee565b612203565b5b610cdc576040517f08c379a0000000000000000000000000000000000000000000000000000000008152600401610cd390615300565b60405180910390fd5b610ce683836123f6565b505050565b600b6020528060005260406000206000915054906101000a900460ff1681565b80600260006101000a81548173ffffffffffffffffffffffffffffffffffffffff021916908373ffffffffffffffffffffffffffffffffffffffff16021790555050565b6000601280549050905090565b6000600260009054906101000a900473ffffffffffffffffffffffffffffffffffffffff16905090565b610d97610d916123ee565b826124af565b610dd6576040517f08c379a0000000000000000000000000000000000000000000000000000000008152600401610dcd90615400565b60405180910390fd5b610de183838361258d565b505050565b6000806000838152602001908152602001600020600101549050919050565b600080600a600084815260200190815260200160002060003373ffffffffffffffffffffffffffffffffffffffff1673ffffffffffffffffffffffffffffffffffffffff1681526020019081526020016000205490506000811115611073576000600a600085815260200190815260200160002060003373ffffffffffffffffffffffffffffffffffffffff1673ffffffffffffffffffffffffffffffffffffffff16815260200190815260200160002081905550600260009054906101000a900473ffffffffffffffffffffffffffffffffffffffff1673ffffffffffffffffffffffffffffffffffffffff1663af7d6ca36006600086815260200190815260200160002060009054906101000a900473ffffffffffffffffffffffffffffffffffffffff1660096000878152602001908152602001600020546040518363ffffffff167c0100000000000000000000000000000000000000000000000000000000028152600401610f79929190615084565b602060405180830381600087803b158015610f9357600080fd5b505af1158015610fa7573d6000803e3d6000fd5b505050506040513d601f19601f82011682018060405250810190610fcb919061424d565b156110135761100e6006600085815260200190815260200160002060009054906101000a900473ffffffffffffffffffffffffffffffffffffffff16338561258d565b611072565b80600a600085815260200190815260200160002060003373ffffffffffffffffffffffffffffffffffffffff1673ffffffffffffffffffffffffffffffffffffffff168152602001908152602001600020819055506000915050611079565b5b60019150505b919050565b61108882826127e9565b6110ad81600160008581526020019081526020016000206122d890919063ffffffff16565b505050565b60006110bd83611929565b82106110fe576040517f08c379a00000000000000000000000000000000000000000000000000000000081526004016110f590615180565b60405180910390fd5b601060008473ffffffffffffffffffffffffffffffffffffffff1673ffffffffffffffffffffffffffffffffffffffff168152602001908152602001600020600083815260200190815260200160002054905092915050565b60076000828152602001908152602001600020544210156111ad576040517f08c379a00000000000000000000000000000000000000000000000000000000081526004016111a4906152a0565b60405180910390fd5b600b600082815260200190815260200160002060009054906101000a900460ff161561120e576040517f08c379a0000000000000000000000000000000000000000000000000000000008152600401611205906152e0565b60405180910390fd5b6001600b600083815260200190815260200160002060006101000a81548160ff0219169083151502179055507fd2aa34a4fdbbc6dff6a3e56f46e0f3ae2a31d7785ff3487aa5c95c642acea501816008600084815260200190815260200160002060009054906101000a900473ffffffffffffffffffffffffffffffffffffffff1660096000858152602001908152602001600020546040516112b3939291906154db565b60405180910390a1600260009054906101000a900473ffffffffffffffffffffffffffffffffffffffff1673ffffffffffffffffffffffffffffffffffffffff1663af7d6ca36008600084815260200190815260200160002060009054906101000a900473ffffffffffffffffffffffffffffffffffffffff1660096000858152602001908152602001600020546040518363ffffffff167c010000000000000000000000000000000000000000000000000000000002815260040161137a929190615084565b602060405180830381600087803b15801561139457600080fd5b505af11580156113a8573d6000803e3d6000fd5b505050506040513d601f19601f820116820180604052508101906113cc919061424d565b5050565b6113da8282612812565b6113ff816001600085815260200190815260200160002061289590919063ffffffff16565b505050565b6114357f65d7a28e3265b37a6474929f336521b332c1681b933f6cb9f3376673440d862a6114306123ee565b611d80565b611474576040517f08c379a000000000000000000000000000000000000000000000000000000000815260040161146b90615480565b60405180910390fd5b61147c6128c5565b565b6114af7f9f2df0fed2c77648de5860a4cc508cd0818c85b8b8a1ab4ceeef8d981c8956a66114aa6123ee565b611d80565b6114ee576040517f08c379a00000000000000000000000000000000000000000000000000000000081526004016114e590615440565b60405180910390fd5b611502826114fc6015612967565b836119e1565b61150c6015612975565b5050565b61152b83838360405180602001604052806000815250612005565b505050565b61154161153b6123ee565b826124af565b611580576040517f08c379a000000000000000000000000000000000000000000000000000000000815260040161157790615460565b60405180910390fd5b6115898161298b565b50565b6000611596610d4f565b82106115d7576040517f08c379a00000000000000000000000000000000000000000000000000000000081526004016115ce90615420565b60405180910390fd5b60128281548110611611577f4e487b7100000000000000000000000000000000000000000000000000000000600052603260045260246000fd5b90600052602060002001549050919050565b6000811161163057600080fd5b6007600083815260200190815260200160002054421115611686576040517f08c379a000000000000000000000000000000000000000000000000000000000815260040161167d90615240565b60405180910390fd5b600960008381526020019081526020016000205481116116db576040517f08c379a00000000000000000000000000000000000000000000000000000000081526004016116d290615280565b60405180910390fd5b60006009600084815260200190815260200160002054146117a4576009600083815260200190815260200160002054600a600084815260200190815260200160002060006008600086815260200190815260200160002060009054906101000a900473ffffffffffffffffffffffffffffffffffffffff1673ffffffffffffffffffffffffffffffffffffffff1673ffffffffffffffffffffffffffffffffffffffff168152602001908152602001600020600082825461179c91906155d1565b925050819055505b336008600084815260200190815260200160002060006101000a81548173ffffffffffffffffffffffffffffffffffffffff021916908373ffffffffffffffffffffffffffffffffffffffff1602179055508060096000848152602001908152602001600020819055507fda0a18da71d8ebd145966339a728fc0d8ccc07c22870d561890d823c515dda6b823383604051611841939291906154db565b60405180910390a15050565b6000601460009054906101000a900460ff16905090565b6000806006600084815260200190815260200160002060009054906101000a900473ffffffffffffffffffffffffffffffffffffffff169050600073ffffffffffffffffffffffffffffffffffffffff168173ffffffffffffffffffffffffffffffffffffffff16141561190d576040517f08c379a000000000000000000000000000000000000000000000000000000000815260040161190490615340565b60405180910390fd5b80915050919050565b600560009054906101000a900460ff1681565b60008073ffffffffffffffffffffffffffffffffffffffff168273ffffffffffffffffffffffffffffffffffffffff16141561199a576040517f08c379a000000000000000000000000000000000000000000000000000000000815260040161199190615320565b60405180910390fd5b600d60008373ffffffffffffffffffffffffffffffffffffffff1673ffffffffffffffffffffffffffffffffffffffff168152602001908152602001600020549050919050565b600073ffffffffffffffffffffffffffffffffffffffff168373ffffffffffffffffffffffffffffffffffffffff161415611a51576040517f08c379a0000000000000000000000000000000000000000000000000000000008152600401611a4890615360565b60405180910390fd5b611a5a82612382565b15611a9a576040517f08c379a0000000000000000000000000000000000000000000000000000000008152600401611a91906151c0565b60405180910390fd5b60008111611aa757600080fd5b600260009054906101000a900473ffffffffffffffffffffffffffffffffffffffff1673ffffffffffffffffffffffffffffffffffffffff1663af7d6ca384836040518363ffffffff167c0100000000000000000000000000000000000000000000000000000000028152600401611b20929190615084565b602060405180830381600087803b158015611b3a57600080fd5b505af1158015611b4e573d6000803e3d6000fd5b505050506040513d601f19601f82011682018060405250810190611b72919061424d565b611b7b57600080fd5b6001600d60008573ffffffffffffffffffffffffffffffffffffffff1673ffffffffffffffffffffffffffffffffffffffff1681526020019081526020016000206000828254611bcb91906155d1565b92505081905550826006600084815260200190815260200160002060006101000a81548173ffffffffffffffffffffffffffffffffffffffff021916908373ffffffffffffffffffffffffffffffffffffffff16021790555082600c600084815260200190815260200160002060006101000a81548173ffffffffffffffffffffffffffffffffffffffff021916908373ffffffffffffffffffffffffffffffffffffffff160217905550818373ffffffffffffffffffffffffffffffffffffffff16600073ffffffffffffffffffffffffffffffffffffffff167fddf252ad1be2c89b69c2b068fc378daa952ba7f163c4a11628f55a4df523b3ef60405160405180910390a4505050565b611d087f65d7a28e3265b37a6474929f336521b332c1681b933f6cb9f3376673440d862a611d036123ee565b611d80565b611d47576040517f08c379a0000000000000000000000000000000000000000000000000000000008152600401611d3e906151e0565b60405180910390fd5b611d4f612a90565b565b6000611d788260016000868152602001908152602001600020612b3390919063ffffffff16565b905092915050565b600080600084815260200190815260200160002060000160008373ffffffffffffffffffffffffffffffffffffffff1673ffffffffffffffffffffffffffffffffffffffff16815260200190815260200160002060009054906101000a900460ff16905092915050565b606060048054611df990615801565b80601f0160208091040260200160405190810160405280929190818152602001828054611e2590615801565b8015611e725780601f10611e4757610100808354040283529160200191611e72565b820191906000526020600020905b815481529060010190602001808311611e5557829003601f168201915b5050505050905090565b600060010281565b611e8c6123ee565b73ffffffffffffffffffffffffffffffffffffffff168273ffffffffffffffffffffffffffffffffffffffff161415611efa576040517f08c379a0000000000000000000000000000000000000000000000000000000008152600401611ef190615220565b60405180910390fd5b80600f6000611f076123ee565b73ffffffffffffffffffffffffffffffffffffffff1673ffffffffffffffffffffffffffffffffffffffff16815260200190815260200160002060008473ffffffffffffffffffffffffffffffffffffffff1673ffffffffffffffffffffffffffffffffffffffff16815260200190815260200160002060006101000a81548160ff0219169083151502179055508173ffffffffffffffffffffffffffffffffffffffff16611fb46123ee565b73ffffffffffffffffffffffffffffffffffffffff167f17307eab39ab6107e8899845ad3d59bd9653f200f220920489ca2b5937696c3183604051611ff991906150ad565b60405180910390a35050565b6120166120106123ee565b836124af565b612055576040517f08c379a000000000000000000000000000000000000000000000000000000000815260040161204c90615400565b60405180910390fd5b61206184848484612b4e565b50505050565b600a602052816000526040600020602052806000526040600020600091509150505481565b60096020528060005260406000206000915090505481565b60606120af82612382565b6120ee576040517f08c379a00000000000000000000000000000000000000000000000000000000081526004016120e5906153c0565b60405180910390fd5b60006120f8612baa565b905060008151116121185760405180602001604052806000815250612143565b8061212284612c3c565b604051602001612133929190614fbf565b6040516020818303038152906040525b915050919050565b600061216860016000848152602001908152602001600020612e08565b9050919050565b7f9f2df0fed2c77648de5860a4cc508cd0818c85b8b8a1ab4ceeef8d981c8956a681565b61219d8282612e1d565b6121c2816001600085815260200190815260200160002061289590919063ffffffff16565b505050565b60076020528060005260406000206000915090505481565b7f65d7a28e3265b37a6474929f336521b332c1681b933f6cb9f3376673440d862a81565b6000600f60008473ffffffffffffffffffffffffffffffffffffffff1673ffffffffffffffffffffffffffffffffffffffff16815260200190815260200160002060008373ffffffffffffffffffffffffffffffffffffffff1673ffffffffffffffffffffffffffffffffffffffff16815260200190815260200160002060009054906101000a900460ff16905092915050565b60086020528060005260406000206000915054906101000a900473ffffffffffffffffffffffffffffffffffffffff1681565b6122d48282612e46565b5050565b6000612300836000018373ffffffffffffffffffffffffffffffffffffffff16600102612f26565b905092915050565b60007f780e9d63000000000000000000000000000000000000000000000000000000007bffffffffffffffffffffffffffffffffffffffffffffffffffffffff1916827bffffffffffffffffffffffffffffffffffffffffffffffffffffffff1916148061237b575061237a82612f96565b5b9050919050565b60008073ffffffffffffffffffffffffffffffffffffffff166006600084815260200190815260200160002060009054906101000a900473ffffffffffffffffffffffffffffffffffffffff1673ffffffffffffffffffffffffffffffffffffffff1614159050919050565b600033905090565b81600e600083815260200190815260200160002060006101000a81548173ffffffffffffffffffffffffffffffffffffffff021916908373ffffffffffffffffffffffffffffffffffffffff160217905550808273ffffffffffffffffffffffffffffffffffffffff1661246983611864565b73ffffffffffffffffffffffffffffffffffffffff167f8c5be1e5ebec7d5bd14f71427d1e84f3dd0314c0f7b2291e5b200ac8c7c3b92560405160405180910390a45050565b60006124ba82612382565b6124f9576040517f08c379a00000000000000000000000000000000000000000000000000000000081526004016124f090615260565b60405180910390fd5b600061250483611864565b90508073ffffffffffffffffffffffffffffffffffffffff168473ffffffffffffffffffffffffffffffffffffffff16148061257357508373ffffffffffffffffffffffffffffffffffffffff1661255b84610b4e565b73ffffffffffffffffffffffffffffffffffffffff16145b8061258457506125838185612203565b5b91505092915050565b8273ffffffffffffffffffffffffffffffffffffffff166125ad82611864565b73ffffffffffffffffffffffffffffffffffffffff1614612603576040517f08c379a00000000000000000000000000000000000000000000000000000000081526004016125fa906153a0565b60405180910390fd5b600073ffffffffffffffffffffffffffffffffffffffff168273ffffffffffffffffffffffffffffffffffffffff161415612673576040517f08c379a000000000000000000000000000000000000000000000000000000000815260040161266a90615200565b60405180910390fd5b61267e838383613078565b6126896000826123f6565b6001600d60008573ffffffffffffffffffffffffffffffffffffffff1673ffffffffffffffffffffffffffffffffffffffff16815260200190815260200160002060008282546126d991906156b2565b925050819055506001600d60008473ffffffffffffffffffffffffffffffffffffffff1673ffffffffffffffffffffffffffffffffffffffff168152602001908152602001600020600082825461273091906155d1565b92505081905550816006600083815260200190815260200160002060006101000a81548173ffffffffffffffffffffffffffffffffffffffff021916908373ffffffffffffffffffffffffffffffffffffffff160217905550808273ffffffffffffffffffffffffffffffffffffffff168473ffffffffffffffffffffffffffffffffffffffff167fddf252ad1be2c89b69c2b068fc378daa952ba7f163c4a11628f55a4df523b3ef60405160405180910390a4505050565b6127f282610de6565b612803816127fe6123ee565b613088565b61280d8383612e46565b505050565b61281a6123ee565b73ffffffffffffffffffffffffffffffffffffffff168173ffffffffffffffffffffffffffffffffffffffff1614612887576040517f08c379a000000000000000000000000000000000000000000000000000000000815260040161287e906154a0565b60405180910390fd5b6128918282613126565b5050565b60006128bd836000018373ffffffffffffffffffffffffffffffffffffffff16600102613207565b905092915050565b6128cd61184d565b61290c576040517f08c379a000000000000000000000000000000000000000000000000000000000815260040161290390615160565b60405180910390fd5b6000601460006101000a81548160ff0219169083151502179055507f5db9ee0a495bf2e6ff9c91a7834c1ba4fdd244a5e8aa4e537bd38aeae4b073aa6129506123ee565b60405161295d919061501d565b60405180910390a1565b600081600001549050919050565b6001816000016000828254019250508190555050565b600061299682611864565b90506129a36000836123f6565b6001600d60008373ffffffffffffffffffffffffffffffffffffffff1673ffffffffffffffffffffffffffffffffffffffff16815260200190815260200160002060008282546129f391906156b2565b925050819055506006600083815260200190815260200160002060006101000a81549073ffffffffffffffffffffffffffffffffffffffff021916905581600073ffffffffffffffffffffffffffffffffffffffff168273ffffffffffffffffffffffffffffffffffffffff167fddf252ad1be2c89b69c2b068fc378daa952ba7f163c4a11628f55a4df523b3ef60405160405180910390a45050565b612a9861184d565b15612ad8576040517f08c379a0000000000000000000000000000000000000000000000000000000008152600401612acf906152c0565b60405180910390fd5b6001601460006101000a81548160ff0219169083151502179055507f62e78cea01bee320cd4e420270b5ea74000d11b0c9f74754ebdbfc544b05a258612b1c6123ee565b604051612b29919061501d565b60405180910390a1565b6000612b42836000018361338d565b60019004905092915050565b612b5984848461258d565b612b65848484846133de565b612ba4576040517f08c379a0000000000000000000000000000000000000000000000000000000008152600401612b9b906151a0565b60405180910390fd5b50505050565b606060168054612bb990615801565b80601f0160208091040260200160405190810160405280929190818152602001828054612be590615801565b8015612c325780601f10612c0757610100808354040283529160200191612c32565b820191906000526020600020905b815481529060010190602001808311612c1557829003601f168201915b5050505050905090565b60606000821415612c84576040518060400160405280600181526020017f30000000000000000000000000000000000000000000000000000000000000008152509050612e03565b600082905060005b60008214612cb6578080612c9f90615833565b915050600a82612caf9190615627565b9150612c8c565b60008167ffffffffffffffff811115612cf8577f4e487b7100000000000000000000000000000000000000000000000000000000600052604160045260246000fd5b6040519080825280601f01601f191660200182016040528015612d2a5781602001600182028036833780820191505090505b5090505b60008514612dfc57600182612d4391906156b2565b9150600a85612d52919061587c565b6030612d5e91906155d1565b7f010000000000000000000000000000000000000000000000000000000000000002818381518110612db9577f4e487b7100000000000000000000000000000000000000000000000000000000600052603260045260246000fd5b60200101907effffffffffffffffffffffffffffffffffffffffffffffffffffffffffffff1916908160001a905350600a85612df59190615627565b9450612d2e565b8093505050505b919050565b6000612e16826000016135ad565b9050919050565b612e2682610de6565b612e3781612e326123ee565b613088565b612e418383613126565b505050565b612e508282611d80565b612f2257600160008084815260200190815260200160002060000160008373ffffffffffffffffffffffffffffffffffffffff1673ffffffffffffffffffffffffffffffffffffffff16815260200190815260200160002060006101000a81548160ff021916908315150217905550612ec76123ee565b73ffffffffffffffffffffffffffffffffffffffff168173ffffffffffffffffffffffffffffffffffffffff16837f2f8788117e7eff1d82e926ec794901d17c78024a50270940304540a733656f0d60405160405180910390a45b5050565b6000612f3283836135be565b612f8b578260000182908060018154018082558091505060019003906000526020600020016000909190919091505582600001805490508360010160008481526020019081526020016000208190555060019050612f90565b600090505b92915050565b60007f80ac58cd000000000000000000000000000000000000000000000000000000007bffffffffffffffffffffffffffffffffffffffffffffffffffffffff1916827bffffffffffffffffffffffffffffffffffffffffffffffffffffffff1916148061306157507f5b5e139f000000000000000000000000000000000000000000000000000000007bffffffffffffffffffffffffffffffffffffffffffffffffffffffff1916827bffffffffffffffffffffffffffffffffffffffffffffffffffffffff1916145b806130715750613070826135e1565b5b9050919050565b61308383838361365b565b505050565b6130928282611d80565b613122576130b78173ffffffffffffffffffffffffffffffffffffffff1660146136b3565b6130c6836001900460206136b3565b6040516020016130d7929190614fe3565b6040516020818303038152906040526040517f08c379a000000000000000000000000000000000000000000000000000000000815260040161311991906150fe565b60405180910390fd5b5050565b6131308282611d80565b1561320357600080600084815260200190815260200160002060000160008373ffffffffffffffffffffffffffffffffffffffff1673ffffffffffffffffffffffffffffffffffffffff16815260200190815260200160002060006101000a81548160ff0219169083151502179055506131a86123ee565b73ffffffffffffffffffffffffffffffffffffffff168173ffffffffffffffffffffffffffffffffffffffff16837ff6391f5c32d9c69d2a47ea670b442974b53935d1edc7fd64eb21e047a839171b60405160405180910390a45b5050565b6000808360010160008481526020019081526020016000205490506000811461338157600060018261323991906156b2565b905060006001866000018054905061325191906156b2565b905081811461330c576000866000018281548110613298577f4e487b7100000000000000000000000000000000000000000000000000000000600052603260045260246000fd5b90600052602060002001549050808760000184815481106132e2577f4e487b7100000000000000000000000000000000000000000000000000000000600052603260045260246000fd5b90600052602060002001819055508387600101600083815260200190815260200160002081905550505b85600001805480613346577f4e487b7100000000000000000000000000000000000000000000000000000000600052603160045260246000fd5b600190038181906000526020600020016000905590558560010160008681526020019081526020016000206000905560019350505050613387565b60009150505b92915050565b60008260000182815481106133cb577f4e487b7100000000000000000000000000000000000000000000000000000000600052603260045260246000fd5b9060005260206000200154905092915050565b60006133ff8473ffffffffffffffffffffffffffffffffffffffff166139d4565b156135a0578373ffffffffffffffffffffffffffffffffffffffff1663150b7a026134286123ee565b8786866040518563ffffffff167c01000000000000000000000000000000000000000000000000000000000281526004016134669493929190615038565b602060405180830381600087803b15801561348057600080fd5b505af19250505080156134b157506040513d601f19601f820116820180604052508101906134ae9190614340565b60015b613534573d80600081146134e1576040519150601f19603f3d011682016040523d82523d6000602084013e6134e6565b606091505b5060008151141561352c576040517f08c379a0000000000000000000000000000000000000000000000000000000008152600401613523906151a0565b60405180910390fd5b805181602001fd5b63150b7a027c0100000000000000000000000000000000000000000000000000000000027bffffffffffffffffffffffffffffffffffffffffffffffffffffffff1916817bffffffffffffffffffffffffffffffffffffffffffffffffffffffff1916149150506135a5565b600190505b949350505050565b600081600001805490509050919050565b600080836001016000848152602001908152602001600020541415905092915050565b60007f5a05180f000000000000000000000000000000000000000000000000000000007bffffffffffffffffffffffffffffffffffffffffffffffffffffffff1916827bffffffffffffffffffffffffffffffffffffffffffffffffffffffff191614806136545750613653826139e7565b5b9050919050565b613666838383613a61565b61366e61184d565b156136ae576040517f08c379a00000000000000000000000000000000000000000000000000000000081526004016136a590615140565b60405180910390fd5b505050565b6060600060028360026136c69190615658565b6136d091906155d1565b67ffffffffffffffff81111561370f577f4e487b7100000000000000000000000000000000000000000000000000000000600052604160045260246000fd5b6040519080825280601f01601f1916602001820160405280156137415781602001600182028036833780820191505090505b5090507f30000000000000000000000000000000000000000000000000000000000000008160008151811061379f577f4e487b7100000000000000000000000000000000000000000000000000000000600052603260045260246000fd5b60200101907effffffffffffffffffffffffffffffffffffffffffffffffffffffffffffff1916908160001a9053507f780000000000000000000000000000000000000000000000000000000000000081600181518110613829577f4e487b7100000000000000000000000000000000000000000000000000000000600052603260045260246000fd5b60200101907effffffffffffffffffffffffffffffffffffffffffffffffffffffffffffff1916908160001a905350600060018460026138699190615658565b61387391906155d1565b90505b6001811115613986577f3031323334353637383961626364656600000000000000000000000000000000600f8616601081106138db577f4e487b7100000000000000000000000000000000000000000000000000000000600052603260045260246000fd5b1a7f010000000000000000000000000000000000000000000000000000000000000002828281518110613937577f4e487b7100000000000000000000000000000000000000000000000000000000600052603260045260246000fd5b60200101907effffffffffffffffffffffffffffffffffffffffffffffffffffffffffffff1916908160001a905350600485908060020a820491505094508061397f906157d7565b9050613876565b50600084146139ca576040517f08c379a00000000000000000000000000000000000000000000000000000000081526004016139c190615120565b60405180910390fd5b8091505092915050565b600080823b905060008111915050919050565b60007f7965db0b000000000000000000000000000000000000000000000000000000007bffffffffffffffffffffffffffffffffffffffffffffffffffffffff1916827bffffffffffffffffffffffffffffffffffffffffffffffffffffffff19161480613a5a5750613a5982613b75565b5b9050919050565b613a6c838383613bdf565b600073ffffffffffffffffffffffffffffffffffffffff168373ffffffffffffffffffffffffffffffffffffffff161415613aaf57613aaa81613be4565b613aee565b8173ffffffffffffffffffffffffffffffffffffffff168373ffffffffffffffffffffffffffffffffffffffff1614613aed57613aec8382613c2d565b5b5b600073ffffffffffffffffffffffffffffffffffffffff168273ffffffffffffffffffffffffffffffffffffffff161415613b3157613b2c81613d9a565b613b70565b8273ffffffffffffffffffffffffffffffffffffffff168273ffffffffffffffffffffffffffffffffffffffff1614613b6f57613b6e8282613edd565b5b5b505050565b60007f01ffc9a7000000000000000000000000000000000000000000000000000000007bffffffffffffffffffffffffffffffffffffffffffffffffffffffff1916827bffffffffffffffffffffffffffffffffffffffffffffffffffffffff1916149050919050565b505050565b6012805490506013600083815260200190815260200160002081905550601281908060018154018082558091505060019003906000526020600020016000909190919091505550565b60006001613c3a84611929565b613c4491906156b2565b9050600060116000848152602001908152602001600020549050818114613d29576000601060008673ffffffffffffffffffffffffffffffffffffffff1673ffffffffffffffffffffffffffffffffffffffff168152602001908152602001600020600084815260200190815260200160002054905080601060008773ffffffffffffffffffffffffffffffffffffffff1673ffffffffffffffffffffffffffffffffffffffff168152602001908152602001600020600084815260200190815260200160002081905550816011600083815260200190815260200160002081905550505b6011600084815260200190815260200160002060009055601060008573ffffffffffffffffffffffffffffffffffffffff1673ffffffffffffffffffffffffffffffffffffffff16815260200190815260200160002060008381526020019081526020016000206000905550505050565b60006001601280549050613dae91906156b2565b9050600060136000848152602001908152602001600020549050600060128381548110613e04577f4e487b7100000000000000000000000000000000000000000000000000000000600052603260045260246000fd5b906000526020600020015490508060128381548110613e4c577f4e487b7100000000000000000000000000000000000000000000000000000000600052603260045260246000fd5b906000526020600020018190555081601360008381526020019081526020016000208190555060136000858152602001908152602001600020600090556012805480613ec1577f4e487b7100000000000000000000000000000000000000000000000000000000600052603160045260246000fd5b6001900381819060005260206000200160009055905550505050565b6000613ee883611929565b905081601060008573ffffffffffffffffffffffffffffffffffffffff1673ffffffffffffffffffffffffffffffffffffffff168152602001908152602001600020600083815260200190815260200160002081905550806011600084815260200190815260200160002081905550505050565b6000613f6f613f6a8461555e565b61552d565b905082815260208101848484011115613f8757600080fd5b613f92848285615795565b509392505050565b600081359050613fa98161597a565b92915050565b600081359050613fbe81615991565b92915050565b600081519050613fd381615991565b92915050565b600081359050613fe8816159a8565b92915050565b600081359050613ffd816159bf565b92915050565b600081519050614012816159bf565b92915050565b600082601f83011261402957600080fd5b8135614039848260208601613f5c565b91505092915050565b600081359050614051816159d6565b92915050565b60006020828403121561406957600080fd5b600061407784828501613f9a565b91505092915050565b6000806040838503121561409357600080fd5b60006140a185828601613f9a565b92505060206140b285828601613f9a565b9150509250929050565b6000806000606084860312156140d157600080fd5b60006140df86828701613f9a565b93505060206140f086828701613f9a565b925050604061410186828701614042565b9150509250925092565b6000806000806080858703121561412157600080fd5b600061412f87828801613f9a565b945050602061414087828801613f9a565b935050604061415187828801614042565b925050606085013567ffffffffffffffff81111561416e57600080fd5b61417a87828801614018565b91505092959194509250565b6000806040838503121561419957600080fd5b60006141a785828601613f9a565b92505060206141b885828601613faf565b9150509250929050565b600080604083850312156141d557600080fd5b60006141e385828601613f9a565b92505060206141f485828601614042565b9150509250929050565b60008060006060848603121561421357600080fd5b600061422186828701613f9a565b935050602061423286828701614042565b925050604061424386828701614042565b9150509250925092565b60006020828403121561425f57600080fd5b600061426d84828501613fc4565b91505092915050565b60006020828403121561428857600080fd5b600061429684828501613fd9565b91505092915050565b600080604083850312156142b257600080fd5b60006142c085828601613fd9565b92505060206142d185828601613f9a565b9150509250929050565b600080604083850312156142ee57600080fd5b60006142fc85828601613fd9565b925050602061430d85828601614042565b9150509250929050565b60006020828403121561432957600080fd5b600061433784828501613fee565b91505092915050565b60006020828403121561435257600080fd5b600061436084828501614003565b91505092915050565b60006020828403121561437b57600080fd5b600061438984828501614042565b91505092915050565b600080604083850312156143a557600080fd5b60006143b385828601614042565b92505060206143c485828601613f9a565b9150509250929050565b600080604083850312156143e157600080fd5b60006143ef85828601614042565b925050602061440085828601614042565b9150509250929050565b614413816156e6565b82525050565b614422816156f8565b82525050565b61443181615704565b82525050565b60006144428261558e565b61444c81856155a4565b935061445c8185602086016157a4565b61446581615969565b840191505092915050565b61447981615771565b82525050565b600061448a82615599565b61449481856155b5565b93506144a48185602086016157a4565b6144ad81615969565b840191505092915050565b60006144c382615599565b6144cd81856155c6565b93506144dd8185602086016157a4565b80840191505092915050565b60006144f66020836155b5565b91507f537472696e67733a20686578206c656e67746820696e73756666696369656e746000830152602082019050919050565b6000614536602b836155b5565b91507f4552433732315061757361626c653a20746f6b656e207472616e73666572207760008301527f68696c65207061757365640000000000000000000000000000000000000000006020830152604082019050919050565b600061459c6014836155b5565b91507f5061757361626c653a206e6f74207061757365640000000000000000000000006000830152602082019050919050565b60006145dc602b836155b5565b91507f455243373231456e756d657261626c653a206f776e657220696e646578206f7560008301527f74206f6620626f756e64730000000000000000000000000000000000000000006020830152604082019050919050565b60006146426032836155b5565b91507f4552433732313a207472616e7366657220746f206e6f6e20455243373231526560008301527f63656976657220696d706c656d656e74657200000000000000000000000000006020830152604082019050919050565b60006146a8601c836155b5565b91507f4552433732313a20746f6b656e20616c7265616479206d696e746564000000006000830152602082019050919050565b60006146e8603e836155b5565b91507f4552433732315072657365744d696e7465725061757365724175746f49643a2060008301527f6d75737420686176652070617573657220726f6c6520746f20706175736500006020830152604082019050919050565b600061474e6024836155b5565b91507f4552433732313a207472616e7366657220746f20746865207a65726f2061646460008301527f72657373000000000000000000000000000000000000000000000000000000006020830152604082019050919050565b60006147b46019836155b5565b91507f4552433732313a20617070726f766520746f2063616c6c6572000000000000006000830152602082019050919050565b60006147f46016836155b5565b91507f41756374696f6e20616c726561647920656e6465642e000000000000000000006000830152602082019050919050565b6000614834602c836155b5565b91507f4552433732313a206f70657261746f7220717565727920666f72206e6f6e657860008301527f697374656e7420746f6b656e00000000000000000000000000000000000000006020830152604082019050919050565b600061489a601e836155b5565b91507f546865726520616c7265616479206973206120686967686572206269642e00006000830152602082019050919050565b60006148da6016836155b5565b91507f41756374696f6e206e6f742079657420656e6465642e000000000000000000006000830152602082019050919050565b600061491a6010836155b5565b91507f5061757361626c653a20706175736564000000000000000000000000000000006000830152602082019050919050565b600061495a6023836155b5565b91507f61756374696f6e456e642068617320616c7265616479206265656e2063616c6c60008301527f65642e00000000000000000000000000000000000000000000000000000000006020830152604082019050919050565b60006149c06038836155b5565b91507f4552433732313a20617070726f76652063616c6c6572206973206e6f74206f7760008301527f6e6572206e6f7220617070726f76656420666f7220616c6c00000000000000006020830152604082019050919050565b6000614a26602a836155b5565b91507f4552433732313a2062616c616e636520717565727920666f7220746865207a6560008301527f726f2061646472657373000000000000000000000000000000000000000000006020830152604082019050919050565b6000614a8c6029836155b5565b91507f4552433732313a206f776e657220717565727920666f72206e6f6e657869737460008301527f656e7420746f6b656e00000000000000000000000000000000000000000000006020830152604082019050919050565b6000614af26020836155b5565b91507f4552433732313a206d696e7420746f20746865207a65726f20616464726573736000830152602082019050919050565b6000614b32602c836155b5565b91507f4552433732313a20617070726f76656420717565727920666f72206e6f6e657860008301527f697374656e7420746f6b656e00000000000000000000000000000000000000006020830152604082019050919050565b6000614b986029836155b5565b91507f4552433732313a207472616e73666572206f6620746f6b656e2074686174206960008301527f73206e6f74206f776e00000000000000000000000000000000000000000000006020830152604082019050919050565b6000614bfe602f836155b5565b91507f4552433732314d657461646174613a2055524920717565727920666f72206e6f60008301527f6e6578697374656e7420746f6b656e00000000000000000000000000000000006020830152604082019050919050565b6000614c646021836155b5565b91507f4552433732313a20617070726f76616c20746f2063757272656e74206f776e6560008301527f72000000000000000000000000000000000000000000000000000000000000006020830152604082019050919050565b6000614cca6031836155b5565b91507f4552433732313a207472616e736665722063616c6c6572206973206e6f74206f60008301527f776e6572206e6f7220617070726f7665640000000000000000000000000000006020830152604082019050919050565b6000614d30602c836155b5565b91507f455243373231456e756d657261626c653a20676c6f62616c20696e646578206f60008301527f7574206f6620626f756e647300000000000000000000000000000000000000006020830152604082019050919050565b6000614d966017836155c6565b91507f416363657373436f6e74726f6c3a206163636f756e74200000000000000000006000830152601782019050919050565b6000614dd6603d836155b5565b91507f4552433732315072657365744d696e7465725061757365724175746f49643a2060008301527f6d7573742068617665206d696e74657220726f6c6520746f206d696e740000006020830152604082019050919050565b6000614e3c6030836155b5565b91507f4552433732314275726e61626c653a2063616c6c6572206973206e6f74206f7760008301527f6e6572206e6f7220617070726f766564000000000000000000000000000000006020830152604082019050919050565b6000614ea26040836155b5565b91507f4552433732315072657365744d696e7465725061757365724175746f49643a2060008301527f6d75737420686176652070617573657220726f6c6520746f20756e70617573656020830152604082019050919050565b6000614f086011836155c6565b91507f206973206d697373696e6720726f6c65200000000000000000000000000000006000830152601182019050919050565b6000614f48602f836155b5565b91507f416363657373436f6e74726f6c3a2063616e206f6e6c792072656e6f756e636560008301527f20726f6c657320666f722073656c6600000000000000000000000000000000006020830152604082019050919050565b614faa8161575a565b82525050565b614fb981615764565b82525050565b6000614fcb82856144b8565b9150614fd782846144b8565b91508190509392505050565b6000614fee82614d89565b9150614ffa82856144b8565b915061500582614efb565b915061501182846144b8565b91508190509392505050565b6000602082019050615032600083018461440a565b92915050565b600060808201905061504d600083018761440a565b61505a602083018661440a565b6150676040830185614fa1565b81810360608301526150798184614437565b905095945050505050565b6000604082019050615099600083018561440a565b6150a66020830184614fa1565b9392505050565b60006020820190506150c26000830184614419565b92915050565b60006020820190506150dd6000830184614428565b92915050565b60006020820190506150f86000830184614470565b92915050565b60006020820190508181036000830152615118818461447f565b905092915050565b60006020820190508181036000830152615139816144e9565b9050919050565b6000602082019050818103600083015261515981614529565b9050919050565b600060208201905081810360008301526151798161458f565b9050919050565b60006020820190508181036000830152615199816145cf565b9050919050565b600060208201905081810360008301526151b981614635565b9050919050565b600060208201905081810360008301526151d98161469b565b9050919050565b600060208201905081810360008301526151f9816146db565b9050919050565b6000602082019050818103600083015261521981614741565b9050919050565b60006020820190508181036000830152615239816147a7565b9050919050565b60006020820190508181036000830152615259816147e7565b9050919050565b6000602082019050818103600083015261527981614827565b9050919050565b600060208201905081810360008301526152998161488d565b9050919050565b600060208201905081810360008301526152b9816148cd565b9050919050565b600060208201905081810360008301526152d98161490d565b9050919050565b600060208201905081810360008301526152f98161494d565b9050919050565b60006020820190508181036000830152615319816149b3565b9050919050565b6000602082019050818103600083015261533981614a19565b9050919050565b6000602082019050818103600083015261535981614a7f565b9050919050565b6000602082019050818103600083015261537981614ae5565b9050919050565b6000602082019050818103600083015261539981614b25565b9050919050565b600060208201905081810360008301526153b981614b8b565b9050919050565b600060208201905081810360008301526153d981614bf1565b9050919050565b600060208201905081810360008301526153f981614c57565b9050919050565b6000602082019050818103600083015261541981614cbd565b9050919050565b6000602082019050818103600083015261543981614d23565b9050919050565b6000602082019050818103600083015261545981614dc9565b9050919050565b6000602082019050818103600083015261547981614e2f565b9050919050565b6000602082019050818103600083015261549981614e95565b9050919050565b600060208201905081810360008301526154b981614f3b565b9050919050565b60006020820190506154d56000830184614fa1565b92915050565b60006060820190506154f06000830186614fa1565b6154fd602083018561440a565b61550a6040830184614fa1565b949350505050565b60006020820190506155276000830184614fb0565b92915050565b6000604051905081810181811067ffffffffffffffff821117156155545761555361593a565b5b8060405250919050565b600067ffffffffffffffff8211156155795761557861593a565b5b601f19601f8301169050602081019050919050565b600081519050919050565b600081519050919050565b600082825260208201905092915050565b600082825260208201905092915050565b600081905092915050565b60006155dc8261575a565b91506155e78361575a565b9250827fffffffffffffffffffffffffffffffffffffffffffffffffffffffffffffffff0382111561561c5761561b6158ad565b5b828201905092915050565b60006156328261575a565b915061563d8361575a565b92508261564d5761564c6158dc565b5b828204905092915050565b60006156638261575a565b915061566e8361575a565b9250817fffffffffffffffffffffffffffffffffffffffffffffffffffffffffffffffff04831182151516156156a7576156a66158ad565b5b828202905092915050565b60006156bd8261575a565b91506156c88361575a565b9250828210156156db576156da6158ad565b5b828203905092915050565b60006156f18261573a565b9050919050565b60008115159050919050565b6000819050919050565b60007fffffffff0000000000000000000000000000000000000000000000000000000082169050919050565b600073ffffffffffffffffffffffffffffffffffffffff82169050919050565b6000819050919050565b600060ff82169050919050565b600061577c82615783565b9050919050565b600061578e8261573a565b9050919050565b82818337600083830152505050565b60005b838110156157c25780820151818401526020810190506157a7565b838111156157d1576000848401525b50505050565b60006157e28261575a565b915060008214156157f6576157f56158ad565b5b600182039050919050565b6000600282049050600182168061581957607f821691505b6020821081141561582d5761582c61590b565b5b50919050565b600061583e8261575a565b91507fffffffffffffffffffffffffffffffffffffffffffffffffffffffffffffffff821415615871576158706158ad565b5b600182019050919050565b60006158878261575a565b91506158928361575a565b9250826158a2576158a16158dc565b5b828206905092915050565b7f4e487b7100000000000000000000000000000000000000000000000000000000600052601160045260246000fd5b7f4e487b7100000000000000000000000000000000000000000000000000000000600052601260045260246000fd5b7f4e487b7100000000000000000000000000000000000000000000000000000000600052602260045260246000fd5b7f4e487b7100000000000000000000000000000000000000000000000000000000600052604160045260246000fd5b6000601f19601f8301169050919050565b615983816156e6565b811461598e57600080fd5b50565b61599a816156f8565b81146159a557600080fd5b50565b6159b181615704565b81146159bc57600080fd5b50565b6159c88161570e565b81146159d357600080fd5b50565b6159df8161575a565b81146159ea57600080fd5b5056fea2646970667358221220c8f856555a60b1ae1ab4a1dc5f70db9d0219af59f577f90c749b19e6e50dc07364736f6c63430008000033",
  "immutableReferences": {},
  "source": "// SPDX-License-Identifier: MIT\npragma solidity ^0.8.0;\n\nimport \"./presets/ERC721PresetMinterPauserAutoId.sol\";\n\ncontract MyToken is ERC721PresetMinterPauserAutoId {\n    constructor()\n    ERC721PresetMinterPauserAutoId(\n        \"My Token\",\n        \"TKN\",\n        \"https://example.com/api/token/\"\n    ){}\n\n//    function _BEFORETOKENTRANSFER(\n//        address from,\n//        address to,\n//        uint256 tokenId\n//    ) internal virtual override(ERC721, ERC721Pausable) {\n//        super._beforeTokenTransfer(from, to, tokenId);\n//\n//        // do stuff before every transfer\n//        // e.g. check that vote (other than when minted)\n//        // being transferred to registered candidate\n//    }\n}",
  "sourcePath": "/Volumes/Transcend/Projects/DappsLab/Lottery-Smart-Contract/contracts/customERC20ERC721/ERC721/MyToken.sol",
  "compiler": {
    "name": "solc",
    "version": "0.8.0+commit.c7dfd78e.Emscripten.clang"
  },
  "schemaVersion": "3.4.1",
  "updatedAt": "2021-06-28T20:35:59.771Z",
  "devdoc": {
    "kind": "dev",
    "methods": {
      "_mint(address,uint256,uint256)": {
        "details": "Mints `tokenId` and transfers it to `to`. WARNING: Usage of this method is discouraged, use {_safeMint} whenever possible Requirements: - `tokenId` must not exist. - `to` cannot be the zero address. Emits a {Transfer} event."
      },
      "approve(address,uint256)": {
        "details": "See {IERC721-approve}."
      },
      "balanceOf(address)": {
        "details": "See {IERC721-balanceOf}."
      },
      "burn(uint256)": {
        "details": "Burns `tokenId`. See {ERC721-_burn}. Requirements: - The caller must own `tokenId` or be an approved operator."
      },
      "getApproved(uint256)": {
        "details": "See {IERC721-getApproved}."
      },
      "getRoleAdmin(bytes32)": {
        "details": "Returns the admin role that controls `role`. See {grantRole} and {revokeRole}. To change a role's admin, use {_setRoleAdmin}."
      },
      "getRoleMember(bytes32,uint256)": {
        "details": "Returns one of the accounts that have `role`. `index` must be a value between 0 and {getRoleMemberCount}, non-inclusive. Role bearers are not sorted in any particular way, and their ordering may change at any point. WARNING: When using {getRoleMember} and {getRoleMemberCount}, make sure you perform all queries on the same block. See the following https://forum.openzeppelin.com/t/iterating-over-elements-on-enumerableset-in-openzeppelin-contracts/2296[forum post] for more information."
      },
      "getRoleMemberCount(bytes32)": {
        "details": "Returns the number of accounts that have `role`. Can be used together with {getRoleMember} to enumerate all bearers of a role."
      },
      "grantRole(bytes32,address)": {
        "details": "Overload {grantRole} to track enumerable memberships"
      },
      "hasRole(bytes32,address)": {
        "details": "Returns `true` if `account` has been granted `role`."
      },
      "isApprovedForAll(address,address)": {
        "details": "See {IERC721-isApprovedForAll}."
      },
      "mint(address,uint256)": {
        "details": "Creates a new token for `to`. Its token ID will be automatically assigned (and available on the emitted {IERC721-Transfer} event), and the token URI autogenerated based on the base URI passed at construction. See {ERC721-_mint}. Requirements: - the caller must have the `MINTER_ROLE`."
      },
      "name()": {
        "details": "See {IERC721Metadata-name}."
      },
      "ownerOf(uint256)": {
        "details": "See {IERC721-ownerOf}."
      },
      "pause()": {
        "details": "Pauses all token transfers. See {ERC721Pausable} and {Pausable-_pause}. Requirements: - the caller must have the `PAUSER_ROLE`."
      },
      "paused()": {
        "details": "Returns true if the contract is paused, and false otherwise."
      },
      "renounceRole(bytes32,address)": {
        "details": "Overload {renounceRole} to track enumerable memberships"
      },
      "revokeRole(bytes32,address)": {
        "details": "Overload {revokeRole} to track enumerable memberships"
      },
      "safeTransferFrom(address,address,uint256)": {
        "details": "See {IERC721-safeTransferFrom}."
      },
      "safeTransferFrom(address,address,uint256,bytes)": {
        "details": "See {IERC721-safeTransferFrom}."
      },
      "setApprovalForAll(address,bool)": {
        "details": "See {IERC721-setApprovalForAll}."
      },
      "supportsInterface(bytes4)": {
        "details": "See {IERC165-supportsInterface}."
      },
      "symbol()": {
        "details": "See {IERC721Metadata-symbol}."
      },
      "tokenByIndex(uint256)": {
        "details": "See {IERC721Enumerable-tokenByIndex}."
      },
      "tokenOfOwnerByIndex(address,uint256)": {
        "details": "See {IERC721Enumerable-tokenOfOwnerByIndex}."
      },
      "tokenURI(uint256)": {
        "details": "See {IERC721Metadata-tokenURI}."
      },
      "totalSupply()": {
        "details": "See {IERC721Enumerable-totalSupply}."
      },
      "transferFrom(address,address,uint256)": {
        "details": "See {IERC721-transferFrom}."
      },
      "unpause()": {
        "details": "Unpauses all token transfers. See {ERC721Pausable} and {Pausable-_unpause}. Requirements: - the caller must have the `PAUSER_ROLE`."
      }
    },
    "version": 1
  },
  "userdoc": {
    "kind": "user",
    "methods": {
      "auctionEnd(uint256)": {
        "notice": "End the auction and send the highest bid to the beneficiary."
      },
      "getToken()": {
        "notice": "Getter and Setter of _token (ERC20)*"
      },
      "withdraw(uint256)": {
        "notice": "Withdraw a bid that was overbid."
      }
    },
    "version": 1
  }
}