{
  "contractName": "NFT",
  "abi": [
    {
      "inputs": [],
      "stateMutability": "nonpayable",
      "type": "constructor"
    },
    {
      "anonymous": false,
      "inputs": [
        {
          "indexed": true,
          "internalType": "address",
          "name": "owner",
          "type": "address"
        },
        {
          "indexed": true,
          "internalType": "address",
          "name": "approved",
          "type": "address"
        },
        {
          "indexed": true,
          "internalType": "uint256",
          "name": "tokenId",
          "type": "uint256"
        }
      ],
      "name": "Approval",
      "type": "event"
    },
    {
      "anonymous": false,
      "inputs": [
        {
          "indexed": true,
          "internalType": "address",
          "name": "owner",
          "type": "address"
        },
        {
          "indexed": true,
          "internalType": "address",
          "name": "operator",
          "type": "address"
        },
        {
          "indexed": false,
          "internalType": "bool",
          "name": "approved",
          "type": "bool"
        }
      ],
      "name": "ApprovalForAll",
      "type": "event"
    },
    {
      "anonymous": false,
      "inputs": [
        {
          "indexed": false,
          "internalType": "address",
          "name": "account",
          "type": "address"
        }
      ],
      "name": "Paused",
      "type": "event"
    },
    {
      "anonymous": false,
      "inputs": [
        {
          "indexed": true,
          "internalType": "bytes32",
          "name": "role",
          "type": "bytes32"
        },
        {
          "indexed": true,
          "internalType": "bytes32",
          "name": "previousAdminRole",
          "type": "bytes32"
        },
        {
          "indexed": true,
          "internalType": "bytes32",
          "name": "newAdminRole",
          "type": "bytes32"
        }
      ],
      "name": "RoleAdminChanged",
      "type": "event"
    },
    {
      "anonymous": false,
      "inputs": [
        {
          "indexed": true,
          "internalType": "bytes32",
          "name": "role",
          "type": "bytes32"
        },
        {
          "indexed": true,
          "internalType": "address",
          "name": "account",
          "type": "address"
        },
        {
          "indexed": true,
          "internalType": "address",
          "name": "sender",
          "type": "address"
        }
      ],
      "name": "RoleGranted",
      "type": "event"
    },
    {
      "anonymous": false,
      "inputs": [
        {
          "indexed": true,
          "internalType": "bytes32",
          "name": "role",
          "type": "bytes32"
        },
        {
          "indexed": true,
          "internalType": "address",
          "name": "account",
          "type": "address"
        },
        {
          "indexed": true,
          "internalType": "address",
          "name": "sender",
          "type": "address"
        }
      ],
      "name": "RoleRevoked",
      "type": "event"
    },
    {
      "anonymous": false,
      "inputs": [
        {
          "indexed": true,
          "internalType": "address",
          "name": "from",
          "type": "address"
        },
        {
          "indexed": true,
          "internalType": "address",
          "name": "to",
          "type": "address"
        },
        {
          "indexed": true,
          "internalType": "uint256",
          "name": "tokenId",
          "type": "uint256"
        }
      ],
      "name": "Transfer",
      "type": "event"
    },
    {
      "anonymous": false,
      "inputs": [
        {
          "indexed": false,
          "internalType": "address",
          "name": "account",
          "type": "address"
        }
      ],
      "name": "Unpaused",
      "type": "event"
    },
    {
      "inputs": [],
      "name": "DEFAULT_ADMIN_ROLE",
      "outputs": [
        {
          "internalType": "bytes32",
          "name": "",
          "type": "bytes32"
        }
      ],
      "stateMutability": "view",
      "type": "function",
      "constant": true
    },
    {
      "inputs": [],
      "name": "MINTER_ROLE",
      "outputs": [
        {
          "internalType": "bytes32",
          "name": "",
          "type": "bytes32"
        }
      ],
      "stateMutability": "view",
      "type": "function",
      "constant": true
    },
    {
      "inputs": [],
      "name": "PAUSER_ROLE",
      "outputs": [
        {
          "internalType": "bytes32",
          "name": "",
          "type": "bytes32"
        }
      ],
      "stateMutability": "view",
      "type": "function",
      "constant": true
    },
    {
      "inputs": [
        {
          "internalType": "uint256",
          "name": "tokenId",
          "type": "uint256"
        },
        {
          "internalType": "string",
          "name": "CID",
          "type": "string"
        }
      ],
      "name": "addArticle",
      "outputs": [],
      "stateMutability": "nonpayable",
      "type": "function"
    },
    {
      "inputs": [
        {
          "internalType": "address",
          "name": "to",
          "type": "address"
        },
        {
          "internalType": "uint256",
          "name": "tokenId",
          "type": "uint256"
        }
      ],
      "name": "approve",
      "outputs": [],
      "stateMutability": "nonpayable",
      "type": "function"
    },
    {
      "inputs": [
        {
          "internalType": "uint256",
          "name": "tokenId",
          "type": "uint256"
        },
        {
          "internalType": "uint256",
          "name": "articleID",
          "type": "uint256"
        }
      ],
      "name": "articleOfPassportByID",
      "outputs": [
        {
          "internalType": "string",
          "name": "",
          "type": "string"
        }
      ],
      "stateMutability": "view",
      "type": "function",
      "constant": true
    },
    {
      "inputs": [
        {
          "internalType": "uint256",
          "name": "tokenId",
          "type": "uint256"
        }
      ],
      "name": "articlesOf",
      "outputs": [
        {
          "internalType": "string[]",
          "name": "",
          "type": "string[]"
        }
      ],
      "stateMutability": "view",
      "type": "function",
      "constant": true
    },
    {
      "inputs": [
        {
          "internalType": "address",
          "name": "owner",
          "type": "address"
        }
      ],
      "name": "balanceOf",
      "outputs": [
        {
          "internalType": "uint256",
          "name": "",
          "type": "uint256"
        }
      ],
      "stateMutability": "view",
      "type": "function",
      "constant": true
    },
    {
      "inputs": [
        {
          "internalType": "uint256",
          "name": "tokenId",
          "type": "uint256"
        }
      ],
      "name": "burn",
      "outputs": [],
      "stateMutability": "nonpayable",
      "type": "function"
    },
    {
      "inputs": [
        {
          "internalType": "uint256",
          "name": "tokenId",
          "type": "uint256"
        },
        {
          "internalType": "uint256",
          "name": "articleID",
          "type": "uint256"
        },
        {
          "internalType": "string",
          "name": "CID",
          "type": "string"
        }
      ],
      "name": "editArticle",
      "outputs": [],
      "stateMutability": "nonpayable",
      "type": "function"
    },
    {
      "inputs": [
        {
          "internalType": "uint256",
          "name": "tokenId",
          "type": "uint256"
        }
      ],
      "name": "emailOf",
      "outputs": [
        {
          "internalType": "string",
          "name": "",
          "type": "string"
        }
      ],
      "stateMutability": "view",
      "type": "function",
      "constant": true
    },
    {
      "inputs": [
        {
          "internalType": "uint256",
          "name": "tokenId",
          "type": "uint256"
        }
      ],
      "name": "getApproved",
      "outputs": [
        {
          "internalType": "address",
          "name": "",
          "type": "address"
        }
      ],
      "stateMutability": "view",
      "type": "function",
      "constant": true
    },
    {
      "inputs": [
        {
          "internalType": "bytes32",
          "name": "role",
          "type": "bytes32"
        }
      ],
      "name": "getRoleAdmin",
      "outputs": [
        {
          "internalType": "bytes32",
          "name": "",
          "type": "bytes32"
        }
      ],
      "stateMutability": "view",
      "type": "function",
      "constant": true
    },
    {
      "inputs": [
        {
          "internalType": "bytes32",
          "name": "role",
          "type": "bytes32"
        },
        {
          "internalType": "uint256",
          "name": "index",
          "type": "uint256"
        }
      ],
      "name": "getRoleMember",
      "outputs": [
        {
          "internalType": "address",
          "name": "",
          "type": "address"
        }
      ],
      "stateMutability": "view",
      "type": "function",
      "constant": true
    },
    {
      "inputs": [
        {
          "internalType": "bytes32",
          "name": "role",
          "type": "bytes32"
        }
      ],
      "name": "getRoleMemberCount",
      "outputs": [
        {
          "internalType": "uint256",
          "name": "",
          "type": "uint256"
        }
      ],
      "stateMutability": "view",
      "type": "function",
      "constant": true
    },
    {
      "inputs": [
        {
          "internalType": "bytes32",
          "name": "role",
          "type": "bytes32"
        },
        {
          "internalType": "address",
          "name": "account",
          "type": "address"
        }
      ],
      "name": "grantRole",
      "outputs": [],
      "stateMutability": "nonpayable",
      "type": "function"
    },
    {
      "inputs": [
        {
          "internalType": "bytes32",
          "name": "role",
          "type": "bytes32"
        },
        {
          "internalType": "address",
          "name": "account",
          "type": "address"
        }
      ],
      "name": "hasRole",
      "outputs": [
        {
          "internalType": "bool",
          "name": "",
          "type": "bool"
        }
      ],
      "stateMutability": "view",
      "type": "function",
      "constant": true
    },
    {
      "inputs": [
        {
          "internalType": "address",
          "name": "owner",
          "type": "address"
        },
        {
          "internalType": "address",
          "name": "operator",
          "type": "address"
        }
      ],
      "name": "isApprovedForAll",
      "outputs": [
        {
          "internalType": "bool",
          "name": "",
          "type": "bool"
        }
      ],
      "stateMutability": "view",
      "type": "function",
      "constant": true
    },
    {
      "inputs": [
        {
          "internalType": "address",
          "name": "to",
          "type": "address"
        },
        {
          "internalType": "string",
          "name": "username_",
          "type": "string"
        },
        {
          "internalType": "string",
          "name": "email_",
          "type": "string"
        }
      ],
      "name": "mint",
      "outputs": [],
      "stateMutability": "nonpayable",
      "type": "function"
    },
    {
      "inputs": [],
      "name": "name",
      "outputs": [
        {
          "internalType": "string",
          "name": "",
          "type": "string"
        }
      ],
      "stateMutability": "view",
      "type": "function",
      "constant": true
    },
    {
      "inputs": [
        {
          "internalType": "uint256",
          "name": "tokenId",
          "type": "uint256"
        }
      ],
      "name": "ownerOf",
      "outputs": [
        {
          "internalType": "address",
          "name": "",
          "type": "address"
        }
      ],
      "stateMutability": "view",
      "type": "function",
      "constant": true
    },
    {
      "inputs": [],
      "name": "pause",
      "outputs": [],
      "stateMutability": "nonpayable",
      "type": "function"
    },
    {
      "inputs": [],
      "name": "paused",
      "outputs": [
        {
          "internalType": "bool",
          "name": "",
          "type": "bool"
        }
      ],
      "stateMutability": "view",
      "type": "function",
      "constant": true
    },
    {
      "inputs": [
        {
          "internalType": "bytes32",
          "name": "role",
          "type": "bytes32"
        },
        {
          "internalType": "address",
          "name": "account",
          "type": "address"
        }
      ],
      "name": "renounceRole",
      "outputs": [],
      "stateMutability": "nonpayable",
      "type": "function"
    },
    {
      "inputs": [
        {
          "internalType": "bytes32",
          "name": "role",
          "type": "bytes32"
        },
        {
          "internalType": "address",
          "name": "account",
          "type": "address"
        }
      ],
      "name": "revokeRole",
      "outputs": [],
      "stateMutability": "nonpayable",
      "type": "function"
    },
    {
      "inputs": [
        {
          "internalType": "address",
          "name": "from",
          "type": "address"
        },
        {
          "internalType": "address",
          "name": "to",
          "type": "address"
        },
        {
          "internalType": "uint256",
          "name": "tokenId",
          "type": "uint256"
        }
      ],
      "name": "safeTransferFrom",
      "outputs": [],
      "stateMutability": "nonpayable",
      "type": "function"
    },
    {
      "inputs": [
        {
          "internalType": "address",
          "name": "from",
          "type": "address"
        },
        {
          "internalType": "address",
          "name": "to",
          "type": "address"
        },
        {
          "internalType": "uint256",
          "name": "tokenId",
          "type": "uint256"
        },
        {
          "internalType": "bytes",
          "name": "_data",
          "type": "bytes"
        }
      ],
      "name": "safeTransferFrom",
      "outputs": [],
      "stateMutability": "nonpayable",
      "type": "function"
    },
    {
      "inputs": [
        {
          "internalType": "address",
          "name": "operator",
          "type": "address"
        },
        {
          "internalType": "bool",
          "name": "approved",
          "type": "bool"
        }
      ],
      "name": "setApprovalForAll",
      "outputs": [],
      "stateMutability": "nonpayable",
      "type": "function"
    },
    {
      "inputs": [
        {
          "internalType": "bytes4",
          "name": "interfaceId",
          "type": "bytes4"
        }
      ],
      "name": "supportsInterface",
      "outputs": [
        {
          "internalType": "bool",
          "name": "",
          "type": "bool"
        }
      ],
      "stateMutability": "view",
      "type": "function",
      "constant": true
    },
    {
      "inputs": [],
      "name": "symbol",
      "outputs": [
        {
          "internalType": "string",
          "name": "",
          "type": "string"
        }
      ],
      "stateMutability": "view",
      "type": "function",
      "constant": true
    },
    {
      "inputs": [
        {
          "internalType": "uint256",
          "name": "index",
          "type": "uint256"
        }
      ],
      "name": "tokenByIndex",
      "outputs": [
        {
          "internalType": "uint256",
          "name": "",
          "type": "uint256"
        }
      ],
      "stateMutability": "view",
      "type": "function",
      "constant": true
    },
    {
      "inputs": [
        {
          "internalType": "address",
          "name": "owner",
          "type": "address"
        },
        {
          "internalType": "uint256",
          "name": "index",
          "type": "uint256"
        }
      ],
      "name": "tokenOfOwnerByIndex",
      "outputs": [
        {
          "internalType": "uint256",
          "name": "",
          "type": "uint256"
        }
      ],
      "stateMutability": "view",
      "type": "function",
      "constant": true
    },
    {
      "inputs": [
        {
          "internalType": "uint256",
          "name": "tokenId",
          "type": "uint256"
        }
      ],
      "name": "tokenURI",
      "outputs": [
        {
          "internalType": "string",
          "name": "",
          "type": "string"
        }
      ],
      "stateMutability": "view",
      "type": "function",
      "constant": true
    },
    {
      "inputs": [],
      "name": "totalSupply",
      "outputs": [
        {
          "internalType": "uint256",
          "name": "",
          "type": "uint256"
        }
      ],
      "stateMutability": "view",
      "type": "function",
      "constant": true
    },
    {
      "inputs": [
        {
          "internalType": "address",
          "name": "from",
          "type": "address"
        },
        {
          "internalType": "address",
          "name": "to",
          "type": "address"
        },
        {
          "internalType": "uint256",
          "name": "tokenId",
          "type": "uint256"
        }
      ],
      "name": "transferFrom",
      "outputs": [],
      "stateMutability": "nonpayable",
      "type": "function"
    },
    {
      "inputs": [],
      "name": "unpause",
      "outputs": [],
      "stateMutability": "nonpayable",
      "type": "function"
    },
    {
      "inputs": [
        {
          "internalType": "uint256",
          "name": "tokenId",
          "type": "uint256"
        }
      ],
      "name": "usernameOf",
      "outputs": [
        {
          "internalType": "string",
          "name": "",
          "type": "string"
        }
      ],
      "stateMutability": "view",
      "type": "function",
      "constant": true
    }
  ],
  "bytecode": "0x60806040523480156200001157600080fd5b506040518060400160405280600881526020017f50617373706f72740000000000000000000000000000000000000000000000008152506040518060400160405280600381526020017f54325000000000000000000000000000000000000000000000000000000000008152506040518060400160405280601481526020017f3132372e302e302e313a383038302f697066732f00000000000000000000000081525082828160029080519060200190620000ce9291906200036a565b508051620000e49060039060208401906200036a565b50506011805460ff19169055508051620001069060139060208401906200036a565b506200012f600062000120640100000000620001a8810204565b640100000000620001ac810204565b620001677f9f2df0fed2c77648de5860a4cc508cd0818c85b8b8a1ab4ceeef8d981c8956a662000120640100000000620001a8810204565b6200019f7f65d7a28e3265b37a6474929f336521b332c1681b933f6cb9f3376673440d862a62000120640100000000620001a8810204565b50505062000466565b3390565b620001c6828264010000000062001000620001f382021704565b6000828152600160205260409020620001ee90826401000000006200100a6200020c82021704565b505050565b62000208828264010000000062000235810204565b5050565b60006200022c83600160a060020a038416640100000000620002d1810204565b90505b92915050565b6200024a828264010000000062000329810204565b6200020857600082815260208181526040808320600160a060020a03851684529091529020805460ff191660011790556200028d640100000000620001a8810204565b600160a060020a031681600160a060020a0316837f2f8788117e7eff1d82e926ec794901d17c78024a50270940304540a733656f0d60405160405180910390a45050565b6000620002e8838364010000000062000352810204565b62000320575081546001818101845560008481526020808220909301849055845484825282860190935260409020919091556200022f565b5060006200022f565b600091825260208281526040808420600160a060020a0393909316845291905290205460ff1690565b60009081526001919091016020526040902054151590565b828054620003789062000410565b90600052602060002090601f0160209004810192826200039c5760008555620003e7565b82601f10620003b757805160ff1916838001178555620003e7565b82800160010185558215620003e7579182015b82811115620003e7578251825591602001919060010190620003ca565b50620003f5929150620003f9565b5090565b5b80821115620003f55760008155600101620003fa565b6002810460018216806200042557607f821691505b6020821081141562000460577f4e487b7100000000000000000000000000000000000000000000000000000000600052602260045260246000fd5b50919050565b6133d780620004766000396000f3fe608060405234801561001057600080fd5b5060043610610244576000357c0100000000000000000000000000000000000000000000000000000000900480636352211e1161014d578063a22cb465116100d5578063ca15c87311610099578063ca15c873146104a8578063d5391393146104bb578063d547741f146104c3578063e63ab1e9146104d6578063e985e9c5146104de57610244565b8063a22cb4651461043c578063a56ed4441461044f578063b88d4fde1461046f578063c6c1b3be14610482578063c87b56dd1461049557610244565b806391d148541161011c57806391d14854146103f357806395d89b4114610406578063990711901461040e5780639e4c129514610421578063a217fddf1461043457610244565b80636352211e146103b257806370a08231146103c55780638456cb59146103d85780639010d07c146103e057610244565b80632f745c59116101d057806342966c681161019f57806342966c681461035e57806347ab0287146103715780634f6ccce7146103845780635c975abb1461039757806360ae60761461039f57610244565b80632f745c591461031d57806336568abe146103305780633f4ba83a1461034357806342842e0e1461034b57610244565b806318160ddd1161021757806318160ddd146102bc5780631e6c0b36146102d157806323b872dd146102e4578063248a9ca3146102f75780632f2ff15d1461030a57610244565b806301ffc9a71461024957806306fdde0314610272578063081812fc14610287578063095ea7b3146102a7575b600080fd5b61025c6102573660046126f8565b6104f1565b6040516102699190612945565b60405180910390f35b61027a610504565b6040516102699190612959565b61029a61029536600461269d565b610596565b6040516102699190612895565b6102ba6102b5366004612674565b6105e5565b005b6102c4610683565b6040516102699190612950565b61027a6102df36600461269d565b610689565b6102ba6102f2366004612515565b610761565b6102c461030536600461269d565b61079c565b6102ba6103183660046126b5565b6107b1565b6102c461032b366004612674565b6107d3565b6102ba61033e3660046126b5565b61082b565b6102ba61084d565b6102ba610359366004612515565b6108a2565b6102ba61036c36600461269d565b6108bd565b6102ba61037f366004612775565b6108f3565b6102c461039236600461269d565b6109da565b61025c610a3b565b61027a6103ad3660046126d7565b610a44565b61029a6103c036600461269d565b610af2565b6102c46103d33660046124c9565b610b2a565b6102ba610b71565b61029a6103ee3660046126d7565b610bc4565b61025c6104013660046126b5565b610be3565b61027a610c0c565b6102ba61041c366004612603565b610c1b565b6102ba61042f366004612730565b610c85565b6102c4610d4e565b6102ba61044a3660046125c9565b610d53565b61046261045d36600461269d565b610d69565b60405161026991906128e5565b6102ba61047d366004612550565b610e55565b61027a61049036600461269d565b610e91565b61027a6104a336600461269d565b610ee4565b6102c46104b636600461269d565b610f69565b6102c4610f80565b6102ba6104d13660046126b5565b610fa4565b6102c4610fae565b61025c6104ec3660046124e3565b610fd2565b60006104fc8261101f565b90505b919050565b606060028054610513906132d3565b80601f016020809104026020016040519081016040528092919081815260200182805461053f906132d3565b801561058c5780601f106105615761010080835404028352916020019161058c565b820191906000526020600020905b81548152906001019060200180831161056f57829003601f168201915b5050505050905090565b60006105a18261105d565b6105c95760405160e560020a62461bcd0281526004016105c090612eb1565b60405180910390fd5b506000908152600b6020526040902054600160a060020a031690565b60006105f082610af2565b905080600160a060020a031683600160a060020a031614156106275760405160e560020a62461bcd0281526004016105c090612fa2565b80600160a060020a031661063961107a565b600160a060020a031614806106555750610655816104ec61107a565b6106745760405160e560020a62461bcd0281526004016105c090612d65565b61067e838361107e565b505050565b600f5490565b600081815260046020526040902054606090600160a060020a03166106c35760405160e560020a62461bcd0281526004016105c090612f6b565b600082815260056020526040902080546106dc906132d3565b80601f0160208091040260200160405190810160405280929190818152602001828054610708906132d3565b80156107555780601f1061072a57610100808354040283529160200191610755565b820191906000526020600020905b81548152906001019060200180831161073857829003601f168201915b50505050509050919050565b61077261076c61107a565b826110f9565b6107915760405160e560020a62461bcd0281526004016105c090612fff565b61067e838383611181565b60009081526020819052604090206001015490565b6107bb82826112c7565b600082815260016020526040902061067e908261100a565b60006107de83610b2a565b82106107ff5760405160e560020a62461bcd0281526004016105c090612a35565b50600160a060020a0382166000908152600d602090815260408083208484529091529020545b92915050565b61083582826112eb565b600082815260016020526040902061067e9082611330565b6108797f65d7a28e3265b37a6474929f336521b332c1681b933f6cb9f3376673440d862a61040161107a565b6108985760405160e560020a62461bcd0281526004016105c090613173565b6108a0611345565b565b61067e83838360405180602001604052806000815250610e55565b6108c861076c61107a565b6108e75760405160e560020a62461bcd0281526004016105c090613116565b6108f0816113b6565b50565b600083815260046020526040902054600160a060020a031661092a5760405160e560020a62461bcd0281526004016105c090612f6b565b60008381526008602052604090205482111561095b5760405160e560020a62461bcd0281526004016105c090612c74565b6000838152600960209081526040808320858452825290912082516109829284019061238a565b5060008381526007602052604090208054829190849081106109b75760e060020a634e487b7102600052603260045260246000fd5b9060005260206000200190805190602001906109d492919061238a565b50505050565b60006109e4610683565b8210610a055760405160e560020a62461bcd0281526004016105c09061305c565b600f8281548110610a295760e060020a634e487b7102600052603260045260246000fd5b90600052602060002001549050919050565b60115460ff1690565b60008281526009602090815260408083208484529091529020805460609190610a6c906132d3565b80601f0160208091040260200160405190810160405280929190818152602001828054610a98906132d3565b8015610ae55780601f10610aba57610100808354040283529160200191610ae5565b820191906000526020600020905b815481529060010190602001808311610ac857829003601f168201915b5050505050905092915050565b600081815260046020526040812054600160a060020a0316806104fc5760405160e560020a62461bcd0281526004016105c090612e1f565b6000600160a060020a038216610b555760405160e560020a62461bcd0281526004016105c090612dc2565b50600160a060020a03166000908152600a602052604090205490565b610b9d7f65d7a28e3265b37a6474929f336521b332c1681b933f6cb9f3376673440d862a61040161107a565b610bbc5760405160e560020a62461bcd0281526004016105c090612b83565b6108a0611472565b6000828152600160205260408120610bdc90836114d0565b9392505050565b600091825260208281526040808420600160a060020a0393909316845291905290205460ff1690565b606060038054610513906132d3565b610c477f9f2df0fed2c77648de5860a4cc508cd0818c85b8b8a1ab4ceeef8d981c8956a661040161107a565b610c665760405160e560020a62461bcd0281526004016105c0906130b9565b610c7b83610c7460126114dc565b84846114e0565b61067e6012611540565b600082815260046020526040902054600160a060020a0316610cbc5760405160e560020a62461bcd0281526004016105c090612f6b565b600082815260076020908152604082208054600181018255908352918190208351610cee93919091019184019061238a565b5060008281526009602090815260408083206008835281842054845282529091208251610d1d9284019061238a565b50600082815260086020526040902054610d3890600161322e565b6000928352600860205260409092209190915550565b600081565b610d65610d5e61107a565b8383611549565b5050565b606060076000838152602001908152602001600020805480602002602001604051908101604052809291908181526020016000905b82821015610e4a578382906000526020600020018054610dbd906132d3565b80601f0160208091040260200160405190810160405280929190818152602001828054610de9906132d3565b8015610e365780601f10610e0b57610100808354040283529160200191610e36565b820191906000526020600020905b815481529060010190602001808311610e1957829003601f168201915b505050505081526020019060010190610d9e565b505050509050919050565b610e66610e6061107a565b836110f9565b610e855760405160e560020a62461bcd0281526004016105c090612fff565b6109d4848484846115ef565b600081815260046020526040902054606090600160a060020a0316610ecb5760405160e560020a62461bcd0281526004016105c090612f6b565b600082815260066020526040902080546106dc906132d3565b6060610eef8261105d565b610f0e5760405160e560020a62461bcd0281526004016105c090612f0e565b6000610f18611625565b90506000815111610f385760405180602001604052806000815250610bdc565b80610f4284611634565b604051602001610f539291906127e5565b6040516020818303038152906040529392505050565b60008181526001602052604081206104fc90611790565b7f9f2df0fed2c77648de5860a4cc508cd0818c85b8b8a1ab4ceeef8d981c8956a681565b610835828261179b565b7f65d7a28e3265b37a6474929f336521b332c1681b933f6cb9f3376673440d862a81565b600160a060020a039182166000908152600c6020908152604080832093909416825291909152205460ff1690565b610d6582826117ba565b6000610bdc83600160a060020a03841661183f565b6000600160e060020a031982167f780e9d630000000000000000000000000000000000000000000000000000000014806104fc57506104fc82611889565b600090815260046020526040902054600160a060020a0316151590565b3390565b6000818152600b60205260409020805473ffffffffffffffffffffffffffffffffffffffff1916600160a060020a03841690811790915581906110c082610af2565b600160a060020a03167f8c5be1e5ebec7d5bd14f71427d1e84f3dd0314c0f7b2291e5b200ac8c7c3b92560405160405180910390a45050565b60006111048261105d565b6111235760405160e560020a62461bcd0281526004016105c090612cd1565b600061112e83610af2565b905080600160a060020a031684600160a060020a0316148061115557506111558185610fd2565b80611179575083600160a060020a031661116e84610596565b600160a060020a0316145b949350505050565b82600160a060020a031661119482610af2565b600160a060020a0316146111bd5760405160e560020a62461bcd0281526004016105c090612aef565b600160a060020a0382166111e65760405160e560020a62461bcd0281526004016105c090612be0565b6111f18383836118fb565b6111fc60008261107e565b600160a060020a0383166000908152600a60205260408120805460019290611225908490613279565b9091555050600160a060020a0382166000908152600a6020526040812080546001929061125390849061322e565b9091555050600081815260046020526040808220805473ffffffffffffffffffffffffffffffffffffffff1916600160a060020a0386811691821790925591518493918716917fddf252ad1be2c89b69c2b068fc378daa952ba7f163c4a11628f55a4df523b3ef91a461067e83838361067e565b6112d08261079c565b6112e1816112dc61107a565b611906565b61067e83836117ba565b6112f361107a565b600160a060020a031681600160a060020a0316146113265760405160e560020a62461bcd0281526004016105c0906131d1565b610d65828261196d565b6000610bdc83600160a060020a0384166119f0565b61134d610a3b565b61136c5760405160e560020a62461bcd0281526004016105c0906129fe565b6011805460ff191690557f5db9ee0a495bf2e6ff9c91a7834c1ba4fdd244a5e8aa4e537bd38aeae4b073aa61139f61107a565b6040516113ac9190612895565b60405180910390a1565b60006113c182610af2565b90506113cf816000846118fb565b6113da60008361107e565b600160a060020a0381166000908152600a60205260408120805460019290611403908490613279565b9091555050600082815260046020526040808220805473ffffffffffffffffffffffffffffffffffffffff1916905551839190600160a060020a038416907fddf252ad1be2c89b69c2b068fc378daa952ba7f163c4a11628f55a4df523b3ef908390a4610d658160008461067e565b61147a610a3b565b1561149a5760405160e560020a62461bcd0281526004016105c090612d2e565b6011805460ff191660011790557f62e78cea01bee320cd4e420270b5ea74000d11b0c9f74754ebdbfc544b05a25861139f61107a565b6000610bdc8383611b16565b5490565b6114fa848460405180602001604052806000815250611b51565b600083815260066020908152604090912082516115199284019061238a565b50600083815260056020908152604090912083516115399285019061238a565b5050505050565b80546001019055565b81600160a060020a031683600160a060020a0316141561157e5760405160e560020a62461bcd0281526004016105c090612c3d565b600160a060020a038381166000818152600c602090815260408083209487168084529490915290819020805460ff1916851515179055517f17307eab39ab6107e8899845ad3d59bd9653f200f220920489ca2b5937696c31906115e2908590612945565b60405180910390a3505050565b6115fa848484611181565b61160684848484611b87565b6109d45760405160e560020a62461bcd0281526004016105c090612a92565b606060138054610513906132d3565b606081611675575060408051808201909152600181527f300000000000000000000000000000000000000000000000000000000000000060208201526104ff565b8160005b811561169f578061168981613311565b91506116989050600a83613246565b9150611679565b60008167ffffffffffffffff8111156116cb5760e060020a634e487b7102600052604160045260246000fd5b6040519080825280601f01601f1916602001820160405280156116f5576020820181803683370190505b5090505b84156111795761170a600183613279565b9150611717600a8661332c565b61172290603061322e565b7f0100000000000000000000000000000000000000000000000000000000000000028183815181106117675760e060020a634e487b7102600052603260045260246000fd5b6020010190600160f860020a031916908160001a905350611789600a86613246565b94506116f9565b60006104fc826114dc565b6117a48261079c565b6117b0816112dc61107a565b61067e838361196d565b6117c48282610be3565b610d6557600082815260208181526040808320600160a060020a03851684529091529020805460ff191660011790556117fb61107a565b600160a060020a031681600160a060020a0316837f2f8788117e7eff1d82e926ec794901d17c78024a50270940304540a733656f0d60405160405180910390a45050565b600061184b8383611cda565b61188157508154600181810184556000848152602080822090930184905584548482528286019093526040902091909155610825565b506000610825565b6000600160e060020a031982167f80ac58cd0000000000000000000000000000000000000000000000000000000014806118ec5750600160e060020a031982167f5b5e139f00000000000000000000000000000000000000000000000000000000145b806104fc57506104fc82611cf2565b61067e838383611d30565b6119108282610be3565b610d655761192881600160a060020a03166014611d63565b611933836020611d63565b604051602001611944929190612814565b60408051601f198184030181529082905260e560020a62461bcd0282526105c091600401612959565b6119778282610be3565b15610d6557600082815260208181526040808320600160a060020a03851684529091529020805460ff191690556119ac61107a565b600160a060020a031681600160a060020a0316837ff6391f5c32d9c69d2a47ea670b442974b53935d1edc7fd64eb21e047a839171b60405160405180910390a45050565b60008181526001830160205260408120548015611b0c576000611a14600183613279565b8554909150600090611a2890600190613279565b9050818114611aaf576000866000018281548110611a595760e060020a634e487b7102600052603260045260246000fd5b9060005260206000200154905080876000018481548110611a8d5760e060020a634e487b7102600052603260045260246000fd5b6000918252602080832090910192909255918252600188019052604090208390555b8554869080611ad15760e060020a634e487b7102600052603160045260246000fd5b600190038181906000526020600020016000905590558560010160008681526020019081526020016000206000905560019350505050610825565b6000915050610825565b6000826000018281548110611b3e5760e060020a634e487b7102600052603260045260246000fd5b9060005260206000200154905092915050565b611b5b8383611f8a565b611b686000848484611b87565b61067e5760405160e560020a62461bcd0281526004016105c090612a92565b6000611b9b84600160a060020a0316612084565b15611ccf5783600160a060020a031663150b7a02611bb761107a565b8786866040518563ffffffff167c0100000000000000000000000000000000000000000000000000000000028152600401611bf594939291906128a9565b602060405180830381600087803b158015611c0f57600080fd5b505af1925050508015611c3f575060408051601f3d908101601f19168201909252611c3c91810190612714565b60015b611c9c573d808015611c6d576040519150601f19603f3d011682016040523d82523d6000602084013e611c72565b606091505b508051611c945760405160e560020a62461bcd0281526004016105c090612a92565b805181602001fd5b600160e060020a0319167f150b7a0200000000000000000000000000000000000000000000000000000000149050611179565b506001949350505050565b60009081526001919091016020526040902054151590565b6000600160e060020a031982167f5a05180f0000000000000000000000000000000000000000000000000000000014806104fc57506104fc8261208a565b611d3b8383836120c8565b611d43610a3b565b1561067e5760405160e560020a62461bcd0281526004016105c0906129a1565b60606000611d7283600261325a565b611d7d90600261322e565b67ffffffffffffffff811115611da65760e060020a634e487b7102600052604160045260246000fd5b6040519080825280601f01601f191660200182016040528015611dd0576020820181803683370190505b5090507f300000000000000000000000000000000000000000000000000000000000000081600081518110611e185760e060020a634e487b7102600052603260045260246000fd5b6020010190600160f860020a031916908160001a9053507f780000000000000000000000000000000000000000000000000000000000000081600181518110611e745760e060020a634e487b7102600052603260045260246000fd5b6020010190600160f860020a031916908160001a9053506000611e9884600261325a565b611ea390600161322e565b90505b6001811115611f68577f303132333435363738396162636465660000000000000000000000000000000085600f1660108110611ef55760e060020a634e487b7102600052603260045260246000fd5b1a7f010000000000000000000000000000000000000000000000000000000000000002828281518110611f3b5760e060020a634e487b7102600052603260045260246000fd5b6020010190600160f860020a031916908160001a905350601090940493611f61816132bc565b9050611ea6565b508315610bdc5760405160e560020a62461bcd0281526004016105c09061296c565b600160a060020a038216611fb35760405160e560020a62461bcd0281526004016105c090612e7c565b611fbc8161105d565b15611fdc5760405160e560020a62461bcd0281526004016105c090612b4c565b611fe8600083836118fb565b600160a060020a0382166000908152600a6020526040812080546001929061201190849061322e565b9091555050600081815260046020526040808220805473ffffffffffffffffffffffffffffffffffffffff1916600160a060020a03861690811790915590518392907fddf252ad1be2c89b69c2b068fc378daa952ba7f163c4a11628f55a4df523b3ef908290a4610d656000838361067e565b3b151590565b6000600160e060020a031982167f7965db0b0000000000000000000000000000000000000000000000000000000014806104fc57506104fc82612151565b6120d383838361067e565b600160a060020a0383166120ef576120ea81612183565b612112565b81600160a060020a031683600160a060020a0316146121125761211283826121c7565b600160a060020a03821661212e5761212981612264565b61067e565b82600160a060020a031682600160a060020a03161461067e5761067e8282612346565b600160e060020a031981167f01ffc9a70000000000000000000000000000000000000000000000000000000014919050565b600f80546000838152601060205260408120829055600182018355919091527f8d1108e10bcb7c27dddfc02ed9d693a074039d026cf4ea4240b40f7d581ac8020155565b600060016121d484610b2a565b6121de9190613279565b6000838152600e602052604090205490915080821461223157600160a060020a0384166000908152600d602090815260408083208584528252808320548484528184208190558352600e90915290208190555b506000918252600e60209081526040808420849055600160a060020a039094168352600d81528383209183525290812055565b600f5460009061227690600190613279565b600083815260106020526040812054600f80549394509092849081106122af5760e060020a634e487b7102600052603260045260246000fd5b9060005260206000200154905080600f83815481106122e15760e060020a634e487b7102600052603260045260246000fd5b600091825260208083209091019290925582815260109091526040808220849055858252812055600f80548061232a5760e060020a634e487b7102600052603160045260246000fd5b6001900381819060005260206000200160009055905550505050565b600061235183610b2a565b600160a060020a039093166000908152600d602090815260408083208684528252808320859055938252600e9052919091209190915550565b828054612396906132d3565b90600052602060002090601f0160209004810192826123b857600085556123fe565b82601f106123d157805160ff19168380011785556123fe565b828001600101855582156123fe579182015b828111156123fe5782518255916020019190600101906123e3565b5061240a92915061240e565b5090565b5b8082111561240a576000815560010161240f565b600067ffffffffffffffff8084111561243e5761243e613372565b604051601f8501601f19168101602001828111828210171561246257612462613372565b60405284815291508183850186101561247a57600080fd5b8484602083013760006020868301015250509392505050565b8035600160a060020a03811681146104ff57600080fd5b600082601f8301126124ba578081fd5b610bdc83833560208501612423565b6000602082840312156124da578081fd5b610bdc82612493565b600080604083850312156124f5578081fd5b6124fe83612493565b915061250c60208401612493565b90509250929050565b600080600060608486031215612529578081fd5b61253284612493565b925061254060208501612493565b9150604084013590509250925092565b60008060008060808587031215612565578081fd5b61256e85612493565b935061257c60208601612493565b925060408501359150606085013567ffffffffffffffff81111561259e578182fd5b8501601f810187136125ae578182fd5b6125bd87823560208401612423565b91505092959194509250565b600080604083850312156125db578182fd5b6125e483612493565b9150602083013580151581146125f8578182fd5b809150509250929050565b600080600060608486031215612617578283fd5b61262084612493565b9250602084013567ffffffffffffffff8082111561263c578384fd5b612648878388016124aa565b9350604086013591508082111561265d578283fd5b5061266a868287016124aa565b9150509250925092565b60008060408385031215612686578182fd5b61268f83612493565b946020939093013593505050565b6000602082840312156126ae578081fd5b5035919050565b600080604083850312156126c7578182fd5b8235915061250c60208401612493565b600080604083850312156126e9578182fd5b50508035926020909101359150565b600060208284031215612709578081fd5b8135610bdc8161338b565b600060208284031215612725578081fd5b8151610bdc8161338b565b60008060408385031215612742578182fd5b82359150602083013567ffffffffffffffff81111561275f578182fd5b61276b858286016124aa565b9150509250929050565b600080600060608486031215612789578081fd5b8335925060208401359150604084013567ffffffffffffffff8111156127ad578182fd5b61266a868287016124aa565b600081518084526127d1816020860160208601613290565b601f01601f19169290920160200192915050565b600083516127f7818460208801613290565b83519083019061280b818360208801613290565b01949350505050565b60007f416363657373436f6e74726f6c3a206163636f756e74200000000000000000008252835161284c816017850160208801613290565b7f206973206d697373696e6720726f6c65200000000000000000000000000000006017918401918201528351612889816028840160208801613290565b01602801949350505050565b600160a060020a0391909116815260200190565b6000600160a060020a038087168352808616602084015250836040830152608060608301526128db60808301846127b9565b9695505050505050565b6000602080830181845280855180835260408601915060408482028701019250838701855b8281101561293857603f198886030184526129268583516127b9565b9450928501929085019060010161290a565b5092979650505050505050565b901515815260200190565b90815260200190565b600060208252610bdc60208301846127b9565b6020808252818101527f537472696e67733a20686578206c656e67746820696e73756666696369656e74604082015260600190565b6020808252602b908201527f4552433732315061757361626c653a20746f6b656e207472616e73666572207760408201527f68696c6520706175736564000000000000000000000000000000000000000000606082015260800190565b60208082526014908201527f5061757361626c653a206e6f7420706175736564000000000000000000000000604082015260600190565b6020808252602b908201527f455243373231456e756d657261626c653a206f776e657220696e646578206f7560408201527f74206f6620626f756e6473000000000000000000000000000000000000000000606082015260800190565b60208082526032908201527f4552433732313a207472616e7366657220746f206e6f6e20455243373231526560408201527f63656976657220696d706c656d656e7465720000000000000000000000000000606082015260800190565b60208082526025908201527f4552433732313a207472616e736665722066726f6d20696e636f72726563742060408201527f6f776e6572000000000000000000000000000000000000000000000000000000606082015260800190565b6020808252601c908201527f4552433732313a20746f6b656e20616c7265616479206d696e74656400000000604082015260600190565b6020808252603e908201527f4552433732315072657365744d696e7465725061757365724175746f49643a2060408201527f6d75737420686176652070617573657220726f6c6520746f2070617573650000606082015260800190565b60208082526024908201527f4552433732313a207472616e7366657220746f20746865207a65726f2061646460408201527f7265737300000000000000000000000000000000000000000000000000000000606082015260800190565b60208082526019908201527f4552433732313a20617070726f766520746f2063616c6c657200000000000000604082015260600190565b60208082526025908201527f41727469636c65206d757374206265206164646564206265666f72652065646960408201527f74696f6e21000000000000000000000000000000000000000000000000000000606082015260800190565b6020808252602c908201527f4552433732313a206f70657261746f7220717565727920666f72206e6f6e657860408201527f697374656e7420746f6b656e0000000000000000000000000000000000000000606082015260800190565b60208082526010908201527f5061757361626c653a2070617573656400000000000000000000000000000000604082015260600190565b60208082526038908201527f4552433732313a20617070726f76652063616c6c6572206973206e6f74206f7760408201527f6e6572206e6f7220617070726f76656420666f7220616c6c0000000000000000606082015260800190565b6020808252602a908201527f4552433732313a2062616c616e636520717565727920666f7220746865207a6560408201527f726f206164647265737300000000000000000000000000000000000000000000606082015260800190565b60208082526029908201527f4552433732313a206f776e657220717565727920666f72206e6f6e657869737460408201527f656e7420746f6b656e0000000000000000000000000000000000000000000000606082015260800190565b6020808252818101527f4552433732313a206d696e7420746f20746865207a65726f2061646472657373604082015260600190565b6020808252602c908201527f4552433732313a20617070726f76656420717565727920666f72206e6f6e657860408201527f697374656e7420746f6b656e0000000000000000000000000000000000000000606082015260800190565b6020808252602f908201527f4552433732314d657461646174613a2055524920717565727920666f72206e6f60408201527f6e6578697374656e7420746f6b656e0000000000000000000000000000000000606082015260800190565b60208082526019908201527f4552433732313a206e6f6e6578697374656e7420746f6b656e00000000000000604082015260600190565b60208082526021908201527f4552433732313a20617070726f76616c20746f2063757272656e74206f776e6560408201527f7200000000000000000000000000000000000000000000000000000000000000606082015260800190565b60208082526031908201527f4552433732313a207472616e736665722063616c6c6572206973206e6f74206f60408201527f776e6572206e6f7220617070726f766564000000000000000000000000000000606082015260800190565b6020808252602c908201527f455243373231456e756d657261626c653a20676c6f62616c20696e646578206f60408201527f7574206f6620626f756e64730000000000000000000000000000000000000000606082015260800190565b6020808252603d908201527f4552433732315072657365744d696e7465725061757365724175746f49643a2060408201527f6d7573742068617665206d696e74657220726f6c6520746f206d696e74000000606082015260800190565b60208082526030908201527f4552433732314275726e61626c653a2063616c6c6572206973206e6f74206f7760408201527f6e6572206e6f7220617070726f76656400000000000000000000000000000000606082015260800190565b602080825260409082018190527f4552433732315072657365744d696e7465725061757365724175746f49643a20908201527f6d75737420686176652070617573657220726f6c6520746f20756e7061757365606082015260800190565b6020808252602f908201527f416363657373436f6e74726f6c3a2063616e206f6e6c792072656e6f756e636560408201527f20726f6c657320666f722073656c660000000000000000000000000000000000606082015260800190565b6000821982111561324157613241613340565b500190565b60008261325557613255613359565b500490565b600081600019048311821515161561327457613274613340565b500290565b60008282101561328b5761328b613340565b500390565b60005b838110156132ab578181015183820152602001613293565b838111156109d45750506000910152565b6000816132cb576132cb613340565b506000190190565b6002810460018216806132e757607f821691505b6020821081141561330b5760e060020a634e487b7102600052602260045260246000fd5b50919050565b600060001982141561332557613325613340565b5060010190565b60008261333b5761333b613359565b500690565b60e060020a634e487b7102600052601160045260246000fd5b60e060020a634e487b7102600052601260045260246000fd5b60e060020a634e487b7102600052604160045260246000fd5b600160e060020a0319811681146108f057600080fdfea26469706673582212205f27cd8c35cb61ee066a57321002a58236b45a8ffb4efda03f4d577eaa134a5d64736f6c63430008000033",
  "immutableReferences": {},
  "source": "// SPDX-License-Identifier: MIT\npragma solidity ^0.8.0;\nimport \"./presets/ERC721PresetMinterPauserAutoId.sol\";\n\n//import \"./presets/ERC721PresetMinterPauserAutoId.sol\";\n\ncontract NFT is ERC721PresetMinterPauserAutoId {\n    constructor()ERC721PresetMinterPauserAutoId(\n        \"Passport\",\"T2P\",\"127.0.0.1:8080/ipfs/\"\n    ){\n\n    }\n}\n",
  "sourcePath": "/Users/rakoon/Documents/Projects/DappsLab/Lottery-Smart-Contract/contracts/token/ERC721/NFT.sol",
  "compiler": {
    "name": "solc",
    "version": "0.8.0+commit.c7dfd78e.Emscripten.clang"
  },
  "schemaVersion": "3.4.6",
  "updatedAt": "2022-06-22T06:12:54.867Z",
  "networkType": "ethereum",
  "devdoc": {
    "kind": "dev",
    "methods": {
      "approve(address,uint256)": {
        "details": "See {IERC721-approve}."
      },
      "balanceOf(address)": {
        "details": "See {IERC721-balanceOf}."
      },
      "burn(uint256)": {
        "details": "Burns `tokenId`. See {ERC721-_burn}. Requirements: - The caller must own `tokenId` or be an approved operator."
      },
      "getApproved(uint256)": {
        "details": "See {IERC721-getApproved}."
      },
      "getRoleAdmin(bytes32)": {
        "details": "Returns the admin role that controls `role`. See {grantRole} and {revokeRole}. To change a role's admin, use {_setRoleAdmin}."
      },
      "getRoleMember(bytes32,uint256)": {
        "details": "Returns one of the accounts that have `role`. `index` must be a value between 0 and {getRoleMemberCount}, non-inclusive. Role bearers are not sorted in any particular way, and their ordering may change at any point. WARNING: When using {getRoleMember} and {getRoleMemberCount}, make sure you perform all queries on the same block. See the following https://forum.openzeppelin.com/t/iterating-over-elements-on-enumerableset-in-openzeppelin-contracts/2296[forum post] for more information."
      },
      "getRoleMemberCount(bytes32)": {
        "details": "Returns the number of accounts that have `role`. Can be used together with {getRoleMember} to enumerate all bearers of a role."
      },
      "grantRole(bytes32,address)": {
        "details": "Overload {grantRole} to track enumerable memberships"
      },
      "hasRole(bytes32,address)": {
        "details": "Returns `true` if `account` has been granted `role`."
      },
      "isApprovedForAll(address,address)": {
        "details": "See {IERC721-isApprovedForAll}."
      },
      "mint(address,string,string)": {
        "details": "Creates a new token for `to`. Its token ID will be automatically assigned (and available on the emitted {IERC721-Transfer} event), and the token URI autogenerated based on the base URI passed at construction. See {ERC721-_mint}. Requirements: - the caller must have the `MINTER_ROLE`."
      },
      "name()": {
        "details": "See {IERC721Metadata-name}."
      },
      "ownerOf(uint256)": {
        "details": "See {IERC721-ownerOf}."
      },
      "pause()": {
        "details": "Pauses all token transfers. See {ERC721Pausable} and {Pausable-_pause}. Requirements: - the caller must have the `PAUSER_ROLE`."
      },
      "paused()": {
        "details": "Returns true if the contract is paused, and false otherwise."
      },
      "renounceRole(bytes32,address)": {
        "details": "Overload {renounceRole} to track enumerable memberships"
      },
      "revokeRole(bytes32,address)": {
        "details": "Overload {revokeRole} to track enumerable memberships"
      },
      "safeTransferFrom(address,address,uint256)": {
        "details": "See {IERC721-safeTransferFrom}."
      },
      "safeTransferFrom(address,address,uint256,bytes)": {
        "details": "See {IERC721-safeTransferFrom}."
      },
      "setApprovalForAll(address,bool)": {
        "details": "See {IERC721-setApprovalForAll}."
      },
      "supportsInterface(bytes4)": {
        "details": "See {IERC165-supportsInterface}."
      },
      "symbol()": {
        "details": "See {IERC721Metadata-symbol}."
      },
      "tokenByIndex(uint256)": {
        "details": "See {IERC721Enumerable-tokenByIndex}."
      },
      "tokenOfOwnerByIndex(address,uint256)": {
        "details": "See {IERC721Enumerable-tokenOfOwnerByIndex}."
      },
      "tokenURI(uint256)": {
        "details": "See {IERC721Metadata-tokenURI}."
      },
      "totalSupply()": {
        "details": "See {IERC721Enumerable-totalSupply}."
      },
      "transferFrom(address,address,uint256)": {
        "details": "See {IERC721-transferFrom}."
      },
      "unpause()": {
        "details": "Unpauses all token transfers. See {ERC721Pausable} and {Pausable-_unpause}. Requirements: - the caller must have the `PAUSER_ROLE`."
      }
    },
    "version": 1
  },
  "userdoc": {
    "kind": "user",
    "methods": {},
    "version": 1
  }
}