{
  "contractName": "NFT",
  "abi": [
    {
      "inputs": [],
      "stateMutability": "nonpayable",
      "type": "constructor"
    },
    {
      "anonymous": false,
      "inputs": [
        {
          "indexed": true,
          "internalType": "address",
          "name": "owner",
          "type": "address"
        },
        {
          "indexed": true,
          "internalType": "address",
          "name": "approved",
          "type": "address"
        },
        {
          "indexed": true,
          "internalType": "uint256",
          "name": "tokenId",
          "type": "uint256"
        }
      ],
      "name": "Approval",
      "type": "event"
    },
    {
      "anonymous": false,
      "inputs": [
        {
          "indexed": true,
          "internalType": "address",
          "name": "owner",
          "type": "address"
        },
        {
          "indexed": true,
          "internalType": "address",
          "name": "operator",
          "type": "address"
        },
        {
          "indexed": false,
          "internalType": "bool",
          "name": "approved",
          "type": "bool"
        }
      ],
      "name": "ApprovalForAll",
      "type": "event"
    },
    {
      "anonymous": false,
      "inputs": [
        {
          "indexed": true,
          "internalType": "address",
          "name": "from",
          "type": "address"
        },
        {
          "indexed": true,
          "internalType": "address",
          "name": "to",
          "type": "address"
        },
        {
          "indexed": true,
          "internalType": "uint256",
          "name": "tokenId",
          "type": "uint256"
        }
      ],
      "name": "Transfer",
      "type": "event"
    },
    {
      "inputs": [
        {
          "internalType": "address",
          "name": "to",
          "type": "address"
        },
        {
          "internalType": "uint256",
          "name": "tokenId",
          "type": "uint256"
        },
        {
          "internalType": "string",
          "name": "username_",
          "type": "string"
        },
        {
          "internalType": "string",
          "name": "email_",
          "type": "string"
        }
      ],
      "name": "_safeMint",
      "outputs": [],
      "stateMutability": "nonpayable",
      "type": "function"
    },
    {
      "inputs": [
        {
          "internalType": "address",
          "name": "to",
          "type": "address"
        },
        {
          "internalType": "uint256",
          "name": "tokenId",
          "type": "uint256"
        }
      ],
      "name": "approve",
      "outputs": [],
      "stateMutability": "nonpayable",
      "type": "function"
    },
    {
      "inputs": [
        {
          "internalType": "uint256",
          "name": "tokenId",
          "type": "uint256"
        }
      ],
      "name": "articlesOf",
      "outputs": [
        {
          "internalType": "string[]",
          "name": "",
          "type": "string[]"
        }
      ],
      "stateMutability": "view",
      "type": "function",
      "constant": true
    },
    {
      "inputs": [
        {
          "internalType": "uint256",
          "name": "tokenId",
          "type": "uint256"
        },
        {
          "internalType": "uint256",
          "name": "articleID",
          "type": "uint256"
        }
      ],
      "name": "asticleOfPassportByID",
      "outputs": [
        {
          "internalType": "string",
          "name": "",
          "type": "string"
        }
      ],
      "stateMutability": "view",
      "type": "function",
      "constant": true
    },
    {
      "inputs": [
        {
          "internalType": "address",
          "name": "owner",
          "type": "address"
        }
      ],
      "name": "balanceOf",
      "outputs": [
        {
          "internalType": "uint256",
          "name": "",
          "type": "uint256"
        }
      ],
      "stateMutability": "view",
      "type": "function",
      "constant": true
    },
    {
      "inputs": [
        {
          "internalType": "uint256",
          "name": "tokenId",
          "type": "uint256"
        }
      ],
      "name": "emailOf",
      "outputs": [
        {
          "internalType": "string",
          "name": "",
          "type": "string"
        }
      ],
      "stateMutability": "view",
      "type": "function",
      "constant": true
    },
    {
      "inputs": [
        {
          "internalType": "uint256",
          "name": "tokenId",
          "type": "uint256"
        }
      ],
      "name": "getApproved",
      "outputs": [
        {
          "internalType": "address",
          "name": "",
          "type": "address"
        }
      ],
      "stateMutability": "view",
      "type": "function",
      "constant": true
    },
    {
      "inputs": [
        {
          "internalType": "address",
          "name": "owner",
          "type": "address"
        },
        {
          "internalType": "address",
          "name": "operator",
          "type": "address"
        }
      ],
      "name": "isApprovedForAll",
      "outputs": [
        {
          "internalType": "bool",
          "name": "",
          "type": "bool"
        }
      ],
      "stateMutability": "view",
      "type": "function",
      "constant": true
    },
    {
      "inputs": [],
      "name": "name",
      "outputs": [
        {
          "internalType": "string",
          "name": "",
          "type": "string"
        }
      ],
      "stateMutability": "view",
      "type": "function",
      "constant": true
    },
    {
      "inputs": [
        {
          "internalType": "uint256",
          "name": "tokenId",
          "type": "uint256"
        }
      ],
      "name": "ownerOf",
      "outputs": [
        {
          "internalType": "address",
          "name": "",
          "type": "address"
        }
      ],
      "stateMutability": "view",
      "type": "function",
      "constant": true
    },
    {
      "inputs": [
        {
          "internalType": "address",
          "name": "from",
          "type": "address"
        },
        {
          "internalType": "address",
          "name": "to",
          "type": "address"
        },
        {
          "internalType": "uint256",
          "name": "tokenId",
          "type": "uint256"
        }
      ],
      "name": "safeTransferFrom",
      "outputs": [],
      "stateMutability": "nonpayable",
      "type": "function"
    },
    {
      "inputs": [
        {
          "internalType": "address",
          "name": "from",
          "type": "address"
        },
        {
          "internalType": "address",
          "name": "to",
          "type": "address"
        },
        {
          "internalType": "uint256",
          "name": "tokenId",
          "type": "uint256"
        },
        {
          "internalType": "bytes",
          "name": "_data",
          "type": "bytes"
        }
      ],
      "name": "safeTransferFrom",
      "outputs": [],
      "stateMutability": "nonpayable",
      "type": "function"
    },
    {
      "inputs": [
        {
          "internalType": "address",
          "name": "operator",
          "type": "address"
        },
        {
          "internalType": "bool",
          "name": "approved",
          "type": "bool"
        }
      ],
      "name": "setApprovalForAll",
      "outputs": [],
      "stateMutability": "nonpayable",
      "type": "function"
    },
    {
      "inputs": [
        {
          "internalType": "uint256",
          "name": "tokenId",
          "type": "uint256"
        },
        {
          "internalType": "string",
          "name": "CID",
          "type": "string"
        }
      ],
      "name": "setArticle",
      "outputs": [],
      "stateMutability": "nonpayable",
      "type": "function"
    },
    {
      "inputs": [
        {
          "internalType": "bytes4",
          "name": "interfaceId",
          "type": "bytes4"
        }
      ],
      "name": "supportsInterface",
      "outputs": [
        {
          "internalType": "bool",
          "name": "",
          "type": "bool"
        }
      ],
      "stateMutability": "view",
      "type": "function",
      "constant": true
    },
    {
      "inputs": [],
      "name": "symbol",
      "outputs": [
        {
          "internalType": "string",
          "name": "",
          "type": "string"
        }
      ],
      "stateMutability": "view",
      "type": "function",
      "constant": true
    },
    {
      "inputs": [
        {
          "internalType": "uint256",
          "name": "tokenId",
          "type": "uint256"
        }
      ],
      "name": "tokenURI",
      "outputs": [
        {
          "internalType": "string",
          "name": "",
          "type": "string"
        }
      ],
      "stateMutability": "view",
      "type": "function",
      "constant": true
    },
    {
      "inputs": [
        {
          "internalType": "address",
          "name": "from",
          "type": "address"
        },
        {
          "internalType": "address",
          "name": "to",
          "type": "address"
        },
        {
          "internalType": "uint256",
          "name": "tokenId",
          "type": "uint256"
        }
      ],
      "name": "transferFrom",
      "outputs": [],
      "stateMutability": "nonpayable",
      "type": "function"
    },
    {
      "inputs": [
        {
          "internalType": "uint256",
          "name": "tokenId",
          "type": "uint256"
        }
      ],
      "name": "usernameOf",
      "outputs": [
        {
          "internalType": "string",
          "name": "",
          "type": "string"
        }
      ],
      "stateMutability": "view",
      "type": "function",
      "constant": true
    }
  ],
  "bytecode": "0x60806040523480156200001157600080fd5b50604080518082018252600881527f50617373706f727400000000000000000000000000000000000000000000000060208083019182528351808501909452600384527f54325000000000000000000000000000000000000000000000000000000000009084015281519192916200008c91600091620000ab565b508051620000a2906001906020840190620000ab565b505050620001a7565b828054620000b99062000151565b90600052602060002090601f016020900481019282620000dd576000855562000128565b82601f10620000f857805160ff191683800117855562000128565b8280016001018555821562000128579182015b82811115620001285782518255916020019190600101906200010b565b50620001369291506200013a565b5090565b5b808211156200013657600081556001016200013b565b6002810460018216806200016657607f821691505b60208210811415620001a1577f4e487b7100000000000000000000000000000000000000000000000000000000600052602260045260246000fd5b50919050565b611d7e80620001b76000396000f3fe608060405234801561001057600080fd5b506004361061013e576000357c01000000000000000000000000000000000000000000000000000000009004806370a08231116100ca578063b88d4fde1161008e578063b88d4fde14610283578063b8b0af3614610296578063c6c1b3be146102a9578063c87b56dd146102bc578063e985e9c5146102cf5761013e565b806370a082311461021557806395d89b4114610235578063a22cb4651461023d578063a56ed44414610250578063a6516e7a146102705761013e565b80631e6c0b36116101115780631e6c0b36146101b657806323b872dd146101c95780633101f1cc146101dc57806342842e0e146101ef5780636352211e146102025761013e565b806301ffc9a71461014357806306fdde031461016c578063081812fc14610181578063095ea7b3146101a1575b600080fd5b610156610151366004611547565b6102e2565b6040516101639190611708565b60405180910390f35b61017461035c565b6040516101639190611713565b61019461018f36600461157f565b6103ee565b6040516101639190611658565b6101b46101af3660046114af565b61043d565b005b6101746101c436600461157f565b6104db565b6101b46101d73660046113c1565b6105b3565b6101b46101ea366004611597565b6105ee565b6101b46101fd3660046113c1565b6106ad565b61019461021036600461157f565b6106c8565b610228610223366004611375565b610700565b6040516101639190611bff565b610174610747565b6101b461024b366004611475565b610756565b61026361025e36600461157f565b61076c565b60405161016391906116a8565b6101b461027e3660046114d8565b610858565b6101b46102913660046113fc565b6108b8565b6101746102a43660046115dc565b6108fa565b6101746102b736600461157f565b6109a8565b6101746102ca36600461157f565b6109fb565b6101566102dd36600461138f565b610a81565b6000600160e060020a031982167f80ac58cd0000000000000000000000000000000000000000000000000000000014806103455750600160e060020a031982167f5b5e139f00000000000000000000000000000000000000000000000000000000145b80610354575061035482610aaf565b90505b919050565b60606000805461036b90611c77565b80601f016020809104026020016040519081016040528092919081815260200182805461039790611c77565b80156103e45780601f106103b9576101008083540402835291602001916103e4565b820191906000526020600020905b8154815290600101906020018083116103c757829003601f168201915b5050505050905090565b60006103f982610ae1565b6104215760405160e560020a62461bcd02815260040161041890611a54565b60405180910390fd5b50600090815260096020526040902054600160a060020a031690565b6000610448826106c8565b905080600160a060020a031683600160a060020a0316141561047f5760405160e560020a62461bcd02815260040161041890611b45565b80600160a060020a0316610491610afe565b600160a060020a031614806104ad57506104ad816102dd610afe565b6104cc5760405160e560020a62461bcd02815260040161041890611908565b6104d68383610b02565b505050565b600081815260026020526040902054606090600160a060020a03166105155760405160e560020a62461bcd02815260040161041890611b0e565b6000828152600360205260409020805461052e90611c77565b80601f016020809104026020016040519081016040528092919081815260200182805461055a90611c77565b80156105a75780601f1061057c576101008083540402835291602001916105a7565b820191906000526020600020905b81548152906001019060200180831161058a57829003601f168201915b50505050509050919050565b6105c46105be610afe565b82610b7d565b6105e35760405160e560020a62461bcd02815260040161041890611ba2565b6104d6838383610c05565b600082815260026020526040902054600160a060020a03166106255760405160e560020a62461bcd02815260040161041890611b0e565b60008281526006602052604090205461063f906001611c08565b60008381526006602090815260408083209390935560058152918120805460018101825590825290829020835161067e93919092019190840190611236565b50600082815260076020908152604080832060068352818420548452825290912082516104d692840190611236565b6104d6838383604051806020016040528060008152506108b8565b600081815260026020526040812054600160a060020a0316806103545760405160e560020a62461bcd028152600401610418906119c2565b6000600160a060020a03821661072b5760405160e560020a62461bcd02815260040161041890611965565b50600160a060020a031660009081526008602052604090205490565b60606001805461036b90611c77565b610768610761610afe565b8383610d4b565b5050565b606060056000838152602001908152602001600020805480602002602001604051908101604052809291908181526020016000905b8282101561084d5783829060005260206000200180546107c090611c77565b80601f01602080910402602001604051908101604052809291908181526020018280546107ec90611c77565b80156108395780601f1061080e57610100808354040283529160200191610839565b820191906000526020600020905b81548152906001019060200180831161081c57829003601f168201915b5050505050815260200190600101906107a1565b505050509050919050565b610872848460405180602001604052806000815250610df1565b6000838152600460209081526040909120825161089192840190611236565b50600083815260036020908152604090912083516108b192850190611236565b5050505050565b6108c96108c3610afe565b83610b7d565b6108e85760405160e560020a62461bcd02815260040161041890611ba2565b6108f484848484610e27565b50505050565b6000828152600760209081526040808320848452909152902080546060919061092290611c77565b80601f016020809104026020016040519081016040528092919081815260200182805461094e90611c77565b801561099b5780601f106109705761010080835404028352916020019161099b565b820191906000526020600020905b81548152906001019060200180831161097e57829003601f168201915b5050505050905092915050565b600081815260026020526040902054606090600160a060020a03166109e25760405160e560020a62461bcd02815260040161041890611b0e565b6000828152600460205260409020805461052e90611c77565b6060610a0682610ae1565b610a255760405160e560020a62461bcd02815260040161041890611ab1565b6000610a2f610e5d565b90506000815111610a4f5760405180602001604052806000815250610a7a565b80610a5984610e6f565b604051602001610a6a929190611629565b6040516020818303038152906040525b9392505050565b600160a060020a039182166000908152600a6020908152604080832093909416825291909152205460ff1690565b600160e060020a031981167f01ffc9a70000000000000000000000000000000000000000000000000000000014919050565b600090815260026020526040902054600160a060020a0316151590565b3390565b6000818152600960205260409020805473ffffffffffffffffffffffffffffffffffffffff1916600160a060020a0384169081179091558190610b44826106c8565b600160a060020a03167f8c5be1e5ebec7d5bd14f71427d1e84f3dd0314c0f7b2291e5b200ac8c7c3b92560405160405180910390a45050565b6000610b8882610ae1565b610ba75760405160e560020a62461bcd028152600401610418906118ab565b6000610bb2836106c8565b905080600160a060020a031684600160a060020a03161480610bd95750610bd98185610a81565b80610bfd575083600160a060020a0316610bf2846103ee565b600160a060020a0316145b949350505050565b82600160a060020a0316610c18826106c8565b600160a060020a031614610c415760405160e560020a62461bcd02815260040161041890611783565b600160a060020a038216610c6a5760405160e560020a62461bcd02815260040161041890611817565b610c758383836104d6565b610c80600082610b02565b600160a060020a0383166000908152600860205260408120805460019290610ca9908490611c34565b9091555050600160a060020a0382166000908152600860205260408120805460019290610cd7908490611c08565b9091555050600081815260026020526040808220805473ffffffffffffffffffffffffffffffffffffffff1916600160a060020a0386811691821790925591518493918716917fddf252ad1be2c89b69c2b068fc378daa952ba7f163c4a11628f55a4df523b3ef91a46104d68383836104d6565b81600160a060020a031683600160a060020a03161415610d805760405160e560020a62461bcd02815260040161041890611874565b600160a060020a038381166000818152600a602090815260408083209487168084529490915290819020805460ff1916851515179055517f17307eab39ab6107e8899845ad3d59bd9653f200f220920489ca2b5937696c3190610de4908590611708565b60405180910390a3505050565b610dfb8383610fe3565b610e0860008484846110dd565b6104d65760405160e560020a62461bcd02815260040161041890611726565b610e32848484610c05565b610e3e848484846110dd565b6108f45760405160e560020a62461bcd02815260040161041890611726565b60408051602081019091526000815290565b606081610eb0575060408051808201909152600181527f30000000000000000000000000000000000000000000000000000000000000006020820152610357565b8160005b8115610eda5780610ec481611cb5565b9150610ed39050600a83611c20565b9150610eb4565b60008167ffffffffffffffff811115610f065760e060020a634e487b7102600052604160045260246000fd5b6040519080825280601f01601f191660200182016040528015610f30576020820181803683370190505b5090505b8415610bfd57610f45600183611c34565b9150610f52600a86611cd0565b610f5d906030611c08565b7f010000000000000000000000000000000000000000000000000000000000000002818381518110610fa25760e060020a634e487b7102600052603260045260246000fd5b60200101907effffffffffffffffffffffffffffffffffffffffffffffffffffffffffffff1916908160001a905350610fdc600a86611c20565b9450610f34565b600160a060020a03821661100c5760405160e560020a62461bcd02815260040161041890611a1f565b61101581610ae1565b156110355760405160e560020a62461bcd028152600401610418906117e0565b611041600083836104d6565b600160a060020a038216600090815260086020526040812080546001929061106a908490611c08565b9091555050600081815260026020526040808220805473ffffffffffffffffffffffffffffffffffffffff1916600160a060020a03861690811790915590518392907fddf252ad1be2c89b69c2b068fc378daa952ba7f163c4a11628f55a4df523b3ef908290a4610768600083836104d6565b60006110f184600160a060020a0316611230565b156112255783600160a060020a031663150b7a0261110d610afe565b8786866040518563ffffffff167c010000000000000000000000000000000000000000000000000000000002815260040161114b949392919061166c565b602060405180830381600087803b15801561116557600080fd5b505af1925050508015611195575060408051601f3d908101601f1916820190925261119291810190611563565b60015b6111f2573d8080156111c3576040519150601f19603f3d011682016040523d82523d6000602084013e6111c8565b606091505b5080516111ea5760405160e560020a62461bcd02815260040161041890611726565b805181602001fd5b600160e060020a0319167f150b7a0200000000000000000000000000000000000000000000000000000000149050610bfd565b506001949350505050565b3b151590565b82805461124290611c77565b90600052602060002090601f01602090048101928261126457600085556112aa565b82601f1061127d57805160ff19168380011785556112aa565b828001600101855582156112aa579182015b828111156112aa57825182559160200191906001019061128f565b506112b69291506112ba565b5090565b5b808211156112b657600081556001016112bb565b600067ffffffffffffffff808411156112ea576112ea611d16565b604051601f8501601f19168101602001828111828210171561130e5761130e611d16565b60405284815291508183850186101561132657600080fd5b8484602083013760006020868301015250509392505050565b8035600160a060020a038116811461035757600080fd5b600082601f830112611366578081fd5b610a7a838335602085016112cf565b600060208284031215611386578081fd5b610a7a8261133f565b600080604083850312156113a1578081fd5b6113aa8361133f565b91506113b86020840161133f565b90509250929050565b6000806000606084860312156113d5578081fd5b6113de8461133f565b92506113ec6020850161133f565b9150604084013590509250925092565b60008060008060808587031215611411578081fd5b61141a8561133f565b93506114286020860161133f565b925060408501359150606085013567ffffffffffffffff81111561144a578182fd5b8501601f8101871361145a578182fd5b611469878235602084016112cf565b91505092959194509250565b60008060408385031215611487578182fd5b6114908361133f565b9150602083013580151581146114a4578182fd5b809150509250929050565b600080604083850312156114c1578182fd5b6114ca8361133f565b946020939093013593505050565b600080600080608085870312156114ed578384fd5b6114f68561133f565b935060208501359250604085013567ffffffffffffffff80821115611519578384fd5b61152588838901611356565b9350606087013591508082111561153a578283fd5b5061146987828801611356565b600060208284031215611558578081fd5b8135610a7a81611d2f565b600060208284031215611574578081fd5b8151610a7a81611d2f565b600060208284031215611590578081fd5b5035919050565b600080604083850312156115a9578182fd5b82359150602083013567ffffffffffffffff8111156115c6578182fd5b6115d285828601611356565b9150509250929050565b600080604083850312156115ee578182fd5b50508035926020909101359150565b60008151808452611615816020860160208601611c4b565b601f01601f19169290920160200192915050565b6000835161163b818460208801611c4b565b83519083019061164f818360208801611c4b565b01949350505050565b600160a060020a0391909116815260200190565b6000600160a060020a0380871683528086166020840152508360408301526080606083015261169e60808301846115fd565b9695505050505050565b6000602080830181845280855180835260408601915060408482028701019250838701855b828110156116fb57603f198886030184526116e98583516115fd565b945092850192908501906001016116cd565b5092979650505050505050565b901515815260200190565b600060208252610a7a60208301846115fd565b60208082526032908201527f4552433732313a207472616e7366657220746f206e6f6e20455243373231526560408201527f63656976657220696d706c656d656e7465720000000000000000000000000000606082015260800190565b60208082526025908201527f4552433732313a207472616e736665722066726f6d20696e636f72726563742060408201527f6f776e6572000000000000000000000000000000000000000000000000000000606082015260800190565b6020808252601c908201527f4552433732313a20746f6b656e20616c7265616479206d696e74656400000000604082015260600190565b60208082526024908201527f4552433732313a207472616e7366657220746f20746865207a65726f2061646460408201527f7265737300000000000000000000000000000000000000000000000000000000606082015260800190565b60208082526019908201527f4552433732313a20617070726f766520746f2063616c6c657200000000000000604082015260600190565b6020808252602c908201527f4552433732313a206f70657261746f7220717565727920666f72206e6f6e657860408201527f697374656e7420746f6b656e0000000000000000000000000000000000000000606082015260800190565b60208082526038908201527f4552433732313a20617070726f76652063616c6c6572206973206e6f74206f7760408201527f6e6572206e6f7220617070726f76656420666f7220616c6c0000000000000000606082015260800190565b6020808252602a908201527f4552433732313a2062616c616e636520717565727920666f7220746865207a6560408201527f726f206164647265737300000000000000000000000000000000000000000000606082015260800190565b60208082526029908201527f4552433732313a206f776e657220717565727920666f72206e6f6e657869737460408201527f656e7420746f6b656e0000000000000000000000000000000000000000000000606082015260800190565b6020808252818101527f4552433732313a206d696e7420746f20746865207a65726f2061646472657373604082015260600190565b6020808252602c908201527f4552433732313a20617070726f76656420717565727920666f72206e6f6e657860408201527f697374656e7420746f6b656e0000000000000000000000000000000000000000606082015260800190565b6020808252602f908201527f4552433732314d657461646174613a2055524920717565727920666f72206e6f60408201527f6e6578697374656e7420746f6b656e0000000000000000000000000000000000606082015260800190565b60208082526019908201527f4552433732313a206e6f6e6578697374656e7420746f6b656e00000000000000604082015260600190565b60208082526021908201527f4552433732313a20617070726f76616c20746f2063757272656e74206f776e6560408201527f7200000000000000000000000000000000000000000000000000000000000000606082015260800190565b60208082526031908201527f4552433732313a207472616e736665722063616c6c6572206973206e6f74206f60408201527f776e6572206e6f7220617070726f766564000000000000000000000000000000606082015260800190565b90815260200190565b60008219821115611c1b57611c1b611ce4565b500190565b600082611c2f57611c2f611cfd565b500490565b600082821015611c4657611c46611ce4565b500390565b60005b83811015611c66578181015183820152602001611c4e565b838111156108f45750506000910152565b600281046001821680611c8b57607f821691505b60208210811415611caf5760e060020a634e487b7102600052602260045260246000fd5b50919050565b6000600019821415611cc957611cc9611ce4565b5060010190565b600082611cdf57611cdf611cfd565b500690565b60e060020a634e487b7102600052601160045260246000fd5b60e060020a634e487b7102600052601260045260246000fd5b60e060020a634e487b7102600052604160045260246000fd5b600160e060020a031981168114611d4557600080fd5b5056fea26469706673582212208f3a703ac0eabb18999ea93b60c6997dfa56b620f77237454c8da22dcb1c89a864736f6c63430008000033",
  "immutableReferences": {},
  "source": "// SPDX-License-Identifier: MIT\npragma solidity ^0.8.0;\nimport \"./ERC721.sol\";\n\n//import \"./presets/ERC721PresetMinterPauserAutoId.sol\";\n\ncontract NFT is ERC721 {\n    constructor()ERC721(\n        \"Passport\",\"T2P\"\n    ){\n\n    }\n}\n",
  "sourcePath": "/Users/rakoon/Documents/Projects/DappsLab/Lottery-Smart-Contract/contracts/token/ERC721/NFT.sol",
  "compiler": {
    "name": "solc",
    "version": "0.8.0+commit.c7dfd78e.Emscripten.clang"
  },
  "schemaVersion": "3.4.6",
  "updatedAt": "2022-06-17T07:31:11.982Z",
  "networkType": "ethereum",
  "devdoc": {
    "kind": "dev",
    "methods": {
      "_safeMint(address,uint256,string,string)": {
        "details": "Safely mints `tokenId` and transfers it to `to`. Requirements: - `tokenId` must not exist. - If `to` refers to a smart contract, it must implement {IERC721Receiver-onERC721Received}, which is called upon a safe transfer. Emits a {Transfer} event."
      },
      "approve(address,uint256)": {
        "details": "See {IERC721-approve}."
      },
      "balanceOf(address)": {
        "details": "See {IERC721-balanceOf}."
      },
      "getApproved(uint256)": {
        "details": "See {IERC721-getApproved}."
      },
      "isApprovedForAll(address,address)": {
        "details": "See {IERC721-isApprovedForAll}."
      },
      "name()": {
        "details": "See {IERC721Metadata-name}."
      },
      "ownerOf(uint256)": {
        "details": "See {IERC721-ownerOf}."
      },
      "safeTransferFrom(address,address,uint256)": {
        "details": "See {IERC721-safeTransferFrom}."
      },
      "safeTransferFrom(address,address,uint256,bytes)": {
        "details": "See {IERC721-safeTransferFrom}."
      },
      "setApprovalForAll(address,bool)": {
        "details": "See {IERC721-setApprovalForAll}."
      },
      "supportsInterface(bytes4)": {
        "details": "See {IERC165-supportsInterface}."
      },
      "symbol()": {
        "details": "See {IERC721Metadata-symbol}."
      },
      "tokenURI(uint256)": {
        "details": "See {IERC721Metadata-tokenURI}."
      },
      "transferFrom(address,address,uint256)": {
        "details": "See {IERC721-transferFrom}."
      }
    },
    "version": 1
  },
  "userdoc": {
    "kind": "user",
    "methods": {},
    "version": 1
  }
}