{
  "contractName": "Token",
  "abi": [
    {
      "inputs": [],
      "stateMutability": "nonpayable",
      "type": "constructor"
    },
    {
      "anonymous": false,
      "inputs": [
        {
          "indexed": true,
          "internalType": "address",
          "name": "owner",
          "type": "address"
        },
        {
          "indexed": true,
          "internalType": "address",
          "name": "spender",
          "type": "address"
        },
        {
          "indexed": false,
          "internalType": "uint256",
          "name": "value",
          "type": "uint256"
        }
      ],
      "name": "Approval",
      "type": "event"
    },
    {
      "anonymous": false,
      "inputs": [
        {
          "indexed": true,
          "internalType": "address",
          "name": "from",
          "type": "address"
        },
        {
          "indexed": true,
          "internalType": "address",
          "name": "to",
          "type": "address"
        },
        {
          "indexed": false,
          "internalType": "uint256",
          "name": "value",
          "type": "uint256"
        }
      ],
      "name": "Transfer",
      "type": "event"
    },
    {
      "inputs": [
        {
          "internalType": "address",
          "name": "owner",
          "type": "address"
        },
        {
          "internalType": "address",
          "name": "spender",
          "type": "address"
        }
      ],
      "name": "allowance",
      "outputs": [
        {
          "internalType": "uint256",
          "name": "",
          "type": "uint256"
        }
      ],
      "stateMutability": "view",
      "type": "function"
    },
    {
      "inputs": [
        {
          "internalType": "address",
          "name": "spender",
          "type": "address"
        },
        {
          "internalType": "uint256",
          "name": "amount",
          "type": "uint256"
        }
      ],
      "name": "approve",
      "outputs": [
        {
          "internalType": "bool",
          "name": "",
          "type": "bool"
        }
      ],
      "stateMutability": "nonpayable",
      "type": "function"
    },
    {
      "inputs": [
        {
          "internalType": "address",
          "name": "account",
          "type": "address"
        }
      ],
      "name": "balanceOf",
      "outputs": [
        {
          "internalType": "uint256",
          "name": "",
          "type": "uint256"
        }
      ],
      "stateMutability": "view",
      "type": "function"
    },
    {
      "inputs": [
        {
          "internalType": "uint256",
          "name": "amount",
          "type": "uint256"
        }
      ],
      "name": "burn",
      "outputs": [],
      "stateMutability": "nonpayable",
      "type": "function"
    },
    {
      "inputs": [
        {
          "internalType": "address",
          "name": "account",
          "type": "address"
        },
        {
          "internalType": "uint256",
          "name": "amount",
          "type": "uint256"
        }
      ],
      "name": "burnFrom",
      "outputs": [],
      "stateMutability": "nonpayable",
      "type": "function"
    },
    {
      "inputs": [],
      "name": "decimals",
      "outputs": [
        {
          "internalType": "uint8",
          "name": "",
          "type": "uint8"
        }
      ],
      "stateMutability": "view",
      "type": "function"
    },
    {
      "inputs": [
        {
          "internalType": "address",
          "name": "spender",
          "type": "address"
        },
        {
          "internalType": "uint256",
          "name": "subtractedValue",
          "type": "uint256"
        }
      ],
      "name": "decreaseAllowance",
      "outputs": [
        {
          "internalType": "bool",
          "name": "",
          "type": "bool"
        }
      ],
      "stateMutability": "nonpayable",
      "type": "function"
    },
    {
      "inputs": [
        {
          "internalType": "address",
          "name": "spender",
          "type": "address"
        },
        {
          "internalType": "uint256",
          "name": "addedValue",
          "type": "uint256"
        }
      ],
      "name": "increaseAllowance",
      "outputs": [
        {
          "internalType": "bool",
          "name": "",
          "type": "bool"
        }
      ],
      "stateMutability": "nonpayable",
      "type": "function"
    },
    {
      "inputs": [],
      "name": "name",
      "outputs": [
        {
          "internalType": "string",
          "name": "",
          "type": "string"
        }
      ],
      "stateMutability": "view",
      "type": "function"
    },
    {
      "inputs": [],
      "name": "symbol",
      "outputs": [
        {
          "internalType": "string",
          "name": "",
          "type": "string"
        }
      ],
      "stateMutability": "view",
      "type": "function"
    },
    {
      "inputs": [],
      "name": "totalSupply",
      "outputs": [
        {
          "internalType": "uint256",
          "name": "",
          "type": "uint256"
        }
      ],
      "stateMutability": "view",
      "type": "function"
    },
    {
      "inputs": [
        {
          "internalType": "address",
          "name": "recipient",
          "type": "address"
        },
        {
          "internalType": "uint256",
          "name": "amount",
          "type": "uint256"
        }
      ],
      "name": "transfer",
      "outputs": [
        {
          "internalType": "bool",
          "name": "",
          "type": "bool"
        }
      ],
      "stateMutability": "nonpayable",
      "type": "function"
    },
    {
      "inputs": [
        {
          "internalType": "address",
          "name": "sender",
          "type": "address"
        },
        {
          "internalType": "address",
          "name": "recipient",
          "type": "address"
        },
        {
          "internalType": "uint256",
          "name": "amount",
          "type": "uint256"
        }
      ],
      "name": "transferFrom",
      "outputs": [
        {
          "internalType": "bool",
          "name": "",
          "type": "bool"
        }
      ],
      "stateMutability": "nonpayable",
      "type": "function"
    }
  ],
  "bytecode": "0x60806040523480156200001157600080fd5b506040518060400160405280600581526020017f546f6b656e0000000000000000000000000000000000000000000000000000008152506040518060400160405280600381526020017f544b4e00000000000000000000000000000000000000000000000000000000008152506a027b46536c66c8e30000003383838160039080519060200190620000a5929190620001f6565b508051620000bb906004906020840190620001f6565b505050620000d98183620000e3640100000000026401000000009004565b5050505062000370565b600160a060020a0382166200012f576040517f08c379a000000000000000000000000000000000000000000000000000000000815260040162000126906200029c565b60405180910390fd5b6200014660008383640100000000620001f1810204565b80600260008282546200015a9190620002dc565b9091555050600160a060020a0382166000908152602081905260408120805483929062000189908490620002dc565b9091555050604051600160a060020a038316906000907fddf252ad1be2c89b69c2b068fc378daa952ba7f163c4a11628f55a4df523b3ef90620001ce908590620002d3565b60405180910390a3620001ed60008383640100000000620001f1810204565b5050565b505050565b82805462000204906200031a565b90600052602060002090601f01602090048101928262000228576000855562000273565b82601f106200024357805160ff191683800117855562000273565b8280016001018555821562000273579182015b828111156200027357825182559160200191906001019062000256565b506200028192915062000285565b5090565b5b8082111562000281576000815560010162000286565b6020808252601f908201527f45524332303a206d696e7420746f20746865207a65726f206164647265737300604082015260600190565b90815260200190565b6000821982111562000315577f4e487b710000000000000000000000000000000000000000000000000000000081526011600452602481fd5b500190565b6002810460018216806200032f57607f821691505b602082108114156200036a577f4e487b7100000000000000000000000000000000000000000000000000000000600052602260045260246000fd5b50919050565b610dc580620003806000396000f3fe608060405234801561001057600080fd5b50600436106100ec576000357c01000000000000000000000000000000000000000000000000000000009004806342966c68116100a957806395d89b411161008357806395d89b41146101ba578063a457c2d7146101c2578063a9059cbb146101d5578063dd62ed3e146101e8576100ec565b806342966c681461017f57806370a082311461019457806379cc6790146101a7576100ec565b806306fdde03146100f1578063095ea7b31461010f57806318160ddd1461012f57806323b872dd14610144578063313ce56714610157578063395093511461016c575b600080fd5b6100f96101fb565b60405161010691906108d1565b60405180910390f35b61012261011d366004610885565b61028d565b60405161010691906108c6565b6101376102aa565b6040516101069190610cc6565b61012261015236600461084a565b6102b0565b61015f61034c565b6040516101069190610ccf565b61012261017a366004610885565b610351565b61019261018d3660046108ae565b6103a5565b005b6101376101a23660046107f7565b6103b9565b6101926101b5366004610885565b6103d8565b6100f961042e565b6101226101d0366004610885565b61043d565b6101226101e3366004610885565b6104b9565b6101376101f6366004610818565b6104cd565b60606003805461020a90610d0c565b80601f016020809104026020016040519081016040528092919081815260200182805461023690610d0c565b80156102835780601f1061025857610100808354040283529160200191610283565b820191906000526020600020905b81548152906001019060200180831161026657829003601f168201915b5050505050905090565b60006102a161029a6104f8565b84846104fc565b50600192915050565b60025490565b60006102bd8484846105b6565b600160a060020a0384166000908152600160205260408120816102de6104f8565b600160a060020a0316600160a060020a031681526020019081526020016000205490508281101561032d5760405160e560020a62461bcd02815260040161032490610a98565b60405180910390fd5b610341856103396104f8565b8584036104fc565b506001949350505050565b601290565b60006102a161035e6104f8565b84846001600061036c6104f8565b600160a060020a03908116825260208083019390935260409182016000908120918b16815292529020546103a09190610cdd565b6104fc565b6103b66103b06104f8565b826106e9565b50565b600160a060020a0381166000908152602081905260409020545b919050565b60006103e6836101f66104f8565b90508181101561040b5760405160e560020a62461bcd02815260040161032490610af5565b61041f836104176104f8565b8484036104fc565b61042983836106e9565b505050565b60606004805461020a90610d0c565b6000806001600061044c6104f8565b600160a060020a039081168252602080830193909352604091820160009081209188168152925290205490508281101561049b5760405160e560020a62461bcd02815260040161032490610c69565b6104af6104a66104f8565b858584036104fc565b5060019392505050565b60006102a16104c66104f8565b84846105b6565b600160a060020a03918216600090815260016020908152604080832093909416825291909152205490565b3390565b600160a060020a0383166105255760405160e560020a62461bcd02815260040161032490610c0c565b600160a060020a03821661054e5760405160e560020a62461bcd028152600401610324906109de565b600160a060020a0380841660008181526001602090815260408083209487168084529490915290819020849055517f8c5be1e5ebec7d5bd14f71427d1e84f3dd0314c0f7b2291e5b200ac8c7c3b925906105a9908590610cc6565b60405180910390a3505050565b600160a060020a0383166105df5760405160e560020a62461bcd02815260040161032490610baf565b600160a060020a0382166106085760405160e560020a62461bcd02815260040161032490610924565b610613838383610429565b600160a060020a0383166000908152602081905260409020548181101561064f5760405160e560020a62461bcd02815260040161032490610a3b565b600160a060020a03808516600090815260208190526040808220858503905591851681529081208054849290610686908490610cdd565b9250508190555082600160a060020a031684600160a060020a03167fddf252ad1be2c89b69c2b068fc378daa952ba7f163c4a11628f55a4df523b3ef846040516106d09190610cc6565b60405180910390a36106e3848484610429565b50505050565b600160a060020a0382166107125760405160e560020a62461bcd02815260040161032490610b52565b61071e82600083610429565b600160a060020a0382166000908152602081905260409020548181101561075a5760405160e560020a62461bcd02815260040161032490610981565b600160a060020a0383166000908152602081905260408120838303905560028054849290610789908490610cf5565b9091555050604051600090600160a060020a038516907fddf252ad1be2c89b69c2b068fc378daa952ba7f163c4a11628f55a4df523b3ef906107cc908690610cc6565b60405180910390a361042983600084610429565b8035600160a060020a03811681146103d357600080fd5b600060208284031215610808578081fd5b610811826107e0565b9392505050565b6000806040838503121561082a578081fd5b610833836107e0565b9150610841602084016107e0565b90509250929050565b60008060006060848603121561085e578081fd5b610867846107e0565b9250610875602085016107e0565b9150604084013590509250925092565b60008060408385031215610897578182fd5b6108a0836107e0565b946020939093013593505050565b6000602082840312156108bf578081fd5b5035919050565b901515815260200190565b6000602080835283518082850152825b818110156108fd578581018301518582016040015282016108e1565b8181111561090e5783604083870101525b50601f01601f1916929092016040019392505050565b60208082526023908201527f45524332303a207472616e7366657220746f20746865207a65726f206164647260408201527f6573730000000000000000000000000000000000000000000000000000000000606082015260800190565b60208082526022908201527f45524332303a206275726e20616d6f756e7420657863656564732062616c616e60408201527f6365000000000000000000000000000000000000000000000000000000000000606082015260800190565b60208082526022908201527f45524332303a20617070726f766520746f20746865207a65726f20616464726560408201527f7373000000000000000000000000000000000000000000000000000000000000606082015260800190565b60208082526026908201527f45524332303a207472616e7366657220616d6f756e742065786365656473206260408201527f616c616e63650000000000000000000000000000000000000000000000000000606082015260800190565b60208082526028908201527f45524332303a207472616e7366657220616d6f756e742065786365656473206160408201527f6c6c6f77616e6365000000000000000000000000000000000000000000000000606082015260800190565b60208082526024908201527f45524332303a206275726e20616d6f756e74206578636565647320616c6c6f7760408201527f616e636500000000000000000000000000000000000000000000000000000000606082015260800190565b60208082526021908201527f45524332303a206275726e2066726f6d20746865207a65726f2061646472657360408201527f7300000000000000000000000000000000000000000000000000000000000000606082015260800190565b60208082526025908201527f45524332303a207472616e736665722066726f6d20746865207a65726f20616460408201527f6472657373000000000000000000000000000000000000000000000000000000606082015260800190565b60208082526024908201527f45524332303a20617070726f76652066726f6d20746865207a65726f2061646460408201527f7265737300000000000000000000000000000000000000000000000000000000606082015260800190565b60208082526025908201527f45524332303a2064656372656173656420616c6c6f77616e63652062656c6f7760408201527f207a65726f000000000000000000000000000000000000000000000000000000606082015260800190565b90815260200190565b60ff91909116815260200190565b60008219821115610cf057610cf0610d60565b500190565b600082821015610d0757610d07610d60565b500390565b600281046001821680610d2057607f821691505b60208210811415610d5a577f4e487b7100000000000000000000000000000000000000000000000000000000600052602260045260246000fd5b50919050565b7f4e487b7100000000000000000000000000000000000000000000000000000000600052601160045260246000fdfea264697066735822122005fc3b23d9189f28e70dd2f4650b6901a9ea520b7c975323ed00db26f0033bf264736f6c63430008000033",
  "immutableReferences": {},
  "source": "// SPDX-License-Identifier: MIT\npragma solidity ^0.8.0;\nimport \"../openzeppelin/contracts/token/ERC20/presets/ERC20PresetFixedSupply.sol\";\ncontract Token is ERC20PresetFixedSupply{\n    constructor()\n    ERC20PresetFixedSupply(\n        \"Token\",\n        \"TKN\",\n        3000000000000000000000000,\n        msg.sender\n    )\n    {}\n}\n",
  "sourcePath": "/Volumes/Transcend/Projects/DappsLab/Lottery-Smart-Contract/contracts/Token.sol",
  "compiler": {
    "name": "solc",
    "version": "0.8.0+commit.c7dfd78e.Emscripten.clang"
  },
  "schemaVersion": "3.4.3",
  "updatedAt": "2021-10-28T09:05:59.259Z",
  "devdoc": {
    "kind": "dev",
    "methods": {
      "allowance(address,address)": {
        "details": "See {IERC20-allowance}."
      },
      "approve(address,uint256)": {
        "details": "See {IERC20-approve}. Requirements: - `spender` cannot be the zero address."
      },
      "balanceOf(address)": {
        "details": "See {IERC20-balanceOf}."
      },
      "burn(uint256)": {
        "details": "Destroys `amount` tokens from the caller. See {ERC20-_burn}."
      },
      "burnFrom(address,uint256)": {
        "details": "Destroys `amount` tokens from `account`, deducting from the caller's allowance. See {ERC20-_burn} and {ERC20-allowance}. Requirements: - the caller must have allowance for ``accounts``'s tokens of at least `amount`."
      },
      "decimals()": {
        "details": "Returns the number of decimals used to get its user representation. For example, if `decimals` equals `2`, a balance of `505` tokens should be displayed to a user as `5.05` (`505 / 10 ** 2`). Tokens usually opt for a value of 18, imitating the relationship between Ether and Wei. This is the value {ERC20} uses, unless this function is overridden; NOTE: This information is only used for _display_ purposes: it in no way affects any of the arithmetic of the contract, including {IERC20-balanceOf} and {IERC20-transfer}."
      },
      "decreaseAllowance(address,uint256)": {
        "details": "Atomically decreases the allowance granted to `spender` by the caller. This is an alternative to {approve} that can be used as a mitigation for problems described in {IERC20-approve}. Emits an {Approval} event indicating the updated allowance. Requirements: - `spender` cannot be the zero address. - `spender` must have allowance for the caller of at least `subtractedValue`."
      },
      "increaseAllowance(address,uint256)": {
        "details": "Atomically increases the allowance granted to `spender` by the caller. This is an alternative to {approve} that can be used as a mitigation for problems described in {IERC20-approve}. Emits an {Approval} event indicating the updated allowance. Requirements: - `spender` cannot be the zero address."
      },
      "name()": {
        "details": "Returns the name of the token."
      },
      "symbol()": {
        "details": "Returns the symbol of the token, usually a shorter version of the name."
      },
      "totalSupply()": {
        "details": "See {IERC20-totalSupply}."
      },
      "transfer(address,uint256)": {
        "details": "See {IERC20-transfer}. Requirements: - `recipient` cannot be the zero address. - the caller must have a balance of at least `amount`."
      },
      "transferFrom(address,address,uint256)": {
        "details": "See {IERC20-transferFrom}. Emits an {Approval} event indicating the updated allowance. This is not required by the EIP. See the note at the beginning of {ERC20}. Requirements: - `sender` and `recipient` cannot be the zero address. - `sender` must have a balance of at least `amount`. - the caller must have allowance for ``sender``'s tokens of at least `amount`."
      }
    },
    "version": 1
  },
  "userdoc": {
    "kind": "user",
    "methods": {},
    "version": 1
  }
}